:0400000060EF00F0BD
:0E0008004D82FACF62F0FBCF63F09EEFA3F0C3
:100018004D80D8CF28F0E8CF29F0E0CF2AF0FACFEA
:100028002BF0FBCF2CF0E9CF2DF0EACF2EF0E1CF6B
:100038002FF0E2CF30F0D9CF31F0DACF32F0F3CF72
:1000480033F0F4CF34F0F6CF35F0F7CF36F0F8CF01
:1000580037F0F5CF38F0A1A20BD0010E1C26000E08
:100068001D221E221F22630EB36EC00EB26EA19215
:1000780038C0F5FF37C0F8FF36C0F7FF35C0F6FFC8
:1000880034C0F4FF33C0F3FF32C0DAFF31C0D9FF08
:1000980030C0E2FF2FC0E1FF2EC0EAFF2DC0E9FF0C
:1000A8002CC0FBFF2BC0FAFF2AC0E0FF29C0E8FFE5
:0C00B80028C0D8FF4D90100054EFB1F0AC
:10FD9E00000000803FCDCCCC3D0AD7233C6F1283B0
:10FDAE003A17B7D138ACC52737BD37863595BFD68C
:10FDBE003377CC2B325F708930FFE6DB2E08E53CC3
:10FDCE001E6042A20D0000803F000020410000C8CE
:10FDDE004200007A4400401C460050C34700247481
:10FDEE00498096184B20BCBE4C286B6E4EF90215FE
:10FDFE0050EC78AD60CAF24971010000000A0000B3
:10FE0E000064000000E803000010270000A0860137
:10FE1E000040420F008096980000E1F50500CA9A56
:10FE2E003B202020202020204641494C45442120C3
:10FE3E002020202020002020202020434F4D504CF9
:10FE4E0045544544212020202020002020202053EE
:10FE5E0055434345535346554C4C592020202000C2
:10FE6E002020207374617274207061726B696E67EA
:10FE7E002020202000202050726573732074686546
:10FE8E0020627574746F6E202000202020647565CA
:10FE9E0020746F20616E206572726F7220200020B8
:10FEAE00756E74696C206E657874206D6573736100
:10FEBE006765200050726573732074686520425523
:10FECE0054544F4E20746F2000205061726B696E37
:10FEDE00672070726F6365647572657320002D20E4
:10FEEE0044697374616E63652052454143484544CD
:10FEFE00202D002D3E20204B454550204D4F56497C
:10FF0E004E472020203C2D003D20202020506172A5
:10FF1E006B696E6720696E202020203D003D2020F9
:10FF2E00202070726F67726573732E2E2E20202024
:10FF3E003D003D205041524B494E47204D455353B5
:10FF4E0041474553203D003D3D3E205645484943DF
:10FF5E004C4520204F4646203C3D3D003D3D3D203A
:10FF6E0056454849434C452044415441203D3D3D72
:10FF7E00003D3D3D3D3D3D3D3D3D3D3D3D3D3D3DE0
:10FF8E003D3D3D3D3D00205061726B696E672073B3
:10FF9E007061636520464F554E440053706565642D
:10FFAE003A20302E3030204B6D2F68005061726B2E
:10FFBE00206173736973743A2000446972656374C7
:10FFCE00696F6E3A20004F46462020202000534590
:10FFDE00415243482000446174613A200050202071
:10FFEE0020004657442000424B574400252E3266CF
:02FFFE00000001
:020000040001F9
:100000000001796F000179510001D8A458D0000196
:100010007429D8A454D00F01019770C075F071C035
:1000200076F072C077F073C078F0040E06D000014D
:10003000D8907833773376337533E82EF8D775C098
:100040007AF076C07BF077C07CF078C07DF000015C
:100050007A5100017A6F7B6B7C6B7D6B7AC000FFFD
:10006000070E0001701500017A6F000E0001711576
:1000700000017B6F000E0001721500017C6F000E05
:100080000001731500017D6F7AC075F07BC076F0BA
:100090007CC077F07DC078F0050ED89000017537F0
:1000A000763777377837E82EF8D775C07AF076C08C
:1000B0007BF077C07CF078C07DF07AC001FF000152
:1000C0007905D8A458D000017429D8A454D00F01C0
:1000D000059770C075F071C076F072C077F073C08C
:1000E00078F0040E06D00001D89078337733763359
:1000F0007533E82EF8D775C07AF076C07BF077C0FC
:100100007CF078C07DF000017A5100017A6F7B6B42
:100110007C6B7D6B7AC004FF070E00017015000137
:100120007A6F000E0001711500017B6F000E000157
:10013000721500017C6F000E0001731500017D6FC8
:100140007AC075F07BC076F07CC077F07DC078F027
:10015000050ED89000017537763777377837E82E57
:10016000F8D775C07AF076C07BF077C07CF078C0A5
:100170007DF07AC005FF020E00017919D8A458D08D
:1001800000017429D8A454D00F01099770C075F0EC
:1001900071C076F072C077F073C078F0040E06D0AC
:1001A0000001D8907833773376337533E82EF8D75B
:1001B00075C07AF076C07BF077C07CF078C07DF0B7
:1001C00000017A5100017A6F7B6B7C6B7D6B7AC08A
:1001D00008FF070E0001701500017A6F000E000184
:1001E000711500017B6F000E0001721500017C6F1C
:1001F000000E0001731500017D6F7AC075F07BC0A1
:1002000076F07CC077F07DC078F0050ED8900001C4
:100210007537763777377837E82EF8D775C07AF0A4
:1002200076C07BF077C07CF078C07DF07AC009FFA3
:10023000030E00017919D8A458D000017429D8A45C
:1002400054D00F010D9770C075F071C076F072C078
:1002500077F073C078F0040E06D00001D8907833A0
:10026000773376337533E82EF8D775C07AF076C0D9
:100270007BF077C07CF078C07DF000017A510001FE
:100280007A6F7B6B7C6B7D6B7AC00CFF070E000175
:10029000701500017A6F000E0001711500017B6F6F
:1002A000000E0001721500017C6F000E0001731535
:1002B00000017D6F7AC075F07BC076F07CC077F06E
:1002C0007DC078F0050ED890000175377637773706
:1002D0007837E82EF8D775C07AF076C07BF077C013
:1002E0007CF078C07DF07AC00DFF040E0001791912
:1002F000D8A458D000017429D8A454D00F01119764
:1003000070C075F071C076F072C077F073C078F08D
:10031000040E06D00001D8907833773376337533E6
:10032000E82EF8D775C07AF076C07BF077C07CF005
:1003300078C07DF000017A5100017A6F7B6B7C6B95
:100340007D6B7AC010FF070E0001701500017A6FF7
:10035000000E0001711500017B6F000E0001721587
:1003600000017C6F000E0001731500017D6F7AC0E3
:1003700075F07BC076F07CC077F07DC078F0050E1C
:10038000D89000017537763777377837E82EF8D769
:1003900075C07AF076C07BF077C07CF078C07DF0D5
:1003A0007AC011FF050E00017919D8A458D00001B8
:1003B0007429D8A454D00F01159770C075F071C07E
:1003C00076F072C077F073C078F0040E06D00001AA
:1003D000D8907833773376337533E82EF8D775C0F5
:1003E0007AF076C07BF077C07CF078C07DF00001B9
:1003F0007A5100017A6F7B6B7C6B7D6B7AC014FF46
:10040000070E0001701500017A6F000E00017115D2
:1004100000017B6F000E0001721500017C6F000E61
:100420000001731500017D6F7AC075F07BC076F016
:100430007CC077F07DC078F0050ED890000175374C
:10044000763777377837E82EF8D775C07AF076C0E8
:100450007BF077C07CF078C07DF07AC015FF00019A
:1004600079510001D8A489D0F70E00017419D8A4DD
:1004700084D00F0101870001705100017A6F7B6BFE
:100480007C6B7D6B7AC003FF000E000170150001CC
:100490007A6FFF0E0001711500017B6F000E0001E5
:1004A000721500017C6F000E0001731500017D6F55
:1004B0007AC075F07BC076F07CC077F07DC078F0B4
:1004C00076C075F077C076F078C077F00001786B71
:1004D00075C07AF076C07BF077C07CF078C07DF094
:1004E0007AC002FF000172A103D00F01018102D086
:1004F0000F010191000172A303D00F01018302D00B
:100500000F010193000172A503D00F01018B02D0EE
:100510000F01019B000172A703D00F01018D02D0D2
:100520000F01019D000172A903D00F01018F02D0BC
:100530000F01019F70C075F071C076F072C077F046
:1005400073C078F0160E06D00001D8907833773358
:1005500076337533E82EF8D775C07AF076C07BF025
:1005600077C07CF078C07DF000017A5100017A6F8D
:100570007B6B7C6B7D6B7AC000FF00017905D8A492
:1005800089D0F70E00017419D8A484D00F01058713
:100590000001705100017A6F7B6B7C6B7D6B7AC0C0
:1005A00007FF000E0001701500017A6FFF0E0001B9
:1005B000711500017B6F000E0001721500017C6F48
:1005C000000E0001731500017D6F7AC075F07BC0CD
:1005D00076F07CC077F07DC078F076C075F077C09B
:1005E00076F078C077F00001786B75C07AF076C04D
:1005F0007BF077C07CF078C07DF07AC006FF000108
:1006000072A103D00F01058102D00F0105910001F5
:1006100072A303D00F01058302D00F0105930001DF
:1006200072A503D00F01058B02D00F01059B0001BD
:1006300072A703D00F01058D02D00F01059D0001A7
:1006400072A903D00F01058F02D00F01059F70C062
:1006500075F071C076F072C077F073C078F0160E46
:1006600006D00001D8907833773376337533E82E8F
:10067000F8D775C07AF076C07BF077C07CF078C090
:100680007DF000017A5100017A6F7B6B7C6B7D6B92
:100690007AC004FF020E00017919D8A489D0F70EA0
:1006A00000017419D8A484D00F010987000170518A
:1006B00000017A6F7B6B7C6B7D6B7AC00BFF000E49
:1006C0000001701500017A6FFF0E00017115000125
:1006D0007B6F000E0001721500017C6F000E00019F
:1006E000731500017D6F7AC075F07BC076F07CC019
:1006F00077F07DC078F076C075F077C076F078C07E
:1007000077F00001786B75C07AF076C07BF077C027
:100710007CF078C07DF07AC00AFF000172A103D09E
:100720000F01098102D00F010991000172A303D0CA
:100730000F01098302D00F010993000172A503D0B4
:100740000F01098B02D00F01099B000172A703D092
:100750000F01098D02D00F01099D000172A903D07C
:100760000F01098F02D00F01099F70C075F071C091
:1007700076F072C077F073C078F0160E06D00001E4
:10078000D8907833773376337533E82EF8D775C041
:100790007AF076C07BF077C07CF078C07DF0000105
:1007A0007A5100017A6F7B6B7C6B7D6B7AC008FF9E
:1007B000030E00017919D8A489D0F70E000174192D
:1007C000D8A484D00F010D870001705100017A6F09
:1007D0007B6B7C6B7D6B7AC00FFF000E0001701588
:1007E00000017A6FFF0E0001711500017B6F000E92
:1007F0000001721500017C6F000E000173150001ED
:100800007D6F7AC075F07BC076F07CC077F07DC0DC
:1008100078F076C075F077C076F078C077F0000198
:10082000786B75C07AF076C07BF077C07CF078C0CA
:100830007DF07AC00EFF000172A103D00F010D817F
:1008400002D00F010D91000172A303D00F010D839F
:1008500002D00F010D93000172A503D00F010D8B83
:1008600002D00F010D9B000172A703D00F010D8D67
:1008700002D00F010D9D000172A903D00F010D8F51
:1008800002D00F010D9F70C075F071C076F072C07C
:1008900077F073C078F0160E06D00001D890783348
:1008A000773376337533E82EF8D775C07AF076C093
:1008B0007BF077C07CF078C07DF000017A510001B8
:1008C0007A6F7B6B7C6B7D6B7AC00CFF040E000132
:1008D0007919D8A489D0F70E00017419D8A484D04E
:1008E0000F0111870001705100017A6F7B6B7C6BE7
:1008F0007D6B7AC013FF000E0001701500017A6F46
:10090000FF0E0001711500017B6F000E00017215D2
:1009100000017C6F000E0001731500017D6F7AC02D
:1009200075F07BC076F07CC077F07DC078F076C043
:1009300075F077C076F078C077F00001786B75C0FD
:100940007AF076C07BF077C07CF078C07DF07AC01A
:1009500012FF000172A103D00F01118102D00F011B
:100960001191000172A303D00F01118302D00F0176
:100970001193000172A503D00F01118B02D00F015A
:10098000119B000172A703D00F01118D02D00F013E
:10099000119D000172A903D00F01118F02D00F0128
:1009A000119F70C075F071C076F072C077F073C09F
:1009B00078F0160E06D00001D8907833773376336E
:1009C0007533E82EF8D775C07AF076C07BF077C023
:1009D0007CF078C07DF000017A5100017A6F7B6B6A
:1009E0007C6B7D6B7AC010FF050E00017919D8A4CD
:1009F0001200F70E00017419D8A412000F01158718
:100A00000001705100017A6F7B6B7C6B7D6B7AC04B
:100A100017FF000E0001701500017A6FFF0E000134
:100A2000711500017B6F000E0001721500017C6FD3
:100A3000000E0001731500017D6F7AC075F07BC058
:100A400076F07CC077F07DC078F076C075F077C026
:100A500076F078C077F00001786B75C07AF076C0D8
:100A60007BF077C07CF078C07DF07AC016FF000183
:100A700072A103D00F01158102D00F011591000161
:100A800072A303D00F01158302D00F01159300014B
:100A900072A503D00F01158B02D00F01159B000129
:100AA00072A703D00F01158D02D00F01159D000113
:100AB00072A903D00F01158F02D00F01159F70C0CE
:100AC00075F071C076F072C077F073C078F0160ED2
:100AD00006D00001D8907833773376337533E82E1B
:100AE000F8D775C07AF076C07BF077C07CF078C01C
:100AF0007DF000017A5100017A6F7B6B7C6B7D6B1E
:100B00007AC014FF1200C60E0101516F000E0101E0
:100B1000526FB5EF89F0250E01016519D8B408D0E0
:100B2000C2C0D9FFC3C0DAFF65C1DFFFB2EF89F0F1
:100B3000000E0101546F000E536FC4C0F6FFC5C014
:100B4000F7FF000EF86E0800F5502E0AD8A43DD02D
:100B50000101548D0001C44BC52B000E0101606FD3
:100B6000000E5F6F25D05FC170F060C171F0000EA4
:100B70000001736F0A0E726FCDECB1F0C4C0F6FFC6
:100B8000C5C0F7FF000EF86E0800F5500001702791
:100B9000000E00017123D00E0001702501015F6F6E
:100BA000FF0E000171210101606F0001C44BC52BD4
:100BB000C4C0F6FFC5C0F7FF000EF86E0800F55080
:100BC00034ECB2F0D8A00CD0CED7000E0101606F8B
:100BD000000E5F6F0101548903D00101548515D0C7
:100BE000C4C0F6FFC5C0F7FF0001C44BC52B000E03
:100BF000F86E0800F5CF65F101016551000AD8B41F
:100C0000C5D3660AD8B4E9D7B0D3070E010154158D
:100C1000D8B453D3010154A905D0000E0101606F6F
:100C2000060E5F6F51C1D9FF52C1DAFFDECF61F10D
:100C3000DECF62F1DECF63F1DECF64F1040E01019D
:100C40005127000E5223010164AF15D061C197F006
:100C500062C198F063C199F064C19AF0B1ECB1F04F
:100C600097C061F198C062F199C063F19AC064F1D4
:100C7000030E01015313000E01015A6F000E596F4C
:100C8000010161510101621101016311010164114E
:100C9000D8B48ED0010163356435820F0101596FDC
:100CA00001015A6BFF0E5A2301015907D8A05A07B8
:100CB00059C170F05AC171F0000E0001736F030E3C
:100CC000726FCDECB1F070C059F171C05AF159C1D9
:100CD00076F05AC177F0000E0001796F0A0E786F36
:100CE00068ECACF076C059F177C05AF101015AAF07
:100CF00004D001015907D8A05A0701015951000831
:100D0000BAEC94F097C05BF198C05CF199C05DF1CA
:100D10009AC05EF15BC17EF05CC17FF05DC180F086
:100D20005EC181F061C182F062C183F063C184F071
:100D300064C185F021EC9CF07EC05BF17FC05CF16A
:100D400080C05DF181C05EF15BC170F05CC171F08B
:100D50005DC172F05EC173F0000E0001746F000E91
:100D6000756F800E766F3F0E776F29ECA9F000014A
:100D7000D8B005D001015907D8A05A0719D05BC1D6
:100D800070F05CC171F05DC172F05EC173F0000E75
:100D90000001746F000E756F200E766F410E776F35
:100DA00029ECA9F00001D8A003D00101594B5A2B1E
:100DB000010160BF08D00101605123E10D0E010166
:100DC0005F5DD8B01ED061C1A4F062C1A5F063C15F
:100DD000A6F064C1A7F001015F5123ECA2F097C017
:100DE000A8F098C0A9F099C0AAF09AC0ABF0CDECD9
:100DF00099F0A4C061F1A5C062F1A6C063F1A7C0DB
:100E000064F101015ABF08D001015A512EE10A0EC6
:100E10000101595DD8B029D0010161510101621170
:100E20000101631101016411D8B46DD061C1B8F042
:100E300062C1B9F063C1BAF064C1BBF06CECABF055
:100E40000001B8510001B9110001BA110001BB1134
:100E5000D8A459D001015ABF56D001015A5105E119
:100E6000020E0101595DD8A04ED05BC170F05CC18B
:100E700071F05DC172F05EC173F05F0E0001746FBE
:100E8000700E756F890E766F400E776F29ECA9F0A2
:100E90000001D8B003D00101F70E02D00101F80E15
:100EA0005927FF0E5A2301015951BAEC94F097C00B
:100EB0005BF198C05CF199C05DF19AC05EF161C1CF
:100EC00070F062C171F063C172F064C173F05BC114
:100ED00074F05CC175F05DC176F05EC177F0F1EC45
:100EE000A9F070C055F171C056F172C057F173C0CE
:100EF00058F1000E0101616F000E626F000E636F0A
:100F0000000E646F3CD061C1B8F062C1B9F063C13A
:100F1000BAF064C1BBF06CECABF0B8C055F1B9C02D
:100F200056F1BAC057F1BBC058F161C1B8F062C107
:100F3000B9F063C1BAF064C1BBF055C170F056C1DD
:100F400071F057C172F058C173F0000ED9ECA4F0E3
:100F500070C0BCF071C0BDF072C0BEF073C0BFF015
:100F60000CECB1F0B8C061F1B9C062F1BAC063F184
:100F7000BBC064F1000E01015A6F000E596F010EE3
:100F80000101656F0A0E01016519D8B421D0010174
:100F90006551040D070EF324F66EFE0EF420F76E75
:100FA000F86A000EF8220900F5500101555D0900AC
:100FB000F550010156590900F55001015759090032
:100FC000F55001015859D8A003D00101652BDAD79B
:100FD000030E010153150001CA6F000E01015415E3
:100FE0000001CB6F0001CA510001CB11D8B458D019
:100FF000C2C0D9FFC3C0DAFF2D0E50D00001C24BD2
:10100000C32B4ED055C170F056C171F057C172F06C
:1010100058C173F001016551040D070EF324F66EFB
:10102000FE0EF420F76EF86A000EF8220900F5CFE4
:1010300074F00900F5CF75F00900F5CF76F00A00DD
:10104000F5CF77F026ECADF070C05BF171C05CF1CC
:1010500072C05DF173C05EF15BC170F05CC171F094
:101060005DC172F05EC173F00A0E0001746F000E74
:10107000756F000E766F000E776F84ECAEF070C067
:101080005BF171C05CF172C05DF173C05EF1010192
:101090005B51300FC2C0D9FFC3C0DAFFDF6EAED7DD
:1010A0000101650701016529D8B40ED0ABD7C2C0D4
:1010B000D9FFC3C0DAFF300EDF6E0001C24BC32B75
:1010C00001015907D8A05A0701015ABF07D00101F1
:1010D0005A51EDE101015905D8B0E9D7010160BFCE
:1010E0000CD00101605105E1090E01015F5DD8A03E
:1010F00004D0080E0101656F02D05FC165F10101E6
:10110000655101015F5F000E010165BFFF0E010126
:10111000605B010165510101D8B409D0C2C0D9FF9B
:10112000C3C0DAFF2E0EDF6E0001C24BC32B0101DC
:101130006551BAEC94F097C04DF198C04EF199C04A
:101140004FF19AC050F161C182F062C183F063C176
:1011500084F064C185F04DC17EF04EC17FF04FC177
:1011600080F050C181F021EC9CF07EC0B8F07FC0CF
:10117000B9F080C0BAF081C0BBF06CECABF0B8C085
:1011800055F1B9C056F1BAC057F1BBC058F17AD089
:1011900055C170F056C171F057C172F058C173F06B
:1011A00001016551040D070EF324F66EFE0EF420C6
:1011B000F76EF86A000EF8220900F5CF74F0090006
:1011C000F5CF75F00900F5CF76F00A00F5CF77F08E
:1011D00026ECADF070C05BF171C05CF172C05DF1E6
:1011E00073C05EF15BC170F05CC171F05DC172F003
:1011F0005EC173F00A0E0001746F000E756F000E71
:10120000766F000E776F84ECAEF070C05BF171C04A
:101210005CF172C05DF173C05EF101015B51300F92
:10122000C2C0D9FFC3C0DAFFDF6E0001C24BC32BBF
:1012300055C170F056C171F057C172F058C173F0CA
:1012400001016551040D070EF324F66EFE0EF42025
:10125000F76EF86A000EF8220900F5CF74F0090065
:10126000F5CF75F00900F5CF76F00A00F5CF77F0ED
:1012700084ECAEF070C055F171C056F172C057F1F8
:1012800073C058F10101650701016529D8B40ED07A
:101290007FD7C2C0D9FFC3C0DAFF300EDF6E0001B6
:1012A000C24BC32B01015F07D8A0600701015F514A
:1012B00001016011D8B459D0ECD701015F5101018F
:1012C0006011D8A40DD00101555101015611010141
:1012D000571101015811D8A403D001015F4B602BB5
:1012E000800E010165BF7F0E0001CA6F01015F51D1
:1012F0000101655D01016051800A0001CA59D8B041
:1013000003D05FC165F118D001016051800A00016E
:10131000CA6F0101655101015F5D800E010165BF6A
:101320007F0E0001CA59D8B007D0010165510101F3
:101330005F6F606B5FBF6007030E01015315000113
:10134000CA6F000E010154150001CB6F0001CA5194
:101350000001CB11D8B409D0C2C0D9FFC3C0DAFF95
:101360002D0EDF6E0001C24BC32BC4C0F6FFC5C0FB
:10137000F7FF0001C44BC52B000EF86E0800F5CF37
:1013800065F101016551D8A48BEF85F0C2C0D9FF8A
:10139000C3C0DAFF000EDF6E1200E1ECADF0CF0E3D
:1013A0000001CC6FF70ECD6F330ECE6F3F0ECF6FB7
:1013B000000E0001D06F000ED16F700ED26F410E83
:1013C000D36F010E01012E6F8EECB2F0B8ECB2F0CB
:1013D000AAECB2F04BBC9AD0010E0001E86F000EEF
:1013E0000001E76F000EE66F5A0E01013D6F000E1F
:1013F00001012D6F84ECADF0839C839A100EB5EC47
:10140000AAF0010EF2ECABF07F0E0001816FFF0E2F
:101410000001826FE8ECB1F0020EF2ECABF0550E79
:101420000001816FFF0E0001826FE8ECB1F0030E46
:10143000F2ECABF0830E0001816FFE0E0001826FB3
:10144000E8ECB1F0040EF2ECABF07F0E0001816F1E
:10145000FF0E0001826FE8ECB1F054D0D8C066F105
:10146000D9C067F1DAC068F1DBC069F10101661F1C
:10147000671F681F691F662B000E67236823692397
:101480001C500101662501016A6F1D500101672191
:1014900001016B6F1E500101682101016C6F1F502B
:1014A0000101692101016D6F01016D5101016C1193
:1014B00001016B1105E11E0E01016A5DD8A019D072
:1014C0001CC0D8F01DC0D9F01EC0DAF01FC0DBF080
:1014D00083AE02D0010E01D0000EFF0A0101666F3B
:1014E0000101663366338350010166197F0B66196B
:1014F000836E8EECB2F0000E0001776F0A0E766FED
:1015000094ECB1F04BACAAD7839E4B8480A404D05A
:10151000000E0001EC6F16D080B609D0010E00015C
:10152000EC6F010E0001E86F4AAA0BD008D0020E42
:101530000001EC6F000E0001E86F4AA202D04B825E
:1015400001D04B924AA6C5D04C9C4CAA4AB82DD08B
:101550004B9E010E0001EA6F000E0001D06F000EDD
:10156000D16F800ED26F3F0ED36F5CECB2F00009EA
:10157000D8B4FBD7010E0101456F0C0E0001706F4E
:10158000000E716F000E726F000E736F450E00013A
:10159000746F010E0001756F080E0001766FBC0EAE
:1015A0000001776FACEC8DF04C8A4AB84BAE29D075
:1015B0004CA027D04CBE26D0040E0001E96F020ECD
:1015C0000001EA6F5CECB2F00009D8B4FBD70E0E54
:1015D0000001706F000E716F000E726F000E736F5E
:1015E000250E0001746F010E0001756F080E0001D9
:1015F000766FBC0E0001776FACEC8DF04C9A4C8E80
:1016000001D04C9E14C066F115C067F116C068F198
:1016100017C069F10101661F671F681F691F662BEC
:10162000000E6723682369231C5001016625010110
:101630006A6F1D500101672101016B6F1E5001018E
:10164000682101016C6F1F500101692101016D6F5B
:1016500001016D5101016C1101016B1105E11E0EBB
:1016600001016A5DD8A06DD01CC014F01DC015F03A
:101670001EC016F01FC017F04BBE4CA017D0838CB5
:101680004AB812D083AA02D0010E01D0000EFF0A80
:101690000101666F0101663B6647835001016619CF
:1016A000DF0B6619836E4DD0838A4BD083AC02D09A
:1016B000010E01D0000EFF0A0101666F0101663BB9
:1016C00066476647835001016619BF0B6619836E32
:1016D00037D04C9A4C9E4B9A4A984B9E4C90839A8A
:1016E000839C4CBC2CD0000E0001EA6F000E000160
:1016F000D06F000ED16F700ED26F410ED36F5CECC5
:10170000B2F00009D8B4FBD7000E0101456F0C0EF2
:101710000001706F000E716F000E726F000E736F1C
:10172000450E0001746F010E0001756F080E000177
:10173000766FBC0E0001776FACEC8DF04C8C839C07
:10174000839ABCECB0F0000E0001A86F000EA96FE8
:10175000340EAA6F430EAB6FCCC082F0CDC083F0C5
:10176000CEC084F0CFC085F00001E0510001706F61
:10177000716B726B736B000ED9ECA4F070C07EF0CD
:1017800071C07FF072C080F073C081F021EC9CF0DA
:101790007EC097F07FC098F080C099F081C09AF029
:1017A000B1ECB1F097C0A4F098C0A5F099C0A6F034
:1017B0009AC0A7F0CDEC99F0A4C0B8F0A5C0B9F0DC
:1017C000A6C0BAF0A7C0BBF06CECABF00001B851FA
:1017D00001013D6F0001EA05D8A45CD04CA20FD0F6
:1017E0000001EB513DC166F10101676B0101662704
:1017F000000E672366C1D4F067C1D5F01BD000018D
:10180000EB510101666F676B0101661F671F664B35
:10181000672B01013D510101686F696B0101665140
:1018200001016827010167510101692368C1D4F0F2
:1018300069C1D5F00001000ED5BFFF0ED66FD76F7E
:101840000001D7BF12D00001D7BF0CD00001D75183
:101850000001D6110001D51108E1B50E0001D45DDB
:10186000D8B003D0D4C03DF119D00001D7BF0ED0FD
:101870000001D7510001D6110001D51105E1B50EC7
:101880000001D45DD8A002D0B40E01D0000E010139
:101890003D6F04D04C92000E0001EB6F0001EC5143
:1018A000D8A44BB263D0840E0001E16547D0D0C00C
:1018B00082F0D1C083F0D2C084F0D3C085F07E0E18
:1018C0000101666FFF0E0101676F0001E151010127
:1018D000686F696B01016651010168270101675159
:1018E0000101692368C170F069C171F00001000E47
:1018F00071BFFF0E726F736F010ED9ECA4F070C050
:101900007EF071C07FF072C080F073C081F021EC76
:101910009CF07EC0B8F07FC0B9F080C0BAF081C042
:10192000BBF06CECABF0B8C0E6F0B9C0E7F0030E6A
:1019300001012D6F010E01012E6F20D0000E00015C
:10194000E76F000EE66F420E0001E16103D0020E68
:1019500001012D6F150E0001E16103D0010E01019F
:101960002D6F060E0001E16109D005D0000E0001C7
:10197000E76F000EE66F000E01012D6F4BA603D03E
:1019800058ECAFF04B96DCC066F1DDC067F1DEC00D
:1019900068F1DFC069F10101661F671F681F691FD9
:1019A000662B000E6723682369231C5001016625FE
:1019B00001016A6F1D500101672101016B6F1E500B
:1019C0000101682101016C6F1F50010169210101B2
:1019D0006D6F01016D5101016C1101016B1105E188
:1019E000020E01016A5DD8A004D0010E0001E96574
:1019F00002D04AA41BD04AA40FD0010E0001E86F08
:101A0000000E0001E76F000EE66F5A0E01013D6FF8
:101A1000000E01012D6F4A941CC0DCF01DC0DDF0EA
:101A20001EC0DEF01FC0DFF084ECADF018501C5C6F
:101A300019501D581A501E581B501F58D8A05BD063
:101A400010C066F111C067F112C068F113C069F1EE
:101A50000101661F671F681F691F662B000E672341
:101A6000682369231C500101662501016A6F1D501E
:101A70000101672101016B6F1E5001016821010105
:101A80006C6F1F500101692101016D6F01016D51E2
:101A900001016C1101016B1105E10A0E01016A5D82
:101AA000D8A092D41CC010F01DC011F01EC012F0BE
:101AB0001FC013F04BAA1CD04B840001E951D8A4DD
:101AC00004D0F5ECAFF00001E92B020E0001E9199A
:101AD000D8A404D0C3ECAFF00001E92B040E000140
:101AE000E919D8A471D491ECAFF00001E92B6CD4C2
:101AF00083ECA7F069D4060E0001E919D8A464D4D8
:101B00004BA823D04B9827ECB0F05CECB2F0E80681
:101B1000D8A4FBD7000E01012D6F060E0001706FD7
:101B2000000E716F000E726F000E736F2D0E0001AC
:101B3000746F010E0001756F080E0001766FBC0E08
:101B40000001776FACEC8DF002D059ECB0F0000ED4
:101B50000001E96F4B9A38D40F0140B73FD176C0EE
:101B600045FF000177AD03D00F01458D02D00F0175
:101B7000459D000177A779D00001705100017C6F6D
:101B80007D6B7E6B7F6B7CC044FF000E0001701587
:101B900000017C6FFF0E0001711500017D6F000ECA
:101BA0000001721500017E6F000E00017315000127
:101BB0007F6F7CC078F07DC079F07EC07AF07FC006
:101BC0007BF079C078F07AC079F07BC07AF00001C0
:101BD0007B6B78C07CF079C07DF07AC07EF07BC0F2
:101BE0007FF07CC043FF000E0F01426F0F01428760
:101BF000000172A102D00F014281000172A302D044
:101C00000F014283000172A502D00F01428B000137
:101C100072A702D00F01428D000172A902D00F01FC
:101C2000428F70C078F071C079F072C07AF073C0E2
:101C30007BF0160E06D00001D8907B337A337933CF
:101C40007833E82EF8D778C07CF079C07DF07AC080
:101C50007EF07BC07FF000017C5100017C6F7D6BCA
:101C60007E6B7F6B7CC041FF59D00F01429770C0E3
:101C700078F071C079F072C07AF073C07BF0040E16
:101C800006D00001D8907B337A3379337833E82E4D
:101C9000F8D778C07CF079C07DF07AC07EF07BC048
:101CA0007FF000017C5100017C6F7D6B7E6B7F6B50
:101CB0007CC041FF070E0001701500017C6F000E13
:101CC0000001711500017D6F000E00017215000109
:101CD0007E6F000E0001731500017F6F7CC078F0ED
:101CE0007DC079F07EC07AF07FC07BF0050ED89081
:101CF0000001783779377A377B37E82EF8D778C004
:101D00007CF079C07DF07AC07EF07BC07FF00F015F
:101D100042511F0B0F01426F7CC042FF000177A1AF
:101D200003D00F01408102D00F014091000177A341
:101D300003D00F01408302D00F01409374C0D9FF3C
:101D400075C0DAFFDF500F01466F000120EE01F091
:101D50007451D9267551DA22DF500F01476F000107
:101D600020EE02F07451D9267551DA22DF500F01AE
:101D7000486F000120EE03F07451D9267551DA2224
:101D8000DF500F01496F000120EE04F07451D92695
:101D90007551DA22DF500F014A6F000120EE05F085
:101DA0007451D9267551DA22DF500F014B6F0001B3
:101DB00020EE06F07451D9267551DA22DF500F015A
:101DC0004C6F000120EE07F07451D9267551DA22CC
:101DD000DF500F014D6F0F01408712000F0130B728
:101DE0003FD176C035FF000177AD03D00F01358DAF
:101DF00002D00F01359D000177A779D00001705105
:101E000000017C6F7D6B7E6B7F6B7CC034FF000EAE
:101E10000001701500017C6FFF0E000171150001BB
:101E20007D6F000E0001721500017E6F000E000133
:101E3000731500017F6F7CC078F07DC079F07EC0A3
:101E40007AF07FC07BF079C078F07AC079F07BC0FF
:101E50007AF000017B6B78C07CF079C07DF07AC0AD
:101E60007EF07BC07FF07CC033FF000E0F01326F2D
:101E70000F013287000172A102D00F0132810001EF
:101E800072A302D00F013283000172A502D00F01AC
:101E9000328B000172A702D00F01328D000172A9AE
:101EA00002D00F01328F70C078F071C079F072C02B
:101EB0007AF073C07BF0160E06D00001D8907B3309
:101EC0007A3379337833E82EF8D778C07CF079C04C
:101ED0007DF07AC07EF07BC07FF000017C51000174
:101EE0007C6F7D6B7E6B7F6B7CC031FF59D00F01A7
:101EF000329770C078F071C079F072C07AF073C018
:101F00007BF0040E06D00001D8907B337A3379330E
:101F10007833E82EF8D778C07CF079C07DF07AC0AD
:101F20007EF07BC07FF000017C5100017C6F7D6BF7
:101F30007E6B7F6B7CC031FF070E000170150001C6
:101F40007C6F000E0001711500017D6F000E000115
:101F5000721500017E6F000E0001731500017F6F86
:101F60007CC078F07DC079F07EC07AF07FC07BF0D5
:101F7000050ED8900001783779377A377B37E82E0D
:101F8000F8D778C07CF079C07DF07AC07EF07BC055
:101F90007FF00F0132511F0B0F01326F7CC032FFF7
:101FA000000177A103D00F01308102D00F013091E1
:101FB000000177A303D00F01308302D00F013093CB
:101FC00074C0D9FF75C0DAFFDF500F01366F000112
:101FD00020EE01F07451D9267551DA22DF500F013D
:101FE000376F000120EE02F07451D9267551DA22C4
:101FF000DF500F01386F000120EE03F07451D92635
:102000007551DA22DF500F01396F000120EE04F024
:102010007451D9267551DA22DF500F013A6F000151
:1020200020EE05F07451D9267551DA22DF500F01E8
:102030003B6F000120EE06F07451D9267551DA226B
:10204000DF500F013C6F000120EE07F07451D926DC
:102050007551DA22DF500F013D6F0F0130871200FA
:102060000F0120B7120076C025FF000177AD03D025
:102070000F01258D02D00F01259D000177A779D092
:102080000001705100017C6F7D6B7E6B7F6B7CC0AB
:1020900024FF000E0001701500017C6FFF0E00018F
:1020A000711500017D6F000E0001721500017E6F39
:1020B000000E0001731500017F6F7CC078F07DC0B9
:1020C00079F07EC07AF07FC07BF079C078F07AC07A
:1020D00079F07BC07AF000017B6B78C07CF079C02E
:1020E0007DF07AC07EF07BC07FF07CC023FF000EC5
:1020F0000F01226F0F012287000172A102D00F0190
:102100002281000172A302D00F012283000172A577
:1021100002D00F01228B000172A702D00F01228D85
:10212000000172A902D00F01228F70C078F071C037
:1021300079F072C07AF073C07BF0160E06D0000101
:10214000D8907B337A3379337833E82EF8D778C058
:102150007CF079C07DF07AC07EF07BC07FF000011A
:102160007C5100017C6F7D6B7E6B7F6B7CC021FF9F
:1021700059D00F01229770C078F071C079F072C009
:102180007AF073C07BF0040E06D00001D8907B3348
:102190007A3379337833E82EF8D778C07CF079C079
:1021A0007DF07AC07EF07BC07FF000017C510001A1
:1021B0007C6F7D6B7E6B7F6B7CC021FF070E000107
:1021C000701500017C6F000E0001711500017D6F1C
:1021D000000E0001721500017E6F000E00017315E4
:1021E00000017F6F7CC078F07DC079F07EC07AF00E
:1021F0007FC07BF0050ED8900001783779377A37A9
:102200007B37E82EF8D778C07CF079C07DF07AC0B3
:102210007EF07BC07FF00F0122511F0B0F01226F58
:102220007CC022FF000177A103D00F01208102D0E2
:102230000F012091000177A303D00F01208302D06A
:102240000F01209374C0D9FF75C0DAFFDF500F0172
:10225000266F000120EE01F07451D9267551DA2263
:10226000DF500F01276F000120EE02F07451D926D4
:102270007551DA22DF500F01286F000120EE03F0C4
:102280007451D9267551DA22DF500F01296F0001F0
:1022900020EE04F07451D9267551DA22DF500F0177
:1022A0002A6F000120EE05F07451D9267551DA220B
:1022B000DF500F012B6F000120EE06F07451D9267C
:1022C0007551DA22DF500F012C6F000120EE07F06C
:1022D0007451D9267551DA22DF500F012D6F0F018D
:1022E000208712000F0140B715D13FC045FF40AC19
:1022F00003D00F01458D02D00F01459D40A666D049
:102300003950456E466A476A486A45C044FF000E28
:102310003914456EFF0E3A14466E000E3B14476E9C
:10232000000E3C14486E45C041F046C042F047C024
:1023300043F048C044F042C041F043C042F044C0C2
:1023400043F0446A41C045F042C046F043C047F004
:1023500044C048F045C043FF000E0F01426F0F011B
:1023600042873BA002D00F0142813BA202D00F0165
:1023700042833BA402D00F01428B3BA602D00F0147
:10238000428D3BA802D00F01428F39C041F03AC0C4
:1023900042F03BC043F03CC044F0160E05D0D8904C
:1023A0004432433242324132E82EF9D741C045F03F
:1023B00042C046F043C047F044C048F04550456E27
:1023C000466A476A486A45C041FF4DD00F014297AF
:1023D00039C041F03AC042F03BC043F03CC044F049
:1023E000040E05D0D8904432433242324132E82EB6
:1023F000F9D741C045F042C046F043C047F044C061
:1024000048F04550456E466A476A486A45C041FFF4
:10241000070E3914456E000E3A14466E000E3B143A
:10242000476E000E3C14486E45C041F046C042F075
:1024300047C043F048C044F0050ED89041364236BC
:1024400043364436E82EF9D741C045F042C046F045
:1024500043C047F044C048F00F0142511F0B0F0129
:10246000426F45C042FF40A003D00F01408102D01F
:102470000F01409140A203D00F01408302D00F0111
:1024800040933DC0D9FF3EC0DAFFDF500F01466FD9
:1024900020EE01F03D50D9263E50DA22DF500F01E8
:1024A000476F20EE02F03D50D9263E50DA22DF5031
:1024B0000F01486F20EE03F03D50D9263E50DA223E
:1024C000DF500F01496F20EE04F03D50D9263E50F9
:1024D000DA22DF500F014A6F20EE05F03D50D92679
:1024E0003E50DA22DF500F014B6F20EE06F03D50D8
:1024F000D9263E50DA22DF500F014C6F20EE07F054
:102500003D50D9263E50DA22DF500F014D6F0F01AA
:10251000408712000F0130B715D13FC035FF40ACE6
:1025200003D00F01358D02D00F01359D40A666D036
:102530003950456E466A476A486A45C034FF000E06
:102540003914456EFF0E3A14466E000E3B14476E6A
:10255000000E3C14486E45C041F046C042F047C0F2
:1025600043F048C044F042C041F043C042F044C090
:1025700043F0446A41C045F042C046F043C047F0D2
:1025800044C048F045C033FF000E0F01326F0F0109
:1025900032873BA002D00F0132813BA202D00F0153
:1025A00032833BA402D00F01328B3BA602D00F0135
:1025B000328D3BA802D00F01328F39C041F03AC0B2
:1025C00042F03BC043F03CC044F0160E05D0D8901A
:1025D0004432433242324132E82EF9D741C045F00D
:1025E00042C046F043C047F044C048F04550456EF5
:1025F000466A476A486A45C031FF4DD00F0132979D
:1026000039C041F03AC042F03BC043F03CC044F016
:10261000040E05D0D8904432433242324132E82E83
:10262000F9D741C045F042C046F043C047F044C02E
:1026300048F04550456E466A476A486A45C031FFD2
:10264000070E3914456E000E3A14466E000E3B1408
:10265000476E000E3C14486E45C041F046C042F043
:1026600047C043F048C044F0050ED890413642368A
:1026700043364436E82EF9D741C045F042C046F013
:1026800043C047F044C048F00F0132511F0B0F0107
:10269000326F45C032FF40A003D00F01308102D01D
:1026A0000F01309140A203D00F01308302D00F01FF
:1026B00030933DC0D9FF3EC0DAFFDF500F01366FC7
:1026C00020EE01F03D50D9263E50DA22DF500F01B6
:1026D000376F20EE02F03D50D9263E50DA22DF500F
:1026E0000F01386F20EE03F03D50D9263E50DA221C
:1026F000DF500F01396F20EE04F03D50D9263E50D7
:10270000DA22DF500F013A6F20EE05F03D50D92656
:102710003E50DA22DF500F013B6F20EE06F03D50B5
:10272000D9263E50DA22DF500F013C6F20EE07F031
:102730003D50D9263E50DA22DF500F013D6F0F0188
:10274000308712000F0120B712003FC025FF40ACB8
:1027500003D00F01258D02D00F01259D40A666D024
:102760003950456E466A476A486A45C024FF000EE4
:102770003914456EFF0E3A14466E000E3B14476E38
:10278000000E3C14486E45C041F046C042F047C0C0
:1027900043F048C044F042C041F043C042F044C05E
:1027A00043F0446A41C045F042C046F043C047F0A0
:1027B00044C048F045C023FF000E0F01226F0F01F7
:1027C00022873BA002D00F0122813BA202D00F0141
:1027D00022833BA402D00F01228B3BA602D00F0123
:1027E000228D3BA802D00F01228F39C041F03AC0A0
:1027F00042F03BC043F03CC044F0160E05D0D890E8
:102800004432433242324132E82EF9D741C045F0DA
:1028100042C046F043C047F044C048F04550456EC2
:10282000466A476A486A45C021FF4DD00F0122978A
:1028300039C041F03AC042F03BC043F03CC044F0E4
:10284000040E05D0D8904432433242324132E82E51
:10285000F9D741C045F042C046F043C047F044C0FC
:1028600048F04550456E466A476A486A45C021FFB0
:10287000070E3914456E000E3A14466E000E3B14D6
:10288000476E000E3C14486E45C041F046C042F011
:1028900047C043F048C044F0050ED8904136423658
:1028A00043364436E82EF9D741C045F042C046F0E1
:1028B00043C047F044C048F00F0122511F0B0F01E5
:1028C000226F45C022FF40A003D00F01208102D01B
:1028D0000F01209140A203D00F01208302D00F01ED
:1028E00020933DC0D9FF3EC0DAFFDF500F01266FB5
:1028F00020EE01F03D50D9263E50DA22DF500F0184
:10290000276F20EE02F03D50D9263E50DA22DF50EC
:102910000F01286F20EE03F03D50D9263E50DA22F9
:10292000DF500F01296F20EE04F03D50D9263E50B4
:10293000DA22DF500F012A6F20EE05F03D50D92634
:102940003E50DA22DF500F012B6F20EE06F03D5093
:10295000D9263E50DA22DF500F012C6F20EE07F00F
:102960003D50D9263E50DA22DF500F012D6F0F0166
:102970002087120000019F6F00019FAF45D1000129
:102980009F6D00019F51800A120FD8A0BBD0000E8E
:102990000001796F0A0E786F000E0001736F640EEC
:1029A000726F00019F510001706F716B70BF7107F2
:1029B00033ECAEF070C076F071C077F068ECACF03C
:1029C0000001D890763777370001D890763777377F
:1029D000240E00017627000E000177239F0E0001D0
:1029E0007625F66EFD0E00017721F76EF86A000E6F
:1029F000F8220900F5CF82F00900F5CF83F0090035
:102A0000F5CF84F00A00F5CF85F0000E0001796F54
:102A1000640E786F00019F510001766F776B76BF6F
:102A2000770768ECACF00001D89076377737000173
:102A3000D89076377737480E00017627000E0001D0
:102A400077239F0E00017625F66EFD0E000177219B
:102A5000F76EF86A000EF8220900F5CF7EF0090043
:102A6000F5CF7FF00900F5CF80F00A00F5CF81F0B7
:102A700021EC9CF07EC09BF07FC09CF080C09DF05C
:102A800081C09EF09BC07EF09CC07FF09DC080F016
:102A90009EC081F0000E0001736F0A0E726F00017C
:102AA0009F510001706F716B70BF710733ECAEF016
:102AB0000001D890703771370001D89070377137A6
:102AC0009F0E00017025F66EFD0E00017121F76E5C
:102AD000F86A000EF8220900F5CF82F00900F5CF60
:102AE00083F00900F5CF84F00A00F5CF85F021ECE2
:102AF0009CF07EC097F07FC098F080C099F081C0B4
:102B00009AF0120000019F51800A750FD8A063D07F
:102B1000000E0001796F0A0E786F00019F510001CD
:102B2000766F776B76BF770768ECACF00001D890D2
:102B3000763777370001D89076377737240E000143
:102B40007627000E000177239F0E00017625F66E92
:102B5000FD0E00017721F76EF86A000EF8220900D9
:102B6000F5CF7EF00900F5CF7FF00900F5CF80F0BA
:102B70000A00F5CF81F0000E0001736F0A0E726F2C
:102B800000019F510001706F716B70BF710733ECD2
:102B9000AEF00001D890703771370001D8907037CF
:102BA00071379F0E00017025F66EFD0E0001712138
:102BB000F76EF86A000EF8220900F5CF82F00900DE
:102BC000F5CF83F00900F5CF84F00A00F5CF85F04A
:102BD00021EC9CF08ED700019F51040D9F0EF32431
:102BE000F66EFD0EF420F76EF86A000EF82209006A
:102BF000F5CF97F00900F5CF98F00900F5CF99F0DF
:102C00000A00F5CF9AF0120000019F51800A120FBE
:102C1000D8A0BBD0000E0001796F0A0E786F000EAD
:102C20000001736F640E726F00019F510001706F9D
:102C3000716B70BF710733ECAEF070C076F071C08D
:102C400077F068ECACF00001D89076377737000168
:102C5000D89076377737240E00017627000E0001D2
:102C60007723D30E00017625F66EFD0E0001772145
:102C7000F76EF86A000EF8220900F5CF82F009001D
:102C8000F5CF83F00900F5CF84F00A00F5CF85F089
:102C9000000E0001796F640E786F00019F510001F2
:102CA000766F776B76BF770768ECACF00001D89051
:102CB000763777370001D89076377737480E00019E
:102CC0007627000E00017723D30E00017625F66EDD
:102CD000FD0E00017721F76EF86A000EF822090058
:102CE000F5CF7EF00900F5CF7FF00900F5CF80F039
:102CF0000A00F5CF81F021EC9CF07EC09BF07FC0F4
:102D00009CF080C09DF081C09EF09BC07EF09CC076
:102D10007FF09DC080F09EC081F0000E0001736FB7
:102D20000A0E726F00019F510001706F716B70BFCE
:102D3000710733ECAEF00001D890703771370001A5
:102D4000D89070377137D30E00017025F66EFD0EE6
:102D500000017121F76EF86A000EF8220900F5CF24
:102D600082F00900F5CF83F00900F5CF84F00A0066
:102D7000F5CF85F021EC9CF07EC097F07FC098F0F5
:102D800080C099F081C09AF0120000019F51800A22
:102D9000750FD8A063D0000E0001796F0A0E786F0E
:102DA00000019F510001766F776B76BF770768EC63
:102DB000ACF00001D890763777370001D89076379D
:102DC0007737240E00017627000E00017723D30EFB
:102DD00000017625F66EFD0E00017721F76EF86A88
:102DE000000EF8220900F5CF7EF00900F5CF7FF044
:102DF0000900F5CF80F00A00F5CF81F0000E000148
:102E0000736F0A0E726F00019F510001706F716B3A
:102E100070BF710733ECAEF00001D8907037713796
:102E20000001D89070377137D30E00017025F66E0F
:102E3000FD0E00017121F76EF86A000EF8220900FC
:102E4000F5CF82F00900F5CF83F00900F5CF84F0CB
:102E50000A00F5CF85F021EC9CF08ED700019F5140
:102E6000040DD30EF324F66EFD0EF420F76EF86A0F
:102E7000000EF8220900F5CF97F00900F5CF98F081
:102E80000900F5CF99F00A00F5CF9AF01200000E74
:102E9000436E74BE438074BC43820F0150AF43D174
:102EA00039C0D9FF3AC0DAFFDE6ADE6ADE6ADD6A5F
:102EB00020EE04F03950D9263A50DA2256CFDFFFFF
:102EC00020EE05F03950D9263A50DA2257CFDFFFED
:102ED00020EE06F03950D9263A50DA2258CFDFFFDB
:102EE00020EE07F03950D9263A50DA2259CFDFFFC9
:102EF00020EE08F03950D9263A50DA225ACFDFFFB7
:102F000020EE09F03950D9263A50DA225BCFDFFFA4
:102F100020EE0AF03950D9263A50DA225CCFDFFF92
:102F200020EE0BF03950D9263A50DA225DCFDFFF80
:102F300020EE0EF03950D9263A50DA220F0155AD65
:102F400002D0010E01D0000EDF6E20EE0DF03950E0
:102F5000D9263A50DA220F0155510F0BDF6E20EEC1
:102F60000CF03950D9263A50DA220F0152A702D07C
:102F7000010E01D0000EDF6E0F0152B744D051CFC9
:102F80003BF03C6A3D6A3E6A030ED8903B363C36C5
:102F90003D363E36E82EF9D739C0D9FF3AC0DAFFC0
:102FA0003BC0DEFF3CC0DEFF3DC0DEFF3EC0DEFFBB
:102FB0000F015239E842070B070B446E39C0D9FFA5
:102FC0003AC0DAFFDECF3BF0DECF3CF0DECF3DF0A3
:102FD000DECF3EF044503B243F6E000E3C20406E5E
:102FE000000E3D20416E000E3E20426E39C0D9FFDA
:102FF0003AC0DAFF3FC0DEFF40C0DEFF41C0DEFF67
:1030000042C0DEFF8DD054CF3BF03C6A3D6A3E6A41
:1030100039C0D9FF3AC0DAFF3BC0DEFF3CC0DEFF5B
:103020003DC0DEFF3EC0DEFF53CF3BF03C6A3D6A51
:103030003E6A3DC03EF03CC03DF03BC03CF03B6AC8
:1030400039C0D9FF3AC0DAFF3B50DE263C50DE22C1
:103050003D50DE223E50DE220F0152A10CD039C07D
:10306000D9FF3AC0DAFF000EDE12000EDE12010EAA
:10307000DE12000EDE120F0152A30CD039C0D9FFB0
:103080003AC0DAFF000EDE12000EDE12020EDE1271
:10309000000EDE120F0152AB0CD039C0D9FF3AC07E
:1030A000DAFF000EDE12000EDE12040EDE12000E3B
:1030B000DE120F0152AD0CD039C0D9FF3AC0DAFF91
:1030C000000EDE12000EDE12080EDE12000EDE1200
:1030D0000F0152AF0CD039C0D9FF3AC0DAFF000E51
:1030E000DE12000EDE12100EDE12000EDE1251CFC6
:1030F0003BF03C6A3D6A3E6A150ED8903B363C3642
:103100003D363E36E82EF9D739C0D9FF3AC0DAFF4E
:103110003B50DE123C50DE123D50DE123E50DE12BD
:103120000F01509F120060AE120039C0D9FF3AC0A3
:10313000DAFFDE6ADE6ADE6ADD6A20EE04F039500C
:10314000D9263A50DA2266CFDFFF20EE05F039505B
:10315000D9263A50DA2267CFDFFF20EE06F0395049
:10316000D9263A50DA2268CFDFFF20EE07F0395037
:10317000D9263A50DA2269CFDFFF20EE08F0395025
:10318000D9263A50DA226ACFDFFF20EE09F0395013
:10319000D9263A50DA226BCFDFFF20EE0AF0395001
:1031A000D9263A50DA226CCFDFFF20EE0BF03950EF
:1031B000D9263A50DA226DCFDFFF20EE0EF03950DB
:1031C000D9263A50DA2265AC02D0010E01D0000EA9
:1031D000DF6E20EE0DF03950D9263A50DA226550D4
:1031E0000F0BDF6E20EE0CF03950D9263A50DA2260
:1031F00062A602D0010E01D0000EDF6E62B643D08F
:1032000061CF3BF03C6A3D6A3E6A030ED8903B3684
:103210003C363D363E36E82EF9D739C0D9FF3AC0A4
:10322000DAFF3BC0DEFF3CC0DEFF3DC0DEFF3EC03C
:10323000DEFF6238E842070B070B446E39C0D9FF46
:103240003AC0DAFFDECF3BF0DECF3CF0DECF3DF020
:10325000DECF3EF044503B243F6E000E3C20406EDB
:10326000000E3D20416E000E3E20426E39C0D9FF57
:103270003AC0DAFF3FC0DEFF40C0DEFF41C0DEFFE4
:1032800042C0DEFF88D064CF3BF03C6A3D6A3E6AB4
:1032900039C0D9FF3AC0DAFF3BC0DEFF3CC0DEFFD9
:1032A0003DC0DEFF3EC0DEFF63CF3BF03C6A3D6ABF
:1032B0003E6A3DC03EF03CC03DF03BC03CF03B6A46
:1032C00039C0D9FF3AC0DAFF3B50DE263C50DE223F
:1032D0003D50DE223E50DE2262A00CD039C0D9FF24
:1032E0003AC0DAFF000EDE12000EDE12010EDE1210
:1032F000000EDE1262A20CD039C0D9FF3AC0DAFF4C
:10330000000EDE12000EDE12020EDE12000EDE12C3
:1033100062AA0CD039C0D9FF3AC0DAFF000EDE1223
:10332000000EDE12040EDE12000EDE1262AC0CD0B5
:1033300039C0D9FF3AC0DAFF000EDE12000EDE12ED
:10334000080EDE12000EDE1262AE0CD039C0D9FFBC
:103350003AC0DAFF000EDE12000EDE12100EDE1290
:10336000000EDE1261CF3BF03C6A3D6A3E6A150EEC
:10337000D8903B363C363D363E36E82EF9D739C03C
:10338000D9FF3AC0DAFF3B50DE123C50DE123D500E
:10339000DE123E50DE12609E12000001A751800B2B
:1033A0000001B46F0001A751A7250001B66F00010D
:1033B000A6AF02D00001B6810001B6510001D8B419
:1033C00012D00001B629D8A409D0000E0001A46FC4
:1033D000000EA56F000EA66F000EA76F0001A68F4E
:1033E000000E000108D0000E0001A46F000EA56FB2
:1033F000000EA66F000EA76F0001AB51800B0001FD
:10340000B56F0001B4510001B519D8B402D0000164
:10341000B48D0001AB51AB250001B56F0001AAAF1F
:1034200002D00001B5810001B5510001D8B412D01D
:103430000001B529D8A409D0000E0001A86F000E24
:10344000A96F000EAA6F000EAB6F0001AA8F000ECD
:10345000000108D0000E0001A86F000EA96F000E39
:10346000AA6F000EAB6F0001B6510001B55DD8B078
:1034700024D00001B4AD03D0800E0001B41BB6C04F
:10348000B7F0B5C0B6F0B7C0B5F0A4C0B7F0A8C0EB
:10349000A4F0B7C0A8F0A5C0B7F0A9C0A5F0B7C008
:1034A000A9F0A6C0B7F0AAC0A6F0B7C0AAF0A7C0FE
:1034B000B7F0ABC0A7F0B7C0ABF0000E0001B76F1C
:1034C0000001B6510001AC6FAD6B0001AC1FAD1F28
:1034D000AC4BAD2B0001B5510001AE6FAF6B0001DD
:1034E000AC510001AE270001AD510001AF23000136
:1034F000AFBF3DD00001AF5105E11A0E0001AE5D36
:10350000D8A035D00001A4510001A5110001A611D9
:103510000001A711D8B402D0010E01D0000E0001A5
:10352000B76F000E0001A46F000EA56F000EA66F0E
:10353000000EA76FB5C0B6F020D00001B7A107D02C
:103540000001D890B73101090001B76F03D0000125
:10355000D890B7330001A4A102D00001B78F0001B9
:10356000A735A733A633A533A4330001B62B00013A
:10357000B5510001B65DD8A0E0D70001B4BD3FD081
:103580000001B6510001D8A40AD0000E0001A46FBA
:10359000000EA56F000EA66F000EA76F12000001AF
:1035A000A8510001A4270001A9510001A523000191
:1035B000AA510001A6230001AB510001A72300017D
:1035C000A7A1CCD00001B7A109D00001D890B73392
:1035D0000001B75101090001B76F03D00001D89075
:1035E000B7330001A4A102D00001B78F0001A735B5
:1035F000A733A633A533A4330001B62BAFD0000107
:10360000A8510001A45D0001A9510001A5590001C4
:10361000AA510001A6590001A751800A0001AC6F10
:103620000001AB51800A0001AC59D8B050D0A4C001
:10363000ACF0A5C0ADF0A6C0AEF0A7C0AFF00001E1
:10364000AC1FAD1FAE1FAF1FAC2B000EAD23AE23C2
:10365000AF230001A8510001AC250001B06F0001AB
:10366000A9510001AD210001B16F0001AA51000173
:10367000AE210001B26F0001AB510001AF2100018A
:10368000B36FFF0E0001B0250001A46FFF0E000113
:10369000B1210001A56FFF0E0001B2210001A66F4C
:1036A000FF0E0001B3210001A76F800E0001B41BC3
:1036B0000001B76D0001B7510001D8A418D0010E68
:1036C0000001A427000EA523A623A72310D00001E4
:1036D000A8510001A45F0001A9510001A55B0001F0
:1036E000AA510001A65B0001AB510001A75B0001DC
:1036F000A4510001A5110001A6110001A711D8A431
:103700002AD00001B7510001D8A425D0000E000135
:10371000A46F000EA56F000EA66F000EA76F12001B
:103720000001D890A437A537A637A7370001B7AF57
:1037300002D00001A4810001B7A103D0D88000010C
:1037400002D00001D890B7370001B6510001D8B4BB
:1037500002D00001B6070001A6AFE2D7000E0001BB
:10376000B56F0001B7AF0DD0B7C0ACF07F0E000150
:10377000AC17D8A403D00001A4A103D0010E00010E
:10378000B56F0001B5510001D8B426D0010E00017B
:10379000A427000EA523A623A7230001A7A11CD0C0
:1037A000A4C0ACF0A5C0ADF0A6C0AEF0A7C0AFF00D
:1037B0000001AF35AF33AE33AD33AC33ACC0A4F0A2
:1037C000ADC0A5F0AEC0A6F0AFC0A7F00001B6290D
:1037D000D8B402D00001B62B0001B629D8B405D068
:1037E0000001B6510001D8A411D0000E0001A46F51
:1037F000000EA56F000EA66F000EA76F0001B65158
:103800000001D8A403D0000E0001B46F0001B6A1DE
:1038100003D00001A68F02D00001A69F0001D8901E
:10382000B6310001A76F0001B4AF02D00001A78F2D
:10383000A4C0A4F0A5C0A5F0A6C0A6F0A7C0A7F09C
:10384000120000018151800B00018A6F000181513B
:1038500081250001906F000180AF02D000019081AE
:10386000000190510001D8B410D000019029D8A4D3
:1038700009D0000E00017E6F000E7F6F000E806F7A
:10388000000E816F0001808F09D0000E00017E6F55
:10389000000E7F6F000E806F000E816F000185515A
:1038A000800B00018A1B00018551852500018B6F6B
:1038B000000184AF02D000018B8100018B51000117
:1038C000D8B410D000018B29D8A409D0000E000173
:1038D000826F000E836F000E846F000E856F0001F3
:1038E000848F09D0000E0001826F000E836F000EDE
:1038F000846F000E856F00018B510001D8B405D094
:10390000000190510001D8A40AD0000E00017E6F82
:10391000000E7F6F000E806F000E816F120000019D
:10392000845100017E03F3CF95F0F4CF96F00001AF
:10393000955100018C6F8D6B8E6B8F6B00019651D2
:103940000001916F926B936B946B000183510001A6
:103950007F03F3CF95F0F4CF96F00001955100016D
:103960008C27000E8D238E238F230001965100019A
:103970009127000E9223932394230001825100018A
:103980008003F3CF95F0F4CF96F00001955100013C
:103990008C27000E8D238E238F230001965100016A
:1039A0009127000E9223932394238EC08FF08DC015
:1039B0008EF08CC08DF000018C6B000182510001F3
:1039C0007F03F3CF95F0F4CF96F0000195510001FD
:1039D0008C270001965100018D23000E00018E23DB
:1039E000000E00018F230001835100017E03F3CFFD
:1039F00095F0F4CF96F00001955100018C2700015D
:103A0000965100018D23000E00018E23000E00014F
:103A10008F238EC08FF08DC08EF08CC08DF0000192
:103A20008C6B0001825100017E03F3CF95F0F4CF3F
:103A300096F00001955100018C270001965100017C
:103A40008D23000E00018E23000E00018F23000144
:103A5000845100017F03F3CF95F0F4CF96F000017D
:103A60009551000191270001965100019223000E0B
:103A700000019323000E00019423000183510001F3
:103A80008003F3CF95F0F4CF96F00001955100013B
:103A900091270001965100019223000E000193230B
:103AA000000E000194230001845100018003F3CF34
:103AB00095F0F4CF96F0000195510001866F00015A
:103AC00096510001876F0001886B0001896B88C0E7
:103AD00089F087C088F086C087F00001866B0001FE
:103AE00086510001912700018751000192230001B6
:103AF00088510001932300018951000194238CC057
:103B000086F08DC087F08EC088F08FC089F0190EC6
:103B100006D00001D8908933883387338633E82E66
:103B2000F8D700018651000191270001875100015B
:103B30009223000188510001932300018951000163
:103B400094238EC08FF08DC08EF08CC08DF000015C
:103B50008C6B00018B5190C086F00001876B0001D7
:103B60008627000E8723820E000186250001956FAF
:103B7000FF0E000187210001966F15D00001D8903B
:103B8000913792379337943700018FAF02D00001FD
:103B900091810001D8908C378D378E378F37000197
:103BA0009507D8A09607000193AFE8D7000E000153
:103BB0008B6F00018FAF24D0FF0E00018C15000128
:103BC000866FFF0E00018D150001876FFF0E00014B
:103BD0008E150001886F7F0E00018F150001896F1F
:103BE000000186510001871100018811000189112F
:103BF000D8A403D0000191A103D0010E00018B6F66
:103C000000018B510001D8B423D0010E000191278F
:103C1000000E922393239423000194A119D091C004
:103C200086F092C087F093C088F094C089F00001BC
:103C30008935893388338733863386C091F087C0CE
:103C400092F088C093F089C094F00001954B962BB8
:103C5000000196BF10D00001965104E100019529A2
:103C6000D8A009D0000E0001916F000E926F800E57
:103C7000936F7F0E2BD0000196BF07D000019651A5
:103C800011E100019505D8B00DD0000E0001916F33
:103C9000000E926F000E936F000E946F000E0001E5
:103CA0008A6F15D095C090F0FF0E00019117FF0E9E
:103CB00092177F0E9317000E9417000190A102D067
:103CC0000001938F0001D89090310001946F0001A2
:103CD0008A510001941391C07EF092C07FF093C08E
:103CE00080F094C081F0120000018151800B00012E
:103CF0008A6F0001815181250001956F000180AF1D
:103D000002D000019581000195510001D8B412D074
:103D100000019529D8A409D0000E00017E6F000E85
:103D20007F6F000E806F000E816F0001808F000E8C
:103D3000000108D0000E00017E6F000E7F6F000EA4
:103D4000806F000E816F00018551800B00018A1B7E
:103D50000001855185250001966F000184AF02D0D6
:103D600000019681000196510001D8B412D00001E3
:103D70009629D8A409D0000E0001826F000E836F2F
:103D8000000E846F000E856F0001848F000E00010D
:103D900008D0000E0001826F000E836F000E846F4A
:103DA000000E856F00018251000183110001841112
:103DB00000018511D8A417D0000E00017E6F000EFF
:103DC0007F6F000E806F000E816F0001800E8013E8
:103DD0007F0E81137EC07EF07FC07FF080C080F0B8
:103DE00081C081F01200000195510001D8A412D0C9
:103DF000000E00017E6F000E7F6F000E806F000EC0
:103E0000816F7EC07EF07FC07FF080C080F081C077
:103E100081F01200000196510001866F876B00014E
:103E2000861F871F864B872B000195510001886FE5
:103E3000896B00018651000188270001875100012C
:103E400089237F0E0001882500018F6F000E00017D
:103E500089210001906F7EC08BF07FC08CF080C004
:103E60008DF081C08EF0000E00017E6F000E7F6F1E
:103E7000000E806F000E816F000E0001916F000E2A
:103E8000926F000E936F000E946F000E0001966FFC
:103E900042D0000196510001D8B417D00001D8904B
:103EA0008B378C378D378E370001D8907E377F3730
:103EB00080378137000194AF02D000017E8100017C
:103EC000D89091379237933794370001825100018F
:103ED0008B5D0001835100018C5900018451000168
:103EE0008D590001855100018E59D8A012D00001D2
:103EF000948D0001825100018B5F0001835100010C
:103F00008C5B0001845100018D5B00018551000133
:103F10008E5B0001962B190E00019665BAD7000141
:103F20008B5100018C1100018D1100018E11D8B44C
:103F300018D00001918115D00001D8907E377F37CD
:103F400080378137000194AF02D000017E810001EB
:103F5000D890913792379337943700018F07D8A0C4
:103F60009007000180AFE8D7000E0001966F0001B6
:103F700094AF24D0FF0E000191150001866FFF0E53
:103F8000000192150001876FFF0E000193150001DB
:103F9000886F7F0E000194150001896F0001865122
:103FA000000187110001881100018911D8A403D0F4
:103FB00000017EA103D0010E0001966F0001965111
:103FC0000001D8B423D0010E00017E27000E7F230C
:103FD00080238123000181A119D07EC086F07FC09B
:103FE00087F080C088F081C089F00001893589336D
:103FF00088338733863386C07EF087C07FF088C0E1
:1040000080F089C081F000018F4B902B000190BFA0
:1040100014D00001905104E100018F29D8A00DD0E7
:10402000000E0001906F8F69000E00017E6F000E80
:104030007F6F000E806F000E816F000190BF07D070
:104040000001905115E100018F05D8B011D0000E8C
:104050000001906F000E8F6F000E00017E6F000E4A
:104060007F6F000E806F000E816F000E00018A6F5F
:104070008FC095F0000195A103D00001808F02D080
:104080000001809F0001D89095310001816F0001EF
:104090008A51000181137EC07EF07FC07FF080C016
:1040A00080F081C081F012000001796F0001790574
:1040B000D8A456D000017429D8A452D070C075F08D
:1040C00071C076F072C077F073C078F0040E06D03D
:1040D0000001D8907833773376337533E82EF8D7EC
:1040E00075C07AF076C07BF077C07CF078C07DF048
:1040F00000017A5100017A6F7B6B7C6B7D6B7AC01B
:1041000018FF070E0001701500017A6F000E000104
:10411000711500017B6F000E0001721500017C6FAC
:10412000000E0001731500017D6F7AC075F07BC031
:1041300076F07CC077F07DC078F0050ED890000155
:104140007537763777377837E82EF8D775C07AF035
:1041500076C07BF077C07CF078C07DF07AC019FF24
:10416000020E00017919D8A456D000017429D8A4F0
:1041700052D070C075F071C076F072C077F073C025
:1041800078F0040E06D00001D89078337733763378
:104190007533E82EF8D775C07AF076C07BF077C01B
:1041A0007CF078C07DF000017A5100017A6F7B6B62
:1041B0007C6B7D6B7AC01CFF070E0001701500013F
:1041C0007A6F000E0001711500017B6F000E000177
:1041D000721500017C6F000E0001731500017D6FE8
:1041E0007AC075F07BC076F07CC077F07DC078F047
:1041F000050ED89000017537763777377837E82E77
:10420000F8D775C07AF076C07BF077C07CF078C0C4
:104210007DF07AC01DFF00017905D8A487D0F70E84
:1042200000017419D8A482D00001705100017A6F86
:104230007B6B7C6B7D6B7AC01BFF000E00017015E1
:1042400000017A6FFF0E0001711500017B6F000EF7
:104250000001721500017C6F000E00017315000152
:104260007D6F7AC075F07BC076F07CC077F07DC042
:1042700078F076C075F077C076F078C077F00001FE
:10428000786B75C07AF076C07BF077C07CF078C030
:104290007DF07AC01AFF000172A103D00F011981CD
:1042A00002D00F011991000172A303D00F011983ED
:1042B00002D00F011993000172A503D00F01198BD1
:1042C00002D00F01199B000172A703D00F01198DB5
:1042D00002D00F01199D000172A903D00F01198F9F
:1042E00002D00F01199F70C075F071C076F072C0D6
:1042F00077F073C078F0160E06D00001D8907833AE
:10430000773376337533E82EF8D775C07AF076C0F8
:104310007BF077C07CF078C07DF000017A5100011D
:104320007A6F7B6B7C6B7D6B7AC018FF020E00018D
:104330007919D8A41200F70E00017419D8A412003C
:104340000001705100017A6F7B6B7C6B7D6B7AC0D2
:104350001FFF000E0001701500017A6FFF0E0001B3
:10436000711500017B6F000E0001721500017C6F5A
:10437000000E0001731500017D6F7AC075F07BC0DF
:1043800076F07CC077F07DC078F076C075F077C0AD
:1043900076F078C077F00001786B75C07AF076C05F
:1043A0007BF077C07CF078C07DF07AC01EFF000102
:1043B00072A103D00F011D8102D00F011D910001D8
:1043C00072A303D00F011D8302D00F011D930001C2
:1043D00072A503D00F011D8B02D00F011D9B0001A0
:1043E00072A703D00F011D8D02D00F011D9D00018A
:1043F00072A903D00F011D8F02D00F011D9F70C045
:1044000075F071C076F072C077F073C078F0160E58
:1044100006D00001D8907833773376337533E82EA1
:10442000F8D775C07AF076C07BF077C07CF078C0A2
:104430007DF000017A5100017A6F7B6B7C6B7D6BA4
:104440007AC01CFF12000001A36F6D0E0001A3656E
:10445000CDD0000E0001796F0A0E786F000E0001BA
:10446000736F640E726FA3C070F00001716B33EC58
:10447000AEF070C076F071C077F068ECACF000017F
:10448000D890763777370001D89076377737240E73
:1044900000017627000E000177239F0E000176258C
:1044A000F66EFD0E00017721F76EF86A000EF82215
:1044B0000900F5CF82F00900F5CF83F00900F5CFB0
:1044C00084F00A00F5CF85F0000E0001796F640ECC
:1044D000786FA3C076F00001776B68ECACF0000158
:1044E000D890763777370001D89076377737480EEF
:1044F00000017627000E000177239F0E000176252C
:10450000F66EFD0E00017721F76EF86A000EF822B4
:104510000900F5CF7EF00900F5CF7FF00900F5CF57
:1045200080F00A00F5CF81F021EC9CF07EC09FF076
:104530007FC0A0F080C0A1F081C0A2F0000E0001F9
:10454000736F0A0E726FA3C070F00001716B33ECD1
:10455000AEF00001D890703771370001D8907037F5
:1045600071379F0E00017025F66EFD0E000171215E
:10457000F76EF86A000EF8220900F5CF82F0090004
:10458000F5CF83F00900F5CF84F00A00F5CF85F070
:104590009FC07EF0A0C07FF0A1C080F0A2C081F0DB
:1045A00021EC9CF07EC09BF07FC09CF080C09DF011
:1045B00081C09EF09BC07EF09CC07FF09DC080F0CB
:1045C0009EC081F0000E0001826F000E836F000E0E
:1045D000846F3F0E856F21EC9CF07EC097F07FC00A
:1045E00098F080C099F081C09AF012000A0E000184
:1045F000A36578D0000E0001736F0A0E726FA3C01E
:1046000070F00001716B33ECAEF00001D8907037A0
:1046100071370001D890703771379F0E00017025F7
:10462000F66EFD0E00017121F76EF86A000EF82299
:104630000900F5CF82F00900F5CF83F00900F5CF2E
:1046400084F00A00F5CF85F0000E0001796F0A0EA4
:10465000786FA3C076F00001776B68ECACF00001D6
:10466000D890763777370001D89076377737240E91
:1046700000017627000E000177239F0E00017625AA
:10468000F66EFD0E00017721F76EF86A000EF82233
:104690000900F5CF7EF00900F5CF7FF00900F5CFD6
:1046A00080F00A00F5CF81F021EC9CF07EC09FF0F5
:1046B0007FC0A0F080C0A1F081C0A2F09FC07EF0BA
:1046C000A0C07FF0A1C080F0A2C081F0000E000168
:1046D000826F000E836F000E846F3F0E856F21EC9A
:1046E0009CF07BD70001A351040D9F0EF324F66EBE
:1046F000FD0EF420F76EF86A000EF8220900F5CFDF
:104700007EF00900F5CF7FF00900F5CF80F00A00B8
:10471000F5CF81F0000E0001826F000E836F000E56
:10472000846F3F0E856F21EC9CF07EC097F07FC0B8
:1047300098F080C099F081C09AF01200E9CF64F03F
:10474000EACF65F0E1CF66F0E2CF67F0D9CF68F04D
:10475000DACF69F0F3CF6AF0F4CF6BF0F6CF6CF0FC
:10476000F7CF6DF0F8CF6EF0F5CF6FF0A4A2A4B044
:1047700001D001D1D1ECB2F00009D8B4FAD00A0EC0
:10478000396E010E3A6E47EC97F0010118A102D084
:104790004A8E01D04A9E0AC10CF00BC10DF00CC12B
:1047A0000EF00DC10FF04B86080E0C180D100E10F8
:1047B0000F10D8A41AD0000E496E070E496401D01C
:1047C00014D04950010D0E0EF324D96E010EF420C1
:1047D000DA6E4950010D010EF324E16E000EF42053
:1047E000E26EDFCFE7FF492AE8D70D0E0C180D1057
:1047F0000E100F10D8A441D001010E05D8A407D087
:104800004B8E4C904A984B8A000E0001E96F020EC5
:1048100001010E19D8A406D04B8E4C804A84020E9A
:104820000001E96F030E01010E19D8A410D0060E85
:104830000001E96F4A96C80E1C24186E000E1D2058
:10484000196E000E1E201A6E000E1F201B6E040E25
:1048500001010E19D8A411D0060E0001E96F4B8892
:104860004A96C80E1C24186E000E1D20196E000EEC
:104870001E201A6E000E1F201B6E100E0C180D103D
:104880000E100F10D8A408D001010FA102D04C8245
:1048900001D04C920EC1EBF0110E0C180D100E1041
:1048A0000F10D8A426D00EC160F0060E0001616F73
:1048B0000001D89060330001612FFAD70001603108
:1048C0000001D8A002D04A8A01D04A9A0EC160F0F5
:1048D0000001D89060330001D89060330001D89077
:1048E0006033000160310001D8A002D04A8201D0BB
:1048F0004A92AA0E0C180D100E100F10D8A40BD04F
:104900000FC124F0256A24500001606F01010E518F
:10491000246E60C025F0040E0C180D100E100F1040
:10492000D8B44AAE26D01CC006F11DC007F11EC087
:1049300008F11FC009F1030E0101256F0D0EE82ECD
:10494000FED700F07FECB2F0E806D8A4FBD7040E47
:10495000396E000E3A6E000E3B6E000E3C6E250E58
:104960003D6E010E3E6E080E3F6EBC0E406E72EC48
:1049700091F0A492A4906FC0F5FF6EC0F8FF6DC0D7
:10498000F7FF6CC0F6FF6BC0F4FF6AC0F3FF69C0AD
:10499000DAFF68C0D9FF67C0E2FF66C0E1FF65C00B
:1049A000EAFF64C0E9FF63C0FBFF62C0FAFF4D92FB
:1049B00011000001786F000178510001D8B41ED0B9
:1049C000000173AF1BD070C074F071C075F072C07D
:1049D00076F073C077F00001741F751F761F771F84
:1049E000742B000E75237623772374C07AF075C07C
:1049F0007BF076C07CF077C07DF008D070C07AF094
:104A000071C07BF072C07CF073C07DF0000170510A
:104A1000000171110001721100017311D8A40AD0B4
:104A2000000E0001706F000E716F000E726F000EAD
:104A3000736F1200960E0001796F08D00001792B78
:104A40000001D8907D337C337B337A33000E000134
:104A50007A150001746F000E00017B150001756F5F
:104A6000000E00017C150001766FFE0E00017D1521
:104A70000001776F0001745100017511000176117A
:104A800000017711D8B410D0D9D70001792B010ECD
:104A900000017A27000E7B237C237D230001D89020
:104AA0007D337C337B337A33000E00017A150001AD
:104AB000746F000E00017B150001756F000E000180
:104AC0007C150001766FFF0E00017D150001776FE8
:104AD0000001745100017511000176110001771178
:104AE000D8B409D0D2D7000179070001D8907A371D
:104AF0007B377C377D3700017CBF04D0020E00017C
:104B00007961F1D7000179B109D0FF0E00017A1760
:104B1000FF0E7B177F0E7C17FF0E7D170001D890CC
:104B2000793379C074F00001756B766B776B74C064
:104B300077F00001766B756B746B000174510001A6
:104B40007A130001755100017B13000176510001B9
:104B50007C130001775100017D13000178510001A1
:104B6000D8B405D0000173AF02D000017D8F7AC0A8
:104B700070F07BC071F07CC072F07DC073F01200E9
:104B80000001876F800EC6ECB2F0000E706E000E52
:104B9000716E000E726E00018041E842C00B000190
:104BA000806F00018051701200018151701200016C
:104BB0008751711200017E39E842F80B00017E6FC7
:104BC00000017E517112000182A5718C000182B139
:104BD000718E00017F517212000182B3728C00014C
:104BE0008251600B606E00018251100BFF0AD8B435
:104BF000608460CF50FF000E0001706F000E716F77
:104C0000000E726F000E736FF70E0001746F010ECD
:104C100054ECA0F0000E0001706F000E716F000EDA
:104C2000726F000E736FF70E0001746F020E54EC7A
:104C3000A0F00FD0F70E0001886F07D0000188693F
:104C40000001896928D000018869F70E0001896F89
:104C500022D09F0E0001836FFF0E0001846F0001C0
:104C60008251600B0001856F866B0001835100014A
:104C70008513000184510001861300018651000A4A
:104C8000D8A4E1D700018551BF0AD8B4D7D7600AAC
:104C9000D8B4D0D7D8D7000E0001706F000E716F56
:104CA000000E726F000E736F88C074F0000E00EC7F
:104CB00080F0000E0001706F000E716F000E726FB9
:104CC000000E736F88C074F0010E00EC80F0000ECF
:104CD0000001706F000E716F000E726F000E736F27
:104CE00089C074F0020E00EC80F0000E0001706FBD
:104CF000000E716F000E726F000E736F89C074F03A
:104D0000030E00EC80F0000E0001706F000E716F5A
:104D1000000E726F000E736F89C074F0040E00EC09
:104D200080F0000E0001706F000E716F000E726F48
:104D3000000E736F89C074F0050E00EC80F0000E59
:104D4000C6ECB2F0120021EE00F010EE91F0050E6C
:104D5000DBCFE3FFE806FCE2910E0001806F000E5E
:104D60000001816F88C082F089C083F0000E0001CD
:104D7000856F0A0E846F30ECB1F000018A5100019A
:104D8000D8B4B8D000018A51010D910EF324D96E28
:104D9000000EF420DA6E000EDF6E70D000018A057E
:104DA0000001976F000197510001D8B467D0FF0E42
:104DB00000018C6FFF0E00018D6F00019751000103
:104DC0008E6F8F6B00018C5100018E2700018D5179
:104DD00000018F23910E00018E25D96E000E000177
:104DE0008F21DA6E00019751010D910EF324E16ECF
:104DF000000EF420E26EDFCFE7FF00018B05D8A4A0
:104E00001DD0FF0E00018C6FFF0E00018D6F0001A1
:104E1000975100018E6F8F6B00018C5100018E271E
:104E200000018D5100018F23910E00018E25D96E56
:104E3000000E00018F21DA6E200E1CD0FF0E000143
:104E40008C6FFF0E00018D6F0001975100018E6F76
:104E50008F6B00018C5100018E2700018D510001E4
:104E60008F23910E00018E25D96E000E00018F2137
:104E7000DA6E300EDF6E0001970794D7FF0E000147
:104E80008C6FFF0E00018D6F00018A5100018E6F43
:104E90008F6B00018C5100018E2700018D510001A4
:104EA0008F23910E00018E25D96E000E00018F21F7
:104EB000DA6E3A0EDF6072D7FF0E00018C6FFF0EC4
:104EC00000018D6F00018A5100018E6F8F6B000110
:104ED0008C5100018E2700018D5100018F23910E0E
:104EE00000018E25D96E000E00018F21DA6E2F0E83
:104EF000DF6454D7910E0001816F000E0001826FB4
:104F000049ECB2F012005CECB2F0E806D8A4FBD792
:104F1000080E0001706F000E716F000E726F000EB0
:104F2000736F350E0001746F010E0001756F080E6E
:104F30000001766FFC0E0001776FACEC8DF0E2C0E3
:104F400070F0E3C071F00001726B736B000ED9EC6E
:104F5000A4F070C07EF071C07FF072C080F073C0AA
:104F600081F0000E0001826F000E836F8B0E846F44
:104F7000430E856F74EC9EF07EC008F07FC009F090
:104F800080C00AF081C00BF0190E0001C26F010E43
:104F90000001C36FFA0E0001C46FFF0E0001C56F60
:104FA00008C0C6F009C0C7F00AC0C8F00BC0C9F0FD
:104FB00083EC85F0000E0101246F4BA432D0100E5B
:104FC000B5ECAAF01BECB2F0010EF2ECABF06A0EFD
:104FD0000001816FFF0E0001826FE8ECB1F0020E5C
:104FE000F2ECABF0C80E0001816FFF0E0001826F82
:104FF000E8ECB1F0030EF2ECABF0A90E0001816F0A
:10500000FF0E0001826FE8ECB1F0040EF2ECABF0A1
:10501000E40E0001816FFF0E0001826FE8ECB1F039
:105020004B94020E00017F6F0C0E9CECB2F000015D
:10503000EC51D8B416D00001E805D8A409D0F00E80
:105040000001816FFF0E0001826FE8ECB1F011D01A
:10505000F50E0001816FFF0E0001826FE8ECB1F0E8
:1050600008D0EB0E0001816FFF0E0001826FE8ECAB
:10507000B1F0030E00017F6F080E9CECB2F0190E28
:105080000001816F010E0001826F49ECB2F0040E45
:1050900000017F6F070E9CECB2F024C088F025C0A1
:1050A00089F0000E00018A6F010E00018B6FA3ECE6
:1050B000A6F0120072C078F00001796B7A6B0001E3
:1050C00071350001783701E37981000178510001E1
:1050D000806F00018051D8A40AD0000E0001706FCB
:1050E000000E716F000E726F000E736F120076C0AB
:1050F00078F00001796B7A6B000175350001783723
:1051000001E379810001785100017F6F00017F5137
:10511000D8A40AD0000E0001706F000E716F000E4F
:10512000726F000E736F12000001718FFF0E00018D
:105130007017FF0E00017117000E000172170001B9
:10514000758FFF0E00017417FF0E00017517000E1A
:1051500000017617000E00017B6F000E7C6F000EC1
:105160007D6F000E7E6F7F0E0001805F00017F511A
:10517000980F0001805F180E00017F6F0001D8902A
:105180007B377C377D377E37000174510001705DBD
:1051900000017551000171590001765100017259E9
:1051A000D8A00ED0000174510001705F000175514C
:1051B0000001715B000176510001725B00017B818F
:1051C0000001D89070377137723700017F2FD6D722
:1051D000000180AF1AD000018051800A970FD8B02B
:1051E0000AD0000E0001706F000E716F000E726F1A
:1051F000000E736F12000001D8907E337D337C3334
:105200007B330001803FF7D71BD0170E000180656C
:1052100012D0000E0001706F000E716F000E726FE1
:10522000000E736F12000001D8907B377C377D37FA
:105230007E3700018007000180510001D8A4F3D718
:105240007BC070F07CC071F07DC072F07EC073F0E6
:105250001200000E000170150001786F000E0001B1
:1052600071150001796F800E0001721500017A6FCF
:105270007F0E0001731500017B6F00017851000162
:10528000791100017A1100017B11D8A409D0000E18
:105290000001706F000E716F000E726F000E736F61
:1052A000000E000174150001786F000E00017515E5
:1052B0000001796F800E0001761500017A6F7F0E74
:1052C0000001771500017B6F000178510001791111
:1052D00000017A1100017B11D8A409D0000E000151
:1052E000746F000E756F000E766F000E776F000101
:1052F00073AF26D070C078F071C079F072C07AF0C8
:1053000073C07BF00001781F791F7A1F7B1F782BF9
:10531000000E79237A237B23000E000178250001FB
:10532000706F000E000179210001716F000E000105
:105330007A210001726F800E00017B210001736FE2
:10534000000177AF26D074C078F075C079F076C0D0
:105350007AF077C07BF00001781F791F7A1F7B1FDE
:10536000782B000E79237A237B23000E0001782509
:105370000001746F000E000179210001756F000EAD
:1053800000017A210001766F800E00017B2100016F
:10539000776F000E0001701B000E711B000E721B58
:1053A000800E731B000E0001741B000E751B000E97
:1053B000761B800E771B000174510001705D0001A7
:1053C00075510001715900017651000172590001B7
:1053D000775100017359D8B002D0D8901200D8800C
:1053E000120000017235733500017D6F00017D519F
:1053F000D8A40AD0000E0001706F000E716F000E6D
:10540000726F000E736F1200000176357735000160
:105410007C6F00017C51D8A40AD0000E0001706F8F
:10542000000E716F000E726F000E736F120000019C
:10543000728FFF0E00017017FF0E7117FF0E7217AB
:10544000000E73170001768FFF0E00017417FF0E18
:105450007517FF0E7617000E7717000E0001786F94
:10546000000E796F000E7A6F000E7B6F7F0E0001C9
:105470007D5F00017C51A00F00017D5F200E0001C7
:105480007C6F0001D890783779377A377B37000105
:1054900074510001705D00017551000171590001E6
:1054A0007651000172590001775100017359D8A05B
:1054B00012D0000174510001705F000175510001AC
:1054C000715B000176510001725B000177510001B0
:1054D000735B000178810001D890703771377237A3
:1054E000733700017C2FCDD700017DAF1AD00001AA
:1054F0007D51800A9F0FD8B00AD0000E0001706F56
:10550000000E716F000E726F000E736F12000001BB
:10551000D8907B337A337933783300017D3FF7D7E6
:105520001BD01F0E00017D6512D0000E0001706FB0
:10553000000E716F000E726F000E736F120000018B
:10554000D890783779377A377B3700017D070001AB
:105550007D510001D8A4F3D778C070F079C071F004
:105560007AC072F07BC073F0120000017E6F000100
:105570007E51DCECB2F08A928A968A94000E000189
:10558000776F640E766F94ECB1F0000E0001786FC7
:10559000010E0001796F010E00017A6F000E77ECA9
:1055A000B1F0000E0001776F640E766F94ECB1F0ED
:1055B000000E0001786F010E0001796F010E0001ED
:1055C0007A6F000E77ECB1F0000E0001776F0A0ED3
:1055D000766F94ECB1F0000E0001786F010E0001BF
:1055E000796F010E00017A6F000E77ECB1F0000EBA
:1055F0000001786F010E0001796F000E00017A6FD3
:10560000000E77ECB1F0000E0001786F010E000182
:10561000796F000E00017A6F000E77ECB1F0000E8A
:105620000001786F000E0001796F000E00017A6FA3
:10563000010E77ECB1F0000E0001786F000E000152
:10564000796F000E00017A6F000E77ECB1F0000E5A
:105650000001786F000E0001796F000E00017A6F73
:10566000010E77ECB1F0000E0001786F000E000122
:10567000796F000E00017A6F000E77ECB1F0000E2A
:105680000001786F000E0001796F010E00017A6F42
:10569000000E77ECB1F0000E0001786F000E0001F3
:1056A000796F000E00017A6F000E77ECB1F0010EF9
:1056B0000001786F010E0001796F000E00017A6F12
:1056C000000E77ECB1F01BECB2F0000E00017C6F25
:1056D000000E02ECB2F012000001BA35BB35000139
:1056E000C16F0001C151D8A40AD0000E0001B86FEB
:1056F000000EB96F000EBA6F000EBB6F1200B8C07B
:10570000BCF0B9C0BDF0BAC0BEF0BBC0BFF0200E47
:1057100006D00001D890BF33BE33BD33BC33E82E72
:10572000F8D70001BC510001C06F0001BA8FFF0E15
:105730000001B817FF0EB917FF0EBA17000EBB17FE
:10574000960E0001C15F0001C1AF1AD00001C15126
:10575000800A970FD8B00AD0000E0001B86F000E73
:10576000B96F000EBA6F000EBB6F12000001D89027
:10577000BB33BA33B933B8330001C13FF7D71BD0BD
:105780001F0E0001C16512D0000E0001B86F000E9F
:10579000B96F000EBA6F000EBB6F12000001D890F7
:1057A000B837B937BA37BB370001C1070001C1515B
