:040000005FEF00F0BE
:10000800FACF62F0FBCF63F0E9CF64F06AEF9DF0BE
:10001800D8CF28F0E8CF29F0E0CF2AF0FACF2BF09C
:10002800FBCF2CF0E9CF2DF0EACF2EF0E1CF2FF067
:10003800E2CF30F0D9CF31F0DACF32F0F3CF33F06E
:10004800F4CF34F0F6CF35F0F7CF36F0F8CF37F0FD
:10005800F5CF38F0A1A20CD0010E0526000E06221D
:1000680007220822630EB36EC00EB26EA19200D0B2
:1000780038C0F5FF37C0F8FF36C0F7FF35C0F6FFC8
:1000880034C0F4FF33C0F3FF32C0DAFF31C0D9FF08
:1000980030C0E2FF2FC0E1FF2EC0EAFF2DC0E9FF0C
:1000A8002CC0FBFF2BC0FAFF2AC0E0FF29C0E8FFE5
:0A00B80028C0D8FF1000B6EFADF02D
:10FD9E00000000803FCDCCCC3D0AD7233C6F1283B0
:10FDAE003A17B7D138ACC52737BD37863595BFD68C
:10FDBE003377CC2B325F708930FFE6DB2E08E53CC3
:10FDCE001E6042A20D0000803F000020410000C8CE
:10FDDE004200007A4400401C460050C34700247481
:10FDEE00498096184B20BCBE4C286B6E4EF90215FE
:10FDFE0050EC78AD60CAF24971010000000A0000B3
:10FE0E000064000000E803000010270000A0860137
:10FE1E000040420F008096980000E1F50500CA9A56
:10FE2E003B202020202020204641494C45442120C3
:10FE3E002020202020002020202020434F4D504CF9
:10FE4E0045544544212020202020002020202053EE
:10FE5E0055434345535346554C4C592020202000C2
:10FE6E002020207374617274207061726B696E67EA
:10FE7E002020202000202050726573732074686546
:10FE8E0020627574746F6E202000202020647565CA
:10FE9E0020746F20616E206572726F7220200020B8
:10FEAE00756E74696C206E657874206D6573736100
:10FEBE006765200050726573732074686520425523
:10FECE0054544F4E20746F2000205061726B696E37
:10FEDE00672070726F6365647572657320002D20E4
:10FEEE0044697374616E63652052454143484544CD
:10FEFE00202D002D3E20204B454550204D4F56497C
:10FF0E004E472020203C2D003D20202020506172A5
:10FF1E006B696E6720696E202020203D003D2020F9
:10FF2E00202070726F67726573732E2E2E20202024
:10FF3E003D003D205041524B494E47204D455353B5
:10FF4E0041474553203D003D3D3E205645484943DF
:10FF5E004C4520204F4646203C3D3D003D3D3D203A
:10FF6E0056454849434C452044415441203D3D3D72
:10FF7E00003D3D3D3D3D3D3D3D3D3D3D3D3D3D3DE0
:10FF8E003D3D3D3D3D00205061726B696E672073B3
:10FF9E007061636520464F554E440053706565642D
:10FFAE003A20302E3030204B6D2F68005061726B2E
:10FFBE00206173736973743A2000446972656374C7
:10FFCE00696F6E3A20004F46462020202000534590
:10FFDE00415243482000446174613A200050202071
:10FFEE0020004657442000424B574400252E3266CF
:02FFFE00000001
:020000040001F9
:100000000001796F000179510001D8A459D0000195
:100010007429D8A455D00F01019770C075F071C034
:1000200076F072C077F073C078F0040E06D000014D
:10003000D8907833773376337533E82EF8D775C098
:100040007AF076C07BF077C07CF078C07DF000015C
:100050007A5100017A6F7B6B7C6B7D6B7AC000FFFD
:10006000070E0001701500017A6F000E0001711576
:1000700000017B6F000E0001721500017C6F000E05
:100080000001731500017D6F7AC075F07BC076F0BA
:100090007CC077F07DC078F0050ED89000017537F0
:1000A000763777377837E82EF8D775C07AF076C08C
:1000B0007BF077C07CF078C07DF07AC001FF00D083
:1000C00000017905D8A459D000017429D8A455D0CD
:1000D0000F01059770C075F071C076F072C077F0AF
:1000E00073C078F0040E06D00001D89078337733CF
:1000F00076337533E82EF8D775C07AF076C07BF08A
:1001000077C07CF078C07DF000017A5100017A6FF1
:100110007B6B7C6B7D6B7AC004FF070E0001701552
:1001200000017A6F000E0001711500017B6F000E57
:100130000001721500017C6F000E000173150001B3
:100140007D6F7AC075F07BC076F07CC077F07DC0A3
:1001500078F0050ED8900001753776377737783705
:10016000E82EF8D775C07AF076C07BF077C07CF0C7
:1001700078C07DF07AC005FF00D0020E0001791929
:10018000D8A459D000017429D8A455D00F010997DB
:1001900070C075F071C076F072C077F073C078F0FF
:1001A000040E06D00001D890783377337633753358
:1001B000E82EF8D775C07AF076C07BF077C07CF077
:1001C00078C07DF000017A5100017A6F7B6B7C6B07
:1001D0007D6B7AC008FF070E0001701500017A6F71
:1001E000000E0001711500017B6F000E00017215F9
:1001F00000017C6F000E0001731500017D6F7AC055
:1002000075F07BC076F07CC077F07DC078F0050E8D
:10021000D89000017537763777377837E82EF8D7DA
:1002200075C07AF076C07BF077C07CF078C07DF046
:100230007AC009FF00D0030E00017919D8A459D063
:1002400000017429D8A455D00F010D9770C075F026
:1002500071C076F072C077F073C078F0040E06D0EB
:100260000001D8907833773376337533E82EF8D79A
:1002700075C07AF076C07BF077C07CF078C07DF0F6
:1002800000017A5100017A6F7B6B7C6B7D6B7AC0C9
:100290000CFF070E0001701500017A6F000E0001BF
:1002A000711500017B6F000E0001721500017C6F5B
:1002B000000E0001731500017D6F7AC075F07BC0E0
:1002C00076F07CC077F07DC078F0050ED890000104
:1002D0007537763777377837E82EF8D775C07AF0E4
:1002E00076C07BF077C07CF078C07DF07AC00DFFDF
:1002F00000D0040E00017919D8A459D00001742946
:10030000D8A455D00F01119770C075F071C076F068
:1003100072C077F073C078F0040E06D00001D89058
:100320007833773376337533E82EF8D775C07AF0A3
:1003300076C07BF077C07CF078C07DF000017A5108
:1003400000017A6F7B6B7C6B7D6B7AC010FF070EB0
:100350000001701500017A6F000E00017115000197
:100360007B6F000E0001721500017C6F000E000112
:10037000731500017D6F7AC075F07BC076F07CC08C
:1003800077F07DC078F0050ED8900001753776378C
:1003900077377837E82EF8D775C07AF076C07BF0DB
:1003A00077C07CF078C07DF07AC011FF00D0050ED8
:1003B00000017919D8A459D000017429D8A455D0C6
:1003C0000F01159770C075F071C076F072C077F0AC
:1003D00073C078F0040E06D00001D89078337733DC
:1003E00076337533E82EF8D775C07AF076C07BF097
:1003F00077C07CF078C07DF000017A5100017A6FFF
:100400007B6B7C6B7D6B7AC014FF070E000170154F
:1004100000017A6F000E0001711500017B6F000E64
:100420000001721500017C6F000E000173150001C0
:100430007D6F7AC075F07BC076F07CC077F07DC0B0
:1004400078F0050ED8900001753776377737783712
:10045000E82EF8D775C07AF076C07BF077C07CF0D4
:1004600078C07DF07AC015FF00D0000179510001FD
:10047000D8A48BD0F70E00017419D8A486D00F0130
:1004800001870001705100017A6F7B6B7C6B7D6B83
:100490007AC003FF000E0001701500017A6FFF0E95
:1004A0000001711500017B6F000E00017215000143
:1004B0007C6F000E0001731500017D6F7AC075F02E
:1004C0007BC076F07CC077F07DC078F076C075F0A8
:1004D00077C076F078C077F00001786B75C07AF05D
:1004E00076C07BF077C07CF078C07DF07AC002FFE8
:1004F000000172A103D00F01018102D00F0101910F
:10050000000172A303D00F01018302D00F010193F8
:10051000000172A503D00F01018B02D00F01019BD6
:10052000000172A703D00F01018D02D00F01019DC0
:10053000000172A903D00F01018F03D00F01019FA9
:1005400000D070C075F071C076F072C077F073C0E3
:1005500078F0160E06D00001D890783377337633D2
:100560007533E82EF8D775C07AF076C07BF077C087
:100570007CF078C07DF000017A5100017A6F7B6BCE
:100580007C6B7D6B7AC000FF00D000017905D8A498
:100590008BD0F70E00017419D8A486D00F010587FF
:1005A0000001705100017A6F7B6B7C6B7D6B7AC0B0
:1005B00007FF000E0001701500017A6FFF0E0001A9
:1005C000711500017B6F000E0001721500017C6F38
:1005D000000E0001731500017D6F7AC075F07BC0BD
:1005E00076F07CC077F07DC078F076C075F077C08B
:1005F00076F078C077F00001786B75C07AF076C03D
:100600007BF077C07CF078C07DF07AC006FF0001F7
:1006100072A103D00F01058102D00F0105910001E5
:1006200072A303D00F01058302D00F0105930001CF
:1006300072A503D00F01058B02D00F01059B0001AD
:1006400072A703D00F01058D02D00F01059D000197
:1006500072A903D00F01058F03D00F01059F00D0B1
:1006600070C075F071C076F072C077F073C078F02A
:10067000160E06D00001D890783377337633753371
:10068000E82EF8D775C07AF076C07BF077C07CF0A2
:1006900078C07DF000017A5100017A6F7B6B7C6B32
:1006A0007D6B7AC004FF00D0020E00017919D8A436
:1006B0008BD0F70E00017419D8A486D00F010987DA
:1006C0000001705100017A6F7B6B7C6B7D6B7AC08F
:1006D0000BFF000E0001701500017A6FFF0E000184
:1006E000711500017B6F000E0001721500017C6F17
:1006F000000E0001731500017D6F7AC075F07BC09C
:1007000076F07CC077F07DC078F076C075F077C069
:1007100076F078C077F00001786B75C07AF076C01B
:100720007BF077C07CF078C07DF07AC00AFF0001D2
:1007300072A103D00F01098102D00F0109910001BC
:1007400072A303D00F01098302D00F0109930001A6
:1007500072A503D00F01098B02D00F01099B000184
:1007600072A703D00F01098D02D00F01099D00016E
:1007700072A903D00F01098F03D00F01099F00D088
:1007800070C075F071C076F072C077F073C078F009
:10079000160E06D00001D890783377337633753350
:1007A000E82EF8D775C07AF076C07BF077C07CF081
:1007B00078C07DF000017A5100017A6F7B6B7C6B11
:1007C0007D6B7AC008FF00D0030E00017919D8A410
:1007D0008BD0F70E00017419D8A486D00F010D87B5
:1007E0000001705100017A6F7B6B7C6B7D6B7AC06E
:1007F0000FFF000E0001701500017A6FFF0E00015F
:10080000711500017B6F000E0001721500017C6FF5
:10081000000E0001731500017D6F7AC075F07BC07A
:1008200076F07CC077F07DC078F076C075F077C048
:1008300076F078C077F00001786B75C07AF076C0FA
:100840007BF077C07CF078C07DF07AC00EFF0001AD
:1008500072A103D00F010D8102D00F010D91000193
:1008600072A303D00F010D8302D00F010D9300017D
:1008700072A503D00F010D8B02D00F010D9B00015B
:1008800072A703D00F010D8D02D00F010D9D000145
:1008900072A903D00F010D8F03D00F010D9F00D05F
:1008A00070C075F071C076F072C077F073C078F0E8
:1008B000160E06D00001D89078337733763375332F
:1008C000E82EF8D775C07AF076C07BF077C07CF060
:1008D00078C07DF000017A5100017A6F7B6B7C6BF0
:1008E0007D6B7AC00CFF00D0040E00017919D8A4EA
:1008F0008BD0F70E00017419D8A486D00F01118790
:100900000001705100017A6F7B6B7C6B7D6B7AC04C
:1009100013FF000E0001701500017A6FFF0E000139
:10092000711500017B6F000E0001721500017C6FD4
:10093000000E0001731500017D6F7AC075F07BC059
:1009400076F07CC077F07DC078F076C075F077C027
:1009500076F078C077F00001786B75C07AF076C0D9
:100960007BF077C07CF078C07DF07AC012FF000188
:1009700072A103D00F01118102D00F01119100016A
:1009800072A303D00F01118302D00F011193000154
:1009900072A503D00F01118B02D00F01119B000132
:1009A00072A703D00F01118D02D00F01119D00011C
:1009B00072A903D00F01118F03D00F01119F00D036
:1009C00070C075F071C076F072C077F073C078F0C7
:1009D000160E06D00001D89078337733763375330E
:1009E000E82EF8D775C07AF076C07BF077C07CF03F
:1009F00078C07DF000017A5100017A6F7B6B7C6BCF
:100A00007D6B7AC010FF00D0050E00017919D8A4C3
:100A10001200F70E00017419D8A412000F011587F7
:100A20000001705100017A6F7B6B7C6B7D6B7AC02B
:100A300017FF000E0001701500017A6FFF0E000114
:100A4000711500017B6F000E0001721500017C6FB3
:100A5000000E0001731500017D6F7AC075F07BC038
:100A600076F07CC077F07DC078F076C075F077C006
:100A700076F078C077F00001786B75C07AF076C0B8
:100A80007BF077C07CF078C07DF07AC016FF000163
:100A900072A103D00F01158102D00F011591000141
:100AA00072A303D00F01158302D00F01159300012B
:100AB00072A503D00F01158B02D00F01159B000109
:100AC00072A703D00F01158D02D00F01159D0001F3
:100AD00072A903D00F01158F03D00F01159F00D00D
:100AE00070C075F071C076F072C077F073C078F0A6
:100AF000160E06D00001D8907833773376337533ED
:100B0000E82EF8D775C07AF076C07BF077C07CF01D
:100B100078C07DF000017A5100017A6F7B6B7C6BAD
:100B20007D6B7AC014FF12001200B50E0101416FF7
:100B3000000E0101426F00EF8AF0250E01015519E8
:100B4000D8B408D0B1C0D9FFB2C0DAFF55C1DFFFB9
:100B5000FCEF89F0000E0101446F000E436FB3C03B
:100B6000F6FFB4C0F7FF000EF86E0800F5502E0A2D
:100B7000D8A43FD00101448D0001B34BB42B000E2B
:100B80000101506F000E4F6F26D04FC170F050C161
:100B900071F0000E0001736F0A0E726F50ECAEF030
:100BA000B3C0F6FFB4C0F7FF000EF86E0800F550B2
:100BB00000017027000E00017123D00E0001702586
:100BC00001014F6FFF0E000171210101506F000103
:100BD000B34BB42B00D0B3C0F6FFB4C0F7FF000E88
:100BE000F86E0800F55007ECAFF0D8A011D0CDD7C3
:100BF0000FD0000E0101506F000E4F6F01014489AC
:100C000007D013EF8AF00101448517D0F9D315D02E
:100C1000B3C0F6FFB4C0F7FF0001B34BB42B000E16
:100C2000F86E0800F5CF55F101015551000AD8B40E
:100C3000FAD3660AD8B4E7D7E3D3070E0101441507
:100C4000D8B483D3010144A906D0000E0101506F2E
:100C5000060E4F6F00D041C1D9FF42C1DAFFDECF8F
:100C600051F1DECF52F1DECF53F1DECF54F1040E5D
:100C700001014127000E4223010154AF16D051C19A
:100C80008EF052C18FF053C190F054C191F0F8EC46
:100C9000ADF08EC051F18FC052F190C053F191C0B0
:100CA00054F1030E0101431300D0000E01014A6FFD
:100CB000000E496F010151510101521101015311FF
:100CC00001015411D8B490D0010153355435820F2D
:100CD0000101496F01014A6BFF0E4A2301014907D7
:100CE000D8A04A0749C170F04AC171F0000E000156
:100CF000736F030E726F50ECAEF070C049F171C0AB
:100D00004AF149C176F04AC177F0000E0001796FCF
:100D10000A0E786F8FECA8F076C049F177C04AF1DF
:100D200001014AAF05D001014907D8A04A0700D008
:100D300001014951000882EC97F08EC04BF18FC041
:100D40004CF190C04DF191C04EF14BC17FF04CC1C0
:100D500080F04DC181F04EC182F051C183F052C18B
:100D600084F053C185F054C186F0C2ECA5F07FC079
:100D70004BF180C04CF181C04DF182C04EF14BC1AE
:100D800070F04CC171F04DC172F04EC173F0000EA5
:100D90000001746F000E756F800E766F3F0E776FD7
:100DA0009CECA7F00001D8B005D001014907D8A0FC
:100DB0004A071AD04BC170F04CC171F04DC172F0AE
:100DC0004EC173F0000E0001746F000E756F200E9F
:100DD000766F410E776F9CECA7F00001D8A004D08D
:100DE0000101494B4A2B00D0010150BF08D001013D
:100DF000505124E10D0E01014F5DD8B01FD051C1FB
:100E00009BF052C19CF053C19DF054C19EF0010172
:100E10004F51EBEC9BF08EC09FF08FC0A0F090C0C4
:100E2000A1F091C0A2F0ADEC9EF09BC051F19CC02E
:100E300052F19DC053F19EC054F100D001014ABF50
:100E400008D001014A5130E10A0E0101495DD8B0D4
:100E50002BD0010151510101521101015311010126
:100E60005411D8B48CD051C1A7F052C1A8F053C1CD
:100E7000A9F054C1AAF00FECA7F00001A75100019E
:100E8000A8110001A9110001AA11D8A478D001016C
:100E90004ABF75D001014A5107E1020E0101495DC7
:100EA000D8B002D06CD000D04BC170F04CC171F002
:100EB0004DC172F04EC173F05F0E0001746F700E81
:100EC000756F890E766F400E776F9CECA7F000016E
:100ED000D8B003D00101F70E02D00101F80E492766
:100EE000FF0E4A2300D00101495182EC97F08EC0D9
:100EF0004BF18FC04CF190C04DF191C04EF151C1FA
:100F000070F052C171F053C172F054C173F04BC113
:100F100074F04CC175F04DC176F04EC177F081ECA4
:100F2000A3F070C045F171C046F172C047F173C0C3
:100F300048F11BD051C170F052C171F053C172F031
:100F400054C173F04BC174F04CC175F04DC176F0D3
:100F50004EC177F0AEECA2F070C045F171C046F121
:100F600072C047F173C048F100D0000E0101516F0B
:100F7000000E526F000E536F000E546F3CD051C1E3
:100F8000A7F052C1A8F053C1A9F054C1AAF00FECC8
:100F9000A7F0A7C045F1A8C046F1A9C047F1AAC073
:100FA00048F151C1A7F052C1A8F053C1A9F054C1F2
:100FB000AAF045C17AF046C17BF047C17CF048C138
:100FC0007DF0A2ECAEF07AC0ABF07BC0ACF07CC0A0
:100FD000ADF07DC0AEF013ECADF0A7C051F1A8C0EC
:100FE00052F1A9C053F1AAC054F1000E01014A6F99
:100FF000000E496F00D0010E0101556F0A0E01016C
:101000005519D8B425D001D023D001015551040D74
:10101000070EF324F66EFE0EF420F76EF86A000E4B
:10102000F8220900F5500101455D0900F550010164
:1010300046590900F550010147590900F5500101D1
:101040004859D8A005D001D003D00101552BD6D7DF
:10105000030E010143150001B96F000E0101441593
:101060000001BA6F0001B9510001BA11D8B458D0CB
:10107000B1C0D9FFB2C0DAFF2D0E50D00001B14B84
:10108000B22B4ED045C170F046C171F047C172F02D
:1010900048C173F001015551040D070EF324F66E9B
:1010A000FE0EF420F76EF86A000EF8220900F5CF64
:1010B00074F00900F5CF75F00900F5CF76F00A005D
:1010C000F5CF77F0F7ECA8F070C04BF171C04CF1A0
:1010D00072C04DF173C04EF14BC170F04CC171F054
:1010E0004DC172F04EC173F00A0E0001746F000E14
:1010F000756F000E766F000E776FC8ECAAF070C0A7
:101100004BF171C04CF172C04DF173C04EF1010151
:101110004B51300FB1C0D9FFB2C0DAFFDF6EAED78E
:101120000101550701015529D8B410D0ABD70ED015
:10113000B1C0D9FFB2C0DAFF300EDF6E0001B14B93
:10114000B22B01014907D8A04A0700D001014ABFCC
:1011500007D001014A51ECE101014905D8B0E8D7B7
:10116000010150BF0CD00101505105E1090E0101F0
:101170004F5DD8A004D0080E0101556F03D04FC1B8
:1011800055F100D00101555101014F5F000E0101E1
:1011900055BFFF0E0101505B010155510101D8B44B
:1011A0000AD0B1C0D9FFB2C0DAFF2E0EDF6E000147
:1011B000B14BB22B00D00101555182EC97F08EC09B
:1011C0003DF18FC03EF190C03FF191C040F151C15F
:1011D00083F052C184F053C185F054C186F03DC103
:1011E0007FF03EC180F03FC181F040C182F0C2EC8F
:1011F000A5F07FC0A7F080C0A8F081C0A9F082C090
:10120000AAF00FECA7F0A7C045F1A8C046F1A9C00D
:1012100047F1AAC048F17BD045C170F046C171F0DA
:1012200047C172F048C173F001015551040D070E1A
:10123000F324F66EFE0EF420F76EF86A000EF82224
:101240000900F5CF74F00900F5CF75F00900F5CF6E
:1012500076F00A00F5CF77F0F7ECA8F070C04BF10C
:1012600071C04CF172C04DF173C04EF14BC170F0C2
:101270004CC171F04DC172F04EC173F00A0E000105
:10128000746F000E756F000E766F000E776FC8ECEE
:10129000AAF070C04BF171C04CF172C04DF173C037
:1012A0004EF101014B51300FB1C0D9FFB2C0DAFF8E
:1012B000DF6E0001B14BB22B45C170F046C171F039
:1012C00047C172F048C173F001015551040D070E7A
:1012D000F324F66EFE0EF420F76EF86A000EF82284
:1012E0000900F5CF74F00900F5CF75F00900F5CFCE
:1012F00076F00A00F5CF77F0C8ECAAF070C045F19F
:1013000071C046F172C047F173C048F100D00101CD
:10131000550701015529D8B410D07ED70ED0B1C0E1
:10132000D9FFB2C0DAFF300EDF6E0001B14BB22B35
:1013300001014F07D8A0500700D001014F51010112
:101340005011D8B45DD0EBD75BD001014F510101F2
:101350005011D8A40ED001014551010146110101DF
:10136000471101014811D8A404D001014F4B502B63
:1013700000D0800E010155BF7F0E0001B96F010141
:101380004F510101555D01015051800A0001B959C9
:10139000D8B003D04FC155F119D001015051800A86
:1013A0000001B96F0101555101014F5D800E01012E
:1013B00055BF7F0E0001B959D8B008D00101555171
:1013C00001014F6F506B4FBF500700D0030E01015A
:1013D00043150001B96F000E010144150001BA6FF9
:1013E0000001B9510001BA11D8B40AD0B1C0D9FF77
:1013F000B2C0DAFF2D0EDF6E0001B14BB22B00D070
:10140000B3C0F6FFB4C0F7FF0001B34BB42B000E1E
:10141000F86E0800F5CF55F101015551D8B403D04D
:101420009DEF85F000D0B1C0D9FFB2C0DAFF000E49
:10143000DF6E120012000F0140B742D176C045FFA7
:10144000000177AD03D00F01458D02D00F01459DFE
:10145000000177A77AD00001705100017C6F7D6B8D
:101460007E6B7F6B7CC044FF000E00017015000195
:101470007C6FFF0E0001711500017D6F000E0001F1
:10148000721500017E6F000E0001731500017F6F61
:101490007CC078F07DC079F07EC07AF07FC07BF0B0
:1014A00079C078F07AC079F07BC07AF000017B6B6C
:1014B00078C07CF079C07DF07AC07EF07BC07FF090
:1014C0007CC043FF000E0F01426F0F0142870001F5
:1014D00072A102D00F014281000172A302D00F015C
:1014E0004283000172A502D00F01428B000172A756
:1014F00002D00F01428D000172A903D00F01428F6B
:1015000000D070C078F071C079F072C07AF073C00A
:101510007BF0160E06D00001D8907B337A337933F6
:101520007833E82EF8D778C07CF079C07DF07AC0A7
:101530007EF07BC07FF000017C5100017C6F7D6BF1
:101540007E6B7F6B7CC041FF5AD00F01429770C009
:1015500078F071C079F072C07AF073C07BF0040E3D
:1015600006D00001D8907B337A3379337833E82E74
:10157000F8D778C07CF079C07DF07AC07EF07BC06F
:101580007FF000017C5100017C6F7D6B7E6B7F6B77
:101590007CC041FF070E0001701500017C6F000E3A
:1015A0000001711500017D6F000E00017215000130
:1015B0007E6F000E0001731500017F6F7CC078F014
:1015C0007DC079F07EC07AF07FC07BF0050ED890A8
:1015D0000001783779377A377B37E82EF8D778C02B
:1015E0007CF079C07DF07AC07EF07BC07FF00F0187
:1015F00042511F0B0F01426F7CC042FF00D000011F
:1016000077A103D00F01408102D00F01409100016A
:1016100077A303D00F01408303D00F01409300D084
:1016200074C0D9FF75C0DAFFDF500F01466F0001AB
:1016300020EE01F07451D9267551DA22DF500F01E6
:10164000476F000120EE02F07451D9267551DA225D
:10165000DF500F01486F000120EE03F07451D926CE
:101660007551DA22DF500F01496F000120EE04F0BE
:101670007451D9267551DA22DF500F014A6F0001EB
:1016800020EE05F07451D9267551DA22DF500F0192
:101690004B6F000120EE06F07451D9267551DA2205
:1016A000DF500F014C6F000120EE07F07451D92676
:1016B0007551DA22DF500F014D6F0F014087120084
:1016C0000F0130B742D176C035FF000177AD03D0AE
:1016D0000F01358D02D00F01359D000177A77AD01B
:1016E0000001705100017C6F7D6B7E6B7F6B7CC055
:1016F00034FF000E0001701500017C6FFF0E000129
:10170000711500017D6F000E0001721500017E6FE2
:10171000000E0001731500017F6F7CC078F07DC062
:1017200079F07EC07AF07FC07BF079C078F07AC023
:1017300079F07BC07AF000017B6B78C07CF079C0D7
:101740007DF07AC07EF07BC07FF07CC033FF000E5E
:101750000F01326F0F013287000172A102D00F0119
:101760003281000172A302D00F013283000172A501
:1017700002D00F01328B000172A702D00F01328D0F
:10178000000172A903D00F01328F00D070C078F031
:1017900071C079F072C07AF073C07BF0160E06D07B
:1017A0000001D8907B337A3379337833E82EF8D739
:1017B00078C07CF079C07DF07AC07EF07BC07FF08D
:1017C00000017C5100017C6F7D6B7E6B7F6B7CC068
:1017D00031FF5AD00F01329770C078F071C079F0A4
:1017E00072C07AF073C07BF0040E06D00001D8906E
:1017F0007B337A3379337833E82EF8D778C07CF0AE
:1018000079C07DF07AC07EF07BC07FF000017C5112
:1018100000017C6F7D6B7E6B7F6B7CC031FF070EA0
:101820000001701500017C6F000E000171150001B0
:101830007D6F000E0001721500017E6F000E000129
:10184000731500017F6F7CC078F07DC079F07EC099
:101850007AF07FC07BF0050ED89000017837793799
:101860007A377B37E82EF8D778C07CF079C07DF0E6
:101870007AC07EF07BC07FF00F0132511F0B0F0149
:10188000326F7CC032FF00D0000177A103D00F017E
:10189000308102D00F013091000177A303D00F01F6
:1018A000308303D00F01309300D074C0D9FF75C0CE
:1018B000DAFFDF500F01366F000120EE01F07451A6
:1018C000D9267551DA22DF500F01376F000120EE63
:1018D00002F07451D9267551DA22DF500F01386FAA
:1018E000000120EE03F07451D9267551DA22DF5041
:1018F0000F01396F000120EE04F07451D9267551A3
:10190000DA22DF500F013A6F000120EE05F074512A
:10191000D9267551DA22DF500F013B6F000120EE0E
:1019200006F07451D9267551DA22DF500F013C6F51
:10193000000120EE07F07451D9267551DA22DF50EC
:101940000F013D6F0F01308712000F0120B7120009
:1019500076C025FF000177AD03D00F01258D02D0A1
:101960000F01259D000177A77AD000017051000179
:101970007C6F7D6B7E6B7F6B7CC024FF000E000153
:10198000701500017C6FFF0E0001711500017D6F65
:10199000000E0001721500017E6F000E000173152C
:1019A00000017F6F7CC078F07DC079F07EC07AF056
:1019B0007FC07BF079C078F07AC079F07BC07AF094
:1019C00000017B6B78C07CF079C07DF07AC07EF03E
:1019D0007BC07FF07CC023FF000E0F01226F0F0140
:1019E0002287000172A102D00F012281000172A39F
:1019F00002D00F012283000172A502D00F01228BB9
:101A0000000172A702D00F01228D000172A903D03C
:101A10000F01228F00D070C078F071C079F072C0D1
:101A20007AF073C07BF0160E06D00001D8907B339D
:101A30007A3379337833E82EF8D778C07CF079C0E0
:101A40007DF07AC07EF07BC07FF000017C51000108
:101A50007C6F7D6B7E6B7F6B7CC021FF5AD00F014A
:101A6000229770C078F071C079F072C07AF073C0BC
:101A70007BF0040E06D00001D8907B337A337933A3
:101A80007833E82EF8D778C07CF079C07DF07AC042
:101A90007EF07BC07FF000017C5100017C6F7D6B8C
:101AA0007E6B7F6B7CC021FF070E0001701500016B
:101AB0007C6F000E0001711500017D6F000E0001AA
:101AC000721500017E6F000E0001731500017F6F1B
:101AD0007CC078F07DC079F07EC07AF07FC07BF06A
:101AE000050ED8900001783779377A377B37E82EA2
:101AF000F8D778C07CF079C07DF07AC07EF07BC0EA
:101B00007FF00F0122511F0B0F01226F7CC022FFBB
:101B100000D0000177A103D00F01208102D00F0176
:101B20002091000177A303D00F01208303D00F0180
:101B3000209300D074C0D9FF75C0DAFFDF500F01C9
:101B4000266F000120EE01F07451D9267551DA227A
:101B5000DF500F01276F000120EE02F07451D926EB
:101B60007551DA22DF500F01286F000120EE03F0DB
:101B70007451D9267551DA22DF500F01296F000107
:101B800020EE04F07451D9267551DA22DF500F018E
:101B90002A6F000120EE05F07451D9267551DA2222
:101BA000DF500F012B6F000120EE06F07451D92693
:101BB0007551DA22DF500F012C6F000120EE07F083
:101BC0007451D9267551DA22DF500F012D6F0F01A4
:101BD00020871200120076ECAAF0CF0E0001BB6F36
:101BE000F70EBC6F330EBD6F3F0EBE6F000E0001CF
:101BF000BF6F000EC06FA00EC16F410EC26F000E0E
:101C0000216E00D08CECAFF0A2ECAFF097ECAFF00F
:101C10004BBC8BD0010E0001E76F000E0001E66F98
:101C2000000EE56F5A0E01012D6F000E206EBCEC08
:101C3000A9F0839C839A100E0BECA5F0010E18EC12
:101C4000A8F07F0E0001816FFF0E0001826F87EC0C
:101C5000AEF0020E18ECA8F0550E0001816FFF0ED9
:101C60000001826F87ECAEF0030E18ECA8F0830E33
:101C70000001816FFE0E0001826F87ECAEF0040E52
:101C800018ECA8F07F0E0001816FFF0E0001826F3B
:101C900087ECAEF046D0CBC056F1CCC057F1CDC0EA
:101CA00058F1CEC059F10101561F571F581F591F37
:101CB000562B000E57235823592305500101562552
:101CC00001015A6F06500101572101015B6F075056
:101CD0000101582101015C6F0850010159210101E6
:101CE0005D6F01015D5101015C1101015B1105E1B5
:101CF0001E0E01015A5DD8A00AD005C0CBF006C067
:101D0000CCF007C0CDF008C0CEF0837E00D08CECC4
:101D1000AFF0000E0001776F0A0E766F33ECAEF075
:101D200000D04BACB8D7839E4B8480A404D0000E67
:101D30000001EB6F18D080B60AD0010E0001EB6FE6
:101D4000010E0001E76F4AAA0CD009D00CD0020E98
:101D50000001EB6F000E0001E76F4AA202D04B8238
:101D600002D04B9200D04AA6A9D04C9C4CAA4AB8AB
:101D70002FD04B9E010E0001E96F000E0001BF6FD6
:101D8000000EC06FA00EC16F400EC26F00D032ECCB
:101D9000AFF00009D8B4FBD7010E0101356F0C0E6E
:101DA0000001706F000E716F000E726F000E736F86
:101DB000350E0001746F010E0001756F080E0001F1
:101DC000766FBC0E0001776F1BEC8AF04C8A00D056
:101DD0004AB84BAE2AD04CA028D04CBE28D0040E16
:101DE0000001E86F020E0001E96F00D032ECAFF0A5
:101DF0000009D8B4FBD70E0E0001706F000E716F92
:101E0000000E726F000E736F1D0E0001746F010ED5
:101E10000001756F080E0001766FBC0E0001776F30
:101E20001BEC8AF04C9A4C8E02D04C9E00D0D7C04E
:101E300056F1D8C057F1D9C058F1DAC059F10101B3
:101E4000561F571F581F591F562B000E5723582334
:101E5000592305500101562501015A6F0650010111
:101E6000572101015B6F07500101582101015C6F8F
:101E700008500101592101015D6F01015D5101010E
:101E80005C1101015B1105E11E0E01015A5DD8A034
:101E900050D005C0D7F006C0D8F007C0D9F008C0B0
:101EA000DAF04BBE4CA007D0838C4AB802D0837ABC
:101EB00040D0838A3ED0837C3AD03BD04C9A4C9E13
:101EC0004B9A4A984B9E4C90839A839C4CBC2ED044
:101ED000000E0001E96F000E0001BF6F000EC06F21
:101EE000A00EC16F410EC26F00D032ECAFF00009FE
:101EF000D8B4FBD7000E0101356F0C0E0001706FD6
:101F0000000E716F000E726F000E736F350E0001C0
:101F1000746F010E0001756F080E0001766FBC0E24
:101F20000001776F1BEC8AF04C8C00D0839C839A65
:101F300000D0D7ECADF0000E00019F6F000EA06F37
:101F4000340EA16F430EA26FBBC083F0BCC084F0FF
:101F5000BDC085F0BEC086F00001DF516CECAEF074
:101F60007AC07FF07BC080F07CC081F07DC082F0C1
:101F7000C2ECA5F07FC08EF080C08FF081C090F0E1
:101F800082C091F0F8ECADF08EC09BF08FC09CF059
:101F900090C09DF091C09EF0ADEC9EF09BC0A7F06C
:101FA0009CC0A8F09DC0A9F09EC0AAF00FECA7F0BD
:101FB0000001A75101012D6F0001E905D8A45CD0F3
:101FC0004CA20FD00001EA512DC156F10101576B0F
:101FD00001015627000E572356C1C7F057C1C8F05C
:101FE0001BD00001EA510101566F576B0101561FCA
:101FF000571F564B572B01012D510101586F596B3B
:10200000010156510101582701015751010159237E
:1020100058C1C7F059C1C8F00001000EC8BFFF0E7B
:10202000C96FCA6F0001CABF12D00001CABF0CD06D
:102030000001CA510001C9110001C81108E1B50E23
:102040000001C75DD8B003D0C7C02DF119D0000181
:10205000CABF0ED00001CA510001C9110001C81148
:1020600005E1B50E0001C75DD8A002D0B40E01D0C5
:10207000000E01012D6F04D04C92000E0001EA6F9A
:102080000001EB51D8A44BB253D0840E0001E0659F
:1020900030D0BFC083F0C0C084F0C1C085F0C2C0E2
:1020A00086F07E0E0001E02500017A6F00017B6B57
:1020B000FF0E7B236AECADF07AC07FF07BC080F02E
:1020C0007CC081F07DC082F0C2ECA5F07FC0A7F09B
:1020D00080C0A8F081C0A9F082C0AAF00FECA7F0E0
:1020E000A7C0E5F0A8C0E6F0030E1FD0000E216ED9
:1020F00027D0000E0001E66F000EE56F420E0001D2
:10210000E06105D0020E206E000E216E00D0150E8B
:102110000001E06105D0010E206E000E216E00D09E
:10212000060E0001E0610CD0000E206EDFD708D053
:10213000000E0001E66F000EE56F000E206E00D06D
:102140004BA604D0A6ECABF04B9600D0CFC056F116
:10215000D0C057F1D1C058F1D2C059F10101561F7A
:10216000571F581F591F562B000E5723582359230A
:1021700005500101562501015A6F065001015721F2
:1021800001015B6F07500101582101015C6F08508C
:102190000101592101015D6F01015D5101015C11D6
:1021A00001015B1105E1020E01015A5DD8A004D0C6
:1021B000010E0001E86502D04AA41CD04AA40FD049
:1021C000010E0001E76F000E0001E66F000EE56FE3
:1021D0005A0E01012D6F000E206E4A9400D005C0EA
:1021E000CFF006C0D0F007C0D1F008C0D2F0BCECF0
:1021F000A9F000D00001DB51055C0001DC5106585C
:102200000001DD5107580001DE510858D8A05DD00B
:10221000D3C056F1D4C057F1D5C058F1D6C059F14A
:102220000101561F571F581F591F562B000E5723C9
:102230005823592305500101562501015A6F0650B4
:102240000101572101015B6F075001015821010174
:102250005C6F08500101592101015D6F01015D5161
:1022600001015C1101015B1105E10A0E01015A5DDA
:10227000D8A0C8D405C0D3F006C0D4F007C0D5F0AC
:1022800008C0D6F04BAA1ED04B840001E851D8A458
:1022900005D07DECACF00001E82B00D0020E00016F
:1022A000E819D8A405D04BECACF00001E82B00D025
:1022B000040E0001E819D8A4A5D419ECACF0000173
:1022C000E82BA0D4E3EC9FF09DD4060E0001E819A2
:1022D000D8A498D44BA823D04B98AFECACF000D046
:1022E00032ECAFF0E806D8A4FBD7000E206E060E45
:1022F0000001706F000E716F000E726F000E736F31
:10230000200E0001746F000E0001756F080E0001B1
:10231000766FBC0E0001776F1BEC8AF003D0E1EC06
:10232000ACF000D0000E0001E86F4B9A6BD45FEF69
:1023300000F00F0140B718D13FC045FF40AC03D0BB
:102340000F01458D02D00F01459D40A667D0395041
:10235000456E466A476A486A45C044FF000E391414
:10236000456EFF0E3A14466E000E3B14476E000E8B
:102370003C14486E45C041F046C042F047C043F0AF
:1023800048C044F042C041F043C042F044C043F072
:10239000446A41C045F042C046F043C047F044C0E3
:1023A00048F045C043FF000E0F01426F0F01428706
:1023B0003BA002D00F0142813BA202D00F01428319
:1023C0003BA402D00F01428B3BA602D00F01428DED
:1023D0003BA803D00F01428F00D039C041F03AC072
:1023E00042F03BC043F03CC044F0160E05D0D890FC
:1023F0004432433242324132E82EF9D741C045F0EF
:1024000042C046F043C047F044C048F04550456ED6
:10241000466A476A486A45C041FF4ED00F0142975D
:1024200039C041F03AC042F03BC043F03CC044F0F8
:10243000040E05D0D8904432433242324132E82E65
:10244000F9D741C045F042C046F043C047F044C010
:1024500048F04550456E466A476A486A45C041FFA4
:10246000070E3914456E000E3A14466E000E3B14EA
:10247000476E000E3C14486E45C041F046C042F025
:1024800047C043F048C044F0050ED890413642366C
:1024900043364436E82EF9D741C045F042C046F0F5
:1024A00043C047F044C048F00F0142511F0B0F01D9
:1024B000426F45C042FF00D040A003D00F014081D1
:1024C00002D00F01409140A203D00F01408303D0FE
:1024D0000F01409300D03DC0D9FF3EC0DAFFDF506E
:1024E0000F01466F20EE01F03D50D9263E50DA2212
:1024F000DF500F01476F20EE02F03D50D9263E50CD
:10250000DA22DF500F01486F20EE03F03D50D9264C
:102510003E50DA22DF500F01496F20EE04F03D50AB
:10252000D9263E50DA22DF500F014A6F20EE05F027
:102530003D50D9263E50DA22DF500F014B6F20EE7E
:1025400006F03D50D9263E50DA22DF500F014C6F85
:1025500020EE07F03D50D9263E50DA22DF500F0121
:102560004D6F0F01408712000F0130B718D13FC0E7
:1025700035FF40AC03D00F01358D02D00F01359DE2
:1025800040A667D03950456E466A476A486A45C0DA
:1025900034FF000E3914456EFF0E3A14466E000EDD
:1025A0003B14476E000E3C14486E45C041F046C0D7
:1025B00042F047C043F048C044F042C041F043C03D
:1025C00042F044C043F0446A41C045F042C046F086
:1025D00043C047F044C048F045C033FF000E0F0130
:1025E000326F0F0132873BA002D00F0132813BA234
:1025F00002D00F0132833BA402D00F01328B3BA6E5
:1026000002D00F01328D3BA803D00F01328F00D0D2
:1026100039C041F03AC042F03BC043F03CC044F006
:10262000160E05D0D8904432433242324132E82E61
:10263000F9D741C045F042C046F043C047F044C01E
:1026400048F04550456E466A476A486A45C031FFC2
:102650004ED00F01329739C041F03AC042F03BC032
:1026600043F03CC044F0040E05D0D89044324332CD
:1026700042324132E82EF9D741C045F042C046F01F
:1026800043C047F044C048F04550456E466A476A2B
:10269000486A45C031FF070E3914456E000E3A14E2
:1026A000466E000E3B14476E000E3C14486E45C04B
:1026B00041F046C042F047C043F048C044F0050E28
:1026C000D8904136423643364436E82EF9D741C0D9
:1026D00045F042C046F043C047F044C048F00F0107
:1026E00032511F0B0F01326F45C032FF00D040A0A6
:1026F00003D00F01308102D00F01309140A203D0EE
:102700000F01308303D00F01309300D03DC0D9FFBB
:102710003EC0DAFFDF500F01366F20EE01F03D5072
:10272000D9263E50DA22DF500F01376F20EE02F03B
:102730003D50D9263E50DA22DF500F01386F20EE8F
:1027400003F03D50D9263E50DA22DF500F01396F99
:1027500020EE04F03D50D9263E50DA22DF500F0122
:102760003A6F20EE05F03D50D9263E50DA22DF5078
:102770000F013B6F20EE06F03D50D9263E50DA2285
:10278000DF500F013C6F20EE07F03D50D9263E5040
:10279000DA22DF500F013D6F0F01308712000F0169
:1027A00020B712003FC025FF40AC03D00F01258D9C
:1027B00002D00F01259D40A667D03950456E466A6C
:1027C000476A486A45C024FF000E3914456EFF0E63
:1027D0003A14466E000E3B14476E000E3C14486ED1
:1027E00045C041F046C042F047C043F048C044F005
:1027F00042C041F043C042F044C043F0446A41C08B
:1028000045F042C046F043C047F044C048F045C0E0
:1028100023FF000E0F01226F0F0122873BA002D081
:102820000F0122813BA202D00F0122833BA402D0E0
:102830000F01228B3BA602D00F01228D3BA803D0B3
:102840000F01228F00D039C041F03AC042F03BC0A6
:1028500043F03CC044F0160E05D0D89044324332C9
:1028600042324132E82EF9D741C045F042C046F02D
:1028700043C047F044C048F04550456E466A476A39
:10288000486A45C021FF4ED00F01229739C041F060
:102890003AC042F03BC043F03CC044F0040E05D0C7
:1028A000D8904432433242324132E82EF9D741C007
:1028B00045F042C046F043C047F044C048F04550A0
:1028C000456E466A476A486A45C021FF070E3914BB
:1028D000456E000E3A14466E000E3B14476E000E15
:1028E0003C14486E45C041F046C042F047C043F03A
:1028F00048C044F0050ED89041364236433644363F
:10290000E82EF9D741C045F042C046F043C047F039
:1029100044C048F00F0122511F0B0F01226F45C028
:1029200022FF00D040A003D00F01208102D00F0170
:10293000209140A203D00F01208303D00F012093E8
:1029400000D03DC0D9FF3EC0DAFFDF500F01266F37
:1029500020EE01F03D50D9263E50DA22DF500F0123
:10296000276F20EE02F03D50D9263E50DA22DF508C
:102970000F01286F20EE03F03D50D9263E50DA2299
:10298000DF500F01296F20EE04F03D50D9263E5054
:10299000DA22DF500F012A6F20EE05F03D50D926D4
:1029A0003E50DA22DF500F012B6F20EE06F03D5033
:1029B000D9263E50DA22DF500F012C6F20EE07F0AF
:1029C0003D50D9263E50DA22DF500F012D6F0F0106
:1029D000208712001200000E436E74AE02D04380B6
:1029E00000D074AC02D0438200D00F0150AF49D167
:1029F00039C0D9FF3AC0DAFFDE6ADE6ADE6ADD6A14
:102A000020EE04F03950D9263A50DA2256CFDFFFB3
:102A100020EE05F03950D9263A50DA2257CFDFFFA1
:102A200020EE06F03950D9263A50DA2258CFDFFF8F
:102A300020EE07F03950D9263A50DA2259CFDFFF7D
:102A400020EE08F03950D9263A50DA225ACFDFFF6B
:102A500020EE09F03950D9263A50DA225BCFDFFF59
:102A600020EE0AF03950D9263A50DA225CCFDFFF47
:102A700020EE0BF03950D9263A50DA225DCFDFFF35
:102A800020EE0EF03950D9263A50DA220F0155AD1A
:102A900002D0010E01D0000EDF6E20EE0DF0395095
:102AA000D9263A50DA220F0155510F0BDF6E20EE76
:102AB0000CF03950D9263A50DA220F0152A702D031
:102AC000010E01D0000EDF6E0F0152B744D051CF7E
:102AD0003BF03C6A3D6A3E6A030ED8903B363C367A
:102AE0003D363E36E82EF9D739C0D9FF3AC0DAFF75
:102AF0003BC0DEFF3CC0DEFF3DC0DEFF3EC0DEFF70
:102B00000F015239E842070B070B446E39C0D9FF59
:102B10003AC0DAFFDECF3BF0DECF3CF0DECF3DF057
:102B2000DECF3EF044503B243F6E000E3C20406E12
:102B3000000E3D20416E000E3E20426E39C0D9FF8E
:102B40003AC0DAFF3FC0DEFF40C0DEFF41C0DEFF1B
:102B500042C0DEFF93D054CF3BF03C6A3D6A3E6AF0
:102B600039C0D9FF3AC0DAFF3BC0DEFF3CC0DEFF10
:102B70003DC0DEFF3EC0DEFF53CF3BF03C6A3D6A06
:102B80003E6A3DC03EF03CC03DF03BC03CF03B6A7D
:102B900039C0D9FF3AC0DAFF3B50DE263C50DE2276
:102BA0003D50DE223E50DE220F0152A10DD039C031
:102BB000D9FF3AC0DAFF000EDE12000EDE12010E5F
:102BC000DE12000EDE1200D00F0152A30DD039C06C
:102BD000D9FF3AC0DAFF000EDE12000EDE12020E3E
:102BE000DE12000EDE1200D00F0152AB0DD039C044
:102BF000D9FF3AC0DAFF000EDE12000EDE12040E1C
:102C0000DE12000EDE1200D00F0152AD0DD039C021
:102C1000D9FF3AC0DAFF000EDE12000EDE12080EF7
:102C2000DE12000EDE1200D00F0152AF0DD039C0FF
:102C3000D9FF3AC0DAFF000EDE12000EDE12100ECF
:102C4000DE12000EDE1200D051CF3BF03C6A3D6A2E
:102C50003E6A150ED8903B363C363D363E36E82E61
:102C6000F9D739C0D9FF3AC0DAFF3B50DE123C50E9
:102C7000DE123D50DE123E50DE1200D00F01509F9A
:102C8000120060AE120039C0D9FF3AC0DAFFDE6A26
:102C9000DE6ADE6ADD6A20EE04F03950D9263A5049
:102CA000DA2266CFDFFF20EE05F03950D9263A5000
:102CB000DA2267CFDFFF20EE06F03950D9263A50EE
:102CC000DA2268CFDFFF20EE07F03950D9263A50DC
:102CD000DA2269CFDFFF20EE08F03950D9263A50CA
:102CE000DA226ACFDFFF20EE09F03950D9263A50B8
:102CF000DA226BCFDFFF20EE0AF03950D9263A50A6
:102D0000DA226CCFDFFF20EE0BF03950D9263A5093
:102D1000DA226DCFDFFF20EE0EF03950D9263A507F
:102D2000DA2265AC02D0010E01D0000EDF6E20EE7B
:102D30000DF03950D9263A50DA2265500F0BDF6E6C
:102D400020EE0CF03950D9263A50DA2262A602D091
:102D5000010E01D0000EDF6E62B643D061CF3BF0B2
:102D60003C6A3D6A3E6A030ED8903B363C363D369F
:102D70003E36E82EF9D739C0D9FF3AC0DAFF3BC05A
:102D8000DEFF3CC0DEFF3DC0DEFF3EC0DEFF62383E
:102D9000E842070B070B446E39C0D9FF3AC0DAFF8F
:102DA000DECF3BF0DECF3CF0DECF3DF0DECF3EF0BD
:102DB00044503B243F6E000E3C20406E000E3D20F0
:102DC000416E000E3E20426E39C0D9FF3AC0DAFF94
:102DD0003FC0DEFF40C0DEFF41C0DEFF42C0DEFF7D
:102DE0008ED064CF3BF03C6A3D6A3E6A39C0D9FF61
:102DF0003AC0DAFF3BC0DEFF3CC0DEFF3DC0DEFF75
:102E00003EC0DEFF63CF3BF03C6A3D6A3E6A3DC098
:102E10003EF03CC03DF03BC03CF03B6A39C0D9FFBE
:102E20003AC0DAFF3B50DE263C50DE223D50DE2227
:102E30003E50DE2262A00DD039C0D9FF3AC0DAFF81
:102E4000000EDE12000EDE12010EDE12000EDE1289
:102E500000D062A20DD039C0D9FF3AC0DAFF000E0F
:102E6000DE12000EDE12020EDE12000EDE1200D0A6
:102E700062AA0DD039C0D9FF3AC0DAFF000EDE12C7
:102E8000000EDE12040EDE12000EDE1200D062AC66
:102E90000DD039C0D9FF3AC0DAFF000EDE12000EA5
:102EA000DE12080EDE12000EDE1200D062AE0DD071
:102EB00039C0D9FF3AC0DAFF000EDE12000EDE1272
:102EC000100EDE12000EDE1200D061CF3BF03C6A25
:102ED0003D6A3E6A150ED8903B363C363D363E364E
:102EE000E82EF9D739C0D9FF3AC0DAFF3B50DE12DD
:102EF0003C50DE123D50DE123E50DE1200D0609E8D
:102F0000120012000001966F000196AF48D1000137
:102F1000966D00019651800A120FD8A0BCD0000E09
:102F20000001796F0A0E786F000E0001736F640E56
:102F3000726F000196510001706F716B70BF710765
:102F40001CECAAF070C076F071C077F08FECA8F09E
:102F50000001D890763777370001D89076377737E9
:102F6000240E00017627000E000177239F0E00013A
:102F70007625F66EFD0E00017721F76EF86A000ED9
:102F8000F8220900F5CF83F00900F5CF84F009009D
:102F9000F5CF85F00A00F5CF86F0000E0001796FBD
:102FA000640E786F000196510001766F776B76BFE3
:102FB00077078FECA8F00001D890763777370001BB
:102FC000D89076377737480E00017627000E00013B
:102FD00077239F0E00017625F66EFD0E0001772106
:102FE000F76EF86A000EF8220900F5CF7FF00900AD
:102FF000F5CF80F00900F5CF81F00A00F5CF82F01F
:10300000C2ECA5F07FC092F080C093F081C094F034
:1030100082C095F092C07FF093C080F094C081F0A0
:1030200095C082F0000E0001736F0A0E726F0001EE
:1030300096510001706F716B70BF71071CECAAF0A4
:103040000001D890703771370001D8907037713710
:103050009F0E00017025F66EFD0E00017121F76EC6
:10306000F86A000EF8220900F5CF83F00900F5CFC9
:1030700084F00900F5CF85F00A00F5CF86F0C2ECA8
:10308000A5F07FC08EF080C08FF081C090F082C02C
:1030900091F012006BD000019651800A750FD8A0F4
:1030A00065D0000E0001796F0A0E786F000196510D
:1030B0000001766F776B76BF77078FECA8F0000181
:1030C000D890763777370001D89076377737240E47
:1030D00000017627000E000177239F0E0001762560
:1030E000F66EFD0E00017721F76EF86A000EF822E9
:1030F0000900F5CF7FF00900F5CF80F00900F5CF8A
:1031000081F00A00F5CF82F0000E0001736F0A0E05
:10311000726F000196510001706F716B70BF710783
:103120001CECAAF00001D890703771370001D890DC
:10313000703771379F0E00017025F66EFD0E00018D
:103140007121F76EF86A000EF8220900F5CF83F0BE
:103150000900F5CF84F00900F5CF85F00A00F5CF1E
:1031600086F0C2ECA5F08DD7120000D00001965178
:10317000040D9F0EF324F66EFD0EF420F76EF86A30
:10318000000EF8220900F5CF8EF00900F5CF8FF080
:103190000900F5CF90F00A00F5CF91F01200000180
:1031A0009651800A120FD8A0BCD0000E0001796F92
:1031B0000A0E786F000E0001736F640E726F0001CB
:1031C00096510001706F716B70BF71071CECAAF013
:1031D00070C076F071C077F08FECA8F00001D89045
:1031E000763777370001D89076377737240E00018D
:1031F0007627000E00017723D30E00017625F66EA8
:10320000FD0E00017721F76EF86A000EF822090022
:10321000F5CF83F00900F5CF84F00900F5CF85F0F4
:103220000A00F5CF86F0000E0001796F640E786F0A
:10323000000196510001766F776B76BF77078FECB0
:10324000A8F00001D890763777370001D89076370C
:103250007737480E00017627000E00017723D30E42
:1032600000017625F66EFD0E00017721F76EF86AF3
:10327000000EF8220900F5CF7FF00900F5CF80F0AD
:103280000900F5CF81F00A00F5CF82F0C2ECA5F07D
:103290007FC092F080C093F081C094F082C095F01E
:1032A00092C07FF093C080F094C081F095C082F00E
:1032B000000E0001736F0A0E726F0001965100013B
:1032C000706F716B70BF71071CECAAF00001D89091
:1032D000703771370001D89070377137D30E000105
:1032E0007025F66EFD0E00017121F76EF86A000E72
:1032F000F8220900F5CF83F00900F5CF84F009002A
:10330000F5CF85F00A00F5CF86F0C2ECA5F07FC0BE
:103310008EF080C08FF081C090F082C091F01200DA
:103320006BD000019651800A750FD8A065D0000EB1
:103330000001796F0A0E786F000196510001766FD7
:10334000776B76BF77078FECA8F00001D8907637BF
:1033500077370001D89076377737240E000176272B
:10336000000E00017723D30E00017625F66EFD0EC8
:1033700000017721F76EF86A000EF8220900F5CFF8
:103380007FF00900F5CF80F00900F5CF81F00A0049
:10339000F5CF82F0000E0001736F0A0E726F00010C
:1033A00096510001706F716B70BF71071CECAAF031
:1033B0000001D890703771370001D890703771379D
:1033C000D30E00017025F66EFD0E00017121F76E1F
:1033D000F86A000EF8220900F5CF83F00900F5CF56
:1033E00084F00900F5CF85F00A00F5CF86F0C2EC35
:1033F000A5F08DD7120000D000019651040DD30E18
:10340000F324F66EFD0EF420F76EF86A000EF82233
:103410000900F5CF8EF00900F5CF8FF00900F5CF48
:1034200090F00A00F5CF91F0120012000001796FC0
:1034300000017905D8A457D000017429D8A453D02D
:1034400070C075F071C076F072C077F073C078F01C
:10345000040E06D00001D890783377337633753375
:10346000E82EF8D775C07AF076C07BF077C07CF094
:1034700078C07DF000017A5100017A6F7B6B7C6B24
:103480007D6B7AC018FF070E0001701500017A6F7E
:10349000000E0001711500017B6F000E0001721516
:1034A00000017C6F000E0001731500017D6F7AC072
:1034B00075F07BC076F07CC077F07DC078F0050EAB
:1034C000D89000017537763777377837E82EF8D7F8
:1034D00075C07AF076C07BF077C07CF078C07DF064
:1034E0007AC019FF00D0020E00017919D8A457D074
:1034F00000017429D8A453D070C075F071C076F063
:1035000072C077F073C078F0040E06D00001D89036
:103510007833773376337533E82EF8D775C07AF081
:1035200076C07BF077C07CF078C07DF000017A51E6
:1035300000017A6F7B6B7C6B7D6B7AC01CFF070E82
:103540000001701500017A6F000E00017115000175
:103550007B6F000E0001721500017C6F000E0001F0
:10356000731500017D6F7AC075F07BC076F07CC06A
:1035700077F07DC078F0050ED8900001753776376A
:1035800077377837E82EF8D775C07AF076C07BF0B9
:1035900077C07CF078C07DF07AC01DFF00D00001BC
:1035A0007905D8A489D0F70E00017419D8A484D065
:1035B0000001705100017A6F7B6B7C6B7D6B7AC070
:1035C0001BFF000E0001701500017A6FFF0E000155
:1035D000711500017B6F000E0001721500017C6FF8
:1035E000000E0001731500017D6F7AC075F07BC07D
:1035F00076F07CC077F07DC078F076C075F077C04B
:1036000076F078C077F00001786B75C07AF076C0FC
:103610007BF077C07CF078C07DF07AC01AFF0001A3
:1036200072A103D00F01198102D00F01199100017D
:1036300072A303D00F01198302D00F011993000167
:1036400072A503D00F01198B02D00F01199B000145
:1036500072A703D00F01198D02D00F01199D00012F
:1036600072A903D00F01198F03D00F01199F00D049
:1036700070C075F071C076F072C077F073C078F0EA
:10368000160E06D00001D890783377337633753331
:10369000E82EF8D775C07AF076C07BF077C07CF062
:1036A00078C07DF000017A5100017A6F7B6B7C6BF2
:1036B0007D6B7AC018FF00D0020E00017919D8A4E2
:1036C0001200F70E00017419D8A412000001705105
:1036D00000017A6F7B6B7C6B7D6B7AC01FFF000EE5
:1036E0000001701500017A6FFF0E000171150001D5
:1036F0007B6F000E0001721500017C6F000E00014F
:10370000731500017D6F7AC075F07BC076F07CC0C8
:1037100077F07DC078F076C075F077C076F078C02D
:1037200077F00001786B75C07AF076C07BF077C0D7
:103730007CF078C07DF07AC01EFF000172A103D03A
:103740000F011D8102D00F011D91000172A303D052
:103750000F011D8302D00F011D93000172A503D03C
:103760000F011D8B02D00F011D9B000172A703D01A
:103770000F011D8D02D00F011D9D000172A903D004
:103780000F011D8F03D00F011D9F00D070C075F079
:1037900071C076F072C077F073C078F0160E06D064
:1037A0000001D8907833773376337533E82EF8D725
:1037B00075C07AF076C07BF077C07CF078C07DF081
:1037C00000017A5100017A6F7B6B7C6B7D6B7AC054
:1037D0001CFF1200120000019A6F6D0E00019A6525
:1037E000CED0000E0001796F0A0E786F000E000136
:1037F000736F640E726F9AC070F00001716B1CECF5
:10380000AAF070C076F071C077F08FECA8F00001DC
:10381000D890763777370001D89076377737240EEF
:1038200000017627000E000177239F0E0001762508
:10383000F66EFD0E00017721F76EF86A000EF82291
:103840000900F5CF83F00900F5CF84F00900F5CF2A
:1038500085F00A00F5CF86F0000E0001796F640E46
:10386000786F9AC076F00001776B8FECA8F00001BA
:10387000D890763777370001D89076377737480E6B
:1038800000017627000E000177239F0E00017625A8
:10389000F66EFD0E00017721F76EF86A000EF82231
:1038A0000900F5CF7FF00900F5CF80F00900F5CFD2
:1038B00081F00A00F5CF82F0C2ECA5F07FC096F04F
:1038C00080C097F081C098F082C099F0000E00018E
:1038D000736F0A0E726F9AC070F00001716B1CEC6E
:1038E000AAF00001D890703771370001D890703776
:1038F00071379F0E00017025F66EFD0E00017121DB
:10390000F76EF86A000EF8220900F5CF83F009007F
:10391000F5CF84F00900F5CF85F00A00F5CF86F0E9
:1039200096C07FF097C080F098C081F099C082F077
:10393000C2ECA5F07FC092F080C093F081C094F0FB
:1039400082C095F092C07FF093C080F094C081F067
:1039500095C082F0000E0001836F000E846F000E90
:10396000856F3F0E866FC2ECA5F07FC08EF080C0E1
:103970008FF081C090F082C091F012007ED00A0ECC
:1039800000019A657AD0000E0001736F0A0E726F03
:103990009AC070F00001716B1CECAAF00001D89085
:1039A000703771370001D890703771379F0E000162
:1039B0007025F66EFD0E00017121F76EF86A000E9B
:1039C000F8220900F5CF83F00900F5CF84F0090053
:1039D000F5CF85F00A00F5CF86F0000E0001796F73
:1039E0000A0E786F9AC076F00001776B8FECA8F022
:1039F0000001D890763777370001D890763777373F
:103A0000240E00017627000E000177239F0E00018F
:103A10007625F66EFD0E00017721F76EF86A000E2E
:103A2000F8220900F5CF7FF00900F5CF80F00900FA
:103A3000F5CF81F00A00F5CF82F0C2ECA5F07FC08F
:103A400096F080C097F081C098F082C099F096C03F
:103A50007FF097C080F098C081F099C082F0000E8E
:103A60000001836F000E846F000E856F3F0E866F1E
:103A7000C2ECA5F07AD7120000D000019A51040DD3
:103A80009F0EF324F66EFD0EF420F76EF86A000E1A
:103A9000F8220900F5CF7FF00900F5CF80F009008A
:103AA000F5CF81F00A00F5CF82F0000E0001836FA0
:103AB000000E846F000E856F3F0E866FC2ECA5F07E
:103AC0007FC08EF080C08FF081C090F082C091F0F6
:103AD00012001200EACF65F0E1CF66F0E2CF67F0A6
:103AE000D9CF68F0DACF69F0F3CF6AF0F4CF6BF09A
:103AF000F6CF6CF0F7CF6DF0F8CF6EF0F5CF6FF03A
:103B0000A4B202D0A4A00CD180ECAFF00009D8B4CC
:103B100004D1110E396E000E3A6EEBEC94F01FB02A
:103B200002D04A9E01D04A8E11C001F012C002F0AC
:103B300013C003F014C004F04B86080E01180210E5
:103B400003100410D8A41BD0000E496E070E496460
:103B500001D015D04950010D150EF324D96E000E79
:103B6000F420DA6E4950010D000EF324E16E010ECF
:103B7000F420E26EDFCFE7FF492AE8D700D00D0E30
:103B80000118021003100410D8A449D01504D8A4B9
:103B900008D04B8E4C904A984B8A000E0001E86F7B
:103BA00000D0020E1518D8A407D04B8E4C804A8442
:103BB000020E0001E86F00D0030E1518D8A415D02E
:103BC000060E0001E86F4A96C80E05240001DB6F5F
:103BD000000E06200001DC6F000E07200001DD6FE3
:103BE000000E08200001DE6F00D0040E1518D8A4C6
:103BF00016D0060E0001E86F4B884A96C80E0524C1
:103C00000001DB6F000E06200001DC6F000E0720B4
:103C10000001DD6F000E08200001DE6F00D0100EE5
:103C20000118021003100410D8A408D016B002D056
:103C30004C9201D04C8215C0EAF000D0110E011850
:103C4000021003100410D8A426D015C060F0060E90
:103C50000001616F0001D89060330001612FFAD735
:103C6000000160310001D8B002D04A9A01D04A8ADE
:103C700015C060F00001D89060330001D890603327
:103C80000001D8906033000160310001D8B002D04B
:103C90004A9201D04A82AA0E0118021003100410A1
:103CA000D8A40BD016C00DF00E6A0D500001606F45
:103CB00015500D6E60C00EF000D0040E01180210F9
:103CC00003100410D8B44AAE28D005C00DF106C0C8
:103CD0000EF107C00FF108C010F1030E01011D6FB6
:103CE0000D0EE82EFED700F000D056ECAFF0E8063F
:103CF000D8A4FBD7040E396E000E3A6E000E3B6E50
:103D0000000E3C6E1D0E3D6E010E3E6E080E3F6EA7
:103D1000BC0E406E99EC91F000D0A492A49000D01B
:103D20006FC0F5FF6EC0F8FF6DC0F7FF6CC0F6FF07
:103D30006BC0F4FF6AC0F3FF69C0DAFF68C0D9FF47
:103D400067C0E2FF66C0E1FF65C0EAFF64C0E9FF4B
:103D500063C0FBFF62C0FAFF110000019D359E3574
:103D60000001A66F0001A135A2350001A56F000179
:103D7000A6510001D8B411D00001A5510001A65DE3
:103D8000D8B014D00001A65100080001A5250001FB
:103D9000A36F200E0001A36509D09FC09BF0A0C0B7
:103DA0009CF0A1C09DF0A2C09EF012000001A551A0
:103DB0000001D8B411D00001A6510001A55DD8B012
:103DC00014D00001A55100080001A6250001A36F31
:103DD000200E0001A36509D09BC09BF09CC09CF005
:103DE0009DC09DF09EC09EF01200060E0001A46FC3
:103DF00000019EAF03D00001A48F00D00001A2AF4C
:103E000002D00001A48D00019D8FFF0E00019B17C1
:103E1000FF0E9C17FF0E9D17000E9E170001A18F2D
:103E2000FF0E00019F17FF0EA017FF0EA117000E37
:103E3000A2170001A5510001A65DD8B02AD000014B
:103E4000D8909F37A037A137A2370001A5070001FE
:103E5000A6510001A519D8B414D00001A407A4C02C
:103E6000A3F0070E0001A317D8B40BD0E8D709D0F0
:103E70000001D8909E339D339C339B330001A62BC9
:103E800000D00001A5510001A619D8B432D0F0D756
:103E900030D00001A6510001A55DD8B02AD00001A4
:103EA000D8909B379C379D379E370001A6070001AD
:103EB000A6510001A519D8B414D00001A407A4C0CC
:103EC000A3F0070E0001A317D8B40BD0E8D709D090
:103ED0000001D890A233A133A0339F330001A52B5A
:103EE00000D00001A5510001A619D8B402D0F0D726
:103EF00000D00001A4AF11D0FF0E00019B1BFF0EEC
:103F00009C1BFF0E9D1BFF0E9E1B010E00019B279D
:103F1000000E9C239D239E2300D00001A4AD11D050
:103F2000FF0E00019F1BFF0EA01BFF0EA11BFF0E2B
:103F3000A21B010E00019F27000EA023A123A22394
:103F400000D0000E0001A46F00019B5100019F27CB
:103F500000019C510001A02300019D510001A123FB
:103F600000019E510001A2230001A2AF14D0FF0E58
:103F700000019F1BFF0EA01BFF0EA11BFF0EA21B2B
:103F8000010E00019F27000EA023A123A223010EF2
:103F90000001A46F00D09FC070F0A0C071F0A1C05C
:103FA00072F0A2C073F0A6C074F0A4C075F04BEC20
:103FB000A4F070C09BF071C09CF072C09DF073C003
:103FC0009EF01200120000D032ECAFF0E806D8A448
:103FD000FBD7080E0001706F000E716F000E726F3C
:103FE000000E736F250E0001746F010E0001756FD6
:103FF000080E0001766FFC0E0001776F1BEC8AF053
:10400000E1C07AF0E2C07BF0BCECAEF07AC07EF0AA
:104010007BC07FF07CC080F07DC081F0000E00018D
:10402000826F000E836F8B0E846F430E856F74EC6E
:10403000A6F07EC0C3F07FC0C4F080C0C5F081C0D0
:10404000C6F0110E0001B16F010E0001B26FFA0E41
:104050000001B36FFF0E0001B46FC3C0B5F0C4C060
:10406000B6F0C5C0B7F0C6C0B8F095EC85F0000E4C
:1040700001011C6F4BA43ED0100E0BECA5F0EEEC32
:10408000AEF0010E18ECA8F06A0E0001816FFF0E71
:104090000001826F87ECAEF0020E18ECA8F0C80E9B
:1040A0000001816FFF0E0001826F87ECAEF0030EFE
:1040B00018ECA8F0A90E0001816FFF0E0001826FBD
:1040C00087ECAEF0040E18ECA8F009D0BA0E00018F
:1040D000816FFF0E0001826F87ECAEF009D0E40E15
:1040E0000001816FFF0E0001826F87ECAEF000D0FF
:1040F0004B9400D0020E00017F6F0C0E66ECAFF007
:104100000001EB51D8B416D00001E705D8A409D0BE
:10411000F00E0001816FFF0E0001826F87ECAEF0A0
:1041200012D0F50E0001816FFF0E0001826F87EC47
:10413000AEF009D0EB0E0001816FFF0E0001826F1F
:1041400087ECAEF000D0030E00017F6F080E66EC26
:10415000AFF0110E0001816F010E0001826F1EECA5
:10416000AFF01CD0040E00017F6F0E0E66ECAFF0B6
:104170000001E951D8A409D0D40E0001816FFF0ECF
:104180000001826F87ECAEF01200DC0E0001816F3F
:10419000FF0E0001826F87ECAEF01200040E0001EA
:1041A0007F6F070E66ECAFF00DC088F00EC089F08F
:1041B000000E00018A6F010E00018B6FC9ECA1F0A7
:1041C000120012000001876F800E74ECAFF0000E39
:1041D000706E000E716E000E726E00018041E8423A
:1041E000C00B0001806F00018051701200018151ED
:1041F000701200018751711200017E39E842F80BFC
:1042000000017E6F00017E517112000182A5718C48
:10421000000182A102D0718E00D000017F51721284
:10422000000182A302D0728C00D000018251600B89
:10423000606E00018251100BFF0AD8B4608460CF19
:1042400050FF000E0001706F000E716F000E726F54
:10425000000E736FF70E0001746F010E16EC9AF0EA
:10426000000E0001706F000E716F000E726F000E75
:10427000736FF70E0001746F020E16EC9AF00FD0F8
:10428000F70E0001886F07D0000188690001896975
:1042900028D000018869F70E0001896F22D09F0E97
:1042A0000001836FFF0E0001846F00018251600BDB
:1042B0000001856F866B00018351000185130001A9
:1042C00084510001861300018651000AD8A4E1D769
:1042D00000018551BF0AD8B4D7D7600AD8B4D0D767
:1042E000D8D7000E0001706F000E716F000E726F54
:1042F000000E736F88C074F0000E00EC80F0000EAA
:104300000001706F000E716F000E726F000E736F00
:1043100088C074F0010E00EC80F0000E0001706F98
:10432000000E716F000E726F000E736F89C074F013
:10433000020E00EC80F0000E0001706F000E716F35
:10434000000E726F000E736F89C074F0030E00ECE4
:1043500080F0000E0001706F000E716F000E726F22
:10436000000E736F89C074F0040E00EC80F0000E34
:104370000001706F000E716F000E726F000E736F90
:1043800089C074F0050E00EC80F0000E74ECAFF004
:10439000120021EE07F010EE91F0050EDBCFE3FFE7
:1043A000E806FCE2910E0001806F000E0001816FB3
:1043B00088C082F089C083F0000E0001856F0A0E6C
:1043C000846F90ECADF000018A510001D8B4BDD0EB
:1043D00000018A51010D910EF324D96E000EF420D4
:1043E000DA6E000EDF6E74D000018A050001976F4F
:1043F000000197510001D8B46BD001D069D0FF0EF5
:1044000000018C6FFF0E00018D6F000197510001BC
:104410008E6F8F6B00018C5100018E2700018D5132
:1044200000018F23910E00018E25D96E000E000130
:104430008F21DA6E00019751010D910EF324E16E88
:10444000000EF420E26EDFCFE7FF00018B05D8A459
:104450001DD0FF0E00018C6FFF0E00018D6F00015B
:10446000975100018E6F8F6B00018C5100018E27D8
:1044700000018D5100018F23910E00018E25D96E10
:10448000000E00018F21DA6E200E1CD0FF0E0001FD
:104490008C6FFF0E00018D6F0001975100018E6F30
:1044A0008F6B00018C5100018E2700018D5100019E
:1044B0008F23910E00018E25D96E000E00018F21F1
:1044C000DA6E300EDF6E00D00001970791D700D072
:1044D000FF0E00018C6FFF0E00018D6F00018A51ED
:1044E00000018E6F8F6B00018C5100018E2700013F
:1044F0008D5100018F23910E00018E25D96E000E83
:1045000000018F21DA6E3A0EDF606ED7FF0E0001D8
:104510008C6FFF0E00018D6F00018A5100018E6FBC
:104520008F6B00018C5100018E2700018D5100011D
:104530008F23910E00018E25D96E000E00018F2170
:10454000DA6E2F0EDF6450D700D0910E0001816F1C
:10455000000E0001826F1EECAFF0120072C078F006
:104560000001796B7A6B000171350001783701E346
:104570007981000178510001806F00018051D8A439
:104580000AD0000E0001706F000E716F000E726F86
:10459000000E736F120076C078F00001796B7A6BB1
:1045A000000175350001783701E379810001785108
:1045B00000017F6F00017F51D8A40AD0000E0001D6
:1045C000706F000E716F000E726F000E736F12002D
:1045D0000001718FFF0E00017017FF0E00017117AF
:1045E000000E000172170001758FFF0E0001741795
:1045F000FF0E00017517000E00017617000E000176
:104600007B6F000E7C6F000E7D6F000E7E6F7F0E45
:104610000001805F00017F51980F0001805F180E3C
:1046200000017F6F0001D8907B377C377D377E3764
:10463000000174510001705D000175510001715954
:104640000001765100017259D8A00ED000017451BA
:104650000001705F000175510001715B000176512E
:104660000001725B00017B810001D89070377137C7
:10467000723700017F2FD6D700D0000180AF1BD04A
:1046800000018051800A970FD8B00BD0000E0001B6
:10469000706F000E716F000E726F000E736F12005C
:1046A00000D00001D8907E337D337C337B33000112
:1046B000803FF7D71DD0170E0001806514D0000E83
:1046C0000001706F000E716F000E726F000E736F3D
:1046D000120009D00001D8907B377C377D377E37B8
:1046E0000001800700D0000180510001D8A4F2D75A
:1046F0007BC070F07CC071F07DC072F07EC073F042
:10470000120000017235733500017D6F00017D518B
:10471000D8A40AD0000E0001706F000E716F000E59
:10472000726F000E736F120000017635773500014D
:104730007C6F00017C51D8A40AD0000E0001706F7C
:10474000000E716F000E726F000E736F1200000189
:10475000728FFF0E00017017FF0E7117FF0E721798
:10476000000E73170001768FFF0E00017417FF0E05
:104770007517FF0E7617000E7717000E0001786F81
:10478000000E796F000E7A6F000E7B6F7F0E0001B6
:104790007D5F00017C51A00F00017D5F200E0001B4
:1047A0007C6F00D00001D890783779377A377B3723
:1047B000000174510001705D0001755100017159D3
:1047C00000017651000172590001775100017359BF
:1047D000D8A013D0000174510001705F0001755121
:1047E0000001715B000176510001725B000177519D
:1047F0000001735B0001788100D00001D890703710
:1048000071377237733700017C2FCCD700D000018D
:104810007DAF1BD000017D51800A9F0FD8B00BD017
:10482000000E0001706F000E716F000E726F000EAF
:10483000736F120000D00001D8907B337A33793344
:10484000783300017D3FF7D71DD01F0E00017D6535
:1048500014D0000E0001706F000E716F000E726FA9
:10486000000E736F120009D00001D89078377937A5
:104870007A377B3700017D0700D000017D510001B0
:10488000D8A4F2D778C070F079C071F07AC072F015
:104890007BC073F01200000174510001D8B40AD03B
:1048A00000017051000171110001721100017311BA
:1048B000D8A414D0000E0001706F000E716F000EAE
:1048C000726F000E736F120009D00001742B00018B
:1048D000D890733372337133703300D0000E0001FF
:1048E00070150001766F000E000171150001776FE1
:1048F000000E000172150001786FFE0E00017315A5
:104900000001796F000176510001771100017811E3
:1049100000017911D8B411D0D8D70FD00001742B71
:10492000010E00017027000E712372237323000112
:10493000D8907333723371337033000E00017015E9
:104940000001766F000E000171150001776F000EF7
:10495000000172150001786FFF0E00017315000150
:10496000796F000176510001771100017811000183
:104970007911D8B40BD0D2D709D000017407000147
:10498000D890703771377237733700D0000172BF1B
:1049900005D0020E00017461F0D700D0000174B19F
:1049A00009D0FF0E00017017FF0E71177F0E7217EE
:1049B000FF0E73170001D890743374C076F00001B5
:1049C000776B786B796B76C079F00001786B776BD9
:1049D000766B0001765100017013000177510001E0
:1049E0007113000178510001721300017951000127
:1049F0007313000175510001D8B403D00001738F07
:104A000000D070C070F071C071F072C072F073C0ED
:104A100073F01200120000017E6F00017E51ADECB8
:104A2000AFF08D948B928B90000E0001776F640E27
:104A3000766F33ECAEF0000E0001786F010E0001CE
:104A4000796F010E00017A6F000E16ECAEF0000EC9
:104A50000001776F640E766F33ECAEF0000E00014C
:104A6000786F010E0001796F010E00017A6F000E60
:104A700016ECAEF0000E0001776F0A0E766F33EC85
:104A8000AEF0000E0001786F010E0001796F010E8B
:104A900000017A6F000E16ECAEF0000E0001786F88
:104AA000010E0001796F000E00017A6F000E16EC06
:104AB000AEF0000E0001786F010E0001796F000E5C
:104AC00000017A6F000E16ECAEF0000E0001786F58
:104AD000000E0001796F000E00017A6F010E16ECD6
:104AE000AEF0000E0001786F000E0001796F000E2D
:104AF00000017A6F000E16ECAEF0000E0001786F28
:104B0000000E0001796F000E00017A6F010E16ECA5
:104B1000AEF0000E0001786F000E0001796F000EFC
:104B200000017A6F000E16ECAEF0000E0001786FF7
:104B3000000E0001796F010E00017A6F000E16EC75
:104B4000AEF0000E0001786F000E0001796F000ECC
:104B500000017A6F000E16ECAEF0010E0001786FC6
:104B6000010E0001796F000E00017A6F000E16EC45
:104B7000AEF0EEECAEF0000E00017C6F000ED5EC56
:104B8000AEF012000001813582350001876F00010F
:104B90008751D8A40AD0000E00017F6F000E806FED
:104BA000000E816F000E826F120000018535863580
:104BB00000018D6F00018D51D8A40AD0000E0001B4
:104BC0007F6F000E806F000E816F000E826F1200EB
:104BD00000018D517B0F0001872782C08DF00001FD
:104BE000865100018D1B800E00018D170001818F01
:104BF0000001858FFF0E00018317FF0E8417FF0E43
:104C00008517000E8617000E0001886F000E896F51
:104C1000000E8A6F000E8B6F070E00018C6F00D0A4
:104C200000017FA111D000018351000188270001FC
:104C30008451000189230001855100018A2300016C
:104C4000865100018B2300D00001D890823381333C
:104C500080337F330001D890833784378537863798
:104C600000018C2FDDD700D0110E00018C6F00D019
:104C700000017FA111D000018351000188270001AC
:104C80008451000189230001855100018A2300011C
:104C9000865100018B2300D00001D89082338133EC
:104CA00080337F330001D8908B338A338933883344
:104CB00000018C2FDDD700D088C070F089C071F062
:104CC0008AC072F08BC073F087C074F08DC075F02D
:104CD0004BECA4F070C07FF071C080F072C081F026
:104CE00073C082F01200120000018035813500018E
:104CF0008B6F00018B51D8A40AD0000E00017E6F8B
:104D0000000E7F6F000E806F000E816F1200000199
:104D10008435853500018C6F00018C51D8A40AD0F0
:104D2000000E00017E6F000E7F6F000E806F000E80
:104D3000816F120000018C51890F00018B5F81C0CF
:104D40008CF00001855100018C1B800E00018C1736
:104D50000001808FFF0E00017E17FF0E7F17FF0EF0
:104D60008017000E81170001848FFF0E000182174B
:104D7000FF0E8317FF0E8417000E8517200E00010B
:104D80008A6F00D00001D8908637873788378937F7
:104D90000001825100017E5D0001835100017F59B5
:104DA00000018451000180590001855100018159A1
:104DB000D8A013D00001825100017E5F0001835111
:104DC00000017F5B000184510001805B000185517F
:104DD0000001815B0001868100D00001D8907E3700
:104DE0007F378037813700018A2FCCD700D086C02B
:104DF00070F087C071F088C072F089C073F08BC00A
:104E000074F08CC075F04BECA4F070C07EF071C0F3
:104E10007FF072C080F073C081F0120012000001B8
:104E2000A935AA350001B06F0001B051D8A40AD04D
:104E3000000E0001A76F000EA86F000EA96F000EF4
:104E4000AA6F1200A7C0ABF0A8C0ACF0A9C0ADF02B
:104E5000AAC0AEF0200E06D00001D890AE33AD331C
:104E6000AC33AB33E82EF8D70001AB510001AF6F84
:104E70000001A98FFF0E0001A717FF0EA817FF0E54
:104E8000A917000EAA17960E0001B05F0001B0AF7F
:104E90001BD00001B051800A970FD8B00BD0000E84
:104EA0000001A76F000EA86F000EA96F000EAA6F79
:104EB000120000D00001D890AA33A933A833A73339
:104EC0000001B03FF7D71FD01F0E0001B06514D00E
:104ED000000E0001A76F000EA86F000EA96F000E54
:104EE000AA6F120009D00001D890A737A837A937B8
:104EF000AA370001B00700D00001B0510001D8B4BA
:104F000002D0F1D700D00001AF510001D8B40AD0CF
:104F10000001AA1FA91FA81FA76D000EA823A9237F
:104F2000AA2300D0A7C0A7F0A8C0A8F0A9C0A9F0E4
:104F3000AAC0AAF012001200000173AF27D070C0FF
:104F400078F071C079F072C07AF073C07BF0000124
:104F5000781F791F7A1F7B1F782B000E79237A2305
:104F60007B23000E000178250001706F000E000108
:104F700079210001716F000E00017A210001726F2A
:104F8000800E00017B210001736F00D0000177AF1C
:104F900026D074C078F075C079F076C07AF077C00A
:104FA0007BF00001781F791F7A1F7B1F782B000E82
:104FB00079237A237B23000E000178250001746F8A
:104FC000000E000179210001756F000E00017A21A9
:104FD0000001766F800E00017B210001776F000ECB
:104FE0000001701B000E711B000E721B800E731BE4
:104FF000000E0001741B000E751B000E761B800E48
:10500000771B000174510001705D000175510001B2
:105010007159000176510001725900017751000168
:105020007359D8B002D0D8901200D8801200120064
:1050300000017C6F64D0000E0001786F000E00014B
:10504000796F000E00017A6F010E16ECAEF0000EC3
:105050000001786F000E0001796F000E00017A6F79
:10506000000E16ECAEF01200010E0001786F000E7B
:105070000001796F000E00017A6F010E16ECAEF0A0
:10508000000E0001786F000E0001796F000E000124
:105090007A6F000E16ECAEF01200000E0001786F71
:1050A000000E0001796F010E00017A6F010E16ECFF
:1050B000AEF0010E0001786F000E0001796F000E56
:1050C00000017A6F000E16ECAEF01200010E000126
:1050D000786F000E0001796F010E00017A6F010EEA
:1050E00016ECAEF0010E0001786F000E0001796F32
:1050F000000E00017A6F000E16ECAEF012000001F7
:105100007C51010AD8B497D7030AD8B4ADD7010AA5
:10511000D8B4C3D7070AD8A41200D8D71200000EFB
:1051200000017B6F000179AF09D00001786D791F14
:10513000D8B0792B010E00017B6F00D0000177AF52
:1051400009D00001766D771FD8B0772B010E0001D2
:105150007B1B00D0000E00017D6F000E7C6F0001F4
:10516000785100017911D8B431D0010E00017A6F65
:1051700007D00001D8907837793700017A2B00D01A
:10518000000179BF02D0F5D700D00001D8907C375C
:105190007D37000178510001765D000179510001F1
:1051A0007759D8A00BD0000178510001765F00013B
:1051B00079510001775B00017C8100D00001D8901B
:1051C0007933783300017A2FE0D700D000017B518A
:1051D0000001D8B406D000017C6D7D1FD8B07D2BB6
:1051E00000D07CC076F07DC077F012001200000E77
:1051F0000001786F000E796F000E7A6F000E7B6FE2
:105200000001745100017511000176110001771140
:10521000D8B447D0010E00017C6F09D00001D890AE
:10522000743775377637773700017C2B00D0000153
:1052300077BF02D0F3D700D00001D8907837793704
:105240007A377B37000174510001705D00017551A0
:105250000001715900017651000172590001775126
:1052600000017359D8A013D0000174510001705F80
:10527000000175510001715B000176510001725B04
:10528000000177510001735B0001788100D00001BB
:10529000D890773376337533743300017C2FCCD7B5
:1052A00000D078C070F079C071F07AC072F07BC025
:1052B00073F0120079C07DF07AC07EF000D07DC01E
:1052C00070F07EC071F07BC072F07CC073F065EC52
:1052D000ABF070C07DF071C07EF00001774B782B91
:1052E00000017D5100017E11D8A4E9D777C0D9FF14
:1052F00078C0DAFF000EDF6E00017707D8A07807CC
:1053000000D079C070F07AC071F07BC072F07CC0C0
:1053100073F0E3ECABF00001705100017F6F79C0D6
:1053200070F07AC071F07BC072F07CC073F065ECF5
:10533000ABF070C079F071C07AF0090E00017F65A2
:1053400003D0070E00017F27300E00017F2777C0B2
:10535000D9FF78C0DAFF7FC0DFFF00017707D8A050
:1053600078070001795100017A11D8A4CAD7000149
:10537000774B782B1200120000D032ECAFF0E80629
:10538000D8A4FBD7070E0001706F000E716F000EDE
:10539000726F000E736F2D0E0001746F010E00010D
:1053A000756F080E0001766FBC0E0001776F1BEC65
:1053B0008AF0E5C025F10001E6510101266FE7C042
:1053C00027F100D032ECAFF0E806D8A4FBD7050EE9
:1053D0000001706F000E716F000E726F000E736F20
:1053E000250E0001746F010E0001756F080E00019B
:1053F000766FBC0E0001776F1BEC8AF000D032ECA8
:10540000AFF0E806D8A4FBD7060E0001706F000EBF
:10541000716F000E726F000E736F200E0001746FBB
:10542000000E0001756F080E0001766FBC0E0001C2
:10543000776F1BEC8AF01200000E0001756F0001FF
:1054400071AF09D00001706D711FD8B0712B010EC2
:105450000001756F00D0000173AF06D00001726DBE
:10546000731FD8B0732B00D000017251000173116B
:10547000D8B42BD0010E0001746F07D00001D89072
:10548000723773370001742B00D0000173BF02D054
:10549000F5D700D0000172510001705D0001735119
:1054A00000017159D8A009D0000172510001705F4C
:1054B000000173510001715B00D00001D89073337B
:1054C00072330001742FE6D700D00001755100013E
:1054D000D8B406D00001706D711FD8B0712B00D008
:1054E00070C070F071C071F012001200000E896E71
:1054F0001F0E926E000E8A6EFB0E936E000E8B6E68
:10550000F00E946E000E8C6E000E956E000E8D6E79
:10551000000E966E060E00017E6F050E00017F6F75
:10552000010E0001806F030E0001816F9D0E0001CE
:10553000826F040EE2ECA0F0A192A492A490D08E0F
:10554000A582A580A2920D0EC16EC298C296C29489
:10555000C08AC088C096C084C092C080C09EC280ED
:10556000100E0BECA5F0EEECAEF0010E18ECA8F06E
:1055700083948396630EB36EC00EB26EA382A38033
:10558000A082010EB16EEEECAEF0F28EF28C120043
:1055900000017451000175110001761100017711AD
:1055A000D8B43FD0010E0001786F09D00001D89027
:1055B00074377537763777370001782B00D00001C4
:1055C00077BF02D0F3D700D0000174510001705DA5
:1055D00000017551000171590001765100017259A5
:1055E0000001775100017359D8A011D00001745106
:1055F0000001705F000175510001715B000176517F
:105600000001725B000177510001735B00D0000163
:10561000D89077337633753374330001782FD4D72D
:1056200000D070C070F071C071F072C072F073C0C1
:1056300073F012000001806F8D8400018045010B22
:1056400000017C6F00018045E846030B010B00015F
:105650007D6F00018039E842070B010B00017E6F6E
:10566000000180390F0B010B00017F6F7DC078F0C6
:105670007EC079F07FC07AF000017C5116ECAEF06C
:1056800000018039E8461F0B010B00017C6F00010F
:105690008041E8423F0B010B00017D6F0001D89073
:1056A0008031010B00017E6F00018051010B000170
:1056B0007F6F7DC078F07EC079F07FC07AF0000106
:1056C0007C5116ECAEF08D941200000E0001756F47
:1056D000000E746F0001725100017311D8B431D003
:1056E000010E0001766F07D00001D8907237733732
:1056F0000001762B00D0000173BF02D0F5D700D097
:105700000001D89074377537000172510001705D47
:105710000001735100017159D8A00BD000017251E2
:105720000001705F000173510001715B0001748121
:1057300000D00001D890733372330001762FE0D788
:1057400000D074C070F075C071F01200080E01181E
:10575000021003100410D8B44ABE2AD001C109F0C7
:105760000A6A09500001706F01010051096E70C092
:105770000AF003C10BF00C6A0B500001706F0101BD
:1057800002510B6E70C00CF009500B240001706FB9
:105790000A500C200001716FD89000017131000196
:1057A000726F000170310001E16F72C0E2F000D051
