:0400000060EF00F0BD
:0E0008004E82FACF60F0FBCF61F0DCEFA8F083
:100018004E80D8CF2BF0E8CF2CF0E0CF2DF0FACFE0
:100028002EF0FBCF2FF0E9CF30F0EACF31F0E1CF5F
:1000380032F0E2CF33F0D9CF34F0DACF35F0F3CF66
:1000480036F0F4CF37F0F6CF38F0F7CF39F0F8CFF5
:100058003AF0F5CF3BF0A1A20BD0010E2026000EFE
:10006800212222222322630EB36EC00EB26EA19209
:100078003BC0F5FF3AC0F8FF39C0F7FF38C0F6FFBC
:1000880037C0F4FF36C0F3FF35C0DAFF34C0D9FFFC
:1000980033C0E2FF32C0E1FF31C0EAFF30C0E9FF00
:1000A8002FC0FBFF2EC0FAFF2DC0E0FF2CC0E8FFD9
:0C00B8002BC0D8FF4E901000B3EFADF04D
:10FECE00000000803FCDCCCC3D0AD7233C6F12837F
:10FEDE003A17B7D138ACC52737BD37863595BFD65B
:10FEEE003377CC2B325F708930FFE6DB2E08E53C92
:10FEFE001E6042A20D0000803F000020410000C89D
:10FF0E004200007A4400401C460050C3470024744F
:10FF1E00498096184B20BCBE4C286B6E4EF90215CC
:10FF2E0050EC78AD60CAF24971010000000A000081
:10FF3E000064000000E803000010270000A0860106
:10FF4E000040420F008096980000E1F50500CA9A25
:10FF5E003B5475726E20746865207377697463689C
:10FF6E00204F4E2120003D3D3E2056454849434CF2
:10FF7E004520204F4646203C3D3D003D3D3D205610
:10FF8E00454849434C452044415441203D3D3D00A8
:10FF9E003D3D3D3D3D3D3D3D3D3D3D3D3D3D3D3D83
:10FFAE003D3D3D3D0053706565643A20782E78786E
:10FFBE00204B6D2F6800446972656374696F6E3AE9
:10FFCE002000576169742E2E2E0020202020200044
:10FFDE00205352434800205041524B0050202020C5
:10FFEE00004657442000424B574400252E336600EE
:02FFFE00000001
:020000040001F9
:100000000001786F000178510001D8A458D0000198
:100010007329D8A454D00F0101976FC074F070C039
:1000200075F071C076F072C077F0040E06D0000152
:10003000D8907733763375337433E82EF8D774C09D
:1000400079F075C07AF076C07BF077C07CF0000163
:1000500079510001796F7A6B7B6B7C6B79C000FF03
:10006000070E00016F150001796F000E0001701579
:1000700000017A6F000E0001711500017B6F000E08
:100080000001721500017C6F79C074F07AC075F0C0
:100090007BC076F07CC077F0050ED89000017437F5
:1000A000753776377737E82EF8D774C079F075C092
:1000B0007AF076C07BF077C07CF079C001FF000158
:1000C0007805D8A458D000017329D8A454D00F01C2
:1000D00005976FC074F070C075F071C076F072C093
:1000E00077F0040E06D00001D8907733763375335D
:1000F0007433E82EF8D774C079F075C07AF076C002
:100100007BF077C07CF0000179510001796F7A6B48
:100110007B6B7C6B79C004FF070E00016F1500013B
:10012000796F000E0001701500017A6F000E00015A
:10013000711500017B6F000E0001721500017C6FCC
:1001400079C074F07AC075F07BC076F07CC077F02F
:10015000050ED89000017437753776377737E82E5B
:10016000F8D774C079F075C07AF076C07BF077C0AC
:100170007CF079C005FF020E00017819D8A458D090
:1001800000017329D8A454D00F0109976FC074F0EF
:1001900070C075F071C076F072C077F0040E06D0B2
:1001A0000001D8907733763375337433E82EF8D75F
:1001B00074C079F075C07AF076C07BF077C07CF0BF
:1001C000000179510001796F7A6B7B6B7C6B79C090
:1001D00008FF070E00016F150001796F000E000186
:1001E000701500017A6F000E0001711500017B6F20
:1001F000000E0001721500017C6F79C074F07AC0A6
:1002000075F07BC076F07CC077F0050ED8900001C9
:100210007437753776377737E82EF8D774C079F0AA
:1002200075C07AF076C07BF077C07CF079C009FFAA
:10023000030E00017819D8A458D000017329D8A45E
:1002400054D00F010D976FC074F070C075F071C07D
:1002500076F072C077F0040E06D00001D8907733A4
:10026000763375337433E82EF8D774C079F075C0DF
:100270007AF076C07BF077C07CF000017951000104
:10028000796F7A6B7B6B7C6B79C00CFF070E00017A
:100290006F150001796F000E0001701500017A6F73
:1002A000000E0001711500017B6F000E0001721538
:1002B00000017C6F79C074F07AC075F07BC076F075
:1002C0007CC077F0050ED89000017437753776370B
:1002D0007737E82EF8D774C079F075C07AF076C019
:1002E0007BF077C07CF079C00DFF040E0001781917
:1002F000D8A458D000017329D8A454D00F01119765
:100300006FC074F070C075F071C076F072C077F095
:10031000040E06D00001D8907733763375337433EA
:10032000E82EF8D774C079F075C07AF076C07BF00B
:1003300077C07CF0000179510001796F7A6B7B6B9B
:100340007C6B79C010FF070E00016F150001796FFB
:10035000000E0001701500017A6F000E000171158A
:1003600000017B6F000E0001721500017C6F79C0E7
:1003700074F07AC075F07BC076F07CC077F0050E23
:10038000D89000017437753776377737E82EF8D76D
:1003900074C079F075C07AF076C07BF077C07CF0DD
:1003A00079C011FF050E00017819D8A458D00001BA
:1003B0007329D8A454D00F0115976FC074F070C082
:1003C00075F071C076F072C077F0040E06D00001AF
:1003D000D8907733763375337433E82EF8D774C0FA
:1003E00079F075C07AF076C07BF077C07CF00001C0
:1003F00079510001796F7A6B7B6B7C6B79C014FF4C
:10040000070E00016F150001796F000E00017015D5
:1004100000017A6F000E0001711500017B6F000E64
:100420000001721500017C6F79C074F07AC075F01C
:100430007BC076F07CC077F0050ED8900001743751
:10044000753776377737E82EF8D774C079F075C0EE
:100450007AF076C07BF077C07CF079C015FF0001A0
:1004600078510001D8A489D0F70E00017319D8A4DF
:1004700084D00F01018700016F510001796F7A6B01
:100480007B6B7C6B79C003FF000E00016F150001D0
:10049000796FFF0E0001701500017A6F000E0001E8
:1004A000711500017B6F000E0001721500017C6F59
:1004B00079C074F07AC075F07BC076F07CC077F0BC
:1004C00075C074F076C075F077C076F00001776B78
:1004D00074C079F075C07AF076C07BF077C07CF09C
:1004E00079C002FF000171A103D00F01018102D088
:1004F0000F010191000171A303D00F01018302D00C
:100500000F010193000171A503D00F01018B02D0EF
:100510000F01019B000171A703D00F01018D02D0D3
:100520000F01019D000171A903D00F01018F02D0BD
:100530000F01019F6FC074F070C075F071C076F04C
:1005400072C077F0160E06D00001D890773376335C
:1005500075337433E82EF8D774C079F075C07AF02B
:1005600076C07BF077C07CF0000179510001796F93
:100570007A6B7B6B7C6B79C000FF00017805D8A497
:1005800089D0F70E00017319D8A484D00F01058714
:1005900000016F510001796F7A6B7B6B7C6B79C0C6
:1005A00007FF000E00016F150001796FFF0E0001BB
:1005B000701500017A6F000E0001711500017B6F4C
:1005C000000E0001721500017C6F79C074F07AC0D2
:1005D00075F07BC076F07CC077F075C074F076C0A3
:1005E00075F077C076F00001776B74C079F075C054
:1005F0007AF076C07BF077C07CF079C006FF00010E
:1006000071A103D00F01058102D00F0105910001F6
:1006100071A303D00F01058302D00F0105930001E0
:1006200071A503D00F01058B02D00F01059B0001BE
:1006300071A703D00F01058D02D00F01059D0001A8
:1006400071A903D00F01058F02D00F01059F6FC064
:1006500074F070C075F071C076F072C077F0160E4D
:1006600006D00001D8907733763375337433E82E93
:10067000F8D774C079F075C07AF076C07BF077C097
:100680007CF0000179510001796F7A6B7B6B7C6B98
:1006900079C004FF020E00017819D8A489D0F70EA2
:1006A00000017319D8A484D00F01098700016F518C
:1006B0000001796F7A6B7B6B7C6B79C00BFF000E4E
:1006C00000016F150001796FFF0E00017015000128
:1006D0007A6F000E0001711500017B6F000E0001A2
:1006E000721500017C6F79C074F07AC075F07BC020
:1006F00076F07CC077F075C074F076C075F077C086
:1007000076F00001776B74C079F075C07AF076C02E
:100710007BF077C07CF079C00AFF000171A103D0A3
:100720000F01098102D00F010991000171A303D0CB
:100730000F01098302D00F010993000171A503D0B5
:100740000F01098B02D00F01099B000171A703D093
:100750000F01098D02D00F01099D000171A903D07D
:100760000F01098F02D00F01099F6FC074F070C094
:1007700075F071C076F072C077F0160E06D00001E9
:10078000D8907733763375337433E82EF8D774C046
:1007900079F075C07AF076C07BF077C07CF000010C
:1007A00079510001796F7A6B7B6B7C6B79C008FFA4
:1007B000030E00017819D8A489D0F70E000173192F
:1007C000D8A484D00F010D8700016F510001796F0B
:1007D0007A6B7B6B7C6B79C00FFF000E00016F158D
:1007E0000001796FFF0E0001701500017A6F000E95
:1007F0000001711500017B6F000E000172150001F0
:100800007C6F79C074F07AC075F07BC076F07CC0E4
:1008100077F075C074F076C075F077C076F000019F
:10082000776B74C079F075C07AF076C07BF077C0D2
:100830007CF079C00EFF000171A103D00F010D8182
:1008400002D00F010D91000171A303D00F010D83A0
:1008500002D00F010D93000171A503D00F010D8B84
:1008600002D00F010D9B000171A703D00F010D8D68
:1008700002D00F010D9D000171A903D00F010D8F52
:1008800002D00F010D9F6FC074F070C075F071C081
:1008900076F072C077F0160E06D00001D89077334C
:1008A000763375337433E82EF8D774C079F075C099
:1008B0007AF076C07BF077C07CF0000179510001BE
:1008C000796F7A6B7B6B7C6B79C00CFF040E000137
:1008D0007819D8A489D0F70E00017319D8A484D050
:1008E0000F01118700016F510001796F7A6B7B6BEB
:1008F0007C6B79C013FF000E00016F150001796F4A
:10090000FF0E0001701500017A6F000E00017115D5
:1009100000017B6F000E0001721500017C6F79C031
:1009200074F07AC075F07BC076F07CC077F075C04B
:1009300074F076C075F077C076F00001776B74C004
:1009400079F075C07AF076C07BF077C07CF079C022
:1009500012FF000171A103D00F01118102D00F011C
:100960001191000171A303D00F01118302D00F0177
:100970001193000171A503D00F01118B02D00F015B
:10098000119B000171A703D00F01118D02D00F013F
:10099000119D000171A903D00F01118F02D00F0129
:1009A000119F6FC074F070C075F071C076F072C0A6
:1009B00077F0160E06D00001D89077337633753372
:1009C0007433E82EF8D774C079F075C07AF076C029
:1009D0007BF077C07CF0000179510001796F7A6B70
:1009E0007B6B7C6B79C010FF050E00017819D8A4D1
:1009F0001200F70E00017319D8A412000F01158719
:100A000000016F510001796F7A6B7B6B7C6B79C051
:100A100017FF000E00016F150001796FFF0E000136
:100A2000701500017A6F000E0001711500017B6FD7
:100A3000000E0001721500017C6F79C074F07AC05D
:100A400075F07BC076F07CC077F075C074F076C02E
:100A500075F077C076F00001776B74C079F075C0DF
:100A60007AF076C07BF077C07CF079C016FF000189
:100A700071A103D00F01158102D00F011591000162
:100A800071A303D00F01158302D00F01159300014C
:100A900071A503D00F01158B02D00F01159B00012A
:100AA00071A703D00F01158D02D00F01159D000114
:100AB00071A903D00F01158F02D00F01159F6FC0D0
:100AC00074F070C075F071C076F072C077F0160ED9
:100AD00006D00001D8907733763375337433E82E1F
:100AE000F8D774C079F075C07AF076C07BF077C023
:100AF0007CF0000179510001796F7A6B7B6B7C6B24
:100B000079C014FF1200C50E01012D6F000E010106
:100B10002E6FB5EF89F0250E01014119D8B408D028
:100B2000C1C0D9FFC2C0DAFF41C1DFFFB2EF89F017
:100B3000000E0101306F000E2F6FC3C0F6FFC4C05E
:100B4000F7FF000EF86E0800F5502E0AD8A43DD02D
:100B50000101308D0001C34BC42B000E01013C6F1D
:100B6000000E3B6F25D03BC16FF03CC170F0000E12
:100B70000001726F0A0E716F2BECAEF0C3C0F6FF6E
:100B8000C4C0F7FF000EF86E0800F55000016F2793
:100B9000000E00017023D00E00016F2501013B6F94
:100BA000FF0E0001702101013C6F0001C34BC42BFB
:100BB000C3C0F6FFC4C0F7FF000EF86E0800F55082
:100BC00092ECAEF0D8A00CD0CED7000E01013C6F55
:100BD000000E3B6F0101308903D00101308515D033
:100BE000C3C0F6FFC4C0F7FF0001C34BC42B000E07
:100BF000F86E0800F5CF41F101014151000AD8B467
:100C0000C5D3660AD8B4E9D7B0D3070E01013015B1
:100C1000D8B453D3010130A905D0000E01013C6FB7
:100C2000060E3B6F2DC1D9FF2EC1DAFFDECF3DF19D
:100C3000DECF3EF1DECF3FF1DECF40F1040E010109
:100C40002D27000E2E23010140AF15D03DC196F097
:100C50003EC197F03FC198F040C199F00FECAEF063
:100C600096C03DF197C03EF198C03FF199C040F168
:100C7000030E01012F13000E0101366F000E356FB8
:100C800001013D5101013E1101013F1101014011DE
:100C9000D8B48ED001013F354035820F0101356F48
:100CA0000101366BFF0E362301013507D8A0360748
:100CB00035C16FF036C170F0000E0001726F030E87
:100CC000716F2BECAEF06FC035F170C036F135C1ED
:100CD00075F036C176F0000E0001786F0A0E776F5E
:100CE000E7ECAAF075C035F176C036F1010136AFF8
:100CF00004D001013507D8A036070101355100089D
:100D000035EC94F096C037F197C038F198C039F1BE
:100D100099C03AF137C17DF038C17EF039C17FF01A
:100D20003AC180F03DC181F03EC182F03FC183F005
:100D300040C184F09CEC9BF07DC037F17EC038F15F
:100D40007FC039F180C03AF137C16FF038C170F01F
:100D500039C171F03AC172F0000E0001736F000EDC
:100D6000746F800E756F3F0E766F99ECA6F00001E0
:100D7000D8B005D001013507D8A0360719D037C142
:100D80006FF038C170F039C171F03AC172F0000EE5
:100D90000001736F000E746F200E756F410E766F39
:100DA00099ECA6F00001D8A003D00101354B362BF9
:100DB00001013CBF08D001013C5123E10D0E0101AE
:100DC0003B5DD8B01ED03DC1A3F03EC1A4F03FC1F1
:100DD000A5F040C1A6F001013B519EECA1F096C0E8
:100DE000A7F097C0A8F098C0A9F099C0AAF048EC65
:100DF00099F0A3C03DF1A4C03EF1A5C03FF1A6C04B
:100E000040F1010136BF08D0010136512EE10A0E32
:100E10000101355DD8B029D001013D5101013E11DC
:100E200001013F1101014011D8B46DD03DC1B7F0AF
:100E30003EC1B8F03FC1B9F040C1BAF08AECA9F0A8
:100E40000001B7510001B8110001B9110001BA1138
:100E5000D8A459D0010136BF56D00101365105E161
:100E6000020E0101355DD8A04ED037C16FF038C1F8
:100E700070F039C171F03AC172F05F0E0001736F0A
:100E8000700E746F890E756F400E766F99ECA6F038
:100E90000001D8B003D00101F70E02D00101F80E15
:100EA0003527FF0E36230101355135EC94F096C0FD
:100EB00037F197C038F198C039F199C03AF13DC186
:100EC0006FF03EC170F03FC171F040C172F037C1A8
:100ED00073F038C174F039C175F03AC176F061EC45
:100EE000A7F06FC031F170C032F171C033F172C040
:100EF00034F1000E01013D6F000E3E6F000E3F6F9A
:100F0000000E406F3CD03DC1B7F03EC1B8F03FC1CC
:100F1000B9F040C1BAF08AECA9F0B7C031F1B8C05D
:100F200032F1B9C033F1BAC034F13DC1B7F03EC1BE
:100F3000B8F03FC1B9F040C1BAF031C16FF032C171
:100F400070F033C171F034C172F0000E00ECA4F007
:100F50006FC0BBF070C0BCF071C0BDF072C0BEF01D
:100F60008FECADF0B7C03DF1B8C03EF1B9C03FF174
:100F7000BAC040F1000E0101366F000E356F010E50
:100F80000101416F0A0E01014119D8B421D00101BC
:100F90004151040D370EF324F66EFF0EF420F76E68
:100FA000F86A000EF8220900F5500101315D0900D0
:100FB000F550010132590900F5500101335909007A
:100FC000F55001013459D8A003D00101412BDAD7E3
:100FD000030E01012F150001C96F000E010130152C
:100FE0000001CA6F0001C9510001CA11D8B458D01C
:100FF000C1C0D9FFC2C0DAFF2D0E50D00001C14BD5
:10100000C22B4ED031C16FF032C170F033C171F0DC
:1010100034C172F001014151040D370EF324F66E14
:10102000FF0EF420F76EF86A000EF8220900F5CFE3
:1010300073F00900F5CF74F00900F5CF75F00A00E0
:10104000F5CF76F046ECABF06FC037F170C038F1F9
:1010500071C039F172C03AF137C16FF038C170F028
:1010600039C171F03AC172F00A0E0001736F000EBF
:10107000746F000E756F000E766FA7ECACF06FC04A
:1010800037F170C038F171C039F172C03AF1010125
:101090003751300FC1C0D9FFC2C0DAFFDF6EAED703
:1010A0000101410701014129D8B40ED0ABD7C1C01D
:1010B000D9FFC2C0DAFF300EDF6E0001C14BC22B78
:1010C00001013507D8A03607010136BF07D001015D
:1010D0003651EDE101013505D8B0E9D701013CBF3A
:1010E0000CD001013C5105E1090E01013B5DD8A086
:1010F00004D0080E0101416F02D03BC141F1010152
:10110000415101013B5F000E010141BFFF0E010192
:101110003C5B010141510101D8B409D0C1C0D9FFE4
:10112000C2C0DAFF2E0EDF6E0001C14BC22B0101DF
:10113000415135EC94F096C029F197C02AF198C03E
:101140002BF199C02CF13DC181F03EC182F03FC12D
:1011500083F040C184F029C17DF02AC17EF02BC10B
:101160007FF02CC180F09CEC9BF07DC0B7F07EC07E
:10117000B8F07FC0B9F080C0BAF08AECA9F0B7C06F
:1011800031F1B8C032F1B9C033F1BAC034F17AD01C
:1011900031C16FF032C170F033C171F034C172F0FF
:1011A00001014151040D370EF324F66EFF0EF420B9
:1011B000F76EF86A000EF8220900F5CF73F0090007
:1011C000F5CF74F00900F5CF75F00A00F5CF76F091
:1011D00046ECABF06FC037F170C038F171C039F137
:1011E00072C03AF137C16FF038C170F039C171F097
:1011F0003AC172F00A0E0001736F000E746F000E98
:10120000756F000E766FA7ECACF06FC037F170C051
:1012100038F171C039F172C03AF101013751300F24
:10122000C1C0D9FFC2C0DAFFDF6E0001C14BC22BC3
:1012300031C16FF032C170F033C171F034C172F05E
:1012400001014151040D370EF324F66EFF0EF42018
:10125000F76EF86A000EF8220900F5CF73F0090066
:10126000F5CF74F00900F5CF75F00A00F5CF76F0F0
:10127000A7ECACF06FC031F170C032F171C033F146
:1012800072C034F10101410701014129D8B40ED0E7
:101290007FD7C1C0D9FFC2C0DAFF300EDF6E0001B8
:1012A000C14BC22B01013B07D8A03C0701013B51B8
:1012B00001013C11D8B459D0ECD701013B510101D7
:1012C0003C11D8A40DD001013151010132110101AD
:1012D000331101013411D8A403D001013B4B3C2B45
:1012E000800E010141BF7F0E0001C96F01013B511A
:1012F0000101415D01013C51800A0001C959D8B08A
:1013000003D03BC141F118D001013C51800A0001DA
:10131000C96F0101415101013B5D800E010141BFD7
:101320007F0E0001C959D8B007D001014151010118
:101330003B6F3C6B3BBF3C07030E01012F150001C7
:10134000C96F000E010130150001CA6F0001C951BB
:101350000001CA11D8B409D0C1C0D9FFC2C0DAFF98
:101360002D0EDF6E0001C14BC22BC3C0F6FFC4C0FF
:10137000F7FF0001C34BC42B000EF86E0800F5CF39
:1013800041F101014151D8A48BEF85F0C1C0D9FFD3
:10139000C2C0DAFF000EDF6E12000F0140B73FD16E
:1013A00075C045FF000176AD03D00F01458D02D019
:1013B0000F01459D000176A779D000016F51000112
:1013C0007B6F7C6B7D6B7E6B7BC044FF000E0001EE
:1013D0006F1500017B6FFF0E0001701500017C6F1F
:1013E000000E0001711500017D6F000E00017215E5
:1013F00000017E6F7BC077F07CC078F07DC079F013
:101400007EC07AF078C077F079C078F07AC079F051
:1014100000017A6B77C07BF078C07CF079C07DF0FA
:101420007AC07EF07BC043FF000E0F01426F0F01B8
:101430004287000171A102D00F014281000171A316
:1014400002D00F014283000171A502D00F01428B2F
:10145000000171A702D00F01428D000171A902D0D5
:101460000F01428F6FC077F070C078F071C079F0D3
:1014700072C07AF0160E06D00001D8907A33793314
:1014800078337733E82EF8D777C07BF078C07CF0DC
:1014900079C07DF07AC07EF000017B5100017B6F46
:1014A0007C6B7D6B7E6B7BC041FF59D00F014297F7
:1014B0006FC077F070C078F071C079F072C07AF0C8
:1014C000040E06D00001D8907A337933783377331D
:1014D000E82EF8D777C07BF078C07CF079C07DF03B
:1014E0007AC07EF000017B5100017B6F7C6B7D6BCD
:1014F0007E6B7BC041FF070E00016F1500017B6F03
:10150000000E0001701500017C6F000E00017115C6
:1015100000017D6F000E0001721500017E6F7BC01F
:1015200077F07CC078F07DC079F07EC07AF0050E4F
:10153000D89000017737783779377A37E82EF8D79F
:1015400077C07BF078C07CF079C07DF07AC07EF007
:101550000F0142511F0B0F01426F7BC042FF000180
:1015600076A103D00F01408102D00F01409100010C
:1015700076A303D00F01408302D00F01409373C0C4
:10158000D9FF74C0DAFFDF500F01466F000120EE73
:1015900001F07351D9267451DA22DF500F01476FE1
:1015A000000120EE02F07351D9267451DA22DF5087
:1015B0000F01486F000120EE03F07351D9267451DA
:1015C000DA22DF500F01496F000120EE04F0735161
:1015D000D9267451DA22DF500F014A6F000120EE44
:1015E00005F07351D9267451DA22DF500F014B6F89
:1015F000000120EE06F07351D9267451DA22DF5033
:101600000F014C6F000120EE07F07351D926745181
:10161000DA22DF500F014D6F0F01408712000F01DA
:1016200030B73FD175C035FF000176AD03D00F0153
:10163000358D02D00F01359D000176A779D00001CC
:101640006F5100017B6F7C6B7D6B7E6B7BC034FFC9
:10165000000E00016F1500017B6FFF0E0001701579
:1016600000017C6F000E0001711500017D6F000EFE
:101670000001721500017E6F7BC077F07CC078F0AE
:101680007DC079F07EC07AF078C077F079C078F0CC
:101690007AC079F000017A6B77C07BF078C07CF07B
:1016A00079C07DF07AC07EF07BC033FF000E0F0161
:1016B000326F0F013287000171A102D00F01328118
:1016C000000171A302D00F013283000171A502D085
:1016D0000F01328B000171A702D00F01328D000182
:1016E00071A902D00F01328F6FC077F070C078F00F
:1016F00071C079F072C07AF0160E06D00001D89051
:101700007A33793378337733E82EF8D777C07BF0A4
:1017100078C07CF079C07DF07AC07EF000017B510A
:1017200000017B6F7C6B7D6B7E6B7BC031FF59D082
:101730000F0132976FC077F070C078F071C079F008
:1017400072C07AF0040E06D00001D8907A33793353
:1017500078337733E82EF8D777C07BF078C07CF009
:1017600079C07DF07AC07EF000017B5100017B6F73
:101770007C6B7D6B7E6B7BC031FF070E00016F15AC
:1017800000017B6F000E0001701500017C6F000EE0
:101790000001711500017D6F000E0001721500013E
:1017A0007E6F7BC077F07CC078F07DC079F07EC022
:1017B0007AF0050ED89000017737783779377A3785
:1017C000E82EF8D777C07BF078C07CF079C07DF048
:1017D0007AC07EF00F0132511F0B0F01326F7BC0B8
:1017E00032FF000176A103D00F01308102D00F013A
:1017F0003091000176A303D00F01308302D00F0196
:10180000309373C0D9FF74C0DAFFDF500F01366F19
:10181000000120EE01F07351D9267451DA22DF5015
:101820000F01376F000120EE02F07351D926745179
:10183000DA22DF500F01386F000120EE03F0735100
:10184000D9267451DA22DF500F01396F000120EEE2
:1018500004F07351D9267451DA22DF500F013A6F28
:10186000000120EE05F07351D9267451DA22DF50C1
:101870000F013B6F000120EE06F07351D926745121
:10188000DA22DF500F013C6F000120EE07F07351A8
:10189000D9267451DA22DF500F013D6F0F013087D6
:1018A00012000F0120B7120075C025FF000176ADB0
:1018B00003D00F01258D02D00F01259D000176A7D1
:1018C00079D000016F5100017B6F7C6B7D6B7E6B6B
:1018D0007BC024FF000E00016F1500017B6FFF0E1F
:1018E0000001701500017C6F000E000171150001F0
:1018F0007D6F000E0001721500017E6F7BC077F0D6
:101900007CC078F07DC079F07EC07AF078C077F046
:1019100079C078F07AC079F000017A6B77C07BF0FB
:1019200078C07CF079C07DF07AC07EF07BC023FF68
:10193000000E0F01226F0F012287000171A102D05A
:101940000F012281000171A302D00F012283000147
:1019500071A502D00F01228B000171A702D00F01E7
:10196000228D000171A902D00F01228F6FC077F084
:1019700070C078F071C079F072C07AF0160E06D09F
:101980000001D8907A33793378337733E82EF8D75B
:1019900077C07BF078C07CF079C07DF07AC07EF0B3
:1019A00000017B5100017B6F7C6B7D6B7E6B7BC08C
:1019B00021FF59D00F0122976FC077F070C078F0E7
:1019C00071C079F072C07AF0040E06D00001D89090
:1019D0007A33793378337733E82EF8D777C07BF0D2
:1019E00078C07CF079C07DF07AC07EF000017B5138
:1019F00000017B6F7C6B7D6B7E6B7BC021FF070ED4
:101A000000016F1500017B6F000E000170150001D1
:101A10007C6F000E0001711500017D6F000E00014A
:101A2000721500017E6F7BC077F07CC078F07DC0BE
:101A300079F07EC07AF0050ED890000177377837BC
:101A400079377A37E82EF8D777C07BF078C07CF00A
:101A500079C07DF07AC07EF00F0122511F0B0F017B
:101A6000226F7BC022FF000176A103D00F012081ED
:101A700002D00F012091000176A303D00F01208333
:101A800002D00F01209373C0D9FF74C0DAFFDF507A
:101A90000F01266F000120EE01F07351D926745119
:101AA000DA22DF500F01276F000120EE02F07351A0
:101AB000D9267451DA22DF500F01286F000120EE81
:101AC00003F07351D9267451DA22DF500F01296FC8
:101AD000000120EE04F07351D9267451DA22DF5050
:101AE0000F012A6F000120EE05F07351D9267451C1
:101AF000DA22DF500F012B6F000120EE06F0735148
:101B0000D9267451DA22DF500F012C6F000120EE2C
:101B100007F07351D9267451DA22DF500F012D6F6F
:101B20000F012087120086ECAAF08C8C8C8A010EA3
:101B30000001766FF40E756FF2ECADF08C9C8C9A10
:101B4000CF0E0001CB6FF70ECC6F330ECD6F3F0E73
:101B5000CE6F000E0001CF6F000ED06F200ED16F40
:101B6000410ED26F4C8CECECAEF016ECAFF008EC02
:101B7000AFF04DB09BD0010E0001E36F000E0001ED
:101B8000E26F000EE16F5A0E0001EA6F000E0001D5
:101B9000E86F010E0001E96FA4ECABF0100E25EC2C
:101BA000A8F0010E10ECAAF09E0E0001806FFF0E4F
:101BB0000001816F46ECAEF0020E10ECAAF0740E3C
:101BC0000001806FFF0E0001816F46ECAEF0030E46
:101BD00010ECAAF05F0E0001806FFF0E0001816F14
:101BE00046ECAEF0040E10ECAAF09E0E0001806FE1
:101BF000FF0E0001816F46ECAEF054D0D3C042F12D
:101C0000D4C043F1D5C044F1D6C045F10101421F13
:101C1000431F441F451F422B000E432344234523EB
:101C20002050010142250101466F2150010143214D
:101C30000101476F2250010144210101486F2350E7
:101C4000010145210101496F01014951010148117B
:101C50000101471105E11E0E0101465DD8A019D012
:101C600020C0D3F021C0D4F022C0D5F023C0D6F0DC
:101C700083AE02D0010E01D0000EFF0A0101426FB7
:101C80000101423342338350010142197F0B421953
:101C9000836EECECAEF0000E0001766F0A0E756FED
:101CA000F2ECADF04DA0AAD7839E4C8C3FECADF08A
:101CB00080A404D0000E0001E56F0DD080B605D0E1
:101CC000010E0001E56F010E04D0020E0001E56F68
:101CD000000E0001E36F4CA2F6D04D9818C042F1FF
:101CE00019C043F11AC044F11BC045F10101421F64
:101CF000431F441F451F422B000E4323442345230B
:101D00002050010142250101466F2150010143216C
:101D10000101476F2250010144210101486F235006
:101D2000010145210101496F01014951010148119A
:101D30000101471105E11E0E0101465DD8A01AD030
:101D400020C018F021C019F022C01AF023C01BF0E7
:101D500083AC02D0010E01D0000EFF0A0101426FD8
:101D60000101423B42474247835001014219BF0BE8
:101D70004219836E050E0001E6612FD04CB42DD0C0
:101D8000010E0001E46F000E0001CF6F000ED06F56
:101D9000000ED16F400ED26FBAECAEF00009D8B48D
:101DA000FBD7010E0101216F0A0E00016F6F000EBB
:101DB000706F000E716F000E726F210E0001736F55
:101DC000010E0001746F080E0001756FBC0E00015A
:101DD000766FCDEC89F00001E62B4CA4ADD01CC091
:101DE00042F11DC043F11EC044F11FC045F1010185
:101DF000421F431F441F451F422B000E4323442311
:101E000045232050010142250101466F2150010167
:101E100043210101476F2250010144210101486F14
:101E20002350010145210101496F0101495101017F
:101E300048110101471105E11E0E0101465DD8A0C0
:101E400019D020C01CF021C01DF022C01EF023C0FC
:101E50001FF083AA02D0010E01D0000EFF0A01017B
:101E6000426F0101423B4247835001014219DF0B9F
:101E70004219836E050E0001E7615ED0020E00017B
:101E8000E46FBAECAEF00009D8B4FBD70B0E00013A
:101E90006F6F000E706F000E716F000E726F2A0E62
:101EA0000001736F000E0001746F080E0001756F62
:101EB000BC0E0001766FCDEC89F0000E0001E66FDC
:101EC0000001E72B39D0000E0001E66F000E000183
:101ED000E76F4C94839A839C4DB82CD0000E000180
:101EE000E46F000E0001CF6F000ED06F200ED16F97
:101EF000410ED26FBAECAEF00009D8B4FBD7000E99
:101F00000101216F0A0E00016F6F000E706F000E4D
:101F1000716F000E726F210E0001736F010E0001D0
:101F2000746F080E0001756FBC0E0001766FCDEC6A
:101F300089F04D88839C839A000E0001A76F000EE4
:101F4000A86F340EA96F430EAA6FCBC081F0CCC02E
:101F500082F0CDC083F0CEC084F00001DB510001DF
:101F60006F6F706B716B726B000E00ECA4F06FC042
:101F70007DF070C07EF071C07FF072C080F09CEC8C
:101F80009BF07DC096F07EC097F07FC098F080C037
:101F900099F00FECAEF096C0A3F097C0A4F098C0F3
:101FA000A5F099C0A6F048EC99F0A3C0B7F0A4C082
:101FB000B8F0A5C0B9F0A6C0BAF08AECA9F000014B
:101FC000B7510001EA6F0001E551D8B488D0840E02
:101FD0000001DC6542D0CFC081F0D0C082F0D1C01A
:101FE00083F0D2C084F07E0E0101426FFF0E01012A
:101FF000436F0001DC510101446F456B0101425107
:1020000001014427010143510101452344C16FF0FF
:1020100045C170F00001000E70BFFF0E716F726F4E
:10202000010E00ECA4F06FC07DF070C07EF071C0B6
:102030007FF072C080F09CEC9BF07DC0B7F07EC05A
:10204000B8F07FC0B9F080C0BAF08AECA9F0B7C090
:10205000E1F0B8C0E2F0000E40D0000E0001E26FE7
:10206000000EE16F330E0001816F330E826FF30EAD
:10207000836F3F0E846F0001DC510101426F436B9F
:102080000101421F431F424B432B820E0101422795
:10209000000E432342C16FF043C170F00001000EF7
:1020A00070BFFF0E716F726F010E00ECA4F06FC075
:1020B0007DF070C07EF071C07FF072C080F09CEC4B
:1020C0009BF07DC0B7F07EC0B8F07FC0B9F080C093
:1020D000BAF08AECA9F00001B7510001E86F4CAEEC
:1020E00003D001ECACF04C9ED7C042F1D8C043F114
:1020F000D9C044F1DAC045F10101421F431F441F1A
:10210000451F422B000E4323442345232050010149
:1021100042250101466F2150010143210101476F12
:102120002250010144210101486F23500101452142
:102130000101496F01014951010148110101471194
:1021400005E1020E0101465DD8A00AD020C0D7F0FB
:1021500021C0D8F022C0D9F023C0DAF0A4ECABF053
:1021600010C042F111C043F112C044F113C045F157
:102170000101421F431F441F451F422B000E4323F2
:10218000442345232050010142250101466F21507F
:10219000010143210101476F225001014421010146
:1021A000486F2350010145210101496F0101495147
:1021B000010148110101471105E10A0E0101465DC7
:1021C000D8A0D1D420C010F021C011F022C012F04C
:1021D00023C013F019ECA3F0C6D40F0140B715D1FA
:1021E00042C045FF43AC03D00F01458D02D00F0123
:1021F000459D43A666D03C50486E496A4A6A4B6A80
:1022000048C044FF000E3C14486EFF0E3D14496E5A
:10221000000E3E144A6E000E3F144B6E48C044F050
:1022200049C045F04AC046F04BC047F045C044F0B5
:1022300046C045F047C046F0476A44C048F045C034
:1022400049F046C04AF047C04BF048C043FF000E7B
:102250000F01426F0F0142873EA002D00F01428161
:102260003EA202D00F0142833EA402D00F01428B56
:102270003EA602D00F01428D3EA802D00F01428F30
:102280003CC044F03DC045F03EC046F03FC047F082
:10229000160E05D0D8904732463245324432E82EE9
:1022A000F9D744C048F045C049F046C04AF047C09D
:1022B0004BF04850486E496A4A6A4B6A48C041FF31
:1022C0004DD00F0142973CC044F03DC045F03EC0A8
:1022D00046F03FC047F0040E05D0D8904732463252
:1022E00045324432E82EF9D744C048F045C049F0A1
:1022F00046C04AF047C04BF04850486E496A4A6AA7
:102300004B6A48C041FF070E3C14486E000E3D1456
:10231000496E000E3E144A6E000E3F144B6E48C0CC
:1023200044F049C045F04AC046F04BC047F0050EA6
:10233000D8904436453646364736E82EF9D744C05D
:1023400048F045C049F046C04AF047C04BF00F0185
:1023500042511F0B0F01426F48C042FF43A003D000
:102360000F01408102D00F01409143A203D00F0121
:10237000408302D00F01409340C0D9FF41C0DAFF33
:10238000DF500F01466F20EE01F04050D92641503A
:10239000DA22DF500F01476F20EE02F04050D926BD
:1023A0004150DA22DF500F01486F20EE03F0405019
:1023B000D9264150DA22DF500F01496F20EE04F098
:1023C0004050D9264150DA22DF500F014A6F20EEEB
:1023D00005F04050D9264150DA22DF500F014B6FF3
:1023E00020EE06F04050D9264150DA22DF500F018E
:1023F0004C6F20EE07F04050D9264150DA22DF50D2
:102400000F014D6F0F01408712000F0130B715D13A
:1024100042C035FF43AC03D00F01358D02D00F0110
:10242000359D43A666D03C50486E496A4A6A4B6A5D
:1024300048C034FF000E3C14486EFF0E3D14496E38
:10244000000E3E144A6E000E3F144B6E48C044F01E
:1024500049C045F04AC046F04BC047F045C044F083
:1024600046C045F047C046F0476A44C048F045C002
:1024700049F046C04AF047C04BF048C033FF000E59
:102480000F01326F0F0132873EA002D00F0132815F
:102490003EA202D00F0132833EA402D00F01328B44
:1024A0003EA602D00F01328D3EA802D00F01328F1E
:1024B0003CC044F03DC045F03EC046F03FC047F050
:1024C000160E05D0D8904732463245324432E82EB7
:1024D000F9D744C048F045C049F046C04AF047C06B
:1024E0004BF04850486E496A4A6A4B6A48C031FF0F
:1024F0004DD00F0132973CC044F03DC045F03EC086
:1025000046F03FC047F0040E05D0D890473246321F
:1025100045324432E82EF9D744C048F045C049F06E
:1025200046C04AF047C04BF04850486E496A4A6A74
:102530004B6A48C031FF070E3C14486E000E3D1434
:10254000496E000E3E144A6E000E3F144B6E48C09A
:1025500044F049C045F04AC046F04BC047F0050E74
:10256000D8904436453646364736E82EF9D744C02B
:1025700048F045C049F046C04AF047C04BF00F0153
:1025800032511F0B0F01326F48C032FF43A003D0FE
:102590000F01308102D00F01309143A203D00F010F
:1025A000308302D00F01309340C0D9FF41C0DAFF21
:1025B000DF500F01366F20EE01F04050D926415018
:1025C000DA22DF500F01376F20EE02F04050D9269B
:1025D0004150DA22DF500F01386F20EE03F04050F7
:1025E000D9264150DA22DF500F01396F20EE04F076
:1025F0004050D9264150DA22DF500F013A6F20EEC9
:1026000005F04050D9264150DA22DF500F013B6FD0
:1026100020EE06F04050D9264150DA22DF500F015B
:102620003C6F20EE07F04050D9264150DA22DF50AF
:102630000F013D6F0F01308712000F0120B712000C
:1026400042C025FF43AC03D00F01258D02D00F01FE
:10265000259D43A666D03C50486E496A4A6A4B6A3B
:1026600048C024FF000E3C14486EFF0E3D14496E16
:10267000000E3E144A6E000E3F144B6E48C044F0EC
:1026800049C045F04AC046F04BC047F045C044F051
:1026900046C045F047C046F0476A44C048F045C0D0
:1026A00049F046C04AF047C04BF048C023FF000E37
:1026B0000F01226F0F0122873EA002D00F0122815D
:1026C0003EA202D00F0122833EA402D00F01228B32
:1026D0003EA602D00F01228D3EA802D00F01228F0C
:1026E0003CC044F03DC045F03EC046F03FC047F01E
:1026F000160E05D0D8904732463245324432E82E85
:10270000F9D744C048F045C049F046C04AF047C038
:102710004BF04850486E496A4A6A4B6A48C021FFEC
:102720004DD00F0122973CC044F03DC045F03EC063
:1027300046F03FC047F0040E05D0D89047324632ED
:1027400045324432E82EF9D744C048F045C049F03C
:1027500046C04AF047C04BF04850486E496A4A6A42
:102760004B6A48C021FF070E3C14486E000E3D1412
:10277000496E000E3E144A6E000E3F144B6E48C068
:1027800044F049C045F04AC046F04BC047F0050E42
:10279000D8904436453646364736E82EF9D744C0F9
:1027A00048F045C049F046C04AF047C04BF00F0121
:1027B00022511F0B0F01226F48C022FF43A003D0FC
:1027C0000F01208102D00F01209143A203D00F01FD
:1027D000208302D00F01209340C0D9FF41C0DAFF0F
:1027E000DF500F01266F20EE01F04050D9264150F6
:1027F000DA22DF500F01276F20EE02F04050D92679
:102800004150DA22DF500F01286F20EE03F04050D4
:10281000D9264150DA22DF500F01296F20EE04F053
:102820004050D9264150DA22DF500F012A6F20EEA6
:1028300005F04050D9264150DA22DF500F012B6FAE
:1028400020EE06F04050D9264150DA22DF500F0129
:102850002C6F20EE07F04050D9264150DA22DF508D
:102860000F012D6F0F012087120000019E6F0001E4
:102870009EAF45D100019E6D00019E51800A120F4E
:10288000D8A0BBD0000E0001786F0A0E776F000E43
:102890000001726F640E716F00019E5100016F6F35
:1028A000706B6FBF700756ECACF06FC075F070C006
:1028B00076F0E7ECAAF00001D89075377637000182
:1028C000D89075377637240E00017527000E000169
:1028D0007623CF0E00017525F66EFE0E00017621DF
:1028E000F76EF86A000EF8220900F5CF81F00900B2
:1028F000F5CF82F00900F5CF83F00A00F5CF84F020
:10290000000E0001786F640E776F00019E51000188
:10291000756F766B75BF7607E7ECAAF00001D8906B
:10292000753776370001D89075377637480E000135
:102930007527000E00017623CF0E00017525F66E77
:10294000FE0E00017621F76EF86A000EF8220900EB
:10295000F5CF7DF00900F5CF7EF00900F5CF7FF0CF
:102960000A00F5CF80F09CEC9BF07DC09AF07EC011
:102970009BF07FC09CF080C09DF09AC07DF09BC012
:102980007EF09CC07FF09DC080F0000E0001726F51
:102990000A0E716F00019E5100016F6F706B6FBF67
:1029A000700756ECACF00001D8906F37703700011B
:1029B000D8906F377037CF0E00016F25F66EFE0E80
:1029C00000017021F76EF86A000EF8220900F5CFB9
:1029D00081F00900F5CF82F00900F5CF83F00A00FD
:1029E000F5CF84F09CEC9BF07DC096F07EC097F014
:1029F0007FC098F080C099F0120000019E51800ABB
:102A0000750FD8A063D0000E0001786F0A0E776FA3
:102A100000019E510001756F766B75BF7607E7EC7C
:102A2000AAF00001D890753776370001D890753735
:102A30007637240E00017527000E00017623CF0E95
:102A400000017525F66EFE0E00017621F76EF86A1C
:102A5000000EF8220900F5CF7DF00900F5CF7EF0D9
:102A60000900F5CF7FF00A00F5CF80F0000E0001DD
:102A7000726F0A0E716F00019E5100016F6F706BD3
:102A80006FBF700756ECACF00001D8906F3770370D
:102A90000001D8906F377037CF0E00016F25F66EAA
:102AA000FE0E00017021F76EF86A000EF822090090
:102AB000F5CF81F00900F5CF82F00900F5CF83F062
:102AC0000A00F5CF84F09CEC9BF08ED700019E515C
:102AD000040DCF0EF324F66EFE0EF420F76EF86AA6
:102AE000000EF8220900F5CF96F00900F5CF97F017
:102AF0000900F5CF98F00A00F5CF99F01200000117
:102B00009E51800A120FD8A0BBD0000E0001786F32
:102B10000A0E776F000E0001726F640E716F000174
:102B20009E5100016F6F706B6FBF700756ECACF079
:102B30006FC075F070C076F0E7ECAAF00001D89095
:102B4000753776370001D89075377637240E000137
:102B50007527000E00017623030E00017525F66E21
:102B6000FF0E00017621F76EF86A000EF8220900C8
:102B7000F5CF81F00900F5CF82F00900F5CF83F0A1
:102B80000A00F5CF84F0000E0001786F640E776FB5
:102B900000019E510001756F766B75BF7607E7ECFB
:102BA000AAF00001D890753776370001D8907537B4
:102BB0007637480E00017527000E00017623030EBC
:102BC00000017525F66EFF0E00017621F76EF86A9A
:102BD000000EF8220900F5CF7DF00900F5CF7EF058
:102BE0000900F5CF7FF00A00F5CF80F09CEC9BF058
:102BF0007DC09AF07EC09BF07FC09CF080C09DF0AD
:102C00009AC07DF09BC07EF09CC07FF09DC080F09C
:102C1000000E0001726F0A0E716F00019E510001DB
:102C20006F6F706B6FBF700756ECACF00001D890FF
:102C30006F3770370001D8906F377037030E00017F
:102C40006F25F66EFF0E00017021F76EF86A000E18
:102C5000F8220900F5CF81F00900F5CF82F00900D4
:102C6000F5CF83F00A00F5CF84F09CEC9BF07DC09B
:102C700096F07EC097F07FC098F080C099F0120067
:102C800000019E51800A750FD8A063D0000E00018C
:102C9000786F0A0E776F00019E510001756F766B99
:102CA00075BF7607E7ECAAF00001D8907537763744
:102CB0000001D89075377637240E00017527000E75
:102CC00000017623030E00017525F66EFF0E00014C
:102CD0007621F76EF86A000EF8220900F5CF7DF034
:102CE0000900F5CF7EF00900F5CF7FF00A00F5CF9F
:102CF00080F0000E0001726F0A0E716F00019E518C
:102D000000016F6F706B6FBF700756ECACF0000185
:102D1000D8906F3770370001D8906F377037030E37
:102D200000016F25F66EFF0E00017021F76EF86A44
:102D3000000EF8220900F5CF81F00900F5CF82F0EE
:102D40000900F5CF83F00A00F5CF84F09CEC9BF0EE
:102D50008ED700019E51040D030EF324F66EFF0E74
:102D6000F420F76EF86A000EF8220900F5CF96F00D
:102D70000900F5CF97F00900F5CF98F00A00F5CFDC
:102D800099F01200000E466E74BE468074BC4682F6
:102D90000F0150AF43D13CC0D9FF3DC0DAFFDE6A1E
:102DA000DE6ADE6ADD6A20EE04F03C50D9263D5032
:102DB000DA2256CFDFFF20EE05F03C50D9263D50F9
:102DC000DA2257CFDFFF20EE06F03C50D9263D50E7
:102DD000DA2258CFDFFF20EE07F03C50D9263D50D5
:102DE000DA2259CFDFFF20EE08F03C50D9263D50C3
:102DF000DA225ACFDFFF20EE09F03C50D9263D50B1
:102E0000DA225BCFDFFF20EE0AF03C50D9263D509E
:102E1000DA225CCFDFFF20EE0BF03C50D9263D508C
:102E2000DA225DCFDFFF20EE0EF03C50D9263D5078
:102E3000DA220F0155AD02D0010E01D0000EDF6E77
:102E400020EE0DF03C50D9263D50DA220F015551AD
:102E50000F0BDF6E20EE0CF03C50D9263D50DA22ED
:102E60000F0152A702D0010E01D0000EDF6E0F013C
:102E700052B744D051CF3EF03F6A406A416A030ED8
:102E8000D8903E363F3640364136E82EF9D73CC022
:102E9000D9FF3DC0DAFF3EC0DEFF3FC0DEFF40C0CD
:102EA000DEFF41C0DEFF0F015239E842070B070B7E
:102EB000476E3CC0D9FF3DC0DAFFDECF3EF0DECF2B
:102EC0003FF0DECF40F0DECF41F047503E24426E6F
:102ED000000E3F20436E000E4020446E000E412045
:102EE000456E3CC0D9FF3DC0DAFF42C0DEFF43C0A3
:102EF000DEFF44C0DEFF45C0DEFF8DD054CF3EF084
:102F00003F6A406A416A3CC0D9FF3DC0DAFF3EC01B
:102F1000DEFF3FC0DEFF40C0DEFF41C0DEFF53CF1B
:102F20003EF03F6A406A416A40C041F03FC040F015
:102F30003EC03FF03E6A3CC0D9FF3DC0DAFF3E5084
:102F4000DE263F50DE224050DE224150DE220F01BD
:102F500052A10CD03CC0D9FF3DC0DAFF000EDE12FA
:102F6000000EDE12010EDE12000EDE120F0152A361
:102F70000CD03CC0D9FF3DC0DAFF000EDE12000EBF
:102F8000DE12020EDE12000EDE120F0152AB0CD06A
:102F90003CC0D9FF3DC0DAFF000EDE12000EDE128B
:102FA000040EDE12000EDE120F0152AD0CD03CC03A
:102FB000D9FF3DC0DAFF000EDE12000EDE12080E51
:102FC000DE12000EDE120F0152AF0CD03CC0D9FF52
:102FD0003DC0DAFF000EDE12000EDE12100EDE1211
:102FE000000EDE1251CF3EF03F6A406A416A150E74
:102FF000D8903E363F3640364136E82EF9D73CC0B1
:10300000D9FF3DC0DAFF3E50DE123F50DE12405085
:10301000DE124150DE120F01509F120060AE12000E
:103020003CC0D9FF3DC0DAFFDE6ADE6ADE6ADD6AD7
:1030300020EE04F03C50D9263D50DA2266CFDFFF67
:1030400020EE05F03C50D9263D50DA2267CFDFFF55
:1030500020EE06F03C50D9263D50DA2268CFDFFF43
:1030600020EE07F03C50D9263D50DA2269CFDFFF31
:1030700020EE08F03C50D9263D50DA226ACFDFFF1F
:1030800020EE09F03C50D9263D50DA226BCFDFFF0D
:1030900020EE0AF03C50D9263D50DA226CCFDFFFFB
:1030A00020EE0BF03C50D9263D50DA226DCFDFFFE9
:1030B00020EE0EF03C50D9263D50DA2265AC02D00D
:1030C000010E01D0000EDF6E20EE0DF03C50D9262F
:1030D0003D50DA2265500F0BDF6E20EE0CF03C50B5
:1030E000D9263D50DA2262A602D0010E01D0000E90
:1030F000DF6E62B643D061CF3EF03F6A406A416AFC
:10310000030ED8903E363F3640364136E82EF9D78A
:103110003CC0D9FF3DC0DAFF3EC0DEFF3FC0DEFF4E
:1031200040C0DEFF41C0DEFF6238E842070B070BFC
:10313000476E3CC0D9FF3DC0DAFFDECF3EF0DECFA8
:103140003FF0DECF40F0DECF41F047503E24426EEC
:10315000000E3F20436E000E4020446E000E4120C2
:10316000456E3CC0D9FF3DC0DAFF42C0DEFF43C020
:10317000DEFF44C0DEFF45C0DEFF88D064CF3EF0F6
:103180003F6A406A416A3CC0D9FF3DC0DAFF3EC099
:10319000DEFF3FC0DEFF40C0DEFF41C0DEFF63CF89
:1031A0003EF03F6A406A416A40C041F03FC040F093
:1031B0003EC03FF03E6A3CC0D9FF3DC0DAFF3E5002
:1031C000DE263F50DE224050DE224150DE2262A049
:1031D0000CD03CC0D9FF3DC0DAFF000EDE12000E5D
:1031E000DE12010EDE12000EDE1262A20CD03CC016
:1031F000D9FF3DC0DAFF000EDE12000EDE12020E15
:10320000DE12000EDE1262AA0CD03CC0D9FF3DC017
:10321000DAFF000EDE12000EDE12040EDE12000EC9
:10322000DE1262AC0CD03CC0D9FF3DC0DAFF000E0C
:10323000DE12000EDE12080EDE12000EDE1262AE8C
:103240000CD03CC0D9FF3DC0DAFF000EDE12000EEC
:10325000DE12100EDE12000EDE1261CF3EF03F6A6B
:10326000406A416A150ED8903E363F3640364136A8
:10327000E82EF9D73CC0D9FF3DC0DAFF3E50DE1240
:103280003F50DE124050DE124150DE12609E1200AE
:103290000001A651800B0001B36F0001A651A625C5
:1032A0000001B56F0001A5AF02D00001B58100019A
:1032B000B5510001D8B412D00001B529D8A409D065
:1032C000000E0001A36F000EA46F000EA56F000E8C
:1032D000A66F0001A58F000E000108D0000E0001AE
:1032E000A36F000EA46F000EA56F000EA66F000165
:1032F000AA51800B0001B46F0001B3510001B41951
:10330000D8B402D00001B38D0001AA51AA25000152
:10331000B46F0001A9AF02D00001B4810001B45123
:103320000001D8B412D00001B429D8A409D0000EED
:103330000001A76F000EA86F000EA96F000EAA6F04
:103340000001A98F000E000108D0000E0001A76F38
:10335000000EA86F000EA96F000EAA6F0001B551F4
:103360000001B45DD8B024D00001B3AD03D0800E0D
:103370000001B31BB5C0B6F0B4C0B5F0B6C0B4F030
:10338000A3C0B6F0A7C0A3F0B6C0A7F0A4C0B6F023
:10339000A8C0A4F0B6C0A8F0A5C0B6F0A9C0A5F01A
:1033A000B6C0A9F0A6C0B6F0AAC0A6F0B6C0AAF0F2
:1033B000000E0001B66F0001B5510001AB6FAC6BA0
:1033C0000001AB1FAC1FAB4BAC2B0001B451000193
:1033D000AD6FAE6B0001AB510001AD270001AC51E8
:1033E0000001AE230001AEBF3DD00001AE5105E1AA
:1033F0001A0E0001AD5DD8A035D00001A351000127
:10340000A4110001A5110001A611D8B402D0010E2B
:1034100001D0000E0001B66F000E0001A36F000E78
:10342000A46F000EA56F000EA66FB4C0B5F020D03B
:103430000001B6A107D00001D890B6310109000102
:10344000B66F03D00001D890B6330001A3A102D01B
:103450000001B68F0001A635A633A533A433A333EC
:103460000001B52B0001B4510001B55DD8A0E0D733
:103470000001B3BD3FD00001B5510001D8A40AD06E
:10348000000E0001A36F000EA46F000EA56F000ECA
:10349000A66F12000001A7510001A3270001A85147
:1034A0000001A4230001A9510001A5230001AA5194
:1034B0000001A6230001A6A1CCD00001B6A109D02D
:1034C0000001D890B6330001B65101090001B66F72
:1034D00003D00001D890B6330001A3A102D00001AF
:1034E000B68F0001A635A633A533A433A33300015C
:1034F000B52BAFD00001A7510001A35D0001A85179
:103500000001A4590001A9510001A5590001A651CB
:10351000800A0001AB6F0001AA51800A0001AB597B
:10352000D8B050D0A3C0ABF0A4C0ACF0A5C0ADF0F3
:10353000A6C0AEF00001AB1FAC1FAD1FAE1FAB2B82
:10354000000EAC23AD23AE230001A7510001AB2533
:103550000001AF6F0001A8510001AC210001B06F64
:103560000001A9510001AD210001B16F0001AA5174
:103570000001AE210001B26FFF0E0001AF25000176
:10358000A36FFF0E0001B0210001A46FFF0E000128
:10359000B1210001A56FFF0E0001B2210001A66F4D
:1035A000800E0001B31B0001B66D0001B651000191
:1035B000D8A418D0010E0001A327000EA423A52330
:1035C000A62310D00001A7510001A35F0001A8515C
:1035D0000001A45B0001A9510001A55B0001AA51F3
:1035E0000001A65B0001A3510001A4110001A51177
:1035F0000001A611D8A42AD00001B6510001D8A418
:1036000025D0000E0001A36F000EA46F000EA56F61
:10361000000EA66F12000001D890A337A437A5377B
:10362000A6370001B6AF02D00001A3810001B6A108
:1036300003D0D880000102D00001D890B637000135
:10364000B5510001D8B402D00001B5070001A5AF03
:10365000E2D7000E0001B46F0001B6AF0DD0B6C0C6
:10366000ABF07F0E0001AB17D8A403D00001A3A1DB
:1036700003D0010E0001B46F0001B4510001D8B4B1
:1036800026D0010E0001A327000EA423A523A62304
:103690000001A6A11CD0A3C0ABF0A4C0ACF0A5C093
:1036A000ADF0A6C0AEF00001AE35AE33AD33AC33F5
:1036B000AB33ABC0A3F0ACC0A4F0ADC0A5F0AEC0BE
:1036C000A6F00001B529D8B402D00001B52B000145
:1036D000B529D8B405D00001B5510001D8A411D046
:1036E000000E0001A36F000EA46F000EA56F000E68
:1036F000A66F0001B5510001D8A403D0000E00014F
:10370000B36F0001B5A103D00001A58F02D0000165
:10371000A59F0001D890B5310001A66F0001B3AF9D
:1037200002D00001A68FA3C0A3F0A4C0A4F0A5C03E
:10373000A5F0A6C0A6F0120000018051800B000188
:10374000896F00018051802500018F6F00017FAFDC
:1037500002D000018F8100018F510001D8B410D038
:1037600000018F29D8A409D0000E00017D6F000E42
:103770007E6F000E7F6F000E806F00017F8F09D07B
:10378000000E00017D6F000E7E6F000E7F6F000E39
:10379000806F00018451800B0001891B000184515E
:1037A000842500018A6F000183AF02D000018A8165
:1037B00000018A510001D8B410D000018A29D8A490
:1037C00009D0000E0001816F000E826F000E836F22
:1037D000000E846F0001838F09D0000E0001816FFD
:1037E000000E826F000E836F000E846F00018A51FD
:1037F0000001D8B405D000018F510001D8A40AD02F
:10380000000E00017D6F000E7E6F000E7F6F000EB8
:10381000806F12000001835100017D03F3CF94F00B
:10382000F4CF95F00001945100018B6F8C6B8D6B80
:103830008E6B000195510001906F916B926B936BB1
:103840000001825100017E03F3CF94F0F4CF95F094
:103850000001945100018B27000E8C238D238E23B1
:103860000001955100019027000E9123922393238C
:103870000001815100017F03F3CF94F0F4CF95F064
:103880000001945100018B27000E8C238D238E2381
:103890000001955100019027000E9123922393235C
:1038A0008DC08EF08CC08DF08BC08CF000018B6BC6
:1038B0000001815100017E03F3CF94F0F4CF95F025
:1038C0000001945100018B270001955100018C23C8
:1038D000000E00018D23000E00018E230001825195
:1038E00000017D03F3CF94F0F4CF95F000019451E3
:1038F00000018B270001955100018C23000E00016F
:103900008D23000E00018E238DC08EF08CC08DF0B3
:103910008BC08CF000018B6B0001815100017D0395
:10392000F3CF94F0F4CF95F00001945100018B2770
:103930000001955100018C23000E00018D23000E23
:1039400000018E230001835100017E03F3CF94F028
:10395000F4CF95F00001945100019027000195519A
:1039600000019123000E00019223000E0001932319
:103970000001825100017F03F3CF94F0F4CF95F062
:1039800000019451000190270001955100019123FD
:10399000000E00019223000E0001932300018351C9
:1039A00000017F03F3CF94F0F4CF95F00001945120
:1039B0000001856F000195510001866F0001876B42
:1039C0000001886B87C088F086C087F085C086F0CC
:1039D0000001856B0001855100019027000186518F
:1039E00000019123000187510001922300018851B9
:1039F000000193238BC085F08CC086F08DC087F0CA
:103A00008EC088F0190E06D00001D8908833873315
:103A100086338533E82EF8D70001855100019027C1
:103A2000000186510001912300018751000192237A
:103A300000018851000193238DC08EF08CC08DF061
:103A40008BC08CF000018B6B00018A518FC085F018
:103A50000001866B00018527000E8623820E00017F
:103A600085250001946FFF0E000186210001956FEE
:103A700015D00001D89090379137923793370001D5
:103A80008EAF02D0000190810001D8908B378C3727
:103A90008D378E3700019407D8A09507000192AFAB
:103AA000E8D7000E00018A6F00018EAF24D0FF0E10
:103AB00000018B150001856FFF0E00018C150001C0
:103AC000866FFF0E00018D150001876F7F0E0001CC
:103AD0008E150001886F00018551000186110001DB
:103AE000871100018811D8A403D0000190A103D050
:103AF000010E00018A6F00018A510001D8B423D061
:103B0000010E00019027000E9123922393230001C0
:103B100093A119D090C085F091C086F092C087F033
:103B200093C088F000018835883387338633853326
:103B300085C090F086C091F087C092F088C093F065
:103B40000001944B952B000195BF10D000019551B9
:103B500004E100019429D8A009D0000E0001906F63
:103B6000000E916F800E926F7F0E2BD0000195BFDB
:103B700007D00001955111E100019405D8B00DD096
:103B8000000E0001906F000E916F000E926F000EFC
:103B9000936F000E0001896F15D094C08FF0FF0E57
:103BA00000019017FF0E91177F0E9217000E9317CA
:103BB00000018FA102D00001928F0001D8908F31B7
:103BC0000001936F000189510001931390C07DF0B3
:103BD00091C07EF092C07FF093C080F0120000018F
:103BE0008051800B0001896F000180518025000108
:103BF000946F00017FAF02D00001948100019451C5
:103C00000001D8B412D000019429D8A409D0000E24
:103C100000017D6F000E7E6F000E7F6F000E806FC3
:103C200000017F8F000E000108D0000E00017D6FA3
:103C3000000E7E6F000E7F6F000E806F00018451BA
:103C4000800B0001891B0001845184250001956FC0
:103C5000000183AF02D00001958100019551000160
:103C6000D8B412D000019529D8A409D0000E0001C3
:103C7000816F000E826F000E836F000E846F000153
:103C8000838F000E000108D0000E0001816F000E2E
:103C9000826F000E836F000E846F0001815100015E
:103CA00082110001831100018411D8A417D0000EE5
:103CB00000017D6F000E7E6F000E7F6F000E806F23
:103CC0000001800E7F137F0E80137DC07DF07EC0CB
:103CD0007EF07FC07FF080C080F012000001945120
:103CE0000001D8A412D0000E00017D6F000E7E6F7F
:103CF000000E7F6F000E806F7DC07DF07EC07EF075
:103D00007FC07FF080C080F012000001955100015B
:103D1000856F866B0001851F861F854B862B0001F2
:103D200094510001876F886B00018551000187273E
:103D300000018651000188237F0E000187250001C4
:103D40008E6F000E0001882100018F6F7DC08AF008
:103D50007EC08BF07FC08CF080C08DF0000E000123
:103D60007D6F000E7E6F000E7F6F000E806F000E65
:103D70000001906F000E916F000E926F000E936F16
:103D8000000E0001956F42D0000195510001D8B49A
:103D900017D00001D8908A378B378C378D370001C8
:103DA000D8907D377E377F378037000193AF02D0C0
:103DB00000017D810001D890903791379237933779
:103DC0000001815100018A5D0001825100018B597F
:103DD0000001835100018C590001845100018D596B
:103DE000D8A012D00001938D0001815100018A5F9B
:103DF0000001825100018B5B0001835100018C5B4B
:103E00000001845100018D5B0001952B190E00010A
:103E10009565BAD700018A5100018B1100018C1100
:103E200000018D11D8B418D00001908115D0000187
:103E3000D8907D377E377F378037000193AF02D02F
:103E400000017D810001D8909037913792379337E8
:103E500000018E07D8A08F0700017FAFE8D7000EC2
:103E60000001956F000193AF24D0FF0E0001901563
:103E70000001856FFF0E000191150001866FFF0E96
:103E8000000192150001876F7F0E0001931500015C
:103E9000886F000185510001861100018711000122
:103EA0008811D8A403D000017DA103D0010E000128
:103EB000956F000195510001D8B423D0010E000187
:103EC0007D27000E7E237F238023000180A119D04F
:103ED0007DC085F07EC086F07FC087F080C088F00E
:103EE00000018835883387338633853385C07DF07C
:103EF00086C07EF087C07FF088C080F000018E4BC6
:103F00008F2B00018FBF14D000018F5104E10001FD
:103F10008E29D8A00DD0000E00018F6F8E69000E83
:103F200000017D6F000E7E6F000E7F6F000E806FB0
:103F300000018FBF07D000018F5115E100018E05F0
:103F4000D8B011D0000E00018F6F000E8E6F000EE2
:103F500000017D6F000E7E6F000E7F6F000E806F80
:103F6000000E0001896F8EC094F0000194A103D06F
:103F700000017F8F02D000017F9F0001D890943113
:103F80000001806F00018951000180137DC07DF028
:103F90007EC07EF07FC07FF080C080F01200000104
:103FA000786F00017805D8A456D000017329D8A4F1
:103FB00052D06FC074F070C075F071C076F072C0EE
:103FC00077F0040E06D00001D8907733763375333E
:103FD0007433E82EF8D774C079F075C07AF076C0E3
:103FE0007BF077C07CF0000179510001796F7A6B2A
:103FF0007B6B7C6B79C018FF070E00016F15000109
:10400000796F000E0001701500017A6F000E00013B
:10401000711500017B6F000E0001721500017C6FAD
:1040200079C074F07AC075F07BC076F07CC077F010
:10403000050ED89000017437753776377737E82E3C
:10404000F8D774C079F075C07AF076C07BF077C08D
:104050007CF079C019FF020E00017819D8A456D05F
:1040600000017329D8A452D06FC074F070C075F0ED
:1040700071C076F072C077F0040E06D00001D890BF
:104080007733763375337433E82EF8D774C079F00C
:1040900075C07AF076C07BF077C07CF00001795172
:1040A0000001796F7A6B7B6B7C6B79C01CFF070E0C
:1040B00000016F150001796F000E000170150001FD
:1040C0007A6F000E0001711500017B6F000E000178
:1040D000721500017C6F79C074F07AC075F07BC0F6
:1040E00076F07CC077F0050ED890000174377537F4
:1040F00076377737E82EF8D774C079F075C07AF044
:1041000076C07BF077C07CF079C01DFF0001780598
:10411000D8A487D0F70E00017319D8A482D000016B
:104120006F510001796F7A6B7B6B7C6B79C01BFFE1
:10413000000E00016F150001796FFF0E0001701570
:1041400000017A6F000E0001711500017B6F000EF7
:104150000001721500017C6F79C074F07AC075F0AF
:104160007BC076F07CC077F075C074F076C075F0D7
:1041700077C076F00001776B74C079F075C07AF083
:1041800076C07BF077C07CF079C01AFF000171A186
:1041900003D00F01198102D00F011991000171A301
:1041A00003D00F01198302D00F011993000171A5EB
:1041B00003D00F01198B02D00F01199B000171A7C9
:1041C00003D00F01198D02D00F01199D000171A9B3
:1041D00003D00F01198F02D00F01199F6FC074F027
:1041E00070C075F071C076F072C077F0160E06D010
:1041F0000001D8907733763375337433E82EF8D7CF
:1042000074C079F075C07AF076C07BF077C07CF02E
:10421000000179510001796F7A6B7B6B7C6B79C0FF
:1042200018FF020E00017819D8A41200F70E000141
:104230007319D8A4120000016F510001796F7A6BD5
:104240007B6B7C6B79C01FFF000E00016F150001B6
:10425000796FFF0E0001701500017A6F000E0001EA
:10426000711500017B6F000E0001721500017C6F5B
:1042700079C074F07AC075F07BC076F07CC077F0BE
:1042800075C074F076C075F077C076F00001776B7A
:1042900074C079F075C07AF076C07BF077C07CF09E
:1042A00079C01EFF000171A103D00F011D8102D052
:1042B0000F011D91000171A303D00F011D8302D0D6
:1042C0000F011D93000171A503D00F011D8B02D0BA
:1042D0000F011D9B000171A703D00F011D8D02D09E
:1042E0000F011D9D000171A903D00F011D8F02D088
:1042F0000F011D9F6FC074F070C075F071C076F033
:1043000072C077F0160E06D00001D890773376335E
:1043100075337433E82EF8D774C079F075C07AF02D
:1043200076C07BF077C07CF0000179510001796F95
:104330007A6B7B6B7C6B79C01CFF12000001A26F53
:104340006D0E0001A265CDD0000E0001786F0A0E3F
:10435000776F000E0001726F640E716FA2C06FF074
:104360000001706B56ECACF06FC075F070C076F069
:10437000E7ECAAF00001D890753776370001D890A5
:1043800075377637240E00017527000E000176235D
:10439000CF0E00017525F66EFE0E00017621F76E38
:1043A000F86A000EF8220900F5CF81F00900F5CF78
:1043B00082F00900F5CF83F00A00F5CF84F0000EFB
:1043C0000001786F640E776FA2C075F00001766B04
:1043D000E7ECAAF00001D890753776370001D89045
:1043E00075377637480E00017527000E00017623D9
:1043F000CF0E00017525F66EFE0E00017621F76ED8
:10440000F86A000EF8220900F5CF7DF00900F5CF1B
:104410007EF00900F5CF7FF00A00F5CF80F09CEC2C
:104420009BF07DC09EF07EC09FF07FC0A0F080C05A
:10443000A1F0000E0001726F0A0E716FA2C06FF042
:104440000001706B56ECACF00001D8906F377037FC
:104450000001D8906F377037CF0E00016F25F66ED0
:10446000FE0E00017021F76EF86A000EF8220900B6
:10447000F5CF81F00900F5CF82F00900F5CF83F088
:104480000A00F5CF84F09EC07DF09FC07EF0A0C0F2
:104490007FF0A1C080F09CEC9BF07DC09AF07EC0C4
:1044A0009BF07FC09CF080C09DF09AC07DF09BC0C7
:1044B0007EF09CC07FF09DC080F0000E0001816FF7
:1044C000000E826F000E836F3F0E846F9CEC9BF09A
:1044D0007DC096F07EC097F07FC098F080C099F0C4
:1044E00012000A0E0001A26578D0000E0001726F62
:1044F0000A0E716FA2C06FF00001706B56ECACF049
:104500000001D8906F3770370001D8906F3770373F
:10451000CF0E00016F25F66EFE0E00017021F76EC2
:10452000F86A000EF8220900F5CF81F00900F5CFF6
:1045300082F00900F5CF83F00A00F5CF84F0000E79
:104540000001786F0A0E776FA2C075F00001766BDC
:10455000E7ECAAF00001D890753776370001D890C3
:1045600075377637240E00017527000E000176237B
:10457000CF0E00017525F66EFE0E00017621F76E56
:10458000F86A000EF8220900F5CF7DF00900F5CF9A
:104590007EF00900F5CF7FF00A00F5CF80F09CECAB
:1045A0009BF07DC09EF07EC09FF07FC0A0F080C0D9
:1045B000A1F09EC07DF09FC07EF0A0C07FF0A1C0A2
:1045C00080F0000E0001816F000E826F000E836F7D
:1045D0003F0E846F9CEC9BF07BD70001A251040D31
:1045E000CF0EF324F66EFE0EF420F76EF86A000E7E
:1045F000F8220900F5CF7DF00900F5CF7EF0090023
:10460000F5CF7FF00A00F5CF80F0000E0001816F3A
:10461000000E826F000E836F3F0E846F9CEC9BF048
:104620007DC096F07EC097F07FC098F080C099F072
:104630001200BAECAEF0E806D8A4FBD7060E0001D3
:104640006F6F000E706F000E716F000E726FE90ECB
:104650000001736F000E0001746F080E0001756F8A
:10466000FC0E0001766FCDEC89F0DDC06FF0DEC08E
:1046700070F00001716B726B000E00ECA4F06FC063
:104680007DF070C07EF071C07FF072C080F0000ECF
:104690000001816F000E826F8B0E836F430E846F5B
:1046A000EFEC9DF07DC008F07EC009F07FC00AF0FD
:1046B00080C00BF0150E0001C16F010E0001C26F2A
:1046C000F90E0001C36FFF0E0001C46F08C0C5F0F2
:1046D00009C0C6F00AC0C7F00BC0C8F083EC85F073
:1046E000000E0101206F4CAC32D0100E25ECA8F06A
:1046F00079ECAEF0010E10ECAAF0890E0001806F8B
:10470000FF0E0001816F46ECAEF0020E10ECAAF035
:10471000C40E0001806FFF0E0001816F46ECAEF009
:10472000030E10ECAAF0B30E0001806FFF0E000123
:10473000816F46ECAEF0040E10ECAAF09E0E000164
:10474000806FFF0E0001816F46ECAEF04C9C020EB4
:1047500000017E6F0C0EFAECAEF00001E551D8B40A
:1047600016D00001E305D8A409D0EF0E0001806F38
:10477000FF0E0001816F46ECAEF011D0F40E000187
:10478000806FFF0E0001816F46ECAEF008D0EA0E9C
:104790000001806FFF0E0001816F46ECAEF000015A
:1047A000E405D8A409D0DE0E0001806FFF0E0001E1
:1047B000816F46ECAEF008D0D80E0001806FFF0E7E
:1047C0000001816F46ECAEF0020E0001E419D8A49E
:1047D00008D0E40E0001806FFF0E0001816F46ECEF
:1047E000AEF0030E00017E6F080EFAECAEF0150E6F
:1047F0000001806F010E0001816FA7ECAEF0120086
:104800000001776F000177510001D8B41ED000017C
:1048100072AF1BD06FC073F070C074F071C075F0D0
:1048200072C076F00001731F741F751F761F732B03
:10483000000E74237523762373C079F074C07AF068
:1048400075C07BF076C07CF008D06FC079F070C086
:104850007AF071C07BF072C07CF000016F510001F2
:1048600070110001711100017211D8A40AD0000E5C
:1048700000016F6F000E706F000E716F000E726F8F
:104880001200960E0001786F08D00001782B00010D
:10489000D8907C337B337A337933000E000179155D
:1048A0000001736F000E00017A150001746F000E95
:1048B00000017B150001756FFE0E00017C150001E3
:1048C000766F000173510001741100017511000130
:1048D0007611D8B410D0D9D70001782B010E000181
:1048E0007927000E7A237B237C230001D8907C3328
:1048F0007B337A337933000E000179150001736F31
:10490000000E00017A150001746F000E00017B1586
:104910000001756FFF0E00017C150001766F00012C
:104920007351000174110001751100017611D8B4A2
:1049300009D0D2D7000178070001D89079377A37AB
:104940007B377C3700017BBF04D0020E0001786109
:10495000F1D7000178B109D0FF0E00017917FF0EE1
:104960007A177F0E7B17FF0E7C170001D8907833E3
:1049700078C073F00001746B756B766B73C076F062
:104980000001756B746B736B000173510001791337
:104990000001745100017A130001755100017B136D
:1049A0000001765100017C13000177510001D8B459
:1049B00005D0000172AF02D000017C8F79C06FF08A
:1049C0007AC070F07BC071F07CC072F01200000100
:1049D000866F800E24ECAFF0000E706E000E716ECC
:1049E000000E726E00017F41E842C00B00017F6F34
:1049F00000017F5170120001805170120001865138
:104A0000711200017D39E842F80B00017D6F000151
:104A10007D517112000181A5718C000181B1718EEF
:104A200000017E517212000181B3728C000181512C
:104A3000600B606E00018151100BFF0AD8B46084D6
:104A400060CF50FF000E00016F6F000E706F000E00
:104A5000716F000E726FF70E0001736F010ECFECD5
:104A60009FF0000E00016F6F000E706F000E716FEF
:104A7000000E726FF70E0001736F020ECFEC9FF005
:104A80000FD0F70E0001876F07D000018769000182
:104A9000886928D000018769F70E0001886F22D04D
:104AA0009F0E0001826FFF0E0001836F0001815194
:104AB000600B0001846F856B00018251000184133B
:104AC000000183510001851300018551000AD8A41B
:104AD000E1D700018451BF0AD8B4D7D7600AD8B44F
:104AE000D0D7D8D7000E00016F6F000E706F000E88
:104AF000716F000E726F87C073F0000E00EC80F0D3
:104B0000000E00016F6F000E706F000E716F000ECF
:104B1000726F87C073F0010E00EC80F0000E000190
:104B20006F6F000E706F000E716F000E726F88C095
:104B300073F0020E00EC80F0000E00016F6F000EAB
:104B4000706F000E716F000E726F88C073F0030EED
:104B500000EC80F0000E00016F6F000E706F000E11
:104B6000716F000E726F88C073F0040E00EC80F05D
:104B7000000E00016F6F000E706F000E716F000E5F
:104B8000726F88C073F0050E00EC80F0000E24EC0C
:104B9000AFF0120071C077F00001786B796B000103
:104BA00070350001773701E378810001775100010A
:104BB0007F6F00017F51D8A40AD0000E00016F6FF3
:104BC000000E706F000E716F000E726F120075C0D4
:104BD00077F00001786B796B00017435000177374D
:104BE00001E378810001775100017E6F00017E5161
:104BF000D8A40AD0000E00016F6F000E706F000E77
:104C0000716F000E726F12000001708FFF0E0001B5
:104C10006F17FF0E00017017000E000171170001E1
:104C2000748FFF0E00017317FF0E00017417000E42
:104C300000017517000E00017A6F000E7B6F000EE9
:104C40007C6F000E7D6F7F0E00017F5F00017E5143
:104C5000980F00017F5F180E00017E6F0001D89051
:104C60007A377B377C377D370001735100016F5DE8
:104C70000001745100017059000175510001715912
:104C8000D8A00ED00001735100016F5F0001745174
:104C90000001705B000175510001715B00017A81B8
:104CA0000001D8906F377037713700017E2FD6D74B
:104CB00000017FAF1AD000017F51800A970FD8B052
:104CC0000AD0000E00016F6F000E706F000E716F42
:104CD000000E726F12000001D8907D337C337B335D
:104CE0007A3300017F3FF7D71BD0170E00017F6595
:104CF00012D0000E00016F6F000E706F000E716F0A
:104D0000000E726F12000001D8907A377B377C3723
:104D10007D3700017F0700017F510001D8A4F3D740
:104D20007AC06FF07BC070F07CC071F07DC072F013
:104D30001200000E00016F150001776F000E0001D8
:104D400070150001786F800E000171150001796FF8
:104D50007F0E0001721500017A6F0001775100018A
:104D600078110001791100017A11D8A409D0000E40
:104D700000016F6F000E706F000E716F000E726F8A
:104D8000000E000173150001776F000E000174150D
:104D90000001786F800E000175150001796F7F0E9C
:104DA0000001761500017A6F00017751000178113A
:104DB0000001791100017A11D8A409D0000E000178
:104DC000736F000E746F000E756F000E766F00012A
:104DD00072AF26D06FC077F070C078F071C079F0F4
:104DE00072C07AF00001771F781F791F7A1F772B26
:104DF000000E782379237A23000E00017725000125
:104E00006F6F000E000178210001706F000E00012D
:104E100079210001716F800E00017A210001726F0B
:104E2000000176AF26D073C077F074C078F075C0FB
:104E300079F076C07AF00001771F781F791F7A1F0A
:104E4000772B000E782379237A23000E0001772533
:104E50000001736F000E000178210001746F000ED5
:104E6000000179210001756F800E00017A21000197
:104E7000766F000E00016F1B000E701B000E711B81
:104E8000800E721B000E0001731B000E741B000EBF
:104E9000751B800E761B0001735100016F5D0001D0
:104EA00074510001705900017551000171590001E0
:104EB000765100017259D8B002D0D8901200D88033
:104EC000120000017135723500017C6F00017C51C8
:104ED000D8A40AD0000E00016F6F000E706F000E94
:104EE000716F000E726F120000017535763500018A
:104EF0007B6F00017B51D8A40AD0000E00016F6FB8
:104F0000000E706F000E716F000E726F12000001C4
:104F1000718FFF0E00016F17FF0E7017FF0E7117D4
:104F2000000E72170001758FFF0E00017317FF0E40
:104F30007417FF0E7517000E7617000E0001776FBD
:104F4000000E786F000E796F000E7A6F7F0E0001F1
:104F50007C5F00017B51A00F00017C5F200E0001EF
:104F60007B6F0001D8907737783779377A3700012F
:104F7000735100016F5D000174510001705900010F
:104F80007551000171590001765100017259D8A084
:104F900012D00001735100016F5F000174510001D4
:104FA000705B000175510001715B000176510001D9
:104FB000725B000177810001D8906F3770377137CD
:104FC000723700017B2FCDD700017CAF1AD00001D2
:104FD0007C51800A9F0FD8B00AD0000E00016F6F7D
:104FE000000E706F000E716F000E726F12000001E4
:104FF000D8907A3379337833773300017C3FF7D711
:105000001BD01F0E00017C6512D0000E00016F6FD7
:10501000000E706F000E716F000E726F12000001B3
:10502000D8907737783779377A3700017C070001D5
:105030007C510001D8A4F3D777C06FF078C070F02E
:1050400079C071F07AC072F0120000017D6F00012A
:105050007D513AECAFF08D948B928B90000E000155
:10506000766F640E756FF2ECADF0000E0001776F95
:10507000010E0001786F010E0001796F000ED5EC72
:10508000ADF0000E0001766F640E756FF2ECADF0BE
:10509000000E0001776F010E0001786F010E000114
:1050A000796F000ED5ECADF0000E0001766F0A0EA0
:1050B000756FF2ECADF0000E0001776F010E00018C
:1050C000786F010E0001796F000ED5ECADF0000E87
:1050D0000001776F010E0001786F000E0001796FFB
:1050E000000ED5ECADF0000E0001776F010E00014F
:1050F000786F000E0001796F000ED5ECADF0000E58
:105100000001776F000E0001786F000E0001796FCB
:10511000010ED5ECADF0000E0001776F000E00011E
:10512000786F000E0001796F000ED5ECADF0000E27
:105130000001776F000E0001786F000E0001796F9B
:10514000010ED5ECADF0000E0001776F000E0001EE
:10515000786F000E0001796F000ED5ECADF0000EF7
:105160000001776F000E0001786F010E0001796F6A
:10517000000ED5ECADF0000E0001776F000E0001BF
:10518000786F000E0001796F000ED5ECADF0010EC6
:105190000001776F010E0001786F000E0001796F3A
:1051A000000ED5ECADF079ECAEF0000E00017B6F97
:1051B000000E60ECAEF01200E9CF62F0EACF63F0CF
:1051C000E1CF64F0E2CF65F0D9CF66F0DACF67F0D7
:1051D000F3CF68F0F4CF69F0F6CF6AF0F7CF6BF059
:1051E000F8CF6CF0F5CF6DF0A4A2A4B001D074D0CC
:1051F0002FECAFF00009D8B46BD0060E3C6E010E58
:105200003D6EC2EC96F0010114A102D04C8801D091
:105210004C9806C10CF007C10DF008C10EF009C191
:105220000FF04C8E060E0C180D100E100F10D8A497
:105230001FD0000E00016E6F070E00016E6501D0D9
:1052400017D000016E51010D0A0EF324D96E010E24
:10525000F420DA6E00016E51010D010EF324E16EAF
:10526000000EF420E26EDFCFE7FF00016E2BE4D7E3
:10527000020E0C180D100E100F10D8B44CA828D028
:1052800020C014F021C015F022C016F023C017F082
:10529000030E2A6E0D0EE82EFED700F0DDECAEF008
:1052A000E806D8A4FBD7020E3C6E000E3D6E000E41
:1052B0003E6E000E3F6E2A0E406E000E416E080ECE
:1052C000426EBC0E436EEDEC90F04C864C904C9AC6
:1052D000A492A4908C848C866DC0F5FF6CC0F8FFFE
:1052E0006BC0F7FF6AC0F6FF69C0F4FF68C0F3FF48
:1052F00067C0DAFF66C0D9FF65C0E2FF64C0E1FFA6
:1053000063C0EAFF62C0E9FF61C0FBFF60C0FAFF53
:105310004E9211000001B935BA350001C06F00018D
:10532000C051D8A40AD0000E0001B76F000EB86FAC
:10533000000EB96F000EBA6F1200B7C0BBF0B8C054
:10534000BCF0B9C0BDF0BAC0BEF0200E06D000015E
:10535000D890BE33BD33BC33BB33E82EF8D7000141
:10536000BB510001BF6F0001B98FFF0E0001B717DD
:10537000FF0EB817FF0EB917000EBA17960E0001F0
:10538000C05F0001C0AF1AD00001C051800A970F62
:10539000D8B00AD0000E0001B76F000EB86F000E33
:1053A000B96F000EBA6F12000001D890BA33B9334A
:1053B000B833B7330001C03FF7D71BD01F0E000131
:1053C000C06512D0000E0001B76F000EB86F000E5E
:1053D000B96F000EBA6F12000001D890B737B83716
:1053E000B937BA370001C0070001C0510001D8A485
:1053F000F3D70001BF510001D8B409D00001BA1F92
:10540000B91FB81FB76D000EB823B923BA23B7C0B0
:10541000B7F0B8C0B8F0B9C0B9F0BAC0BAF012006D
:1054200000017B6F64D0000E0001776F000E000159
:10543000786F000E0001796F010ED5ECADF0000E13
:105440000001776F000E0001786F000E0001796F88
:10545000000ED5ECADF01200010E0001776F000ECA
:105460000001786F000E0001796F010ED5ECADF0F0
:10547000000E0001776F000E0001786F000E000132
:10548000796F000ED5ECADF01200000E0001776FC1
:10549000000E0001786F010E0001796F010ED5EC4E
:1054A000ADF0010E0001776F000E0001786F000E65
:1054B0000001796F000ED5ECADF01200010E000175
:1054C000776F000E0001786F010E0001796F010EF9
:1054D000D5ECADF0010E0001776F000E0001786F82
:1054E000000E0001796F000ED5ECADF01200000146
:1054F0007B51010AD8B497D7030AD8B4ADD7010AB3
:10550000D8B4C3D7070AD8A41200D8D7000E896E22
:105510001F0E926E000E8A6EFB0E936E000E8B6E47
:10552000F00E946E000E8C6E000E956E000E8D6E59
:10553000000E966E060E00017D6F050E00017E6F57
:10554000010E00017F6F030E0001806F9D0E0001B0
:10555000816F040EE7ECA4F0A192A492A490D08EE7
:10556000A582A580A2920D0EC16EC298C296C29469
:10557000C08AC088C096C084C092C080C09EC280CD
:10558000100E25ECA8F079ECAEF0010E10ECAAF0AC
:10559000D00E0001806FFF0E0001816F46ECAEF06F
:1055A000010E0001766F2C0E756FF2ECADF0839456
:1055B0008396630EB36EC00EB26EA382A380A082E8
:1055C000010EB16E79ECAEF0F28EF28C1200000E8C
:1055D00000017A6F000178AF08D00001776D781F65
:1055E000D8B0782B010E00017A6F000176AF08D099
:1055F0000001756D761FD8B0762B010E00017A1B65
:10560000000E00017C6F000E7B6F000177510001DE
:105610007811D8B42CD0010E0001796F06D00001AA
:10562000D890773778370001792B000178AFF7D71A
:105630000001D8907B377C37000177510001755D00
:105640000001785100017659D8A00AD000017751A5
:105650000001755F000178510001765B00017B81DC
:105660000001D890783377330001792FE1D700011A
:105670007A510001D8B405D000017B6D7C1FD8B0F1
:105680007C2B7BC075F07CC076F01200000E000110
:10569000776F000E786F000E796F000E7A6F000141
:1056A0007351000174110001751100017611D8B415
:1056B00042D0010E00017B6F08D00001D8907337F3
:1056C00074377537763700017B2B000176AFF5D73D
:1056D0000001D8907737783779377A3700017351DE
:1056E00000016F5D00017451000170590001755196
:1056F000000171590001765100017259D8A012D0F1
:105700000001735100016F5F000174510001705B73
:10571000000175510001715B000176510001725B5F
:10572000000177810001D890763375337433733379
:1057300000017B2FCDD777C06FF078C070F079C0B3
:1057400071F07AC072F01200BAECAEF0E806D8A49C
:10575000FBD7050E00016F6F000E706F000E716FAA
:10576000000E726FEA0E0001736F000E0001746F7D
:10577000080E0001756FBC0E0001766FCDEC89F04C
:10578000E1C0E9F00001E2510001EA6FE3C0EBF093
:10579000BAECAEF0E806D8A4FBD7030E00016F6F99
:1057A000000E706F000E716F000E726FE90E000137
:1057B000736F000E0001746F080E0001756FBC0E50
:1057C0000001766FCDEC89F0BAECAEF0E806D8A413
:1057D000FBD7040E00016F6F000E706F000E716F2B
:1057E000000E726FE80E0001736F000E0001746FFF
:1057F000080E0001756FBD0E0001766FCDEC89F0CB
:105800001200020E0C180D100E100F10D8A415D097
:105810004CA80CD020C014F021C015F022C016F006
:1058200023C017F04C864C904C9A07D02A04D8B469
:105830004C80020E2A18D8B44C8A060E0C180D1093
:105840000E100F10D8B44CB827D002C024F0256A2F
:10585000245000016F6F0150246E6FC025F004C00A
:1058600026F0276A265000016F6F0350266E6FC026
:1058700027F02450262400016F6F255027200001B7
:10588000706FD890000170310001716F00016F31AD
:105890000001DD6F71C0DEF0090E0C180D100E1046
:1058A0000F10D8A412002AC028F01200000E000128
:1058B000746F000170AF08D000016F6D701FD8B019
:1058C000702B010E0001746F000172AF05D0000152
:1058D000716D721FD8B0722B0001715100017211ED
