:0400000060EF00F0BD
:0E0008004E82FACF62F0FBCF63F065EFA3F0FB
:100018004E80D8CF27F0E8CF28F0E0CF29F0FACFEC
:100028002AF0FBCF2BF0E9CF2CF0EACF2DF0E1CF6F
:100038002EF0E2CF2FF0D9CF30F0DACF31F0F3CF76
:1000480032F0F4CF33F0F6CF34F0F7CF35F0F8CF05
:1000580036F0F5CF37F0A1A20BD0010E1926000E0D
:100068001A221B221C22630EB36EC00EB26EA1921E
:1000780037C0F5FF36C0F8FF35C0F7FF34C0F6FFCC
:1000880033C0F4FF32C0F3FF31C0DAFF30C0D9FF0C
:100098002FC0E2FF2EC0E1FF2DC0EAFF2CC0E9FF10
:1000A8002BC0FBFF2AC0FAFF29C0E0FF28C0E8FFE9
:0C00B80027C0D8FF4E901000F5EFB1F00B
:10FDF200000000803FCDCCCC3D0AD7233C6F12835C
:10FE02003A17B7D138ACC52737BD37863595BFD637
:10FE12003377CC2B325F708930FFE6DB2E08E53C6E
:10FE22001E6042A20D0000803F000020410000C879
:10FE32004200007A4400401C460050C3470024742C
:10FE4200498096184B20BCBE4C286B6E4EF90215A9
:10FE520050EC78AD60CAF24971010000000A00005E
:10FE62000064000000E803000010270000A08601E3
:10FE72000040420F008096980000E1F50500CA9A02
:10FE82003B2020202020434F4D504C4554454421D7
:10FE92002020202020002020205354415254205062
:10FEA20041524B494E472020202000202020205341
:10FEB20055434345535346554C4C5920202020006E
:10FEC20020205072657373207468652062757474A3
:10FED2006F6E202000505245535320544845204213
:10FEE2005554544F4E20544F2000205041524B49FC
:10FEF2004E472050524F434544555245532000200F
:10FF0200756E74696C206E657874206D65737361AB
:10FF1200676520002D2044495354414E43452052E9
:10FF2200454143484544202D003D205041524B4914
:10FF32004E47204D45535341474553203D003D3DDB
:10FF42003E2056454849434C4520204F4646203CDA
:10FF52003D3D003D3D3D2056454849434C452044EA
:10FF6200415441203D3D3D003D3D3D3D3D3D3D3DFA
:10FF72003D3D3D3D3D3D3D3D3D3D3D3D002D3E2018
:10FF8200204B454550204D4F56494E4720203C2D91
:10FF92003F00205041524B494E4720535041434568
:10FFA20020464F554E440053706565643A20302E0A
:10FFB2003030204B6D2F68005061726B206173737B
:10FFC2006973743A2000446972656374696F6E3AAA
:10FFD20020004F46462020202000534541524348EE
:10FFE2002000446174613A200050202020004657CE
:0EFFF200442000424B574400252E326600008A
:020000040001F9
:100000000001796F000179510001D8A458D0000196
:100010007429D8A454D00F01019770C075F071C035
:1000200076F072C077F073C078F0040E06D000014D
:10003000D8907833773376337533E82EF8D775C098
:100040007AF076C07BF077C07CF078C07DF000015C
:100050007A5100017A6F7B6B7C6B7D6B7AC000FFFD
:10006000070E0001701500017A6F000E0001711576
:1000700000017B6F000E0001721500017C6F000E05
:100080000001731500017D6F7AC075F07BC076F0BA
:100090007CC077F07DC078F0050ED89000017537F0
:1000A000763777377837E82EF8D775C07AF076C08C
:1000B0007BF077C07CF078C07DF07AC001FF000152
:1000C0007905D8A458D000017429D8A454D00F01C0
:1000D000059770C075F071C076F072C077F073C08C
:1000E00078F0040E06D00001D89078337733763359
:1000F0007533E82EF8D775C07AF076C07BF077C0FC
:100100007CF078C07DF000017A5100017A6F7B6B42
:100110007C6B7D6B7AC004FF070E00017015000137
:100120007A6F000E0001711500017B6F000E000157
:10013000721500017C6F000E0001731500017D6FC8
:100140007AC075F07BC076F07CC077F07DC078F027
:10015000050ED89000017537763777377837E82E57
:10016000F8D775C07AF076C07BF077C07CF078C0A5
:100170007DF07AC005FF020E00017919D8A458D08D
:1001800000017429D8A454D00F01099770C075F0EC
:1001900071C076F072C077F073C078F0040E06D0AC
:1001A0000001D8907833773376337533E82EF8D75B
:1001B00075C07AF076C07BF077C07CF078C07DF0B7
:1001C00000017A5100017A6F7B6B7C6B7D6B7AC08A
:1001D00008FF070E0001701500017A6F000E000184
:1001E000711500017B6F000E0001721500017C6F1C
:1001F000000E0001731500017D6F7AC075F07BC0A1
:1002000076F07CC077F07DC078F0050ED8900001C4
:100210007537763777377837E82EF8D775C07AF0A4
:1002200076C07BF077C07CF078C07DF07AC009FFA3
:10023000030E00017919D8A458D000017429D8A45C
:1002400054D00F010D9770C075F071C076F072C078
:1002500077F073C078F0040E06D00001D8907833A0
:10026000773376337533E82EF8D775C07AF076C0D9
:100270007BF077C07CF078C07DF000017A510001FE
:100280007A6F7B6B7C6B7D6B7AC00CFF070E000175
:10029000701500017A6F000E0001711500017B6F6F
:1002A000000E0001721500017C6F000E0001731535
:1002B00000017D6F7AC075F07BC076F07CC077F06E
:1002C0007DC078F0050ED890000175377637773706
:1002D0007837E82EF8D775C07AF076C07BF077C013
:1002E0007CF078C07DF07AC00DFF040E0001791912
:1002F000D8A458D000017429D8A454D00F01119764
:1003000070C075F071C076F072C077F073C078F08D
:10031000040E06D00001D8907833773376337533E6
:10032000E82EF8D775C07AF076C07BF077C07CF005
:1003300078C07DF000017A5100017A6F7B6B7C6B95
:100340007D6B7AC010FF070E0001701500017A6FF7
:10035000000E0001711500017B6F000E0001721587
:1003600000017C6F000E0001731500017D6F7AC0E3
:1003700075F07BC076F07CC077F07DC078F0050E1C
:10038000D89000017537763777377837E82EF8D769
:1003900075C07AF076C07BF077C07CF078C07DF0D5
:1003A0007AC011FF050E00017919D8A458D00001B8
:1003B0007429D8A454D00F01159770C075F071C07E
:1003C00076F072C077F073C078F0040E06D00001AA
:1003D000D8907833773376337533E82EF8D775C0F5
:1003E0007AF076C07BF077C07CF078C07DF00001B9
:1003F0007A5100017A6F7B6B7C6B7D6B7AC014FF46
:10040000070E0001701500017A6F000E00017115D2
:1004100000017B6F000E0001721500017C6F000E61
:100420000001731500017D6F7AC075F07BC076F016
:100430007CC077F07DC078F0050ED890000175374C
:10044000763777377837E82EF8D775C07AF076C0E8
:100450007BF077C07CF078C07DF07AC015FF00019A
:1004600079510001D8A489D0F70E00017419D8A4DD
:1004700084D00F0101870001705100017A6F7B6BFE
:100480007C6B7D6B7AC003FF000E000170150001CC
:100490007A6FFF0E0001711500017B6F000E0001E5
:1004A000721500017C6F000E0001731500017D6F55
:1004B0007AC075F07BC076F07CC077F07DC078F0B4
:1004C00076C075F077C076F078C077F00001786B71
:1004D00075C07AF076C07BF077C07CF078C07DF094
:1004E0007AC002FF000172A103D00F01018102D086
:1004F0000F010191000172A303D00F01018302D00B
:100500000F010193000172A503D00F01018B02D0EE
:100510000F01019B000172A703D00F01018D02D0D2
:100520000F01019D000172A903D00F01018F02D0BC
:100530000F01019F70C075F071C076F072C077F046
:1005400073C078F0160E06D00001D8907833773358
:1005500076337533E82EF8D775C07AF076C07BF025
:1005600077C07CF078C07DF000017A5100017A6F8D
:100570007B6B7C6B7D6B7AC000FF00017905D8A492
:1005800089D0F70E00017419D8A484D00F01058713
:100590000001705100017A6F7B6B7C6B7D6B7AC0C0
:1005A00007FF000E0001701500017A6FFF0E0001B9
:1005B000711500017B6F000E0001721500017C6F48
:1005C000000E0001731500017D6F7AC075F07BC0CD
:1005D00076F07CC077F07DC078F076C075F077C09B
:1005E00076F078C077F00001786B75C07AF076C04D
:1005F0007BF077C07CF078C07DF07AC006FF000108
:1006000072A103D00F01058102D00F0105910001F5
:1006100072A303D00F01058302D00F0105930001DF
:1006200072A503D00F01058B02D00F01059B0001BD
:1006300072A703D00F01058D02D00F01059D0001A7
:1006400072A903D00F01058F02D00F01059F70C062
:1006500075F071C076F072C077F073C078F0160E46
:1006600006D00001D8907833773376337533E82E8F
:10067000F8D775C07AF076C07BF077C07CF078C090
:100680007DF000017A5100017A6F7B6B7C6B7D6B92
:100690007AC004FF020E00017919D8A489D0F70EA0
:1006A00000017419D8A484D00F010987000170518A
:1006B00000017A6F7B6B7C6B7D6B7AC00BFF000E49
:1006C0000001701500017A6FFF0E00017115000125
:1006D0007B6F000E0001721500017C6F000E00019F
:1006E000731500017D6F7AC075F07BC076F07CC019
:1006F00077F07DC078F076C075F077C076F078C07E
:1007000077F00001786B75C07AF076C07BF077C027
:100710007CF078C07DF07AC00AFF000172A103D09E
:100720000F01098102D00F010991000172A303D0CA
:100730000F01098302D00F010993000172A503D0B4
:100740000F01098B02D00F01099B000172A703D092
:100750000F01098D02D00F01099D000172A903D07C
:100760000F01098F02D00F01099F70C075F071C091
:1007700076F072C077F073C078F0160E06D00001E4
:10078000D8907833773376337533E82EF8D775C041
:100790007AF076C07BF077C07CF078C07DF0000105
:1007A0007A5100017A6F7B6B7C6B7D6B7AC008FF9E
:1007B000030E00017919D8A489D0F70E000174192D
:1007C000D8A484D00F010D870001705100017A6F09
:1007D0007B6B7C6B7D6B7AC00FFF000E0001701588
:1007E00000017A6FFF0E0001711500017B6F000E92
:1007F0000001721500017C6F000E000173150001ED
:100800007D6F7AC075F07BC076F07CC077F07DC0DC
:1008100078F076C075F077C076F078C077F0000198
:10082000786B75C07AF076C07BF077C07CF078C0CA
:100830007DF07AC00EFF000172A103D00F010D817F
:1008400002D00F010D91000172A303D00F010D839F
:1008500002D00F010D93000172A503D00F010D8B83
:1008600002D00F010D9B000172A703D00F010D8D67
:1008700002D00F010D9D000172A903D00F010D8F51
:1008800002D00F010D9F70C075F071C076F072C07C
:1008900077F073C078F0160E06D00001D890783348
:1008A000773376337533E82EF8D775C07AF076C093
:1008B0007BF077C07CF078C07DF000017A510001B8
:1008C0007A6F7B6B7C6B7D6B7AC00CFF040E000132
:1008D0007919D8A489D0F70E00017419D8A484D04E
:1008E0000F0111870001705100017A6F7B6B7C6BE7
:1008F0007D6B7AC013FF000E0001701500017A6F46
:10090000FF0E0001711500017B6F000E00017215D2
:1009100000017C6F000E0001731500017D6F7AC02D
:1009200075F07BC076F07CC077F07DC078F076C043
:1009300075F077C076F078C077F00001786B75C0FD
:100940007AF076C07BF077C07CF078C07DF07AC01A
:1009500012FF000172A103D00F01118102D00F011B
:100960001191000172A303D00F01118302D00F0176
:100970001193000172A503D00F01118B02D00F015A
:10098000119B000172A703D00F01118D02D00F013E
:10099000119D000172A903D00F01118F02D00F0128
:1009A000119F70C075F071C076F072C077F073C09F
:1009B00078F0160E06D00001D8907833773376336E
:1009C0007533E82EF8D775C07AF076C07BF077C023
:1009D0007CF078C07DF000017A5100017A6F7B6B6A
:1009E0007C6B7D6B7AC010FF050E00017919D8A4CD
:1009F0001200F70E00017419D8A412000F01158718
:100A00000001705100017A6F7B6B7C6B7D6B7AC04B
:100A100017FF000E0001701500017A6FFF0E000134
:100A2000711500017B6F000E0001721500017C6FD3
:100A3000000E0001731500017D6F7AC075F07BC058
:100A400076F07CC077F07DC078F076C075F077C026
:100A500076F078C077F00001786B75C07AF076C0D8
:100A60007BF077C07CF078C07DF07AC016FF000183
:100A700072A103D00F01158102D00F011591000161
:100A800072A303D00F01158302D00F01159300014B
:100A900072A503D00F01158B02D00F01159B000129
:100AA00072A703D00F01158D02D00F01159D000113
:100AB00072A903D00F01158F02D00F01159F70C0CE
:100AC00075F071C076F072C077F073C078F0160ED2
:100AD00006D00001D8907833773376337533E82E1B
:100AE000F8D775C07AF076C07BF077C07CF078C01C
:100AF0007DF000017A5100017A6F7B6B7C6B7D6B1E
:100B00007AC014FF1200C60E0101386F000E0101F9
:100B1000396FB5EF89F0250E01014C19D8B408D012
:100B2000C2C0D9FFC3C0DAFF4CC1DFFFB2EF89F00A
:100B3000000E01013B6F000E3A6FC4C0F6FFC5C046
:100B4000F7FF000EF86E0800F5502E0AD8A43DD02D
:100B500001013B8D0001C44BC52B000E0101476F05
:100B6000000E466F25D046C170F047C171F0000EEF
:100B70000001736F0A0E726F89ECB2F0C4C0F6FF09
:100B8000C5C0F7FF000EF86E0800F5500001702791
:100B9000000E00017123D00E000170250101466F87
:100BA000FF0E000171210101476F0001C44BC52BED
:100BB000C4C0F6FFC5C0F7FF000EF86E0800F55080
:100BC00021ECB3F0D8A00CD0CED7000E0101476FB6
:100BD000000E466F01013B8903D001013B8515D012
:100BE000C4C0F6FFC5C0F7FF0001C44BC52B000E03
:100BF000F86E0800F5CF4CF101014C51000AD8B451
:100C0000C5D3660AD8B4E9D7B0D3070E01013B15A6
:100C1000D8B453D301013BA905D0000E0101476FA1
:100C2000060E466F38C1D9FF39C1DAFFDECF48F171
:100C3000DECF49F1DECF4AF1DECF4BF1040E0101E8
:100C40003827000E392301014BAF15D048C197F06A
:100C500049C198F04AC199F04BC19AF051ECB2F0F9
:100C600097C048F198C049F199C04AF19AC04BF138
:100C7000030E01013A13000E0101416F000E406F97
:100C8000010148510101491101014A1101014B11B2
:100C9000D8B48ED001014A354B35820F0101406F27
:100CA0000101416BFF0E412301014007D8A041071C
:100CB00040C170F041C171F0000E0001736F030E6E
:100CC000726F89ECB2F070C040F171C041F140C167
:100CD00076F041C177F0000E0001796F0A0E786F4F
:100CE00083ECACF076C040F177C041F1010141AF37
:100CF00004D001014007D8A041070101405100087C
:100D000081EC94F097C042F198C043F199C044F14E
:100D10009AC045F142C17EF043C17FF044C180F0EA
:100D200045C181F048C182F049C183F04AC184F0D5
:100D30004BC185F0E8EC9BF07EC042F17FC043F1EF
:100D400080C044F181C045F142C170F043C171F0EF
:100D500044C172F045C173F0000E0001746F000EC3
:100D6000756F800E766F3F0E776FB7ECA8F00001BD
:100D7000D8B005D001014007D8A0410719D042C121
:100D800070F043C171F044C172F045C173F0000EC0
:100D90000001746F000E756F200E766F410E776F35
:100DA000B7ECA8F00001D8A003D00101404B412BC3
:100DB000010147BF08D00101475123E10D0E010198
:100DC000465DD8B01ED048C1A4F049C1A5F04AC1C3
:100DD000A6F04BC1A7F001014651EAECA1F097C083
:100DE000A8F098C0A9F099C0AAF09AC0ABF094EC12
:100DF00099F0A4C048F1A5C049F1A6C04AF1A7C026
:100E00004BF1010141BF08D0010141512EE10A0E11
:100E10000101405DD8B029D00101485101014911BB
:100E200001014A1101014B11D8B46DD048C1B8F08D
:100E300049C1B9F04AC1BAF04BC1BBF087ECABF085
:100E40000001B8510001B9110001BA110001BB1134
:100E5000D8A459D0010141BF56D00101415105E14B
:100E6000020E0101405DD8A04ED042C170F043C1D6
:100E700071F044C172F045C173F05F0E0001746FF0
:100E8000700E756F890E766F400E776FB7ECA8F015
:100E90000001D8B003D00101F70E02D00101F80E15
:100EA0004027FF0E41230101405181EC94F097C08F
:100EB00042F198C043F199C044F19AC045F148C14C
:100EC00070F049C171F04AC172F04BC173F042C178
:100ED00074F043C175F044C176F045C177F07FEC02
:100EE000A9F070C03CF171C03DF172C03EF173C019
:100EF0003FF1000E0101486F000E496F000E4A6F6E
:100F0000000E4B6F3CD048C1B8F049C1B9F04AC19E
:100F1000BAF04BC1BBF087ECABF0B8C03CF1B9C044
:100F20003DF1BAC03EF1BBC03FF148C1B8F049C184
:100F3000B9F04AC1BAF04BC1BBF03CC170F03DC141
:100F400071F03EC172F03FC173F0000E67ECA4F087
:100F500070C0BCF071C0BDF072C0BEF073C0BFF015
:100F6000ADECB1F0B8C048F1B9C049F1BAC04AF12E
:100F7000BBC04BF1000E0101416F000E406F010E2E
:100F800001014C6F0A0E01014C19D8B421D00101A6
:100F90004C51040D5B0EF324F66EFE0EF420F76E3A
:100FA000F86A000EF8220900F55001013C5D0900C5
:100FB000F55001013D590900F55001013E59090064
:100FC000F55001013F59D8A003D001014C2BDAD7CD
:100FD000030E01013A150001CA6F000E01013B1515
:100FE0000001CB6F0001CA510001CB11D8B458D019
:100FF000C2C0D9FFC3C0DAFF2D0E50D00001C24BD2
:10100000C32B4ED03CC170F03DC171F03EC172F0B7
:101010003FC173F001014C51040D5B0EF324F66ED9
:10102000FE0EF420F76EF86A000EF8220900F5CFE4
:1010300074F00900F5CF75F00900F5CF76F00A00DD
:10104000F5CF77F041ECADF070C042F171C043F1E3
:1010500072C044F173C045F142C170F043C171F0F8
:1010600044C172F045C173F00A0E0001746F000EA6
:10107000756F000E766F000E776FA0ECAFF070C04A
:1010800042F171C043F172C044F173C045F10101F6
:101090004251300FC2C0D9FFC3C0DAFFDF6EAED7F6
:1010A00001014C0701014C29D8B40ED0ABD7C2C006
:1010B000D9FFC3C0DAFF300EDF6E0001C24BC32B75
:1010C00001014007D8A04107010141BF07D001013C
:1010D0004151EDE101014005D8B0E9D7010147BF19
:1010E0000CD00101475105E1090E0101465DD8A070
:1010F00004D0080E01014C6F02D046C14CF1010131
:101100004C510101465F000E01014CBFFF0E010171
:10111000475B01014C510101D8B409D0C2C0D9FFCD
:10112000C3C0DAFF2E0EDF6E0001C24BC32B0101DC
:101130004C5181EC94F097C034F198C035F199C0CE
:1011400036F19AC037F148C182F049C183F04AC1F3
:1011500084F04BC185F034C17EF035C17FF036C1DB
:1011600080F037C181F0E8EC9BF07EC0B8F07FC022
:10117000B9F080C0BAF081C0BBF087ECABF0B8C06A
:101180003CF1B9C03DF1BAC03EF1BBC03FF17AD0ED
:101190003CC170F03DC171F03EC172F03FC173F0CF
:1011A00001014C51040D5B0EF324F66EFE0EF4208B
:1011B000F76EF86A000EF8220900F5CF74F0090006
:1011C000F5CF75F00900F5CF76F00A00F5CF77F08E
:1011D00041ECADF070C042F171C043F172C044F116
:1011E00073C045F142C170F043C171F044C172F067
:1011F00045C173F00A0E0001746F000E756F000E8A
:10120000766F000E776FA0ECAFF070C042F171C046
:1012100043F172C044F173C045F101014251300FF6
:10122000C2C0D9FFC3C0DAFFDF6E0001C24BC32BBF
:101230003CC170F03DC171F03EC172F03FC173F02E
:1012400001014C51040D5B0EF324F66EFE0EF420EA
:10125000F76EF86A000EF8220900F5CF74F0090065
:10126000F5CF75F00900F5CF76F00A00F5CF77F0ED
:10127000A0ECAFF070C03CF171C03DF172C03EF126
:1012800073C03FF101014C0701014C29D8B40ED0C5
:101290007FD7C2C0D9FFC3C0DAFF300EDF6E0001B6
:1012A000C24BC32B01014607D8A047070101465195
:1012B00001014711D8B459D0ECD7010146510101C1
:1012C0004711D8A40DD001013C5101013D1101018C
:1012D0003E1101013F11D8A403D00101464B472B19
:1012E000800E01014CBF7F0E0001CA6F0101465103
:1012F00001014C5D01014751800A0001CA59D8B073
:1013000003D046C14CF118D001014751800A0001B9
:10131000CA6F01014C510101465D800E01014CBFB5
:101320007F0E0001CA59D8B007D001014C5101010C
:10133000466F476B46BF4707030E01013A15000190
:10134000CA6F000E01013B150001CB6F0001CA51AD
:101350000001CB11D8B409D0C2C0D9FFC3C0DAFF95
:101360002D0EDF6E0001C24BC32BC4C0F6FFC5C0FB
:10137000F7FF0001C44BC52B000EF86E0800F5CF37
:101380004CF101014C51D8A48BEF85F0C2C0D9FFBC
:10139000C3C0DAFF000EDF6E12000F0140B73FD16D
:1013A00076C045FF000177AD03D00F01458D02D017
:1013B0000F01459D000177A779D000017051000110
:1013C0007C6F7D6B7E6B7F6B7CC044FF000E0001E9
:1013D000701500017C6FFF0E0001711500017D6F1B
:1013E000000E0001721500017E6F000E00017315E2
:1013F00000017F6F7CC078F07DC079F07EC07AF00C
:101400007FC07BF079C078F07AC079F07BC07AF049
:1014100000017B6B78C07CF079C07DF07AC07EF0F3
:101420007BC07FF07CC043FF000E0F01426F0F01B5
:101430004287000172A102D00F014281000172A314
:1014400002D00F014283000172A502D00F01428B2E
:10145000000172A702D00F01428D000172A902D0D3
:101460000F01428F70C078F071C079F072C07AF0CD
:1014700073C07BF0160E06D00001D8907B337A3310
:1014800079337833E82EF8D778C07CF079C07DF0D6
:101490007AC07EF07BC07FF000017C5100017C6F40
:1014A0007D6B7E6B7F6B7CC041FF59D00F014297F3
:1014B00070C078F071C079F072C07AF073C07BF0C0
:1014C000040E06D00001D8907B337A337933783319
:1014D000E82EF8D778C07CF079C07DF07AC07EF035
:1014E0007BC07FF000017C5100017C6F7D6B7E6BC7
:1014F0007F6B7CC041FF070E0001701500017C6FFF
:10150000000E0001711500017D6F000E00017215C3
:1015100000017E6F000E0001731500017F6F7CC01B
:1015200078F07DC079F07EC07AF07FC07BF0050E48
:10153000D8900001783779377A377B37E82EF8D79B
:1015400078C07CF079C07DF07AC07EF07BC07FF0FF
:101550000F0142511F0B0F01426F7CC042FF00017F
:1015600077A103D00F01408102D00F01409100010B
:1015700077A303D00F01408302D00F01409374C0C2
:10158000D9FF75C0DAFFDF500F01466F000120EE72
:1015900001F07451D9267551DA22DF500F01476FDF
:1015A000000120EE02F07451D9267551DA22DF5085
:1015B0000F01486F000120EE03F07451D9267551D8
:1015C000DA22DF500F01496F000120EE04F0745160
:1015D000D9267551DA22DF500F014A6F000120EE43
:1015E00005F07451D9267551DA22DF500F014B6F87
:1015F000000120EE06F07451D9267551DA22DF5031
:101600000F014C6F000120EE07F07451D92675517F
:10161000DA22DF500F014D6F0F01408712000F01DA
:1016200030B73FD176C035FF000177AD03D00F0151
:10163000358D02D00F01359D000177A779D00001CB
:10164000705100017C6F7D6B7E6B7F6B7CC034FFC3
:10165000000E0001701500017C6FFF0E0001711576
:1016600000017D6F000E0001721500017E6F000EFB
:101670000001731500017F6F7CC078F07DC079F0A8
:101680007EC07AF07FC07BF079C078F07AC079F0C4
:101690007BC07AF000017B6B78C07CF079C07DF074
:1016A0007AC07EF07BC07FF07CC033FF000E0F015C
:1016B000326F0F013287000172A102D00F01328117
:1016C000000172A302D00F013283000172A502D083
:1016D0000F01328B000172A702D00F01328D000181
:1016E00072A902D00F01328F70C078F071C079F00A
:1016F00072C07AF073C07BF0160E06D00001D8904D
:101700007B337A3379337833E82EF8D778C07CF09E
:1017100079C07DF07AC07EF07BC07FF000017C5103
:1017200000017C6F7D6B7E6B7F6B7CC031FF59D07D
:101730000F01329770C078F071C079F072C07AF002
:1017400073C07BF0040E06D00001D8907B337A334F
:1017500079337833E82EF8D778C07CF079C07DF003
:101760007AC07EF07BC07FF000017C5100017C6F6D
:101770007D6B7E6B7F6B7CC031FF070E00017015A7
:1017800000017C6F000E0001711500017D6F000EDD
:101790000001721500017E6F000E0001731500013B
:1017A0007F6F7CC078F07DC079F07EC07AF07FC01A
:1017B0007BF0050ED8900001783779377A377B3780
:1017C000E82EF8D778C07CF079C07DF07AC07EF042
:1017D0007BC07FF00F0132511F0B0F01326F7CC0B5
:1017E00032FF000177A103D00F01308102D00F0139
:1017F0003091000177A303D00F01308302D00F0195
:10180000309374C0D9FF75C0DAFFDF500F01366F17
:10181000000120EE01F07451D9267551DA22DF5013
:101820000F01376F000120EE02F07451D926755177
:10183000DA22DF500F01386F000120EE03F07451FF
:10184000D9267551DA22DF500F01396F000120EEE1
:1018500004F07451D9267551DA22DF500F013A6F26
:10186000000120EE05F07451D9267551DA22DF50BF
:101870000F013B6F000120EE06F07451D92675511F
:10188000DA22DF500F013C6F000120EE07F07451A7
:10189000D9267551DA22DF500F013D6F0F013087D5
:1018A00012000F0120B7120076C025FF000177ADAE
:1018B00003D00F01258D02D00F01259D000177A7D0
:1018C00079D00001705100017C6F7D6B7E6B7F6B66
:1018D0007CC024FF000E0001701500017C6FFF0E1C
:1018E0000001711500017D6F000E000172150001ED
:1018F0007E6F000E0001731500017F6F7CC078F0D1
:101900007DC079F07EC07AF07FC07BF079C078F03E
:101910007AC079F07BC07AF000017B6B78C07CF0F4
:1019200079C07DF07AC07EF07BC07FF07CC023FF61
:10193000000E0F01226F0F012287000172A102D059
:101940000F012281000172A302D00F012283000146
:1019500072A502D00F01228B000172A702D00F01E5
:10196000228D000172A902D00F01228F70C078F081
:1019700071C079F072C07AF073C07BF0160E06D099
:101980000001D8907B337A3379337833E82EF8D757
:1019900078C07CF079C07DF07AC07EF07BC07FF0AB
:1019A00000017C5100017C6F7D6B7E6B7F6B7CC086
:1019B00021FF59D00F01229770C078F071C079F0E3
:1019C00072C07AF073C07BF0040E06D00001D8908C
:1019D0007B337A3379337833E82EF8D778C07CF0CC
:1019E00079C07DF07AC07EF07BC07FF000017C5131
:1019F00000017C6F7D6B7E6B7F6B7CC021FF070ECF
:101A00000001701500017C6F000E000171150001CE
:101A10007D6F000E0001721500017E6F000E000147
:101A2000731500017F6F7CC078F07DC079F07EC0B7
:101A30007AF07FC07BF0050ED890000178377937B7
:101A40007A377B37E82EF8D778C07CF079C07DF004
:101A50007AC07EF07BC07FF00F0122511F0B0F0177
:101A6000226F7CC022FF000177A103D00F012081EB
:101A700002D00F012091000177A303D00F01208332
:101A800002D00F01209374C0D9FF75C0DAFFDF5078
:101A90000F01266F000120EE01F07451D926755117
:101AA000DA22DF500F01276F000120EE02F074519F
:101AB000D9267551DA22DF500F01286F000120EE80
:101AC00003F07451D9267551DA22DF500F01296FC6
:101AD000000120EE04F07451D9267551DA22DF504E
:101AE0000F012A6F000120EE05F07451D9267551BF
:101AF000DA22DF500F012B6F000120EE06F0745147
:101B0000D9267551DA22DF500F012C6F000120EE2B
:101B100007F07451D9267551DA22DF500F012D6F6D
:101B20000F0120871200AFECAEF0CF0E0001CC6F9A
:101B3000F70ECD6F330ECE6F3F0ECF6F000E00014C
:101B4000D06F000ED16F700ED26F410ED36FC4EC08
:101B5000B3F0EEECB3F0E0ECB3F04DB09BD0010E7F
:101B60000001E46F000E0001E36F000EE26F5A0EF9
:101B70000001EB6F000E266E010E276E9FECADF09C
:101B8000839C839A100E43ECAAF0010E0DECACF08E
:101B90006A0E0001816FFF0E0001826FA4ECB2F0AB
:101BA000020E0DECACF0400E0001816FFF0E000143
:101BB000826FA4ECB2F0030E0DECACF0C20E00018B
:101BC000816FFE0E0001826FA4ECB2F0040E0DECEA
:101BD000ACF06A0E0001816FFF0E0001826FA4EC71
:101BE000B2F054D0D8C04DF1D9C04EF1DAC04FF1A7
:101BF000DBC050F101014D1F4E1F4F1F501F4D2BD9
:101C0000000E4E234F235023195001014D25010191
:101C1000516F1A5001014E210101526F1B500101F9
:101C20004F210101536F1C50010150210101546FDC
:101C300001015451010153110101521105E11E0E20
:101C40000101515DD8A019D019C0D8F01AC0D9F03F
:101C50001BC0DAF01CC0DBF083AE02D0010E01D055
:101C6000000EFF0A01014D6F01014D334D338350CA
:101C700001014D197F0B4D19836EC4ECB3F0000EBA
:101C80000001776F0A0E766F34ECB2F04DA0AAD740
:101C9000839E4C8C80A404D0000E0001E76F0DD011
:101CA00080B605D0010E0001E76F010E04D0020ED0
:101CB0000001E76F000E0001E46F4CA2CBD04D9EF7
:101CC0000001E851D8B44CB42ED04D92010E000161
:101CD000E56F000E0001D06F000ED16F800ED26F45
:101CE0003F0ED36F83ECB3F00009D8B4FBD7010EDD
:101CF00001012C6F0A0E0001706F000E716F000E53
:101D0000726F000E736F2C0E0001746F010E0001D4
:101D1000756F080E0001766FBC0E0001776FCDEC79
:101D200089F00001E82B4CB44DA22BD04DA429D052
:101D30000001E951D8A428D0020E0001E56F83EC20
:101D4000B3F00009D8B4FBD70C0E0001706F000E81
:101D5000716F000E726F000E736F250E0001746FAD
:101D6000000E0001756F080E0001766FBC0E0001B9
:101D7000776FCDEC89F0000E0001E86F0001E92BD0
:101D800003D0000E0001E96F11C04DF112C04EF1F9
:101D900013C04FF114C050F101014D1F4E1F4F1FD2
:101DA000501F4D2B000E4E234F235023195001017D
:101DB0004D250101516F1A5001014E210101526F51
:101DC0001B5001014F210101536F1C500101502193
:101DD0000101546F010154510101531101015211CC
:101DE00005E11E0E0101515DD8A06FD019C011F0A0
:101DF0001AC012F01BC013F01CC014F04DB213D067
:101E000083AC02D0010E01D0000EFF0A01014D6F1C
:101E100001014D3B4D474D47835001014D19BF0B0B
:101E20004D19836E51D0838C4CB412D083AA02D04A
:101E3000010E01D0000EFF0A01014D6F01014D3B63
:101E40004D47835001014D19DF0B4D19836E3DD075
:101E5000838A3BD0000E0001E86F000E0001E96F9D
:101E60004C944D924D94839A839C4DBE2CD0000E81
:101E70000001E56F000E0001D06F000ED16F700EF3
:101E8000D26F410ED36F83ECB3F00009D8B4FBD707
:101E9000000E01012C6F0A0E0001706F000E716FB1
:101EA000000E726F000E736F2C0E0001746F010E26
:101EB0000001756F080E0001766FBC0E0001776F90
:101EC000CDEC89F04D8E839C839A0DECB1F0000E21
:101ED0000001A86F000EA96F340EAA6F430EAB6FFE
:101EE000CCC082F0CDC083F0CEC084F0CFC085F0EE
:101EF0000001DC510001706F716B726B736B000E2F
:101F000067ECA4F070C07EF071C07FF072C080F00A
:101F100073C081F0E8EC9BF07EC097F07FC098F032
:101F200080C099F081C09AF051ECB2F097C0A4F053
:101F300098C0A5F099C0A6F09AC0A7F094EC99F0CB
:101F4000A4C0B8F0A5C0B9F0A6C0BAF0A7C0BBF055
:101F500087ECABF00001B8510001EB6F0001E50523
:101F6000D8A45CD04DA60FD00001E651EBC04DF1D6
:101F700001014E6B01014D27000E4E234DC1D4F0DF
:101F80004EC1D5F01BD00001E65101014D6F4E6BE3
:101F900001014D1F4E1F4D4B4E2B0001EB51010116
:101FA0004F6F506B01014D5101014F2701014E51FF
:101FB000010150234FC1D4F050C1D5F00001000EF3
:101FC000D5BFFF0ED66FD76F0001D7BF12D000016B
:101FD000D7BF0CD00001D7510001D6110001D51197
:101FE00008E1B50E0001D45DD8B003D0D4C0EBF049
:101FF00019D00001D7BF0ED00001D7510001D61172
:102000000001D51105E1B50E0001D45DD8A002D0C4
:10201000B40E01D0000E0001EB6F04D04D96000EFF
:102020000001E66F0001E751D8B488D0840E0001AA
:10203000DD6542D0D0C082F0D1C083F0D2C084F040
:10204000D3C085F07E0E01014D6FFF0E01014E6F72
:102050000001DD5101014F6F506B01014D51010134
:102060004F2701014E51010150234FC170F050C163
:1020700071F00001000E71BFFF0E726F736F010EE1
:1020800067ECA4F070C07EF071C07FF072C080F089
:1020900073C081F0E8EC9BF07EC0B8F07FC0B9F06F
:1020A00080C0BAF081C0BBF087ECABF0B8C0E2F002
:1020B000B9C0E3F0000E40D0000E0001E36F000E47
:1020C000E26F330E0001826F330E836FF30E846F65
:1020D0003F0E856F0001DD5101014D6F4E6B010117
:1020E0004D1F4E1F4D4B4E2B820E01014D27000EF2
:1020F0004E234DC170F04EC171F00001000E71BF52
:10210000FF0E726F736F010E67ECA4F070C07EF06B
:1021100071C07FF072C080F073C081F0E8EC9BF07A
:102120007EC0B8F07FC0B9F080C0BAF081C0BBF00B
:1021300087ECABF00001B851266E06D0000E00010E
:10214000E36F000EE26F26684CAE03D058ECAEF0A1
:102150004C9E05C04DF106C04EF107C04FF108C0BE
:1021600050F101014D1F4E1F4F1F501F4D2B000EF0
:102170004E234F235023195001014D250101516F6A
:102180001A5001014E210101526F1B5001014F21D4
:102190000101536F1C50010150210101546F0101D5
:1021A0005451010153110101521105E1020E0101C7
:1021B000515DD8A010D0020E0001E519D8A44DB48D
:1021C0000AD019C005F01AC006F01BC007F01CC0E9
:1021D00008F09FECADF01550195C16501A581750C6
:1021E0001B5818501C58D8A041D009C04DF10AC046
:1021F0004EF10BC04FF10CC050F101014D1F4E1FAD
:102200004F1F501F4D2B000E4E234F2350231950AC
:1022100001014D250101516F1A5001014E210101AB
:10222000526F1B5001014F210101536F1C500101DE
:1022300050210101546F0101545101015311010159
:10224000521105E10A0E0101515DD8A080D419C0D8
:1022500009F01AC00AF01BC00BF01CC00CF04DA214
:1022600002D04C8C74D411ECA7F071D4DDECB0F03A
:102270006ED40F0140B715D13EC045FF3FAC03D02F
:102280000F01458D02D00F01459D3FA666D0385005
:10229000446E456A466A476A44C044FF000E3814DB
:1022A000446EFF0E3914456E000E3A14466E000E51
:1022B0003B14476E44C040F045C041F046C042F078
:1022C00047C043F041C040F042C041F043C042F03B
:1022D000436A40C044F041C045F042C046F043C0AC
:1022E00047F044C043FF000E0F01426F0F014287C9
:1022F0003AA002D00F0142813AA202D00F014283DC
:102300003AA402D00F01428B3AA602D00F01428DAF
:102310003AA802D00F01428F38C040F039C041F0D6
:102320003AC042F03BC043F0160E05D0D89043327D
:10233000423241324032E82EF9D740C044F041C029
:1023400045F042C046F043C047F04450446E456AF1
:10235000466A476A44C041FF4DD00F01429738C0DA
:1023600040F039C041F03AC042F03BC043F0040EA7
:1023700005D0D8904332423241324032E82EF9D76C
:1023800040C044F041C045F042C046F043C047F071
:102390004450446E456A466A476A44C041FF070E8E
:1023A0003814446E000E3914456E000E3A14466E11
:1023B000000E3B14476E44C040F045C041F046C09B
:1023C00042F047C043F0050ED890403641364236C1
:1023D0004336E82EF9D740C044F041C045F042C032
:1023E00046F043C047F00F0142511F0B0F01426FEF
:1023F00044C042FF3FA003D00F01408102D00F0133
:1024000040913FA203D00F01408302D00F014093BF
:102410003CC0D9FF3DC0DAFFDF500F01466F20EE10
:1024200001F03C50D9263D50DA22DF500F01476FB2
:1024300020EE02F03C50D9263D50DA22DF500F0149
:10244000486F20EE03F03C50D9263D50DA22DF5091
:102450000F01496F20EE04F03C50D9263D50DA229E
:10246000DF500F014A6F20EE05F03C50D9263D5059
:10247000DA22DF500F014B6F20EE06F03C50D926D8
:102480003D50DA22DF500F014C6F20EE07F03C5038
:10249000D9263D50DA22DF500F014D6F0F014087E2
:1024A00012000F0130B715D13EC035FF3FAC03D04D
:1024B0000F01358D02D00F01359D3FA666D03850F3
:1024C000446E456A466A476A44C034FF000E3814B9
:1024D000446EFF0E3914456E000E3A14466E000E1F
:1024E0003B14476E44C040F045C041F046C042F046
:1024F00047C043F041C040F042C041F043C042F009
:10250000436A40C044F041C045F042C046F043C079
:1025100047F044C033FF000E0F01326F0F013287C6
:102520003AA002D00F0132813AA202D00F013283C9
:102530003AA402D00F01328B3AA602D00F01328D9D
:102540003AA802D00F01328F38C040F039C041F0B4
:102550003AC042F03BC043F0160E05D0D89043324B
:10256000423241324032E82EF9D740C044F041C0F7
:1025700045F042C046F043C047F04450446E456ABF
:10258000466A476A44C031FF4DD00F01329738C0C8
:1025900040F039C041F03AC042F03BC043F0040E75
:1025A00005D0D8904332423241324032E82EF9D73A
:1025B00040C044F041C045F042C046F043C047F03F
:1025C0004450446E456A466A476A44C031FF070E6C
:1025D0003814446E000E3914456E000E3A14466EDF
:1025E000000E3B14476E44C040F045C041F046C069
:1025F00042F047C043F0050ED8904036413642368F
:102600004336E82EF9D740C044F041C045F042C0FF
:1026100046F043C047F00F0132511F0B0F01326FDC
:1026200044C032FF3FA003D00F01308102D00F0120
:1026300030913FA203D00F01308302D00F013093BD
:102640003CC0D9FF3DC0DAFFDF500F01366F20EEEE
:1026500001F03C50D9263D50DA22DF500F01376F90
:1026600020EE02F03C50D9263D50DA22DF500F0117
:10267000386F20EE03F03C50D9263D50DA22DF506F
:102680000F01396F20EE04F03C50D9263D50DA227C
:10269000DF500F013A6F20EE05F03C50D9263D5037
:1026A000DA22DF500F013B6F20EE06F03C50D926B6
:1026B0003D50DA22DF500F013C6F20EE07F03C5016
:1026C000D9263D50DA22DF500F013D6F0F013087D0
:1026D00012000F0120B712003EC025FF3FAC03D00F
:1026E0000F01258D02D00F01259D3FA666D03850E1
:1026F000446E456A466A476A44C024FF000E381497
:10270000446EFF0E3914456E000E3A14466E000EEC
:102710003B14476E44C040F045C041F046C042F013
:1027200047C043F041C040F042C041F043C042F0D6
:10273000436A40C044F041C045F042C046F043C047
:1027400047F044C023FF000E0F01226F0F012287C4
:102750003AA002D00F0122813AA202D00F012283B7
:102760003AA402D00F01228B3AA602D00F01228D8B
:102770003AA802D00F01228F38C040F039C041F092
:102780003AC042F03BC043F0160E05D0D890433219
:10279000423241324032E82EF9D740C044F041C0C5
:1027A00045F042C046F043C047F04450446E456A8D
:1027B000466A476A44C021FF4DD00F01229738C0B6
:1027C00040F039C041F03AC042F03BC043F0040E43
:1027D00005D0D8904332423241324032E82EF9D708
:1027E00040C044F041C045F042C046F043C047F00D
:1027F0004450446E456A466A476A44C021FF070E4A
:102800003814446E000E3914456E000E3A14466EAC
:10281000000E3B14476E44C040F045C041F046C036
:1028200042F047C043F0050ED8904036413642365C
:102830004336E82EF9D740C044F041C045F042C0CD
:1028400046F043C047F00F0122511F0B0F01226FCA
:1028500044C022FF3FA003D00F01208102D00F010E
:1028600020913FA203D00F01208302D00F012093BB
:102870003CC0D9FF3DC0DAFFDF500F01266F20EECC
:1028800001F03C50D9263D50DA22DF500F01276F6E
:1028900020EE02F03C50D9263D50DA22DF500F01E5
:1028A000286F20EE03F03C50D9263D50DA22DF504D
:1028B0000F01296F20EE04F03C50D9263D50DA225A
:1028C000DF500F012A6F20EE05F03C50D9263D5015
:1028D000DA22DF500F012B6F20EE06F03C50D92694
:1028E0003D50DA22DF500F012C6F20EE07F03C50F4
:1028F000D9263D50DA22DF500F012D6F0F012087BE
:10290000120000019F6F00019FAF45D100019F6D34
:1029100000019F51800A120FD8A0BBD0000E000109
:10292000796F0A0E786F000E0001736F640E726F7C
:1029300000019F510001706F716B70BF710701EC56
:10294000AFF070C076F071C077F083ECACF00001AE
:10295000D890763777370001D89076377737240EBE
:1029600000017627000E00017723F30E0001762583
:10297000F66EFD0E00017721F76EF86A000EF82260
:102980000900F5CF82F00900F5CF83F00900F5CFFB
:1029900084F00A00F5CF85F0000E0001796F640E17
:1029A000786F00019F510001766F776B76BF7707D4
:1029B00083ECACF00001D890763777370001D890DF
:1029C00076377737480E00017627000E000177230F
:1029D000F30E00017625F66EFD0E00017721F76EED
:1029E000F86A000EF8220900F5CF7EF00900F5CF55
:1029F0007FF00900F5CF80F00A00F5CF81F0E8EC18
:102A00009BF07EC09BF07FC09CF080C09DF081C099
:102A10009EF09BC07EF09CC07FF09DC080F09EC069
:102A200081F0000E0001736F0A0E726F00019F515A
:102A30000001706F716B70BF710701ECAFF00001A6
:102A4000D890703771370001D89070377137F30E16
:102A500000017025F66EFD0E00017121F76EF86A17
:102A6000000EF8220900F5CF82F00900F5CF83F0BF
:102A70000900F5CF84F00A00F5CF85F0E8EC9BF073
:102A80007EC097F07FC098F080C099F081C09AF026
:102A9000120000019F51800A750FD8A063D0000E6C
:102AA0000001796F0A0E786F00019F510001766F67
:102AB000776B76BF770783ECACF00001D890763760
:102AC00077370001D89076377737240E00017627C4
:102AD000000E00017723F30E00017625F66EFD0E41
:102AE00000017721F76EF86A000EF8220900F5CF91
:102AF0007EF00900F5CF7FF00900F5CF80F00A00E5
:102B0000F5CF81F0000E0001736F0A0E726F0001A5
:102B10009F510001706F716B70BF710701ECAFF0D6
:102B20000001D890703771370001D8907037713735
:102B3000F30E00017025F66EFD0E00017121F76E97
:102B4000F86A000EF8220900F5CF82F00900F5CFEF
:102B500083F00900F5CF84F00A00F5CF85F0E8ECAA
:102B60009BF08ED700019F51040DF30EF324F66EF7
:102B7000FD0EF420F76EF86A000EF8220900F5CF7A
:102B800097F00900F5CF98F00900F5CF99F00A0009
:102B9000F5CF9AF0120000019F51800A120FD8A0C1
:102BA000BBD0000E0001796F0A0E786F000E000195
:102BB000736F640E726F00019F510001706F716B33
:102BC00070BF710701ECAFF070C076F071C077F0A4
:102BD00083ECACF00001D890763777370001D890BD
:102BE00076377737240E00017627000E0001772311
:102BF000270E00017625F66EFE0E00017721F76E96
:102C0000F86A000EF8220900F5CF82F00900F5CF2E
:102C100083F00900F5CF84F00A00F5CF85F0000EAF
:102C20000001796F640E786F00019F510001766F8B
:102C3000776B76BF770783ECACF00001D8907637DE
:102C400077370001D89076377737480E000176271E
:102C5000000E00017723270E00017625F66EFE0E8A
:102C600000017721F76EF86A000EF8220900F5CF0F
:102C70007EF00900F5CF7FF00900F5CF80F00A0063
:102C8000F5CF81F0E8EC9BF07EC09BF07FC09CF01C
:102C900080C09DF081C09EF09BC07EF09CC07FF004
:102CA0009DC080F09EC081F0000E0001736F0A0E7F
:102CB000726F00019F510001706F716B70BF7107DF
:102CC00001ECAFF00001D890703771370001D89057
:102CD00070377137270E00017025F66EFE0E000169
:102CE0007121F76EF86A000EF8220900F5CF82F024
:102CF0000900F5CF83F00900F5CF84F00A00F5CF85
:102D000085F0E8EC9BF07EC097F07FC098F080C023
:102D100099F081C09AF0120000019F51800A750F4E
:102D2000D8A063D0000E0001796F0A0E786F000101
:102D30009F510001766F776B76BF770783ECACF01D
:102D40000001D890763777370001D89076377737FB
:102D5000240E00017627000E00017723270E0001C4
:102D60007625F66EFE0E00017721F76EF86A000EEA
:102D7000F8220900F5CF7EF00900F5CF7FF00900B9
:102D8000F5CF80F00A00F5CF81F0000E0001736FDF
:102D90000A0E726F00019F510001706F716B70BF5E
:102DA000710701ECAFF00001D89070377137000166
:102DB000D89070377137270E00017025F66EFE0E21
:102DC00000017121F76EF86A000EF8220900F5CFB4
:102DD00082F00900F5CF83F00900F5CF84F00A00F6
:102DE000F5CF85F0E8EC9BF08ED700019F51040DE4
:102DF000270EF324F66EFE0EF420F76EF86A000E2E
:102E0000F8220900F5CF97F00900F5CF98F00900F6
:102E1000F5CF99F00A00F5CF9AF01200000E426E3D
:102E200074BE428074BC42820F0150AF43D138C09F
:102E3000D9FF39C0DAFFDE6ADE6ADE6ADD6A20EEBB
:102E400004F03850D9263950DA2256CFDFFF20EE71
:102E500005F03850D9263950DA2257CFDFFF20EE5F
:102E600006F03850D9263950DA2258CFDFFF20EE4D
:102E700007F03850D9263950DA2259CFDFFF20EE3B
:102E800008F03850D9263950DA225ACFDFFF20EE29
:102E900009F03850D9263950DA225BCFDFFF20EE17
:102EA0000AF03850D9263950DA225CCFDFFF20EE05
:102EB0000BF03850D9263950DA225DCFDFFF20EEF3
:102EC0000EF03850D9263950DA220F0155AD02D014
:102ED000010E01D0000EDF6E20EE0DF03850D92625
:102EE0003950DA220F0155510F0BDF6E20EE0CF036
:102EF0003850D9263950DA220F0152A702D0010EDC
:102F000001D0000EDF6E0F0152B744D051CF3AF01E
:102F10003B6A3C6A3D6A030ED8903A363B363C36F3
:102F20003D36E82EF9D738C0D9FF39C0DAFF3AC0AC
:102F3000DEFF3BC0DEFF3CC0DEFF3DC0DEFF0F0119
:102F40005239E842070B070B436E38C0D9FF39C02E
:102F5000DAFFDECF3AF0DECF3BF0DECF3CF0DECF63
:102F60003DF043503A243E6E000E3B203F6E000E73
:102F70003C20406E000E3D20416E38C0D9FF39C064
:102F8000DAFF3EC0DEFF3FC0DEFF40C0DEFF41C0D3
:102F9000DEFF8DD054CF3AF03B6A3C6A3D6A38C0C0
:102FA000D9FF39C0DAFF3AC0DEFF3BC0DEFF3CC0CC
:102FB000DEFF3DC0DEFF53CF3AF03B6A3C6A3D6A1C
:102FC0003CC03DF03BC03CF03AC03BF03A6A38C0F0
:102FD000D9FF39C0DAFF3A50DE263B50DE223C50A2
:102FE000DE223D50DE220F0152A10CD038C0D9FFA5
:102FF00039C0DAFF000EDE12000EDE12010EDE1204
:10300000000EDE120F0152A30CD038C0D9FF39C018
:10301000DAFF000EDE12000EDE12020EDE12000ECD
:10302000DE120F0152AB0CD038C0D9FF39C0DAFF25
:10303000000EDE12000EDE12040EDE12000EDE1294
:103040000F0152AD0CD038C0D9FF39C0DAFF000EE5
:10305000DE12000EDE12080EDE12000EDE120F016E
:1030600052AF0CD038C0D9FF39C0DAFF000EDE12E3
:10307000000EDE12100EDE12000EDE1251CF3AF0FC
:103080003B6A3C6A3D6A150ED8903A363B363C3670
:103090003D36E82EF9D738C0D9FF39C0DAFF3A50AB
:1030A000DE123B50DE123C50DE123D50DE120F01AC
:1030B000509F120060AE120038C0D9FF39C0DAFF4D
:1030C000DE6ADE6ADE6ADD6A20EE04F03850D92658
:1030D0003950DA2266CFDFFF20EE05F03850D926CE
:1030E0003950DA2267CFDFFF20EE06F03850D926BC
:1030F0003950DA2268CFDFFF20EE07F03850D926AA
:103100003950DA2269CFDFFF20EE08F03850D92697
:103110003950DA226ACFDFFF20EE09F03850D92685
:103120003950DA226BCFDFFF20EE0AF03850D92673
:103130003950DA226CCFDFFF20EE0BF03850D92661
:103140003950DA226DCFDFFF20EE0EF03850D9264D
:103150003950DA2265AC02D0010E01D0000EDF6ECC
:1031600020EE0DF03850D9263950DA2265500F0B79
:10317000DF6E20EE0CF03850D9263950DA2262A6E4
:1031800002D0010E01D0000EDF6E62B643D061CFD7
:103190003AF03B6A3C6A3D6A030ED8903A363B36B9
:1031A0003C363D36E82EF9D738C0D9FF39C0DAFFB2
:1031B0003AC0DEFF3BC0DEFF3CC0DEFF3DC0DEFFAD
:1031C0006238E842070B070B436E38C0D9FF39C09D
:1031D000DAFFDECF3AF0DECF3BF0DECF3CF0DECFE1
:1031E0003DF043503A243E6E000E3B203F6E000EF1
:1031F0003C20406E000E3D20416E38C0D9FF39C0E2
:10320000DAFF3EC0DEFF3FC0DEFF40C0DEFF41C050
:10321000DEFF88D064CF3AF03B6A3C6A3D6A38C032
:10322000D9FF39C0DAFF3AC0DEFF3BC0DEFF3CC049
:10323000DEFF3DC0DEFF63CF3AF03B6A3C6A3D6A89
:103240003CC03DF03BC03CF03AC03BF03A6A38C06D
:10325000D9FF39C0DAFF3A50DE263B50DE223C501F
:10326000DE223D50DE2262A00CD038C0D9FF39C02A
:10327000DAFF000EDE12000EDE12010EDE12000E6C
:10328000DE1262A20CD038C0D9FF39C0DAFF000EBE
:10329000DE12000EDE12020EDE12000EDE1262AA36
:1032A0000CD038C0D9FF39C0DAFF000EDE12000E94
:1032B000DE12040EDE12000EDE1262AC0CD038C03C
:1032C000D9FF39C0DAFF000EDE12000EDE12080E42
:1032D000DE12000EDE1262AE0CD038C0D9FF39C04B
:1032E000DAFF000EDE12000EDE12100EDE12000EED
:1032F000DE1261CF3AF03B6A3C6A3D6A150ED89007
:103300003A363B363C363D36E82EF9D738C0D9FF41
:1033100039C0DAFF3A50DE123B50DE123C50DE126A
:103320003D50DE12609E12000001A751800B00018B
:10333000B46F0001A751A7250001B66F0001A6AF29
:1033400002D00001B6810001B6510001D8B412D0FC
:103350000001B629D8A409D0000E0001A46F000E08
:10336000A56F000EA66F000EA76F0001A68F000EBE
:10337000000108D0000E0001A46F000EA56F000E22
:10338000A66F000EA76F0001AB51800B0001B56F57
:103390000001B4510001B519D8B402D00001B48DB8
:1033A0000001AB51AB250001B56F0001AAAF02D0FF
:1033B0000001B5810001B5510001D8B412D000015F
:1033C000B529D8A409D0000E0001A86F000EA96F7E
:1033D000000EAA6F000EAB6F0001AA8F000E000155
:1033E00008D0000E0001A86F000EA96F000EAA6F92
:1033F000000EAB6F0001B6510001B55DD8B024D00E
:103400000001B4AD03D0800E0001B41BB6C0B7F00C
:10341000B5C0B6F0B7C0B5F0A4C0B7F0A8C0A4F06E
:10342000B7C0A8F0A5C0B7F0A9C0A5F0B7C0A9F073
:10343000A6C0B7F0AAC0A6F0B7C0AAF0A7C0B7F060
:10344000ABC0A7F0B7C0ABF0000E0001B76F000132
:10345000B6510001AC6FAD6B0001AC1FAD1FAC4BA2
:10346000AD2B0001B5510001AE6FAF6B0001AC5147
:103470000001AE270001AD510001AF230001AFBF35
:103480003DD00001AF5105E11A0E0001AE5DD8A09C
:1034900035D00001A4510001A5110001A6110001C1
:1034A000A711D8B402D0010E01D0000E0001B76FF1
:1034B000000E0001A46F000EA56F000EA66F000E97
:1034C000A76FB5C0B6F020D00001B7A107D00001AA
:1034D000D890B73101090001B76F03D00001D8902F
:1034E000B7330001A4A102D00001B78F0001A735B6
:1034F000A733A633A533A4330001B62B0001B55181
:103500000001B65DD8A0E0D70001B4BD3FD00001F6
:10351000B6510001D8A40AD0000E0001A46F000E1D
:10352000A56F000EA66F000EA76F12000001A85134
:103530000001A4270001A9510001A5230001AA51FF
:103540000001A6230001AB510001A7230001A7A1A0
:10355000CCD00001B7A109D00001D890B733000149
:10356000B75101090001B76F03D00001D890B733FC
:103570000001A4A102D00001B78F0001A735A73335
:10358000A633A533A4330001B62BAFD00001A85158
:103590000001A45D0001A9510001A5590001AA5133
:1035A0000001A6590001A751800A0001AC6F00017B
:1035B000AB51800A0001AC59D8B050D0A4C0ACF0D7
:1035C000A5C0ADF0A6C0AEF0A7C0AFF00001AC1F23
:1035D000AD1FAE1FAF1FAC2B000EAD23AE23AF232C
:1035E0000001A8510001AC250001B06F0001A951F4
:1035F0000001AD210001B16F0001AA510001AE210F
:103600000001B26F0001AB510001AF210001B36FA7
:10361000FF0E0001B0250001A46FFF0E0001B121D3
:103620000001A56FFF0E0001B2210001A66FFF0E81
:103630000001B3210001A76F800E0001B41B00013F
:10364000B76D0001B7510001D8A418D0010E0001D8
:10365000A427000EA523A623A72310D00001A8515C
:103660000001A45F0001A9510001A55B0001AA515E
:103670000001A65B0001AB510001A75B0001A45152
:103680000001A5110001A6110001A711D8A42AD09C
:103690000001B7510001D8A425D0000E0001A46F8D
:1036A000000EA56F000EA66F000EA76F120000019E
:1036B000D890A437A537A637A7370001B7AF02D0F7
:1036C0000001A4810001B7A103D0D880000102D07D
:1036D0000001D890B7370001B6510001D8B402D02C
:1036E0000001B6070001A6AFE2D7000E0001B56FDA
:1036F0000001B7AF0DD0B7C0ACF07F0E0001AC1722
:10370000D8A403D00001A4A103D0010E0001B56F1D
:103710000001B5510001D8B426D0010E0001A42744
:10372000000EA523A623A7230001A7A11CD0A4C097
:10373000ACF0A5C0ADF0A6C0AEF0A7C0AFF00001E0
:10374000AF35AF33AE33AD33AC33ACC0A4F0ADC0A6
:10375000A5F0AEC0A6F0AFC0A7F00001B629D8B45E
:1037600002D00001B62B0001B629D8B405D0000163
:10377000B6510001D8A411D0000E0001A46F000EB4
:10378000A56F000EA66F000EA76F0001B6510001D5
:10379000D8A403D0000E0001B46F0001B6A103D07D
:1037A0000001A68F02D00001A69F0001D890B6317B
:1037B0000001A76F0001B4AF02D00001A78FA4C021
:1037C000A4F0A5C0A5F0A6C0A6F0A7C0A7F012005F
:1037D00000018151800B00018A6F00018151812518
:1037E0000001906F000180AF02D0000190810001C4
:1037F00090510001D8B410D000019029D8A409D06C
:10380000000E00017E6F000E7F6F000E806F000EB5
:10381000816F0001808F09D0000E00017E6F000EC5
:103820007F6F000E806F000E816F00018551800B4D
:1038300000018A1B00018551852500018B6F000165
:1038400084AF02D000018B8100018B510001D8B4FC
:1038500010D000018B29D8A409D0000E0001826F7E
:10386000000E836F000E846F000E856F0001848F41
:1038700009D0000E0001826F000E836F000E846F6E
:10388000000E856F00018B510001D8B405D00001F6
:1038900090510001D8A40AD0000E00017E6F000EE6
:1038A0007F6F000E806F000E816F12000001845147
:1038B00000017E03F3CF95F0F4CF96F0000195510F
:1038C00000018C6F8D6B8E6B8F6B00019651000128
:1038D000916F926B936B946B0001835100017F0396
:1038E000F3CF95F0F4CF96F00001955100018C27AD
:1038F000000E8D238E238F23000196510001912706
:10390000000E92239323942300018251000180032F
:10391000F3CF95F0F4CF96F00001955100018C277C
:10392000000E8D238E238F230001965100019127D5
:10393000000E9223932394238EC08FF08DC08EF0BF
:103940008CC08DF000018C6B0001825100017F035F
:10395000F3CF95F0F4CF96F00001955100018C273C
:103960000001965100018D23000E00018E23000EF0
:1039700000018F230001835100017E03F3CF95F0F6
:10398000F4CF96F00001955100018C27000196516B
:1039900000018D23000E00018E23000E00018F23F5
:1039A0008EC08FF08DC08EF08CC08DF000018C6BBE
:1039B0000001825100017E03F3CF95F0F4CF96F021
:1039C0000001955100018C270001965100018D23C3
:1039D000000E00018E23000E00018F230001845190
:1039E00000017F03F3CF95F0F4CF96F000019551DD
:1039F000000191270001965100019223000E000161
:103A00009323000E000194230001835100018003E1
:103A1000F3CF95F0F4CF96F0000195510001912776
:103A20000001965100019223000E00019323000E25
:103A3000000194230001845100018003F3CF95F02D
:103A4000F4CF96F0000195510001866F0001965168
:103A50000001876F0001886B0001896B88C089F0C5
:103A600087C088F086C087F00001866B0001865110
:103A70000001912700018751000192230001885124
:103A80000001932300018951000194238CC086F02A
:103A90008DC087F08EC088F08FC089F0190E06D0D7
:103AA0000001D8908933883387338633E82EF8D7DE
:103AB00000018651000191270001875100019223E6
:103AC00000018851000193230001895100019423D2
:103AD0008EC08FF08DC08EF08CC08DF000018C6B8D
:103AE00000018B5190C086F00001876B0001862792
:103AF000000E8723820E000186250001956FFF0EC0
:103B0000000187210001966F15D00001D8909137F0
:103B100092379337943700018FAF02D00001918123
:103B20000001D8908C378D378E378F37000195077D
:103B3000D8A09607000193AFE8D7000E00018B6F65
:103B400000018FAF24D0FF0E00018C150001866F9D
:103B5000FF0E00018D150001876FFF0E00018E150D
:103B60000001886F7F0E00018F150001896F000131
:103B70008651000187110001881100018911D8A424
:103B800003D0000191A103D0010E00018B6F000151
:103B90008B510001D8B423D0010E00019127000EF3
:103BA000922393239423000194A119D091C086F00D
:103BB00092C087F093C088F094C089F000018935E5
:103BC000893388338733863386C091F087C092F07B
:103BD00088C093F089C094F00001954B962B0001AA
:103BE00096BF10D00001965104E100019529D8A09C
:103BF00009D0000E0001916F000E926F800E936F3E
:103C00007F0E2BD0000196BF07D00001965111E125
:103C100000019505D8B00DD0000E0001916F000E87
:103C2000926F000E936F000E946F000E00018A6F6A
:103C300015D095C090F0FF0E00019117FF0E92175E
:103C40007F0E9317000E9417000190A102D000017F
:103C5000938F0001D89090310001946F00018A5138
:103C60000001941391C07EF092C07FF093C080F069
:103C700094C081F0120000018151800B00018A6F15
:103C80000001815181250001956F000180AF02D0B4
:103C900000019581000195510001D8B412D00001B6
:103CA0009529D8A409D0000E00017E6F000E7F6F09
:103CB000000E806F000E816F0001808F000E0001EA
:103CC00008D0000E00017E6F000E7F6F000E806F27
:103CD000000E816F00018551800B00018A1B0001DD
:103CE000855185250001966F000184AF02D0000147
:103CF0009681000196510001D8B412D00001962996
:103D0000D8A409D0000E0001826F000E836F000E50
:103D1000846F000E856F0001848F000E000108D0B3
:103D2000000E0001826F000E836F000E846F000E84
:103D3000856F00018251000183110001841100018F
:103D40008511D8A417D0000E00017E6F000E7F6F82
:103D5000000E806F000E816F0001800E80137F0EB9
:103D600081137EC07EF07FC07FF080C080F081C074
:103D700081F01200000195510001D8A412D0000E6C
:103D800000017E6F000E7F6F000E806F000E816F4E
:103D90007EC07EF07FC07FF080C080F081C081F067
:103DA0001200000196510001866F876B0001861F8B
:103DB000871F864B872B000195510001886F896B07
:103DC00000018651000188270001875100018923E5
:103DD0007F0E0001882500018F6F000E00018921F0
:103DE0000001906F7EC08BF07FC08CF080C08DF0A2
:103DF00081C08EF0000E00017E6F000E7F6F000EFE
:103E0000806F000E816F000E0001916F000E926FA7
:103E1000000E936F000E946F000E0001966F42D05B
:103E2000000196510001D8B417D00001D8908B370B
:103E30008C378D378E370001D8907E377F378037AB
:103E40008137000194AF02D000017E810001D8903B
:103E500091379237933794370001825100018B5D7F
:103E60000001835100018C590001845100018D59DA
:103E70000001855100018E59D8A012D00001948D07
:103E80000001825100018B5F0001835100018C5BB6
:103E90000001845100018D5B0001855100018E5BA2
:103EA0000001962B190E00019665BAD700018B51BF
:103EB00000018C1100018D1100018E11D8B418D0B1
:103EC0000001918115D00001D8907E377F3780376F
:103ED0008137000194AF02D000017E810001D890AB
:103EE000913792379337943700018F07D8A0900706
:103EF000000180AFE8D7000E0001966F000194AF7B
:103F000024D0FF0E000191150001866FFF0E000105
:103F100092150001876FFF0E000193150001886F55
:103F20007F0E000194150001896F00018651000188
:103F300087110001881100018911D8A403D0000164
:103F40007EA103D0010E0001966F00019651000181
:103F5000D8B423D0010E00017E27000E7F238023DA
:103F60008123000181A119D07EC086F07FC087F037
:103F700080C088F081C089F0000189358933883399
:103F80008733863386C07EF087C07FF088C080F09C
:103F900089C081F000018F4B902B000190BF14D09D
:103FA0000001905104E100018F29D8A00DD0000E2E
:103FB0000001906F8F69000E00017E6F000E7F6F11
:103FC000000E806F000E816F000190BF07D00001CE
:103FD000905115E100018F05D8B011D0000E0001FD
:103FE000906F000E8F6F000E00017E6F000E7F6FCE
:103FF000000E806F000E816F000E00018A6F8FC06F
:1040000095F0000195A103D00001808F02D000013E
:10401000809F0001D89095310001816F00018A5185
:10402000000181137EC07EF07FC07FF080C080F0F1
:1040300081C081F012000001796F00017905D8A4D8
:1040400056D000017429D8A452D070C075F071C048
:1040500076F072C077F073C078F0040E06D00001DD
:10406000D8907833773376337533E82EF8D775C028
:104070007AF076C07BF077C07CF078C07DF00001EC
:104080007A5100017A6F7B6B7C6B7D6B7AC018FF75
:10409000070E0001701500017A6F000E0001711506
:1040A00000017B6F000E0001721500017C6F000E95
:1040B0000001731500017D6F7AC075F07BC076F04A
:1040C0007CC077F07DC078F0050ED8900001753780
:1040D000763777377837E82EF8D775C07AF076C01C
:1040E0007BF077C07CF078C07DF07AC019FF020EBB
:1040F00000017919D8A456D000017429D8A452D04F
:1041000070C075F071C076F072C077F073C078F04F
:10411000040E06D00001D8907833773376337533A8
:10412000E82EF8D775C07AF076C07BF077C07CF0C7
:1041300078C07DF000017A5100017A6F7B6B7C6B57
:104140007D6B7AC01CFF070E0001701500017A6FAD
:10415000000E0001711500017B6F000E0001721549
:1041600000017C6F000E0001731500017D6F7AC0A5
:1041700075F07BC076F07CC077F07DC078F0050EDE
:10418000D89000017537763777377837E82EF8D72B
:1041900075C07AF076C07BF077C07CF078C07DF097
:1041A0007AC01DFF00017905D8A487D0F70E000161
:1041B0007419D8A482D00001705100017A6F7B6B12
:1041C0007C6B7D6B7AC01BFF000E00017015000137
:1041D0007A6FFF0E0001711500017B6F000E000168
:1041E000721500017C6F000E0001731500017D6FD8
:1041F0007AC075F07BC076F07CC077F07DC078F037
:1042000076C075F077C076F078C077F00001786BF3
:1042100075C07AF076C07BF077C07CF078C07DF016
:104220007AC01AFF000172A103D00F01198102D0D8
:104230000F011991000172A303D00F01198302D05D
:104240000F011993000172A503D00F01198B02D041
:104250000F01199B000172A703D00F01198D02D025
:104260000F01199D000172A903D00F01198F02D00F
:104270000F01199F70C075F071C076F072C077F0B1
:1042800073C078F0160E06D00001D89078337733DB
:1042900076337533E82EF8D775C07AF076C07BF0A8
:1042A00077C07CF078C07DF000017A5100017A6F10
:1042B0007B6B7C6B7D6B7AC018FF020E0001791955
:1042C000D8A41200F70E00017419D8A4120000013E
:1042D000705100017A6F7B6B7C6B7D6B7AC01FFF26
:1042E000000E0001701500017A6FFF0E00017115BC
:1042F00000017B6F000E0001721500017C6F000E43
:104300000001731500017D6F7AC075F07BC076F0F7
:104310007CC077F07DC078F076C075F077C076F01D
:1043200078C077F00001786B75C07AF076C07BF0CA
:1043300077C07CF078C07DF07AC01EFF000172A1CA
:1043400003D00F011D8102D00F011D91000172A346
:1043500003D00F011D8302D00F011D93000172A530
:1043600003D00F011D8B02D00F011D9B000172A70E
:1043700003D00F011D8D02D00F011D9D000172A9F8
:1043800003D00F011D8F02D00F011D9F70C075F06B
:1043900071C076F072C077F073C078F0160E06D058
:1043A0000001D8907833773376337533E82EF8D719
:1043B00075C07AF076C07BF077C07CF078C07DF075
:1043C00000017A5100017A6F7B6B7C6B7D6B7AC048
:1043D0001CFF12000001A36F6D0E0001A365CDD07C
:1043E000000E0001796F0A0E786F000E0001736FE6
:1043F000640E726FA3C070F00001716B01ECAFF03E
:1044000070C076F071C077F083ECACF00001D8900A
:10441000763777370001D89076377737240E00014A
:104420007627000E00017723F30E00017625F66E45
:10443000FD0E00017721F76EF86A000EF8220900E0
:10444000F5CF82F00900F5CF83F00900F5CF84F0B5
:104450000A00F5CF85F0000E0001796F640E786FC9
:10446000A3C076F00001776B83ECACF00001D8902C
:10447000763777370001D89076377737480E0001C6
:104480007627000E00017723F30E00017625F66EE5
:10449000FD0E00017721F76EF86A000EF822090080
:1044A000F5CF7EF00900F5CF7FF00900F5CF80F061
:1044B0000A00F5CF81F0E8EC9BF07EC09FF07FC052
:1044C000A0F080C0A1F081C0A2F0000E0001736FC7
:1044D0000A0E726FA3C070F00001716B01ECAFF0B7
:1044E0000001D890703771370001D890703771375C
:1044F000F30E00017025F66EFD0E00017121F76EBE
:10450000F86A000EF8220900F5CF82F00900F5CF15
:1045100083F00900F5CF84F00A00F5CF85F09FC045
:104520007EF0A0C07FF0A1C080F0A2C081F0E8ECD6
:104530009BF07EC09BF07FC09CF080C09DF081C04E
:104540009EF09BC07EF09CC07FF09DC080F09EC01E
:1045500081F0000E0001826F000E836F000E846FE9
:104560003F0E856FE8EC9BF07EC097F07FC098F01F
:1045700080C099F081C09AF012000A0E0001A36574
:1045800078D0000E0001736F0A0E726FA3C070F036
:104590000001716B01ECAFF00001D89070377137FA
:1045A0000001D89070377137F30E00017025F66E58
:1045B000FD0E00017121F76EF86A000EF822090065
:1045C000F5CF82F00900F5CF83F00900F5CF84F034
:1045D0000A00F5CF85F0000E0001796F0A0E786FA2
:1045E000A3C076F00001776B83ECACF00001D890AB
:1045F000763777370001D89076377737240E000169
:104600007627000E00017723F30E00017625F66E63
:10461000FD0E00017721F76EF86A000EF8220900FE
:10462000F5CF7EF00900F5CF7FF00900F5CF80F0DF
:104630000A00F5CF81F0E8EC9BF07EC09FF07FC0D0
:10464000A0F080C0A1F081C0A2F09FC07EF0A0C009
:104650007FF0A1C080F0A2C081F0000E0001826F47
:10466000000E836F000E846F3F0E856FE8EC9BF0A9
:104670007BD70001A351040DF30EF324F66EFD0E5B
:10468000F420F76EF86A000EF8220900F5CF7EF0EC
:104690000900F5CF7FF00900F5CF80F00A00F5CFD3
:1046A00081F0000E0001826F000E836F000E846F98
:1046B0003F0E856FE8EC9BF07EC097F07FC098F0CE
:1046C00080C099F081C09AF01200E9CF64F0EACF7F
:1046D00065F0E1CF66F0E2CF67F0D9CF68F0DACFCE
:1046E00069F0F3CF6AF0F4CF6BF0F6CF6CF0F7CF50
:1046F0006DF0F8CF6EF0F5CF6FF0A4A2A4B001D0AA
:10470000C8D007ECB4F00009D8B4BFD0110E386E91
:10471000010E396E0EEC97F001011FA102D04C88FA
:1047200001D04C9811C101F012C102F013C103F085
:1047300014C104F04C8E060E011802100310041070
:10474000D8A41AD0000E4B6E070E4B6401D014D0C3
:104750004B50010D150EF324D96E010EF420DA6EC4
:104760004B50010D000EF324E16E010EF420E26EB9
:10477000DFCFE7FF4B2AE8D70B0E0118021003101A
:104780000410D8A434D001011505D8A405D04D8259
:104790004D944C945FECB1F0020E01011519D8A4B0
:1047A00014D0010E0001E46F000E0001E36F000E53
:1047B000E26F5A0E0001EB6F000E266E010E276E9F
:1047C00052ECAFF04D8437ECB1F0030E0101151936
:1047D000D8A40DD04C92C80E1924156E000E1A20C4
:1047E000166E000E1B20176E000E1C20186E0E0E8B
:1047F0000118021003100410D8A408D0010116A15A
:1048000002D04D8601D04D9615C1E6F0AA0E0118D2
:10481000021003100410D8A40BD016C121F0226A94
:1048200021500001606F01011551216E60C022F01E
:10483000020E0118021003100410D8B44CA825D0A1
:1048400019C00DF01AC00EF01BC00FF01CC010F004
:10485000030E256E0D0EE82EFED700F0A6ECB3F089
:10486000E806D8A4FBD7020E386E000E396E000E93
:104870003A6E000E3B6E250E3C6E000E3D6E080E2D
:104880003E6EBC0E3F6E39EC91F08C848C86A49207
:10489000A4906FC0F5FF6EC0F8FF6DC0F7FF6CC04D
:1048A000F6FF6BC0F4FF6AC0F3FF69C0DAFF68C0AF
:1048B000D9FF67C0E2FF66C0E1FF65C0EAFF64C0E0
:1048C000E9FF63C0FBFF62C0FAFF4E9211000001D6
:1048D000786F000178510001D8B41ED0000173AF89
:1048E0001BD070C074F071C075F072C076F073C0E8
:1048F00077F00001741F751F761F771F742B000E51
:1049000075237623772374C07AF075C07BF076C068
:104910007CF077C07DF008D070C07AF071C07BF079
:1049200072C07CF073C07DF0000170510001711104
:104930000001721100017311D8A40AD0000E000109
:10494000706F000E716F000E726F000E736F1200A9
:10495000960E0001796F08D00001792B0001D890E4
:104960007D337C337B337A33000E00017A150001EE
:10497000746F000E00017B150001756F000E0001C1
:104980007C150001766FFE0E00017D150001776F2A
:1049900000017451000175110001761100017711B9
:1049A000D8B410D0D9D70001792B010E00017A2795
:1049B000000E7B237C237D230001D8907D337C3344
:1049C0007B337A33000E00017A150001746F000EFC
:1049D00000017B150001756F000E00017C150001C0
:1049E000766FFF0E00017D150001776F0001745195
:1049F000000175110001761100017711D8B409D0BA
:104A0000D2D7000179070001D8907A377B377C37FD
:104A10007D3700017CBF04D0020E00017961F1D71F
:104A2000000179B109D0FF0E00017A17FF0E7B1744
:104A30007F0E7C17FF0E7D170001D890793379C067
:104A400074F00001756B766B776B74C077F00001C2
:104A5000766B756B746B0001745100017A13000161
:104A6000755100017B130001765100017C13000198
:104A7000775100017D13000178510001D8B405D0B1
:104A8000000173AF02D000017D8F7AC070F07BC04F
:104A900071F07CC072F07DC073F012000001876F6E
:104AA000800EFCECB3F0000E706E000E716E000E06
:104AB000726E00018041E842C00B0001806F00016E
:104AC00080517012000181517012000187517112E2
:104AD00000017E39E842F80B00017E6F00017E5133
:104AE0007112000182A5718C000182B1718E0001EA
:104AF0007F517212000182B3728C00018251600BEF
:104B0000606E00018251100BFF0AD8B4608460CF40
:104B100050FF000E0001706F000E716F000E726F7B
:104B2000000E736FF70E0001746F010E1BECA0F006
:104B3000000E0001706F000E716F000E726F000E9C
:104B4000736FF70E0001746F020E1BECA0F00FD014
:104B5000F70E0001886F07D000018869000189699C
:104B600028D000018869F70E0001896F22D09F0EBE
:104B70000001836FFF0E0001846F00018251600B02
:104B80000001856F866B00018351000185130001D0
:104B900084510001861300018651000AD8A4E1D790
:104BA00000018551BF0AD8B4D7D7600AD8B4D0D78E
:104BB000D8D7000E0001706F000E716F000E726F7B
:104BC000000E736F88C074F0000E00EC80F0000ED1
:104BD0000001706F000E716F000E726F000E736F28
:104BE00088C074F0010E00EC80F0000E0001706FC0
:104BF000000E716F000E726F000E736F89C074F03B
:104C0000020E00EC80F0000E0001706F000E716F5C
:104C1000000E726F000E736F89C074F0030E00EC0B
:104C200080F0000E0001706F000E716F000E726F49
:104C3000000E736F89C074F0040E00EC80F0000E5B
:104C40000001706F000E716F000E726F000E736FB7
:104C500089C074F0050E00EC80F0000EFCECB3F09F
:104C6000120021EE07F010EE91F0050EDBCFE3FF0E
:104C7000E806FCE2910E0001806F000E0001816FDA
:104C800088C082F089C083F0000E0001856F0A0E93
:104C9000846FD1ECB1F000018A510001D8B4B8D0D2
:104CA00000018A51010D910EF324D96E000EF420FB
:104CB000DA6E000EDF6E70D000018A050001976F7A
:104CC000000197510001D8B467D0FF0E00018C6F2E
:104CD000FF0E00018D6F0001975100018E6F8F6BE9
:104CE00000018C5100018E2700018D5100018F239E
:104CF000910E00018E25D96E000E00018F21DA6E13
:104D000000019751010D910EF324E16E000EF42085
:104D1000E26EDFCFE7FF00018B05D8A41DD0FF0EA8
:104D200000018C6FFF0E00018D6F00019751000193
:104D30008E6F8F6B00018C5100018E2700018D5109
:104D400000018F23910E00018E25D96E000E000107
:104D50008F21DA6E200E1CD0FF0E00018C6FFF0E2B
:104D600000018D6F0001975100018E6F8F6B000164
:104D70008C5100018E2700018D5100018F23910E6F
:104D800000018E25D96E000E00018F21DA6E300EE3
:104D9000DF6E0001970794D7FF0E00018C6FFF0EA6
:104DA00000018D6F00018A5100018E6F8F6B000131
:104DB0008C5100018E2700018D5100018F23910E2F
:104DC00000018E25D96E000E00018F21DA6E3A0E99
:104DD000DF6072D7FF0E00018C6FFF0E00018D6F38
:104DE00000018A5100018E6F8F6B00018C51000110
:104DF0008E2700018D5100018F23910E00018E2519
:104E0000D96E000E00018F21DA6E2F0EDF6454D7A9
:104E1000910E0001816F000E0001826F4AECB3F029
:104E2000120083ECB3F0E806D8A4FBD7060E00010D
:104E3000706F000E716F000E726F000E736FEA0ECE
:104E40000001746F000E0001756F080E0001766F8F
:104E5000FC0E0001776FCDEC89F0DEC070F0DFC092
:104E600071F00001726B736B000E67ECA4F070C000
:104E70007EF071C07FF072C080F073C081F0000ED0
:104E80000001826F000E836F8B0E846F430E856F5F
:104E90003BEC9EF07EC00DF17FC00EF180C00FF1A3
:104EA00081C010F1200E0001C26F010E0001C36F1E
:104EB000FA0E0001C46FFF0E0001C56F0DC1C6F0F0
:104EC0000EC1C7F00FC1C8F010C1C9F083EC85F066
:104ED000000E01012B6F4CAC32D0100E43ECAAF047
:104EE000D7ECB2F0010E0DECACF0550E0001816F65
:104EF000FF0E0001826FA4ECB2F0020E0DECACF0DC
:104F0000C80E0001816FFF0E0001826FA4ECB2F0A9
:104F1000030E0DECACF0A90E0001816FFF0E000135
:104F2000826FA4ECB2F0040E0DECACF0E40E0001C4
:104F3000816FFF0E0001826FA4ECB2F04C9C020E58
:104F400000017F6F0C0ED2ECB3F00001E751D8B432
:104F500016D00001E405D8A409D0F00E0001816F3D
:104F6000FF0E0001826FA4ECB2F011D0F50E00012B
:104F7000816FFF0E0001826FA4ECB2F008D0EB0E3F
:104F80000001816FFF0E0001826FA4ECB2F0030EEE
:104F900000017F6F080ED2ECB3F0200E0001816F8C
:104FA000010E0001826F4AECB3F0040E00017F6F26
:104FB000070ED2ECB3F021C088F022C089F0000EB9
:104FC00000018A6F010E00018B6F31ECA6F0120018
:104FD00072C078F00001796B7A6B000171350001C5
:104FE000783701E37981000178510001806F000179
:104FF0008051D8A40AD0000E0001706F000E716FAE
:10500000000E726F000E736F120076C078F0000110
:10501000796B7A6B000175350001783701E379818E
:105020000001785100017F6F00017F51D8A40AD0A0
:10503000000E0001706F000E716F000E726F000E97
:10504000736F12000001718FFF0E00017017FF0EC9
:1050500000017117000E000172170001758FFF0E1D
:1050600000017417FF0E00017517000E000176177E
:10507000000E00017B6F000E7C6F000E7D6F000E36
:105080007E6F7F0E0001805F00017F51980F00014D
:10509000805F180E00017F6F0001D8907B377C374E
:1050A0007D377E37000174510001705D000175513C
:1050B000000171590001765100017259D8A00ED03B
:1050C000000174510001705F000175510001715BB6
:1050D000000176510001725B00017B810001D890D4
:1050E00070377137723700017F2FD6D7000180AF3C
:1050F0001AD000018051800A970FD8B00AD0000E54
:105100000001706F000E716F000E726F000E736FF2
:1051100012000001D8907E337D337C337B33000155
:10512000803FF7D71BD0170E0001806512D0000E0C
:105130000001706F000E716F000E726F000E736FC2
:1051400012000001D8907B377C377D377E37000115
:105150008007000180510001D8A4F3D77BC070F014
:105160007CC071F07DC072F07EC073F01200000E42
:10517000000170150001786F000E0001711500012B
:10518000796F800E0001721500017A6F7F0E0001A9
:10519000731500017B6F0001785100017911000146
:1051A0007A1100017B11D8A409D0000E0001706FA4
:1051B000000E716F000E726F000E736F000E000113
:1051C00074150001786F000E000175150001796FEC
:1051D000800E0001761500017A6F7F0E00017715B1
:1051E00000017B6F000178510001791100017A11F3
:1051F00000017B11D8A409D0000E0001746F000ECD
:10520000756F000E766F000E776F000173AF26D0BA
:1052100070C078F071C079F072C07AF073C07BF022
:105220000001781F791F7A1F7B1F782B000E7923CE
:105230007A237B23000E000178250001706F000E99
:10524000000179210001716F000E00017A21000137
:10525000726F800E00017B210001736F000177AF38
:1052600026D074C078F075C079F076C07AF077C037
:105270007BF00001781F791F7A1F7B1F782B000EAF
:1052800079237A237B23000E000178250001746FB7
:10529000000E000179210001756F000E00017A21D6
:1052A0000001766F800E00017B210001776F000EF8
:1052B0000001701B000E711B000E721B800E731B11
:1052C000000E0001741B000E751B000E761B800E75
:1052D000771B000174510001705D000175510001E0
:1052E0007159000176510001725900017751000196
:1052F0007359D8B002D0D8901200D88012000001A3
:105300007235733500017D6F00017D51D8A40AD03C
:10531000000E0001706F000E716F000E726F000EB4
:10532000736F120000017635773500017C6F000144
:105330007C51D8A40AD0000E0001706F000E716F6E
:10534000000E726F000E736F12000001728FFF0E5D
:1053500000017017FF0E7117FF0E7217000E731702
:105360000001768FFF0E00017417FF0E7517FF0EF8
:105370007617000E7717000E0001786F000E796F18
:10538000000E7A6F000E7B6F7F0E00017D5F0001C3
:105390007C51A00F00017D5F200E00017C6F000199
:1053A000D890783779377A377B370001745100010C
:1053B000705D0001755100017159000176510001C5
:1053C00072590001775100017359D8A012D0000121
:1053D00074510001705F000175510001715B0001A3
:1053E00076510001725B000177510001735B00018F
:1053F00078810001D89070377137723773370001A8
:105400007C2FCDD700017DAF1AD000017D51800ADD
:105410009F0FD8B00AD0000E0001706F000E716FA0
:10542000000E726F000E736F12000001D8907B3374
:105430007A337933783300017D3FF7D71BD01F0EC5
:1054400000017D6512D0000E0001706F000E716FBB
:10545000000E726F000E736F12000001D890783743
:1054600079377A377B3700017D0700017D510001D4
:10547000D8A4F3D778C070F079C071F07AC072F018
:105480007BC073F0120000017E6F00017E5112ECB0
:10549000B4F08D948B928B90000E0001776F640EA8
:1054A000766F34ECB2F0000E0001786F010E00014F
:1054B000796F010E00017A6F000E17ECB2F0000E4A
:1054C0000001776F640E766F34ECB2F0000E0001CD
:1054D000786F010E0001796F010E00017A6F000EE6
:1054E00017ECB2F0000E0001776F0A0E766F34EC05
:1054F000B2F0000E0001786F010E0001796F010E0D
:1055000000017A6F000E17ECB2F0000E0001786F08
:10551000010E0001796F000E00017A6F000E17EC8A
:10552000B2F0000E0001786F010E0001796F000EDD
:1055300000017A6F000E17ECB2F0000E0001786FD8
:10554000000E0001796F000E00017A6F010E17EC5A
:10555000B2F0000E0001786F000E0001796F000EAE
:1055600000017A6F000E17ECB2F0000E0001786FA8
:10557000000E0001796F000E00017A6F010E17EC2A
:10558000B2F0000E0001786F000E0001796F000E7E
:1055900000017A6F000E17ECB2F0000E0001786F78
:1055A000000E0001796F010E00017A6F000E17ECFA
:1055B000B2F0000E0001786F000E0001796F000E4E
:1055C00000017A6F000E17ECB2F0010E0001786F47
:1055D000010E0001796F000E00017A6F000E17ECCA
:1055E000B2F0D7ECB2F0000E00017C6F000EBEEC02
:1055F000B2F01200466E465017ECB4F08D948B92C8
:105600008B90000E3F6E640E3E6E6DECB2F0000E9D
:10561000406E010E416E010E426E000E09ECB3F0B9
:10562000000E3F6E640E3E6E6DECB2F0000E406EEA
:10563000010E416E010E426E000E09ECB3F0000E39
:105640003F6E0A0E3E6E6DECB2F0000E406E010E23
:10565000416E010E426E000E09ECB3F0000E406E7A
:10566000010E416E000E426E000E09ECB3F0000E0A
:10567000406E010E416E000E426E000E09ECB3F05A
:10568000000E406E000E416E000E426E010E09ECDF
:10569000B3F0000E406E000E416E000E426E000E22
:1056A00009ECB3F0000E406E000E416E000E426E2B
:1056B000010E09ECB3F0000E406E000E416E000EBC
:1056C000426E000E09ECB3F0000E406E000E416E0B
:1056D000010E426E000E09ECB3F0000E406E000E9B
:1056E000416E000E426E000E09ECB3F0010E406EEA
:1056F000010E416E000E426E000E09ECB3F05DEC3F
:10570000B3F0000E446E000E36ECB3F01200000150
:10571000BA35BB350001C16F0001C151D8A40AD010
:10572000000E0001B86F000EB96F000EBA6F000EC8
:10573000BB6F1200B8C0BCF0B9C0BDF0BAC0BEF0BB
:10574000BBC0BFF0200E06D00001D890BF33BE33DF
:10575000BD33BC33E82EF8D70001BC510001C06F47
:105760000001BA8FFF0E0001B817FF0EB917FF0E28
:10577000BA17000EBB17960E0001C15F0001C1AF42
:105780001AD00001C151800A970FD8B00AD0000E7C
:105790000001B86F000EB96F000EBA6F000EBB6F3C
:1057A00012000001D890BB33BA33B933B8330001CB
:1057B000C13FF7D71BD01F0E0001C16512D0000EEC
:1057C0000001B86F000EB96F000EBA6F000EBB6F0C
:1057D00012000001D890B837B937BA37BB3700018B
:1057E000C1070001C1510001D8A4F3D70001C05185
:1057F0000001D8B409D00001BB1FBA1FB91FB86D92
:10580000000EB923BA23BB23B8C0B8F0B9C0B9F0B1
