:0400000060EF00F0BD
:0E0008004B82FACF3AF0FBCF3BF0E2EFA5F0CF
:100018004B80D8CF60F0E8CF61F0E0CF62F0FACF44
:1000280063F0FBCF64F0E9CF65F0EACF66F0E1CF8B
:1000380067F0E2CF68F0D9CF69F0DACF6AF0F3CF92
:100048006BF0F4CF6CF0F6CF6DF0F7CF6EF0F8CF21
:100058006FF0F5CF70F0A1A20BD0010E1926000E9B
:100068001A221B221C22630EB36EC00EB26EA1921E
:1000780070C0F5FF6FC0F8FF6EC0F7FF6DC0F6FFE8
:100088006CC0F4FF6BC0F3FF6AC0DAFF69C0D9FF28
:1000980068C0E2FF67C0E1FF66C0EAFF65C0E9FF2C
:1000A80064C0FBFF63C0FAFF62C0E0FF61C0E8FF05
:0C00B80060C0D8FF4B901000CCEFB2F0FD
:10FCCC00000000803FCDCCCC3D0AD7233C6F128383
:10FCDC003A17B7D138ACC52737BD37863595BFD65F
:10FCEC003377CC2B325F708930FFE6DB2E08E53C96
:10FCFC001E6042A20D0000803F000020410000C8A1
:10FD0C004200007A4400401C460050C34700247453
:10FD1C00498096184B20BCBE4C286B6E4EF90215D0
:10FD2C0050EC78AD60CAF24971010000000A000085
:10FD3C000064000000E803000010270000A086010A
:10FD4C000040420F008096980000E1F50500CA9A29
:10FD5C003B446972656374696F6E3A2020202020E1
:10FD6C002020202020002020202020202046414937
:10FD7C004C45442120202020202000202020202021
:10FD8C002053544F50504544212020202020200047
:10FD9C002020202020434F4D504C455445442120D9
:10FDAC0020202020002020202062792074686520EB
:10FDBC005553455220202020200020202020535530
:10FDCC00434345535346554C4C592020202000208A
:10FDDC0020207374617274207061726B696E67207D
:10FDEC0020202000202053696D6F6E6520526967BA
:10FDFC0068657474692020200020204D617373693C
:10FE0C006D6F20436C656D656E7469202000202039
:10FE1C0050726573732074686520627574746F6EAC
:10FE2C0020200020202064756520746F20616E20D6
:10FE3C006572726F72202000426174746572792051
:10FE4C006368617267696E672E2E2E200020756EB6
:10FE5C0074696C206E657874206D65737361676569
:10FE6C002000507265737320746865204255545499
:10FE7C004F4E20746F200020204769616E6C6F72AA
:10FE8C00656E7A6F204D6F73657220002050617221
:10FE9C006B696E672070726F636564757265732031
:10FEAC00002D2044697374616E6365205245414393
:10FEBC00484544202D002D3E20204B454550204DDB
:10FECC004F56494E472020203C2D002D3E2053619B
:10FEDC0066657479206272616B65204F4E3C2D0013
:10FEEC003D202020205061726B696E6720696E2066
:10FEFC002020203D003D2020202070726F6772650D
:10FF0C0073732E2E2E2020203D003D205041524B4D
:10FF1C00494E47204D45535341474553203D003DE5
:10FF2C003E20202020435245444954532120202078
:10FF3C00203C3D003D3D3E2056454849434C452024
:10FF4C00204F4646203C3D3D003D3D3D205645481A
:10FF5C0049434C452044415441203D3D3D003D3DED
:10FF6C003D3D3D3D3D3D3D3D3D3D3D3D3D3D3D3DB5
:10FF7C003D3D00205061726B696E67207370616348
:10FF8C006520464F554E44005B215D20204C6F7719
:10FF9C002062617474657279205B215D0053706519
:10FFAC0065643A20302E3030204B6D2F6800506144
:10FFBC00726B206173736973743A200044697265C3
:10FFCC006374696F6E3A20004F4646202020200053
:10FFDC005345415243482000446174613A2000501B
:10FFEC00202020004657442000424B574400252E29
:04FFFC003266000069
:020000040001F9
:1000000000017A6F00017A510001D8A458D0000194
:100010007529D8A454D00F01019771C076F072C031
:1000200077F073C078F074C079F0040E06D0000148
:10003000D8907933783377337633E82EF8D776C093
:100040007BF077C07CF078C07DF079C07EF0000155
:100050007B5100017B6F7C6B7D6B7E6B7BC000FFF7
:10006000070E0001711500017B6F000E0001721573
:1000700000017C6F000E0001731500017D6F000E02
:100080000001741500017E6F7BC076F07CC077F0B4
:100090007DC078F07EC079F0050ED89000017637EB
:1000A000773778377937E82EF8D776C07BF077C086
:1000B0007CF078C07DF079C07EF07BC001FF00014C
:1000C0007A05D8A458D000017529D8A454D00F01BE
:1000D000059771C076F072C077F073C078F074C085
:1000E00079F0040E06D00001D89079337833773355
:1000F0007633E82EF8D776C07BF077C07CF078C0F6
:100100007DF079C07EF000017B5100017B6F7C6B3C
:100110007D6B7E6B7BC004FF070E00017115000133
:100120007B6F000E0001721500017C6F000E000154
:10013000731500017D6F000E0001741500017E6FC4
:100140007BC076F07CC077F07DC078F07EC079F01F
:10015000050ED89000017637773778377937E82E53
:10016000F8D776C07BF077C07CF078C07DF079C09E
:100170007EF07BC005FF020E00017A19D8A458D08A
:1001800000017529D8A454D00F01099771C076F0E9
:1001900072C077F073C078F074C079F0040E06D0A6
:1001A0000001D8907933783377337633E82EF8D757
:1001B00076C07BF077C07CF078C07DF079C07EF0AF
:1001C00000017B5100017B6F7C6B7D6B7E6B7BC084
:1001D00008FF070E0001711500017B6F000E000182
:1001E000721500017C6F000E0001731500017D6F18
:1001F000000E0001741500017E6F7BC076F07CC09C
:1002000077F07DC078F07EC079F0050ED8900001BF
:100210007637773778377937E82EF8D776C07BF09E
:1002200077C07CF078C07DF079C07EF07BC009FF9C
:10023000030E00017A19D8A458D000017529D8A45A
:1002400054D00F010D9771C076F072C077F073C073
:1002500078F074C079F0040E06D00001D89079339C
:10026000783377337633E82EF8D776C07BF077C0D3
:100270007CF078C07DF079C07EF000017B510001F8
:100280007B6F7C6B7D6B7E6B7BC00CFF070E000170
:10029000711500017B6F000E0001721500017C6F6B
:1002A000000E0001731500017D6F000E0001741532
:1002B00000017E6F7BC076F07CC077F07DC078F067
:1002C0007EC079F0050ED890000176377737783701
:1002D0007937E82EF8D776C07BF077C07CF078C00D
:1002E0007DF079C07EF07BC00DFF040E00017A190D
:1002F000D8A458D000017529D8A454D00F01119763
:1003000071C076F072C077F073C078F074C079F085
:10031000040E06D00001D8907933783377337633E2
:10032000E82EF8D776C07BF077C07CF078C07DF0FF
:1003300079C07EF000017B5100017B6F7C6B7D6B8F
:100340007E6B7BC010FF070E0001711500017B6FF3
:10035000000E0001721500017C6F000E0001731584
:1003600000017D6F000E0001741500017E6F7BC0DF
:1003700076F07CC077F07DC078F07EC079F0050E15
:10038000D89000017637773778377937E82EF8D765
:1003900076C07BF077C07CF078C07DF079C07EF0CD
:1003A0007BC011FF050E00017A19D8A458D00001B6
:1003B0007529D8A454D00F01159771C076F072C07A
:1003C00077F073C078F074C079F0040E06D00001A5
:1003D000D8907933783377337633E82EF8D776C0F0
:1003E0007BF077C07CF078C07DF079C07EF00001B2
:1003F0007B5100017B6F7C6B7D6B7E6B7BC014FF40
:10040000070E0001711500017B6F000E00017215CF
:1004100000017C6F000E0001731500017D6F000E5E
:100420000001741500017E6F7BC076F07CC077F010
:100430007DC078F07EC079F0050ED8900001763747
:10044000773778377937E82EF8D776C07BF077C0E2
:100450007CF078C07DF079C07EF07BC015FF000194
:100460007A510001D8A489D0F70E00017519D8A4DB
:1004700084D00F0101870001715100017B6F7C6BFB
:100480007D6B7E6B7BC003FF000E000171150001C8
:100490007B6FFF0E0001721500017C6F000E0001E2
:1004A000731500017D6F000E0001741500017E6F51
:1004B0007BC076F07CC077F07DC078F07EC079F0AC
:1004C00077C076F078C077F079C078F00001796B6A
:1004D00076C07BF077C07CF078C07DF079C07EF08C
:1004E0007BC002FF000173A103D00F01018102D084
:1004F0000F010191000173A303D00F01018302D00A
:100500000F010193000173A503D00F01018B02D0ED
:100510000F01019B000173A703D00F01018D02D0D1
:100520000F01019D000173A903D00F01018F02D0BB
:100530000F01019F71C076F072C077F073C078F040
:1005400074C079F0160E06D00001D8907933783354
:1005500077337633E82EF8D776C07BF077C07CF01F
:1005600078C07DF079C07EF000017B5100017B6F87
:100570007C6B7D6B7E6B7BC000FF00017A05D8A48D
:1005800089D0F70E00017519D8A484D00F01058712
:100590000001715100017B6F7C6B7D6B7E6B7BC0BA
:1005A00007FF000E0001711500017B6FFF0E0001B7
:1005B000721500017C6F000E0001731500017D6F44
:1005C000000E0001741500017E6F7BC076F07CC0C8
:1005D00077F07DC078F07EC079F077C076F078C093
:1005E00077F079C078F00001796B76C07BF077C046
:1005F0007CF078C07DF079C07EF07BC006FF000102
:1006000073A103D00F01058102D00F0105910001F4
:1006100073A303D00F01058302D00F0105930001DE
:1006200073A503D00F01058B02D00F01059B0001BC
:1006300073A703D00F01058D02D00F01059D0001A6
:1006400073A903D00F01058F02D00F01059F71C060
:1006500076F072C077F073C078F074C079F0160E3F
:1006600006D00001D8907933783377337633E82E8B
:10067000F8D776C07BF077C07CF078C07DF079C089
:100680007EF000017B5100017B6F7C6B7D6B7E6B8C
:100690007BC004FF020E00017A19D8A489D0F70E9E
:1006A00000017519D8A484D00F0109870001715188
:1006B00000017B6F7C6B7D6B7E6B7BC00BFF000E44
:1006C0000001711500017B6FFF0E00017215000122
:1006D0007C6F000E0001731500017D6F000E00019C
:1006E000741500017E6F7BC076F07CC077F07DC012
:1006F00078F07EC079F077C076F078C077F079C076
:1007000078F00001796B76C07BF077C07CF078C020
:100710007DF079C07EF07BC00AFF000173A103D099
:100720000F01098102D00F010991000173A303D0C9
:100730000F01098302D00F010993000173A503D0B3
:100740000F01098B02D00F01099B000173A703D091
:100750000F01098D02D00F01099D000173A903D07B
:100760000F01098F02D00F01099F71C076F072C08E
:1007700077F073C078F074C079F0160E06D00001DF
:10078000D8907933783377337633E82EF8D776C03C
:100790007BF077C07CF078C07DF079C07EF00001FE
:1007A0007B5100017B6F7C6B7D6B7E6B7BC008FF98
:1007B000030E00017A19D8A489D0F70E000175192B
:1007C000D8A484D00F010D870001715100017B6F07
:1007D0007C6B7D6B7E6B7BC00FFF000E0001711583
:1007E00000017B6FFF0E0001721500017C6F000E8F
:1007F0000001731500017D6F000E000174150001EA
:100800007E6F7BC076F07CC077F07DC078F07EC0D4
:1008100079F077C076F078C077F079C078F0000191
:10082000796B76C07BF077C07CF078C07DF079C0C2
:100830007EF07BC00EFF000173A103D00F010D817C
:1008400002D00F010D91000173A303D00F010D839E
:1008500002D00F010D93000173A503D00F010D8B82
:1008600002D00F010D9B000173A703D00F010D8D66
:1008700002D00F010D9D000173A903D00F010D8F50
:1008800002D00F010D9F71C076F072C077F073C077
:1008900078F074C079F0160E06D00001D890793344
:1008A000783377337633E82EF8D776C07BF077C08D
:1008B0007CF078C07DF079C07EF000017B510001B2
:1008C0007B6F7C6B7D6B7E6B7BC00CFF040E00012D
:1008D0007A19D8A489D0F70E00017519D8A484D04C
:1008E0000F0111870001715100017B6F7C6B7D6BE3
:1008F0007E6B7BC013FF000E0001711500017B6F42
:10090000FF0E0001721500017C6F000E00017315CF
:1009100000017D6F000E0001741500017E6F7BC029
:1009200076F07CC077F07DC078F07EC079F077C03B
:1009300076F078C077F079C078F00001796B76C0F6
:100940007BF077C07CF078C07DF079C07EF07BC012
:1009500012FF000173A103D00F01118102D00F011A
:100960001191000173A303D00F01118302D00F0175
:100970001193000173A503D00F01118B02D00F0159
:10098000119B000173A703D00F01118D02D00F013D
:10099000119D000173A903D00F01118F02D00F0127
:1009A000119F71C076F072C077F073C078F074C098
:1009B00079F0160E06D00001D8907933783377336A
:1009C0007633E82EF8D776C07BF077C07CF078C01D
:1009D0007DF079C07EF000017B5100017B6F7C6B64
:1009E0007D6B7E6B7BC010FF050E00017A19D8A4C9
:1009F0001200F70E00017519D8A412000F01158717
:100A00000001715100017B6F7C6B7D6B7E6B7BC045
:100A100017FF000E0001711500017B6FFF0E000132
:100A2000721500017C6F000E0001731500017D6FCF
:100A3000000E0001741500017E6F7BC076F07CC053
:100A400077F07DC078F07EC079F077C076F078C01E
:100A500077F079C078F00001796B76C07BF077C0D1
:100A60007CF078C07DF079C07EF07BC016FF00017D
:100A700073A103D00F01158102D00F011591000160
:100A800073A303D00F01158302D00F01159300014A
:100A900073A503D00F01158B02D00F01159B000128
:100AA00073A703D00F01158D02D00F01159D000112
:100AB00073A903D00F01158F02D00F01159F71C0CC
:100AC00076F072C077F073C078F074C079F0160ECB
:100AD00006D00001D8907933783377337633E82E17
:100AE000F8D776C07BF077C07CF078C07DF079C015
:100AF0007EF000017B5100017B6F7C6B7D6B7E6B18
:100B00007BC014FF120049ECAFF0CF0E0001CD6F97
:100B1000F70ECE6F330ECF6F3F0ED06F000E000179
:100B2000D16F000ED26FC80ED36F410ED46F000E7E
:100B300001012E6F81B2488634ECB2F0DEC0E5F0E0
:100B400006ECB4F030ECB4F022ECB4F049B6CBD003
:100B5000010E0001E76F000E0001E46F000EE36F6D
:100B60005A0E01013D6F000E01012D6FECECAEF04D
:100B7000839C839A100E1DECACF0010E5AECADF084
:100B80006A0E0001826FFF0E0001836F60ECB3F00C
:100B9000020E5AECADF0400E0001826FFF0E000114
:100BA000836F60ECB3F0030E5AECADF01A0E000147
:100BB000826FFE0E0001836F60ECB3F0040E5AECFE
:100BC000ADF06A0E0001826FFF0E0001836F60ECD2
:100BD000B3F082D0D9C066F1DAC067F1DBC068F14A
:100BE000DCC069F10101661F671F681F691F662B62
:100BF000000E67236823692319500101662501014E
:100C00006A6F1A500101672101016B6F1B500101CE
:100C1000682101016C6F1C500101692101016D6F98
:100C200001016D5101016C1101016B1105E11E0EF5
:100C300001016A5DD8A03DD019C0D9F01AC0DAF020
:100C40001BC0DBF01CC0DCF049B810D083AE02D072
:100C5000010E01D0000EFF0A0101666F010166332B
:100C600066338350010166197F0B21D083AC02D01B
:100C7000010E01D0000EFF0A0101666F0101663B03
:100C800066476647835001016619BF0B6619836E7C
:100C900083AA02D0010E01D0000EFF0A0101666F87
:100CA0000101663B6647835001016619DF0B661937
:100CB000836E81B281A807D049B805D04988838E58
:100CC000838CD1ECB1F006ECB4F0000E0001786F2B
:100CD0000A0E776F0CECB3F049A67CD74998839C39
:100CE000839A839E488E80A404D0000E0001EB6F8F
:100CF0000DD080B605D0010E0001EB6F010E04D0BF
:100D0000020E0001EB6F000E0001E76F48A2C5D094
:100D10004A9C4AAA48B42DD0499C010E0001E96FB3
:100D2000000E0001D16F000ED26F000ED36F410E86
:100D3000D46FD4ECB3F00009D8B4FBD7010E010195
:100D4000456F0C0E0001716F000E726F000E736F15
:100D5000000E746F450E0001756F010E0001766F75
:100D6000080E0001776FBC0E0001786FAEEC8EF0BC
:100D70004A8A48B449AC29D049AE27D04ABE26D0C9
:100D8000040E0001E86F020E0001E96FD4ECB3F02D
:100D90000009D8B4FBD70E0E0001716F000E726F00
:100DA000000E736F000E746F250E0001756F010E3B
:100DB0000001766F080E0001776FBC0E0001786F9E
:100DC000AEEC8EF04A9A4A8E01D04A9E11C066F16E
:100DD00012C067F113C068F114C069F10101661F08
:100DE000671F681F691F662B000E6723682369232E
:100DF00019500101662501016A6F1A50010167212E
:100E000001016B6F1B500101682101016C6F1C50C7
:100E10000101692101016D6F01016D5101016C1129
:100E200001016B1105E11E0E01016A5DD8A070D0B1
:100E300019C011F01AC012F01BC013F01CC014F03E
:100E400049BC49AE17D0838C48B412D083AA02D0D3
:100E5000010E01D0000EFF0A0101666F0101663B21
:100E60006647835001016619DF0B6619836E50D007
:100E7000838A4ED083AC02D0010E01D0000EFF0A4F
:100E80000101666F0101663B6647664783500101B9
:100E90006619BF0B6619836E3AD04A9A4A9E4994E6
:100EA000000E0001E86F4894499C499E839A839CF8
:100EB0004ABC2CD0000E0001E96F000E0001D16F7A
:100EC000000ED26FC80ED36F410ED46FD4ECB3F0C6
:100ED0000009D8B4FBD7000E0101456F0C0E0001CC
:100EE000716F000E726F000E736F000E746F450EFF
:100EF0000001756F010E0001766F080E0001776F1B
:100F0000BC0E0001786FAEEC8EF04A8C839C839A05
:100F100034ECB2F00A0E0001DE6137D0020E00019F
:100F2000E919D8A432D0060E0001E86F49824A823E
:100F30004892C80E1924156E000E1A20166E000E67
:100F40001B20176E000E1C20186E000E0101456F4D
:100F5000D4ECB3F00009D8B4FBD70C0E0001716FCC
:100F6000000E726F000E736F000E746F450E00015D
:100F7000756F010E0001766F080E0001776FBC0ED1
:100F80000001786FAEEC8EF04880000E0001A96F72
:100F9000000EAA6F340EAB6F430EAC6FCDC083F062
:100FA000CEC084F0CFC085F0D0C086F00001DD5106
:100FB0000001716F726B736B746B000E18ECA7F00D
:100FC00071C07FF072C080F073C081F074C082F095
:100FD00023EC9DF07FC098F080C099F081C09AF01A
:100FE00082C09BF029ECB3F098C0A5F099C0A6F0A0
:100FF0009AC0A7F09BC0A8F0CFEC9AF0A5C0B9F0BA
:10100000A6C0BAF0A7C0BBF0A8C0BCF0D4ECACF04E
:101010000001B95101013D6F0001E905D8A45CD080
:101020004AA00FD00001EA513DC166F10101676B92
:1010300001016627000E672366C1D5F067C1D6F0AF
:101040001BD00001EA510101666F676B0101661F49
:10105000671F664B672B01013D510101686F696B8A
:1010600001016651010168270101675101016923EE
:1010700068C1D5F069C1D6F00001000ED6BFFF0EE1
:10108000D76FD86F0001D8BF12D00001D8BF0CD0E5
:101090000001D8510001D7110001D61108E1B50EA9
:1010A0000001D55DD8B003D0D5C03DF119D0000105
:1010B000D8BF0ED00001D8510001D7110001D611C0
:1010C00005E1B50E0001D55DD8A002D0B40E01D067
:1010D000000E01013D6F04D04A90000E0001EA6F3E
:1010E0000001EB51D8B4D2D00001DE510101666F8E
:1010F000676B0001E5510101686F696B020E010128
:101100006827000E6923010166510101685D010134
:101110006951800A01016A6F01016751800A01016A
:101120006A59D8B04FD0D1C083F0D2C084F0D3C0B8
:1011300085F0D4C086F00001E5510101666F676B50
:101140000101661F671F664B672B0001DE5101011D
:10115000686F696B010166510101682701016751E0
:1011600001016923020E01016827000E692368C18D
:1011700071F069C172F00001000E72BFFF0E736F53
:10118000746F010E18ECA7F071C07FF072C080F090
:1011900073C081F074C082F023EC9DF07FC0B9F081
:1011A00080C0BAF081C0BBF082C0BCF0D4ECACF01F
:1011B000B9C0E3F0BAC0E4F0030E22D0000E010182
:1011C0002E6F21D0000E0001E46F000EE36F420E7F
:1011D0000001DE6106D0020E01012D6F000E01013B
:1011E0002E6F150E0001DE6106D0010E01012D6F7C
:1011F000000E01012E6F060E0001DE6104D0000E0C
:1012000001012D6FDBD70001E5510001DE5DD8A0A3
:1012100067D00001E951D8A463D00001E551010174
:10122000666F676B0101661F671F664B672B0001C6
:10123000DE51010166250001776F000E0101672173
:101240000001786F000E00017A6F030E796FD0EC09
:10125000ADF000017751040F0001E66F0001E75186
:10126000010D1D0EF324D96E000EF420DA6E00017C
:10127000E651DE5CD8B034D0000E0001E46F000E01
:10128000E36F000E01012D6F488C2BD0000E000182
:10129000E46F000EE36F000E01012D6F7E0E000162
:1012A000DE250001776F0001786BFF0E7823000EBA
:1012B00000017A6F030E796FD0ECADF00001775129
:1012C000040F0001E66F0001E751010D1D0EF3242C
:1012D000D96E000EF420DA6EDE500001E65DD8A073
:1012E000489C09C066F10AC067F10BC068F10CC0E8
:1012F00069F10101661F671F681F691F662B000ED9
:1013000067236823692319500101662501016A6F6B
:101310001A500101672101016B6F1B500101682107
:1013200001016C6F1C500101692101016D6F010108
:101330006D5101016C1101016B1105E1020E0101FA
:101340006A5DD8A004D0010E0001E86502D048A073
:101350001BD048A00FD0010E0001E76F000E000166
:10136000E46F000EE36F5A0E01013D6F000E0101A4
:101370002D6F489019C009F01AC00AF01BC00BF07D
:101380001CC00CF0ECECAEF01550195C16501A585D
:1013900017501B5818501C58D8A05FD00DC066F1CC
:1013A0000EC067F10FC068F110C069F10101661F3E
:1013B000671F681F691F662B000E67236823692358
:1013C00019500101662501016A6F1A500101672158
:1013D00001016B6F1B500101682101016C6F1C50F2
:1013E0000101692101016D6F01016D5101016C1154
:1013F00001016B1106E10A0E01016A5DD8A0A0EFA0
:1014000085F019C00DF01AC00EF01BC00FF01CC003
:1014100010F049A41ED0488E0001E851D8A404D091
:101420006DECB1F00001E82B020E0001E819D8A420
:1014300004D03BECB1F00001E82B040E0001E819E8
:10144000D8A4A0EF85F009ECB1F00001E82BA0EFE3
:1014500085F0A0ECA4F0A0EF85F0060E0001E819DD
:10146000D8B403D04AA2A0EF85F049B202D04AA274
:1014700023D0499284ECB0F0D4ECB3F0E806D8A4C1
:10148000FBD7000E01012D6F060E0001716F000EDB
:10149000726F000E736F000E746F2D0E0001756F6A
:1014A000010E0001766F080E0001776FBC0E00017F
:1014B000786FAEEC8EF002D09FECB1F0000E000120
:1014C000E86F4994A0EF85F0C70E0101516F000E3F
:1014D0000101526F96EF8EF0250E01016519D8B407
:1014E00008D0C3C0D9FFC4C0DAFF65C1DFFF93EFE6
:1014F0008EF0000E0101546F000E536FC5C0F6FF51
:10150000C6C0F7FF000EF86E0800F5502E0AD8A4EA
:101510003DD00101548D0001C54BC62B000E0101C9
:10152000606F000E5F6F25D05FC171F060C172F017
:10153000000E0001746F0A0E736F45ECB3F0C5C066
:10154000F6FFC6C0F7FF000EF86E0800F550000168
:101550007127000E00017223D00E000171250101D8
:101560005F6FFF0E000172210101606F0001C54B2A
:10157000C62BC5C0F6FFC6C0F7FF000EF86E080008
:10158000F550ACECB3F0D8A00CD0CED7000E0101D2
:10159000606F000E5F6F0101548903D00101548513
:1015A00015D0C5C0F6FFC6C0F7FF0001C54BC62B5E
:1015B000000EF86E0800F5CF65F101016551000AD3
:1015C000D8B4C5D3660AD8B4E9D7B0D3070E0101A1
:1015D0005415D8B453D3010154A905D0000E01010C
:1015E000606F060E5F6F51C1D9FF52C1DAFFDECFC7
:1015F00061F1DECF62F1DECF63F1DECF64F1040E84
:1016000001015127000E5223010164AF15D061C1C1
:1016100098F062C199F063C19AF064C19BF029EC23
:10162000B3F098C061F199C062F19AC063F19BC0B8
:1016300064F1030E01015313000E01015A6F000EF5
:10164000596F010161510101621101016311010131
:101650006411D8B48ED0010163356435820F010165
:10166000596F01015A6BFF0E5A2301015907D8A087
:101670005A0759C171F05AC172F0000E0001746F1F
:10168000030E736F45ECB3F071C059F172C05AF19B
:1016900059C177F05AC178F0000E00017A6F0A0E36
:1016A000796FD0ECADF077C059F178C05AF10101F3
:1016B0005AAF04D001015907D8A05A070101595166
:1016C0000008BCEC95F098C05BF199C05CF19AC041
:1016D0005DF19BC05EF15BC17FF05CC180F05DC1DC
:1016E00081F05EC182F061C183F062C184F063C1A8
:1016F00085F064C186F023EC9DF07FC05BF180C073
:101700005CF181C05DF182C05EF15BC171F05CC1D2
:1017100072F05DC173F05EC174F0000E0001756F70
:10172000000E766F800E776F3F0E786F91ECAAF007
:101730000001D8B005D001015907D8A05A0719D027
:101740005BC171F05CC172F05DC173F05EC174F099
:10175000000E0001756F000E766F200E776F410E40
:10176000786F91ECAAF00001D8A003D00101594B89
:101770005A2B010160BF08D00101605123E10D0E19
:1017800001015F5DD8B01ED061C1A5F062C1A6F0B5
:1017900063C1A7F064C1A8F001015F5125ECA3F07B
:1017A00098C0A9F099C0AAF09AC0ABF09BC0ACF069
:1017B000CFEC9AF0A5C061F1A6C062F1A7C063F1B9
:1017C000A8C064F101015ABF08D001015A512EE1AD
:1017D0000A0E0101595DD8B029D001016151010102
:1017E00062110101631101016411D8B46DD061C1AE
:1017F000B9F062C1BAF063C1BBF064C1BCF0D4EC13
:10180000ACF00001B9510001BA110001BB11000197
:10181000BC11D8A459D001015ABF56D001015A5168
:1018200005E1020E0101595DD8A04ED05BC171F0F7
:101830005CC172F05DC173F05EC174F05F0E0001B7
:10184000756F700E766F890E776F400E786F91EC22
:10185000AAF00001D8B003D00101F70E02D00101B7
:10186000F80E5927FF0E5A2301015951BCEC95F08F
:1018700098C05BF199C05CF19AC05DF19BC05EF1CC
:1018800061C171F062C172F063C173F064C174F040
:101890005BC175F05CC176F05DC177F05EC178F038
:1018A00059ECABF071C055F172C056F173C057F1ED
:1018B00074C058F1000E0101616F000E626F000EDE
:1018C000636F000E646F3CD061C1B9F062C1BAF0C1
:1018D00063C1BBF064C1BCF0D4ECACF0B9C055F14D
:1018E000BAC056F1BBC057F1BCC058F161C1B9F0E4
:1018F00062C1BAF063C1BBF064C1BCF055C171F004
:1019000056C172F057C173F058C174F0000E18EC54
:10191000A7F071C0BDF072C0BEF073C0BFF074C05C
:10192000C0F084ECB2F0B9C061F1BAC062F1BBC0E2
:1019300063F1BCC064F1000E01015A6F000E596FD3
:10194000010E0101656F0A0E01016519D8B421D09D
:1019500001016551040D350EF324F66EFD0EF420E1
:10196000F76EF86A000EF8220900F5500101555D86
:101970000900F550010156590900F5500101575968
:101980000900F55001015859D8A003D00101652B79
:10199000DAD7030E010153150001CB6F000E0101D0
:1019A00054150001CC6F0001CB510001CC11D8B40B
:1019B00058D0C3C0D9FFC4C0DAFF2D0E50D00001EB
:1019C000C34BC42B4ED055C171F056C172F057C1F4
:1019D00073F058C174F001016551040D350EF32404
:1019E000F66EFD0EF420F76EF86A000EF82209007C
:1019F000F5CF75F00900F5CF76F00900F5CF77F057
:101A00000A00F5CF78F08EECAEF071C05BF172C0D9
:101A10005CF173C05DF174C05EF15BC171F05CC1DB
:101A200072F05DC173F05EC174F00A0E0001756F53
:101A3000000E766F000E776F000E786FECECAFF053
:101A400071C05BF172C05CF173C05DF174C05EF196
:101A500001015B51300FC3C0D9FFC4C0DAFFDF6E94
:101A6000AED70101650701016529D8B40ED0ABD707
:101A7000C3C0D9FFC4C0DAFF300EDF6E0001C34B14
:101A8000C42B01015907D8A05A0701015ABF07D03A
:101A900001015A51EDE101015905D8B0E9D7010121
:101AA00060BF0CD00101605105E1090E01015F5DCD
:101AB000D8A004D0080E0101656F02D05FC165F1A6
:101AC0000101655101015F5F000E010165BFFF0E5D
:101AD0000101605B010165510101D8B409D0C3C0A7
:101AE000D9FFC4C0DAFF2E0EDF6E0001C34BC42B3A
:101AF00001016551BCEC95F098C04DF199C04EF1D3
:101B00009AC04FF19BC050F161C183F062C184F073
:101B100063C185F064C186F04DC17FF04EC180F095
:101B20004FC181F050C182F023EC9DF07FC0B9F02D
:101B300080C0BAF081C0BBF082C0BCF0D4ECACF085
:101B4000B9C055F1BAC056F1BBC057F1BCC058F18D
:101B50007AD055C171F056C172F057C173F058C1B7
:101B600074F001016551040D350EF324F66EFD0E7F
:101B7000F420F76EF86A000EF8220900F5CF75F030
:101B80000900F5CF76F00900F5CF77F00A00F5CF20
:101B900078F08EECAEF071C05BF172C05CF173C096
:101BA0005DF174C05EF15BC171F05CC172F05DC14A
:101BB00073F05EC174F00A0E0001756F000E766F4F
:101BC000000E776F000E786FECECAFF071C05BF138
:101BD00072C05CF173C05DF174C05EF101015B51D4
:101BE000300FC3C0D9FFC4C0DAFFDF6E0001C34BA2
:101BF000C42B55C171F056C172F057C173F058C172
:101C000074F001016551040D350EF324F66EFD0EDE
:101C1000F420F76EF86A000EF8220900F5CF75F08F
:101C20000900F5CF76F00900F5CF77F00A00F5CF7F
:101C300078F0ECECAFF071C055F172C056F173C0A2
:101C400057F174C058F10101650701016529D8B445
:101C50000ED07FD7C3C0D9FFC4C0DAFF300EDF6E0D
:101C60000001C34BC42B01015F07D8A0600701012D
:101C70005F5101016011D8B459D0ECD701015F5117
:101C800001016011D8A40DD0010155510101561177
:101C90000101571101015811D8A403D001015F4B74
:101CA000602B800E010165BF7F0E0001CB6F01012B
:101CB0005F510101655D01016051800A0001CB594E
:101CC000D8B003D05FC165F118D001016051800A1E
:101CD0000001CB6F0101655101015F5D800E0101C3
:101CE00065BF7F0E0001CB59D8B007D00101655107
:101CF00001015F6F606B5FBF6007030E0101531549
:101D00000001CB6F000E010154150001CC6F0001E2
:101D1000CB510001CC11D8B409D0C3C0D9FFC4C085
:101D2000DAFF2D0EDF6E0001C34BC42BC5C0F6FFDA
:101D3000C6C0F7FF0001C54BC62B000EF86E0800A9
:101D4000F5CF65F101016551D8A46CEF8AF0C3C0ED
:101D5000D9FFC4C0DAFF000EDF6E12000F0140B7DA
:101D60003FD177C045FF000178AD03D00F01458D0D
:101D700002D00F01459D000178A779D00001715173
:101D800000017D6F7E6B7F6B806B7DC044FF000E1A
:101D90000001711500017D6FFF0E00017215000139
:101DA0007E6F000E0001731500017F6F000E0001B1
:101DB00074150001806F7DC079F07EC07AF07FC01D
:101DC0007BF080C07CF07AC079F07BC07AF07CC078
:101DD0007BF000017C6B79C07DF07AC07EF07BC027
:101DE0007FF07CC080F07DC043FF000E0F01426F8A
:101DF0000F014287000173A102D00F01428100014F
:101E000073A302D00F014283000173A502D00F011A
:101E1000428B000173A702D00F01428D000173A90C
:101E200002D00F01428F71C079F072C07AF073C096
:101E30007BF074C07CF0160E06D00001D8907C3385
:101E40007B337A337933E82EF8D779C07DF07AC0C6
:101E50007EF07BC07FF07CC080F000017D510001EE
:101E60007D6F7E6B7F6B806B7DC041FF59D00F0112
:101E7000429771C079F072C07AF073C07BF074C081
:101E80007CF0040E06D00001D8907C337B337A338B
:101E90007933E82EF8D779C07DF07AC07EF07BC028
:101EA0007FF07CC080F000017D5100017D6F7E6B72
:101EB0007F6B806B7DC041FF070E00017115000133
:101EC0007D6F000E0001721500017E6F000E000193
:101ED000731500017F6F000E000174150001806F03
:101EE0007DC079F07EC07AF07FC07BF080C07CF04E
:101EF000050ED890000179377A377B377C37E82E8A
:101F0000F8D779C07DF07AC07EF07BC07FF07CC0CE
:101F100080F00F0142511F0B0F01426F7DC042FF45
:101F2000000178A103D00F01408102D00F01409140
:101F3000000178A303D00F01408302D00F0140932A
:101F400075C0D9FF76C0DAFFDF500F01466F000180
:101F500020EE01F07551D9267651DA22DF500F01BB
:101F6000476F000120EE02F07551D9267651DA2232
:101F7000DF500F01486F000120EE03F07551D926A4
:101F80007651DA22DF500F01496F000120EE04F094
:101F90007551D9267651DA22DF500F014A6F0001C0
:101FA00020EE05F07551D9267651DA22DF500F0167
:101FB0004B6F000120EE06F07551D9267651DA22DA
:101FC000DF500F014C6F000120EE07F07551D9264C
:101FD0007651DA22DF500F014D6F0F01408712005A
:101FE0000F0130B73FD177C035FF000178AD03D086
:101FF0000F01358D02D00F01359D000178A779D0F2
:102000000001715100017D6F7E6B7F6B806B7DC025
:1020100034FF000E0001711500017D6FFF0E0001FD
:10202000721500017E6F000E0001731500017F6FB5
:10203000000E000174150001806F7DC079F07EC034
:102040007AF07FC07BF080C07CF07AC079F07BC0F2
:102050007AF07CC07BF000017C6B79C07DF07AC0A7
:102060007EF07BC07FF07CC080F07DC033FF000E2F
:102070000F01326F0F013287000173A102D00F01EF
:102080003281000173A302D00F013283000173A5D6
:1020900002D00F01328B000173A702D00F01328DE5
:1020A000000173A902D00F01328F71C079F072C0A4
:1020B0007AF073C07BF074C07CF0160E06D000017D
:1020C000D8907C337B337A337933E82EF8D779C0D4
:1020D0007DF07AC07EF07BC07FF07CC080F0000194
:1020E0007D5100017D6F7E6B7F6B806B7DC031FF0A
:1020F00059D00F01329771C079F072C07AF073C075
:102100007BF074C07CF0040E06D00001D8907C33C4
:102110007B337A337933E82EF8D779C07DF07AC0F3
:102120007EF07BC07FF07CC080F000017D5100011B
:102130007D6F7E6B7F6B806B7DC031FF070E000172
:10214000711500017D6F000E0001721500017E6F98
:10215000000E0001731500017F6F000E0001741561
:102160000001806F7DC079F07EC07AF07FC07BF087
:1021700080C07CF0050ED890000179377A377B3724
:102180007C37E82EF8D779C07DF07AC07EF07BC02E
:102190007FF07CC080F00F0132511F0B0F01326FB6
:1021A0007DC032FF000178A103D00F01308102D041
:1021B0000F013091000178A303D00F01308302D0CA
:1021C0000F01309375C0D9FF76C0DAFFDF500F01E1
:1021D000366F000120EE01F07551D9267651DA22D2
:1021E000DF500F01376F000120EE02F07551D92644
:1021F0007651DA22DF500F01386F000120EE03F034
:102200007551D9267651DA22DF500F01396F00015E
:1022100020EE04F07551D9267651DA22DF500F01F5
:102220003A6F000120EE05F07551D9267651DA2279
:10223000DF500F013B6F000120EE06F07551D926EB
:102240007651DA22DF500F013C6F000120EE07F0DB
:102250007551D9267651DA22DF500F013D6F0F01FB
:10226000308712000F0120B7120077C025FF000150
:1022700078AD03D00F01258D02D00F01259D0001FF
:1022800078A779D00001715100017D6F7E6B7F6B63
:10229000806B7DC024FF000E0001711500017D6F71
:1022A000FF0E0001721500017E6F000E0001731514
:1022B00000017F6F000E000174150001806F7DC06A
:1022C00079F07EC07AF07FC07BF080C07CF07AC06D
:1022D00079F07BC07AF07CC07BF000017C6B79C028
:1022E0007DF07AC07EF07BC07FF07CC080F07DC046
:1022F00023FF000E0F01226F0F012287000173A13F
:1023000002D00F012281000173A302D00F012283AA
:10231000000173A502D00F01228B000173A702D028
:102320000F01228D000173A902D00F01228F71C00D
:1023300079F072C07AF073C07BF074C07CF0160E36
:1023400006D00001D8907C337B337A337933E82E82
:10235000F8D779C07DF07AC07EF07BC07FF07CC07A
:1023600080F000017D5100017D6F7E6B7F6B806B83
:102370007DC021FF59D00F01229771C079F072C042
:102380007AF073C07BF074C07CF0040E06D00001BC
:10239000D8907C337B337A337933E82EF8D779C001
:1023A0007DF07AC07EF07BC07FF07CC080F00001C1
:1023B0007D5100017D6F7E6B7F6B806B7DC021FF47
:1023C000070E0001711500017D6F000E00017215EE
:1023D00000017E6F000E0001731500017F6F000E7B
:1023E000000174150001806F7DC079F07EC07AF025
:1023F0007FC07BF080C07CF0050ED890000179375B
:102400007A377B377C37E82EF8D779C07DF07AC0F1
:102410007EF07BC07FF07CC080F00F0122511F0B4B
:102420000F01226F7DC022FF000178A103D00F01B0
:10243000208102D00F012091000178A303D00F0169
:10244000208302D00F01209375C0D9FF76C0DAFF38
:10245000DF500F01266F000120EE01F07551D926E3
:102460007651DA22DF500F01276F000120EE02F0D3
:102470007551D9267651DA22DF500F01286F0001FD
:1024800020EE03F07551D9267651DA22DF500F0184
:10249000296F000120EE04F07551D9267651DA2219
:1024A000DF500F012A6F000120EE05F07551D9268B
:1024B0007651DA22DF500F012B6F000120EE06F07B
:1024C0007551D9267651DA22DF500F012C6F0001A9
:1024D00020EE07F07551D9267651DA22DF500F0130
:1024E0002D6F0F01208712000F0140B715D12CC0AE
:1024F00045FF2DAC03D00F01458D02D00F01459D46
:102500002DA666D02650326E336A346A356A32C0E0
:1025100044FF000E2614326EFF0E2714336E000E99
:102520002814346E000E2914356E32C02EF033C0DC
:102530002FF034C030F035C031F02FC02EF030C055
:102540002FF031C030F0316A2EC032F02FC033F09E
:1025500030C034F031C035F032C043FF000E0F01FF
:10256000426F0F01428728A002D00F01428128A2AA
:1025700002D00F01428328A402D00F01428B28A66B
:1025800002D00F01428D28A802D00F01428F26C031
:102590002EF027C02FF028C030F029C031F0160EE1
:1025A00005D0D890313230322F322E32E82EF9D782
:1025B0002EC032F02FC033F030C034F031C035F0CF
:1025C0003250326E336A346A356A32C041FF4DD0C0
:1025D0000F01429726C02EF027C02FF028C030F000
:1025E00029C031F0040E05D0D890313230322F326C
:1025F0002E32E82EF9D72EC032F02FC033F030C083
:1026000034F031C035F03250326E336A346A356A94
:1026100032C041FF070E2614326E000E2714336EAF
:10262000000E2814346E000E2914356E32C02EF0C0
:1026300033C02FF034C030F035C031F0050ED890E3
:102640002E362F3630363136E82EF9D72EC032F0FE
:102650002FC033F030C034F031C035F00F0142519B
:102660001F0B0F01426F32C042FF2DA003D00F019C
:10267000408102D00F0140912DA203D00F01408371
:1026800002D00F0140932AC0D9FF2BC0DAFFDF50E0
:102690000F01466F20EE01F02A50D9262B50DA2286
:1026A000DF500F01476F20EE02F02A50D9262B5041
:1026B000DA22DF500F01486F20EE03F02A50D926AE
:1026C0002B50DA22DF500F01496F20EE04F02A5020
:1026D000D9262B50DA22DF500F014A6F20EE05F089
:1026E0002A50D9262B50DA22DF500F014B6F20EEF3
:1026F00006F02A50D9262B50DA22DF500F014C6FFA
:1027000020EE07F02A50D9262B50DA22DF500F0195
:102710004D6F0F01408712000F0130B715D12CC04B
:1027200035FF2DAC03D00F01358D02D00F01359D43
:102730002DA666D02650326E336A346A356A32C0AE
:1027400034FF000E2614326EFF0E2714336E000E77
:102750002814346E000E2914356E32C02EF033C0AA
:102760002FF034C030F035C031F02FC02EF030C023
:102770002FF031C030F0316A2EC032F02FC033F06C
:1027800030C034F031C035F032C033FF000E0F01DD
:10279000326F0F01328728A002D00F01328128A2A8
:1027A00002D00F01328328A402D00F01328B28A659
:1027B00002D00F01328D28A802D00F01328F26C01F
:1027C0002EF027C02FF028C030F029C031F0160EAF
:1027D00005D0D890313230322F322E32E82EF9D750
:1027E0002EC032F02FC033F030C034F031C035F09D
:1027F0003250326E336A346A356A32C031FF4DD09E
:102800000F01329726C02EF027C02FF028C030F0DD
:1028100029C031F0040E05D0D890313230322F3239
:102820002E32E82EF9D72EC032F02FC033F030C050
:1028300034F031C035F03250326E336A346A356A62
:1028400032C031FF070E2614326E000E2714336E8D
:10285000000E2814346E000E2914356E32C02EF08E
:1028600033C02FF034C030F035C031F0050ED890B1
:102870002E362F3630363136E82EF9D72EC032F0CC
:102880002FC033F030C034F031C035F00F01325179
:102890001F0B0F01326F32C032FF2DA003D00F018A
:1028A000308102D00F0130912DA203D00F0130836F
:1028B00002D00F0130932AC0D9FF2BC0DAFFDF50BE
:1028C0000F01366F20EE01F02A50D9262B50DA2264
:1028D000DF500F01376F20EE02F02A50D9262B501F
:1028E000DA22DF500F01386F20EE03F02A50D9268C
:1028F0002B50DA22DF500F01396F20EE04F02A50FE
:10290000D9262B50DA22DF500F013A6F20EE05F066
:102910002A50D9262B50DA22DF500F013B6F20EED0
:1029200006F02A50D9262B50DA22DF500F013C6FD7
:1029300020EE07F02A50D9262B50DA22DF500F0163
:102940003D6F0F01308712000F0120B712002CC01D
:1029500025FF2DAC03D00F01258D02D00F01259D41
:102960002DA666D02650326E336A346A356A32C07C
:1029700024FF000E2614326EFF0E2714336E000E55
:102980002814346E000E2914356E32C02EF033C078
:102990002FF034C030F035C031F02FC02EF030C0F1
:1029A0002FF031C030F0316A2EC032F02FC033F03A
:1029B00030C034F031C035F032C023FF000E0F01BB
:1029C000226F0F01228728A002D00F01228128A2A6
:1029D00002D00F01228328A402D00F01228B28A647
:1029E00002D00F01228D28A802D00F01228F26C00D
:1029F0002EF027C02FF028C030F029C031F0160E7D
:102A000005D0D890313230322F322E32E82EF9D71D
:102A10002EC032F02FC033F030C034F031C035F06A
:102A20003250326E336A346A356A32C021FF4DD07B
:102A30000F01229726C02EF027C02FF028C030F0BB
:102A400029C031F0040E05D0D890313230322F3207
:102A50002E32E82EF9D72EC032F02FC033F030C01E
:102A600034F031C035F03250326E336A346A356A30
:102A700032C021FF070E2614326E000E2714336E6B
:102A8000000E2814346E000E2914356E32C02EF05C
:102A900033C02FF034C030F035C031F0050ED8907F
:102AA0002E362F3630363136E82EF9D72EC032F09A
:102AB0002FC033F030C034F031C035F00F01225157
:102AC0001F0B0F01226F32C022FF2DA003D00F0178
:102AD000208102D00F0120912DA203D00F0120836D
:102AE00002D00F0120932AC0D9FF2BC0DAFFDF509C
:102AF0000F01266F20EE01F02A50D9262B50DA2242
:102B0000DF500F01276F20EE02F02A50D9262B50FC
:102B1000DA22DF500F01286F20EE03F02A50D92669
:102B20002B50DA22DF500F01296F20EE04F02A50DB
:102B3000D9262B50DA22DF500F012A6F20EE05F044
:102B40002A50D9262B50DA22DF500F012B6F20EEAE
:102B500006F02A50D9262B50DA22DF500F012C6FB5
:102B600020EE07F02A50D9262B50DA22DF500F0131
:102B70002D6F0F01208712000001A06F0001A0AF90
:102B800045D10001A06D0001A051800A120FD8A00C
:102B9000BBD0000E00017A6F0A0E796F000E0001A3
:102BA000746F640E736F0001A0510001716F726B3E
:102BB00071BF72079BECAFF071C077F072C078F014
:102BC000D0ECADF00001D890773778370001D8907D
:102BD00077377837240E00017727000E000178231D
:102BE000CD0E00017725F66EFC0E00017821F76E00
:102BF000F86A000EF8220900F5CF83F00900F5CF3E
:102C000084F00900F5CF85F00A00F5CF86F0000EBC
:102C100000017A6F640E796F0001A0510001776F97
:102C2000786B77BF7807D0ECADF00001D89077379C
:102C300078370001D89077377837480E000177272A
:102C4000000E00017823CD0E00017725F66EFC0EF4
:102C500000017821F76EF86A000EF8220900F5CF1E
:102C60007FF00900F5CF80F00900F5CF81F00A0070
:102C7000F5CF82F023EC9DF07FC09CF080C09DF0EA
:102C800081C09EF082C09FF09CC07FF09DC080F00C
:102C90009EC081F09FC082F0000E0001746F0A0E8A
:102CA000736F0001A0510001716F726B71BF7207E9
:102CB0009BECAFF00001D890713772370001D890CB
:102CC00071377237CD0E00017125F66EFC0E0001D2
:102CD0007221F76EF86A000EF8220900F5CF83F032
:102CE0000900F5CF84F00900F5CF85F00A00F5CF93
:102CF00086F023EC9DF07FC098F080C099F081C0F1
:102D00009AF082C09BF012000001A051800A750F5A
:102D1000D8A063D0000E00017A6F0A0E796F00010F
:102D2000A0510001776F786B77BF7807D0ECADF0DA
:102D30000001D890773778370001D8907737783707
:102D4000240E00017727000E00017823CD0E00012C
:102D50007725F66EFC0E00017821F76EF86A000EFA
:102D6000F8220900F5CF7FF00900F5CF80F00900C7
:102D7000F5CF81F00A00F5CF82F0000E0001746FEC
:102D80000A0E736F0001A0510001716F726B71BF69
:102D900072079BECAFF00001D890713772370001D9
:102DA000D89071377237CD0E00017125F66EFC0E8A
:102DB00000017221F76EF86A000EF8220900F5CFC3
:102DC00083F00900F5CF84F00900F5CF85F00A0003
:102DD000F5CF86F023EC9DF08ED70001A051040DB5
:102DE000CD0EF324F66EFC0EF420F76EF86A000E9A
:102DF000F8220900F5CF98F00900F5CF99F0090005
:102E0000F5CF9AF00A00F5CF9BF012000001A05117
:102E1000800A120FD8A0BBD0000E00017A6F0A0EF4
:102E2000796F000E0001746F640E736F0001A05182
:102E30000001716F726B71BF72079BECAFF071C0D4
:102E400077F072C078F0D0ECADF00001D890773711
:102E500078370001D89077377837240E000177272C
:102E6000000E00017823010E00017725F66EFD0E9D
:102E700000017821F76EF86A000EF8220900F5CFFC
:102E800083F00900F5CF84F00900F5CF85F00A0042
:102E9000F5CF86F0000E00017A6F640E796F0001A5
:102EA000A0510001776F786B77BF7807D0ECADF059
:102EB0000001D890773778370001D8907737783786
:102EC000480E00017727000E00017823010E000153
:102ED0007725F66EFD0E00017821F76EF86A000E78
:102EE000F8220900F5CF7FF00900F5CF80F0090046
:102EF000F5CF81F00A00F5CF82F023EC9DF07FC082
:102F00009CF080C09DF081C09EF082C09FF09CC06C
:102F10007FF09DC080F09EC081F09FC082F0000EC7
:102F20000001746F0A0E736F0001A0510001716FF0
:102F3000726B71BF72079BECAFF00001D8907137D4
:102F400072370001D89071377237010E0001712578
:102F5000F66EFD0E00017221F76EF86A000EF8227F
:102F60000900F5CF83F00900F5CF84F00900F5CF13
:102F700085F00A00F5CF86F023EC9DF07FC098F035
:102F800080C099F081C09AF082C09BF012000001CD
:102F9000A051800A750FD8A063D0000E00017A6F8F
:102FA0000A0E796F0001A0510001776F786B77BF2F
:102FB0007807D0ECADF00001D89077377837000172
:102FC000D89077377837240E00017727000E00015C
:102FD0007823010E00017725F66EFD0E00017821A1
:102FE000F76EF86A000EF8220900F5CF7FF00900AD
:102FF000F5CF80F00900F5CF81F00A00F5CF82F01F
:10300000000E0001746F0A0E736F0001A0510001E1
:10301000716F726B71BF72079BECAFF00001D890BB
:10302000713772370001D89071377237010E000185
:103030007125F66EFD0E00017221F76EF86A000E22
:10304000F8220900F5CF83F00900F5CF84F00900DC
:10305000F5CF85F00A00F5CF86F023EC9DF08ED7F2
:103060000001A051040D010EF324F66EFD0EF420B4
:10307000F76EF86A000EF8220900F5CF98F0090003
:10308000F5CF99F00900F5CF9AF00A00F5CF9BF043
:103090001200000E306E74BE308074BC30820F019E
:1030A00050AF43D126C0D9FF27C0DAFFDE6ADE6AFF
:1030B000DE6ADD6A20EE04F02650D9262750DA2297
:1030C00056CFDFFF20EE05F02650D9262750DA2212
:1030D00057CFDFFF20EE06F02650D9262750DA2200
:1030E00058CFDFFF20EE07F02650D9262750DA22EE
:1030F00059CFDFFF20EE08F02650D9262750DA22DC
:103100005ACFDFFF20EE09F02650D9262750DA22C9
:103110005BCFDFFF20EE0AF02650D9262750DA22B7
:103120005CCFDFFF20EE0BF02650D9262750DA22A5
:103130005DCFDFFF20EE0EF02650D9262750DA2291
:103140000F0155AD02D0010E01D0000EDF6E20EE52
:103150000DF02650D9262750DA220F0155510F0BBA
:10316000DF6E20EE0CF02650D9262750DA220F0110
:1031700052A702D0010E01D0000EDF6E0F0152B730
:1031800044D051CF28F0296A2A6A2B6A030ED890BE
:10319000283629362A362B36E82EF9D726C0D9FF0D
:1031A00027C0DAFF28C0DEFF29C0DEFF2AC0DEFF0D
:1031B0002BC0DEFF0F015239E842070B070B316EBF
:1031C00026C0D9FF27C0DAFFDECF28F0DECF29F0F6
:1031D000DECF2AF0DECF2BF0315028242C6E000EEB
:1031E00029202D6E000E2A202E6E000E2B202F6E11
:1031F00026C0D9FF27C0DAFF2CC0DEFF2DC0DEFFBE
:103200002EC0DEFF2FC0DEFF8DD054CF28F0296AFC
:103210002A6A2B6A26C0D9FF27C0DAFF28C0DEFF42
:1032200029C0DEFF2AC0DEFF2BC0DEFF53CF28F00F
:10323000296A2A6A2B6A2AC02BF029C02AF028C0E2
:1032400029F0286A26C0D9FF27C0DAFF2850DE26D9
:103250002950DE222A50DE222B50DE220F0152A1FD
:103260000CD026C0D9FF27C0DAFF000EDE12000EF8
:10327000DE12010EDE12000EDE120F0152A30CD080
:1032800026C0D9FF27C0DAFF000EDE12000EDE12C4
:10329000020EDE12000EDE120F0152AB0CD026C061
:1032A000D9FF27C0DAFF000EDE12000EDE12040E78
:1032B000DE12000EDE120F0152AD0CD026C0D9FF77
:1032C00027C0DAFF000EDE12000EDE12080EDE123C
:1032D000000EDE120F0152AF0CD026C0D9FF27C05E
:1032E000DAFF000EDE12000EDE12100EDE12000EED
:1032F000DE1251CF28F0296A2A6A2B6A150ED8905F
:10330000283629362A362B36E82EF9D726C0D9FF9B
:1033100027C0DAFF2850DE122950DE122A50DE12B2
:103320002B50DE120F01509F120060AE120026C01B
:10333000D9FF27C0DAFFDE6ADE6ADE6ADD6A20EEC8
:1033400004F02650D9262750DA2266CFDFFF20EE80
:1033500005F02650D9262750DA2267CFDFFF20EE6E
:1033600006F02650D9262750DA2268CFDFFF20EE5C
:1033700007F02650D9262750DA2269CFDFFF20EE4A
:1033800008F02650D9262750DA226ACFDFFF20EE38
:1033900009F02650D9262750DA226BCFDFFF20EE26
:1033A0000AF02650D9262750DA226CCFDFFF20EE14
:1033B0000BF02650D9262750DA226DCFDFFF20EE02
:1033C0000EF02650D9262750DA2265AC02D0010E25
:1033D00001D0000EDF6E20EE0DF02650D9262750CA
:1033E000DA2265500F0BDF6E20EE0CF02650D92646
:1033F0002750DA2262A602D0010E01D0000EDF6E45
:1034000062B643D061CF28F0296A2A6A2B6A030E7C
:10341000D890283629362A362B36E82EF9D726C0FA
:10342000D9FF27C0DAFF28C0DEFF29C0DEFF2AC08F
:10343000DEFF2BC0DEFF6238E842070B070B316E60
:1034400026C0D9FF27C0DAFFDECF28F0DECF29F073
:10345000DECF2AF0DECF2BF0315028242C6E000E68
:1034600029202D6E000E2A202E6E000E2B202F6E8E
:1034700026C0D9FF27C0DAFF2CC0DEFF2DC0DEFF3B
:103480002EC0DEFF2FC0DEFF88D064CF28F0296A6F
:103490002A6A2B6A26C0D9FF27C0DAFF28C0DEFFC0
:1034A00029C0DEFF2AC0DEFF2BC0DEFF63CF28F07D
:1034B000296A2A6A2B6A2AC02BF029C02AF028C060
:1034C00029F0286A26C0D9FF27C0DAFF2850DE2657
:1034D0002950DE222A50DE222B50DE2262A00CD0A0
:1034E00026C0D9FF27C0DAFF000EDE12000EDE1262
:1034F000010EDE12000EDE1262A20CD026C0D9FF31
:1035000027C0DAFF000EDE12000EDE12020EDE12FF
:10351000000EDE1262AA0CD026C0D9FF27C0DAFF47
:10352000000EDE12000EDE12040EDE12000EDE129F
:1035300062AC0CD026C0D9FF27C0DAFF000EDE1225
:10354000000EDE12080EDE12000EDE1262AE0CD08D
:1035500026C0D9FF27C0DAFF000EDE12000EDE12F1
:10356000100EDE12000EDE1261CF28F0296A2A6AE0
:103570002B6A150ED890283629362A362B36E82E97
:10358000F9D726C0D9FF27C0DAFF2850DE1229500C
:10359000DE122A50DE122B50DE12609E1200000155
:1035A000A851800B0001B56F0001A851A8250001AA
:1035B000B76F0001A7AF02D00001B7810001B7517A
:1035C0000001D8B412D00001B729D8A409D0000E48
:1035D0000001A56F000EA66F000EA76F000EA86F6A
:1035E0000001A78F000E000108D0000E0001A56F9A
:1035F000000EA66F000EA76F000EA86F0001AC5161
:10360000800B0001B66F0001B5510001B619D8B4A6
:1036100002D00001B58D0001AC51AC250001B66FA0
:103620000001ABAF02D00001B6810001B65100012C
:10363000D8B412D00001B629D8A409D0000E0001D8
:10364000A96F000EAA6F000EAB6F000EAC6F0001E9
:10365000AB8F000E000108D0000E0001A96F000E14
:10366000AA6F000EAB6F000EAC6F0001B7510001E6
:10367000B65DD8B024D00001B5AD03D0800E0001F6
:10368000B51BB7C0B8F0B6C0B7F0B8C0B6F0A5C0AB
:10369000B8F0A9C0A5F0B8C0A9F0A6C0B8F0AAC0FB
:1036A000A6F0B8C0AAF0A7C0B8F0ABC0A7F0B8C0E9
:1036B000ABF0A8C0B8F0ACC0A8F0B8C0ACF0000E39
:1036C0000001B86F0001B7510001AD6FAE6B000192
:1036D000AD1FAE1FAD4BAE2B0001B6510001AF6F59
:1036E000B06B0001AD510001AF270001AE510001E8
:1036F000B0230001B0BF3DD00001B05105E11A0E6A
:103700000001AF5DD8A035D00001A5510001A61180
:103710000001A7110001A811D8B402D0010E01D0F8
:10372000000E0001B86F000E0001A56F000EA66F1D
:10373000000EA76F000EA86FB6C0B7F020D0000132
:10374000B8A107D00001D890B83101090001B86FC5
:1037500003D00001D890B8330001A5A102D0000128
:10376000B88F0001A835A833A733A633A5330001CD
:10377000B72B0001B6510001B75DD8A0E0D700011A
:10378000B5BD3FD00001B7510001D8A40AD0000E4A
:103790000001A56F000EA66F000EA76F000EA86FA8
:1037A00012000001A9510001A5270001AA51000142
:1037B000A6230001AB510001A7230001AC51000179
:1037C000A8230001A8A1CCD00001B8A109D0000114
:1037D000D890B8330001B85101090001B86F03D087
:1037E0000001D890B8330001A5A102D00001B88F24
:1037F0000001A835A833A733A633A5330001B72BA2
:10380000AFD00001A9510001A55D0001AA5100013E
:10381000A6590001AB510001A7590001A851800A27
:103820000001AD6F0001AC51800A0001AD59D8B064
:1038300050D0A5C0ADF0A6C0AEF0A7C0AFF0A8C0F4
:10384000B0F00001AD1FAE1FAF1FB01FAD2B000EBB
:10385000AE23AF23B0230001A9510001AD25000123
:10386000B16F0001AA510001AE210001B26F000149
:10387000AB510001AF210001B36F0001AC51000159
:10388000B0210001B46FFF0E0001B1250001A56F4A
:10389000FF0E0001B2210001A66FFF0E0001B3214F
:1038A0000001A76FFF0E0001B4210001A86F800E78
:1038B0000001B51B0001B86D0001B8510001D8A48A
:1038C00018D0010E0001A527000EA623A723A823C8
:1038D00010D00001A9510001A55F0001AA5100010B
:1038E000A65B0001AB510001A75B0001AC510001D8
:1038F000A85B0001A5510001A6110001A71100015C
:10390000A811D8A42AD00001B8510001D8A425D00C
:10391000000E0001A56F000EA66F000EA76F000E2F
:10392000A86F12000001D890A537A637A737A8378F
:103930000001B8AF02D00001A5810001B8A103D0F9
:10394000D880000102D00001D890B8370001B751EB
:103950000001D8B402D00001B7070001A7AFE2D739
:10396000000E0001B66F0001B8AF0DD0B8C0ADF0C9
:103970007F0E0001AD17D8A403D00001A5A103D08C
:10398000010E0001B66F0001B6510001D8B426D077
:10399000010E0001A527000EA623A723A8230001DE
:1039A000A8A11CD0A5C0ADF0A6C0AEF0A7C0AFF0D6
:1039B000A8C0B0F00001B035B033AF33AE33AD3393
:1039C000ADC0A5F0AEC0A6F0AFC0A7F0B0C0A8F0E3
:1039D0000001B729D8B402D00001B72B0001B729E4
:1039E000D8B405D00001B7510001D8A411D0000E01
:1039F0000001A56F000EA66F000EA76F000EA86F46
:103A00000001B7510001D8A403D0000E0001B56F2A
:103A10000001B7A103D00001A78F02D00001A79F2A
:103A20000001D890B7310001A86F0001B5AF02D0F6
:103A30000001A88FA5C0A5F0A6C0A6F0A7C0A7F05A
:103A4000A8C0A8F0120000018251800B00018B6F0A
:103A50000001825182250001916F000181AF02D0E7
:103A600000019181000191510001D8B410D00001F2
:103A70009129D8A409D0000E00017F6F000E806F3D
:103A8000000E816F000E826F0001818F09D0000E41
:103A900000017F6F000E806F000E816F000E826F3D
:103AA00000018651800B00018B1B00018651862589
:103AB00000018C6F000185AF02D000018C810001F4
:103AC0008C510001D8B410D000018C29D8A409D0A1
:103AD000000E0001836F000E846F000E856F000ED4
:103AE000866F0001858F09D0000E0001836F000EE4
:103AF000846F000E856F000E866F00018C510001EF
:103B0000D8B405D0000191510001D8A40AD0000E0C
:103B100000017F6F000E806F000E816F000E826FBC
:103B200012000001855100017F03F3CF96F0F4CF1E
:103B300097F00001965100018D6F8E6B8F6B906B2B
:103B4000000197510001926F936B946B956B00018C
:103B5000845100018003F3CF96F0F4CF97F0000179
:103B6000965100018D27000E8E238F239023000194
:103B7000975100019227000E93239423952300016F
:103B8000835100018103F3CF96F0F4CF97F0000149
:103B9000965100018D27000E8E238F239023000164
:103BA000975100019227000E9323942395238FC0F1
:103BB00090F08EC08FF08DC08EF000018D6B0001F3
:103BC000835100018003F3CF96F0F4CF97F000010A
:103BD000965100018D270001975100018E23000EA0
:103BE00000018F23000E0001902300018451000189
:103BF0007F03F3CF96F0F4CF97F0000196510001C8
:103C00008D270001975100018E23000E00018F23A4
:103C1000000E000190238FC090F08EC08FF08DC0F9
:103C20008EF000018D6B0001835100017F03F3CF03
:103C300096F0F4CF97F00001965100018D27000116
:103C4000975100018E23000E00018F23000E00010A
:103C500090230001855100018003F3CF96F0F4CF4B
:103C600097F0000196510001922700019751000141
:103C70009323000E00019423000E00019523000100
:103C8000845100018103F3CF96F0F4CF97F0000147
:103C90009651000192270001975100019323000ED5
:103CA00000019423000E00019523000185510001BD
:103CB0008103F3CF96F0F4CF97F000019651000105
:103CC000876F000197510001886F0001896B000127
:103CD0008A6B89C08AF088C089F087C088F00001AB
:103CE000876B000187510001922700018851000174
:103CF0009323000189510001942300018A5100019E
:103D000095238DC087F08EC088F08FC089F090C059
:103D10008AF0190E06D00001D8908A33893388338F
:103D20008733E82EF8D70001875100019227000160
:103D3000885100019323000189510001942300015F
:103D40008A51000195238FC090F08EC08FF08DC0F6
:103D50008EF000018D6B00018C5191C087F0000145
:103D6000886B00018727000E8823820E00018725BB
:103D70000001966FFF0E000188210001976F15D09A
:103D80000001D8909237933794379537000190AF60
:103D900002D0000192810001D8908D378E378F3785
:103DA000903700019607D8A09707000194AFE8D795
:103DB000000E00018C6F000190AF24D0FF0E0001B7
:103DC0008D150001876FFF0E00018E150001886FB1
:103DD000FF0E00018F150001896F7F0E0001901505
:103DE00000018A6F000187510001881100018911CB
:103DF00000018A11D8A403D0000192A103D0010EC2
:103E000000018C6F00018C510001D8B423D0010E49
:103E100000019227000E932394239523000195A17E
:103E200019D092C087F093C088F094C089F095C0F3
:103E30008AF000018A358A3389338833873387C013
:103E400092F088C093F089C094F08AC095F0000188
:103E5000964B972B000197BF10D00001975104E1BA
:103E600000019629D8A009D0000E0001926F000E23
:103E7000936F800E946F7F0E2BD0000197BF07D0F9
:103E80000001975111E100019605D8B00DD0000E48
:103E90000001926F000E936F000E946F000E956FED
:103EA000000E00018B6F15D096C091F0FF0E00013F
:103EB0009217FF0E93177F0E9417000E95170001AF
:103EC00091A102D00001948F0001D890913100019E
:103ED000956F00018B510001951392C07FF093C044
:103EE00080F094C081F095C082F0120000018251F0
:103EF000800B00018B6F0001825182250001966FBB
:103F0000000181AF02D000019681000196510001AD
:103F1000D8B412D000019629D8A409D0000E00010F
:103F20007F6F000E806F000E816F000E826F0001A8
:103F3000818F000E000108D0000E00017F6F000E7F
:103F4000806F000E816F000E826F00018651800B22
:103F500000018B1B0001865186250001976F00012F
:103F600085AF02D000019781000197510001D8B4BC
:103F700012D000019729D8A409D0000E0001836F48
:103F8000000E846F000E856F000E866F0001858F16
:103F9000000E000108D0000E0001836F000E846F38
:103FA000000E856F000E866F0001835100018411A1
:103FB0000001851100018611D8A417D0000E000160
:103FC0007F6F000E806F000E816F000E826F000108
:103FD000800E81137F0E82137FC07FF080C080F03F
:103FE00081C081F082C082F0120000019651000170
:103FF000D8A412D0000E00017F6F000E806F000E5B
:10400000816F000E826F7FC07FF080C080F081C022
:1040100081F082C082F01200000197510001876F89
:10402000886B0001871F881F874B882B00019651E2
:104030000001896F8A6B0001875100018927000107
:10404000885100018A237F0E000189250001906FAD
:10405000000E00018A210001916F7FC08CF080C0AA
:104060008DF081C08EF082C08FF0000E00017F6F56
:10407000000E806F000E816F000E826F000E000137
:10408000926F000E936F000E946F000E956F000EEE
:104090000001976F42D0000197510001D8B417D0AA
:1040A0000001D8908C378D378E378F370001D8902C
:1040B0007F37803781378237000195AF02D000010A
:1040C0007F810001D890923793379437953700015C
:1040D000835100018C5D0001845100018D59000164
:1040E000855100018E590001865100018F59D8A0D9
:1040F00012D00001958D0001835100018C5F0001F9
:10410000845100018D5B0001855100018E5B00012F
:10411000865100018F5B0001972B190E00019765F6
:10412000BAD700018C5100018D1100018E110001E0
:104130008F11D8B418D00001928115D00001D89009
:104140007F37803781378237000195AF02D0000179
:104150007F810001D89092379337943795370001CB
:104160009007D8A09107000181AFE8D7000E0001A9
:10417000976F000195AF24D0FF0E0001921500014A
:10418000876FFF0E000193150001886FFF0E00017D
:1041900094150001896F7F0E0001951500018A6F4B
:1041A00000018751000188110001891100018A1165
:1041B000D8A403D000017FA103D0010E0001976FA6
:1041C000000197510001D8B423D0010E00017F27D0
:1041D000000E802381238223000182A119D07FC099
:1041E00087F080C088F081C089F082C08AF0000129
:1041F0008A358A3389338833873387C07FF088C014
:1042000080F089C081F08AC082F00001904B912B30
:10421000000191BF14D00001915104E100019029E7
:10422000D8A00DD0000E0001916F9069000E000122
:104230007F6F000E806F000E816F000E826F000195
:1042400091BF07D00001915115E100019005D8B050
:1042500011D0000E0001916F000E906F000E000152
:104260007F6F000E806F000E816F000E826F000E58
:1042700000018B6F90C096F0000196A103D0000161
:10428000818F02D00001819F0001D89096310001FA
:10429000826F00018B51000182137FC07FF080C0CC
:1042A00080F081C081F082C082F0120000017A6F3C
:1042B00000017A05D8A456D000017529D8A452D09F
:1042C00071C076F072C077F073C078F074C079F086
:1042D000040E06D00001D8907933783377337633E3
:1042E000E82EF8D776C07BF077C07CF078C07DF000
:1042F00079C07EF000017B5100017B6F7C6B7D6B90
:104300007E6B7BC018FF070E0001711500017B6FEB
:10431000000E0001721500017C6F000E0001731584
:1043200000017D6F000E0001741500017E6F7BC0DF
:1043300076F07CC077F07DC078F07EC079F0050E15
:10434000D89000017637773778377937E82EF8D765
:1043500076C07BF077C07CF078C07DF079C07EF0CD
:104360007BC019FF020E00017A19D8A456D00001B3
:104370007529D8A452D071C076F072C077F073C09E
:1043800078F074C079F0040E06D00001D89079332B
:10439000783377337633E82EF8D776C07BF077C062
:1043A0007CF078C07DF079C07EF000017B51000187
:1043B0007B6F7C6B7D6B7E6B7BC01CFF070E0001EF
:1043C000711500017B6F000E0001721500017C6FFA
:1043D000000E0001731500017D6F000E00017415C1
:1043E00000017E6F7BC076F07CC077F07DC078F0F6
:1043F0007EC079F0050ED890000176377737783790
:104400007937E82EF8D776C07BF077C07CF078C09B
:104410007DF079C07EF07BC01DFF00017A05D8A435
:1044200087D0F70E00017519D8A482D00001715110
:1044300000017B6F7C6B7D6B7E6B7BC01BFF000E76
:104440000001711500017B6FFF0E00017215000164
:104450007C6F000E0001731500017D6F000E0001DE
:10446000741500017E6F7BC076F07CC077F07DC054
:1044700078F07EC079F077C076F078C077F079C0B8
:1044800078F00001796B76C07BF077C07CF078C063
:104490007DF079C07EF07BC01AFF000173A103D0CC
:1044A0000F01198102D00F011991000173A303D0EC
:1044B0000F01198302D00F011993000173A503D0D6
:1044C0000F01198B02D00F01199B000173A703D0B4
:1044D0000F01198D02D00F01199D000173A903D09E
:1044E0000F01198F02D00F01199F71C076F072C0B1
:1044F00077F073C078F074C079F0160E06D0000122
:10450000D8907933783377337633E82EF8D776C07E
:104510007BF077C07CF078C07DF079C07EF0000140
:104520007B5100017B6F7C6B7D6B7E6B7BC018FFCA
:10453000020E00017A19D8A41200F70E00017519B5
:10454000D8A412000001715100017B6F7C6B7D6B60
:104550007E6B7BC01FFF000E0001711500017B6F99
:10456000FF0E0001721500017C6F000E0001731533
:1045700000017D6F000E0001741500017E6F7BC08D
:1045800076F07CC077F07DC078F07EC079F077C09F
:1045900076F078C077F079C078F00001796B76C05A
:1045A0007BF077C07CF078C07DF079C07EF07BC076
:1045B0001EFF000173A103D00F011D8102D00F0166
:1045C0001D91000173A303D00F011D8302D00F01C1
:1045D0001D93000173A503D00F011D8B02D00F01A5
:1045E0001D9B000173A703D00F011D8D02D00F0189
:1045F0001D9D000173A903D00F011D8F02D00F0173
:104600001D9F71C076F072C077F073C078F074C0EF
:1046100079F0160E06D00001D890793378337733CD
:104620007633E82EF8D776C07BF077C07CF078C080
:104630007DF079C07EF000017B5100017B6F7C6BC7
:104640007D6B7E6B7BC01CFF12000001A46F6D0EA2
:104650000001A465CDD0000E00017A6F0A0E796FBB
:10466000000E0001746F640E736FA4C071F000013E
:10467000726B9BECAFF071C077F072C078F0D0EC49
:10468000ADF00001D890773778370001D8907737B0
:104690007837240E00017727000E00017823CD0E15
:1046A00000017725F66EFC0E00017821F76EF86A9E
:1046B000000EF8220900F5CF83F00900F5CF84F051
:1046C0000900F5CF85F00A00F5CF86F0000E000155
:1046D0007A6F640E796FA4C077F00001786BD0EC2C
:1046E000ADF00001D890773778370001D890773750
:1046F0007837480E00017727000E00017823CD0E91
:1047000000017725F66EFC0E00017821F76EF86A3D
:10471000000EF8220900F5CF7FF00900F5CF80F0F8
:104720000900F5CF81F00A00F5CF82F023EC9DF06F
:104730007FC0A0F080C0A1F081C0A2F082C0A3F031
:10474000000E0001746F0A0E736FA4C071F00001B7
:10475000726B9BECAFF00001D8907137723700019B
:10476000D89071377237CD0E00017125F66EFC0EB0
:1047700000017221F76EF86A000EF8220900F5CFE9
:1047800083F00900F5CF84F00900F5CF85F00A0029
:10479000F5CF86F0A0C07FF0A1C080F0A2C081F06C
:1047A000A3C082F023EC9DF07FC09CF080C09DF000
:1047B00081C09EF082C09FF09CC07FF09DC080F0C1
:1047C0009EC081F09FC082F0000E0001836F000E3A
:1047D000846F000E856F3F0E866F23EC9DF07FC0C7
:1047E00098F080C099F081C09AF082C09BF01200CE
:1047F0000A0E0001A46578D0000E0001746F0A0E45
:10480000736FA4C071F00001726B9BECAFF00001FC
:10481000D890713772370001D89071377237CD0E4A
:1048200000017125F66EFC0E00017221F76EF86A28
:10483000000EF8220900F5CF83F00900F5CF84F0CF
:104840000900F5CF85F00A00F5CF86F0000E0001D3
:104850007A6F0A0E796FA4C077F00001786BD0EC04
:10486000ADF00001D890773778370001D8907737CE
:104870007837240E00017727000E00017823CD0E33
:1048800000017725F66EFC0E00017821F76EF86ABC
:10489000000EF8220900F5CF7FF00900F5CF80F077
:1048A0000900F5CF81F00A00F5CF82F023EC9DF0EE
:1048B0007FC0A0F080C0A1F081C0A2F082C0A3F0B0
:1048C000A0C07FF0A1C080F0A2C081F0A3C082F0A0
:1048D000000E0001836F000E846F000E856F3F0E87
:1048E000866F23EC9DF07BD70001A451040DCD0E03
:1048F000F324F66EFC0EF420F76EF86A000EF82230
:104900000900F5CF7FF00900F5CF80F00900F5CF61
:1049100081F00A00F5CF82F0000E0001836F000ED7
:10492000846F000E856F3F0E866F23EC9DF07FC075
:1049300098F080C099F081C09AF082C09BF012007C
:10494000D4ECB3F0E806D8A4FBD7080E0001716FD1
:10495000000E726F000E736F000E746F350E000143
:10496000756F010E0001766F080E0001776FFC0E67
:104970000001786FAEEC8EF0DFC071F0E0C072F035
:104980000001736B746B000E18ECA7F071C07FF020
:1049900072C080F073C081F074C082F0000E00011C
:1049A000836F000E846F8B0E856F430E866F76ECDF
:1049B0009FF07FC001F080C002F081C003F082C090
:1049C00004F0190E0001C36F010E0001C46FFA0E4E
:1049D0000001C56FFF0E0001C66F01C0C7F002C025
:1049E000C8F003C0C9F004C0CAF064EC8AF0000E3D
:1049F0000101246F48AE3DD0100E1DECACF093ECDD
:104A0000B3F0010E5AECADF0550E0001826FFF0EAF
:104A10000001836F60ECB3F0020E5AECADF0C80EEB
:104A20000001826FFF0E0001836F60ECB3F0030E94
:104A30005AECADF0A90E0001826FFF0E0001836FEA
:104A400060ECB3F0040E5AECADF048B609D0BA0EE3
:104A50000001826FFF0E0001836F60ECB3F008D09D
:104A6000E40E0001826FFF0E0001836F60ECB3F073
:104A7000489E48BC37D049AA0CD0020E5AECADF083
:104A80005D0E0001826FFD0E0001836F60ECB3F0DC
:104A9000499A020E0001806F0C0E14ECB4F0000174
:104AA000EB51D8B416D00001E705D8A409D0F00E18
:104AB0000001826FFF0E0001836F60ECB3F01ED027
:104AC000F50E0001826FFF0E0001836F60ECB3F002
:104AD00015D0EB0E0001826FFF0E0001836F60ECBA
:104AE000B3F00CD0498A020E5AECADF0D70E00019B
:104AF000826FFE0E0001836F60ECB3F0030E0001C5
:104B0000806F080E14ECB4F0190E0001826F010ED4
:104B10000001836FC1ECB3F049A048BA3CD048B65D
:104B200027D0040E5AECADF0BA0E0001826FFF0ED2
:104B30000001836F60ECB3F0040E0001806F0E0E75
:104B400014ECB4F00001E951D8A409D0D40E00014E
:104B5000826FFF0E0001836F60ECB3F01200DC0E79
:104B60000001826FFF0E0001836F60ECB3F0120052
:104B7000040E0001806F070E14ECB4F023C089F01E
:104B800024C08AF0000E00018B6F010E00018C6FB3
:104B9000E2ECA8F01200040E5AECADF048AA09D0DD
:104BA000440E0001826FFE0E0001836F60ECB3F0D3
:104BB0001200940E0001826FFF0E0001836F60EC03
:104BC000B3F01200E9CF3CF0EACF3DF0E1CF3EF088
:104BD000E2CF3FF0D9CF40F0DACF41F0F3CF42F04F
:104BE000F4CF43F0F6CF44F0F7CF45F0F8CF46F0DE
:104BF000F5CF47F0A4A2A4B001D0FCD049ECB4F0AA
:104C00000009D8B4F5D00A0E266E010E276E49ECC5
:104C100098F0010118A102D0488801D048980AC133
:104C200005F00BC106F00CC107F00DC108F0080E2D
:104C30000518061007100810D8A422D00FC11FF0C5
:104C4000206A1F50366E01010E511F6E36C020F0D3
:104C500011C121F0226A2150366E01011051216EDE
:104C600036C022F01F502124366E20502220376E8D
:104C7000D8903730386E36300001DF6F38C0E0F042
:104C80000D0E0518061007100810D8A441D0010118
:104C90000E05D8A407D0498C499E48944984000E3B
:104CA0000001E86F020E01010E19D8A406D0498C4C
:104CB000498E4880020E0001E86F030E01010E19B3
:104CC000D8A410D0060E0001E86F4892C80E19242F
:104CD000156E000E1A20166E000E1B20176E000EA9
:104CE0001C20186E040E01010E19D8A411D0060E56
:104CF0000001E86F49824892C80E1924156E000E13
:104D00001A20166E000E1B20176E000E1C20186E47
:104D1000100E0518061007100810D8A408D00101BD
:104D20000FA102D04A8001D04A900EC1EAF0110EC4
:104D30000518061007100810D8A404D00EC11EF0E4
:104D40000FC11DF0AA0E0518061007100810D8A4F0
:104D50000AD00FC123F0246A2350366E01010E5190
:104D6000236E36C024F0040E051806100710081034
:104D7000D8B448A826D019C006F11AC007F11BC044
:104D800008F11CC009F1030E0101256F0D0EE82E7C
:104D9000FED700F0F7ECB3F0E806D8A4FBD7040E7A
:104DA000266E000E276E000E286E000E296E250E50
:104DB0002A6E010E2B6E080E2C6EBC0E2D6E74EC3E
:104DC00092F00B0E0518061007100810D8B448A86A
:104DD00001D04980120E0518061007100810D8A43B
:104DE00007D001010EA102D0488A01D0489A49900B
:104DF000A492A49047C0F5FF46C0F8FF45C0F7FF56
:104E000044C0F6FF43C0F4FF42C0F3FF41C0DAFFE5
:104E100040C0D9FF3FC0E2FF3EC0E1FF3DC0EAFF16
:104E20003CC0E9FF3BC0FBFF3AC0FAFF4B921100C8
:104E30000001796F000179510001D8B41ED0000142
:104E400074AF1BD071C075F072C076F073C077F08C
:104E500074C078F00001751F761F771F781F752BBF
:104E6000000E76237723782375C07BF076C07CF024
:104E700077C07DF078C07EF008D071C07BF072C042
:104E80007CF073C07DF074C07EF0000171510001B0
:104E900072110001731100017411D8A40AD0000E20
:104EA0000001716F000E726F000E736F000E746F51
:104EB0001200960E00017A6F08D000017A2B0001D3
:104EC000D8907E337D337C337B33000E00017B151D
:104ED0000001756F000E00017C150001766F000E59
:104EE00000017D150001776FFE0E00017E150001A7
:104EF000786F0001755100017611000177110001F2
:104F00007811D8B410D0D9D700017A2B010E000146
:104F10007B27000E7C237D237E230001D8907E33E7
:104F20007D337C337B33000E00017B150001756FF0
:104F3000000E00017C150001766F000E00017D154A
:104F40000001776FFF0E00017E150001786F0001F0
:104F50007551000176110001771100017811D8B464
:104F600009D0D2D700017A070001D8907B377C376F
:104F70007D377E3700017DBF04D0020E00017A61CB
:104F8000F1D700017AB109D0FF0E00017B17FF0EA7
:104F90007C177F0E7D17FF0E7E170001D8907A33A5
:104FA0007AC075F00001766B776B786B75C078F01E
:104FB0000001776B766B756B0001755100017B13F7
:104FC0000001765100017C130001775100017D132F
:104FD0000001785100017E13000179510001D8B41D
:104FE00005D0000174AF02D000017E8F7BC071F04C
:104FF0007CC072F07DC073F07EC074F012000001BE
:10500000886F800E3EECB4F0000E706E000E716E74
:10501000000E726E00018141E842C00B0001816FF9
:1050200000018151701200018251701200018851FB
:10503000711200017F39E842F80B00017F6F000117
:105040007F517112000183A5718C000183B1718EB3
:10505000000180517212000183B3728C00018351F0
:10506000600B606E00018351100BFF0AD8B460849E
:1050700060CF50FF000E0001716F000E726F000EC6
:10508000736F000E746FF70E0001756F010E56EC12
:10509000A1F0000E0001716F000E726F000E736FB1
:1050A000000E746FF70E0001756F020E56ECA1F042
:1050B0000FD0F70E0001896F07D000018969000148
:1050C0008A6928D000018969F70E00018A6F22D011
:1050D0009F0E0001846FFF0E0001856F0001835158
:1050E000600B0001866F876B0001845100018613FD
:1050F000000185510001871300018751000AD8A4DF
:10510000E1D700018651BF0AD8B4D7D7600AD8B416
:10511000D0D7D8D7000E0001716F000E726F000E4D
:10512000736F000E746F89C075F0000E00EC80F094
:10513000000E0001716F000E726F000E736F000E93
:10514000746F89C075F0010E00EC80F0000E000154
:10515000716F000E726F000E736F000E746F8AC055
:1051600075F0020E00EC80F0000E0001716F000E71
:10517000726F000E736F000E746F8AC075F0030EAD
:1051800000EC80F0000E0001716F000E726F000ED7
:10519000736F000E746F8AC075F0040E00EC80F01F
:1051A000000E0001716F000E726F000E736F000E23
:1051B000746F8AC075F0050E00EC80F0000E3EECB6
:1051C000B4F0120021EE00F010EE92F0050EDBCFED
:1051D000E3FFE806FCE2920E0001816F000E000181
:1051E000826F89C083F08AC084F0000E0001866F50
:1051F0000A0E856FA8ECB2F000018B510001D8B403
:10520000B8D000018B51010D920EF324D96E000E1F
:10521000F420DA6E000EDF6E70D000018B05000105
:10522000986F000198510001D8B467D0FF0E0001BB
:105230008D6FFF0E00018E6F0001985100018F6F7E
:10524000906B00018D5100018F2700018E510001EC
:105250009023920E00018F25D96E000E000190213F
:10526000DA6E00019851010D920EF324E16E000EEA
:10527000F420E26EDFCFE7FF00018C05D8A41DD03B
:10528000FF0E00018D6FFF0E00018E6F000198511F
:1052900000018F6F906B00018D5100018F2700017D
:1052A0008E5100019023920E00018F25D96E000EC1
:1052B00000019021DA6E200E1CD0FF0E00018D6FD0
:1052C000FF0E00018E6F0001985100018F6F906BEF
:1052D00000018D5100018F2700018E5100019023A4
:1052E000920E00018F25D96E000E00019021DA6E1A
:1052F000300EDF6E0001980794D7FF0E00018D6F0E
:10530000FF0E00018E6F00018B5100018F6F906BBB
:1053100000018D5100018F2700018E510001902363
:10532000920E00018F25D96E000E00019021DA6ED9
:105330003A0EDF6072D7FF0E00018D6FFF0E000185
:105340008E6F00018B5100018F6F906B00018D51AA
:1053500000018F2700018E5100019023920E000161
:105360008F25D96E000E00019021DA6E2F0EDF64BA
:1053700054D7920E0001826F000E0001836FC1ECC2
:10538000B3F0120073C079F000017A6B7B6B0001FF
:1053900072350001793701E37A810001795100010A
:1053A000816F00018151D8A40AD0000E0001716FF5
:1053B000000E726F000E736F000E746F120077C0D4
:1053C00079F000017A6B7B6B00017635000179374B
:1053D00001E37A81000179510001806F0001805161
:1053E000D8A40AD0000E0001716F000E726F000E7B
:1053F000736F000E746F12000001728FFF0E0001B8
:105400007117FF0E00017217000E000173170001E3
:10541000768FFF0E00017517FF0E00017617000E44
:1054200000017717000E00017C6F000E7D6F000EEB
:105430007E6F000E7F6F7F0E0001815F0001805143
:10544000980F0001815F180E0001806F0001D89055
:105450007C377D377E377F37000175510001715DE4
:105460000001765100017259000177510001735912
:10547000D8A00ED0000175510001715F0001765176
:105480000001725B000177510001735B00017C81B8
:105490000001D8907137723773370001802FD6D74B
:1054A000000181AF1AD000018151800A970FD8B056
:1054B0000AD0000E0001716F000E726F000E736F44
:1054C000000E746F12000001D8907F337E337D335D
:1054D0007C330001813FF7D71BD0170E0001816597
:1054E00012D0000E0001716F000E726F000E736F0C
:1054F000000E746F12000001D8907C377D377E3724
:105500007F3700018107000181510001D8A4F3D742
:105510007CC071F07DC072F07EC073F07FC074F00B
:105520001200000E000171150001796F000E0001DC
:10553000721500017A6F800E0001731500017B6FF8
:105540007F0E0001741500017C6F0001795100018C
:105550007A1100017B1100017C11D8A409D0000E42
:105560000001716F000E726F000E736F000E746F8A
:10557000000E000175150001796F000E000176150F
:1055800000017A6F800E0001771500017B6F7F0E9E
:105590000001781500017C6F0001795100017A113A
:1055A00000017B1100017C11D8A409D0000E00017C
:1055B000756F000E766F000E776F000E786F00012A
:1055C00074AF26D071C079F072C07AF073C07BF0EE
:1055D00074C07CF00001791F7A1F7B1F7C1F792B20
:1055E000000E7A237B237C23000E00017925000125
:1055F000716F000E00017A210001726F000E000130
:105600007B210001736F800E00017C210001746F0B
:10561000000178AF26D075C079F076C07AF077C0F7
:105620007BF078C07CF00001791F7A1F7B1F7C1F04
:10563000792B000E7A237B237C23000E0001792531
:105640000001756F000E00017A210001766F000ED7
:1056500000017B210001776F800E00017C21000199
:10566000786F000E0001711B000E721B000E731B81
:10567000800E741B000E0001751B000E761B000EC1
:10568000771B800E781B000175510001715D0001D0
:1056900076510001725900017751000173590001E0
:1056A000785100017459D8B002D0D8901200D88037
:1056B000120000017335743500017E6F00017E51C8
:1056C000D8A40AD0000E0001716F000E726F000E98
:1056D000736F000E746F120000017735783500018A
