:0400000061EF00F0BC
:0E0008004882FACF60F0FBCF61F057EFA5F011
:100018004880D8CF29F0E8CF2AF0E0CF2BF0FACFEC
:100028002CF0FBCF2DF0E9CF2EF0EACF2FF0E1CF67
:1000380030F0E2CF31F0D9CF32F0DACF33F0F3CF6E
:1000480034F0F4CF35F0F6CF36F0F7CF37F0F8CFFD
:1000580038F0F5CF39F0A1A20CD0010E0001E0274D
:10006800000EE123E223E323630EB36EC00EB26EEB
:10007800A19239C0F5FF38C0F8FF37C0F7FF36C086
:10008800F6FF35C0F4FF34C0F3FF33C0DAFF32C0E7
:10009800D9FF31C0E2FF30C0E1FF2FC0EAFF2EC018
:1000A800E9FF2DC0FBFF2CC0FAFF2BC0E0FF2AC0E0
:0E00B800E8FF29C0D8FF489010007CEFA8F0A8
:10FEEA00000000803FCDCCCC3D0AD7233C6F128363
:10FEFA003A17B7D138ACC52737BD37863595BFD63F
:10FF0A003377CC2B325F708930FFE6DB2E08E53C75
:10FF1A001E6042A20D0000803F000020410000C880
:10FF2A004200007A4400401C460050C34700247433
:10FF3A00498096184B20BCBE4C286B6E4EF90215B0
:10FF4A0050EC78AD60CAF24971010000000A000065
:10FF5A000064000000E803000010270000A08601EA
:10FF6A000040420F008096980000E1F50500CA9A09
:10FF7A003B5475726E207468652073776974636880
:10FF8A00204F4E2120003D3D3E2056454849434CD6
:10FF9A004520204F4646203C3D3D003D3D3D2056F4
:10FFAA00454849434C452044415441203D3D3D008C
:10FFBA003D3D3D3D3D3D3D3D3D3D3D3D3D3D3D3D67
:10FFCA003D3D3D3D00446972656374696F6E3A2038
:10FFDA000053706565643A20252E336600576169BF
:10FFEA00742E2E2E00424B5744004B6D2F6800464C
:06FFFA0057440050000016
:020000040001F9
:100000000001776F000177510001D8A458D000019A
:100010007229D8A454D00F0101976EC073F06FC03D
:1000200074F070C075F071C076F0040E06D0000157
:10003000D8907633753374337333E82EF8D773C0A2
:1000400078F074C079F075C07AF076C07BF000016A
:1000500078510001786F796B7A6B7B6B78C000FF09
:10006000070E00016E150001786F000E00016F157C
:100070000001796F000E0001701500017A6F000E0B
:100080000001711500017B6F78C073F079C074F0C6
:100090007AC075F07BC076F0050ED89000017337FA
:1000A000743775377637E82EF8D773C078F074C098
:1000B00079F075C07AF076C07BF078C001FF00015E
:1000C0007705D8A458D000017229D8A454D00F01C4
:1000D00005976EC073F06FC074F070C075F071C09A
:1000E00076F0040E06D00001D89076337533743361
:1000F0007333E82EF8D773C078F074C079F075C008
:100100007AF076C07BF0000178510001786F796B4E
:100110007A6B7B6B78C004FF070E00016E1500013F
:10012000786F000E00016F150001796F000E00015D
:10013000701500017A6F000E0001711500017B6FD0
:1001400078C073F079C074F07AC075F07BC076F037
:10015000050ED89000017337743775377637E82E5F
:10016000F8D773C078F074C079F075C07AF076C0B3
:100170007BF078C005FF020E00017719D8A458D093
:1001800000017229D8A454D00F0109976EC073F0F2
:100190006FC074F070C075F071C076F0040E06D0B8
:1001A0000001D8907633753374337333E82EF8D763
:1001B00073C078F074C079F075C07AF076C07BF0C7
:1001C000000178510001786F796B7A6B7B6B78C096
:1001D00008FF070E00016E150001786F000E000188
:1001E0006F150001796F000E0001701500017A6F24
:1001F000000E0001711500017B6F78C073F079C0AB
:1002000074F07AC075F07BC076F0050ED8900001CE
:100210007337743775377637E82EF8D773C078F0B0
:1002200074C079F075C07AF076C07BF078C009FFB1
:10023000030E00017719D8A458D000017229D8A460
:1002400054D00F010D976EC073F06FC074F070C082
:1002500075F071C076F0040E06D00001D8907633A8
:10026000753374337333E82EF8D773C078F074C0E5
:1002700079F075C07AF076C07BF00001785100010A
:10028000786F796B7A6B7B6B78C00CFF070E00017F
:100290006E150001786F000E00016F150001796F77
:1002A000000E0001701500017A6F000E000171153B
:1002B00000017B6F78C073F079C074F07AC075F07C
:1002C0007BC076F0050ED890000173377437753710
:1002D0007637E82EF8D773C078F074C079F075C01F
:1002E0007AF076C07BF078C00DFF040E000177191C
:1002F000D8A458D000017229D8A454D00F01119766
:100300006EC073F06FC074F070C075F071C076F09D
:10031000040E06D00001D8907633753374337333EE
:10032000E82EF8D773C078F074C079F075C07AF011
:1003300076C07BF0000178510001786F796B7A6BA1
:100340007B6B78C010FF070E00016E150001786FFF
:10035000000E00016F150001796F000E000170158D
:1003600000017A6F000E0001711500017B6F78C0EB
:1003700073F079C074F07AC075F07BC076F0050E2A
:10038000D89000017337743775377637E82EF8D771
:1003900073C078F074C079F075C07AF076C07BF0E5
:1003A00078C011FF050E00017719D8A458D00001BC
:1003B0007229D8A454D00F0115976EC073F06FC086
:1003C00074F070C075F071C076F0040E06D00001B4
:1003D000D8907633753374337333E82EF8D773C0FF
:1003E00078F074C079F075C07AF076C07BF00001C7
:1003F00078510001786F796B7A6B7B6B78C014FF52
:10040000070E00016E150001786F000E00016F15D8
:100410000001796F000E0001701500017A6F000E67
:100420000001711500017B6F78C073F079C074F022
:100430007AC075F07BC076F0050ED8900001733756
:10044000743775377637E82EF8D773C078F074C0F4
:1004500079F075C07AF076C07BF078C015FF0001A6
:1004600077510001D8A489D0F70E00017219D8A4E1
:1004700084D00F01018700016E510001786F796B04
:100480007A6B7B6B78C003FF000E00016E150001D4
:10049000786FFF0E00016F150001796F000E0001EB
:1004A000701500017A6F000E0001711500017B6F5D
:1004B00078C073F079C074F07AC075F07BC076F0C4
:1004C00074C073F075C074F076C075F00001766B7F
:1004D00073C078F074C079F075C07AF076C07BF0A4
:1004E00078C002FF000170A103D00F01018102D08A
:1004F0000F010191000170A303D00F01018302D00D
:100500000F010193000170A503D00F01018B02D0F0
:100510000F01019B000170A703D00F01018D02D0D4
:100520000F01019D000170A903D00F01018F02D0BE
:100530000F01019F6EC073F06FC074F070C075F052
:1005400071C076F0160E06D00001D8907633753360
:1005500074337333E82EF8D773C078F074C079F031
:1005600075C07AF076C07BF0000178510001786F99
:10057000796B7A6B7B6B78C000FF00017705D8A49C
:1005800089D0F70E00017219D8A484D00F01058715
:1005900000016E510001786F796B7A6B7B6B78C0CC
:1005A00007FF000E00016E150001786FFF0E0001BD
:1005B0006F150001796F000E0001701500017A6F50
:1005C000000E0001711500017B6F78C073F079C0D7
:1005D00074F07AC075F07BC076F074C073F075C0AB
:1005E00074F076C075F00001766B73C078F074C05B
:1005F00079F075C07AF076C07BF078C006FF000114
:1006000070A103D00F01058102D00F0105910001F7
:1006100070A303D00F01058302D00F0105930001E1
:1006200070A503D00F01058B02D00F01059B0001BF
:1006300070A703D00F01058D02D00F01059D0001A9
:1006400070A903D00F01058F02D00F01059F6EC066
:1006500073F06FC074F070C075F071C076F0160E54
:1006600006D00001D8907633753374337333E82E97
:10067000F8D773C078F074C079F075C07AF076C09E
:100680007BF0000178510001786F796B7A6B7B6B9E
:1006900078C004FF020E00017719D8A489D0F70EA4
:1006A00000017219D8A484D00F01098700016E518E
:1006B0000001786F796B7A6B7B6B78C00BFF000E53
:1006C00000016E150001786FFF0E00016F1500012B
:1006D000796F000E0001701500017A6F000E0001A5
:1006E000711500017B6F78C073F079C074F07AC027
:1006F00075F07BC076F074C073F075C074F076C08E
:1007000075F00001766B73C078F074C079F075C035
:100710007AF076C07BF078C00AFF000170A103D0A8
:100720000F01098102D00F010991000170A303D0CC
:100730000F01098302D00F010993000170A503D0B6
:100740000F01098B02D00F01099B000170A703D094
:100750000F01098D02D00F01099D000170A903D07E
:100760000F01098F02D00F01099F6EC073F06FC097
:1007700074F070C075F071C076F0160E06D00001EE
:10078000D8907633753374337333E82EF8D773C04B
:1007900078F074C079F075C07AF076C07BF0000113
:1007A00078510001786F796B7A6B7B6B78C008FFAA
:1007B000030E00017719D8A489D0F70E0001721931
:1007C000D8A484D00F010D8700016E510001786F0D
:1007D000796B7A6B7B6B78C00FFF000E00016E1592
:1007E0000001786FFF0E00016F150001796F000E98
:1007F0000001701500017A6F000E000171150001F3
:100800007B6F78C073F079C074F07AC075F07BC0EC
:1008100076F074C073F075C074F076C075F00001A6
:10082000766B73C078F074C079F075C07AF076C0DA
:100830007BF078C00EFF000170A103D00F010D8185
:1008400002D00F010D91000170A303D00F010D83A1
:1008500002D00F010D93000170A503D00F010D8B85
:1008600002D00F010D9B000170A703D00F010D8D69
:1008700002D00F010D9D000170A903D00F010D8F53
:1008800002D00F010D9F6EC073F06FC074F070C086
:1008900075F071C076F0160E06D00001D890763350
:1008A000753374337333E82EF8D773C078F074C09F
:1008B00079F075C07AF076C07BF0000178510001C4
:1008C000786F796B7A6B7B6B78C00CFF040E00013C
:1008D0007719D8A489D0F70E00017219D8A484D052
:1008E0000F01118700016E510001786F796B7A6BEF
:1008F0007B6B78C013FF000E00016E150001786F4E
:10090000FF0E00016F150001796F000E00017015D8
:1009100000017A6F000E0001711500017B6F78C035
:1009200073F079C074F07AC075F07BC076F074C053
:1009300073F075C074F076C075F00001766B73C00B
:1009400078F074C079F075C07AF076C07BF078C02A
:1009500012FF000170A103D00F01118102D00F011D
:100960001191000170A303D00F01118302D00F0178
:100970001193000170A503D00F01118B02D00F015C
:10098000119B000170A703D00F01118D02D00F0140
:10099000119D000170A903D00F01118F02D00F012A
:1009A000119F6EC073F06FC074F070C075F071C0AD
:1009B00076F0160E06D00001D89076337533743376
:1009C0007333E82EF8D773C078F074C079F075C02F
:1009D0007AF076C07BF0000178510001786F796B76
:1009E0007A6B7B6B78C010FF050E00017719D8A4D5
:1009F0001200F70E00017219D8A412000F0115871A
:100A000000016E510001786F796B7A6B7B6B78C057
:100A100017FF000E00016E150001786FFF0E000138
:100A20006F150001796F000E0001701500017A6FDB
:100A3000000E0001711500017B6F78C073F079C062
:100A400074F07AC075F07BC076F074C073F075C036
:100A500074F076C075F00001766B73C078F074C0E6
:100A600079F075C07AF076C07BF078C016FF00018F
:100A700070A103D00F01158102D00F011591000163
:100A800070A303D00F01158302D00F01159300014D
:100A900070A503D00F01158B02D00F01159B00012B
:100AA00070A703D00F01158D02D00F01159D000115
:100AB00070A903D00F01158F02D00F01159F6EC0D2
:100AC00073F06FC074F070C075F071C076F0160EE0
:100AD00006D00001D8907633753374337333E82E23
:100AE000F8D773C078F074C079F075C07AF076C02A
:100AF0007BF0000178510001786F796B7A6B7B6B2A
:100B000078C014FF1200C20E0101046F000E010133
:100B1000056FB5EF89F0250E01011819D8B408D07A
:100B2000BEC0D9FFBFC0DAFF18C1DFFFB2EF89F046
:100B3000000E0101076F000E066FC0C0F6FFC1C0B6
:100B4000F7FF000EF86E0800F5502E0AD8A43DD02D
:100B50000101078D0001C04BC12B000E0101136F75
:100B6000000E126F25D012C16EF013C16FF0000E8F
:100B70000001716F0A0E706FF3ECA8F0C0C0F6FFB1
:100B8000C1C0F7FF000EF86E0800F55000016E2797
:100B9000000E00016F23D00E00016E250101126FBF
:100BA000FF0E00016F210101136F0001C04BC12B2B
:100BB000C0C0F6FFC1C0F7FF000EF86E0800F55088
:100BC0005AECA9F0D8A00CD0CED7000E0101136FBB
:100BD000000E126F0101078903D00101078515D0AE
:100BE000C0C0F6FFC1C0F7FF0001C04BC12B000E13
:100BF000F86E0800F5CF18F101011851000AD8B4B9
:100C0000C5D3660AD8B4E9D7B0D3070E01010715DA
:100C1000D8B453D3010107A905D0000E0101136F09
:100C2000060E126F04C1D9FF05C1DAFFDECF14F141
:100C3000DECF15F1DECF16F1DECF17F1040E010184
:100C40000427000E0523010117AF15D014C16EF063
:100C500015C16FF016C170F017C171F0D7ECA8F094
:100C60006EC014F16FC015F170C016F171C017F1AC
:100C7000030E01010613000E01010D6F000E0C6F33
:100C80000101145101011511010116110101171182
:100C9000D8B48ED0010116351735820F01010C6FC3
:100CA00001010D6BFF0E0D2301010C07D8A00D07EC
:100CB0000CC16EF00DC16FF0000E0001716F030EDC
:100CC000706FF3ECA8F06EC00CF16FC00DF10CC1A9
:100CD00074F00DC175F0000E0001776F0A0E766F8B
:100CE0002BECA6F074C00CF175C00DF101010DAF35
:100CF00004D001010C07D8A00D0701010C51000818
:100D000093EC8DF095C00EF196C00FF197C010F1E5
:100D100098C011F10EC17CF00FC17DF010C17EF0C2
:100D200011C17FF014C180F015C181F016C182F0AD
:100D300017C183F0FAEC94F07CC00EF17DC00FF186
:100D40007EC010F17FC011F10EC16EF00FC16FF0C7
:100D500010C170F011C171F0000E0001726F000E31
:100D6000736F800E746F3F0E756F04ECA1F000017D
:100D7000D8B005D001010C07D8A00D0719D00EC1BD
:100D80006EF00FC16FF010C170F011C171F0000E64
:100D90000001726F000E736F200E746F410E756F3D
:100DA00004ECA1F00001D8A003D001010C4B0D2BE5
:100DB000010113BF08D00101135123E10D0E010100
:100DC000125DD8B01ED014C1A2F015C1A3F016C197
:100DD000A4F017C1A5F001011251F0EC9CF095C0F0
:100DE000A6F096C0A7F097C0A8F098C0A9F0A6EC0E
:100DF00092F0A2C014F1A3C015F1A4C016F1A5C0D1
:100E000017F101010DBF08D001010D512EE10A0EAD
:100E100001010C5DD8B029D0010114510101151157
:100E20000101161101011711D8B46DD014C19EF043
:100E300015C19FF016C1A0F017C1A1F05BECA4F0A2
:100E400000019E5100019F110001A0110001A1119C
:100E5000D8A459D001010DBF56D001010D5105E1B3
:100E6000020E01010C5DD8A04ED00EC16EF00FC174
:100E70006FF010C170F011C171F05F0E0001726F60
:100E8000700E736F890E746F400E756F04ECA1F0D5
:100E90000001D8B003D00101F70E02D00101F80E15
:100EA0000C27FF0E0D2301010C5193EC8DF095C022
:100EB0000EF196C00FF197C010F198C011F114C156
:100EC0006EF015C16FF016C170F017C171F00EC150
:100ED00072F00FC173F010C174F011C175F0CCEC59
:100EE000A1F06EC008F16FC009F170C00AF171C0C5
:100EF0000BF1000E0101146F000E156F000E166F3E
:100F0000000E176F3CD014C19EF015C19FF016C1A2
:100F1000A0F017C1A1F05BECA4F09EC008F19FC047
:100F200009F1A0C00AF1A1C00BF114C1B6F015C1BE
:100F3000B7F016C1B8F017C1B9F008C16EF009C119
:100F40006FF00AC170F00BC171F0000E6BEC9EF0F7
:100F50006EC0BAF06FC0BBF070C0BCF071C0BDF025
:100F600058ECA8F0B6C014F1B7C015F1B8C016F12E
:100F7000B9C017F1000E01010D6F000E0C6F010ECC
:100F80000101186F0A0E01011819D8B421D001010E
:100F90001851040D530EF324F66EFF0EF420F76E75
:100FA000F86A000EF8220900F5500101085D0900F9
:100FB000F550010109590900F55001010A590900CC
:100FC000F55001010B59D8A003D00101182BDAD735
:100FD000030E010106150001C66F000E0101071581
:100FE0000001C76F0001C6510001C711D8B458D025
:100FF000BEC0D9FFBFC0DAFF2D0E50D00001BE4BDE
:10100000BF2B4ED008C16EF009C16FF00AC170F05D
:101010000BC171F001011851040D530EF324F66E4B
:10102000FF0EF420F76EF86A000EF8220900F5CFE3
:1010300072F00900F5CF73F00900F5CF74F00A00E3
:10104000F5CF75F08AECA6F06EC00EF16FC00FF10F
:1010500070C010F171C011F10EC16EF00FC16FF0D0
:1010600010C170F011C171F00A0E0001726F000E14
:10107000736F000E746F000E756F96ECA7F06EC064
:101080000EF16FC00FF170C010F171C011F10101CC
:101090000E51300FBEC0D9FFBFC0DAFFDF6EAED732
:1010A0000101180701011829D8B40ED0ABD7BEC072
:1010B000D9FFBFC0DAFF300EDF6E0001BE4BBF2B81
:1010C00001010C07D8A00D0701010DBF07D00101D8
:1010D0000D51EDE101010C05D8B0E9D7010113BFB5
:1010E0000CD00101135105E1090E0101125DD8A0D8
:1010F00004D0080E0101186F02D012C118F10101CD
:1011000018510101125F000E010118BFFF0E01010D
:10111000135B010118510101D8B409D0BEC0D9FF39
:10112000BFC0DAFF2E0EDF6E0001BE4BBF2B0101E8
:10113000185193EC8DF095C000F196C001F197C065
:1011400002F198C003F114C180F015C181F016C1FD
:1011500082F017C183F000C17CF001C17DF002C1B3
:101160007EF003C17FF0FAEC94F07CC09EF07DC06D
:101170009FF07EC0A0F07FC0A1F05BECA4F09EC009
:1011800008F19FC009F1A0C00AF1A1C00BF17AD00B
:1011900008C16EF009C16FF00AC170F00BC171F0A7
:1011A00001011851040D530EF324F66EFF0EF420C6
:1011B000F76EF86A000EF8220900F5CF72F0090008
:1011C000F5CF73F00900F5CF74F00A00F5CF75F094
:1011D0008AECA6F06EC00EF16FC00FF170C010F176
:1011E00071C011F10EC16EF00FC16FF010C170F03F
:1011F00011C171F00A0E0001726F000E736F000EC4
:10120000746F000E756F96ECA7F06EC00EF16FC094
:101210000FF170C010F171C011F101010E51300FCA
:10122000BEC0D9FFBFC0DAFFDF6E0001BE4BBF2BCF
:1012300008C16EF009C16FF00AC170F00BC171F006
:1012400001011851040D530EF324F66EFF0EF42025
:10125000F76EF86A000EF8220900F5CF72F0090067
:10126000F5CF73F00900F5CF74F00A00F5CF75F0F3
:1012700096ECA7F06EC008F16FC009F170C00AF1DA
:1012800071C00BF10101180701011829D8B40ED063
:101290007FD7BEC0D9FFBFC0DAFF300EDF6E0001BE
:1012A000BE4BBF2B01011207D8A013070101125139
:1012B00001011311D8B459D0ECD701011251010129
:1012C0001311D8A40DD00101085101010911010128
:1012D0000A1101010B11D8A403D00101124B132BE9
:1012E000800E010118BF7F0E0001C66F010112516F
:1012F0000101185D01011351800A0001C659D8B0DF
:1013000003D012C118F118D001011351800A000155
:10131000C66F010118510101125D800E010118BF55
:101320007F0E0001C659D8B007D001011851010144
:10133000126F136B12BF1307030E01010615000194
:10134000C66F000E010107150001C76F0001C651ED
:101350000001C711D8B409D0BEC0D9FFBFC0DAFFA1
:101360002D0EDF6E0001BE4BBF2BC0C0F6FFC1C00B
:10137000F7FF0001C04BC12B000EF86E0800F5CF3F
:1013800018F101011851D8A48BEF85F0BEC0D9FF28
:10139000BFC0DAFF000EDF6E12000F0140B73FD171
:1013A00074C045FF000175AD03D00F01458D02D01B
:1013B0000F01459D000175A779D000016E51000114
:1013C0007A6F7B6B7C6B7D6B7AC044FF000E0001F3
:1013D0006E1500017A6FFF0E00016F1500017B6F23
:1013E000000E0001701500017C6F000E00017115E8
:1013F00000017D6F7AC076F07BC077F07CC078F01A
:101400007DC079F077C076F078C077F079C078F059
:101410000001796B76C07AF077C07BF078C07CF001
:1014200079C07DF07AC043FF000E0F01426F0F01BB
:101430004287000170A102D00F014281000170A318
:1014400002D00F014283000170A502D00F01428B30
:10145000000170A702D00F01428D000170A902D0D7
:101460000F01428F6EC076F06FC077F070C078F0D9
:1014700071C079F0160E06D00001D8907933783318
:1014800077337633E82EF8D776C07AF077C07BF0E2
:1014900078C07CF079C07DF000017A5100017A6F4C
:1014A0007B6B7C6B7D6B7AC041FF59D00F014297FB
:1014B0006EC076F06FC077F070C078F071C079F0D0
:1014C000040E06D00001D890793378337733763321
:1014D000E82EF8D776C07AF077C07BF078C07CF041
:1014E00079C07DF000017A5100017A6F7B6B7C6BD3
:1014F0007D6B7AC041FF070E00016E1500017A6F07
:10150000000E00016F1500017B6F000E00017015C9
:1015100000017C6F000E0001711500017D6F7AC023
:1015200076F07BC077F07CC078F07DC079F0050E56
:10153000D89000017637773778377937E82EF8D7A3
:1015400076C07AF077C07BF078C07CF079C07DF00F
:101550000F0142511F0B0F01426F7AC042FF000181
:1015600075A103D00F01408102D00F01409100010D
:1015700075A303D00F01408302D00F01409372C0C6
:10158000D9FF73C0DAFFDF500F01466F000120EE74
:1015900001F07251D9267351DA22DF500F01476FE3
:1015A000000120EE02F07251D9267351DA22DF5089
:1015B0000F01486F000120EE03F07251D9267351DC
:1015C000DA22DF500F01496F000120EE04F0725162
:1015D000D9267351DA22DF500F014A6F000120EE45
:1015E00005F07251D9267351DA22DF500F014B6F8B
:1015F000000120EE06F07251D9267351DA22DF5035
:101600000F014C6F000120EE07F07251D926735183
:10161000DA22DF500F014D6F0F01408712000F01DA
:1016200030B73FD174C035FF000175AD03D00F0155
:10163000358D02D00F01359D000175A779D00001CD
:101640006E5100017A6F7B6B7C6B7D6B7AC034FFCF
:10165000000E00016E1500017A6FFF0E00016F157C
:1016600000017B6F000E0001701500017C6F000E01
:101670000001711500017D6F7AC076F07BC077F0B4
:101680007CC078F07DC079F077C076F078C077F0D4
:1016900079C078F00001796B76C07AF077C07BF082
:1016A00078C07CF079C07DF07AC033FF000E0F0166
:1016B000326F0F013287000170A102D00F01328119
:1016C000000170A302D00F013283000170A502D087
:1016D0000F01328B000170A702D00F01328D000183
:1016E00070A902D00F01328F6EC076F06FC077F014
:1016F00070C078F071C079F0160E06D00001D89055
:101700007933783377337633E82EF8D776C07AF0AA
:1017100077C07BF078C07CF079C07DF000017A5111
:1017200000017A6F7B6B7C6B7D6B7AC031FF59D087
:101730000F0132976EC076F06FC077F070C078F00E
:1017400071C079F0040E06D00001D8907933783357
:1017500077337633E82EF8D776C07AF077C07BF00F
:1017600078C07CF079C07DF000017A5100017A6F79
:101770007B6B7C6B7D6B7AC031FF070E00016E15B1
:1017800000017A6F000E00016F1500017B6F000EE3
:101790000001701500017C6F000E00017115000141
:1017A0007D6F7AC076F07BC077F07CC078F07DC02A
:1017B00079F0050ED890000176377737783779378A
:1017C000E82EF8D776C07AF077C07BF078C07CF04E
:1017D00079C07DF00F0132511F0B0F01326F7AC0BB
:1017E00032FF000175A103D00F01308102D00F013B
:1017F0003091000175A303D00F01308302D00F0197
:10180000309372C0D9FF73C0DAFFDF500F01366F1B
:10181000000120EE01F07251D9267351DA22DF5017
:101820000F01376F000120EE02F07251D92673517B
:10183000DA22DF500F01386F000120EE03F0725101
:10184000D9267351DA22DF500F01396F000120EEE3
:1018500004F07251D9267351DA22DF500F013A6F2A
:10186000000120EE05F07251D9267351DA22DF50C3
:101870000F013B6F000120EE06F07251D926735123
:10188000DA22DF500F013C6F000120EE07F07251A9
:10189000D9267351DA22DF500F013D6F0F013087D7
:1018A00012000F0120B7120074C025FF000175ADB2
:1018B00003D00F01258D02D00F01259D000175A7D2
:1018C00079D000016E5100017A6F7B6B7C6B7D6B70
:1018D0007AC024FF000E00016E1500017A6FFF0E22
:1018E00000016F1500017B6F000E000170150001F3
:1018F0007C6F000E0001711500017D6F7AC076F0DB
:101900007BC077F07CC078F07DC079F077C076F04E
:1019100078C077F079C078F00001796B76C07AF002
:1019200077C07BF078C07CF079C07DF07AC023FF6F
:10193000000E0F01226F0F012287000170A102D05B
:101940000F012281000170A302D00F012283000148
:1019500070A502D00F01228B000170A702D00F01E9
:10196000228D000170A902D00F01228F6EC076F087
:101970006FC077F070C078F071C079F0160E06D0A5
:101980000001D8907933783377337633E82EF8D75F
:1019900076C07AF077C07BF078C07CF079C07DF0BB
:1019A00000017A5100017A6F7B6B7C6B7D6B7AC092
:1019B00021FF59D00F0122976EC076F06FC077F0EB
:1019C00070C078F071C079F0040E06D00001D89094
:1019D0007933783377337633E82EF8D776C07AF0D8
:1019E00077C07BF078C07CF079C07DF000017A513F
:1019F00000017A6F7B6B7C6B7D6B7AC021FF070ED9
:101A000000016E1500017A6F000E00016F150001D4
:101A10007B6F000E0001701500017C6F000E00014D
:101A2000711500017D6F7AC076F07BC077F07CC0C5
:101A300078F07DC079F0050ED890000176377737C1
:101A400078377937E82EF8D776C07AF077C07BF010
:101A500078C07CF079C07DF00F0122511F0B0F017F
:101A6000226F7AC022FF000175A103D00F012081EF
:101A700002D00F012091000175A303D00F01208334
:101A800002D00F01209372C0D9FF73C0DAFFDF507C
:101A90000F01266F000120EE01F07251D92673511B
:101AA000DA22DF500F01276F000120EE02F07251A1
:101AB000D9267351DA22DF500F01286F000120EE82
:101AC00003F07251D9267351DA22DF500F01296FCA
:101AD000000120EE04F07251D9267351DA22DF5052
:101AE0000F012A6F000120EE05F07251D9267351C3
:101AF000DA22DF500F012B6F000120EE06F0725149
:101B0000D9267351DA22DF500F012C6F000120EE2D
:101B100007F07251D9267351DA22DF500F012D6F71
:101B20000F012087120000019D6F00019DAF45D17C
:101B300000019D6D00019D51800A120FD8A0BBD0FD
:101B4000000E0001776F0A0E766F000E0001716FB4
:101B5000640E706F00019D5100016E6F6F6B6EBF60
:101B60006F0745ECA7F06EC074F06FC075F02BECFA
:101B7000A6F00001D890743775370001D8907437FB
:101B80007537240E00017427000E00017523EB0E3B
:101B900000017425F66EFE0E00017521F76EF86ADD
:101BA000000EF8220900F5CF80F00900F5CF81F092
:101BB0000900F5CF82F00A00F5CF83F0000E000196
:101BC000776F640E766F00019D510001746F756B25
:101BD00074BF75072BECA6F00001D89074377537E9
:101BE0000001D89074377537480E00017427000E35
:101BF00000017523EB0E00017425F66EFE0E000148
:101C00007521F76EF86A000EF8220900F5CF7CF016
:101C10000900F5CF7DF00900F5CF7EF00A00F5CF81
:101C20007FF0FAEC94F07CC099F07DC09AF07EC011
:101C30009BF07FC09CF099C07CF09AC07DF09BC067
:101C40007EF09CC07FF0000E0001716F0A0E706F75
:101C500000019D5100016E6F6F6B6EBF6F0745EC09
:101C6000A7F00001D8906E376F370001D8906E371B
:101C70006F37EB0E00016E25F66EFE0E00016F2130
:101C8000F76EF86A000EF8220900F5CF80F009001F
:101C9000F5CF81F00900F5CF82F00A00F5CF83F08F
:101CA000FAEC94F07CC095F07DC096F07EC097F081
:101CB0007FC098F0120000019D51800A750FD8A0D6
:101CC00063D0000E0001776F0A0E766F00019D5100
:101CD0000001746F756B74BF75072BECA6F00001E3
:101CE000D890743775370001D89074377537240E43
:101CF00000017427000E00017523EB0E000174250E
:101D0000F66EFE0E00017521F76EF86A000EF822DD
:101D10000900F5CF7CF00900F5CF7DF00900F5CF83
:101D20007EF00A00F5CF7FF0000E0001716F0A0E01
:101D3000706F00019D5100016E6F6F6B6EBF6F077A
:101D400045ECA7F00001D8906E376F370001D890AE
:101D50006E376F37EB0E00016E25F66EFE0E00013A
:101D60006F21F76EF86A000EF8220900F5CF80F0B7
:101D70000900F5CF81F00900F5CF82F00A00F5CF18
:101D800083F0FAEC94F08ED700019D51040DEB0E18
:101D9000F324F66EFE0EF420F76EF86A000EF822B9
:101DA0000900F5CF95F00900F5CF96F00900F5CFC1
:101DB00097F00A00F5CF98F0120000019D51800ABB
:101DC000120FD8A0BBD0000E0001776F0A0E766FFD
:101DD000000E0001716F640E706F00019D510001D3
:101DE0006E6F6F6B6EBF6F0745ECA7F06EC074F03F
:101DF0006FC075F02BECA6F00001D89074377537E2
:101E00000001D89074377537240E00017427000E36
:101E1000000175231F0E00017425F66EFF0E0001F0
:101E20007521F76EF86A000EF8220900F5CF80F0F0
:101E30000900F5CF81F00900F5CF82F00A00F5CF57
:101E400083F0000E0001776F640E766F00019D51E4
:101E50000001746F756B74BF75072BECA6F0000161
:101E6000D890743775370001D89074377537480E9D
:101E700000017427000E000175231F0E0001742558
:101E8000F66EFF0E00017521F76EF86A000EF8225B
:101E90000900F5CF7CF00900F5CF7DF00900F5CF02
:101EA0007EF00A00F5CF7FF0FAEC94F07CC099F058
:101EB0007DC09AF07EC09BF07FC09CF099C07CF002
:101EC0009AC07DF09BC07EF09CC07FF0000E0001A8
:101ED000716F0A0E706F00019D5100016E6F6F6B84
:101EE0006EBF6F0745ECA7F00001D8906E376F37D3
:101EF0000001D8906E376F371F0E00016E25F66E09
:101F0000FF0E00016F21F76EF86A000EF82209003B
:101F1000F5CF80F00900F5CF81F00900F5CF82F010
:101F20000A00F5CF83F0FAEC94F07CC095F07DC008
:101F300096F07EC097F07FC098F0120000019D518E
:101F4000800A750FD8A063D0000E0001776F0A0ECB
:101F5000766F00019D510001746F756B74BF75073A
:101F60002BECA6F00001D890743775370001D8909B
:101F700074377537240E00017427000E0001752395
:101F80001F0E00017425F66EFF0E00017521F76E1D
:101F9000F86A000EF8220900F5CF7CF00900F5CFB1
:101FA0007DF00900F5CF7EF00A00F5CF7FF0000E3E
:101FB0000001716F0A0E706F00019D5100016E6F7C
:101FC0006F6B6EBF6F0745ECA7F00001D8906E37BE
:101FD0006F370001D8906E376F371F0E00016E25E6
:101FE000F66EFF0E00016F21F76EF86A000EF82200
:101FF0000900F5CF80F00900F5CF81F00900F5CF99
:1020000082F00A00F5CF83F0FAEC94F08ED700014D
:102010009D51040D1F0EF324F66EFF0EF420F76E93
:10202000F86A000EF8220900F5CF95F00900F5CF07
:1020300096F00900F5CF97F00A00F5CF98F012005E
:10204000000E446E74BE448074BC44820F0150AFD5
:1020500043D13AC0D9FF3BC0DAFFDE6ADE6ADE6AEE
:10206000DD6A20EE04F03A50D9263B50DA2256CFF2
:10207000DFFF20EE05F03A50D9263B50DA2257CF49
:10208000DFFF20EE06F03A50D9263B50DA2258CF37
:10209000DFFF20EE07F03A50D9263B50DA2259CF25
:1020A000DFFF20EE08F03A50D9263B50DA225ACF13
:1020B000DFFF20EE09F03A50D9263B50DA225BCF01
:1020C000DFFF20EE0AF03A50D9263B50DA225CCFEF
:1020D000DFFF20EE0BF03A50D9263B50DA225DCFDD
:1020E000DFFF20EE0EF03A50D9263B50DA220F01E6
:1020F00055AD02D0010E01D0000EDF6E20EE0DF0C6
:102100003A50D9263B50DA220F0155510F0BDF6EA2
:1021100020EE0CF03A50D9263B50DA220F0152A79C
:1021200002D0010E01D0000EDF6E0F0152B744D075
:1021300051CF3CF03D6A3E6A3F6A030ED8903C3670
:102140003D363E363F36E82EF9D73AC0D9FF3BC080
:10215000DAFF3CC0DEFF3DC0DEFF3EC0DEFF3FC019
:10216000DEFF0F015239E842070B070B456E3AC0FC
:10217000D9FF3BC0DAFFDECF3CF0DECF3DF0DECF53
:102180003EF0DECF3FF045503C24406E000E3D2037
:10219000416E000E3E20426E000E3F20436E3AC05C
:1021A000D9FF3BC0DAFF40C0DEFF41C0DEFF42C0C6
:1021B000DEFF43C0DEFF8DD054CF3CF03D6A3E6A67
:1021C0003F6A3AC0D9FF3BC0DAFF3CC0DEFF3DC0EA
:1021D000DEFF3EC0DEFF3FC0DEFF53CF3CF03D6A76
:1021E0003E6A3F6A3EC03FF03DC03EF03CC03DF01D
:1021F0003C6A3AC0D9FF3BC0DAFF3C50DE263D5076
:10220000DE223E50DE223F50DE220F0152A10CD0D2
:102210003AC0D9FF3BC0DAFF000EDE12000EDE121C
:10222000010EDE12000EDE120F0152A30CD03AC0D6
:10223000D9FF3BC0DAFF000EDE12000EDE12020EE6
:10224000DE12000EDE120F0152AB0CD03AC0D9FFE5
:102250003BC0DAFF000EDE12000EDE12040EDE12AC
:10226000000EDE120F0152AD0CD03AC0D9FF3BC0B8
:10227000DAFF000EDE12000EDE12080EDE12000E75
:10228000DE120F0152AF0CD03AC0D9FF3BC0DAFFCB
:10229000000EDE12000EDE12100EDE12000EDE1236
:1022A00051CF3CF03D6A3E6A3F6A150ED8903C36ED
:1022B0003D363E363F36E82EF9D73AC0D9FF3BC00F
:1022C000DAFF3C50DE123D50DE123E50DE123F502F
:1022D000DE120F01509F120060AE12003AC0D9FF0B
:1022E0003BC0DAFFDE6ADE6ADE6ADD6A20EE04F0F9
:1022F0003A50D9263B50DA2266CFDFFF20EE05F0B8
:102300003A50D9263B50DA2267CFDFFF20EE06F0A5
:102310003A50D9263B50DA2268CFDFFF20EE07F093
:102320003A50D9263B50DA2269CFDFFF20EE08F081
:102330003A50D9263B50DA226ACFDFFF20EE09F06F
:102340003A50D9263B50DA226BCFDFFF20EE0AF05D
:102350003A50D9263B50DA226CCFDFFF20EE0BF04B
:102360003A50D9263B50DA226DCFDFFF20EE0EF037
:102370003A50D9263B50DA2265AC02D0010E01D08A
:10238000000EDF6E20EE0DF03A50D9263B50DA22D7
:1023900065500F0BDF6E20EE0CF03A50D9263B5003
:1023A000DA2262A602D0010E01D0000EDF6E62B604
:1023B00043D061CF3CF03D6A3E6A3F6A030ED8903D
:1023C0003C363D363E363F36E82EF9D73AC0D9FF87
:1023D0003BC0DAFF3CC0DEFF3DC0DEFF3EC0DEFF9B
:1023E0003FC0DEFF6238E842070B070B456E3AC07C
:1023F000D9FF3BC0DAFFDECF3CF0DECF3DF0DECFD1
:102400003EF0DECF3FF045503C24406E000E3D20B4
:10241000416E000E3E20426E000E3F20436E3AC0D9
:10242000D9FF3BC0DAFF40C0DEFF41C0DEFF42C043
:10243000DEFF43C0DEFF88D064CF3CF03D6A3E6AD9
:102440003F6A3AC0D9FF3BC0DAFF3CC0DEFF3DC067
:10245000DEFF3EC0DEFF3FC0DEFF63CF3CF03D6AE3
:102460003E6A3F6A3EC03FF03DC03EF03CC03DF09A
:102470003C6A3AC0D9FF3BC0DAFF3C50DE263D50F3
:10248000DE223E50DE223F50DE2262A00CD03AC057
:10249000D9FF3BC0DAFF000EDE12000EDE12010E85
:1024A000DE12000EDE1262A20CD03AC0D9FF3BC091
:1024B000DAFF000EDE12000EDE12020EDE12000E39
:1024C000DE1262AA0CD03AC0D9FF3BC0DAFF000E80
:1024D000DE12000EDE12040EDE12000EDE1262AC00
:1024E0000CD03AC0D9FF3BC0DAFF000EDE12000E5E
:1024F000DE12080EDE12000EDE1262AE0CD03AC002
:10250000D9FF3BC0DAFF000EDE12000EDE12100E05
:10251000DE12000EDE1261CF3CF03D6A3E6A3F6A79
:10252000150ED8903C363D363E363F36E82EF9D76C
:102530003AC0D9FF3BC0DAFF3C50DE123D50DE12FC
:102540003E50DE123F50DE12609E12000001A55187
:10255000800B0001B26F0001A551A5250001B46FE9
:102560000001A4AF02D00001B4810001B451000108
:10257000D8B412D00001B429D8A409D0000E0001AB
:10258000A26F000EA36F000EA46F000EA56F0001D6
:10259000A48F000E000108D0000E0001A26F000EF3
:1025A000A36F000EA46F000EA56F0001A951800B50
:1025B0000001B36F0001B2510001B319D8B402D0C9
:1025C0000001B28D0001A951A9250001B36F0001DE
:1025D000A8AF02D00001B3810001B3510001D8B40B
:1025E00012D00001B329D8A409D0000E0001A66FB3
:1025F000000EA76F000EA86F000EA96F0001A88F34
:10260000000E000108D0000E0001A66F000EA76F9B
:10261000000EA86F000EA96F0001B4510001B35D58
:10262000D8B024D00001B2AD03D0800E0001B21B9F
:10263000B4C0B5F0B3C0B4F0B5C0B3F0A2C0B5F04B
:10264000A6C0A2F0B5C0A6F0A3C0B5F0A7C0A3F085
:10265000B5C0A7F0A4C0B5F0A8C0A4F0B5C0A8F05C
:10266000A5C0B5F0A9C0A5F0B5C0A9F0000E000145
:10267000B56F0001B4510001AA6FAB6B0001AA1F36
:10268000AB1FAA4BAB2B0001B3510001AC6FAD6B7C
:102690000001AA510001AC270001AB510001AD239C
:1026A0000001ADBF3DD00001AD5105E11A0E0001A2
:1026B000AC5DD8A035D00001A2510001A3110001EA
:1026C000A4110001A511D8B402D0010E01D0000E52
:1026D0000001B56F000E0001A26F000EA36F000E87
:1026E000A46F000EA56FB3C0B4F020D00001B5A157
:1026F00007D00001D890B53101090001B56F03D0B2
:102700000001D890B5330001A2A102D00001B58F1D
:102710000001A535A533A433A333A2330001B42BA4
:102720000001B3510001B45DD8A0E0D70001B2BDF3
:102730003FD00001B4510001D8A40AD0000E00011E
:10274000A26F000EA36F000EA46F000EA56F120003
:102750000001A6510001A2270001A7510001A323F7
:102760000001A8510001A4230001A9510001A523E3
:102770000001A5A1CCD00001B5A109D00001D890DD
:10278000B5330001B55101090001B56F03D0000157
:10279000D890B5330001A2A102D00001B58F00018D
:1027A000A535A533A433A333A2330001B42BAFD096
:1027B0000001A6510001A25D0001A7510001A3592B
:1027C0000001A8510001A4590001A551800A00018F
:1027D000AA6F0001A951800A0001AA59D8B050D0AF
:1027E000A2C0AAF0A3C0ABF0A4C0ACF0A5C0ADF0ED
:1027F0000001AA1FAB1FAC1FAD1FAA2B000EAB23FD
:10280000AC23AD230001A6510001AA250001AE6F43
:102810000001A7510001AB210001AF6F0001A851D9
:102820000001AC210001B06F0001A9510001AD21F0
:102830000001B16FFF0E0001AE250001A26FFF0E77
:102840000001AF210001A36FFF0E0001B0210001C4
:10285000A46FFF0E0001B1210001A56F800E0001E1
:10286000B21B0001B56D0001B5510001D8A418D00C
:10287000010E0001A227000EA323A423A52310D03C
:102880000001A6510001A25F0001A7510001A35B56
:102890000001A8510001A45B0001A9510001A55B42
:1028A0000001A2510001A3110001A4110001A51112
:1028B000D8A42AD00001B5510001D8A425D0000E1B
:1028C0000001A26F000EA36F000EA46F000EA56F93
:1028D00012000001D890A237A337A437A537000112
:1028E000B5AF02D00001A2810001B5A103D0D8800C
:1028F000000102D00001D890B5370001B4510001A9
:10290000D8B402D00001B4070001A4AFE2D7000E92
:102910000001B36F0001B5AF0DD0B5C0AAF07F0EB6
:102920000001AA17D8A403D00001A2A103D0010E70
:102930000001B36F0001B3510001D8B426D0010EDD
:102940000001A227000EA323A423A5230001A5A113
:102950001CD0A2C0AAF0A3C0ABF0A4C0ACF0A5C02C
:10296000ADF00001AD35AD33AC33AB33AA33AAC003
:10297000A2F0ABC0A3F0ACC0A4F0ADC0A5F00001C4
:10298000B429D8B402D00001B42B0001B429D8B4C2
:1029900005D00001B4510001D8A411D0000E0001EF
:1029A000A26F000EA36F000EA46F000EA56F0001B2
:1029B000B4510001D8A403D0000E0001B26F000191
:1029C000B4A103D00001A48F02D00001A49F000194
:1029D000D890B4310001A56F0001B2AF02D0000160
:1029E000A58FA2C0A2F0A3C0A3F0A4C0A4F0A5C06C
:1029F000A5F0120000017F51800B0001886F0001DB
:102A00007F517F2500018E6F00017EAF02D0000153
:102A10008E8100018E510001D8B410D000018E29A2
:102A2000D8A409D0000E00017C6F000E7D6F000E4F
:102A30007E6F000E7F6F00017E8F09D0000E0001B7
:102A40007C6F000E7D6F000E7E6F000E7F6F0001A9
:102A50008351800B0001881B0001835183250001F5
:102A6000896F000182AF02D0000189810001895184
:102A70000001D8B410D000018929D8A409D0000ED3
:102A80000001806F000E816F000E826F000E836F59
:102A90000001828F09D0000E0001806F000E816F4F
:102AA000000E826F000E836F000189510001D8B4BF
:102AB00005D000018E510001D8A40AD0000E0001FB
:102AC0007C6F000E7D6F000E7E6F000E7F6F120018
:102AD0000001825100017C03F3CF93F0F4CF94F016
:102AE0000001935100018A6F8B6B8C6B8D6B000121
:102AF000945100018F6F906B916B926B000181512B
:102B000000017D03F3CF93F0F4CF94F000019351D3
:102B100000018A27000E8B238C238D230001945102
:102B200000018F27000E90239123922300018051F2
:102B300000017E03F3CF93F0F4CF94F000019351A2
:102B400000018A27000E8B238C238D2300019451D2
:102B500000018F27000E9023912392238CC08DF0CB
:102B60008BC08CF08AC08BF000018A6B0001805111
:102B700000017D03F3CF93F0F4CF94F00001935163
:102B800000018A270001945100018B23000E0001EF
:102B90008C23000E00018D230001815100017C0374
:102BA000F3CF93F0F4CF94F00001935100018A2702
:102BB0000001945100018B23000E00018C23000EB4
:102BC00000018D238CC08DF08BC08CF08AC08BF0FF
:102BD00000018A6B0001805100017C03F3CF93F068
:102BE000F4CF94F00001935100018A270001945121
:102BF00000018B23000E00018C23000E00018D23A9
:102C00000001825100017D03F3CF93F0F4CF94F0E3
:102C10000001935100018F2700019451000190237E
:102C2000000E00019123000E00019223000181514A
:102C300000017E03F3CF93F0F4CF94F000019351A1
:102C400000018F270001945100019023000E000124
:102C50009123000E000192230001825100017E03A6
:102C6000F3CF93F0F4CF94F0000193510001846FFF
:102C7000000194510001856F0001866B0001876B94
:102C800086C087F085C086F084C085F00001846B23
:102C90000001845100018F2700018551000190231C
:102CA0000001865100019123000187510001922308
:102CB0008AC084F08BC085F08CC086F08DC087F010
:102CC000190E06D00001D8908733863385338433BC
:102CD000E82EF8D70001845100018F2700018551AB
:102CE00000019023000186510001912300018751CA
:102CF000000192238CC08DF08BC08CF08AC08BF0C9
:102D000000018A6B000189518EC084F00001856B3F
:102D100000018427000E8523820E00018425000116
:102D2000936FFF0E000185210001946F15D0000103
:102D3000D8908F3790379137923700018DAF02D0FE
:102D400000018F810001D8908A378B378C378D37FF
:102D500000019307D8A09407000191AFE8D7000EB7
:102D60000001896F00018DAF24D0FF0E00018A158C
:102D70000001846FFF0E00018B150001856FFF0EAF
:102D800000018C150001866F7F0E00018D1500017A
:102D9000876F000184510001851100018611000137
:102DA0008711D8A403D000018FA103D0010E000128
:102DB000896F000189510001D8B423D0010E0001B0
:102DC0008F27000E902391239223000192A119D006
:102DD0008FC084F090C085F091C086F092C087F0DB
:102DE00000018735873386338533843384C08FF081
:102DF00085C090F086C091F087C092F00001934B9F
:102E0000942B000194BF10D00001945104E1000103
:102E10009329D8A009D0000E00018F6F000E906F8B
:102E2000800E916F7F0E2BD0000194BF07D0000160
:102E3000945111E100019305D8B00DD0000E0001AE
:102E40008F6F000E906F000E916F000E926F000E4C
:102E50000001886F15D093C08EF0FF0E00018F1710
:102E6000FF0E90177F0E9117000E921700018EA192
:102E700002D00001918F0001D8908E310001926F35
:102E800000018851000192138FC07CF090C07DF04A
:102E900091C07EF092C07FF01200C6ECA5F0A5ECC8
:102EA000A9F047BA9DD0000E0001EA6F000E0001A4
:102EB000E96F000EE86F5A0E0001EE6F000E000180
:102EC000EC6F010E0001ED6FE8ECA6F086D041EC4E
:102ED000A9F0010EE1ECA4F0BA0E00017F6FFF0E25
:102EE0000001806F0EECA9F0020EE1ECA4F0900E50
:102EF00000017F6FFF0E0001806F0EECA9F0030E42
:102F0000E1ECA4F07B0E00017F6FFF0E0001806FEB
:102F10000EECA9F0040EE1ECA4F0BA0E00017F6FF4
:102F2000FF0E0001806F0EECA9F0D4C019F1D5C0DE
:102F30001AF1D6C01BF1D7C01CF10101191F1A1FCD
:102F40001B1F1C1F192B000E1A231B231C230001FF
:102F5000E0510101192501011D6F0001E15101013D
:102F60001A2101011E6F0001E25101011B21010123
:102F70001F6F0001E35101011C210101206F0101BC
:102F8000205101011F1101011E1105E1320E010145
:102F90001D5DD8A019D0E0C0D4F0E1C0D5F0E2C0EA
:102FA000D6F0E3C0D7F083AE02D0010E01D0000E00
:102FB000FF0A0101196F010119331933835001010F
:102FC00019197F0B1919836EA5ECA9F0010E0001E8
:102FD000756F2C0E746FBAECA8F047AA78D7839E51
:102FE0002EECA8F080A404D0000E0001EB6F0DD0F1
:102FF00080B605D0010E0001EB6F000E04D0020E6A
:103000000001EB6F010E0001EA6FC8C080F0C9C07B
:1030100081F0CAC082F0CBC083F00001E45100010E
:103020006E6F6F6B706B716B000E6BEC9EF06EC011
:103030007CF06FC07DF070C07EF071C07FF0FAEC64
:1030400094F07CC09EF07DC09FF07EC0A0F07FC059
:10305000A1F05BECA4F000019E510001EE6F0001B5
:10306000EB51D8B488D0840E0001E56542D0CCC0C5
:1030700080F0CDC081F0CEC082F0CFC083F07E0E54
:103080000101196FFF0E01011A6F0001E5510101E5
:103090001B6F1C6B0101195101011B2701011A5102
:1030A00001011C231BC16EF01CC16FF00001000E5A
:1030B0006FBFFF0E706F716F010E6BEC9EF06EC0F4
:1030C0007CF06FC07DF070C07EF071C07FF0FAECD4
:1030D00094F07CC09EF07DC09FF07EC0A0F07FC0C9
:1030E000A1F05BECA4F09EC0E8F09FC0E9F0000EF8
:1030F00040D0000E0001E96F000EE86F330E0001B2
:10310000806F330E816FF30E826F3F0E836F00016D
:10311000E5510101196F1A6B0101191F1A1F194B93
:103120001A2B820E01011927000E1A2319C16EF005
:103130001AC16FF00001000E6FBFFF0E706F716F4C
:10314000010E6BEC9EF06EC07CF06FC07DF070C025
:103150007EF071C07FF0FAEC94F07CC09EF07DC0F0
:103160009FF07EC0A0F07FC0A1F05BECA4F0000156
:103170009E510001EC6F47A803D0D4ECA3F0479810
:10318000D8C019F1D9C01AF1DAC01BF1DBC01CF1AB
:103190000101191F1A1F1B1F1C1F192B000E1A23B8
:1031A0001B231C230001E0510101192501011D6FA2
:1031B0000001E15101011A2101011E6F0001E251DC
:1031C00001011B2101011F6F0001E35101011C21BD
:1031D0000101206F0101205101011F1101011E1188
:1031E00005E1020E01011D5DD8A00AD0E0C0D8F0B3
:1031F000E1C0D9F0E2C0DAF0E3C0DBF0E8ECA6F021
:10320000DCC019F1DDC01AF1DEC01BF1DFC01CF11A
:103210000101191F1A1F1B1F1C1F192B000E1A2337
:103220001B231C230001E0510101192501011D6F21
:103230000001E15101011A2101011E6F0001E2515B
:1032400001011B2101011F6F0001E35101011C213C
:103250000101206F0101205101011F1101011E1107
:1032600005E1320E01011D5DD8A019D6E0C0DCF0E9
:10327000E1C0DDF0E2C0DEF0E3C0DFF047ECA3F038
:103280000ED600017151800B00017A6F000171515F
:1032900071250001856F000170AF02D000018581AA
:1032A000000185510001D8B412D000018529D8A4AD
:1032B00009D0000E00016E6F000E6F6F000E706F70
:1032C000000E716F0001708F000E000108D0000E1B
:1032D00000016E6F000E6F6F000E706F000E716F49
:1032E00000017551800B00017A1B00017551752595
:1032F0000001866F000174AF02D0000186810001D9
:1033000086510001D8B412D000018629D8A409D072
:10331000000E0001726F000E736F000E746F000ECE
:10332000756F0001748F000E000108D0000E0001BF
:10333000726F000E736F000E746F000E756F0001D8
:103340007251000173110001741100017511D8A4AC
:1033500017D0000E00016E6F000E6F6F000E706FC1
:10336000000E716F0001800E70137F0E71136EC01E
:103370006EF06FC06FF070C070F071C071F012002D
:10338000000185510001D8A412D0000E00016E6F1B
:10339000000E6F6F000E706F000E716F6EC06EF0DA
:1033A0006FC06FF070C070F071C071F0120000015A
:1033B00086510001766F776B0001761F771F764B81
:1033C000772B000185510001786F796B00017651F0
:1033D0000001782700017751000179237F0E000159
:1033E000782500017F6F000E000179210001806FB8
:1033F0006EC07BF06FC07CF070C07DF071C07EF05D
:10340000000E00016E6F000E6F6F000E706F000EE9
:10341000716F000E0001816F000E826F000E836FCE
:10342000000E846F000E0001866F42D000018651AD
:103430000001D8B417D00001D8907B377C377D3796
:103440007E370001D8906E376F37703771370001C3
:1034500084AF02D000016E810001D890813782379D
:10346000833784370001725100017B5D0001735185
:1034700000017C590001745100017D590001755112
:1034800000017E59D8A012D00001848D0001725134
:1034900000017B5F0001735100017C5B00017451EE
:1034A00000017D5B0001755100017E5B0001862BF0
:1034B000190E00018665BAD700017B5100017C110D
:1034C00000017D1100017E11D8B418D00001818166
:1034D00015D00001D8906E376F3770377137000103
:1034E00084AF02D000016E810001D890813782370D
:1034F0008337843700017F07D8A08007000170AFB1
:10350000E8D7000E0001866F000184AF24D0FF0EC3
:10351000000181150001766FFF0E00018215000188
:10352000776FFF0E000183150001786F7F0E000199
:1035300084150001796F00017651000177110001B7
:10354000781100017911D8A403D000016EA103D035
:10355000010E0001866F000186510001D8B423D00E
:10356000010E00016E27000E6F23702371230001EE
:1035700071A119D06EC076F06FC077F070C078F08E
:1035800071C079F000017935793378337733763348
:1035900076C06EF077C06FF078C070F079C071F0CF
:1035A00000017F4B802B000180BF14D000018051AF
:1035B00004E100017F29D8A00DD0000E0001806F2A
:1035C0007F69000E00016E6F000E6F6F000E706F4E
:1035D000000E716F000180BF07D00001805115E11E
:1035E00000017F05D8B011D0000E0001806F000EE1
:1035F0007F6F000E00016E6F000E6F6F000E706F18
:10360000000E716F000E00017A6F7FC085F000011F
:1036100085A103D00001708F02D00001709F0001CE
:10362000D89085310001716F00017A51000171134A
:103630006EC06EF06FC06FF070C070F071C071F04E
:1036400012000001776F00017705D8A456D0000161
:103650007229D8A452D06EC073F06FC074F070C0DD
:1036600075F071C076F0040E06D00001D890763364
:10367000753374337333E82EF8D773C078F074C0A1
:1036800079F075C07AF076C07BF0000178510001C6
:10369000786F796B7A6B7B6B78C018FF070E00012F
:1036A0006E150001786F000E00016F150001796F33
:1036B000000E0001701500017A6F000E00017115F7
:1036C00000017B6F78C073F079C074F07AC075F038
:1036D0007BC076F0050ED8900001733774377537CC
:1036E0007637E82EF8D773C078F074C079F075C0DB
:1036F0007AF076C07BF078C019FF020E00017719CE
:10370000D8A456D000017229D8A452D06EC073F04C
:103710006FC074F070C075F071C076F0040E06D002
:103720000001D8907633753374337333E82EF8D7AD
:1037300073C078F074C079F075C07AF076C07BF011
:10374000000178510001786F796B7A6B7B6B78C0E0
:103750001CFF070E00016E150001786F000E0001BE
:103760006F150001796F000E0001701500017A6F6E
:10377000000E0001711500017B6F78C073F079C0F5
:1037800074F07AC075F07BC076F0050ED890000119
:103790007337743775377637E82EF8D773C078F0FB
:1037A00074C079F075C07AF076C07BF078C01DFFE8
:1037B00000017705D8A487D0F70E00017219D8A4AC
:1037C00082D000016E510001786F796B7A6B7B6B50
:1037D00078C01BFF000E00016E150001786FFF0E10
:1037E00000016F150001796F000E000170150001D6
:1037F0007A6F000E0001711500017B6F78C073F0C5
:1038000079C074F07AC075F07BC076F074C073F044
:1038100075C074F076C075F00001766B73C078F0F7
:1038200074C079F075C07AF076C07BF078C01AFF6A
:10383000000170A103D00F01198102D00F0119916D
:10384000000170A303D00F01198302D00F01199357
:10385000000170A503D00F01198B02D00F01199B35
:10386000000170A703D00F01198D02D00F01199D1F
:10387000000170A903D00F01198F02D00F01199F09
:103880006EC073F06FC074F070C075F071C076F0E8
:10389000160E06D00001D890763375337433733327
:1038A000E82EF8D773C078F074C079F075C07AF05C
:1038B00076C07BF0000178510001786F796B7A6BEC
:1038C0007B6B78C018FF020E00017719D8A4120094
:1038D000F70E00017219D8A4120000016E51000108
:1038E000786F796B7A6B7B6B78C01FFF000E0001DD
:1038F0006E150001786FFF0E00016F150001796FE2
:10390000000E0001701500017A6F000E00017115A4
:1039100000017B6F78C073F079C074F07AC075F0E5
:103920007BC076F074C073F075C074F076C075F02B
:103930000001766B73C078F074C079F075C07AF0CE
:1039400076C07BF078C01EFF000170A103D00F018C
:103950001D8102D00F011D91000170A303D00F0142
:103960001D8302D00F011D93000170A503D00F012C
:103970001D8B02D00F011D9B000170A703D00F010A
:103980001D8D02D00F011D9D000170A903D00F01F4
:103990001D8F02D00F011D9F6EC073F06FC074F0B9
:1039A00070C075F071C076F0160E06D00001D89088
:1039B0007633753374337333E82EF8D773C078F0E9
:1039C00074C079F075C07AF076C07BF00001785150
:1039D0000001786F796B7A6B7B6B78C01CFF1200EB
:1039E0000001A16F6D0E0001A165CDD0000E000198
:1039F000776F0A0E766F000E0001716F640E706FA4
:103A0000A1C06EF000016F6B45ECA7F06EC074F0C2
:103A10006FC075F02BECA6F00001D89074377537A5
:103A20000001D89074377537240E00017427000EFA
:103A300000017523EB0E00017425F66EFE0E0001E9
:103A40007521F76EF86A000EF8220900F5CF80F0B4
:103A50000900F5CF81F00900F5CF82F00A00F5CF1B
:103A600083F0000E0001776F640E766FA1C074F0D2
:103A70000001756B2BECA6F00001D89074377537F8
:103A80000001D89074377537480E00017427000E76
:103A900000017523EB0E00017425F66EFE0E000189
:103AA0007521F76EF86A000EF8220900F5CF7CF058
:103AB0000900F5CF7DF00900F5CF7EF00A00F5CFC3
:103AC0007FF0FAEC94F07CC09DF07DC09EF07EC04B
:103AD0009FF07FC0A0F0000E0001716F0A0E706FA2
:103AE000A1C06EF000016F6B45ECA7F00001D8900B
:103AF0006E376F370001D8906E376F37EB0E0001CD
:103B00006E25F66EFE0E00016F21F76EF86A000E4C
:103B1000F8220900F5CF80F00900F5CF81F0090007
:103B2000F5CF82F00A00F5CF83F09DC07CF09EC0F7
:103B30007DF09FC07EF0A0C07FF0FAEC94F07CC0D6
:103B400099F07DC09AF07EC09BF07FC09CF099C038
:103B50007CF09AC07DF09BC07EF09CC07FF0000E90
:103B60000001806F000E816F000E826F3F0E836F29
:103B7000FAEC94F07CC095F07DC096F07EC097F092
:103B80007FC098F012000A0E0001A16578D0000EE7
:103B90000001716F0A0E706FA1C06EF000016F6BB3
:103BA00045ECA7F00001D8906E376F370001D89030
:103BB0006E376F37EB0E00016E25F66EFE0E0001BC
:103BC0006F21F76EF86A000EF8220900F5CF80F039
:103BD0000900F5CF81F00900F5CF82F00A00F5CF9A
:103BE00083F0000E0001776F0A0E766FA1C074F0AB
:103BF0000001756B2BECA6F00001D8907437753777
:103C00000001D89074377537240E00017427000E18
:103C100000017523EB0E00017425F66EFE0E000107
:103C20007521F76EF86A000EF8220900F5CF7CF0D6
:103C30000900F5CF7DF00900F5CF7EF00A00F5CF41
:103C40007FF0FAEC94F07CC09DF07DC09EF07EC0C9
:103C50009FF07FC0A0F09DC07CF09EC07DF09FC013
:103C60007EF0A0C07FF0000E0001806F000E816F1B
:103C7000000E826F3F0E836FFAEC94F07BD7000149
:103C8000A151040DEB0EF324F66EFE0EF420F76E38
:103C9000F86A000EF8220900F5CF7CF00900F5CF94
:103CA0007DF00900F5CF7EF00A00F5CF7FF0000E21
:103CB0000001806F000E816F000E826F3F0E836FD8
:103CC000FAEC94F07CC095F07DC096F07EC097F041
:103CD0007FC098F012000001766F0001765100015C
:103CE000D8B41ED0000171AF1BD06EC072F06FC08F
:103CF00073F070C074F071C075F00001721F731F13
:103D0000741F751F722B000E73237423752372C0EA
:103D100078F073C079F074C07AF075C07BF008D089
:103D20006EC078F06FC079F070C07AF071C07BF02F
:103D300000016E5100016F1100017011000171113D
:103D4000D8A40AD0000E00016E6F000E6F6F000E37
:103D5000706F000E716F1200960E0001776F08D021
:103D60000001772B0001D8907B337A337933783395
:103D7000000E000178150001726F000E0001791528
:103D80000001736F000E00017A150001746FFE0EC2
:103D900000017B150001756F000172510001731164
:103DA0000001741100017511D8B410D0D9D70001E9
:103DB000772B010E00017827000E79237A237B23CD
:103DC0000001D8907B337A3379337833000E0001C9
:103DD00078150001726F000E000179150001736FF4
:103DE000000E00017A150001746FFF0E00017B15B3
:103DF0000001756F0001725100017311000174110F
:103E000000017511D8B409D0D2D70001770700019D
:103E1000D890783779377A377B3700017ABF04D06A
:103E2000020E00017761F1D7000177B109D0FF0ED2
:103E300000017817FF0E79177F0E7A17FF0E7B1798
:103E40000001D890773377C072F00001736B746B08
:103E5000756B72C075F00001746B736B726B00014F
:103E600072510001781300017351000179130001B0
:103E7000745100017A130001755100017B13000198
:103E800076510001D8B405D0000171AF02D0000115
:103E90007B8F78C06EF079C06FF07AC070F07BC015
:103EA00071F012000001856F800EB3ECA9F0000ED6
:103EB000706E000E716E000E726E00017E41E8425F
:103EC000C00B00017E6F00017E51701200017F5116
:103ED000701200018551711200017C39E842F80B23
:103EE00000017C6F00017C517112000180A5718C72
:103EF000000180B1718E00017D517212000180B30A
:103F0000728C00018051600B606E00018051100BBB
:103F1000FF0AD8B4608460CF50FF000E00016E6FBE
:103F2000000E6F6F000E706F000E716FF70E0001C4
:103F3000726F010E21EC9BF0000E00016E6F000EFF
:103F40006F6F000E706F000E716FF70E0001726FD1
:103F5000020E21EC9BF00FD0F70E0001866F07D008
:103F6000000186690001876928D000018669F70E83
:103F70000001876F22D09F0E0001816FFF0E0001AC
:103F8000826F00018051600B0001836F846B000120
:103F9000815100018313000182510001841300014B
:103FA0008451000AD8A4E1D700018351BF0AD8B4D4
:103FB000D7D7600AD8B4D0D7D8D7000E00016E6F1B
:103FC000000E6F6F000E706F000E716F86C072F082
:103FD000000E00EC80F0000E00016E6F000E6F6F9F
:103FE000000E706F000E716F86C072F0010E00EC53
:103FF00080F0000E00016E6F000E6F6F000E706F8C
:10400000000E716F87C072F0020E00EC80F0000E9F
:1040100000016E6F000E6F6F000E706F000E716FFB
:1040200087C072F0030E00EC80F0000E00016E6F8E
:10403000000E6F6F000E706F000E716F87C072F010
:10404000040E00EC80F0000E00016E6F000E6F6F2A
:10405000000E706F000E716F87C072F0050E00ECDD
:1040600080F0000EB3ECA9F0120070C076F00001F1
:10407000776B786B00016F350001763701E377814C
:104080000001765100017E6F00017E51D8A40AD054
:10409000000E00016E6F000E6F6F000E706F000E4D
:1040A000716F120074C076F00001776B786B0001BD
:1040B00073350001763701E3778100017651000105
:1040C0007D6F00017D51D8A40AD0000E00016E6FF3
:1040D000000E6F6F000E706F000E716F1200000106
:1040E0006F8FFF0E00016E17FF0E00016F17000E9D
:1040F000000170170001738FFF0E00017217FF0E91
:1041000000017317000E00017417000E0001796F93
:10411000000E7A6F000E7B6F000E7C6F7F0E000129
:104120007E5F00017D51980F00017E5F180E000137
:104130007D6F0001D89079377A377B377C37000163
:10414000725100016E5D0001735100016F59000151
:10415000745100017059D8A00ED0000172510001B5
:104160006E5F0001735100016F5B0001745100012B
:10417000705B000179810001D8906E376F3770371E
:1041800000017D2FD6D700017EAF1AD000017E51ED
:10419000800A970FD8B00AD0000E00016E6F000E93
:1041A0006F6F000E706F000E716F12000001D890DB
:1041B0007C337B337A33793300017E3FF7D71BD0D2
:1041C000170E00017E6512D0000E00016E6F000E0A
:1041D0006F6F000E706F000E716F12000001D890AB
:1041E00079377A377B377C3700017E0700017E51B3
:1041F0000001D8A4F3D779C06EF07AC06FF07BC00D
:1042000070F07CC071F01200000E00016E1500010C
:10421000766F000E00016F150001776F800E0001B0
:1042200070150001786F7F0E000171150001796F24
:104230000001765100017711000178110001791118
:10424000D8A409D0000E00016E6F000E6F6F000E33
:10425000706F000E716F000E000172150001766F15
:10426000000E000173150001776F800E00017415B8
:104270000001786F7F0E000175150001796F000154
:104280007651000177110001781100017911D8A44D
:1042900009D0000E0001726F000E736F000E746F74
:1042A000000E756F000171AF26D06EC076F06FC042
:1042B00077F070C078F071C079F00001761F771F39
:1042C000781F791F762B000E772378237923000E31
:1042D0000001762500016E6F000E000177210001BC
:1042E0006F6F000E000178210001706F800E0001D9
:1042F00079210001716F000175AF26D072C076F090
:1043000073C077F074C078F075C079F00001761F43
:10431000771F781F791F762B000E77237823792358
:10432000000E000176250001726F000E000177215A
:104330000001736F000E000178210001746F800E80
:10434000000179210001756F000E00016E1B000E47
:104350006F1B000E701B800E711B000E0001721B84
:10436000000E731B000E741B800E751B0001725132
:1043700000016E5D0001735100016F59000174511D
:10438000000170590001755100017159D8B002D077
:10439000D8901200D88012000001703571350001EC
:1043A0007B6F00017B51D8A40AD0000E00016E6F14
:1043B000000E6F6F000E706F000E716F1200000123
:1043C0007435753500017A6F00017A51D8A40AD08E
:1043D000000E00016E6F000E6F6F000E706F000E0A
:1043E000716F12000001708FFF0E00016E17FF0E3B
:1043F0006F17FF0E7017000E71170001748FFF0EFC
:1044000000017217FF0E7317FF0E7417000E751759
:10441000000E0001766F000E776F000E786F000EB1
:10442000796F7F0E00017B5F00017A51A00F0001C0
:104430007B5F200E00017A6F0001D89076377737C6
:10444000783779370001725100016E5D00017351B8
:1044500000016F590001745100017059000175513C
:1044600000017159D8A012D00001725100016E5F95
:104470000001735100016F5B000174510001705B1A
:10448000000175510001715B000176810001D89037
:104490006E376F377037713700017A2FCDD7000133
:1044A0007BAF1AD000017B51800A9F0FD8B00AD091
:1044B000000E00016E6F000E6F6F000E706F000E29
:1044C000716F12000001D8907933783377337633E7
:1044D00000017B3FF7D71BD01F0E00017B6512D078
:1044E000000E00016E6F000E6F6F000E706F000EF9
:1044F000716F12000001D8907637773778377937A7
:1045000000017B0700017B510001D8A4F3D776C0DE
:104510006EF077C06FF078C070F079C071F0120063
:1045200000017C6F00017C51D2ECA9F08A928A963E
:104530008A94000E0001756F640E746FBAECA8F0D7
:10454000000E0001766F010E0001776F010E000171
:10455000786F000E9DECA8F0000E0001756F640EE0
:10456000746FBAECA8F0000E0001766F010E000126
:10457000776F010E0001786F000E9DECA8F0000E21
:104580000001756F0A0E746FBAECA8F0000E0001FE
:10459000766F010E0001776F010E0001786F000E3B
:1045A0009DECA8F0000E0001766F010E0001776F00
:1045B000000E0001786F000E9DECA8F0000E0001C7
:1045C000766F010E0001776F000E0001786F000E0C
:1045D0009DECA8F0000E0001766F000E0001776FD1
:1045E000000E0001786F010E9DECA8F0000E000196
:1045F000766F000E0001776F000E0001786F000EDD
:104600009DECA8F0000E0001766F000E0001776FA0
:10461000000E0001786F010E9DECA8F0000E000165
:10462000766F000E0001776F000E0001786F000EAC
:104630009DECA8F0000E0001766F000E0001776F70
:10464000010E0001786F000E9DECA8F0000E000135
:10465000766F000E0001776F000E0001786F000E7C
:104660009DECA8F0010E0001766F010E0001776F3E
:10467000000E0001786F000E9DECA8F041ECA9F04F
:10468000000E00017A6F000E28ECA9F0120007C09E
:104690006EF008C06FF009C070F00AC071F0000E33
:1046A0000001726F000E736F8B0E746F430E756F87
:1046B00041EC99F06EC0D0F06FC0D1F070C0D2F074
:1046C00071C0D3F041ECA9F0010EE1ECA4F0A50E0D
:1046D00000017F6FFF0E0001806F0EECA9F0020E4B
:1046E000E1ECA4F0CF0E00017F6FFF0E0001806FA0
:1046F0000EECA9F00001EB51D8B416D00001EA513C
:10470000D8A409D0F90E00017F6FFF0E0001806F61
:104710000EECA9F011D0EF0E00017F6FFF0E00012B
:10472000806F0EECA9F008D0FD0E00017F6FFF0E28
:104730000001806F0EECA9F0030EE1ECA4F0210E55
:104740000001BE6F010E0001BF6FDB0E0001C06FE4
:10475000FF0E0001C16FD0C0C2F0D1C0C3F0D2C003
:10476000C4F0D3C0C5F083EC85F0000E01012C6FBE
:10477000210E00017F6F010E0001806F6FECA9F028
:10478000F40E00017F6FFF0E0001806F0EECA9F0A8
:10479000040EE1ECA4F0BA0E00017F6FFF0E0001E1
:1047A000806F0EECA9F01200020E0B180C100D1009
:1047B0000E10D8A437D047A42AD0E0C00FF0E1C033
:1047C00010F0E2C011F0E3C012F0030E286E82EC8C
:1047D000A9F0E806D8A4FBD7020E00016E6F000E08
:1047E0006F6F000E706F000E716F280E0001726FF8
:1047F000000E0001736F080E0001746FBC0E000103
:10480000756FCDEC89F04782479047960BD028040E
:10481000D8A402D04780829A020E2818D8A402D0C9
:1048200047868298060E0B180C100D100E10D8B487
:1048300047B437D029C013F0146A135000017E6FBB
:104840002850136E7EC014F02BC015F0166A155058
:1048500000017E6F2A50156E7EC016F0135015248D
:1048600000017E6F1450162000017F6FD890000168
:104870007F310001816F00017E310001806F80C0B7
:104880006EF081C06FF00001706B716B000E6BEC0D
:104890009EF06EC007F06FC008F070C009F071C0E4
:1048A0000AF0090E0B180C100D100E10D8A41200EF
:1048B00028C017F012000001A035A1350001A76F34
:1048C0000001A751D8A40AD0000E00019E6F000E6F
:1048D0009F6F000EA06F000EA16F12009EC0A2F08D
:1048E0009FC0A3F0A0C0A4F0A1C0A5F0200E06D0E8
:1048F0000001D890A533A433A333A233E82EF8D710
:104900000001A2510001A66F0001A08FFF0E00015F
:104910009E17FF0E9F17FF0EA017000EA117960EF1
:104920000001A75F0001A7AF1AD00001A751800ABC
:10493000970FD8B00AD0000E00019E6F000E9F6F37
:10494000000EA06F000EA16F12000001D890A133DD
:10495000A0339F339E330001A73FF7D71BD01F0E14
:104960000001A76512D0000E00019E6F000E9F6F20
:10497000000EA06F000EA16F12000001D8909E37AC
:104980009F37A037A1370001A7070001A7510001F9
:10499000D8A4F3D70001A6510001D8B409D0000172
:1049A000A11FA01F9F1F9E6D000E9F23A023A12368
:1049B0009EC09EF09FC09FF0A0C0A0F0A1C0A1F03B
:1049C000120000017A6F64D0000E0001766F000EB5
:1049D0000001776F000E0001786F010E9DECA8F0CA
:1049E000000E0001766F000E0001776F000E0001CF
:1049F000786F000E9DECA8F01200010E0001766F9A
:104A0000000E0001776F000E0001786F010E9DEC23
:104A1000A8F0000E0001766F000E0001776F000E07
:104A20000001786F000E9DECA8F01200000E00014E
:104A3000766F000E0001776F010E0001786F010E96
:104A40009DECA8F0010E0001766F000E0001776F5B
:104A5000000E0001786F000E9DECA8F01200010E10
:104A60000001766F000E0001776F010E0001786F74
:104A7000010E9DECA8F0010E0001766F000E000102
:104A8000776F000E0001786F000E9DECA8F0120009
:104A900000017A51010AD8B497D7030AD8B4ADD728
:104AA000010AD8B4C3D7070AD8A41200D8D7E9CFCF
:104AB00062F0EACF63F0E1CF64F0E2CF65F0D9CFE6
:104AC00066F0DACF67F0F3CF68F0F4CF69F0F6CF95
:104AD0006AF0F7CF6BF0F8CF6CF0F5CF6DF0A4A2D1
:104AE000A4B001D035D0BEECA9F00009D8B42ED0C6
:104AF000190E3A6E000E3B6E20EC90F027A002D00B
:104B0000478401D0479419C00BF01AC00CF01BC0A9
:104B10000DF01CC00EF04788000E466E070E46646E
:104B200001D014D04650010D1D0EF324D96E000E95
:104B3000F420DA6E4650010D280EF324E16E000ECB
:104B4000F420E26EDFCFE7FF462AE8D7A492A490D4
:104B50006DC0F5FF6CC0F8FF6BC0F7FF6AC0F6FFD1
:104B600069C0F4FF68C0F3FF67C0DAFF66C0D9FF11
:104B700065C0E2FF64C0E1FF63C0EAFF62C0E9FF15
:104B800061C0FBFF60C0FAFF48921100000E896E01
:104B90000F0E926E000E8A6EFB0E936E000E8B6EE1
:104BA000B00E946E000E8C6E000E956E000E8D6E23
:104BB000000E966E060E00017C6F050E00017D6FE3
:104BC000010E00017E6F030E00017F6F9D0E00013C
:104BD000806F040E52EC9FF0A192A492A490D08E0C
:104BE000A582A580A2920D0EC16EC298C296C294F3
:104BF000C08AC088C096C084C092C080C09EC28057
:104C0000100E90ECA2F0000EC9ECA9F041ECA9F056
:104C1000010EE1ECA4F0E70E00017F6FFF0E000132
:104C2000806F0EECA9F0010E0001756F2C0E746FF1
:104C3000BAECA8F083948396630EB36EC00EB26E86
:104C4000A382A380A082AB9E010EB16E41ECA9F0BD
:104C5000F28EF28C1200000E0001796F000177AF26
:104C600008D00001766D771FD8B0772B010E0001B8
:104C7000796F000175AF08D00001746D751FD8B051
:104C8000752B010E0001791B000E00017B6F000ED9
:104C90007A6F0001765100017711D8B42CD0010E43
:104CA0000001786F06D00001D89076377737000181
:104CB000782B000177AFF7D70001D8907A377B3790
:104CC000000176510001745D0001775100017559B2
:104CD000D8A00AD0000176510001745F000177511D
:104CE0000001755B00017A810001D890773376333B
:104CF0000001782FE1D7000179510001D8B405D027
:104D000000017A6D7B1FD8B07B2B7AC074F07BC01A
:104D100075F01200000E0001766F000E776F000E26
:104D2000786F000E796F000172510001731100015C
:104D3000741100017511D8B442D0010E00017A6FD0
:104D400008D00001D8907237733774377537000177
:104D50007A2B000175AFF5D70001D89076377737F9
:104D6000783779370001725100016E5D000173518F
:104D700000016F5900017451000170590001755113
:104D800000017159D8A012D00001725100016E5F6C
:104D90000001735100016F5B000174510001705BF1
:104DA000000175510001715B000176810001D8900E
:104DB000753374337333723300017A2FCDD776C0D5
:104DC0006EF077C06FF078C070F079C071F01200AB
:104DD00082ECA9F00009D8B4FBD7050E00016E6F74
:104DE000000E6F6F000E706F000E716FEE0E0001FF
:104DF000726F000E0001736F080E0001746FBC0E1D
:104E00000001756FCDEC89F0E8C0EDF00001E951CB
:104E10000001EE6FEAC0EFF082ECA9F00009D8B40F
:104E2000FBD7030E00016E6F000E6F6F000E706FE8
:104E3000000E716FED0E0001726F000E0001736FB6
:104E4000080E0001746FBC0E0001756FCDEC89F087
:104E500082ECA9F00009D8B4FBD7040E00016E6FF4
:104E6000000E6F6F000E706F000E716FEC0E000180
:104E7000726F000E0001736F080E0001746FBC0E9C
:104E80000001756FCDEC89F01200000E0001736F08
:104E900000016FAF08D000016E6D6F1FD8B06F2B8F
:104EA000010E0001736F000171AF05D00001706D3C
:104EB000711FD8B0712B0001705100017111D8B46D
:104EC00026D0010E0001726F06D00001D890703715
:104ED00071370001722B000171AFF7D700017051DB
:104EE00000016E5D0001715100016F59D8A008D01A
:104EF0000001705100016E5F0001715100016F5B94
:104F00000001D890713370330001722FE7D7000190
:104F100073510001D8B405D000016E6D6F1FD8B079
:104F20006F2B6EC06EF06FC06FF0120000017251F7
:104F3000000173110001741100017511D8B43AD049
:104F4000010E0001766F08D00001D89072377337D8
:104F5000743775370001762B000175AFF5D7000166
:104F6000725100016E5D0001735100016F59000123
:104F70007451000170590001755100017159D8A098
:104F800010D00001725100016E5F000173510001E9
:104F90006F5B000174510001705B000175510001ED
:104FA000715B0001D8907533743373337233000131
:104FB000762FD5D76EC06EF06FC06FF070C070F0F6
:104FC00071C071F0120000017E6F8A8200017E457F
:104FD000010B00017A6F00017E45E846030B010BCF
:104FE00000017B6F00017E39E842070B010B0001D5
:104FF0007C6F00017E390F0B010B00017D6F7BC0C0
:1050000076F07CC077F07DC078F000017A519DEC9D
:10501000A8F000017E39E8461F0B010B00017A6FF2
:1050200000017E41E8423F0B010B00017B6F000154
:10503000D8907E31010B00017C6F00017E51010B85
:1050400000017D6F7BC076F07CC077F07DC078F08A
:1050500000017A519DECA8F08A921200000E000126
:105060006F6F010E00016F6501D01200C282C2B2E3
:10507000FED700016F51010DE40EF324D96E000E2E
:10508000F420DA6EC4CFDFFFC2A402D0010E01D03B
:10509000000EFF0A00016E6F00016E476E47C2509E
:1050A00000016E19FB0B6E19C26E00016F2BD9D770
:1050B000000E0001BA1B000EBB1B000EBC1B800EB5
:1050C000BD1BB6C0A2F0B7C0A3F0B8C0A4F0B9C071
:1050D000A5F0BAC0A6F0BBC0A7F0BCC0A8F0BDC088
:1050E000A9F0A6EC92F0A2C0B6F0A3C0B7F0A4C09D
:1050F000B8F0A5C0B9F0120001EE21F00C0EEE6A76
:10510000E806FDE100EEC8F0270EEE6AE806FDE1D4
:10511000476A00EE01F0280EEE6AE806FDE1AE0EE9
:10512000F66E530EF76E010EF86E0900F5CFEFF034
:105130004890489200014DEF97F00001796F00010F
:1051400078B102D08A9801D08A88000177B102D064
:105150008A9A01D08A8A000176B102D08A9C01D055
:105160008A8C000179B102D08A9E01D08A8E94EC9B
:10517000A9F01200EFC06EF000016F6B74C070F008
:1051800075C071F0F3ECA8F06EC0E6F06FC0E7F008
:1051900007D0500EE82EFED70001E607D8A0E7079B
:1051A0000001E6510001E711D8B41200F2D7000166
:1051B0006E5100016F110001701100017111D8B41E
:1051C00009D0000E00016E1B000E6F1B000E701B3D
:1051D000800E711B6EC06EF06FC06FF070C070F00B
:1051E00071C071F0120000016E5100017003F3CF25
:1051F00072F0F4CF73F000016E5100017103F350AF
:105200000001732700016F5100017003F35000018A
:10521000732772C06EF073C06FF012000DD07FC0A4
:10522000F6FF80C0F7FF000EF86E0800F550E3ECC3
:10523000A7F000017F4B802B7FC0F6FF80C0F7FFF7
:10524000000EF86E0800F5500009D8B41200E7D738
:1052500000017B6F000E0001766F000E0001776F7A
:10526000000E0001786F000E9DECA8F0010E000109
:10527000766F7BC077F07AC078F0010E9DECA8F0D5
:105280001200000E0001766F000E0001776F000E15
:105290000001786F000E9DECA8F0000E0001766F03
:1052A000000E0001776F010E0001786F000E9DEC7B
:1052B000A8F012000001706F000E00016F6F3A0E2F
:1052C0000001706107D02F0E0001706503D0010E40
:1052D00000016F6F6FC06EF000016E3112000AD0D6
:1052E0007FC0D9FF80C0DAFFDF50E3ECA7F00001F8
:1052F0007F4B802B7FC0D9FF80C0DAFFDF50D8B44E
:105300001200EED7010E00016E6F0F0140A709D009
:105310000F0130A706D00F0120A703D0000E000117
:105320006E6F00016E5112008A86000E0001756FCB
:10533000010E746FBAECA8F08A96000E0001756F2A
:10534000010E746FBAECA8F0120081AA02D047BC1B
:105350001200479C81AA120047BA02D0478A01D0A6
:10536000479A478C120000016E6F6EC06FFF6E503F
:10537000E00B00016E19D8B41200F9D7010E3A6E95
:1053800060BE05D00F0150BF02D0000E3A6E3A50F9
:10539000120000016E6F00016EB102D08B9401D03B
:1053A0008B84120000016E6F6EC0EFF012001400CB
:020000040020DA
:08000000FFFFFFFFFFFFFFFF00
:020000040030CA
:0E000000FF021F1EFF8281FF3FC03FE03F4016
:00000001FF
