:040000005FEF00F0BE
:10000800FACF62F0FBCF63F0E9CF64F06DEF9DF0BB
:10001800D8CF29F0E8CF2AF0E0CF2BF0FACF2CF098
:10002800FBCF2DF0E9CF2EF0EACF2FF0E1CF30F063
:10003800E2CF31F0D9CF32F0DACF33F0F3CF34F06A
:10004800F4CF35F0F6CF36F0F7CF37F0F8CF38F0F9
:10005800F5CF39F0A1A20CD0010E0D26000E0E220C
:100068000F221022630EB36EC00EB26EA19200D0A2
:1000780039C0F5FF38C0F8FF37C0F7FF36C0F6FFC4
:1000880035C0F4FF34C0F3FF33C0DAFF32C0D9FF04
:1000980031C0E2FF30C0E1FF2FC0EAFF2EC0E9FF08
:1000A8002DC0FBFF2CC0FAFF2BC0E0FF2AC0E8FFE1
:0A00B80029C0D8FF1000B8EFADF02A
:10FD9E00000000803FCDCCCC3D0AD7233C6F1283B0
:10FDAE003A17B7D138ACC52737BD37863595BFD68C
:10FDBE003377CC2B325F708930FFE6DB2E08E53CC3
:10FDCE001E6042A20D0000803F000020410000C8CE
:10FDDE004200007A4400401C460050C34700247481
:10FDEE00498096184B20BCBE4C286B6E4EF90215FE
:10FDFE0050EC78AD60CAF24971010000000A0000B3
:10FE0E000064000000E803000010270000A0860137
:10FE1E000040420F008096980000E1F50500CA9A56
:10FE2E003B202020202020204641494C45442120C3
:10FE3E002020202020002020202020434F4D504CF9
:10FE4E0045544544212020202020002020202053EE
:10FE5E0055434345535346554C4C592020202000C2
:10FE6E002020207374617274207061726B696E67EA
:10FE7E002020202000202050726573732074686546
:10FE8E0020627574746F6E202000202020647565CA
:10FE9E0020746F20616E206572726F7220200020B8
:10FEAE00756E74696C206E657874206D6573736100
:10FEBE006765200050726573732074686520425523
:10FECE0054544F4E20746F2000205061726B696E37
:10FEDE00672070726F6365647572657320002D20E4
:10FEEE0044697374616E63652052454143484544CD
:10FEFE00202D002D3E20204B454550204D4F56497C
:10FF0E004E472020203C2D003D20202020506172A5
:10FF1E006B696E6720696E202020203D003D2020F9
:10FF2E00202070726F67726573732E2E2E20202024
:10FF3E003D003D205041524B494E47204D455353B5
:10FF4E0041474553203D003D3D3E205645484943DF
:10FF5E004C4520204F4646203C3D3D003D3D3D203A
:10FF6E0056454849434C452044415441203D3D3D72
:10FF7E00003D3D3D3D3D3D3D3D3D3D3D3D3D3D3DE0
:10FF8E003D3D3D3D3D00205061726B696E672073B3
:10FF9E007061636520464F554E440053706565642D
:10FFAE003A20302E3030204B6D2F68005061726B2E
:10FFBE00206173736973743A2000446972656374C7
:10FFCE00696F6E3A20004F46462020202000534590
:10FFDE00415243482000446174613A200050202071
:10FFEE0020004657442000424B574400252E3266CF
:02FFFE00000001
:020000040001F9
:100000000001796F000179510001D8A459D0000195
:100010007429D8A455D00F01019770C075F071C034
:1000200076F072C077F073C078F0040E06D000014D
:10003000D8907833773376337533E82EF8D775C098
:100040007AF076C07BF077C07CF078C07DF000015C
:100050007A5100017A6F7B6B7C6B7D6B7AC000FFFD
:10006000070E0001701500017A6F000E0001711576
:1000700000017B6F000E0001721500017C6F000E05
:100080000001731500017D6F7AC075F07BC076F0BA
:100090007CC077F07DC078F0050ED89000017537F0
:1000A000763777377837E82EF8D775C07AF076C08C
:1000B0007BF077C07CF078C07DF07AC001FF00D083
:1000C00000017905D8A459D000017429D8A455D0CD
:1000D0000F01059770C075F071C076F072C077F0AF
:1000E00073C078F0040E06D00001D89078337733CF
:1000F00076337533E82EF8D775C07AF076C07BF08A
:1001000077C07CF078C07DF000017A5100017A6FF1
:100110007B6B7C6B7D6B7AC004FF070E0001701552
:1001200000017A6F000E0001711500017B6F000E57
:100130000001721500017C6F000E000173150001B3
:100140007D6F7AC075F07BC076F07CC077F07DC0A3
:1001500078F0050ED8900001753776377737783705
:10016000E82EF8D775C07AF076C07BF077C07CF0C7
:1001700078C07DF07AC005FF00D0020E0001791929
:10018000D8A459D000017429D8A455D00F010997DB
:1001900070C075F071C076F072C077F073C078F0FF
:1001A000040E06D00001D890783377337633753358
:1001B000E82EF8D775C07AF076C07BF077C07CF077
:1001C00078C07DF000017A5100017A6F7B6B7C6B07
:1001D0007D6B7AC008FF070E0001701500017A6F71
:1001E000000E0001711500017B6F000E00017215F9
:1001F00000017C6F000E0001731500017D6F7AC055
:1002000075F07BC076F07CC077F07DC078F0050E8D
:10021000D89000017537763777377837E82EF8D7DA
:1002200075C07AF076C07BF077C07CF078C07DF046
:100230007AC009FF00D0030E00017919D8A459D063
:1002400000017429D8A455D00F010D9770C075F026
:1002500071C076F072C077F073C078F0040E06D0EB
:100260000001D8907833773376337533E82EF8D79A
:1002700075C07AF076C07BF077C07CF078C07DF0F6
:1002800000017A5100017A6F7B6B7C6B7D6B7AC0C9
:100290000CFF070E0001701500017A6F000E0001BF
:1002A000711500017B6F000E0001721500017C6F5B
:1002B000000E0001731500017D6F7AC075F07BC0E0
:1002C00076F07CC077F07DC078F0050ED890000104
:1002D0007537763777377837E82EF8D775C07AF0E4
:1002E00076C07BF077C07CF078C07DF07AC00DFFDF
:1002F00000D0040E00017919D8A459D00001742946
:10030000D8A455D00F01119770C075F071C076F068
:1003100072C077F073C078F0040E06D00001D89058
:100320007833773376337533E82EF8D775C07AF0A3
:1003300076C07BF077C07CF078C07DF000017A5108
:1003400000017A6F7B6B7C6B7D6B7AC010FF070EB0
:100350000001701500017A6F000E00017115000197
:100360007B6F000E0001721500017C6F000E000112
:10037000731500017D6F7AC075F07BC076F07CC08C
:1003800077F07DC078F0050ED8900001753776378C
:1003900077377837E82EF8D775C07AF076C07BF0DB
:1003A00077C07CF078C07DF07AC011FF00D0050ED8
:1003B00000017919D8A459D000017429D8A455D0C6
:1003C0000F01159770C075F071C076F072C077F0AC
:1003D00073C078F0040E06D00001D89078337733DC
:1003E00076337533E82EF8D775C07AF076C07BF097
:1003F00077C07CF078C07DF000017A5100017A6FFF
:100400007B6B7C6B7D6B7AC014FF070E000170154F
:1004100000017A6F000E0001711500017B6F000E64
:100420000001721500017C6F000E000173150001C0
:100430007D6F7AC075F07BC076F07CC077F07DC0B0
:1004400078F0050ED8900001753776377737783712
:10045000E82EF8D775C07AF076C07BF077C07CF0D4
:1004600078C07DF07AC015FF00D0000179510001FD
:10047000D8A48BD0F70E00017419D8A486D00F0130
:1004800001870001705100017A6F7B6B7C6B7D6B83
:100490007AC003FF000E0001701500017A6FFF0E95
:1004A0000001711500017B6F000E00017215000143
:1004B0007C6F000E0001731500017D6F7AC075F02E
:1004C0007BC076F07CC077F07DC078F076C075F0A8
:1004D00077C076F078C077F00001786B75C07AF05D
:1004E00076C07BF077C07CF078C07DF07AC002FFE8
:1004F000000172A103D00F01018102D00F0101910F
:10050000000172A303D00F01018302D00F010193F8
:10051000000172A503D00F01018B02D00F01019BD6
:10052000000172A703D00F01018D02D00F01019DC0
:10053000000172A903D00F01018F03D00F01019FA9
:1005400000D070C075F071C076F072C077F073C0E3
:1005500078F0160E06D00001D890783377337633D2
:100560007533E82EF8D775C07AF076C07BF077C087
:100570007CF078C07DF000017A5100017A6F7B6BCE
:100580007C6B7D6B7AC000FF00D000017905D8A498
:100590008BD0F70E00017419D8A486D00F010587FF
:1005A0000001705100017A6F7B6B7C6B7D6B7AC0B0
:1005B00007FF000E0001701500017A6FFF0E0001A9
:1005C000711500017B6F000E0001721500017C6F38
:1005D000000E0001731500017D6F7AC075F07BC0BD
:1005E00076F07CC077F07DC078F076C075F077C08B
:1005F00076F078C077F00001786B75C07AF076C03D
:100600007BF077C07CF078C07DF07AC006FF0001F7
:1006100072A103D00F01058102D00F0105910001E5
:1006200072A303D00F01058302D00F0105930001CF
:1006300072A503D00F01058B02D00F01059B0001AD
:1006400072A703D00F01058D02D00F01059D000197
:1006500072A903D00F01058F03D00F01059F00D0B1
:1006600070C075F071C076F072C077F073C078F02A
:10067000160E06D00001D890783377337633753371
:10068000E82EF8D775C07AF076C07BF077C07CF0A2
:1006900078C07DF000017A5100017A6F7B6B7C6B32
:1006A0007D6B7AC004FF00D0020E00017919D8A436
:1006B0008BD0F70E00017419D8A486D00F010987DA
:1006C0000001705100017A6F7B6B7C6B7D6B7AC08F
:1006D0000BFF000E0001701500017A6FFF0E000184
:1006E000711500017B6F000E0001721500017C6F17
:1006F000000E0001731500017D6F7AC075F07BC09C
:1007000076F07CC077F07DC078F076C075F077C069
:1007100076F078C077F00001786B75C07AF076C01B
:100720007BF077C07CF078C07DF07AC00AFF0001D2
:1007300072A103D00F01098102D00F0109910001BC
:1007400072A303D00F01098302D00F0109930001A6
:1007500072A503D00F01098B02D00F01099B000184
:1007600072A703D00F01098D02D00F01099D00016E
:1007700072A903D00F01098F03D00F01099F00D088
:1007800070C075F071C076F072C077F073C078F009
:10079000160E06D00001D890783377337633753350
:1007A000E82EF8D775C07AF076C07BF077C07CF081
:1007B00078C07DF000017A5100017A6F7B6B7C6B11
:1007C0007D6B7AC008FF00D0030E00017919D8A410
:1007D0008BD0F70E00017419D8A486D00F010D87B5
:1007E0000001705100017A6F7B6B7C6B7D6B7AC06E
:1007F0000FFF000E0001701500017A6FFF0E00015F
:10080000711500017B6F000E0001721500017C6FF5
:10081000000E0001731500017D6F7AC075F07BC07A
:1008200076F07CC077F07DC078F076C075F077C048
:1008300076F078C077F00001786B75C07AF076C0FA
:100840007BF077C07CF078C07DF07AC00EFF0001AD
:1008500072A103D00F010D8102D00F010D91000193
:1008600072A303D00F010D8302D00F010D9300017D
:1008700072A503D00F010D8B02D00F010D9B00015B
:1008800072A703D00F010D8D02D00F010D9D000145
:1008900072A903D00F010D8F03D00F010D9F00D05F
:1008A00070C075F071C076F072C077F073C078F0E8
:1008B000160E06D00001D89078337733763375332F
:1008C000E82EF8D775C07AF076C07BF077C07CF060
:1008D00078C07DF000017A5100017A6F7B6B7C6BF0
:1008E0007D6B7AC00CFF00D0040E00017919D8A4EA
:1008F0008BD0F70E00017419D8A486D00F01118790
:100900000001705100017A6F7B6B7C6B7D6B7AC04C
:1009100013FF000E0001701500017A6FFF0E000139
:10092000711500017B6F000E0001721500017C6FD4
:10093000000E0001731500017D6F7AC075F07BC059
:1009400076F07CC077F07DC078F076C075F077C027
:1009500076F078C077F00001786B75C07AF076C0D9
:100960007BF077C07CF078C07DF07AC012FF000188
:1009700072A103D00F01118102D00F01119100016A
:1009800072A303D00F01118302D00F011193000154
:1009900072A503D00F01118B02D00F01119B000132
:1009A00072A703D00F01118D02D00F01119D00011C
:1009B00072A903D00F01118F03D00F01119F00D036
:1009C00070C075F071C076F072C077F073C078F0C7
:1009D000160E06D00001D89078337733763375330E
:1009E000E82EF8D775C07AF076C07BF077C07CF03F
:1009F00078C07DF000017A5100017A6F7B6B7C6BCF
:100A00007D6B7AC010FF00D0050E00017919D8A4C3
:100A10001200F70E00017419D8A412000F011587F7
:100A20000001705100017A6F7B6B7C6B7D6B7AC02B
:100A300017FF000E0001701500017A6FFF0E000114
:100A4000711500017B6F000E0001721500017C6FB3
:100A5000000E0001731500017D6F7AC075F07BC038
:100A600076F07CC077F07DC078F076C075F077C006
:100A700076F078C077F00001786B75C07AF076C0B8
:100A80007BF077C07CF078C07DF07AC016FF000163
:100A900072A103D00F01158102D00F011591000141
:100AA00072A303D00F01158302D00F01159300012B
:100AB00072A503D00F01158B02D00F01159B000109
:100AC00072A703D00F01158D02D00F01159D0001F3
:100AD00072A903D00F01158F03D00F01159F00D00D
:100AE00070C075F071C076F072C077F073C078F0A6
:100AF000160E06D00001D8907833773376337533ED
:100B0000E82EF8D775C07AF076C07BF077C07CF01D
:100B100078C07DF000017A5100017A6F7B6B7C6BAD
:100B20007D6B7AC014FF12001200B50E0101256F13
:100B3000000E0101266F00EF8AF0250E0101391920
:100B4000D8B408D0B1C0D9FFB2C0DAFF39C1DFFFD5
:100B5000FCEF89F0000E0101286F000E276FB3C073
:100B6000F6FFB4C0F7FF000EF86E0800F5502E0A2D
:100B7000D8A43FD00101288D0001B34BB42B000E47
:100B80000101346F000E336F26D033C170F034C1D1
:100B900071F0000E0001736F0A0E726F52ECAEF02E
:100BA000B3C0F6FFB4C0F7FF000EF86E0800F550B2
:100BB00000017027000E00017123D00E0001702586
:100BC0000101336FFF0E000171210101346F00013B
:100BD000B34BB42B00D0B3C0F6FFB4C0F7FF000E88
:100BE000F86E0800F55009ECAFF0D8A011D0CDD7C1
:100BF0000FD0000E0101346F000E336F0101288900
:100C000007D013EF8AF00101288517D0F9D315D04A
:100C1000B3C0F6FFB4C0F7FF0001B34BB42B000E16
:100C2000F86E0800F5CF39F101013951000AD8B446
:100C3000FAD3660AD8B4E7D7E3D3070E0101281523
:100C4000D8B483D3010128A906D0000E0101346F66
:100C5000060E336F00D025C1D9FF26C1DAFFDECFE3
:100C600035F1DECF36F1DECF37F1DECF38F1040ECD
:100C700001012527000E2623010138AF16D035C10A
:100C80008EF036C18FF037C190F038C191F0FAEC98
:100C9000ADF08EC035F18FC036F190C037F191C004
:100CA00038F1030E0101271300D0000E01012E6F51
:100CB000000E2D6F0101355101013611010137116F
:100CC00001013811D8B490D0010137353835820F81
:100CD00001012D6F01012E6BFF0E2E2301012D0747
:100CE000D8A02E072DC170F02EC171F0000E0001AA
:100CF000736F030E726F52ECAEF070C02DF171C0C5
:100D00002EF12DC176F02EC177F0000E0001796F23
:100D10000A0E786F91ECA8F076C02DF177C02EF115
:100D200001012EAF05D001012D07D8A02E0700D05C
:100D300001012D51000885EC97F08EC02FF18FC076
:100D400030F190C031F191C032F12FC17FF030C14C
:100D500080F031C181F032C182F035C183F036C1FB
:100D600084F037C185F038C186F0C4ECA5F07FC0AF
:100D70002FF180C030F181C031F182C032F12FC13A
:100D800070F030C171F031C172F032C173F0000EF9
:100D90000001746F000E756F800E766F3F0E776FD7
:100DA0009EECA7F00001D8B005D001012D07D8A016
:100DB0002E071AD02FC170F030C171F031C172F01E
:100DC00032C173F0000E0001746F000E756F200EBB
:100DD000766F410E776F9EECA7F00001D8A004D08B
:100DE00001012D4B2E2B00D0010134BF08D0010191
:100DF000345124E10D0E0101335DD8B01FD035C14F
:100E00009BF036C19CF037C19DF038C19EF00101C6
:100E10003351EEEC9BF08EC09FF08FC0A0F090C0DD
:100E2000A1F091C0A2F0AFEC9EF09BC035F19CC048
:100E300036F19DC037F19EC038F100D001012EBFC0
:100E400008D001012E5130E10A0E01012D5DD8B00C
:100E50002BD001013551010136110101371101017A
:100E60003811D8B48CD035C1A7F036C1A8F037C13D
:100E7000A9F038C1AAF011ECA7F00001A7510001B8
:100E8000A8110001A9110001AA11D8A478D001016C
:100E90002EBF75D001012E5107E1020E01012D5D1B
:100EA000D8B002D06CD000D02FC170F030C171F03A
:100EB00031C172F032C173F05F0E0001746F700EB9
:100EC000756F890E766F400E776F9EECA7F000016C
:100ED000D8B003D00101F70E02D00101F80E2D2782
:100EE000FF0E2E2300D001012D5185EC97F08EC00E
:100EF0002FF18FC030F190C031F191C032F135C186
:100F000070F036C171F037C172F038C173F02FC183
:100F100074F030C175F031C176F032C177F083ECF6
:100F2000A3F070C029F171C02AF172C02BF173C017
:100F30002CF11BD035C170F036C171F037C172F0A1
:100F400038C173F02FC174F030C175F031C176F043
:100F500032C177F0B0ECA2F070C029F171C02AF173
:100F600072C02BF173C02CF100D0000E0101356F5F
:100F7000000E366F000E376F000E386F3CD035C153
:100F8000A7F036C1A8F037C1A9F038C1AAF011EC1A
:100F9000A7F0A7C029F1A8C02AF1A9C02BF1AAC0C7
:100FA0002CF135C1A7F036C1A8F037C1A9F038C17E
:100FB000AAF029C17AF02AC17BF02BC17CF02CC1A8
:100FC0007DF0A4ECAEF07AC0ABF07BC0ACF07CC09E
:100FD000ADF07DC0AEF015ECADF0A7C035F1A8C006
:100FE00036F1A9C037F1AAC038F1000E01012E6F09
:100FF000000E2D6F00D0010E0101396F0A0E0101A4
:101000003919D8B425D001D023D001013951040DAC
:10101000070EF324F66EFE0EF420F76EF86A000E4B
:10102000F8220900F5500101295D0900F550010180
:101030002A590900F55001012B590900F550010109
:101040002C59D8A005D001D003D00101392BD6D717
:10105000030E010127150001B96F000E01012815CB
:101060000001BA6F0001B9510001BA11D8B458D0CB
:10107000B1C0D9FFB2C0DAFF2D0E50D00001B14B84
:10108000B22B4ED029C170F02AC171F02BC172F081
:101090002CC173F001013951040D070EF324F66ED3
:1010A000FE0EF420F76EF86A000EF8220900F5CF64
:1010B00074F00900F5CF75F00900F5CF76F00A005D
:1010C000F5CF77F0F9ECA8F070C02FF171C030F1D6
:1010D00072C031F173C032F12FC170F030C171F0C4
:1010E00031C172F032C173F00A0E0001746F000E4C
:1010F000756F000E766F000E776FCAECAAF070C0A5
:101100002FF171C030F172C031F173C032F10101C1
:101110002F51300FB1C0D9FFB2C0DAFFDF6EAED7AA
:101120000101390701013929D8B410D0ABD70ED04D
:10113000B1C0D9FFB2C0DAFF300EDF6E0001B14B93
:10114000B22B01012D07D8A02E0700D001012EBF20
:1011500007D001012E51ECE101012D05D8B0E8D7EF
:10116000010134BF0CD00101345105E1090E010128
:10117000335DD8A004D0080E0101396F03D033C10C
:1011800039F100D0010139510101335F000E010135
:1011900039BFFF0E0101345B010139510101D8B49F
:1011A0000AD0B1C0D9FFB2C0DAFF2E0EDF6E000147
:1011B000B14BB22B00D00101395185EC97F08EC0B4
:1011C00021F18FC022F190C023F191C024F135C1EB
:1011D00083F036C184F037C185F038C186F021C173
:1011E0007FF022C180F023C181F024C182F0C4ECE1
:1011F000A5F07FC0A7F080C0A8F081C0A9F082C090
:10120000AAF011ECA7F0A7C029F1A8C02AF1A9C043
:101210002BF1AAC02CF17BD029C170F02AC171F04A
:101220002BC172F02CC173F001013951040D070E6E
:10123000F324F66EFE0EF420F76EF86A000EF82224
:101240000900F5CF74F00900F5CF75F00900F5CF6E
:1012500076F00A00F5CF77F0F9ECA8F070C02FF126
:1012600071C030F172C031F173C032F12FC170F032
:1012700030C171F031C172F032C173F00A0E000159
:10128000746F000E756F000E766F000E776FCAECEC
:10129000AAF070C02FF171C030F172C031F173C08B
:1012A00032F101012F51300FB1C0D9FFB2C0DAFFC6
:1012B000DF6E0001B14BB22B29C170F02AC171F071
:1012C0002BC172F02CC173F001013951040D070ECE
:1012D000F324F66EFE0EF420F76EF86A000EF82284
:1012E0000900F5CF74F00900F5CF75F00900F5CFCE
:1012F00076F00A00F5CF77F0CAECAAF070C029F1B9
:1013000071C02AF172C02BF173C02CF100D0010121
:10131000390701013929D8B410D07ED70ED0B1C019
:10132000D9FFB2C0DAFF300EDF6E0001B14BB22B35
:1013300001013307D8A0340700D001013351010166
:101340003411D8B45DD0EBD75BD00101335101012A
:101350003411D8A40ED00101295101012A11010133
:101360002B1101012C11D8A404D00101334B342BD3
:1013700000D0800E010139BF7F0E0001B96F01015D
:1013800033510101395D01013451800A0001B9591D
:10139000D8B003D033C139F119D001013451800ADA
:1013A0000001B96F010139510101335D800E010166
:1013B00039BF7F0E0001B959D8B008D001013951A9
:1013C0000101336F346B33BF340700D0030E0101CA
:1013D00027150001B96F000E010128150001BA6F31
:1013E0000001B9510001BA11D8B40AD0B1C0D9FF77
:1013F000B2C0DAFF2D0EDF6E0001B14BB22B00D070
:10140000B3C0F6FFB4C0F7FF0001B34BB42B000E1E
:10141000F86E0800F5CF39F101013951D8B403D085
:101420009DEF85F000D0B1C0D9FFB2C0DAFF000E49
:10143000DF6E120012000F0140B742D176C045FFA7
:10144000000177AD03D00F01458D02D00F01459DFE
:10145000000177A77AD00001705100017C6F7D6B8D
:101460007E6B7F6B7CC044FF000E00017015000195
:101470007C6FFF0E0001711500017D6F000E0001F1
:10148000721500017E6F000E0001731500017F6F61
:101490007CC078F07DC079F07EC07AF07FC07BF0B0
:1014A00079C078F07AC079F07BC07AF000017B6B6C
:1014B00078C07CF079C07DF07AC07EF07BC07FF090
:1014C0007CC043FF000E0F01426F0F0142870001F5
:1014D00072A102D00F014281000172A302D00F015C
:1014E0004283000172A502D00F01428B000172A756
:1014F00002D00F01428D000172A903D00F01428F6B
:1015000000D070C078F071C079F072C07AF073C00A
:101510007BF0160E06D00001D8907B337A337933F6
:101520007833E82EF8D778C07CF079C07DF07AC0A7
:101530007EF07BC07FF000017C5100017C6F7D6BF1
:101540007E6B7F6B7CC041FF5AD00F01429770C009
:1015500078F071C079F072C07AF073C07BF0040E3D
:1015600006D00001D8907B337A3379337833E82E74
:10157000F8D778C07CF079C07DF07AC07EF07BC06F
:101580007FF000017C5100017C6F7D6B7E6B7F6B77
:101590007CC041FF070E0001701500017C6F000E3A
:1015A0000001711500017D6F000E00017215000130
:1015B0007E6F000E0001731500017F6F7CC078F014
:1015C0007DC079F07EC07AF07FC07BF0050ED890A8
:1015D0000001783779377A377B37E82EF8D778C02B
:1015E0007CF079C07DF07AC07EF07BC07FF00F0187
:1015F00042511F0B0F01426F7CC042FF00D000011F
:1016000077A103D00F01408102D00F01409100016A
:1016100077A303D00F01408303D00F01409300D084
:1016200074C0D9FF75C0DAFFDF500F01466F0001AB
:1016300020EE01F07451D9267551DA22DF500F01E6
:10164000476F000120EE02F07451D9267551DA225D
:10165000DF500F01486F000120EE03F07451D926CE
:101660007551DA22DF500F01496F000120EE04F0BE
:101670007451D9267551DA22DF500F014A6F0001EB
:1016800020EE05F07451D9267551DA22DF500F0192
:101690004B6F000120EE06F07451D9267551DA2205
:1016A000DF500F014C6F000120EE07F07451D92676
:1016B0007551DA22DF500F014D6F0F014087120084
:1016C0000F0130B742D176C035FF000177AD03D0AE
:1016D0000F01358D02D00F01359D000177A77AD01B
:1016E0000001705100017C6F7D6B7E6B7F6B7CC055
:1016F00034FF000E0001701500017C6FFF0E000129
:10170000711500017D6F000E0001721500017E6FE2
:10171000000E0001731500017F6F7CC078F07DC062
:1017200079F07EC07AF07FC07BF079C078F07AC023
:1017300079F07BC07AF000017B6B78C07CF079C0D7
:101740007DF07AC07EF07BC07FF07CC033FF000E5E
:101750000F01326F0F013287000172A102D00F0119
:101760003281000172A302D00F013283000172A501
:1017700002D00F01328B000172A702D00F01328D0F
:10178000000172A903D00F01328F00D070C078F031
:1017900071C079F072C07AF073C07BF0160E06D07B
:1017A0000001D8907B337A3379337833E82EF8D739
:1017B00078C07CF079C07DF07AC07EF07BC07FF08D
:1017C00000017C5100017C6F7D6B7E6B7F6B7CC068
:1017D00031FF5AD00F01329770C078F071C079F0A4
:1017E00072C07AF073C07BF0040E06D00001D8906E
:1017F0007B337A3379337833E82EF8D778C07CF0AE
:1018000079C07DF07AC07EF07BC07FF000017C5112
:1018100000017C6F7D6B7E6B7F6B7CC031FF070EA0
:101820000001701500017C6F000E000171150001B0
:101830007D6F000E0001721500017E6F000E000129
:10184000731500017F6F7CC078F07DC079F07EC099
:101850007AF07FC07BF0050ED89000017837793799
:101860007A377B37E82EF8D778C07CF079C07DF0E6
:101870007AC07EF07BC07FF00F0132511F0B0F0149
:10188000326F7CC032FF00D0000177A103D00F017E
:10189000308102D00F013091000177A303D00F01F6
:1018A000308303D00F01309300D074C0D9FF75C0CE
:1018B000DAFFDF500F01366F000120EE01F07451A6
:1018C000D9267551DA22DF500F01376F000120EE63
:1018D00002F07451D9267551DA22DF500F01386FAA
:1018E000000120EE03F07451D9267551DA22DF5041
:1018F0000F01396F000120EE04F07451D9267551A3
:10190000DA22DF500F013A6F000120EE05F074512A
:10191000D9267551DA22DF500F013B6F000120EE0E
:1019200006F07451D9267551DA22DF500F013C6F51
:10193000000120EE07F07451D9267551DA22DF50EC
:101940000F013D6F0F01308712000F0120B7120009
:1019500076C025FF000177AD03D00F01258D02D0A1
:101960000F01259D000177A77AD000017051000179
:101970007C6F7D6B7E6B7F6B7CC024FF000E000153
:10198000701500017C6FFF0E0001711500017D6F65
:10199000000E0001721500017E6F000E000173152C
:1019A00000017F6F7CC078F07DC079F07EC07AF056
:1019B0007FC07BF079C078F07AC079F07BC07AF094
:1019C00000017B6B78C07CF079C07DF07AC07EF03E
:1019D0007BC07FF07CC023FF000E0F01226F0F0140
:1019E0002287000172A102D00F012281000172A39F
:1019F00002D00F012283000172A502D00F01228BB9
:101A0000000172A702D00F01228D000172A903D03C
:101A10000F01228F00D070C078F071C079F072C0D1
:101A20007AF073C07BF0160E06D00001D8907B339D
:101A30007A3379337833E82EF8D778C07CF079C0E0
:101A40007DF07AC07EF07BC07FF000017C51000108
:101A50007C6F7D6B7E6B7F6B7CC021FF5AD00F014A
:101A6000229770C078F071C079F072C07AF073C0BC
:101A70007BF0040E06D00001D8907B337A337933A3
:101A80007833E82EF8D778C07CF079C07DF07AC042
:101A90007EF07BC07FF000017C5100017C6F7D6B8C
:101AA0007E6B7F6B7CC021FF070E0001701500016B
:101AB0007C6F000E0001711500017D6F000E0001AA
:101AC000721500017E6F000E0001731500017F6F1B
:101AD0007CC078F07DC079F07EC07AF07FC07BF06A
:101AE000050ED8900001783779377A377B37E82EA2
:101AF000F8D778C07CF079C07DF07AC07EF07BC0EA
:101B00007FF00F0122511F0B0F01226F7CC022FFBB
:101B100000D0000177A103D00F01208102D00F0176
:101B20002091000177A303D00F01208303D00F0180
:101B3000209300D074C0D9FF75C0DAFFDF500F01C9
:101B4000266F000120EE01F07451D9267551DA227A
:101B5000DF500F01276F000120EE02F07451D926EB
:101B60007551DA22DF500F01286F000120EE03F0DB
:101B70007451D9267551DA22DF500F01296F000107
:101B800020EE04F07451D9267551DA22DF500F018E
:101B90002A6F000120EE05F07451D9267551DA2222
:101BA000DF500F012B6F000120EE06F07451D92693
:101BB0007551DA22DF500F012C6F000120EE07F083
:101BC0007451D9267551DA22DF500F012D6F0F01A4
:101BD00020871200120078ECAAF0CF0E0001BB6F34
:101BE000F70EBC6F330EBD6F3F0EBE6F000E0001CF
:101BF000BF6F000EC06F700EC16F410EC26F010E3D
:101C00000001E96F00D08EECAFF0A4ECAFF099ECDE
:101C1000AFF04CBC8CD0010E0001E36F000E000150
:101C2000E26F000EE16F5A0E0001EA6F000E000134
:101C3000E86FBEECA9F0839C839A100E0DECA5F022
:101C4000010E1AECA8F07F0E0001816FFF0E00015B
:101C5000826F89ECAEF0020E1AECA8F0550E00016E
:101C6000816FFF0E0001826F89ECAEF0030E1AEC5B
:101C7000A8F0830E0001816FFE0E0001826F89ECD7
:101C8000AEF0040E1AECA8F07F0E0001816FFF0E7B
:101C90000001826F89ECAEF046D0C7C03AF1C8C0EF
:101CA0003BF1C9C03CF1CAC03DF101013A1F3B1FE5
:101CB0003C1F3D1F3A2B000E3B233C233D230D5080
:101CC00001013A2501013E6F0E5001013B21010146
:101CD0003F6F0F5001013C210101406F1050010185
:101CE0003D210101416F01014151010140110101FB
:101CF0003F1105E11E0E01013E5DD8A00AD00DC0C6
:101D0000C7F00EC0C8F00FC0C9F010C0CAF0837E83
:101D100000D08EECAFF0000E0001776F0A0E766FE8
:101D200035ECAEF000D04CACB8D7839E4C8480A488
:101D300004D0000E0001E76F18D080B60AD0010E63
:101D40000001E76F010E0001E36F4BAA0CD009D030
:101D50000CD0020E0001E76F000E0001E36F4BA2F2
:101D600002D04C8202D04C9200D04BA6A9D04D9C00
:101D70004DAA4BB82FD04C9E010E0001E56F000E0E
:101D80000001BF6F000EC06F800EC16F3F0EC26FAB
:101D900000D034ECAFF00009D8B4FBD7010E01013C
:101DA000196F0C0E0001706F000E716F000E726FD4
:101DB000000E736F190E0001746F010E0001756F34
:101DC000080E0001766FBC0E0001776F1BEC8AF0E5
:101DD0004D8A00D04BB84CAE2AD04DA028D04DBE75
:101DE00028D0040E0001E46F020E0001E56F00D060
:101DF00034ECAFF00009D8B4FBD70E0E0001706FC1
:101E0000000E716F000E726F000E736F280E0001CE
:101E1000746F000E0001756F080E0001766FBC0E26
:101E20000001776F1BEC8AF04D9A4D8E02D04D9ECB
:101E300000D0D3C03AF1D4C03BF1D5C03CF1D6C0FC
:101E40003DF101013A1F3B1F3C1F3D1F3A2B000E85
:101E50003B233C233D230D5001013A2501013E6FF8
:101E60000E5001013B2101013F6F0F5001013C2148
:101E70000101406F105001013D210101416F01013D
:101E800041510101401101013F1105E11E0E010107
:101E90003E5DD8A050D00DC0D3F00EC0D4F00FC01E
:101EA000D5F010C0D6F04CBE4DA007D0838C4BB8F7
:101EB00002D0837A40D0838A3ED0837C3AD03BD014
:101EC0004D9A4D9E4C9A4B984C9E4D90839A839C74
:101ED0004DBC2ED0000E0001E56F000E0001BF6F5B
:101EE000000EC06F700EC16F410EC26F00D034EC97
:101EF000AFF00009D8B4FBD7000E0101196F0C0E2A
:101F00000001706F000E716F000E726F000E736F24
:101F1000190E0001746F010E0001756F080E0001AB
:101F2000766FBC0E0001776F1BEC8AF04D8C00D0F1
:101F3000839C839A00D0D9ECADF0000E00019F6F16
:101F4000000EA06F340EA16F430EA26FBBC083F0D2
:101F5000BCC084F0BDC085F0BEC086F00001DB517E
:101F60006EECAEF07AC07FF07BC080F07CC081F078
:101F70007DC082F0C4ECA5F07FC08EF080C08FF0F1
:101F800081C090F082C091F0FAECADF08EC09BF071
:101F90008FC09CF090C09DF091C09EF0AFEC9EF081
:101FA0009BC0A7F09CC0A8F09DC0A9F09EC0AAF05D
:101FB00011ECA7F00001A7510001EA6F0001E5054F
:101FC000D8A45CD04DA20FD00001E651EAC03AF18E
:101FD00001013B6B01013A27000E3B233AC1C3F0DC
:101FE0003BC1C4F01BD00001E65101013A6F3B6BCD
:101FF00001013A1F3B1F3A4B3B2B0001EA51010103
:102000003C6F3D6B01013A5101013C2701013B51FD
:1020100001013D233CC1C3F03DC1C4F00001000EED
:10202000C4BFFF0EC56FC66F0001C6BF12D000014E
:10203000C6BF0CD00001C6510001C5110001C4117A
:1020400008E1B50E0001C35DD8B003D0C3C0EAF00B
:1020500019D00001C6BF0ED00001C6510001C51144
:102060000001C41105E1B50E0001C35DD8A002D086
:10207000B40E01D0000E0001EA6F04D04D92000EA4
:102080000001E66F0001E751D8A44CB251D0840E94
:102090000001DC6532D0BFC083F0C0C084F0C1C095
:1020A00085F0C2C086F07E0E0001DC2500017A6F4B
:1020B00000017B6BFF0E7B236CECADF07AC07FF0F0
:1020C0007BC080F07CC081F07DC082F0C4ECA5F0C4
:1020D0007FC0A7F080C0A8F081C0A9F082C0AAF09C
:1020E00011ECA7F0A7C0E1F0A8C0E2F0030E0001D8
:1020F000E86F010E0001E96F24D0000E0001E26FCD
:10210000000EE16F420E0001DC6104D0020E0001FE
:10211000E86F00D0150E0001DC6104D0010E000153
:10212000E86F00D0060E0001DC610BD006D009D0AC
:10213000000E0001E26F000EE16F000E0001E86F7B
:1021400000D04CA604D0A8ECABF04C9600D0CBC08D
:102150003AF1CCC03BF1CDC03CF1CEC03DF1010124
:102160003A1F3B1F3C1F3D1F3A2B000E3B233C23D5
:102170003D230D5001013A2501013E6F0E50010132
:102180003B2101013F6F0F5001013C210101406FD4
:10219000105001013D210101416F01014151010137
:1021A000401101013F1105E1020E01013E5DD8A081
:1021B00004D0010E0001E46502D04BA41DD04BA455
:1021C00010D0010E0001E36F000E0001E26F000E5F
:1021D000E16F5A0E0001EA6F000E0001E86F4B94A8
:1021E00000D00DC0CBF00EC0CCF00FC0CDF010C0B1
:1021F000CEF0BEECA9F000D00001D7510D5C00017B
:10220000D8510E580001D9510F580001DA51105819
:10221000D8A05DD0CFC03AF1D0C03BF1D1C03CF1E5
:10222000D2C03DF101013A1F3B1F3C1F3D1F3A2B1D
:10223000000E3B233C233D230D5001013A250101B3
:102240003E6F0E5001013B2101013F6F0F50010114
:102250003C210101406F105001013D210101416FFE
:10226000010141510101401101013F1105E10A0E37
:1022700001013E5DD8A0C7D40DC0CFF00EC0D0F094
:102280000FC0D1F010C0D2F04CAA1ED04C84000177
:10229000E451D8A405D07FECACF00001E42B00D0D1
:1022A000020E0001E419D8A405D04DECACF00001F9
:1022B000E42B00D0040E0001E419D8A4A4D41BEC34
:1022C000ACF00001E42B9FD4E5EC9FF09CD4060E0B
:1022D0000001E419D8A497D44CA824D04C98B1ECB0
:1022E000ACF000D034ECAFF0E806D8A4FBD7000E79
:1022F0000001E86F060E0001706F000E716F000E96
:10230000726F000E736FE80E0001746F000E000113
:10231000756F080E0001766FBC0E0001776F1BEC25
:102320008AF003D0E3ECACF000D0000E0001E46FC3
:102330004C9A69D45FEF00F00F0140B718D140C04C
:1023400045FF41AC03D00F01458D02D00F01459DE3
:1023500041A667D03A50466E476A486A496A46C005
:1023600044FF000E3A14466EFF0E3B14476E000EFB
:102370003C14486E000E3D14496E46C042F047C002
:1023800043F048C044F049C045F043C042F044C067
:1023900043F045C044F0456A42C046F043C047F0B0
:1023A00044C048F045C049F046C043FF000E0F014D
:1023B000426F0F0142873CA002D00F0142813CA234
:1023C00002D00F0142833CA402D00F01428B3CA6F5
:1023D00002D00F01428D3CA803D00F01428F00D0E4
:1023E0003AC042F03BC043F03CC044F03DC045F031
:1023F000160E05D0D8904532443243324232E82E90
:10240000F9D742C046F043C047F044C048F045C049
:1024100049F04650466E476A486A496A46C041FFDD
:102420004ED00F0142973AC042F03BC043F03CC04F
:1024300044F03DC045F0040E05D0D89045324432FA
:1024400043324232E82EF9D742C046F043C047F04B
:1024500044C048F045C049F04650466E476A486A55
:10246000496A46C041FF070E3A14466E000E3B14FF
:10247000476E000E3C14486E000E3D14496E46C077
:1024800042F047C043F048C044F049C045F0050E53
:10249000D8904236433644364536E82EF9D742C006
:1024A00046F043C047F044C048F045C049F00F0132
:1024B00042511F0B0F01426F46C042FF00D041A0A6
:1024C00003D00F01408102D00F01409141A203D0FF
:1024D0000F01408303D00F01409300D03EC0D9FFCD
:1024E0003FC0DAFFDF500F01466F20EE01F03E5093
:1024F000D9263F50DA22DF500F01476F20EE02F05D
:102500003E50D9263F50DA22DF500F01486F20EEAF
:1025100003F03E50D9263F50DA22DF500F01496FB9
:1025200020EE04F03E50D9263F50DA22DF500F0152
:102530004A6F20EE05F03E50D9263F50DA22DF5098
:102540000F014B6F20EE06F03E50D9263F50DA22A5
:10255000DF500F014C6F20EE07F03E50D9263F5060
:10256000DA22DF500F014D6F0F01408712000F017B
:1025700030B718D140C035FF41AC03D00F01358DC5
:1025800002D00F01359D41A667D03A50466E476A8A
:10259000486A496A46C034FF000E3A14466EFF0E80
:1025A0003B14476E000E3C14486E000E3D14496EFD
:1025B00046C042F047C043F048C044F049C045F02F
:1025C00043C042F044C043F045C044F0456A42C0B5
:1025D00046F043C047F044C048F045C049F046C00B
:1025E00033FF000E0F01326F0F0132873CA002D083
:1025F0000F0132813CA202D00F0132833CA402D0F1
:102600000F01328B3CA602D00F01328D3CA803D0C3
:102610000F01328F00D03AC042F03BC043F03CC0C3
:1026200044F03DC045F0160E05D0D89045324432F6
:1026300043324232E82EF9D742C046F043C047F059
:1026400044C048F045C049F04650466E476A486A63
:10265000496A46C031FF4ED00F0132973AC042F06E
:102660003BC043F03CC044F03DC045F0040E05D0F3
:10267000D8904532443243324232E82EF9D742C034
:1026800046F043C047F044C048F045C049F04650CA
:10269000466E476A486A496A46C031FF070E3A14D7
:1026A000466E000E3B14476E000E3C14486E000E42
:1026B0003D14496E46C042F047C043F048C044F064
:1026C00049C045F0050ED89042364336443645366B
:1026D000E82EF9D742C046F043C047F044C048F066
:1026E00045C049F00F0132511F0B0F01326F46C038
:1026F00032FF00D041A003D00F01308102D00F0182
:10270000309141A203D00F01308303D00F013093E9
:1027100000D03EC0D9FF3FC0DAFFDF500F01366F57
:1027200020EE01F03E50D9263F50DA22DF500F0153
:10273000376F20EE02F03E50D9263F50DA22DF50AC
:102740000F01386F20EE03F03E50D9263F50DA22B9
:10275000DF500F01396F20EE04F03E50D9263F5074
:10276000DA22DF500F013A6F20EE05F03E50D926F5
:102770003F50DA22DF500F013B6F20EE06F03E5053
:10278000D9263F50DA22DF500F013C6F20EE07F0D0
:102790003E50D9263F50DA22DF500F013D6F0F0126
:1027A000308712000F0120B7120040C025FF41AC56
:1027B00003D00F01258D02D00F01259D41A667D0C2
:1027C0003A50466E476A486A496A46C024FF000E7E
:1027D0003A14466EFF0E3B14476E000E3C14486ED2
:1027E000000E3D14496E46C042F047C043F048C059
:1027F00044F049C045F043C042F044C043F045C0F6
:1028000044F0456A42C046F043C047F044C048F037
:1028100045C049F046C023FF000E0F01226F0F0193
:1028200022873CA002D00F0122813CA202D00F01DE
:1028300022833CA402D00F01228B3CA602D00F01C0
:10284000228D3CA803D00F01228F00D03AC042F065
:102850003BC043F03CC044F03DC045F0160E05D0EF
:10286000D8904532443243324232E82EF9D742C042
:1028700046F043C047F044C048F045C049F04650D8
:10288000466E476A486A496A46C021FF4ED00F012A
:1028900022973AC042F03BC043F03CC044F03DC0F8
:1028A00045F0040E05D0D8904532443243324232CE
:1028B000E82EF9D742C046F043C047F044C048F084
:1028C00045C049F04650466E476A486A496A46C064
:1028D00021FF070E3A14466E000E3B14476E000EA1
:1028E0003C14486E000E3D14496E46C042F047C08D
:1028F00043F048C044F049C045F0050ED890423638
:10290000433644364536E82EF9D742C046F043C038
:1029100047F044C048F045C049F00F0122511F0B59
:102920000F01226F46C022FF00D041A003D00F014B
:10293000208102D00F01209141A203D00F012083FA
:1029400003D00F01209300D03EC0D9FF3FC0DAFF73
:10295000DF500F01266F20EE01F03E50D9263F5088
:10296000DA22DF500F01276F20EE02F03E50D92609
:102970003F50DA22DF500F01286F20EE03F03E5067
:10298000D9263F50DA22DF500F01296F20EE04F0E4
:102990003E50D9263F50DA22DF500F012A6F20EE39
:1029A00005F03E50D9263F50DA22DF500F012B6F41
:1029B00020EE06F03E50D9263F50DA22DF500F01BC
:1029C0002C6F20EE07F03E50D9263F50DA22DF5020
:1029D0000F012D6F0F01208712001200000E446EB0
:1029E00074AE02D0448000D074AC02D0448200D0D7
:1029F0000F0150AF49D13AC0D9FF3BC0DAFFDE6AC0
:102A0000DE6ADE6ADD6A20EE04F03A50D9263B50D9
:102A1000DA2256CFDFFF20EE05F03A50D9263B50A0
:102A2000DA2257CFDFFF20EE06F03A50D9263B508E
:102A3000DA2258CFDFFF20EE07F03A50D9263B507C
:102A4000DA2259CFDFFF20EE08F03A50D9263B506A
:102A5000DA225ACFDFFF20EE09F03A50D9263B5058
:102A6000DA225BCFDFFF20EE0AF03A50D9263B5046
:102A7000DA225CCFDFFF20EE0BF03A50D9263B5034
:102A8000DA225DCFDFFF20EE0EF03A50D9263B5020
:102A9000DA220F0155AD02D0010E01D0000EDF6E1B
:102AA00020EE0DF03A50D9263B50DA220F01555155
:102AB0000F0BDF6E20EE0CF03A50D9263B50DA2295
:102AC0000F0152A702D0010E01D0000EDF6E0F01E0
:102AD00052B744D051CF3CF03D6A3E6A3F6A030E84
:102AE000D8903C363D363E363F36E82EF9D73AC0D0
:102AF000D9FF3BC0DAFF3CC0DEFF3DC0DEFF3EC079
:102B0000DEFF3FC0DEFF0F015239E842070B070B23
:102B1000456E3AC0D9FF3BC0DAFFDECF3CF0DECFD6
:102B20003DF0DECF3EF0DECF3FF045503C24406E1E
:102B3000000E3D20416E000E3E20426E000E3F20F2
:102B4000436E3AC0D9FF3BC0DAFF40C0DEFF41C050
:102B5000DEFF42C0DEFF43C0DEFF93D054CF3CF027
:102B60003D6A3E6A3F6A3AC0D9FF3BC0DAFF3CC0CB
:102B7000DEFF3DC0DEFF3EC0DEFF3FC0DEFF53CFC5
:102B80003CF03D6A3E6A3F6A3EC03FF03DC03EF0C9
:102B90003CC03DF03C6A3AC0D9FF3BC0DAFF3C5034
:102BA000DE263D50DE223E50DE223F50DE220F0167
:102BB00052A10DD03AC0D9FF3BC0DAFF000EDE12A1
:102BC000000EDE12010EDE12000EDE1200D00F012A
:102BD00052A30DD03AC0D9FF3BC0DAFF000EDE127F
:102BE000000EDE12020EDE12000EDE1200D00F0109
:102BF00052AB0DD03AC0D9FF3BC0DAFF000EDE1257
:102C0000000EDE12040EDE12000EDE1200D00F01E6
:102C100052AD0DD03AC0D9FF3BC0DAFF000EDE1234
:102C2000000EDE12080EDE12000EDE1200D00F01C2
:102C300052AF0DD03AC0D9FF3BC0DAFF000EDE1212
:102C4000000EDE12100EDE12000EDE1200D051CF8A
:102C50003CF03D6A3E6A3F6A150ED8903C363D36E0
:102C60003E363F36E82EF9D73AC0D9FF3BC0DAFFEF
:102C70003C50DE123D50DE123E50DE123F50DE125E
:102C800000D00F01509F120060AE12003AC0D9FF71
:102C90003BC0DAFFDE6ADE6ADE6ADD6A20EE04F03F
:102CA0003A50D9263B50DA2266CFDFFF20EE05F0FE
:102CB0003A50D9263B50DA2267CFDFFF20EE06F0EC
:102CC0003A50D9263B50DA2268CFDFFF20EE07F0DA
:102CD0003A50D9263B50DA2269CFDFFF20EE08F0C8
:102CE0003A50D9263B50DA226ACFDFFF20EE09F0B6
:102CF0003A50D9263B50DA226BCFDFFF20EE0AF0A4
:102D00003A50D9263B50DA226CCFDFFF20EE0BF091
:102D10003A50D9263B50DA226DCFDFFF20EE0EF07D
:102D20003A50D9263B50DA2265AC02D0010E01D0D0
:102D3000000EDF6E20EE0DF03A50D9263B50DA221D
:102D400065500F0BDF6E20EE0CF03A50D9263B5049
:102D5000DA2262A602D0010E01D0000EDF6E62B64A
:102D600043D061CF3CF03D6A3E6A3F6A030ED89083
:102D70003C363D363E363F36E82EF9D73AC0D9FFCD
:102D80003BC0DAFF3CC0DEFF3DC0DEFF3EC0DEFFE1
:102D90003FC0DEFF6238E842070B070B456E3AC0C2
:102DA000D9FF3BC0DAFFDECF3CF0DECF3DF0DECF17
:102DB0003EF0DECF3FF045503C24406E000E3D20FB
:102DC000416E000E3E20426E000E3F20436E3AC020
:102DD000D9FF3BC0DAFF40C0DEFF41C0DEFF42C08A
:102DE000DEFF43C0DEFF8ED064CF3CF03D6A3E6A1A
:102DF0003F6A3AC0D9FF3BC0DAFF3CC0DEFF3DC0AE
:102E0000DEFF3EC0DEFF3FC0DEFF63CF3CF03D6A29
:102E10003E6A3F6A3EC03FF03DC03EF03CC03DF0E0
:102E20003C6A3AC0D9FF3BC0DAFF3C50DE263D5039
:102E3000DE223E50DE223F50DE2262A00DD03AC09C
:102E4000D9FF3BC0DAFF000EDE12000EDE12010ECB
:102E5000DE12000EDE1200D062A20DD03AC0D9FF01
:102E60003BC0DAFF000EDE12000EDE12020EDE1292
:102E7000000EDE1200D062AA0DD03AC0D9FF3BC0CE
:102E8000DAFF000EDE12000EDE12040EDE12000E5D
:102E9000DE1200D062AC0DD03AC0D9FF3BC0DAFFE1
:102EA000000EDE12000EDE12080EDE12000EDE1222
:102EB00000D062AE0DD03AC0D9FF3BC0DAFF000EA1
:102EC000DE12000EDE12100EDE12000EDE1200D038
:102ED00061CF3CF03D6A3E6A3F6A150ED8903C36A1
:102EE0003D363E363F36E82EF9D73AC0D9FF3BC0D3
:102EF000DAFF3C50DE123D50DE123E50DE123F50F3
:102F0000DE1200D0609E120012000001966F0001D8
:102F100096AF48D10001966D00019651800A120FBC
:102F2000D8A0BCD0000E0001796F0A0E786F000E99
:102F30000001736F640E726F000196510001706F93
:102F4000716B70BF71071EECAAF070C076F071C093
:102F500077F091ECA8F00001D89076377737000130
:102F6000D89076377737240E00017627000E0001BF
:102F700077239F0E00017625F66EFD0E0001772166
:102F8000F76EF86A000EF8220900F5CF83F0090009
:102F9000F5CF84F00900F5CF85F00A00F5CF86F073
:102FA000000E0001796F640E786F000196510001E8
:102FB000766F776B76BF770791ECA8F00001D89019
:102FC000763777370001D89076377737480E00018B
:102FD0007627000E000177239F0E00017625F66EFE
:102FE000FD0E00017721F76EF86A000EF822090045
:102FF000F5CF7FF00900F5CF80F00900F5CF81F023
:103000000A00F5CF82F0C4ECA5F07FC092F080C03A
:1030100093F081C094F082C095F092C07FF093C08D
:1030200080F094C081F095C082F0000E0001736FB3
:103030000A0E726F000196510001706F716B70BFC4
:1030400071071EECAAF00001D890703771370001AB
:10305000D890703771379F0E00017025F66EFD0E07
:1030600000017121F76EF86A000EF8220900F5CF11
:1030700083F00900F5CF84F00900F5CF85F00A0050
:10308000F5CF86F0C4ECA5F07FC08EF080C08FF045
:1030900081C090F082C091F012006BD00001965177
:1030A000800A750FD8A065D0000E0001796F0A0E56
:1030B000786F000196510001766F776B76BF7707C6
:1030C00091ECA8F00001D890763777370001D890BE
:1030D00076377737240E00017627000E000177231C
:1030E0009F0E00017625F66EFD0E00017721F76E2A
:1030F000F86A000EF8220900F5CF7FF00900F5CF3D
:1031000080F00900F5CF81F00A00F5CF82F0000EC3
:103110000001736F0A0E726F000196510001706F0B
:10312000716B70BF71071EECAAF00001D890703768
:1031300071370001D890703771379F0E00017025EC
:10314000F66EFD0E00017121F76EF86A000EF8228E
:103150000900F5CF83F00900F5CF84F00900F5CF21
:1031600085F00A00F5CF86F0C4ECA5F08DD71200EB
:1031700000D000019651040D9F0EF324F66EFD0E53
:10318000F420F76EF86A000EF8220900F5CF8EF0F1
:103190000900F5CF8FF00900F5CF90F00A00F5CFC8
:1031A00091F0120000019651800A120FD8A0BCD0F5
:1031B000000E0001796F0A0E786F000E0001736F28
:1031C000640E726F000196510001706F716B70BFD9
:1031D00071071EECAAF070C076F071C077F091EC28
:1031E000A8F00001D890763777370001D89076376D
:1031F0007737240E00017627000E00017723D30EC7
:1032000000017625F66EFD0E00017721F76EF86A53
:10321000000EF8220900F5CF83F00900F5CF84F005
:103220000900F5CF85F00A00F5CF86F0000E000109
:10323000796F640E786F000196510001766F776B9D
:1032400076BF770791ECA8F00001D89076377737F2
:103250000001D89076377737480E00017627000EA8
:1032600000017723D30E00017625F66EFD0E0001D6
:103270007721F76EF86A000EF8220900F5CF7FF08B
:103280000900F5CF80F00900F5CF81F00A00F5CFF5
:1032900082F0C4ECA5F07FC092F080C093F081C0B2
:1032A00094F082C095F092C07FF093C080F094C0FB
:1032B00081F095C082F0000E0001736F0A0E726FEC
:1032C000000196510001706F716B70BF71071EECA9
:1032D000AAF00001D890703771370001D89070378C
:1032E0007137D30E00017025F66EFD0E00017121BD
:1032F000F76EF86A000EF8220900F5CF83F0090096
:10330000F5CF84F00900F5CF85F00A00F5CF86F0FF
:10331000C4ECA5F07FC08EF080C08FF081C090F02B
:1033200082C091F012006BD000019651800A750F97
:10333000D8A065D0000E0001796F0A0E786F0001E9
:1033400096510001766F776B76BF770791ECA8F006
:103350000001D890763777370001D89076377737E5
:10336000240E00017627000E00017723D30E000102
:103370007625F66EFD0E00017721F76EF86A000ED5
:10338000F8220900F5CF7FF00900F5CF80F00900A1
:10339000F5CF81F00A00F5CF82F0000E0001736FC7
:1033A0000A0E726F000196510001706F716B70BF51
:1033B00071071EECAAF00001D89070377137000138
:1033C000D89070377137D30E00017025F66EFD0E60
:1033D00000017121F76EF86A000EF8220900F5CF9E
:1033E00083F00900F5CF84F00900F5CF85F00A00DD
:1033F000F5CF86F0C4ECA5F08DD7120000D0000107
:103400009651040DD30EF324F66EFD0EF420F76EE4
:10341000F86A000EF8220900F5CF8EF00900F5CF0A
:103420008FF00900F5CF90F00A00F5CF91F012006F
:1034300012000001796F00017905D8A457D000016E
:103440007429D8A453D070C075F071C076F072C0E2
:1034500077F073C078F0040E06D00001D89078336E
:10346000773376337533E82EF8D775C07AF076C0A7
:103470007BF077C07CF078C07DF000017A510001CC
:103480007A6F7B6B7C6B7D6B7AC018FF070E000137
:10349000701500017A6F000E0001711500017B6F3D
:1034A000000E0001721500017C6F000E0001731503
:1034B00000017D6F7AC075F07BC076F07CC077F03C
:1034C0007DC078F0050ED8900001753776377737D4
:1034D0007837E82EF8D775C07AF076C07BF077C0E1
:1034E0007CF078C07DF07AC019FF00D0020E000198
:1034F0007919D8A457D000017429D8A453D070C02A
:1035000075F071C076F072C077F073C078F0040E79
:1035100006D00001D8907833773376337533E82EB0
:10352000F8D775C07AF076C07BF077C07CF078C0B1
:103530007DF000017A5100017A6F7B6B7C6B7D6BB3
:103540007AC01CFF070E0001701500017A6F000E93
:103550000001711500017B6F000E00017215000162
:103560007C6F000E0001731500017D6F7AC075F04D
:103570007BC076F07CC077F07DC078F0050ED890E7
:1035800000017537763777377837E82EF8D775C06A
:103590007AF076C07BF077C07CF078C07DF07AC09E
:1035A0001DFF00D000017905D8A489D0F70E0001D5
:1035B0007419D8A484D00001705100017A6F7B6B1C
:1035C0007C6B7D6B7AC01BFF000E00017015000143
:1035D0007A6FFF0E0001711500017B6F000E000174
:1035E000721500017C6F000E0001731500017D6FE4
:1035F0007AC075F07BC076F07CC077F07DC078F043
:1036000076C075F077C076F078C077F00001786BFF
:1036100075C07AF076C07BF077C07CF078C07DF022
:103620007AC01AFF000172A103D00F01198102D0E4
:103630000F011991000172A303D00F01198302D069
:103640000F011993000172A503D00F01198B02D04D
:103650000F01199B000172A703D00F01198D02D031
:103660000F01199D000172A903D00F01198F03D01A
:103670000F01199F00D070C075F071C076F072C054
:1036800077F073C078F0160E06D00001D89078332A
:10369000773376337533E82EF8D775C07AF076C075
:1036A0007BF077C07CF078C07DF000017A5100019A
:1036B0007A6F7B6B7C6B7D6B7AC018FF00D0020E3B
:1036C00000017919D8A41200F70E00017419D8A4CA
:1036D00012000001705100017A6F7B6B7C6B7D6B77
:1036E0007AC01FFF000E0001701500017A6FFF0EF7
:1036F0000001711500017B6F000E000172150001C1
:103700007C6F000E0001731500017D6F7AC075F0AB
:103710007BC076F07CC077F07DC078F076C075F025
:1037200077C076F078C077F00001786B75C07AF0DA
:1037300076C07BF077C07CF078C07DF07AC01EFF49
:10374000000172A103D00F011D8102D00F011D9154
:10375000000172A303D00F011D8302D00F011D933E
:10376000000172A503D00F011D8B02D00F011D9B1C
:10377000000172A703D00F011D8D02D00F011D9D06
:10378000000172A903D00F011D8F03D00F011D9FEF
:1037900000D070C075F071C076F072C077F073C061
:1037A00078F0160E06D00001D89078337733763350
:1037B0007533E82EF8D775C07AF076C07BF077C005
:1037C0007CF078C07DF000017A5100017A6F7B6B4C
:1037D0007C6B7D6B7AC01CFF1200120000019A6F97
:1037E0006D0E00019A65CED0000E0001796F0A0EB1
:1037F000786F000E0001736F640E726F9AC070F0E4
:103800000001716B1EECAAF070C076F071C077F009
:1038100091ECA8F00001D890763777370001D89066
:1038200076377737240E00017627000E00017723C4
:103830009F0E00017625F66EFD0E00017721F76ED2
:10384000F86A000EF8220900F5CF83F00900F5CFE1
:1038500084F00900F5CF85F00A00F5CF86F0000E60
:103860000001796F640E786F9AC076F00001776B73
:1038700091ECA8F00001D890763777370001D89006
:1038800076377737480E00017627000E0001772340
:103890009F0E00017625F66EFD0E00017721F76E72
:1038A000F86A000EF8220900F5CF7FF00900F5CF85
:1038B00080F00900F5CF81F00A00F5CF82F0C4EC6A
:1038C000A5F07FC096F080C097F081C098F082C0CC
:1038D00099F0000E0001736F0A0E726F9AC070F0BB
:1038E0000001716B1EECAAF00001D890703771379F
:1038F0000001D890703771379F0E00017025F66E69
:10390000FD0E00017121F76EF86A000EF822090021
:10391000F5CF83F00900F5CF84F00900F5CF85F0ED
:103920000A00F5CF86F096C07FF097C080F098C06F
:1039300081F099C082F0C4ECA5F07FC092F080C005
:1039400093F081C094F082C095F092C07FF093C054
:1039500080F094C081F095C082F0000E0001836F6A
:10396000000E846F000E856F3F0E866FC4ECA5F0CD
:103970007FC08EF080C08FF081C090F082C091F047
:1039800012007ED00A0E00019A657AD0000E000166
:10399000736F0A0E726F9AC070F00001716B1EECAB
:1039A000AAF00001D890703771370001D8907037B5
:1039B00071379F0E00017025F66EFD0E000171211A
:1039C000F76EF86A000EF8220900F5CF83F00900BF
:1039D000F5CF84F00900F5CF85F00A00F5CF86F029
:1039E000000E0001796F0A0E786F9AC076F0000120
:1039F000776B91ECA8F00001D8907637773700010B
:103A0000D89076377737240E00017627000E000114
:103A100077239F0E00017625F66EFD0E00017721BB
:103A2000F76EF86A000EF8220900F5CF7FF0090062
:103A3000F5CF80F00900F5CF81F00A00F5CF82F0D4
:103A4000C4ECA5F07FC096F080C097F081C098F0DC
:103A500082C099F096C07FF097C080F098C081F046
:103A600099C082F0000E0001836F000E846F000E7B
:103A7000856F3F0E866FC4ECA5F07AD7120000D098
:103A800000019A51040D9F0EF324F66EFD0EF420F2
:103A9000F76EF86A000EF8220900F5CF7FF00900F2
:103AA000F5CF80F00900F5CF81F00A00F5CF82F064
:103AB000000E0001836F000E846F000E856F3F0EB5
:103AC000866FC4ECA5F07FC08EF080C08FF081C0FF
:103AD00090F082C091F012001200EACF65F0E1CFC1
:103AE00066F0E2CF67F0D9CF68F0DACF69F0F3CFB4
:103AF0006AF0F4CF6BF0F6CF6CF0F7CF6DF0F8CF43
:103B00006EF0F5CF6FF0A4B202D0A4A00BD182EC7E
:103B1000AFF00009D8B403D1190E3A6E000E3B6E17
:103B2000EEEC94F027B002D04B9E01D04B8E19C022
:103B300005F01AC006F01BC007F01CC008F04C8648
:103B4000080E0518061007100810D8A41BD0000E88
:103B50004A6E070E4A6401D015D04A50010D1D0E61
:103B6000F324D96E000EF420DA6E4A50010D000ED7
:103B7000F324E16E010EF420E26EDFCFE7FF4A2A64
:103B8000E8D700D00D0E0518061007100810D8A4AD
:103B900049D01D04D8A408D04C8E4D904B984C8A27
:103BA000000E0001E46F00D0020E1D18D8A407D04B
:103BB0004C8E4D804B84020E0001E46F00D0030E4A
:103BC0001D18D8A415D0060E0001E46F4B96C80E40
:103BD0000D240001D76F000E0E200001D86F000EDB
:103BE0000F200001D96F000E10200001DA6F00D005
:103BF000040E1D18D8A416D0060E0001E46F4C88E0
:103C00004B96C80E0D240001D76F000E0E20000148
:103C1000D86F000E0F200001D96F000E1020000198
:103C2000DA6F00D0100E0518061007100810D8A47F
:103C300008D01EB002D04D9201D04D821DC0E6F0DA
:103C400000D0110E0518061007100810D8A426D0B1
:103C50001DC060F0060E0001616F0001D890603356
:103C60000001612FFAD7000160310001D8B002D005
:103C70004B9A01D04B8A1DC060F00001D890603390
:103C80000001D89060330001D890603300016031AA
:103C90000001D8B002D04B9201D04B82AA0E051879
:103CA000061007100810D8A40BD01EC015F0166A15
:103CB00015500001606F1D50156E60C016F000D0E9
:103CC000040E0518061007100810D8B44BAE27D004
:103CD0000DC009F00EC00AF00FC00BF010C00CF0C0
:103CE000030E286E0D0EE82EFED700F000D058EC23
:103CF000AFF0E806D8A4FBD7040E3A6E000E3B6E78
:103D0000000E3C6E000E3D6E280E3E6E000E3F6EA5
:103D1000080E406EBC0E416E9CEC91F000D0A49257
:103D2000A49000D06FC0F5FF6EC0F8FF6DC0F7FF24
:103D30006CC0F6FF6BC0F4FF6AC0F3FF69C0DAFF26
:103D400068C0D9FF67C0E2FF66C0E1FF65C0EAFF57
:103D500064C0E9FF63C0FBFF62C0FAFF110000010D
:103D60009D359E350001A66F0001A135A2350001E9
:103D7000A56F0001A6510001D8B411D00001A551D2
:103D80000001A65DD8B014D00001A65100080001C2
:103D9000A5250001A36F200E0001A36509D09FC0D7
:103DA0009BF0A0C09CF0A1C09DF0A2C09EF01200AC
:103DB0000001A5510001D8B411D00001A6510001A5
:103DC000A55DD8B014D00001A55100080001A625BA
:103DD0000001A36F200E0001A36509D09BC09BF0DA
:103DE0009CC09CF09DC09DF09EC09EF01200060EEF
:103DF0000001A46F00019EAF03D00001A48F00D08A
:103E00000001A2AF02D00001A48D00019D8FFF0E22
:103E100000019B17FF0E9C17FF0E9D17000E9E17AB
:103E20000001A18FFF0E00019F17FF0EA017FF0ECC
:103E3000A117000EA2170001A5510001A65DD8B080
:103E40002AD00001D8909F37A037A137A2370001B0
:103E5000A5070001A6510001A519D8B414D000018E
:103E6000A407A4C0A3F0070E0001A317D8B40BD079
:103E7000E8D709D00001D8909E339D339C339B3303
:103E80000001A62B00D00001A5510001A619D8B44D
:103E900032D0F0D730D00001A6510001A55DD8B0D6
:103EA0002AD00001D8909B379C379D379E37000160
:103EB000A6070001A6510001A519D8B414D000012D
:103EC000A407A4C0A3F0070E0001A317D8B40BD019
:103ED000E8D709D00001D890A233A133A0339F3393
:103EE0000001A52B00D00001A5510001A619D8B4EE
:103EF00002D0F0D700D00001A4AF11D0FF0E000116
:103F00009B1BFF0E9C1BFF0E9D1BFF0E9E1B010E9D
:103F100000019B27000E9C239D239E2300D00001BF
:103F2000A4AD11D0FF0E00019F1BFF0EA01BFF0EC2
:103F3000A11BFF0EA21B010E00019F27000EA02354
:103F4000A123A22300D0000E0001A46F00019B5109
:103F500000019F2700019C510001A02300019D51F9
:103F60000001A12300019E510001A2230001A2AF84
:103F700014D0FF0E00019F1BFF0EA01BFF0EA11B04
:103F8000FF0EA21B010E00019F27000EA023A123FC
:103F9000A223010E0001A46F00D09FC070F0A0C04A
:103FA00071F0A1C072F0A2C073F0A6C074F0A4C0FA
:103FB00075F04DECA4F070C09BF071C09CF072C025
:103FC0009DF073C09EF01200120000D034ECAFF0F0
:103FD000E806D8A4FBD7080E0001706F000E716FC1
:103FE000000E726F000E736FE90E0001746F000E09
:103FF0000001756F080E0001766FFC0E0001776FEF
:104000001BEC8AF0DDC07AF0DEC07BF0BEECAEF0D7
:104010007AC07EF07BC07FF07CC080F07DC081F0F4
:10402000000E0001826F000E836F8B0E846F430EB3
:10403000856F76ECA6F07EC001F07FC002F080C0F4
:1040400003F081C004F00D0E0001B16F010E0001FC
:10405000B26FFA0E0001B36FFF0E0001B46F01C022
:10406000B5F002C0B6F003C0B7F004C0B8F095ECEC
:1040700085F0000E0101186F4CA43ED0100E0DEC1F
:10408000A5F0F0ECAEF0010E1AECA8F06A0E0001FB
:10409000816FFF0E0001826F89ECAEF0020E1AEC08
:1040A000A8F0C80E0001816FFF0E0001826F89EC3D
:1040B000AEF0030E1AECA8F0A90E0001816FFF0EFE
:1040C0000001826F89ECAEF0040E1AECA8F009D062
:1040D000BA0E0001816FFF0E0001826F89ECAEF015
:1040E00009D0E40E0001816FFF0E0001826F89ECA0
:1040F000AEF000D04C9400D0020E00017F6F0C0E89
:1041000068ECAFF00001E751D8B416D00001E30528
:10411000D8A409D0F00E0001816FFF0E0001826F5C
:1041200089ECAEF012D0F50E0001816FFF0E000198
:10413000826F89ECAEF009D0EB0E0001816FFF0EAB
:104140000001826F89ECAEF000D0030E00017F6F9A
:10415000080E68ECAFF00D0E0001816F010E00013A
:10416000826F20ECAFF01CD0040E00017F6F0E0EAA
:1041700068ECAFF00001E551D8A409D0D40E0001DD
:10418000816FFF0E0001826F89ECAEF01200DC0E31
:104190000001816FFF0E0001826F89ECAEF012000A
:1041A000040E00017F6F070E68ECAFF015C088F0B9
:1041B00016C089F0000E00018A6F010E00018B6F9E
:1041C000CBECA1F0120012000001876F800E76EC9C
:1041D000AFF0000E706E000E716E000E726E000178
:1041E0008041E842C00B0001806F000180517012D5
:1041F00000018151701200018751711200017E3956
:10420000E842F80B00017E6F00017E51711200013F
:1042100082A5718C000182A102D0718E00D00001B4
:104220007F517212000182A302D0728C00D0000173
:104230008251600B606E00018251100BFF0AD8B4EE
:10424000608460CF50FF000E0001706F000E716F30
:10425000000E726F000E736FF70E0001746F010E87
:1042600019EC9AF0000E0001706F000E716F000ED5
:10427000726F000E736FF70E0001746F020E19EC6F
:104280009AF00FD0F70E0001886F07D000018869FF
:104290000001896928D000018869F70E0001896F43
:1042A00022D09F0E0001836FFF0E0001846F00017A
:1042B0008251600B0001856F866B00018351000104
:1042C0008513000184510001861300018651000A04
:1042D000D8A4E1D700018551BF0AD8B4D7D7600A66
:1042E000D8B4D0D7D8D7000E0001706F000E716F10
:1042F000000E726F000E736F88C074F0000E00EC39
:1043000080F0000E0001706F000E716F000E726F72
:10431000000E736F88C074F0010E00EC80F0000E88
:104320000001706F000E716F000E726F000E736FE0
:1043300089C074F0020E00EC80F0000E0001706F76
:10434000000E716F000E726F000E736F89C074F0F3
:10435000030E00EC80F0000E0001706F000E716F14
:10436000000E726F000E736F89C074F0040E00ECC3
:1043700080F0000E0001706F000E716F000E726F02
:10438000000E736F89C074F0050E00EC80F0000E13
:1043900076ECAFF0120021EE07F010EE91F0050E72
:1043A000DBCFE3FFE806FCE2910E0001806F000E18
:1043B0000001816F88C082F089C083F0000E000187
:1043C000856F0A0E846F92ECADF000018A510001F6
:1043D000D8B4BDD000018A51010D910EF324D96EDD
:1043E000000EF420DA6E000EDF6E74D000018A0534
:1043F0000001976F000197510001D8B46BD001D034
:1044000069D0FF0E00018C6FFF0E00018D6F00015F
:10441000975100018E6F8F6B00018C5100018E2728
:1044200000018D5100018F23910E00018E25D96E60
:10443000000E00018F21DA6E00019751010D910EDF
:10444000F324E16E000EF420E26EDFCFE7FF0001FF
:104450008B05D8A41DD0FF0E00018C6FFF0E00014C
:104460008D6F0001975100018E6F8F6B00018C5191
:1044700000018E2700018D5100018F23910E000154
:104480008E25D96E000E00018F21DA6E200E1CD011
:10449000FF0E00018C6FFF0E00018D6F0001975120
:1044A00000018E6F8F6B00018C5100018E2700017F
:1044B0008D5100018F23910E00018E25D96E000EC3
:1044C00000018F21DA6E300EDF6E00D000019707F9
:1044D00091D700D0FF0E00018C6FFF0E00018D6F91
:1044E00000018A5100018E6F8F6B00018C51000119
:1044F0008E2700018D5100018F23910E00018E2522
:10450000D96E000E00018F21DA6E3A0EDF606ED791
:10451000FF0E00018C6FFF0E00018D6F00018A51AC
:1045200000018E6F8F6B00018C5100018E270001FE
:104530008D5100018F23910E00018E25D96E000E42
:1045400000018F21DA6E2F0EDF6450D700D0910E5C
:104550000001816F000E0001826F20ECAFF01200AD
:1045600072C078F00001796B7A6B0001713500013F
:10457000783701E37981000178510001806F0001F3
:104580008051D8A40AD0000E0001706F000E716F28
:10459000000E726F000E736F120076C078F000018B
:1045A000796B7A6B000175350001783701E3798109
:1045B0000001785100017F6F00017F51D8A40AD01B
:1045C000000E0001706F000E716F000E726F000E12
:1045D000736F12000001718FFF0E00017017FF0E44
:1045E00000017117000E000172170001758FFF0E98
:1045F00000017417FF0E00017517000E00017617F9
:10460000000E00017B6F000E7C6F000E7D6F000EB0
:104610007E6F7F0E0001805F00017F51980F0001C7
:10462000805F180E00017F6F0001D8907B377C37C8
:104630007D377E37000174510001705D00017551B6
:10464000000171590001765100017259D8A00ED0B5
:10465000000174510001705F000175510001715B30
:10466000000176510001725B00017B810001D8904E
:1046700070377137723700017F2FD6D700D0000115
:1046800080AF1BD000018051800A970FD8B00BD0AB
:10469000000E0001706F000E716F000E726F000E41
:1046A000736F120000D00001D8907E337D337C33CD
:1046B0007B330001803FF7D71DD0170E00018065C6
:1046C00014D0000E0001706F000E716F000E726F3B
:1046D000000E736F120009D00001D8907B377C3731
:1046E0007D377E370001800700D000018051000136
:1046F000D8A4F2D77BC070F07CC071F07DC072F09E
:104700007EC073F0120000017235733500017D6FB9
:1047100000017D51D8A40AD0000E0001706F000E78
:10472000716F000E726F000E736F1200000176350C
:10473000773500017C6F00017C51D8A40AD0000EAF
:104740000001706F000E716F000E726F000E736FBC
:1047500012000001728FFF0E00017017FF0E71171B
:10476000FF0E7217000E73170001768FFF0E000107
:104770007417FF0E7517FF0E7617000E7717000ED1
:104780000001786F000E796F000E7A6F000E7B6F5C
:104790007F0E00017D5F00017C51A00F00017D5F55
:1047A000200E00017C6F00D00001D8907837793757
:1047B0007A377B37000174510001705D000175513B
:1047C00000017159000176510001725900017751C1
:1047D00000017359D8A013D0000174510001705F1B
:1047E000000175510001715B000176510001725B9F
:1047F000000177510001735B0001788100D0000156
:10480000D890703771377237733700017C2FCCD74F
:1048100000D000017DAF1BD000017D51800A9F0FA9
:10482000D8B00BD0000E0001706F000E716F000E3B
:10483000726F000E736F120000D00001D8907B33AE
:104840007A337933783300017D3FF7D71DD01F0EBF
:1048500000017D6514D0000E0001706F000E716FB5
:10486000000E726F000E736F120009D00001D89015
:10487000783779377A377B3700017D0700D0000120
:104880007D510001D8A4F2D778C070F079C071F0E2
:104890007AC072F07BC073F0120000017451000105
:1048A000D8B40AD0000170510001711100017211D9
:1048B00000017311D8A414D0000E0001706F000E17
:1048C000716F000E726F000E736F120009D000013D
:1048D000742B0001D890733372337133703300D06E
:1048E000000E000170150001766F000E00017115B9
:1048F0000001776F000E000172150001786FFE0E47
:10490000000173150001796F0001765100017711E4
:104910000001781100017911D8B411D0D8D70FD087
:104920000001742B010E00017027000E7123722309
:1049300073230001D8907333723371337033000ED8
:10494000000170150001766F000E00017115000165
:10495000776F000E000172150001786FFF0E0001E5
:1049600073150001796F0001765100017711000184
:10497000781100017911D8B40BD0D2D709D0000139
:1049800074070001D890703771377237733700D0D1
:10499000000172BF05D0020E00017461F0D700D093
:1049A000000174B109D0FF0E00017017FF0E7117DE
:1049B0007F0E7217FF0E73170001D890743374C006
:1049C00076F00001776B786B796B76C079F0000137
:1049D000786B776B766B00017651000170130001E4
:1049E0007751000171130001785100017213000129
:1049F000795100017313000175510001D8B403D03F
:104A00000001738F00D070C070F071C071F072C07F
:104A100072F073C073F01200120000017E6F00018B
:104A20007E51AFECAFF08D948B928B90000E000115
:104A3000776F640E766F35ECAEF0000E0001786F84
:104A4000010E0001796F010E00017A6F000E18EC63
:104A5000AEF0000E0001776F640E766F35ECAEF0AD
:104A6000000E0001786F010E0001796F010E000148
:104A70007A6F000E18ECAEF0000E0001776F0A0E90
:104A8000766F35ECAEF0000E0001786F010E00017C
:104A9000796F010E00017A6F000E18ECAEF0000E77
:104AA0000001786F010E0001796F000E00017A6F2E
:104AB000000E18ECAEF0000E0001786F010E000140
:104AC000796F000E00017A6F000E18ECAEF0000E48
:104AD0000001786F000E0001796F000E00017A6FFF
:104AE000010E18ECAEF0000E0001786F000E000110
:104AF000796F000E00017A6F000E18ECAEF0000E18
:104B00000001786F000E0001796F000E00017A6FCE
:104B1000010E18ECAEF0000E0001786F000E0001DF
:104B2000796F000E00017A6F000E18ECAEF0000EE7
:104B30000001786F000E0001796F010E00017A6F9D
:104B4000000E18ECAEF0000E0001786F000E0001B0
:104B5000796F000E00017A6F000E18ECAEF0010EB6
:104B60000001786F010E0001796F000E00017A6F6D
:104B7000000E18ECAEF0F0ECAEF0000E00017C6F11
:104B8000000ED7ECAEF01200000181358235000135
:104B9000876F00018751D8A40AD0000E00017F6FF3
:104BA000000E806F000E816F000E826F12000001F8
:104BB0008535863500018D6F00018D51D8A40AD04E
:104BC000000E00017F6F000E806F000E816F000EDF
:104BD000826F120000018D517B0F0001872782C078
:104BE0008DF00001865100018D1B800E00018D1794
:104BF0000001818F0001858FFF0E00018317FF0EDA
:104C00008417FF0E8517000E8617000E0001886FAF
:104C1000000E896F000E8A6F000E8B6F070E000169
:104C20008C6F00D000017FA111D0000183510001E1
:104C3000882700018451000189230001855100016A
:104C40008A230001865100018B2300D00001D890F7
:104C50008233813380337F330001D89083378437A8
:104C60008537863700018C2FDDD700D0110E00016B
:104C70008C6F00D000017FA111D000018351000191
:104C8000882700018451000189230001855100011A
:104C90008A230001865100018B2300D00001D890A7
:104CA0008233813380337F330001D8908B338A3352
:104CB0008933883300018C2FDDD700D088C070F095
:104CC00089C071F08AC072F08BC073F087C074F035
:104CD0008DC075F04DECA4F070C07FF071C080F015
:104CE00072C081F073C082F01200120000018035A2
:104CF000813500018B6F00018B51D8A40AD0000EC2
:104D000000017E6F000E7F6F000E806F000E816FBE
:104D1000120000018435853500018C6F00018C5133
:104D2000D8A40AD0000E00017E6F000E7F6F000E27
:104D3000806F000E816F120000018C51890F0001FD
:104D40008B5F81C08CF00001855100018C1B800EAF
:104D500000018C170001808FFF0E00017E17FF0EEF
:104D60007F17FF0E8017000E81170001848FFF0E42
:104D700000018217FF0E8317FF0E8417000E8517A0
:104D8000200E00018A6F00D00001D8908637873747
:104D9000883789370001825100017E5D000183510F
:104DA00000017F59000184510001805900018551A3
:104DB00000018159D8A013D00001825100017E5F0B
:104DC0000001835100017F5B000184510001805B81
:104DD000000185510001815B0001868100D0000146
:104DE000D8907E377F378037813700018A2FCCD724
:104DF00000D086C070F087C071F088C072F089C0A2
:104E000073F08BC074F08CC075F04DECA4F070C0E2
:104E10007EF071C07FF072C080F073C081F012002C
:104E200012000001A935AA350001B06F0001B05190
:104E3000D8A40AD0000E0001A76F000EA86F000EC4
:104E4000A96F000EAA6F1200A7C0ABF0A8C0ACF00B
:104E5000A9C0ADF0AAC0AEF0200E06D00001D890D7
:104E6000AE33AD33AC33AB33E82EF8D70001AB51E2
:104E70000001AF6F0001A98FFF0E0001A717FF0E01
:104E8000A817FF0EA917000EAA17960E0001B05F13
:104E90000001B0AF1BD00001B051800A970FD8B00D
:104EA0000BD0000E0001A76F000EA86F000EA96FB7
:104EB000000EAA6F120000D00001D890AA33A933C7
:104EC000A833A7330001B03FF7D71FD01F0E000152
:104ED000B06514D0000E0001A76F000EA86F000E81
:104EE000A96F000EAA6F120009D00001D890A73751
:104EF000A837A937AA370001B00700D00001B05188
:104F00000001D8B402D0F1D700D00001AF510001A8
:104F1000D8B40AD00001AA1FA91FA81FA76D000EB0
:104F2000A823A923AA2300D0A7C0A7F0A8C0A8F04F
:104F3000A9C0A9F0AAC0AAF012001200000173AF24
:104F400027D070C078F071C079F072C07AF073C069
:104F50007BF00001781F791F7A1F7B1F782B000ED2
:104F600079237A237B23000E000178250001706FDE
:104F7000000E000179210001716F000E00017A21FD
:104F80000001726F800E00017B210001736F00D061
:104F9000000177AF26D074C078F075C079F076C084
:104FA0007AF077C07BF00001781F791F7A1F7B1F92
:104FB000782B000E79237A237B23000E00017825BD
:104FC0000001746F000E000179210001756F000E61
:104FD00000017A210001766F800E00017B21000123
:104FE000776F000E0001701B000E711B000E721B0C
:104FF000800E731B000E0001741B000E751B000E4B
:10500000761B800E771B000174510001705D00015A
:10501000755100017159000176510001725900016A
:10502000775100017359D8B002D0D8901200D880BF
:105030001200120000017C6F64D0000E0001786F36
:10504000000E0001796F000E00017A6F010E18EC5E
:10505000AEF0000E0001786F000E0001796F000EB7
:1050600000017A6F000E18ECAEF01200010E000184
:10507000786F000E0001796F000E00017A6F010E4B
:1050800018ECAEF0000E0001786F000E0001796F91
:10509000000E00017A6F000E18ECAEF01200000E48
:1050A0000001786F000E0001796F010E00017A6F28
:1050B000010E18ECAEF0010E0001786F000E000139
:1050C000796F000E00017A6F000E18ECAEF012003E
:1050D000010E0001786F000E0001796F010E0001D2
:1050E0007A6F010E18ECAEF0010E0001786F000E21
:1050F0000001796F000E00017A6F000E18ECAEF01F
:10510000120000017C51010AD8B497D7030AD8B421
:10511000ADD7010AD8B4C3D7070AD8A41200D8D78C
:105120001200000E00017B6F000179AF09D0000171
:10513000786D791FD8B0792B010E00017B6F00D0FC
:10514000000177AF09D00001766D771FD8B0772BBB
:10515000010E00017B1B00D0000E00017D6F000ED0
:105160007C6F0001785100017911D8B431D0010E63
:1051700000017A6F07D00001D890783779370001A5
:105180007A2B00D0000179BF02D0F5D700D0000102
:10519000D8907C377D37000178510001765D0001A1
:1051A000795100017759D8A00BD000017851000146
:1051B000765F000179510001775B00017C8100D0AE
:1051C0000001D8907933783300017A2FE0D700D0EE
:1051D00000017B510001D8B406D000017C6D7D1F19
:1051E000D8B07D2B00D07CC076F07DC077F0120067
:1051F0001200000E0001786F000E796F000E7A6FBA
:10520000000E7B6F000174510001751100017611D1
:1052100000017711D8B447D0010E00017C6F09D08E
:105220000001D890743775377637773700017C2BBB
:1052300000D0000177BF02D0F3D700D00001D89092
:10524000783779377A377B37000174510001705D08
:105250000001755100017159000176510001725928
:105260000001775100017359D8A013D00001745187
:105270000001705F000175510001715B0001765102
:105280000001725B000177510001735B00017881BE
:1052900000D00001D8907733763375337433000132
:1052A0007C2FCCD700D078C070F079C071F07AC074
:1052B00072F07BC073F0120079C07DF07AC07EF08E
:1052C00000D07DC070F07EC071F07BC072F07CC0F9
:1052D00073F067ECABF070C07DF071C07EF0000140
:1052E000774B782B00017D5100017E11D8A4E9D7BE
:1052F00077C0D9FF78C0DAFF000EDF6E00017707B4
:10530000D8A0780700D079C070F07AC071F07BC067
:1053100072F07CC073F0E5ECABF00001705100015D
:105320007F6F79C070F07AC071F07BC072F07CC082
:1053300073F067ECABF070C079F071C07AF0090ED1
:1053400000017F6503D0070E00017F27300E0001AA
:105350007F2777C0D9FF78C0DAFF7FC0DFFF000169
:105360007707D8A078070001795100017A11D8A4F5
:10537000CAD70001774B782B1200120000D034EC12
:10538000AFF0E806D8A4FBD7070E0001706F000E3F
:10539000716F000E726F000E736FEA0E0001746F72
:1053A000000E0001756F080E0001766FBC0E000143
:1053B000776F1BEC8AF0E1C0E9F00001E2510001D7
:1053C000EA6FE3C0EBF000D034ECAFF0E806D8A40D
:1053D000FBD7050E0001706F000E716F000E726F2B
:1053E000000E736FE90E0001746F000E0001756FFF
:1053F000080E0001766FBC0E0001776F1BEC8AF07F
:1054000000D034ECAFF0E806D8A4FBD7060E0001BC
:10541000706F000E716F000E726F000E736FE80EEA
:105420000001746F000E0001756F080E0001766FA9
:10543000BC0E0001776F1BEC8AF01200000E000119
:10544000756F000171AF09D00001706D711FD8B088
:10545000712B010E0001756F00D0000173AF06D0F3
:105460000001726D731FD8B0732B00D00001725110
:1054700000017311D8B42BD0010E0001746F07D056
:105480000001D890723773370001742B00D00001EF
:1054900073BF02D0F5D700D0000172510001705DDA
:1054A0000001735100017159D8A009D00001725157
:1054B0000001705F000173510001715B00D00001B9
:1054C000D890733372330001742FE6D700D00001F7
:1054D00075510001D8B406D00001706D711FD8B0AD
:1054E000712B00D070C070F071C071F0120012000A
:1054F000000E896E1F0E926E000E8A6EFB0E936E6A
:10550000000E8B6EF00E946E000E8C6E000E956E7B
:10551000000E8D6E000E966E060E00017E6F050E5B
:1055200000017F6F010E0001806F030E0001816F8B
:105530009D0E0001826F040EE4ECA0F0A192A492F3
:10554000A490D08EA582A580A2920D0EC16EC298A5
:10555000C296C294C08AC088C096C084C092C080DF
:10556000C09EC280100E0DECA5F0F0ECAEF0010E66
:105570001AECA8F083948396630EB36EC00EB26EDD
:10558000A382A380A082010EB16EF0ECAEF0F28E89
:10559000F28C1200000174510001751100017611A6
:1055A00000017711D8B43FD0010E0001786F09D007
:1055B0000001D89074377537763777370001782B2C
:1055C00000D0000177BF02D0F3D700D000017451A2
:1055D0000001705D000175510001715900017651A3
:1055E000000172590001775100017359D8A011D000
:1055F000000174510001705F000175510001715B81
:10560000000176510001725B000177510001735B6C
:1056100000D00001D89077337633753374330001AE
:10562000782FD4D700D070C070F071C071F072C004
:1056300072F073C073F012000001806F8D8400015E
:105640008045010B00017C6F00018045E846030B9B
:10565000010B00017D6F00018039E842070B010B4F
:1056600000017E6F000180390F0B010B00017F6F7D
:105670007DC078F07EC079F07FC07AF000017C5167
:1056800018ECAEF000018039E8461F0B010B000159
:105690007C6F00018041E8423F0B010B00017D6FF0
:1056A0000001D8908031010B00017E6F0001805114
:1056B000010B00017F6F7DC078F07EC079F07FC064
:1056C0007AF000017C5118ECAEF08D941200000EBF
:1056D0000001756F000E746F0001725100017311AB
:1056E000D8B431D0010E0001766F07D00001D890F8
:1056F000723773370001762B00D0000173BF02D0E0
:10570000F5D700D00001D890743775370001725179
:105710000001705D0001735100017159D8A00BD0D8
:10572000000172510001705F000173510001715B53
:105730000001748100D00001D890733372330001EE
:10574000762FE0D700D074C070F075C071F01200F1
:10575000080E0518061007100810D8B44BBE2AD042
:1057600001C111F0126A11500001706F0101005166
:10577000116E70C012F003C113F0146A13500001CF
:10578000706F01010251136E70C014F01150132498
:105790000001706F125014200001716FD890000149
:1057A00071310001726F000170310001DD6F72C054
