:0400000060EF00F0BD
:0E0008004E82FACF60F0FBCF61F0DEEFA8F081
:100018004E80D8CF2BF0E8CF2CF0E0CF2DF0FACFE0
:100028002EF0FBCF2FF0E9CF30F0EACF31F0E1CF5F
:1000380032F0E2CF33F0D9CF34F0DACF35F0F3CF66
:1000480036F0F4CF37F0F6CF38F0F7CF39F0F8CFF5
:100058003AF0F5CF3BF0A1A20BD0010E2026000EFE
:10006800212222222322630EB36EC00EB26EA19209
:100078003BC0F5FF3AC0F8FF39C0F7FF38C0F6FFBC
:1000880037C0F4FF36C0F3FF35C0DAFF34C0D9FFFC
:1000980033C0E2FF32C0E1FF31C0EAFF30C0E9FF00
:1000A8002FC0FBFF2EC0FAFF2DC0E0FF2CC0E8FFD9
:0C00B8002BC0D8FF4E901000B5EFADF04B
:10FED800000000803FCDCCCC3D0AD7233C6F128375
:10FEE8003A17B7D138ACC52737BD37863595BFD651
:10FEF8003377CC2B325F708930FFE6DB2E08E53C88
:10FF08001E6042A20D0000803F000020410000C892
:10FF18004200007A4400401C460050C34700247445
:10FF2800498096184B20BCBE4C286B6E4EF90215C2
:10FF380050EC78AD60CAF24971010000000A000077
:10FF48000064000000E803000010270000A08601FC
:10FF58000040420F008096980000E1F50500CA9A1B
:10FF68003B5475726E207468652073776974636892
:10FF7800204F4E2120003D3D3E2056454849434CE8
:10FF88004520204F4646203C3D3D003D3D3D205606
:10FF9800454849434C452044415441203D3D3D009E
:10FFA8003D3D3D3D3D3D3D3D3D3D3D3D3D3D3D3D79
:10FFB8003D3D3D3D0053706565643A20782E787864
:10FFC800204B6D2F6800446972656374696F6E3ADF
:10FFD8002000576169742E2E2E002053524348008A
:10FFE800205041524B00424B574400252E336600A7
:08FFF8004657440050000000D0
:020000040001F9
:100000000001786F000178510001D8A458D0000198
:100010007329D8A454D00F0101976FC074F070C039
:1000200075F071C076F072C077F0040E06D0000152
:10003000D8907733763375337433E82EF8D774C09D
:1000400079F075C07AF076C07BF077C07CF0000163
:1000500079510001796F7A6B7B6B7C6B79C000FF03
:10006000070E00016F150001796F000E0001701579
:1000700000017A6F000E0001711500017B6F000E08
:100080000001721500017C6F79C074F07AC075F0C0
:100090007BC076F07CC077F0050ED89000017437F5
:1000A000753776377737E82EF8D774C079F075C092
:1000B0007AF076C07BF077C07CF079C001FF000158
:1000C0007805D8A458D000017329D8A454D00F01C2
:1000D00005976FC074F070C075F071C076F072C093
:1000E00077F0040E06D00001D8907733763375335D
:1000F0007433E82EF8D774C079F075C07AF076C002
:100100007BF077C07CF0000179510001796F7A6B48
:100110007B6B7C6B79C004FF070E00016F1500013B
:10012000796F000E0001701500017A6F000E00015A
:10013000711500017B6F000E0001721500017C6FCC
:1001400079C074F07AC075F07BC076F07CC077F02F
:10015000050ED89000017437753776377737E82E5B
:10016000F8D774C079F075C07AF076C07BF077C0AC
:100170007CF079C005FF020E00017819D8A458D090
:1001800000017329D8A454D00F0109976FC074F0EF
:1001900070C075F071C076F072C077F0040E06D0B2
:1001A0000001D8907733763375337433E82EF8D75F
:1001B00074C079F075C07AF076C07BF077C07CF0BF
:1001C000000179510001796F7A6B7B6B7C6B79C090
:1001D00008FF070E00016F150001796F000E000186
:1001E000701500017A6F000E0001711500017B6F20
:1001F000000E0001721500017C6F79C074F07AC0A6
:1002000075F07BC076F07CC077F0050ED8900001C9
:100210007437753776377737E82EF8D774C079F0AA
:1002200075C07AF076C07BF077C07CF079C009FFAA
:10023000030E00017819D8A458D000017329D8A45E
:1002400054D00F010D976FC074F070C075F071C07D
:1002500076F072C077F0040E06D00001D8907733A4
:10026000763375337433E82EF8D774C079F075C0DF
:100270007AF076C07BF077C07CF000017951000104
:10028000796F7A6B7B6B7C6B79C00CFF070E00017A
:100290006F150001796F000E0001701500017A6F73
:1002A000000E0001711500017B6F000E0001721538
:1002B00000017C6F79C074F07AC075F07BC076F075
:1002C0007CC077F0050ED89000017437753776370B
:1002D0007737E82EF8D774C079F075C07AF076C019
:1002E0007BF077C07CF079C00DFF040E0001781917
:1002F000D8A458D000017329D8A454D00F01119765
:100300006FC074F070C075F071C076F072C077F095
:10031000040E06D00001D8907733763375337433EA
:10032000E82EF8D774C079F075C07AF076C07BF00B
:1003300077C07CF0000179510001796F7A6B7B6B9B
:100340007C6B79C010FF070E00016F150001796FFB
:10035000000E0001701500017A6F000E000171158A
:1003600000017B6F000E0001721500017C6F79C0E7
:1003700074F07AC075F07BC076F07CC077F0050E23
:10038000D89000017437753776377737E82EF8D76D
:1003900074C079F075C07AF076C07BF077C07CF0DD
:1003A00079C011FF050E00017819D8A458D00001BA
:1003B0007329D8A454D00F0115976FC074F070C082
:1003C00075F071C076F072C077F0040E06D00001AF
:1003D000D8907733763375337433E82EF8D774C0FA
:1003E00079F075C07AF076C07BF077C07CF00001C0
:1003F00079510001796F7A6B7B6B7C6B79C014FF4C
:10040000070E00016F150001796F000E00017015D5
:1004100000017A6F000E0001711500017B6F000E64
:100420000001721500017C6F79C074F07AC075F01C
:100430007BC076F07CC077F0050ED8900001743751
:10044000753776377737E82EF8D774C079F075C0EE
:100450007AF076C07BF077C07CF079C015FF0001A0
:1004600078510001D8A489D0F70E00017319D8A4DF
:1004700084D00F01018700016F510001796F7A6B01
:100480007B6B7C6B79C003FF000E00016F150001D0
:10049000796FFF0E0001701500017A6F000E0001E8
:1004A000711500017B6F000E0001721500017C6F59
:1004B00079C074F07AC075F07BC076F07CC077F0BC
:1004C00075C074F076C075F077C076F00001776B78
:1004D00074C079F075C07AF076C07BF077C07CF09C
:1004E00079C002FF000171A103D00F01018102D088
:1004F0000F010191000171A303D00F01018302D00C
:100500000F010193000171A503D00F01018B02D0EF
:100510000F01019B000171A703D00F01018D02D0D3
:100520000F01019D000171A903D00F01018F02D0BD
:100530000F01019F6FC074F070C075F071C076F04C
:1005400072C077F0160E06D00001D890773376335C
:1005500075337433E82EF8D774C079F075C07AF02B
:1005600076C07BF077C07CF0000179510001796F93
:100570007A6B7B6B7C6B79C000FF00017805D8A497
:1005800089D0F70E00017319D8A484D00F01058714
:1005900000016F510001796F7A6B7B6B7C6B79C0C6
:1005A00007FF000E00016F150001796FFF0E0001BB
:1005B000701500017A6F000E0001711500017B6F4C
:1005C000000E0001721500017C6F79C074F07AC0D2
:1005D00075F07BC076F07CC077F075C074F076C0A3
:1005E00075F077C076F00001776B74C079F075C054
:1005F0007AF076C07BF077C07CF079C006FF00010E
:1006000071A103D00F01058102D00F0105910001F6
:1006100071A303D00F01058302D00F0105930001E0
:1006200071A503D00F01058B02D00F01059B0001BE
:1006300071A703D00F01058D02D00F01059D0001A8
:1006400071A903D00F01058F02D00F01059F6FC064
:1006500074F070C075F071C076F072C077F0160E4D
:1006600006D00001D8907733763375337433E82E93
:10067000F8D774C079F075C07AF076C07BF077C097
:100680007CF0000179510001796F7A6B7B6B7C6B98
:1006900079C004FF020E00017819D8A489D0F70EA2
:1006A00000017319D8A484D00F01098700016F518C
:1006B0000001796F7A6B7B6B7C6B79C00BFF000E4E
:1006C00000016F150001796FFF0E00017015000128
:1006D0007A6F000E0001711500017B6F000E0001A2
:1006E000721500017C6F79C074F07AC075F07BC020
:1006F00076F07CC077F075C074F076C075F077C086
:1007000076F00001776B74C079F075C07AF076C02E
:100710007BF077C07CF079C00AFF000171A103D0A3
:100720000F01098102D00F010991000171A303D0CB
:100730000F01098302D00F010993000171A503D0B5
:100740000F01098B02D00F01099B000171A703D093
:100750000F01098D02D00F01099D000171A903D07D
:100760000F01098F02D00F01099F6FC074F070C094
:1007700075F071C076F072C077F0160E06D00001E9
:10078000D8907733763375337433E82EF8D774C046
:1007900079F075C07AF076C07BF077C07CF000010C
:1007A00079510001796F7A6B7B6B7C6B79C008FFA4
:1007B000030E00017819D8A489D0F70E000173192F
:1007C000D8A484D00F010D8700016F510001796F0B
:1007D0007A6B7B6B7C6B79C00FFF000E00016F158D
:1007E0000001796FFF0E0001701500017A6F000E95
:1007F0000001711500017B6F000E000172150001F0
:100800007C6F79C074F07AC075F07BC076F07CC0E4
:1008100077F075C074F076C075F077C076F000019F
:10082000776B74C079F075C07AF076C07BF077C0D2
:100830007CF079C00EFF000171A103D00F010D8182
:1008400002D00F010D91000171A303D00F010D83A0
:1008500002D00F010D93000171A503D00F010D8B84
:1008600002D00F010D9B000171A703D00F010D8D68
:1008700002D00F010D9D000171A903D00F010D8F52
:1008800002D00F010D9F6FC074F070C075F071C081
:1008900076F072C077F0160E06D00001D89077334C
:1008A000763375337433E82EF8D774C079F075C099
:1008B0007AF076C07BF077C07CF0000179510001BE
:1008C000796F7A6B7B6B7C6B79C00CFF040E000137
:1008D0007819D8A489D0F70E00017319D8A484D050
:1008E0000F01118700016F510001796F7A6B7B6BEB
:1008F0007C6B79C013FF000E00016F150001796F4A
:10090000FF0E0001701500017A6F000E00017115D5
:1009100000017B6F000E0001721500017C6F79C031
:1009200074F07AC075F07BC076F07CC077F075C04B
:1009300074F076C075F077C076F00001776B74C004
:1009400079F075C07AF076C07BF077C07CF079C022
:1009500012FF000171A103D00F01118102D00F011C
:100960001191000171A303D00F01118302D00F0177
:100970001193000171A503D00F01118B02D00F015B
:10098000119B000171A703D00F01118D02D00F013F
:10099000119D000171A903D00F01118F02D00F0129
:1009A000119F6FC074F070C075F071C076F072C0A6
:1009B00077F0160E06D00001D89077337633753372
:1009C0007433E82EF8D774C079F075C07AF076C029
:1009D0007BF077C07CF0000179510001796F7A6B70
:1009E0007B6B7C6B79C010FF050E00017819D8A4D1
:1009F0001200F70E00017319D8A412000F01158719
:100A000000016F510001796F7A6B7B6B7C6B79C051
:100A100017FF000E00016F150001796FFF0E000136
:100A2000701500017A6F000E0001711500017B6FD7
:100A3000000E0001721500017C6F79C074F07AC05D
:100A400075F07BC076F07CC077F075C074F076C02E
:100A500075F077C076F00001776B74C079F075C0DF
:100A60007AF076C07BF077C07CF079C016FF000189
:100A700071A103D00F01158102D00F011591000162
:100A800071A303D00F01158302D00F01159300014C
:100A900071A503D00F01158B02D00F01159B00012A
:100AA00071A703D00F01158D02D00F01159D000114
:100AB00071A903D00F01158F02D00F01159F6FC0D0
:100AC00074F070C075F071C076F072C077F0160ED9
:100AD00006D00001D8907733763375337433E82E1F
:100AE000F8D774C079F075C07AF076C07BF077C023
:100AF0007CF0000179510001796F7A6B7B6B7C6B24
:100B000079C014FF1200C50E0101256F000E01010E
:100B1000266FB5EF89F0250E01013919D8B408D038
:100B2000C1C0D9FFC2C0DAFF39C1DFFFB2EF89F01F
:100B3000000E0101286F000E276FC3C0F6FFC4C06E
:100B4000F7FF000EF86E0800F5502E0AD8A43DD02D
:100B50000101288D0001C34BC42B000E0101346F2D
:100B6000000E336F25D033C16FF034C170F0000E2A
:100B70000001726F0A0E716F2DECAEF0C3C0F6FF6C
:100B8000C4C0F7FF000EF86E0800F55000016F2793
:100B9000000E00017023D00E00016F250101336F9C
:100BA000FF0E000170210101346F0001C34BC42B03
:100BB000C3C0F6FFC4C0F7FF000EF86E0800F55082
:100BC00094ECAEF0D8A00CD0CED7000E0101346F5B
:100BD000000E336F0101288903D00101288515D04B
:100BE000C3C0F6FFC4C0F7FF0001C34BC42B000E07
:100BF000F86E0800F5CF39F101013951000AD8B477
:100C0000C5D3660AD8B4E9D7B0D3070E01012815B9
:100C1000D8B453D3010128A905D0000E0101346FC7
:100C2000060E336F25C1D9FF26C1DAFFDECF35F1BD
:100C3000DECF36F1DECF37F1DECF38F1040E010121
:100C40002527000E2623010138AF15D035C196F0B7
:100C500036C197F037C198F038C199F011ECAEF079
:100C600096C035F197C036F198C037F199C038F188
:100C7000030E01012713000E01012E6F000E2D6FD0
:100C800001013551010136110101371101013811FE
:100C9000D8B48ED0010137353835820F01012D6F60
:100CA00001012E6BFF0E2E2301012D07D8A02E0768
:100CB0002DC16FF02EC170F0000E0001726F030E97
:100CC000716F2DECAEF06FC02DF170C02EF12DC103
:100CD00075F02EC176F0000E0001786F0A0E776F66
:100CE000E9ECAAF075C02DF176C02EF101012EAF0E
:100CF00004D001012D07D8A02E0701012D510008B5
:100D00002EEC94F096C02FF197C030F198C031F1DD
:100D100099C032F12FC17DF030C17EF031C17FF03A
:100D200032C180F035C181F036C182F037C183F025
:100D300038C184F095EC9BF07DC02FF17EC030F17E
:100D40007FC031F180C032F12FC16FF030C170F03F
:100D500031C171F032C172F0000E0001736F000EEC
:100D6000746F800E756F3F0E766F9BECA6F00001DE
:100D7000D8B005D001012D07D8A02E0719D02FC15A
:100D80006FF030C170F031C171F032C172F0000EFD
:100D90000001736F000E746F200E756F410E766F39
:100DA0009BECA6F00001D8A003D001012D4B2E2B07
:100DB000010134BF08D00101345123E10D0E0101BE
:100DC000335DD8B01ED035C1A3F036C1A4F037C111
:100DD000A5F038C1A6F00101335197ECA1F096C0FF
:100DE000A7F097C0A8F098C0A9F099C0AAF041EC6C
:100DF00099F0A3C035F1A4C036F1A5C037F1A6C063
:100E000038F101012EBF08D001012E512EE10A0E4A
:100E100001012D5DD8B029D00101355101013611F4
:100E20000101371101013811D8B46DD035C1B7F0C7
:100E300036C1B8F037C1B9F038C1BAF08CECA9F0BE
:100E40000001B7510001B8110001B9110001BA1138
:100E5000D8A459D001012EBF56D001012E5105E171
:100E6000020E01012D5DD8A04ED02FC16FF030C110
:100E700070F031C171F032C172F05F0E0001736F1A
:100E8000700E746F890E756F400E766F9BECA6F036
:100E90000001D8B003D00101F70E02D00101F80E15
:100EA0002D27FF0E2E2301012D512EEC94F096C01C
:100EB0002FF197C030F198C031F199C032F135C1AE
:100EC0006FF036C170F037C171F038C172F02FC1C8
:100ED00073F030C174F031C175F032C176F063EC5B
:100EE000A7F06FC029F170C02AF171C02BF172C058
:100EF0002CF1000E0101356F000E366F000E376FBA
:100F0000000E386F3CD035C1B7F036C1B8F037C1EC
:100F1000B9F038C1BAF08CECA9F0B7C029F1B8C06B
:100F20002AF1B9C02BF1BAC02CF135C1B7F036C1E6
:100F3000B8F037C1B9F038C1BAF029C16FF02AC191
:100F400070F02BC171F02CC172F0000E02ECA4F015
:100F50006FC0BBF070C0BCF071C0BDF072C0BEF01D
:100F600091ECADF0B7C035F1B8C036F1B9C037F18A
:100F7000BAC038F1000E01012E6F000E2D6F010E68
:100F80000101396F0A0E01013919D8B421D00101CC
:100F90003951040D410EF324F66EFF0EF420F76E66
:100FA000F86A000EF8220900F5500101295D0900D8
:100FB000F55001012A590900F55001012B5909008A
:100FC000F55001012C59D8A003D00101392BDAD7F3
:100FD000030E010127150001C96F000E010128153C
:100FE0000001CA6F0001C9510001CA11D8B458D01C
:100FF000C1C0D9FFC2C0DAFF2D0E50D00001C14BD5
:10100000C22B4ED029C16FF02AC170F02BC171F0F4
:101010002CC172F001013951040D410EF324F66E1A
:10102000FF0EF420F76EF86A000EF8220900F5CFE3
:1010300073F00900F5CF74F00900F5CF75F00A00E0
:10104000F5CF76F048ECABF06FC02FF170C030F107
:1010500071C031F172C032F12FC16FF030C170F048
:1010600031C171F032C172F00A0E0001736F000ECF
:10107000746F000E756F000E766FA9ECACF06FC048
:101080002FF170C030F171C031F172C032F1010145
:101090002F51300FC1C0D9FFC2C0DAFFDF6EAED70B
:1010A0000101390701013929D8B40ED0ABD7C1C02D
:1010B000D9FFC2C0DAFF300EDF6E0001C14BC22B78
:1010C00001012D07D8A02E0701012EBF07D0010175
:1010D0002E51EDE101012D05D8B0E9D7010134BF52
:1010E0000CD00101345105E1090E0101335DD8A096
:1010F00004D0080E0101396F02D033C139F101016A
:1011000039510101335F000E010139BFFF0E0101AA
:10111000345B010139510101D8B409D0C1C0D9FFF4
:10112000C2C0DAFF2E0EDF6E0001C14BC22B0101DF
:1011300039512EEC94F096C021F197C022F198C05D
:1011400023F199C024F135C181F036C182F037C155
:1011500083F038C184F021C17DF022C17EF023C12B
:101160007FF024C180F095EC9BF07DC0B7F07EC08D
:10117000B8F07FC0B9F080C0BAF08CECA9F0B7C06D
:1011800029F1B8C02AF1B9C02BF1BAC02CF17AD03C
:1011900029C16FF02AC170F02BC171F02CC172F01F
:1011A00001013951040D410EF324F66EFF0EF420B7
:1011B000F76EF86A000EF8220900F5CF73F0090007
:1011C000F5CF74F00900F5CF75F00A00F5CF76F091
:1011D00048ECABF06FC02FF170C030F171C031F14D
:1011E00072C032F12FC16FF030C170F031C171F0B7
:1011F00032C172F00A0E0001736F000E746F000EA0
:10120000756F000E766FA9ECACF06FC02FF170C057
:1012100030F171C031F172C032F101012F51300F44
:10122000C1C0D9FFC2C0DAFFDF6E0001C14BC22BC3
:1012300029C16FF02AC170F02BC171F02CC172F07E
:1012400001013951040D410EF324F66EFF0EF42016
:10125000F76EF86A000EF8220900F5CF73F0090066
:10126000F5CF74F00900F5CF75F00A00F5CF76F0F0
:10127000A9ECACF06FC029F170C02AF171C02BF15C
:1012800072C02CF10101390701013929D8B40ED0FF
:101290007FD7C1C0D9FFC2C0DAFF300EDF6E0001B8
:1012A000C14BC22B01013307D8A0340701013351D0
:1012B00001013411D8B459D0ECD7010133510101E7
:1012C0003411D8A40DD00101295101012A110101C5
:1012D0002B1101012C11D8A403D00101334B342B65
:1012E000800E010139BF7F0E0001C96F010133512A
:1012F0000101395D01013451800A0001C959D8B09A
:1013000003D033C139F118D001013451800A0001F2
:10131000C96F010139510101335D800E010139BFEF
:101320007F0E0001C959D8B007D001013951010120
:10133000336F346B33BF3407030E010127150001EF
:10134000C96F000E010128150001CA6F0001C951C3
:101350000001CA11D8B409D0C1C0D9FFC2C0DAFF98
:101360002D0EDF6E0001C14BC22BC3C0F6FFC4C0FF
:10137000F7FF0001C34BC42B000EF86E0800F5CF39
:1013800039F101013951D8A48BEF85F0C1C0D9FFE3
:10139000C2C0DAFF000EDF6E12000F0140B73FD16E
:1013A00075C045FF000176AD03D00F01458D02D019
:1013B0000F01459D000176A779D000016F51000112
:1013C0007B6F7C6B7D6B7E6B7BC044FF000E0001EE
:1013D0006F1500017B6FFF0E0001701500017C6F1F
:1013E000000E0001711500017D6F000E00017215E5
:1013F00000017E6F7BC077F07CC078F07DC079F013
:101400007EC07AF078C077F079C078F07AC079F051
:1014100000017A6B77C07BF078C07CF079C07DF0FA
:101420007AC07EF07BC043FF000E0F01426F0F01B8
:101430004287000171A102D00F014281000171A316
:1014400002D00F014283000171A502D00F01428B2F
:10145000000171A702D00F01428D000171A902D0D5
:101460000F01428F6FC077F070C078F071C079F0D3
:1014700072C07AF0160E06D00001D8907A33793314
:1014800078337733E82EF8D777C07BF078C07CF0DC
:1014900079C07DF07AC07EF000017B5100017B6F46
:1014A0007C6B7D6B7E6B7BC041FF59D00F014297F7
:1014B0006FC077F070C078F071C079F072C07AF0C8
:1014C000040E06D00001D8907A337933783377331D
:1014D000E82EF8D777C07BF078C07CF079C07DF03B
:1014E0007AC07EF000017B5100017B6F7C6B7D6BCD
:1014F0007E6B7BC041FF070E00016F1500017B6F03
:10150000000E0001701500017C6F000E00017115C6
:1015100000017D6F000E0001721500017E6F7BC01F
:1015200077F07CC078F07DC079F07EC07AF0050E4F
:10153000D89000017737783779377A37E82EF8D79F
:1015400077C07BF078C07CF079C07DF07AC07EF007
:101550000F0142511F0B0F01426F7BC042FF000180
:1015600076A103D00F01408102D00F01409100010C
:1015700076A303D00F01408302D00F01409373C0C4
:10158000D9FF74C0DAFFDF500F01466F000120EE73
:1015900001F07351D9267451DA22DF500F01476FE1
:1015A000000120EE02F07351D9267451DA22DF5087
:1015B0000F01486F000120EE03F07351D9267451DA
:1015C000DA22DF500F01496F000120EE04F0735161
:1015D000D9267451DA22DF500F014A6F000120EE44
:1015E00005F07351D9267451DA22DF500F014B6F89
:1015F000000120EE06F07351D9267451DA22DF5033
:101600000F014C6F000120EE07F07351D926745181
:10161000DA22DF500F014D6F0F01408712000F01DA
:1016200030B73FD175C035FF000176AD03D00F0153
:10163000358D02D00F01359D000176A779D00001CC
:101640006F5100017B6F7C6B7D6B7E6B7BC034FFC9
:10165000000E00016F1500017B6FFF0E0001701579
:1016600000017C6F000E0001711500017D6F000EFE
:101670000001721500017E6F7BC077F07CC078F0AE
:101680007DC079F07EC07AF078C077F079C078F0CC
:101690007AC079F000017A6B77C07BF078C07CF07B
:1016A00079C07DF07AC07EF07BC033FF000E0F0161
:1016B000326F0F013287000171A102D00F01328118
:1016C000000171A302D00F013283000171A502D085
:1016D0000F01328B000171A702D00F01328D000182
:1016E00071A902D00F01328F6FC077F070C078F00F
:1016F00071C079F072C07AF0160E06D00001D89051
:101700007A33793378337733E82EF8D777C07BF0A4
:1017100078C07CF079C07DF07AC07EF000017B510A
:1017200000017B6F7C6B7D6B7E6B7BC031FF59D082
:101730000F0132976FC077F070C078F071C079F008
:1017400072C07AF0040E06D00001D8907A33793353
:1017500078337733E82EF8D777C07BF078C07CF009
:1017600079C07DF07AC07EF000017B5100017B6F73
:101770007C6B7D6B7E6B7BC031FF070E00016F15AC
:1017800000017B6F000E0001701500017C6F000EE0
:101790000001711500017D6F000E0001721500013E
:1017A0007E6F7BC077F07CC078F07DC079F07EC022
:1017B0007AF0050ED89000017737783779377A3785
:1017C000E82EF8D777C07BF078C07CF079C07DF048
:1017D0007AC07EF00F0132511F0B0F01326F7BC0B8
:1017E00032FF000176A103D00F01308102D00F013A
:1017F0003091000176A303D00F01308302D00F0196
:10180000309373C0D9FF74C0DAFFDF500F01366F19
:10181000000120EE01F07351D9267451DA22DF5015
:101820000F01376F000120EE02F07351D926745179
:10183000DA22DF500F01386F000120EE03F0735100
:10184000D9267451DA22DF500F01396F000120EEE2
:1018500004F07351D9267451DA22DF500F013A6F28
:10186000000120EE05F07351D9267451DA22DF50C1
:101870000F013B6F000120EE06F07351D926745121
:10188000DA22DF500F013C6F000120EE07F07351A8
:10189000D9267451DA22DF500F013D6F0F013087D6
:1018A00012000F0120B7120075C025FF000176ADB0
:1018B00003D00F01258D02D00F01259D000176A7D1
:1018C00079D000016F5100017B6F7C6B7D6B7E6B6B
:1018D0007BC024FF000E00016F1500017B6FFF0E1F
:1018E0000001701500017C6F000E000171150001F0
:1018F0007D6F000E0001721500017E6F7BC077F0D6
:101900007CC078F07DC079F07EC07AF078C077F046
:1019100079C078F07AC079F000017A6B77C07BF0FB
:1019200078C07CF079C07DF07AC07EF07BC023FF68
:10193000000E0F01226F0F012287000171A102D05A
:101940000F012281000171A302D00F012283000147
:1019500071A502D00F01228B000171A702D00F01E7
:10196000228D000171A902D00F01228F6FC077F084
:1019700070C078F071C079F072C07AF0160E06D09F
:101980000001D8907A33793378337733E82EF8D75B
:1019900077C07BF078C07CF079C07DF07AC07EF0B3
:1019A00000017B5100017B6F7C6B7D6B7E6B7BC08C
:1019B00021FF59D00F0122976FC077F070C078F0E7
:1019C00071C079F072C07AF0040E06D00001D89090
:1019D0007A33793378337733E82EF8D777C07BF0D2
:1019E00078C07CF079C07DF07AC07EF000017B5138
:1019F00000017B6F7C6B7D6B7E6B7BC021FF070ED4
:101A000000016F1500017B6F000E000170150001D1
:101A10007C6F000E0001711500017D6F000E00014A
:101A2000721500017E6F7BC077F07CC078F07DC0BE
:101A300079F07EC07AF0050ED890000177377837BC
:101A400079377A37E82EF8D777C07BF078C07CF00A
:101A500079C07DF07AC07EF00F0122511F0B0F017B
:101A6000226F7BC022FF000176A103D00F012081ED
:101A700002D00F012091000176A303D00F01208333
:101A800002D00F01209373C0D9FF74C0DAFFDF507A
:101A90000F01266F000120EE01F07351D926745119
:101AA000DA22DF500F01276F000120EE02F07351A0
:101AB000D9267451DA22DF500F01286F000120EE81
:101AC00003F07351D9267451DA22DF500F01296FC8
:101AD000000120EE04F07351D9267451DA22DF5050
:101AE0000F012A6F000120EE05F07351D9267451C1
:101AF000DA22DF500F012B6F000120EE06F0735148
:101B0000D9267451DA22DF500F012C6F000120EE2C
:101B100007F07351D9267451DA22DF500F012D6F6F
:101B20000F012087120088ECAAF08C8C8C8A010EA1
:101B30000001766FF40E756FF4ECADF08C9C8C9A0E
:101B4000CF0E0001CB6FF70ECC6F330ECD6F3F0E73
:101B5000CE6F000E0001CF6F000ED06F200ED16F40
:101B6000410ED26F4C8CEEECAEF018ECAFF00AECFC
:101B7000AFF04DB09BD0010E0001E36F000E0001ED
:101B8000E26F000EE16F5A0E0001E96F000E0001D6
:101B9000E76F010E0001E86FA6ECABF0100E27EC2A
:101BA000A8F0010E12ECAAF0A80E0001806FFF0E43
:101BB0000001816F48ECAEF0020E12ECAAF07E0E2E
:101BC0000001806FFF0E0001816F48ECAEF0030E44
:101BD00012ECAAF0690E0001806FFF0E0001816F08
:101BE00048ECAEF0040E12ECAAF0A80E0001806FD3
:101BF000FF0E0001816F48ECAEF054D0D3C03AF133
:101C0000D4C03BF1D5C03CF1D6C03DF101013A1F33
:101C10003B1F3C1F3D1F3A2B000E3B233C233D2323
:101C2000205001013A2501013E6F215001013B2165
:101C300001013F6F225001013C210101406F2350FF
:101C400001013D210101416F01014151010140119B
:101C500001013F1105E11E0E01013E5DD8A019D022
:101C600020C0D3F021C0D4F022C0D5F023C0D6F0DC
:101C700083AE02D0010E01D0000EFF0A01013A6FBF
:101C800001013A333A33835001013A197F0B3A1973
:101C9000836EEEECAEF0000E0001766F0A0E756FEB
:101CA000F4ECADF04DA0AAD7839E4C8C41ECADF086
:101CB00080A404D0000E0001E66F0DD080B605D0E0
:101CC000010E0001E66F010E04D0020E0001E66F66
:101CD000000E0001E36F4CA2F0D04D9A18C03AF10B
:101CE00019C03BF11AC03CF11BC03DF101013A1F84
:101CF0003B1F3C1F3D1F3A2B000E3B233C233D2343
:101D0000205001013A2501013E6F215001013B2184
:101D100001013F6F225001013C210101406F23501E
:101D200001013D210101416F0101415101014011BA
:101D300001013F1105E11E0E01013E5DD8A01AD040
:101D400020C018F021C019F022C01AF023C01BF0E7
:101D500083AC02D0010E01D0000EFF0A01013A6FE0
:101D600001013A3B3A473A47835001013A19BF0B08
:101D70003A19836E4DA84CB42FD0010E0001E56FC7
:101D8000000E0001CF6F000ED06F000ED16F400E1D
:101D9000D26FBCECAEF00009D8B4FBD7010E000145
:101DA000E46F0A0E00016F6F000E706F000E716F0E
:101DB000000E726F0001E45101013A6F3B6B3AC1B2
:101DC00073F03BC174F0080E0001756FBC0E00018A
:101DD000766FCDEC89F04D884CA4A7D01CC03AF1A9
:101DE0001DC03BF11EC03CF11FC03DF101013A1F77
:101DF0003B1F3C1F3D1F3A2B000E3B233C233D2342
:101E0000205001013A2501013E6F215001013B2183
:101E100001013F6F225001013C210101406F23501D
:101E200001013D210101416F0101415101014011B9
:101E300001013F1105E11E0E01013E5DD8A019D040
:101E400020C01CF021C01DF022C01EF023C01FF0D6
:101E500083AA02D0010E01D0000EFF0A01013A6FE1
:101E600001013A3B3A47835001013A19DF0B3A1915
:101E7000836E4DBC5AD0020E0001E56FBCECAEF093
:101E80000009D8B4FBD70B0E00016F6F000E706F06
:101E9000000E716F000E726F2A0E0001736F000E3C
:101EA0000001746F080E0001756FBC0E0001766FA3
:101EB000CDEC89F04D984D8C38D04D984D9C4C947C
:101EC000839A839C4DBA2FD0000E0001E56F000E5F
:101ED0000001CF6F000ED06F200ED16F410ED26F78
:101EE000BCECAEF00009D8B4FBD7000E0001E46FE3
:101EF0000A0E00016F6F000E706F000E716F000E02
:101F0000726F0001E45101013A6F3B6B3AC173F00B
:101F10003BC174F0080E0001756FBC0E0001766FB6
:101F2000CDEC89F04D8A839C839A000E0001A76F47
:101F3000000EA86F340EA96F430EAA6FCBC081F0BC
:101F4000CCC082F0CDC083F0CEC084F00001DB5164
:101F500000016F6F706B716B726B000E02ECA4F07E
:101F60006FC07DF070C07EF071C07FF072C080F0F5
:101F700095EC9BF07DC096F07EC097F07FC098F006
:101F800080C099F011ECAEF096C0A3F097C0A4F019
:101F900098C0A5F099C0A6F041EC99F0A3C0B7F0A5
:101FA000A4C0B8F0A5C0B9F0A6C0BAF08CECA9F0F6
:101FB0000001B7510001E96F0001E651D8B488D0A3
:101FC000840E0001DC6542D0CFC081F0D0C082F029
:101FD000D1C083F0D2C084F07E0E01013A6FFF0EB3
:101FE00001013B6F0001DC5101013C6F3D6B0101C0
:101FF0003A5101013C2701013B5101013D233CC104
:102000006FF03DC170F00001000E70BFFF0E716FE8
:10201000726F010E02ECA4F06FC07DF070C07EF014
:1020200071C07FF072C080F095EC9BF07DC0B7F07E
:102030007EC0B8F07FC0B9F080C0BAF08CECA9F0D7
:10204000B7C0E1F0B8C0E2F0000E40D0000E0001D1
:10205000E26F000EE16F330E0001816F330E826F6D
:10206000F30E836F3F0E846F0001DC5101013A6F64
:102070003B6B01013A1F3B1F3A4B3B2B820E010188
:102080003A27000E3B233AC16FF03BC170F00001CC
:10209000000E70BFFF0E716F726F010E02ECA4F0A4
:1020A0006FC07DF070C07EF071C07FF072C080F0B4
:1020B00095EC9BF07DC0B7F07EC0B8F07FC0B9F062
:1020C00080C0BAF08CECA9F00001B7510001E76FB5
:1020D0004CAE03D003ECACF04C9ED7C03AF1D8C064
:1020E0003BF1D9C03CF1DAC03DF101013A1F3B1F81
:1020F0003C1F3D1F3A2B000E3B233C233D23205029
:1021000001013A2501013E6F215001013B210101EE
:102110003F6F225001013C210101406F235001011A
:102120003D210101416F01014151010140110101B6
:102130003F1105E1020E01013E5DD8A00AD020C08A
:10214000D7F021C0D8F022C0D9F023C0DAF0A6EC35
:10215000ABF010C03AF111C03BF112C03CF113C01A
:102160003DF101013A1F3B1F3C1F3D1F3A2B000E62
:102170003B233C233D23205001013A2501013E6FC2
:10218000215001013B2101013F6F225001013C21FF
:102190000101406F235001013D210101416F010107
:1021A00041510101401101013F1105E10A0E0101F8
:1021B0003E5DD8A0D8D420C010F021C011F022C0BC
:1021C00012F023C013F012ECA3F0CDD40F0140B7EE
:1021D00015D142C045FF43AC03D00F01458D02D05D
:1021E0000F01459D43A666D03C50486E496A4A6A35
:1021F0004B6A48C044FF000E3C14486EFF0E3D146D
:10220000496E000E3E144A6E000E3F144B6E48C0DD
:1022100044F049C045F04AC046F04BC047F045C0C5
:1022200044F046C045F047C046F0476A44C048F015
:1022300045C049F046C04AF047C04BF048C043FF94
:10224000000E0F01426F0F0142873EA002D00F0126
:1022500042813EA202D00F0142833EA402D00F0170
:10226000428B3EA602D00F01428D3EA802D00F0144
:10227000428F3CC044F03DC045F03EC046F03FC0F8
:1022800047F0160E05D0D8904732463245324432D8
:10229000E82EF9D744C048F045C049F046C04AF09E
:1022A00047C04BF04850486E496A4A6A4B6A48C07A
:1022B00041FF4DD00F0142973CC044F03DC045F076
:1022C0003EC046F03FC047F0040E05D0D8904732DC
:1022D000463245324432E82EF9D744C048F045C072
:1022E00049F046C04AF047C04BF04850486E496A32
:1022F0004A6A4B6A48C041FF070E3C14486E000E04
:102300003D14496E000E3E144A6E000E3F144B6E93
:1023100048C044F049C045F04AC046F04BC047F0C1
:10232000050ED8904436453646364736E82EF9D75E
:1023300044C048F045C049F046C04AF047C04BF0A1
:102340000F0142511F0B0F01426F48C042FF43A0D3
:1023500003D00F01408102D00F01409143A203D06E
:102360000F01408302D00F01409340C0D9FF41C00C
:10237000DAFFDF500F01466F20EE01F04050D92602
:102380004150DA22DF500F01476F20EE02F040503B
:10239000D9264150DA22DF500F01486F20EE03F0BA
:1023A0004050D9264150DA22DF500F01496F20EE0C
:1023B00004F04050D9264150DA22DF500F014A6F15
:1023C00020EE05F04050D9264150DA22DF500F01AF
:1023D0004B6F20EE06F04050D9264150DA22DF50F4
:1023E0000F014C6F20EE07F04050D9264150DA2201
:1023F000DF500F014D6F0F01408712000F0130B702
:1024000015D142C035FF43AC03D00F01358D02D04A
:102410000F01359D43A666D03C50486E496A4A6A12
:102420004B6A48C034FF000E3C14486EFF0E3D144A
:10243000496E000E3E144A6E000E3F144B6E48C0AB
:1024400044F049C045F04AC046F04BC047F045C093
:1024500044F046C045F047C046F0476A44C048F0E3
:1024600045C049F046C04AF047C04BF048C033FF72
:10247000000E0F01326F0F0132873EA002D00F0114
:1024800032813EA202D00F0132833EA402D00F015E
:10249000328B3EA602D00F01328D3EA802D00F0132
:1024A000328F3CC044F03DC045F03EC046F03FC0D6
:1024B00047F0160E05D0D8904732463245324432A6
:1024C000E82EF9D744C048F045C049F046C04AF06C
:1024D00047C04BF04850486E496A4A6A4B6A48C048
:1024E00031FF4DD00F0132973CC044F03DC045F064
:1024F0003EC046F03FC047F0040E05D0D8904732AA
:10250000463245324432E82EF9D744C048F045C03F
:1025100049F046C04AF047C04BF04850486E496AFF
:102520004A6A4B6A48C031FF070E3C14486E000EE1
:102530003D14496E000E3E144A6E000E3F144B6E61
:1025400048C044F049C045F04AC046F04BC047F08F
:10255000050ED8904436453646364736E82EF9D72C
:1025600044C048F045C049F046C04AF047C04BF06F
:102570000F0132511F0B0F01326F48C032FF43A0D1
:1025800003D00F01308102D00F01309143A203D05C
:102590000F01308302D00F01309340C0D9FF41C0FA
:1025A000DAFFDF500F01366F20EE01F04050D926E0
:1025B0004150DA22DF500F01376F20EE02F0405019
:1025C000D9264150DA22DF500F01386F20EE03F098
:1025D0004050D9264150DA22DF500F01396F20EEEA
:1025E00004F04050D9264150DA22DF500F013A6FF3
:1025F00020EE05F04050D9264150DA22DF500F017D
:102600003B6F20EE06F04050D9264150DA22DF50D1
:102610000F013C6F20EE07F04050D9264150DA22DE
:10262000DF500F013D6F0F01308712000F0120B7FF
:10263000120042C025FF43AC03D00F01258D02D00C
:102640000F01259D43A666D03C50486E496A4A6AF0
:102650004B6A48C024FF000E3C14486EFF0E3D1428
:10266000496E000E3E144A6E000E3F144B6E48C079
:1026700044F049C045F04AC046F04BC047F045C061
:1026800044F046C045F047C046F0476A44C048F0B1
:1026900045C049F046C04AF047C04BF048C023FF50
:1026A000000E0F01226F0F0122873EA002D00F0102
:1026B00022813EA202D00F0122833EA402D00F014C
:1026C000228B3EA602D00F01228D3EA802D00F0120
:1026D000228F3CC044F03DC045F03EC046F03FC0B4
:1026E00047F0160E05D0D890473246324532443274
:1026F000E82EF9D744C048F045C049F046C04AF03A
:1027000047C04BF04850486E496A4A6A4B6A48C015
:1027100021FF4DD00F0122973CC044F03DC045F051
:102720003EC046F03FC047F0040E05D0D890473277
:10273000463245324432E82EF9D744C048F045C00D
:1027400049F046C04AF047C04BF04850486E496ACD
:102750004A6A4B6A48C021FF070E3C14486E000EBF
:102760003D14496E000E3E144A6E000E3F144B6E2F
:1027700048C044F049C045F04AC046F04BC047F05D
:10278000050ED8904436453646364736E82EF9D7FA
:1027900044C048F045C049F046C04AF047C04BF03D
:1027A0000F0122511F0B0F01226F48C022FF43A0CF
:1027B00003D00F01208102D00F01209143A203D04A
:1027C0000F01208302D00F01209340C0D9FF41C0E8
:1027D000DAFFDF500F01266F20EE01F04050D926BE
:1027E0004150DA22DF500F01276F20EE02F04050F7
:1027F000D9264150DA22DF500F01286F20EE03F076
:102800004050D9264150DA22DF500F01296F20EEC7
:1028100004F04050D9264150DA22DF500F012A6FD0
:1028200020EE05F04050D9264150DA22DF500F014A
:102830002B6F20EE06F04050D9264150DA22DF50AF
:102840000F012C6F20EE07F04050D9264150DA22BC
:10285000DF500F012D6F0F012087120000019E6FC6
:1028600000019EAF45D100019E6D00019E51800A7E
:10287000120FD8A0BBD0000E0001786F0A0E776F40
:10288000000E0001726F640E716F00019E51000115
:102890006F6F706B6FBF700758ECACF06FC075F066
:1028A00070C076F0E9ECAAF00001D8907537763761
:1028B0000001D89075377637240E00017527000E79
:1028C00000017623D90E00017525F66EFE0E00017B
:1028D0007621F76EF86A000EF8220900F5CF81F034
:1028E0000900F5CF82F00900F5CF83F00A00F5CF9B
:1028F00084F0000E0001786F640E776F00019E5126
:102900000001756F766B75BF7607E9ECAAF00001E0
:10291000D890753776370001D89075377637480EDE
:1029200000017527000E00017623D90E00017525E0
:10293000F66EFE0E00017621F76EF86A000EF822A0
:102940000900F5CF7DF00900F5CF7EF00900F5CF45
:102950007FF00A00F5CF80F095EC9BF07DC09AF0F7
:102960007EC09BF07FC09CF080C09DF09AC07DF03F
:102970009BC07EF09CC07FF09DC080F0000E0001E7
:10298000726F0A0E716F00019E5100016F6F706BC4
:102990006FBF700758ECACF00001D8906F377037FC
:1029A0000001D8906F377037D90E00016F25F66E91
:1029B000FE0E00017021F76EF86A000EF822090081
:1029C000F5CF81F00900F5CF82F00900F5CF83F053
:1029D0000A00F5CF84F095EC9BF07DC096F07EC0A8
:1029E00097F07FC098F080C099F0120000019E51CE
:1029F000800A750FD8A063D0000E0001786F0A0E10
:102A0000776F00019E510001756F766B75BF760779
:102A1000E9ECAAF00001D890753776370001D8901C
:102A200075377637240E00017527000E00017623D6
:102A3000D90E00017525F66EFE0E00017621F76EA7
:102A4000F86A000EF8220900F5CF7DF00900F5CFF5
:102A50007EF00900F5CF7FF00A00F5CF80F0000E80
:102A60000001726F0A0E716F00019E5100016F6FBD
:102A7000706B6FBF700758ECACF00001D8906F37E7
:102A800070370001D8906F377037D90E00016F256D
:102A9000F66EFE0E00017021F76EF86A000EF82245
:102AA0000900F5CF81F00900F5CF82F00900F5CFDC
:102AB00083F00A00F5CF84F095EC9BF08ED70001EF
:102AC0009E51040DD90EF324F66EFE0EF420F76E1F
:102AD000F86A000EF8220900F5CF96F00900F5CF4C
:102AE00097F00900F5CF98F00A00F5CF99F01200A1
:102AF00000019E51800A120FD8A0BBD0000E000129
:102B0000786F0A0E776F000E0001726F640E716F9E
:102B100000019E5100016F6F706B6FBF700758EC22
:102B2000ACF06FC075F070C076F0E9ECAAF000016F
:102B3000D890753776370001D89075377637240EE0
:102B400000017527000E000176230D0E000175258A
:102B5000F66EFF0E00017621F76EF86A000EF8227D
:102B60000900F5CF81F00900F5CF82F00900F5CF1B
:102B700083F00A00F5CF84F0000E0001786F640E38
:102B8000776F00019E510001756F766B75BF7607F8
:102B9000E9ECAAF00001D890753776370001D8909B
:102BA00075377637480E00017527000E0001762331
:102BB0000D0E00017525F66EFF0E00017621F76EF1
:102BC000F86A000EF8220900F5CF7DF00900F5CF74
:102BD0007EF00900F5CF7FF00A00F5CF80F095EC8C
:102BE0009BF07DC09AF07EC09BF07FC09CF080C0BF
:102BF0009DF09AC07DF09BC07EF09CC07FF09DC090
:102C000080F0000E0001726F0A0E716F00019E517C
:102C100000016F6F706B6FBF700758ECACF0000174
:102C2000D8906F3770370001D8906F3770370D0E1E
:102C300000016F25F66EFF0E00017021F76EF86A35
:102C4000000EF8220900F5CF81F00900F5CF82F0DF
:102C50000900F5CF83F00A00F5CF84F095EC9BF0E6
:102C60007DC096F07EC097F07FC098F080C099F04C
:102C7000120000019E51800A750FD8A063D0000E8B
:102C80000001786F0A0E776F00019E510001756F89
:102C9000766B75BF7607E9ECAAF00001D89075371E
:102CA00076370001D89075377637240E00017527E6
:102CB000000E000176230D0E00017525F66EFF0E45
:102CC00000017621F76EF86A000EF8220900F5CFB0
:102CD0007DF00900F5CF7EF00900F5CF7FF00A0006
:102CE000F5CF80F0000E0001726F0A0E716F0001C7
:102CF0009E5100016F6F706B6FBF700758ECACF0A6
:102D00000001D8906F3770370001D8906F37703757
:102D10000D0E00016F25F66EFF0E00017021F76E9B
:102D2000F86A000EF8220900F5CF81F00900F5CF0E
:102D300082F00900F5CF83F00A00F5CF84F095EC1E
:102D40009BF08ED700019E51040D0D0EF324F66EFC
:102D5000FF0EF420F76EF86A000EF8220900F5CF96
:102D600096F00900F5CF97F00900F5CF98F00A002A
:102D7000F5CF99F01200000E466E74BE468074BC0A
:102D800046820F0150AF43D13CC0D9FF3DC0DAFFAE
:102D9000DE6ADE6ADE6ADD6A20EE04F03C50D92687
:102DA0003D50DA2256CFDFFF20EE05F03C50D92609
:102DB0003D50DA2257CFDFFF20EE06F03C50D926F7
:102DC0003D50DA2258CFDFFF20EE07F03C50D926E5
:102DD0003D50DA2259CFDFFF20EE08F03C50D926D3
:102DE0003D50DA225ACFDFFF20EE09F03C50D926C1
:102DF0003D50DA225BCFDFFF20EE0AF03C50D926AF
:102E00003D50DA225CCFDFFF20EE0BF03C50D9269C
:102E10003D50DA225DCFDFFF20EE0EF03C50D92688
:102E20003D50DA220F0155AD02D0010E01D0000E47
:102E3000DF6E20EE0DF03C50D9263D50DA220F0116
:102E400055510F0BDF6E20EE0CF03C50D9263D5053
:102E5000DA220F0152A702D0010E01D0000EDF6E60
:102E60000F0152B744D051CF3EF03F6A406A416AE9
:102E7000030ED8903E363F3640364136E82EF9D71D
:102E80003CC0D9FF3DC0DAFF3EC0DEFF3FC0DEFFE1
:102E900040C0DEFF41C0DEFF0F015239E842070BA0
:102EA000070B476E3CC0D9FF3DC0DAFFDECF3EF0D6
:102EB000DECF3FF0DECF40F0DECF41F047503E2482
:102EC000426E000E3F20436E000E4020446E000E06
:102ED0004120456E3CC0D9FF3DC0DAFF42C0DEFF55
:102EE00043C0DEFF44C0DEFF45C0DEFF8DD054CFBF
:102EF0003EF03F6A406A416A3CC0D9FF3DC0DAFFFC
:102F00003EC0DEFF3FC0DEFF40C0DEFF41C0DEFF4F
:102F100053CF3EF03F6A406A416A40C041F03FC033
:102F200040F03EC03FF03E6A3CC0D9FF3DC0DAFFF2
:102F30003E50DE263F50DE224050DE224150DE224F
:102F40000F0152A10CD03CC0D9FF3DC0DAFF000EEA
:102F5000DE12000EDE12010EDE12000EDE120F0176
:102F600052A30CD03CC0D9FF3DC0DAFF000EDE12E8
:102F7000000EDE12020EDE12000EDE120F0152AB48
:102F80000CD03CC0D9FF3DC0DAFF000EDE12000EAF
:102F9000DE12040EDE12000EDE120F0152AD0CD056
:102FA0003CC0D9FF3DC0DAFF000EDE12000EDE127B
:102FB000080EDE12000EDE120F0152AF0CD03CC024
:102FC000D9FF3DC0DAFF000EDE12000EDE12100E39
:102FD000DE12000EDE1251CF3EF03F6A406A416AB7
:102FE000150ED8903E363F3640364136E82EF9D79A
:102FF0003CC0D9FF3DC0DAFF3E50DE123F50DE122A
:103000004050DE124150DE120F01509F120060AEA0
:1030100012003CC0D9FF3DC0DAFFDE6ADE6ADE6A1C
:10302000DD6A20EE04F03C50D9263D50DA2266CF0E
:10303000DFFF20EE05F03C50D9263D50DA2267CF65
:10304000DFFF20EE06F03C50D9263D50DA2268CF53
:10305000DFFF20EE07F03C50D9263D50DA2269CF41
:10306000DFFF20EE08F03C50D9263D50DA226ACF2F
:10307000DFFF20EE09F03C50D9263D50DA226BCF1D
:10308000DFFF20EE0AF03C50D9263D50DA226CCF0B
:10309000DFFF20EE0BF03C50D9263D50DA226DCFF9
:1030A000DFFF20EE0EF03C50D9263D50DA2265AC11
:1030B00002D0010E01D0000EDF6E20EE0DF03C506C
:1030C000D9263D50DA2265500F0BDF6E20EE0CF052
:1030D0003C50D9263D50DA2262A602D0010E01D022
:1030E000000EDF6E62B643D061CF3EF03F6A406AA9
:1030F000416A030ED8903E363F3640364136E82EC0
:10310000F9D73CC0D9FF3DC0DAFF3EC0DEFF3FC06B
:10311000DEFF40C0DEFF41C0DEFF6238E842070B41
:10312000070B476E3CC0D9FF3DC0DAFFDECF3EF053
:10313000DECF3FF0DECF40F0DECF41F047503E24FF
:10314000426E000E3F20436E000E4020446E000E83
:103150004120456E3CC0D9FF3DC0DAFF42C0DEFFD2
:1031600043C0DEFF44C0DEFF45C0DEFF88D064CF31
:103170003EF03F6A406A416A3CC0D9FF3DC0DAFF79
:103180003EC0DEFF3FC0DEFF40C0DEFF41C0DEFFCD
:1031900063CF3EF03F6A406A416A40C041F03FC0A1
:1031A00040F03EC03FF03E6A3CC0D9FF3DC0DAFF70
:1031B0003E50DE263F50DE224050DE224150DE22CD
:1031C00062A00CD03CC0D9FF3DC0DAFF000EDE1279
:1031D000000EDE12010EDE12000EDE1262A20CD014
:1031E0003CC0D9FF3DC0DAFF000EDE12000EDE1239
:1031F000020EDE12000EDE1262AA0CD03CC0D9FF15
:103200003DC0DAFF000EDE12000EDE12040EDE12EA
:10321000000EDE1262AC0CD03CC0D9FF3DC0DAFF1C
:10322000000EDE12000EDE12080EDE12000EDE129E
:1032300062AE0CD03CC0D9FF3DC0DAFF000EDE12FA
:10324000000EDE12100EDE12000EDE1261CF3EF016
:103250003F6A406A416A150ED8903E363F36403686
:103260004136E82EF9D73CC0D9FF3DC0DAFF3E50C9
:10327000DE123F50DE124050DE124150DE12609EE0
:1032800012000001A651800B0001B36F0001A6518E
:10329000A6250001B56F0001A5AF02D00001B581E0
:1032A0000001B5510001D8B412D00001B529D8A44D
:1032B00009D0000E0001A36F000EA46F000EA56FD1
:1032C000000EA66F0001A58F000E000108D0000EB1
:1032D0000001A36F000EA46F000EA56F000EA66F75
:1032E0000001AA51800B0001B46F0001B35100012D
:1032F000B419D8B402D00001B38D0001AA51AA2597
:103300000001B46F0001A9AF02D00001B481000137
:10331000B4510001D8B412D00001B429D8A409D006
:10332000000E0001A76F000EA86F000EA96F000E1F
:10333000AA6F0001A98F000E000108D0000E000145
:10334000A76F000EA86F000EA96F000EAA6F0001F4
:10335000B5510001B45DD8B024D00001B3AD03D0A5
:10336000800E0001B31BB5C0B6F0B4C0B5F0B6C056
:10337000B4F0A3C0B6F0A7C0A3F0B6C0A7F0A4C035
:10338000B6F0A8C0A4F0B6C0A8F0A5C0B6F0A9C019
:10339000A5F0B6C0A9F0A6C0B6F0AAC0A6F0B6C007
:1033A000AAF0000E0001B66F0001B5510001AB6F2D
:1033B000AC6B0001AB1FAC1FAB4BAC2B0001B4518D
:1033C0000001AD6FAE6B0001AB510001AD270001F4
:1033D000AC510001AE230001AEBF3DD00001AE51A3
:1033E00005E11A0E0001AD5DD8A035D00001A35152
:1033F0000001A4110001A5110001A611D8B402D04A
:10340000010E01D0000E0001B66F000E0001A36F87
:10341000000EA46F000EA56F000EA66FB4C0B5F02D
:1034200020D00001B6A107D00001D890B631010923
:103430000001B66F03D00001D890B6330001A3A1FC
:1034400002D00001B68F0001A635A633A533A43300
:10345000A3330001B52B0001B4510001B55DD8A024
:10346000E0D70001B3BD3FD00001B5510001D8A4A1
:103470000AD0000E0001A36F000EA46F000EA56F0E
:10348000000EA66F12000001A7510001A327000142
:10349000A8510001A4230001A9510001A5230001A6
:1034A000AA510001A6230001A6A1CCD00001B6A11B
:1034B00009D00001D890B6330001B65101090001CE
:1034C000B66F03D00001D890B6330001A3A102D09B
:1034D0000001B68F0001A635A633A533A433A3336C
:1034E0000001B52BAFD00001A7510001A35D000181
:1034F000A8510001A4590001A9510001A5590001DA
:10350000A651800A0001AB6F0001AA51800A000198
:10351000AB59D8B050D0A3C0ABF0A4C0ACF0A5C09C
:10352000ADF0A6C0AEF00001AB1FAC1FAD1FAE1FCB
:10353000AB2B000EAC23AD23AE230001A75100013D
:10354000AB250001AF6F0001A8510001AC210001C3
:10355000B06F0001A9510001AD210001B16F000160
:10356000AA510001AE210001B26FFF0E0001AF258C
:103570000001A36FFF0E0001B0210001A46FFF0E38
:103580000001B1210001A56FFF0E0001B221000171
:10359000A66F800E0001B31B0001B66D0001B6518D
:1035A0000001D8A418D0010E0001A327000EA42307
:1035B000A523A62310D00001A7510001A35F00019D
:1035C000A8510001A45B0001A9510001A55B000105
:1035D000AA510001A65B0001A3510001A411000142
:1035E000A5110001A611D8A42AD00001B6510001EE
:1035F000D8A425D0000E0001A36F000EA46F000E0A
:10360000A56F000EA66F12000001D890A337A43753
:10361000A537A6370001B6AF02D00001A381000193
:10362000B6A103D0D880000102D00001D890B637EF
:103630000001B5510001D8B402D00001B507000166
:10364000A5AFE2D7000E0001B46F0001B6AF0DD0F8
:10365000B6C0ABF07F0E0001AB17D8A403D00001B9
:10366000A3A103D0010E0001B46F0001B451000109
:10367000D8B426D0010E0001A327000EA423A52351
:10368000A6230001A6A11CD0A3C0ABF0A4C0ACF03F
:10369000A5C0ADF0A6C0AEF00001AE35AE33AD337F
:1036A000AC33AB33ABC0A3F0ACC0A4F0ADC0A5F05D
:1036B000AEC0A6F00001B529D8B402D00001B52BE8
:1036C0000001B529D8B405D00001B5510001D8A436
:1036D00011D0000E0001A36F000EA46F000EA56FA5
:1036E000000EA66F0001B5510001D8A403D0000E52
:1036F0000001B36F0001B5A103D00001A58F02D076
:103700000001A59F0001D890B5310001A66F00010E
:10371000B3AF02D00001A68FA3C0A3F0A4C0A4F051
:10372000A5C0A5F0A6C0A6F0120000018051800B34
:103730000001896F00018051802500018F6F000119
:103740007FAF02D000018F8100018F510001D8B4FA
:1037500010D000018F29D8A409D0000E00017D6F80
:10376000000E7E6F000E7F6F000E806F00017F8F56
:1037700009D0000E00017D6F000E7E6F000E7F6F7E
:10378000000E806F00018451800B0001891B000135
:103790008451842500018A6F000183AF02D00001AB
:1037A0008A8100018A510001D8B410D000018A2911
:1037B000D8A409D0000E0001816F000E826F000EA8
:1037C000836F000E846F0001838F09D0000E00010B
:1037D000816F000E826F000E836F000E846F0001F8
:1037E0008A510001D8B405D000018F510001D8A43E
:1037F0000AD0000E00017D6F000E7E6F000E7F6FFD
:10380000000E806F12000001835100017D03F3CF91
:1038100094F0F4CF95F00001945100018B6F8C6B04
:103820008D6B8E6B000195510001906F916B926BC7
:10383000936B0001825100017E03F3CF94F0F4CF2B
:1038400095F00001945100018B27000E8C238D23ED
:103850008E230001955100019027000E91239223A1
:1038600093230001815100017F03F3CF94F0F4CF43
:1038700095F00001945100018B27000E8C238D23BD
:103880008E230001955100019027000E9123922371
:1038900093238DC08EF08CC08DF08BC08CF0000116
:1038A0008B6B0001815100017E03F3CF94F0F4CFC4
:1038B00095F00001945100018B2700019551000102
:1038C0008C23000E00018D23000E00018E230001C9
:1038D000825100017D03F3CF94F0F4CF95F0000105
:1038E000945100018B270001955100018C23000E9B
:1038F00000018D23000E00018E238DC08EF08CC040
:103900008DF08BC08CF000018B6B000181510001A8
:103910007D03F3CF94F0F4CF95F0000194510001B2
:103920008B270001955100018C23000E00018D238F
:10393000000E00018E230001835100017E03F3CFAE
:1039400094F0F4CF95F0000194510001902700010C
:10395000955100019123000E00019223000E0001F9
:1039600093230001825100017F03F3CF94F0F4CF41
:1039700095F000019451000190270001955100013C
:103980009123000E00019223000E000193230001F9
:10399000835100017F03F3CF94F0F4CF95F0000141
:1039A00094510001856F000195510001866F00015F
:1039B000876B0001886B87C088F086C087F085C060
:1039C00086F00001856B0001855100019027000100
:1039D00086510001912300018751000192230001CB
:1039E0008851000193238BC085F08CC086F08DC078
:1039F00087F08EC088F0190E06D00001D890883369
:103A0000873386338533E82EF8D7000185510001CE
:103A10009027000186510001912300018751000188
:103A2000922300018851000193238DC08EF08CC039
:103A30008DF08BC08CF000018B6B00018A518FC020
:103A400085F00001866B00018527000E8623820E1B
:103A5000000185250001946FFF0E00018621000101
:103A6000956F15D00001D8909037913792379337E2
:103A700000018EAF02D0000190810001D8908B37F9
:103A80008C378D378E3700019407D8A09507000139
:103A900092AFE8D7000E00018A6F00018EAF24D0EC
:103AA000FF0E00018B150001856FFF0E00018C15C4
:103AB0000001866FFF0E00018D150001876F7F0EDC
:103AC00000018E150001886F0001855100018611EB
:103AD0000001871100018811D8A403D0000190A132
:103AE00003D0010E00018A6F00018A510001D8B491
:103AF00023D0010E00019027000E912392239323DF
:103B0000000193A119D090C085F091C086F092C0B9
:103B100087F093C088F00001883588338733863377
:103B2000853385C090F086C091F087C092F088C040
:103B300093F00001944B952B000195BF10D000012C
:103B4000955104E100019429D8A009D0000E00018C
:103B5000906F000E916F800E926F7F0E2BD0000140
:103B600095BF07D00001955111E100019405D8B02F
:103B70000DD0000E0001906F000E916F000E926F3D
:103B8000000E936F000E0001896F15D094C08FF066
:103B9000FF0E00019017FF0E91177F0E9217000E77
:103BA000931700018FA102D00001928F0001D890DD
:103BB0008F310001936F000189510001931390C070
:103BC0007DF091C07EF092C07FF093C080F0120033
:103BD00000018051800B0001896F00018051802518
:103BE0000001946F00017FAF02D0000194810001B9
:103BF00094510001D8B412D000019429D8A409D05E
:103C0000000E00017D6F000E7E6F000E7F6F000EB4
:103C1000806F00017F8F000E000108D0000E0001B0
:103C20007D6F000E7E6F000E7F6F000E806F0001B3
:103C30008451800B0001891B0001845184250001FF
:103C4000956F000183AF02D000019581000195516D
:103C50000001D8B412D000019529D8A409D0000ED3
:103C60000001816F000E826F000E836F000E846F63
:103C70000001838F000E000108D0000E0001816F4B
:103C8000000E826F000E836F000E846F0001815161
:103C9000000182110001831100018411D8A417D002
:103CA000000E00017D6F000E7E6F000E7F6F000E14
:103CB000806F0001800E7F137F0E80137DC07DF02A
:103CC0007EC07EF07FC07FF080C080F012000001D7
:103CD00094510001D8A412D0000E00017D6F000E97
:103CE0007E6F000E7F6F000E806F7DC07DF07EC006
:103CF0007EF07FC07FF080C080F0120000019551FF
:103D00000001856F866B0001851F861F854B862B02
:103D1000000194510001876F886B000185510001FB
:103D2000872700018651000188237F0E0001872527
:103D300000018E6F000E0001882100018F6F7DC091
:103D40008AF07EC08BF07FC08CF080C08DF0000EBA
:103D500000017D6F000E7E6F000E7F6F000E806F82
:103D6000000E0001906F000E916F000E926F000E1A
:103D7000936F000E0001956F42D000019551000134
:103D8000D8B417D00001D8908A378B378C378D374D
:103D90000001D8907D377E377F378037000193AFA1
:103DA00002D000017D810001D89090379137923781
:103DB00093370001815100018A5D000182510001A9
:103DC0008B590001835100018C590001845100017D
:103DD0008D59D8A012D00001938D000181510001AE
:103DE0008A5F0001825100018B5B00018351000159
:103DF0008C5B0001845100018D5B0001952B190E35
:103E000000019565BAD700018A5100018B110001AC
:103E10008C1100018D11D8B418D00001908115D0FB
:103E20000001D8907D377E377F378037000193AF10
:103E300002D000017D810001D890903791379237F0
:103E4000933700018E07D8A08F0700017FAFE8D716
:103E5000000E0001956F000193AF24D0FF0E00010A
:103E600090150001856FFF0E000191150001866F0E
:103E7000FF0E000192150001876F7F0E0001931560
:103E80000001886F00018551000186110001871132
:103E900000018811D8A403D000017DA103D0010E38
:103EA0000001956F000195510001D8B423D0010E97
:103EB00000017D27000E7E237F238023000180A147
:103EC00019D07DC085F07EC086F07FC087F080C0AD
:103ED00088F000018835883387338633853385C081
:103EE0007DF086C07EF087C07FF088C080F0000142
:103EF0008E4B8F2B00018FBF14D000018F5104E136
:103F000000018E29D8A00DD0000E00018F6F8E69A0
:103F1000000E00017D6F000E7E6F000E7F6F000EA1
:103F2000806F00018FBF07D000018F5115E10001A4
:103F30008E05D8B011D0000E00018F6F000E8E6F6D
:103F4000000E00017D6F000E7E6F000E7F6F000E71
:103F5000806F000E0001896F8EC094F0000194A163
:103F600003D000017F8F02D000017F9F0001D89015
:103F700094310001806F00018951000180137DC0E0
:103F80007DF07EC07EF07FC07FF080C080F01200A8
:103F90000001786F00017805D8A456D0000173297C
:103FA000D8A452D06FC074F070C075F071C076F0B4
:103FB00072C077F0040E06D00001D89077337633C4
:103FC00075337433E82EF8D774C079F075C07AF081
:103FD00076C07BF077C07CF0000179510001796FE9
:103FE0007A6B7B6B7C6B79C018FF070E00016F1535
:103FF0000001796F000E0001701500017A6F000E4C
:104000000001711500017B6F000E000172150001A7
:104010007C6F79C074F07AC075F07BC076F07CC09C
:1040200077F0050ED89000017437753776377737FB
:10403000E82EF8D774C079F075C07AF076C07BF0BE
:1040400077C07CF079C019FF020E00017819D8A45E
:1040500056D000017329D8A452D06FC074F070C03C
:1040600075F071C076F072C077F0040E06D00001D2
:10407000D8907733763375337433E82EF8D774C01D
:1040800079F075C07AF076C07BF077C07CF00001E3
:1040900079510001796F7A6B7B6B7C6B79C01CFF67
:1040A000070E00016F150001796F000E00017015F9
:1040B00000017A6F000E0001711500017B6F000E88
:1040C0000001721500017C6F79C074F07AC075F040
:1040D0007BC076F07CC077F0050ED8900001743775
:1040E000753776377737E82EF8D774C079F075C012
:1040F0007AF076C07BF077C07CF079C01DFF0001BC
:104100007805D8A487D0F70E00017319D8A482D0FF
:1041100000016F510001796F7A6B7B6B7C6B79C00A
:104120001BFF000E00016F150001796FFF0E0001EB
:10413000701500017A6F000E0001711500017B6F90
:10414000000E0001721500017C6F79C074F07AC016
:1041500075F07BC076F07CC077F075C074F076C0E7
:1041600075F077C076F00001776B74C079F075C098
:104170007AF076C07BF077C07CF079C01AFF00013E
:1041800071A103D00F01198102D00F011991000113
:1041900071A303D00F01198302D00F0119930001FD
:1041A00071A503D00F01198B02D00F01199B0001DB
:1041B00071A703D00F01198D02D00F01199D0001C5
:1041C00071A903D00F01198F02D00F01199F6FC081
:1041D00074F070C075F071C076F072C077F0160E92
:1041E00006D00001D8907733763375337433E82ED8
:1041F000F8D774C079F075C07AF076C07BF077C0DC
:104200007CF0000179510001796F7A6B7B6B7C6BDC
:1042100079C018FF020E00017819D8A41200F70E19
:1042200000017319D8A4120000016F510001796FC9
:104230007A6B7B6B7C6B79C01FFF000E00016F15E2
:104240000001796FFF0E0001701500017A6F000EFA
:104250000001711500017B6F000E00017215000155
:104260007C6F79C074F07AC075F07BC076F07CC04A
:1042700077F075C074F076C075F077C076F0000105
:10428000776B74C079F075C07AF076C07BF077C038
:104290007CF079C01EFF000171A103D00F011D81C8
:1042A00002D00F011D91000171A303D00F011D83E6
:1042B00002D00F011D93000171A503D00F011D8BCA
:1042C00002D00F011D9B000171A703D00F011D8DAE
:1042D00002D00F011D9D000171A903D00F011D8F98
:1042E00002D00F011D9F6FC074F070C075F071C0D7
:1042F00076F072C077F0160E06D00001D8907733B2
:10430000763375337433E82EF8D774C079F075C0FE
:104310007AF076C07BF077C07CF000017951000123
:10432000796F7A6B7B6B7C6B79C01CFF120000018C
:10433000A26F6D0E0001A265CDD0000E0001786F56
:104340000A0E776F000E0001726F640E716FA2C0CB
:104350006FF00001706B58ECACF06FC075F070C07E
:1043600076F0E9ECAAF00001D890753776370001B5
:10437000D89075377637240E00017527000E00019E
:104380007623D90E00017525F66EFE0E000176210A
:10439000F76EF86A000EF8220900F5CF81F00900E7
:1043A000F5CF82F00900F5CF83F00A00F5CF84F055
:1043B000000E0001786F640E776FA2C075F00001E7
:1043C000766BE9ECAAF00001D890753776370001DA
:1043D000D89075377637480E00017527000E00011A
:1043E0007623D90E00017525F66EFE0E00017621AA
:1043F000F76EF86A000EF8220900F5CF7DF009008B
:10440000F5CF7EF00900F5CF7FF00A00F5CF80F000
:1044100095EC9BF07DC09EF07EC09FF07FC0A0F029
:1044200080C0A1F0000E0001726F0A0E716FA2C071
:104430006FF00001706B58ECACF00001D8906F3752
:1044400070370001D8906F377037D90E00016F2593
:10445000F66EFE0E00017021F76EF86A000EF8226B
:104460000900F5CF81F00900F5CF82F00900F5CF02
:1044700083F00A00F5CF84F09EC07DF09FC07EF0EF
:10448000A0C07FF0A1C080F095EC9BF07DC09AF0B9
:104490007EC09BF07FC09CF080C09DF09AC07DF0F4
:1044A0009BC07EF09CC07FF09DC080F0000E00019C
:1044B000816F000E826F000E836F3F0E846F95EC4C
:1044C0009BF07DC096F07EC097F07FC098F080C0D2
:1044D00099F012000A0E0001A26578D0000E0001CA
:1044E000726F0A0E716FA2C06FF00001706B58EC12
:1044F000ACF00001D8906F3770370001D8906F375B
:104500007037D90E00016F25F66EFE0E0001702186
:10451000F76EF86A000EF8220900F5CF81F0090065
:10452000F5CF82F00900F5CF83F00A00F5CF84F0D3
:10453000000E0001786F0A0E776FA2C075F00001BF
:10454000766BE9ECAAF00001D89075377637000158
:10455000D89075377637240E00017527000E0001BC
:104560007623D90E00017525F66EFE0E0001762128
:10457000F76EF86A000EF8220900F5CF7DF0090009
:10458000F5CF7EF00900F5CF7FF00A00F5CF80F07F
:1045900095EC9BF07DC09EF07EC09FF07FC0A0F0A8
:1045A00080C0A1F09EC07DF09FC07EF0A0C07FF0D3
:1045B000A1C080F0000E0001816F000E826F000E1E
:1045C000836F3F0E846F95EC9BF07BD70001A25167
:1045D000040DD90EF324F66EFE0EF420F76EF86A81
:1045E000000EF8220900F5CF7DF00900F5CF7EF02E
:1045F0000900F5CF7FF00A00F5CF80F0000E000132
:10460000816F000E826F000E836F3F0E846F95ECFA
:104610009BF07DC096F07EC097F07FC098F080C080
:1046200099F01200BCECAEF0E806D8A4FBD7060E59
:1046300000016F6F000E706F000E716F000E726FD1
:10464000E80E0001736F000E0001746F080E000188
:10465000756FFC0E0001766FCDEC89F0DDC06FF058
:10466000DEC070F00001716B726B000E02ECA4F002
:104670006FC07DF070C07EF071C07FF072C080F0BE
:10468000000E0001816F000E826F8B0E836F430E50
:10469000846FE8EC9DF07DC008F07EC009F07FC01B
:1046A0000AF080C00BF0150E0001C16F010E000171
:1046B000C26FF30E0001C36FFF0E0001C46F08C08C
:1046C000C5F009C0C6F00AC0C7F00BC0C8F083EC43
:1046D00085F0000E0101206F4CAC32D0100E27EC9B
:1046E000A8F07BECAEF0010E12ECAAF0930E0001E4
:1046F000806FFF0E0001816F48ECAEF0020E12ECED
:10470000AAF0CE0E0001806FFF0E0001816F48EC11
:10471000AEF0030E12ECAAF0BD0E0001806FFF0E8A
:104720000001816F48ECAEF0040E12ECAAF0A80E66
:104730000001806FFF0E0001816F48ECAEF04C9CD1
:10474000020E00017E6F0C0EFCECAEF00001E65193
:10475000D8B41CD00001E305D8A40CD0100E27EC6F
:10476000A8F0F80E0001806FFF0E0001816F48EC89
:10477000AEF017D0100E27ECA8F0EE0E0001806FFF
:10478000FF0E0001816F48ECAEF00BD0100E27EC4D
:10479000A8F0FC0E0001806FFF0E0001816F48EC55
:1047A000AEF00001E505D8A40BD0100E27ECA8F060
:1047B000E20E0001806FFF0E0001816F48ECAEF049
:1047C000020E0001E519D8A40BD0100E27ECA8F0BA
:1047D000E80E0001806FFF0E0001816F48ECAEF023
:1047E000030E00017E6F080EFCECAEF0100E27ECFD
:1047F000A8F0150E0001806F010E0001816FA9EC79
:10480000AEF012000001776F000177510001D8B4BB
:104810001ED0000172AF1BD06FC073F070C074F077
:1048200071C075F072C076F00001731F741F751FA0
:10483000761F732B000E74237523762373C079F0D3
:1048400074C07AF075C07BF076C07CF008D06FC081
:1048500079F070C07AF071C07BF072C07CF000011A
:104860006F51000170110001711100017211D8A483
:104870000AD0000E00016F6F000E706F000E716F96
:10488000000E726F1200960E0001786F08D00001C2
:10489000782B0001D8907C337B337A337933000E48
:1048A000000179150001736F000E00017A150001F7
:1048B000746F000E00017B150001756FFE0E000184
:1048C0007C150001766F0001735100017411000125
:1048D000751100017611D8B410D0D9D70001782B0A
:1048E000010E00017927000E7A237B237C2300012F
:1048F000D8907C337B337A337933000E00017915FD
:104900000001736F000E00017A150001746F000E34
:1049100000017B150001756FFF0E00017C15000181
:10492000766F0001735100017411000175110001CF
:104930007611D8B409D0D2D7000178070001D890F9
:1049400079377A377B377C3700017BBF04D0020E82
:1049500000017861F1D7000178B109D0FF0E0001A4
:104960007917FF0E7A177F0E7B17FF0E7C17000159
:10497000D890783378C073F00001746B756B766BE8
:1049800073C076F00001756B746B736B000173512B
:10499000000179130001745100017A13000175516F
:1049A00000017B130001765100017C130001775157
:1049B0000001D8B405D0000172AF02D000017C8F95
:1049C00079C06FF07AC070F07BC071F07CC072F07B
:1049D00012000001866F800E26ECAFF0000E706EA4
:1049E000000E716E000E726E00017F41E842C00B36
:1049F00000017F6F00017F51701200018051701221
:104A000000018651711200017D39E842F80B000166
:104A10007D6F00017D517112000181A5718C000133
:104A200081B1718E00017E517212000181B3728CCE
:104A300000018151600B606E00018151100BFF0A73
:104A4000D8B4608460CF50FF000E00016F6F000E7D
:104A5000706F000E716F000E726FF70E0001736FB2
:104A6000010EC8EC9FF0000E00016F6F000E706F1A
:104A7000000E716F000E726FF70E0001736F020E61
:104A8000C8EC9FF00FD0F70E0001876F07D0000130
:104A900087690001886928D000018769F70E000145
:104AA000886F22D09F0E0001826FFF0E0001836F7E
:104AB00000018151600B0001846F856B0001825100
:104AC0000001841300018351000185130001855109
:104AD000000AD8A4E1D700018451BF0AD8B4D7D7BF
:104AE000600AD8B4D0D7D8D7000E00016F6F000E7F
:104AF000706F000E716F000E726F87C073F0000E42
:104B000000EC80F0000E00016F6F000E706F000E61
:104B1000716F000E726F87C073F0010E00EC80F0B1
:104B2000000E00016F6F000E706F000E716F000EAF
:104B3000726F88C073F0020E00EC80F0000E00016E
:104B40006F6F000E706F000E716F000E726F88C075
:104B500073F0030E00EC80F0000E00016F6F000E8A
:104B6000706F000E716F000E726F88C073F0040ECC
:104B700000EC80F0000E00016F6F000E706F000EF1
:104B8000716F000E726F88C073F0050E00EC80F03C
:104B9000000E26ECAFF0120071C077F00001786BC8
:104BA000796B000170350001773701E378810001EE
:104BB000775100017F6F00017F51D8A40AD0000E09
:104BC00000016F6F000E706F000E716F000E726F3C
:104BD000120075C077F00001786B796B00017435B5
:104BE0000001773701E378810001775100017E6F82
:104BF00000017E51D8A40AD0000E00016F6F000E94
:104C0000706F000E716F000E726F12000001708FD6
:104C1000FF0E00016F17FF0E00017017000E00015C
:104C200071170001748FFF0E00017317FF0E000152
:104C30007417000E00017517000E00017A6F000E48
:104C40007B6F000E7C6F000E7D6F7F0E00017F5F1B
:104C500000017E51980F00017F5F180E00017E6FEA
:104C60000001D8907A377B377C377D37000173514C
:104C700000016F5D00017451000170590001755110
:104C800000017159D8A00ED00001735100016F5F6F
:104C9000000174510001705B000175510001715BEE
:104CA00000017A810001D8906F37703771370001A9
:104CB0007E2FD6D700017FAF1AD000017F51800A26
:104CC000970FD8B00AD0000E00016F6F000E706F02
:104CD000000E716F000E726F12000001D8907D33CC
:104CE0007C337B337A3300017F3FF7D71BD0170E1D
:104CF00000017F6512D0000E00016F6F000E706F13
:104D0000000E716F000E726F12000001D8907A379A
:104D10007B377C377D3700017F0700017F51000121
:104D2000D8A4F3D77AC06FF07BC070F07CC071F06C
:104D30007DC072F01200000E00016F150001776F48
:104D4000000E000170150001786F800E00017115D2
:104D50000001796F7F0E0001721500017A6F00016A
:104D60007751000178110001791100017A11D8A45E
:104D700009D0000E00016F6F000E706F000E716F92
:104D8000000E726F000E000173150001776F000EA8
:104D9000000174150001786F800E00017515000187
:104DA000796F7F0E0001761500017A6F000177514F
:104DB000000178110001791100017A11D8A409D0FD
:104DC000000E0001736F000E746F000E756F000E01
:104DD000766F000172AF26D06FC077F070C078F0A8
:104DE00071C079F072C07AF00001771F781F791FC7
:104DF0007A1F772B000E782379237A23000E000187
:104E0000772500016F6F000E000178210001706F9F
:104E1000000E000179210001716F800E00017A21DE
:104E20000001726F000176AF26D073C077F074C0B6
:104E300078F075C079F076C07AF00001771F781F9E
:104E4000791F7A1F772B000E782379237A23000E9F
:104E5000000177250001736F000E00017821000129
:104E6000746F000E000179210001756F800E000142
:104E70007A210001766F000E00016F1B000E701B7F
:104E8000000E711B800E721B000E0001731B000EC2
:104E9000741B000E751B800E761B00017351000100
:104EA0006F5D0001745100017059000175510001DE
:104EB00071590001765100017259D8B002D0D890D2
:104EC0001200D880120000017135723500017C6F2C
:104ED00000017C51D8A40AD0000E00016F6F000EB3
:104EE000706F000E716F000E726F12000001753549
:104EF000763500017B6F00017B51D8A40AD0000EEB
:104F000000016F6F000E706F000E716F000E726FF8
:104F100012000001718FFF0E00016F17FF0E701756
:104F2000FF0E7117000E72170001758FFF0E000142
:104F30007317FF0E7417FF0E7517000E7617000E0D
:104F40000001776F000E786F000E796F000E7A6F98
:104F50007F0E00017C5F00017B51A00F00017C5F90
:104F6000200E00017B6F0001D890773778377937B2
:104F70007A370001735100016F5D00017451000127
:104F800070590001755100017159000176510001FD
:104F90007259D8A012D00001735100016F5F000157
:104FA00074510001705B000175510001715B0001DB
:104FB00076510001725B000177810001D8906F3754
:104FC00070377137723700017B2FCDD700017CAF6E
:104FD0001AD000017C51800A9F0FD8B00AD0000E71
:104FE00000016F6F000E706F000E716F000E726F18
:104FF00012000001D8907A33793378337733000187
:105000007C3FF7D71BD01F0E00017C6512D0000E2D
:1050100000016F6F000E706F000E716F000E726FE7
:1050200012000001D8907737783779377A37000146
:105030007C0700017C510001D8A4F3D777C06FF042
:1050400078C070F079C071F07AC072F0120000017F
:105050007D6F00017D513CECAFF08D948B928B9075
:10506000000E0001766F640E756FF4ECADF0000E6B
:105070000001776F010E0001786F010E0001796F5A
:10508000000ED7ECADF0000E0001766F640E756F68
:10509000F4ECADF0000E0001776F010E0001786FA7
:1050A000010E0001796F000ED7ECADF0000E00018B
:1050B000766F0A0E756FF4ECADF0000E0001776F9D
:1050C000010E0001786F010E0001796F000ED7EC20
:1050D000ADF0000E0001776F010E0001786F000E39
:1050E0000001796F000ED7ECADF0000E0001776F74
:1050F000010E0001786F000E0001796F000ED7ECF1
:10510000ADF0000E0001776F000E0001786F000E09
:105110000001796F010ED7ECADF0000E0001776F42
:10512000000E0001786F000E0001796F000ED7ECC1
:10513000ADF0000E0001776F000E0001786F000ED9
:105140000001796F010ED7ECADF0000E0001776F12
:10515000000E0001786F000E0001796F000ED7EC91
:10516000ADF0000E0001776F000E0001786F010EA8
:105170000001796F000ED7ECADF0000E0001776FE3
:10518000000E0001786F000E0001796F000ED7EC61
:10519000ADF0010E0001776F010E0001786F000E77
:1051A0000001796F000ED7ECADF07BECAEF0000E95
:1051B00000017B6F000E62ECAEF01200E9CF62F0EE
:1051C000EACF63F0E1CF64F0E2CF65F0D9CF66F0CB
:1051D000DACF67F0F3CF68F0F4CF69F0F6CF6AF07A
:1051E000F7CF6BF0F8CF6CF0F5CF6DF0A4A2A4B0C0
:1051F00001D074D031ECAFF00009D8B46BD0060EFA
:105200003C6E010E3D6EBBEC96F0010114A102D084
:105210004C8801D04C9806C10CF007C10DF008C1B4
:105220000EF009C10FF04C8E060E0C180D100E106A
:105230000F10D8A41FD0000E00016E6F070E0001E2
:105240006E6501D017D000016E51010D0A0EF324D6
:10525000D96E010EF420DA6E00016E51010D010EBF
:10526000F324E16E000EF420E26EDFCFE7FF0001D1
:105270006E2BE4D7020E0C180D100E100F10D8B4C0
:105280004CA828D020C014F021C015F022C016F080
:1052900023C017F0030E2A6E0D0EE82EFED700F085
:1052A000DFECAEF0E806D8A4FBD7020E3C6E000E91
:1052B0003D6E000E3E6E000E3F6E2A0E406E000EDA
:1052C000416E080E426EBC0E436EE6EC90F04C86CA
:1052D0004C904C9AA492A4908C848C866DC0F5FF5F
:1052E0006CC0F8FF6BC0F7FF6AC0F6FF69C0F4FF3F
:1052F00068C0F3FF67C0DAFF66C0D9FF65C0E2FF90
:1053000064C0E1FF63C0EAFF62C0E9FF61C0FBFF68
:1053100060C0FAFF4E9211000001B935BA350001A4
:10532000C06F0001C051D8A40AD0000E0001B76FB1
:10533000000EB86F000EB96F000EBA6F1200B7C042
:10534000BBF0B8C0BCF0B9C0BDF0BAC0BEF0200E12
:1053500006D00001D890BE33BD33BC33BB33E82E3A
:10536000F8D70001BB510001BF6F0001B98FFF0EDC
:105370000001B717FF0EB817FF0EB917000EBA17C6
:10538000960E0001C05F0001C0AF1AD00001C051ED
:10539000800A970FD8B00AD0000E0001B76F000E38
:1053A000B86F000EB96F000EBA6F12000001D890EE
:1053B000BA33B933B833B7330001C03FF7D71BD086
:1053C0001F0E0001C06512D0000E0001B76F000E65
:1053D000B86F000EB96F000EBA6F12000001D890BE
:1053E000B737B837B937BA370001C0070001C05125
:1053F0000001D8A4F3D70001BF510001D8B409D0EF
:105400000001BA1FB91FB81FB76D000EB823B9232A
:10541000BA23B7C0B7F0B8C0B8F0B9C0B9F0BAC0D5
:10542000BAF0120000017B6F64D0000E0001776FAC
:10543000000E0001786F000E0001796F010ED7ECAD
:10544000ADF0000E0001776F000E0001786F000EC6
:105450000001796F000ED7ECADF01200010E0001D3
:10546000776F000E0001786F000E0001796F010E5A
:10547000D7ECADF0000E0001776F000E0001786FE1
:10548000000E0001796F000ED7ECADF01200000E97
:105490000001776F000E0001786F010E0001796F37
:1054A000010ED7ECADF0010E0001776F000E000188
:1054B000786F000E0001796F000ED7ECADF012008E
:1054C000010E0001776F000E0001786F010E0001E0
:1054D000796F010ED7ECADF0010E0001776F000E71
:1054E0000001786F000E0001796F000ED7ECADF06F
:1054F000120000017B51010AD8B497D7030AD8B42F
:10550000ADD7010AD8B4C3D7070AD8A41200D8D798
:10551000000E896E1F0E926E000E8A6EFB0E936E49
:10552000000E8B6EF00E946E000E8C6E000E956E5B
:10553000000E8D6E000E966E060E00017D6F050E3C
:1055400000017E6F010E00017F6F030E0001806F6E
:105550009D0E0001816F040EE9ECA4F0A192A492CB
:10556000A490D08EA582A580A2920D0EC16EC29885
:10557000C296C294C08AC088C096C084C092C080BF
:10558000C09EC280100E27ECA8F07BECAEF0010E9E
:1055900012ECAAF0DA0E0001806FFF0E0001816F9D
:1055A00048ECAEF0010E0001766F2C0E756FF4EC36
:1055B000ADF083948396630EB36EC00EB26EA38279
:1055C000A380A082010EB16E7BECAEF0F28EF28C65
:1055D0001200000E00017A6F000178AF08D00001C0
:1055E000776D781FD8B0782B010E00017A6F00011B
:1055F00076AF08D00001756D761FD8B0762B010EFE
:1056000000017A1B000E00017C6F000E7B6F000111
:10561000775100017811D8B42CD0010E0001796FB8
:1056200006D00001D890773778370001792B000138
:1056300078AFF7D70001D8907B377C3700017751DE
:105640000001755D0001785100017659D8A00AD09B
:10565000000177510001755F000178510001765B10
:1056600000017B810001D890783377330001792FD6
:10567000E1D700017A510001D8B405D000017B6D5B
:105680007C1FD8B07C2B7BC075F07CC076F01200FC
:10569000000E0001776F000E786F000E796F000E1C
:1056A0007A6F00017351000174110001751100013E
:1056B0007611D8B442D0010E00017B6F08D00001F2
:1056C000D890733774377537763700017B2B00011C
:1056D00076AFF5D70001D8907737783779377A37B2
:1056E0000001735100016F5D000174510001705998
:1056F0000001755100017159000176510001725984
:10570000D8A012D00001735100016F5F00017451E5
:105710000001705B000175510001715B0001765161
:105720000001725B000177810001D89076337533F8
:105730007433733300017B2FCDD777C06FF078C0FF
:1057400070F079C071F07AC072F01200BCECAEF06B
:10575000E806D8A4FBD7050E00016F6F000E706F2E
:10576000000E716F000E726FE90E0001736F000E74
:105770000001746F080E0001756FBC0E0001766F9A
:10578000CDEC89F0E1C0E8F00001E2510001E96FE1
:10579000E3C0EAF0BCECAEF0E806D8A4FBD7030EF9
:1057A00000016F6F000E706F000E716F000E726F50
:1057B000E80E0001736F000E0001746F080E000107
:1057C000756FBC0E0001766FCDEC89F0BCECAEF0CD
:1057D000E806D8A4FBD7040E00016F6F000E706FAF
:1057E000000E716F000E726FE70E0001736F000EF6
:1057F0000001746F080E0001756FBD0E0001766F19
:10580000CDEC89F01200020E0C180D100E100F10C6
:10581000D8A415D04CA80CD020C014F021C015F08D
:1058200022C016F023C017F04C864C904C9A07D03B
:105830002A04D8B44C80020E2A18D8B44C8A060E1A
:105840000C180D100E100F10D8B44CB827D002C091
:1058500024F0256A245000016F6F0150246E6FC040
:1058600025F004C026F0276A265000016F6F035010
:10587000266E6FC027F02450262400016F6F25503C
:1058800027200001706FD890000170310001716F06
:1058900000016F310001DD6F71C0DEF0090E0C18E0
:1058A0000D100E100F10D8A412002AC028F01200FC
:1058B000000E0001746F000170AF08D000016F6D21
:1058C000701FD8B0702B010E0001746F000172AF11
:1058D00005D00001716D721FD8B0722B000171519B
:1058E00000017211D8B426D0010E0001736F06D0EA
