:0400000060EF00F0BD
:0E0008004882FACF60F0FBCF61F037EFA8F02E
:100018004880D8CF25F0E8CF26F0E0CF27F0FACFF8
:1000280028F0FBCF29F0E9CF2AF0EACF2BF0E1CF77
:100038002CF0E2CF2DF0D9CF2EF0DACF2FF0F3CF7E
:1000480030F0F4CF31F0F6CF32F0F7CF33F0F8CF0D
:1000580034F0F5CF35F0A1A20BD0010E1A26000E10
:100068001B221C221D22630EB36EC00EB26EA1921B
:1000780035C0F5FF34C0F8FF33C0F7FF32C0F6FFD4
:1000880031C0F4FF30C0F3FF2FC0DAFF2EC0D9FF14
:100098002DC0E2FF2CC0E1FF2BC0EAFF2AC0E9FF18
:1000A80029C0FBFF28C0FAFF27C0E0FF26C0E8FFF1
:0C00B80025C0D8FF48901000DEEFADF02E
:10FEF000000000803FCDCCCC3D0AD7233C6F12835D
:10FF00003A17B7D138ACC52737BD37863595BFD638
:10FF10003377CC2B325F708930FFE6DB2E08E53C6F
:10FF20001E6042A20D0000803F000020410000C87A
:10FF30004200007A4400401C460050C3470024742D
:10FF4000498096184B20BCBE4C286B6E4EF90215AA
:10FF500050EC78AD60CAF24971010000000A00005F
:10FF60000064000000E803000010270000A08601E4
:10FF70000040420F008096980000E1F50500CA9A03
:10FF80003B5475726E20746865207377697463687A
:10FF9000204F4E2120003D3D3E2056454849434CD0
:10FFA0004520204F4646203C3D3D003D3D3D3D3DEA
:10FFB0003D3D3D3D3D3D3D3D3D3D3D3D3D3D3D00AE
:10FFC000686F6C61206D7563686163686F00446978
:10FFD00072656374696F6E3A200053706565643AA8
:10FFE00020252E336600576169742E2E2E00424B59
:10FFF0005744004B6D2F68004657440050000000E6
:020000040001F9
:100000000001776F000177510001D8A458D000019A
:100010007229D8A454D00F0101976EC073F06FC03D
:1000200074F070C075F071C076F0040E06D0000157
:10003000D8907633753374337333E82EF8D773C0A2
:1000400078F074C079F075C07AF076C07BF000016A
:1000500078510001786F796B7A6B7B6B78C000FF09
:10006000070E00016E150001786F000E00016F157C
:100070000001796F000E0001701500017A6F000E0B
:100080000001711500017B6F78C073F079C074F0C6
:100090007AC075F07BC076F0050ED89000017337FA
:1000A000743775377637E82EF8D773C078F074C098
:1000B00079F075C07AF076C07BF078C001FF00015E
:1000C0007705D8A458D000017229D8A454D00F01C4
:1000D00005976EC073F06FC074F070C075F071C09A
:1000E00076F0040E06D00001D89076337533743361
:1000F0007333E82EF8D773C078F074C079F075C008
:100100007AF076C07BF0000178510001786F796B4E
:100110007A6B7B6B78C004FF070E00016E1500013F
:10012000786F000E00016F150001796F000E00015D
:10013000701500017A6F000E0001711500017B6FD0
:1001400078C073F079C074F07AC075F07BC076F037
:10015000050ED89000017337743775377637E82E5F
:10016000F8D773C078F074C079F075C07AF076C0B3
:100170007BF078C005FF020E00017719D8A458D093
:1001800000017229D8A454D00F0109976EC073F0F2
:100190006FC074F070C075F071C076F0040E06D0B8
:1001A0000001D8907633753374337333E82EF8D763
:1001B00073C078F074C079F075C07AF076C07BF0C7
:1001C000000178510001786F796B7A6B7B6B78C096
:1001D00008FF070E00016E150001786F000E000188
:1001E0006F150001796F000E0001701500017A6F24
:1001F000000E0001711500017B6F78C073F079C0AB
:1002000074F07AC075F07BC076F0050ED8900001CE
:100210007337743775377637E82EF8D773C078F0B0
:1002200074C079F075C07AF076C07BF078C009FFB1
:10023000030E00017719D8A458D000017229D8A460
:1002400054D00F010D976EC073F06FC074F070C082
:1002500075F071C076F0040E06D00001D8907633A8
:10026000753374337333E82EF8D773C078F074C0E5
:1002700079F075C07AF076C07BF00001785100010A
:10028000786F796B7A6B7B6B78C00CFF070E00017F
:100290006E150001786F000E00016F150001796F77
:1002A000000E0001701500017A6F000E000171153B
:1002B00000017B6F78C073F079C074F07AC075F07C
:1002C0007BC076F0050ED890000173377437753710
:1002D0007637E82EF8D773C078F074C079F075C01F
:1002E0007AF076C07BF078C00DFF040E000177191C
:1002F000D8A458D000017229D8A454D00F01119766
:100300006EC073F06FC074F070C075F071C076F09D
:10031000040E06D00001D8907633753374337333EE
:10032000E82EF8D773C078F074C079F075C07AF011
:1003300076C07BF0000178510001786F796B7A6BA1
:100340007B6B78C010FF070E00016E150001786FFF
:10035000000E00016F150001796F000E000170158D
:1003600000017A6F000E0001711500017B6F78C0EB
:1003700073F079C074F07AC075F07BC076F0050E2A
:10038000D89000017337743775377637E82EF8D771
:1003900073C078F074C079F075C07AF076C07BF0E5
:1003A00078C011FF050E00017719D8A458D00001BC
:1003B0007229D8A454D00F0115976EC073F06FC086
:1003C00074F070C075F071C076F0040E06D00001B4
:1003D000D8907633753374337333E82EF8D773C0FF
:1003E00078F074C079F075C07AF076C07BF00001C7
:1003F00078510001786F796B7A6B7B6B78C014FF52
:10040000070E00016E150001786F000E00016F15D8
:100410000001796F000E0001701500017A6F000E67
:100420000001711500017B6F78C073F079C074F022
:100430007AC075F07BC076F0050ED8900001733756
:10044000743775377637E82EF8D773C078F074C0F4
:1004500079F075C07AF076C07BF078C015FF0001A6
:1004600077510001D8A489D0F70E00017219D8A4E1
:1004700084D00F01018700016E510001786F796B04
:100480007A6B7B6B78C003FF000E00016E150001D4
:10049000786FFF0E00016F150001796F000E0001EB
:1004A000701500017A6F000E0001711500017B6F5D
:1004B00078C073F079C074F07AC075F07BC076F0C4
:1004C00074C073F075C074F076C075F00001766B7F
:1004D00073C078F074C079F075C07AF076C07BF0A4
:1004E00078C002FF000170A103D00F01018102D08A
:1004F0000F010191000170A303D00F01018302D00D
:100500000F010193000170A503D00F01018B02D0F0
:100510000F01019B000170A703D00F01018D02D0D4
:100520000F01019D000170A903D00F01018F02D0BE
:100530000F01019F6EC073F06FC074F070C075F052
:1005400071C076F0160E06D00001D8907633753360
:1005500074337333E82EF8D773C078F074C079F031
:1005600075C07AF076C07BF0000178510001786F99
:10057000796B7A6B7B6B78C000FF00017705D8A49C
:1005800089D0F70E00017219D8A484D00F01058715
:1005900000016E510001786F796B7A6B7B6B78C0CC
:1005A00007FF000E00016E150001786FFF0E0001BD
:1005B0006F150001796F000E0001701500017A6F50
:1005C000000E0001711500017B6F78C073F079C0D7
:1005D00074F07AC075F07BC076F074C073F075C0AB
:1005E00074F076C075F00001766B73C078F074C05B
:1005F00079F075C07AF076C07BF078C006FF000114
:1006000070A103D00F01058102D00F0105910001F7
:1006100070A303D00F01058302D00F0105930001E1
:1006200070A503D00F01058B02D00F01059B0001BF
:1006300070A703D00F01058D02D00F01059D0001A9
:1006400070A903D00F01058F02D00F01059F6EC066
:1006500073F06FC074F070C075F071C076F0160E54
:1006600006D00001D8907633753374337333E82E97
:10067000F8D773C078F074C079F075C07AF076C09E
:100680007BF0000178510001786F796B7A6B7B6B9E
:1006900078C004FF020E00017719D8A489D0F70EA4
:1006A00000017219D8A484D00F01098700016E518E
:1006B0000001786F796B7A6B7B6B78C00BFF000E53
:1006C00000016E150001786FFF0E00016F1500012B
:1006D000796F000E0001701500017A6F000E0001A5
:1006E000711500017B6F78C073F079C074F07AC027
:1006F00075F07BC076F074C073F075C074F076C08E
:1007000075F00001766B73C078F074C079F075C035
:100710007AF076C07BF078C00AFF000170A103D0A8
:100720000F01098102D00F010991000170A303D0CC
:100730000F01098302D00F010993000170A503D0B6
:100740000F01098B02D00F01099B000170A703D094
:100750000F01098D02D00F01099D000170A903D07E
:100760000F01098F02D00F01099F6EC073F06FC097
:1007700074F070C075F071C076F0160E06D00001EE
:10078000D8907633753374337333E82EF8D773C04B
:1007900078F074C079F075C07AF076C07BF0000113
:1007A00078510001786F796B7A6B7B6B78C008FFAA
:1007B000030E00017719D8A489D0F70E0001721931
:1007C000D8A484D00F010D8700016E510001786F0D
:1007D000796B7A6B7B6B78C00FFF000E00016E1592
:1007E0000001786FFF0E00016F150001796F000E98
:1007F0000001701500017A6F000E000171150001F3
:100800007B6F78C073F079C074F07AC075F07BC0EC
:1008100076F074C073F075C074F076C075F00001A6
:10082000766B73C078F074C079F075C07AF076C0DA
:100830007BF078C00EFF000170A103D00F010D8185
:1008400002D00F010D91000170A303D00F010D83A1
:1008500002D00F010D93000170A503D00F010D8B85
:1008600002D00F010D9B000170A703D00F010D8D69
:1008700002D00F010D9D000170A903D00F010D8F53
:1008800002D00F010D9F6EC073F06FC074F070C086
:1008900075F071C076F0160E06D00001D890763350
:1008A000753374337333E82EF8D773C078F074C09F
:1008B00079F075C07AF076C07BF0000178510001C4
:1008C000786F796B7A6B7B6B78C00CFF040E00013C
:1008D0007719D8A489D0F70E00017219D8A484D052
:1008E0000F01118700016E510001786F796B7A6BEF
:1008F0007B6B78C013FF000E00016E150001786F4E
:10090000FF0E00016F150001796F000E00017015D8
:1009100000017A6F000E0001711500017B6F78C035
:1009200073F079C074F07AC075F07BC076F074C053
:1009300073F075C074F076C075F00001766B73C00B
:1009400078F074C079F075C07AF076C07BF078C02A
:1009500012FF000170A103D00F01118102D00F011D
:100960001191000170A303D00F01118302D00F0178
:100970001193000170A503D00F01118B02D00F015C
:10098000119B000170A703D00F01118D02D00F0140
:10099000119D000170A903D00F01118F02D00F012A
:1009A000119F6EC073F06FC074F070C075F071C0AD
:1009B00076F0160E06D00001D89076337533743376
:1009C0007333E82EF8D773C078F074C079F075C02F
:1009D0007AF076C07BF0000178510001786F796B76
:1009E0007A6B7B6B78C010FF050E00017719D8A4D5
:1009F0001200F70E00017219D8A412000F0115871A
:100A000000016E510001786F796B7A6B7B6B78C057
:100A100017FF000E00016E150001786FFF0E000138
:100A20006F150001796F000E0001701500017A6FDB
:100A3000000E0001711500017B6F78C073F079C062
:100A400074F07AC075F07BC076F074C073F075C036
:100A500074F076C075F00001766B73C078F074C0E6
:100A600079F075C07AF076C07BF078C016FF00018F
:100A700070A103D00F01158102D00F011591000163
:100A800070A303D00F01158302D00F01159300014D
:100A900070A503D00F01158B02D00F01159B00012B
:100AA00070A703D00F01158D02D00F01159D000115
:100AB00070A903D00F01158F02D00F01159F6EC0D2
:100AC00073F06FC074F070C075F071C076F0160EE0
:100AD00006D00001D8907633753374337333E82E23
:100AE000F8D773C078F074C079F075C07AF076C02A
:100AF0007BF0000178510001786F796B7A6B7B6B2A
:100B000078C014FF1200C20E01011F6F000E010118
:100B1000206FB5EF89F0250E01013319D8B408D044
:100B2000BEC0D9FFBFC0DAFF33C1DFFFB2EF89F02B
:100B3000000E0101226F000E216FC0C0F6FFC1C080
:100B4000F7FF000EF86E0800F5502E0AD8A43DD02D
:100B50000101228D0001C04BC12B000E01012E6F3F
:100B6000000E2D6F25D02DC16EF02EC16FF0000E3E
:100B70000001716F0A0E706F55ECAEF0C0C0F6FF49
:100B8000C1C0F7FF000EF86E0800F55000016E2797
:100B9000000E00016F23D00E00016E2501012D6FA4
:100BA000FF0E00016F2101012E6F0001C04BC12B10
:100BB000C0C0F6FFC1C0F7FF000EF86E0800F55088
:100BC000BCECAEF0D8A00CD0CED7000E01012E6F39
:100BD000000E2D6F0101228903D00101228515D05D
:100BE000C0C0F6FFC1C0F7FF0001C04BC12B000E13
:100BF000F86E0800F5CF33F101013351000AD8B483
:100C0000C5D3660AD8B4E9D7B0D3070E01012215BF
:100C1000D8B453D3010122A905D0000E01012E6FD3
:100C2000060E2D6F1FC1D9FF20C1DAFFDECF2FF1D5
:100C3000DECF30F1DECF31F1DECF32F1040E010133
:100C40001F27000E2023010132AF15D02FC16EF0F7
:100C500030C16FF031C170F032C171F039ECAEF0DB
:100C60006EC02FF16FC030F170C031F171C032F140
:100C7000030E01012113000E0101286F000E276FE2
:100C800001012F5101013011010131110101321116
:100C9000D8B48ED0010131353235820F0101276F72
:100CA0000101286BFF0E282301012707D8A0280780
:100CB00027C16EF028C16FF0000E0001716F030EA6
:100CC000706F55ECAEF06EC027F16FC028F127C1F0
:100CD00074F028C175F0000E0001776F0A0E766F70
:100CE00048ECAAF074C027F175C028F1010128AFC3
:100CF00004D001012707D8A02807010127510008C7
:100D0000DBEC90F095C029F196C02AF197C02BF149
:100D100098C02CF129C17CF02AC17DF02BC17EF056
:100D20002CC17FF02FC180F030C181F031C182F041
:100D300032C183F042EC98F07CC029F17DC02AF1E9
:100D40007EC02BF17FC02CF129C16EF02AC16FF05B
:100D50002BC170F02CC171F0000E0001726F000EFB
:100D6000736F800E746F3F0E756F33ECA5F000014A
:100D7000D8B005D001012707D8A0280719D029C16C
:100D80006EF02AC16FF02BC170F02CC171F0000E13
:100D90000001726F000E736F200E746F410E756F3D
:100DA00033ECA5F00001D8A003D00101274B282B7C
:100DB00001012EBF08D001012E5123E10D0E0101CA
:100DC0002D5DD8B01ED02FC1A2F030C1A3F031C12B
:100DD000A4F032C1A5F001012D513FECA0F095C067
:100DE000A6F096C0A7F097C0A8F098C0A9F0EEECC6
:100DF00095F0A2C02FF1A3C030F1A4C031F1A5C07D
:100E000032F1010128BF08D0010128512EE10A0E5C
:100E10000101275DD8B029D001012F510101301106
:100E20000101311101013211D8B46DD02FC19EF0F2
:100E300030C19FF031C1A0F032C1A1F0E0ECA8F0C8
:100E400000019E5100019F110001A0110001A1119C
:100E5000D8A459D0010128BF56D00101285105E17D
:100E6000020E0101275DD8A04ED029C16EF02AC123
:100E70006FF02BC170F02CC171F05F0E0001726F2A
:100E8000700E736F890E746F400E756F33ECA5F0A2
:100E90000001D8B003D00101F70E02D00101F80E15
:100EA0002727FF0E282301012751DBEC90F095C086
:100EB00029F196C02AF197C02BF198C02CF12FC1CF
:100EC0006EF030C16FF031C170F032C171F029C1E4
:100ED00072F02AC173F02BC174F02CC175F0FBECD9
:100EE000A5F06EC023F16FC024F170C025F171C070
:100EF00026F1000E01012F6F000E306F000E316FD2
:100F0000000E326F3CD02FC19EF030C19FF031C136
:100F1000A0F032C1A1F0E0ECA8F09EC023F19FC088
:100F200024F1A0C025F1A1C026F12FC1B6F030C137
:100F3000B7F031C1B8F032C1B9F023C16EF024C1AD
:100F40006FF025C170F026C171F0000EBAECA1F06F
:100F50006EC0BAF06FC0BBF070C0BCF071C0BDF025
:100F600096ECADF0B6C02FF1B7C030F1B8C031F19A
:100F7000B9C032F1000E0101286F000E276F010E7B
:100F80000101336F0A0E01013319D8B421D00101D8
:100F90003351040D590EF324F66EFF0EF420F76E54
:100FA000F86A000EF8220900F5500101235D0900DE
:100FB000F550010124590900F55001012559090096
:100FC000F55001012659D8A003D00101332BDAD7FF
:100FD000030E010121150001C66F000E010122154B
:100FE0000001C76F0001C6510001C711D8B458D025
:100FF000BEC0D9FFBFC0DAFF2D0E50D00001BE4BDE
:10100000BF2B4ED023C16EF024C16FF025C170F00C
:1010100026C171F001013351040D590EF324F66E0F
:10102000FF0EF420F76EF86A000EF8220900F5CFE3
:1010300072F00900F5CF73F00900F5CF74F00A00E3
:10104000F5CF75F006ECABF06EC029F16FC02AF158
:1010500070C02BF171C02CF129C16EF02AC16FF064
:101060002BC170F02CC171F00A0E0001726F000EDE
:10107000736F000E746F000E756F67ECACF06EC08E
:1010800029F16FC02AF170C02BF171C02CF1010160
:101090002951300FBEC0D9FFBFC0DAFFDF6EAED717
:1010A0000101330701013329D8B40ED0ABD7BEC03C
:1010B000D9FFBFC0DAFF300EDF6E0001BE4BBF2B81
:1010C00001012707D8A02807010128BF07D0010187
:1010D0002851EDE101012705D8B0E9D701012EBF64
:1010E0000CD001012E5105E1090E01012D5DD8A0A2
:1010F00004D0080E0101336F02D02DC133F101017C
:10110000335101012D5F000E010133BFFF0E0101BC
:101110002E5B010133510101D8B409D0BEC0D9FF03
:10112000BFC0DAFF2E0EDF6E0001BE4BBF2B0101E8
:101130003351DBEC90F095C01BF196C01CF197C0C9
:101140001DF198C01EF12FC180F030C181F031C176
:1011500082F032C183F01BC17CF01CC17DF01DC147
:101160007EF01EC17FF042EC98F07CC09EF07DC006
:101170009FF07EC0A0F07FC0A1F0E0ECA8F09EC080
:1011800023F19FC024F1A0C025F1A1C026F17AD09F
:1011900023C16EF024C16FF025C170F026C171F03B
:1011A00001013351040D590EF324F66EFF0EF420A5
:1011B000F76EF86A000EF8220900F5CF72F0090008
:1011C000F5CF73F00900F5CF74F00A00F5CF75F094
:1011D00006ECABF06EC029F16FC02AF170C02BF1A4
:1011E00071C02CF129C16EF02AC16FF02BC170F0D3
:1011F0002CC171F00A0E0001726F000E736F000EA9
:10120000746F000E756F67ECACF06EC029F16FC0A3
:101210002AF170C02BF171C02CF101012951300F5E
:10122000BEC0D9FFBFC0DAFFDF6E0001BE4BBF2BCF
:1012300023C16EF024C16FF025C170F026C171F09A
:1012400001013351040D590EF324F66EFF0EF42004
:10125000F76EF86A000EF8220900F5CF72F0090067
:10126000F5CF73F00900F5CF74F00A00F5CF75F0F3
:1012700067ECACF06EC023F16FC024F170C025F1B3
:1012800071C026F10101330701013329D8B40ED012
:101290007FD7BEC0D9FFBFC0DAFF300EDF6E0001BE
:1012A000BE4BBF2B01012D07D8A02E0701012D51E8
:1012B00001012E11D8B459D0ECD701012D510101F3
:1012C0002E11D8A40DD001012351010124110101D7
:1012D000251101012611D8A403D001012D4B2E2B7D
:1012E000800E010133BF7F0E0001C66F01012D5139
:1012F0000101335D01012E51800A0001C659D8B0A9
:1013000003D02DC133F118D001012E51800A000104
:10131000C66F0101335101012D5D800E010133BF04
:101320007F0E0001C659D8B007D001013351010129
:101330002D6F2E6B2DBF2E07030E0101211500010D
:10134000C66F000E010122150001C76F0001C651D2
:101350000001C711D8B409D0BEC0D9FFBFC0DAFFA1
:101360002D0EDF6E0001BE4BBF2BC0C0F6FFC1C00B
:10137000F7FF0001C04BC12B000EF86E0800F5CF3F
:1013800033F101013351D8A48BEF85F0BEC0D9FFF2
:10139000BFC0DAFF000EDF6E12000F0140B73FD171
:1013A00074C045FF000175AD03D00F01458D02D01B
:1013B0000F01459D000175A779D000016E51000114
:1013C0007A6F7B6B7C6B7D6B7AC044FF000E0001F3
:1013D0006E1500017A6FFF0E00016F1500017B6F23
:1013E000000E0001701500017C6F000E00017115E8
:1013F00000017D6F7AC076F07BC077F07CC078F01A
:101400007DC079F077C076F078C077F079C078F059
:101410000001796B76C07AF077C07BF078C07CF001
:1014200079C07DF07AC043FF000E0F01426F0F01BB
:101430004287000170A102D00F014281000170A318
:1014400002D00F014283000170A502D00F01428B30
:10145000000170A702D00F01428D000170A902D0D7
:101460000F01428F6EC076F06FC077F070C078F0D9
:1014700071C079F0160E06D00001D8907933783318
:1014800077337633E82EF8D776C07AF077C07BF0E2
:1014900078C07CF079C07DF000017A5100017A6F4C
:1014A0007B6B7C6B7D6B7AC041FF59D00F014297FB
:1014B0006EC076F06FC077F070C078F071C079F0D0
:1014C000040E06D00001D890793378337733763321
:1014D000E82EF8D776C07AF077C07BF078C07CF041
:1014E00079C07DF000017A5100017A6F7B6B7C6BD3
:1014F0007D6B7AC041FF070E00016E1500017A6F07
:10150000000E00016F1500017B6F000E00017015C9
:1015100000017C6F000E0001711500017D6F7AC023
:1015200076F07BC077F07CC078F07DC079F0050E56
:10153000D89000017637773778377937E82EF8D7A3
:1015400076C07AF077C07BF078C07CF079C07DF00F
:101550000F0142511F0B0F01426F7AC042FF000181
:1015600075A103D00F01408102D00F01409100010D
:1015700075A303D00F01408302D00F01409372C0C6
:10158000D9FF73C0DAFFDF500F01466F000120EE74
:1015900001F07251D9267351DA22DF500F01476FE3
:1015A000000120EE02F07251D9267351DA22DF5089
:1015B0000F01486F000120EE03F07251D9267351DC
:1015C000DA22DF500F01496F000120EE04F0725162
:1015D000D9267351DA22DF500F014A6F000120EE45
:1015E00005F07251D9267351DA22DF500F014B6F8B
:1015F000000120EE06F07251D9267351DA22DF5035
:101600000F014C6F000120EE07F07251D926735183
:10161000DA22DF500F014D6F0F01408712000F01DA
:1016200030B73FD174C035FF000175AD03D00F0155
:10163000358D02D00F01359D000175A779D00001CD
:101640006E5100017A6F7B6B7C6B7D6B7AC034FFCF
:10165000000E00016E1500017A6FFF0E00016F157C
:1016600000017B6F000E0001701500017C6F000E01
:101670000001711500017D6F7AC076F07BC077F0B4
:101680007CC078F07DC079F077C076F078C077F0D4
:1016900079C078F00001796B76C07AF077C07BF082
:1016A00078C07CF079C07DF07AC033FF000E0F0166
:1016B000326F0F013287000170A102D00F01328119
:1016C000000170A302D00F013283000170A502D087
:1016D0000F01328B000170A702D00F01328D000183
:1016E00070A902D00F01328F6EC076F06FC077F014
:1016F00070C078F071C079F0160E06D00001D89055
:101700007933783377337633E82EF8D776C07AF0AA
:1017100077C07BF078C07CF079C07DF000017A5111
:1017200000017A6F7B6B7C6B7D6B7AC031FF59D087
:101730000F0132976EC076F06FC077F070C078F00E
:1017400071C079F0040E06D00001D8907933783357
:1017500077337633E82EF8D776C07AF077C07BF00F
:1017600078C07CF079C07DF000017A5100017A6F79
:101770007B6B7C6B7D6B7AC031FF070E00016E15B1
:1017800000017A6F000E00016F1500017B6F000EE3
:101790000001701500017C6F000E00017115000141
:1017A0007D6F7AC076F07BC077F07CC078F07DC02A
:1017B00079F0050ED890000176377737783779378A
:1017C000E82EF8D776C07AF077C07BF078C07CF04E
:1017D00079C07DF00F0132511F0B0F01326F7AC0BB
:1017E00032FF000175A103D00F01308102D00F013B
:1017F0003091000175A303D00F01308302D00F0197
:10180000309372C0D9FF73C0DAFFDF500F01366F1B
:10181000000120EE01F07251D9267351DA22DF5017
:101820000F01376F000120EE02F07251D92673517B
:10183000DA22DF500F01386F000120EE03F0725101
:10184000D9267351DA22DF500F01396F000120EEE3
:1018500004F07251D9267351DA22DF500F013A6F2A
:10186000000120EE05F07251D9267351DA22DF50C3
:101870000F013B6F000120EE06F07251D926735123
:10188000DA22DF500F013C6F000120EE07F07251A9
:10189000D9267351DA22DF500F013D6F0F013087D7
:1018A00012000F0120B7120074C025FF000175ADB2
:1018B00003D00F01258D02D00F01259D000175A7D2
:1018C00079D000016E5100017A6F7B6B7C6B7D6B70
:1018D0007AC024FF000E00016E1500017A6FFF0E22
:1018E00000016F1500017B6F000E000170150001F3
:1018F0007C6F000E0001711500017D6F7AC076F0DB
:101900007BC077F07CC078F07DC079F077C076F04E
:1019100078C077F079C078F00001796B76C07AF002
:1019200077C07BF078C07CF079C07DF07AC023FF6F
:10193000000E0F01226F0F012287000170A102D05B
:101940000F012281000170A302D00F012283000148
:1019500070A502D00F01228B000170A702D00F01E9
:10196000228D000170A902D00F01228F6EC076F087
:101970006FC077F070C078F071C079F0160E06D0A5
:101980000001D8907933783377337633E82EF8D75F
:1019900076C07AF077C07BF078C07CF079C07DF0BB
:1019A00000017A5100017A6F7B6B7C6B7D6B7AC092
:1019B00021FF59D00F0122976EC076F06FC077F0EB
:1019C00070C078F071C079F0040E06D00001D89094
:1019D0007933783377337633E82EF8D776C07AF0D8
:1019E00077C07BF078C07CF079C07DF000017A513F
:1019F00000017A6F7B6B7C6B7D6B7AC021FF070ED9
:101A000000016E1500017A6F000E00016F150001D4
:101A10007B6F000E0001701500017C6F000E00014D
:101A2000711500017D6F7AC076F07BC077F07CC0C5
:101A300078F07DC079F0050ED890000176377737C1
:101A400078377937E82EF8D776C07AF077C07BF010
:101A500078C07CF079C07DF00F0122511F0B0F017F
:101A6000226F7AC022FF000175A103D00F012081EF
:101A700002D00F012091000175A303D00F01208334
:101A800002D00F01209372C0D9FF73C0DAFFDF507C
:101A90000F01266F000120EE01F07251D92673511B
:101AA000DA22DF500F01276F000120EE02F07251A1
:101AB000D9267351DA22DF500F01286F000120EE82
:101AC00003F07251D9267351DA22DF500F01296FCA
:101AD000000120EE04F07251D9267351DA22DF5052
:101AE0000F012A6F000120EE05F07251D9267351C3
:101AF000DA22DF500F012B6F000120EE06F0725149
:101B0000D9267351DA22DF500F012C6F000120EE2D
:101B100007F07251D9267351DA22DF500F012D6F71
:101B20000F01208712000F0140B715D13CC045FFBF
:101B30003DAC03D00F01458D02D00F01459D3DA660
:101B400066D03650426E436A446A456A42C044FFDA
:101B5000000E3614426EFF0E3714436E000E38141A
:101B6000446E000E3914456E42C03EF043C03FF053
:101B700044C040F045C041F03FC03EF040C03FF09F
:101B800041C040F0416A3EC042F03FC043F040C017
:101B900044F041C045F042C043FF000E0F01426FC8
:101BA0000F01428738A002D00F01428138A202D033
:101BB0000F01428338A402D00F01428B38A602D015
:101BC0000F01428D38A802D00F01428F36C03EF07F
:101BD00037C03FF038C040F039C041F0160E05D094
:101BE000D890413240323F323E32E82EF9D73EC0E3
:101BF00042F03FC043F040C044F041C045F0425085
:101C0000426E436A446A456A42C041FF4DD00F01AB
:101C1000429736C03EF037C03FF038C040F039C080
:101C200041F0040E05D0D890413240323F323E326E
:101C3000E82EF9D73EC042F03FC043F040C044F028
:101C400041C045F04250426E436A446A456A42C010
:101C500041FF070E3614426E000E3714436E000E1D
:101C60003814446E000E3914456E42C03EF043C035
:101C70003FF044C040F045C041F0050ED8903E36DC
:101C80003F3640364136E82EF9D73EC042F03FC0DD
:101C900043F040C044F041C045F00F0142511F0BDA
:101CA0000F01426F42C042FF3DA003D00F014081AF
:101CB00002D00F0140913DA203D00F01408302D01A
:101CC0000F0140933AC0D9FF3BC0DAFFDF500F014C
:101CD000466F20EE01F03A50D9263B50DA22DF5011
:101CE0000F01476F20EE02F03A50D9263B50DA221E
:101CF000DF500F01486F20EE03F03A50D9263B50D9
:101D0000DA22DF500F01496F20EE04F03A50D92655
:101D10003B50DA22DF500F014A6F20EE05F03A50B7
:101D2000D9263B50DA22DF500F014B6F20EE06F030
:101D30003A50D9263B50DA22DF500F014C6F20EE8B
:101D400007F03A50D9263B50DA22DF500F014D6F91
:101D50000F01408712000F0130B715D13CC035FF8D
:101D60003DAC03D00F01358D02D00F01359D3DA64E
:101D700066D03650426E436A446A456A42C034FFB8
:101D8000000E3614426EFF0E3714436E000E3814E8
:101D9000446E000E3914456E42C03EF043C03FF021
:101DA00044C040F045C041F03FC03EF040C03FF06D
:101DB00041C040F0416A3EC042F03FC043F040C0E5
:101DC00044F041C045F042C033FF000E0F01326FB6
:101DD0000F01328738A002D00F01328138A202D021
:101DE0000F01328338A402D00F01328B38A602D003
:101DF0000F01328D38A802D00F01328F36C03EF06D
:101E000037C03FF038C040F039C041F0160E05D061
:101E1000D890413240323F323E32E82EF9D73EC0B0
:101E200042F03FC043F040C044F041C045F0425052
:101E3000426E436A446A456A42C031FF4DD00F0189
:101E4000329736C03EF037C03FF038C040F039C05E
:101E500041F0040E05D0D890413240323F323E323C
:101E6000E82EF9D73EC042F03FC043F040C044F0F6
:101E700041C045F04250426E436A446A456A42C0DE
:101E800031FF070E3614426E000E3714436E000EFB
:101E90003814446E000E3914456E42C03EF043C003
:101EA0003FF044C040F045C041F0050ED8903E36AA
:101EB0003F3640364136E82EF9D73EC042F03FC0AB
:101EC00043F040C044F041C045F00F0132511F0BB8
:101ED0000F01326F42C032FF3DA003D00F013081AD
:101EE00002D00F0130913DA203D00F01308302D008
:101EF0000F0130933AC0D9FF3BC0DAFFDF500F012A
:101F0000366F20EE01F03A50D9263B50DA22DF50EE
:101F10000F01376F20EE02F03A50D9263B50DA22FB
:101F2000DF500F01386F20EE03F03A50D9263B50B6
:101F3000DA22DF500F01396F20EE04F03A50D92633
:101F40003B50DA22DF500F013A6F20EE05F03A5095
:101F5000D9263B50DA22DF500F013B6F20EE06F00E
:101F60003A50D9263B50DA22DF500F013C6F20EE69
:101F700007F03A50D9263B50DA22DF500F013D6F6F
:101F80000F01308712000F0120B712003CC025FF5F
:101F90003DAC03D00F01258D02D00F01259D3DA63C
:101FA00066D03650426E436A446A456A42C024FF96
:101FB000000E3614426EFF0E3714436E000E3814B6
:101FC000446E000E3914456E42C03EF043C03FF0EF
:101FD00044C040F045C041F03FC03EF040C03FF03B
:101FE00041C040F0416A3EC042F03FC043F040C0B3
:101FF00044F041C045F042C023FF000E0F01226FA4
:102000000F01228738A002D00F01228138A202D00E
:102010000F01228338A402D00F01228B38A602D0F0
:102020000F01228D38A802D00F01228F36C03EF05A
:1020300037C03FF038C040F039C041F0160E05D02F
:10204000D890413240323F323E32E82EF9D73EC07E
:1020500042F03FC043F040C044F041C045F0425020
:10206000426E436A446A456A42C021FF4DD00F0167
:10207000229736C03EF037C03FF038C040F039C03C
:1020800041F0040E05D0D890413240323F323E320A
:10209000E82EF9D73EC042F03FC043F040C044F0C4
:1020A00041C045F04250426E436A446A456A42C0AC
:1020B00021FF070E3614426E000E3714436E000ED9
:1020C0003814446E000E3914456E42C03EF043C0D1
:1020D0003FF044C040F045C041F0050ED8903E3678
:1020E0003F3640364136E82EF9D73EC042F03FC079
:1020F00043F040C044F041C045F00F0122511F0B96
:102100000F01226F42C022FF3DA003D00F012081AA
:1021100002D00F0120913DA203D00F01208302D0F5
:102120000F0120933AC0D9FF3BC0DAFFDF500F0107
:10213000266F20EE01F03A50D9263B50DA22DF50CC
:102140000F01276F20EE02F03A50D9263B50DA22D9
:10215000DF500F01286F20EE03F03A50D9263B5094
:10216000DA22DF500F01296F20EE04F03A50D92611
:102170003B50DA22DF500F012A6F20EE05F03A5073
:10218000D9263B50DA22DF500F012B6F20EE06F0EC
:102190003A50D9263B50DA22DF500F012C6F20EE47
:1021A00007F03A50D9263B50DA22DF500F012D6F4D
:1021B0000F012087120000019D6F00019DAF45D1E6
:1021C00000019D6D00019D51800A120FD8A0BBD067
:1021D000000E0001776F0A0E766F000E0001716F1E
:1021E000640E706F00019D5100016E6F6F6B6EBFCA
:1021F0006F0716ECACF06EC074F06FC075F048EC71
:10220000AAF00001D890743775370001D890743760
:102210007537240E00017427000E00017523F10E9E
:1022200000017425F66EFE0E00017521F76EF86A46
:10223000000EF8220900F5CF80F00900F5CF81F0FB
:102240000900F5CF82F00A00F5CF83F0000E0001FF
:10225000776F640E766F00019D510001746F756B8E
:1022600074BF750748ECAAF00001D8907437753731
:102270000001D89074377537480E00017427000E9E
:1022800000017523F10E00017425F66EFE0E0001AB
:102290007521F76EF86A000EF8220900F5CF7CF080
:1022A0000900F5CF7DF00900F5CF7EF00A00F5CFEB
:1022B0007FF042EC98F07CC099F07DC09AF07EC02F
:1022C0009BF07FC09CF099C07CF09AC07DF09BC0D1
:1022D0007EF09CC07FF0000E0001716F0A0E706FDF
:1022E00000019D5100016E6F6F6B6EBF6F0716ECA2
:1022F000ACF00001D8906E376F370001D8906E3780
:102300006F37F10E00016E25F66EFE0E00016F2193
:10231000F76EF86A000EF8220900F5CF80F0090088
:10232000F5CF81F00900F5CF82F00A00F5CF83F0F8
:1023300042EC98F07CC095F07DC096F07EC097F09E
:102340007FC098F0120000019D51800A750FD8A03F
:1023500063D0000E0001776F0A0E766F00019D5169
:102360000001746F756B74BF750748ECAAF000012B
:10237000D890743775370001D89074377537240EAC
:1023800000017427000E00017523F10E0001742571
:10239000F66EFE0E00017521F76EF86A000EF82247
:1023A0000900F5CF7CF00900F5CF7DF00900F5CFED
:1023B0007EF00A00F5CF7FF0000E0001716F0A0E6B
:1023C000706F00019D5100016E6F6F6B6EBF6F07E4
:1023D00016ECACF00001D8906E376F370001D89042
:1023E0006E376F37F10E00016E25F66EFE0E00019E
:1023F0006F21F76EF86A000EF8220900F5CF80F021
:102400000900F5CF81F00900F5CF82F00A00F5CF81
:1024100083F042EC98F08ED700019D51040DF10E2F
:10242000F324F66EFE0EF420F76EF86A000EF82222
:102430000900F5CF95F00900F5CF96F00900F5CF2A
:1024400097F00A00F5CF98F0120000019D51800A24
:10245000120FD8A0BBD0000E0001776F0A0E766F66
:10246000000E0001716F640E706F00019D5100013C
:102470006E6F6F6B6EBF6F0716ECACF06EC074F0D2
:102480006FC075F048ECAAF00001D890743775372A
:102490000001D89074377537240E00017427000EA0
:1024A00000017523250E00017425F66EFF0E000154
:1024B0007521F76EF86A000EF8220900F5CF80F05A
:1024C0000900F5CF81F00900F5CF82F00A00F5CFC1
:1024D00083F0000E0001776F640E766F00019D514E
:1024E0000001746F756B74BF750748ECAAF00001AA
:1024F000D890743775370001D89074377537480E07
:1025000000017427000E00017523250E00017425BB
:10251000F66EFF0E00017521F76EF86A000EF822C4
:102520000900F5CF7CF00900F5CF7DF00900F5CF6B
:102530007EF00A00F5CF7FF042EC98F07CC099F075
:102540007DC09AF07EC09BF07FC09CF099C07CF06B
:102550009AC07DF09BC07EF09CC07FF0000E000111
:10256000716F0A0E706F00019D5100016E6F6F6BED
:102570006EBF6F0716ECACF00001D8906E376F3766
:102580000001D8906E376F37250E00016E25F66E6C
:10259000FF0E00016F21F76EF86A000EF8220900A5
:1025A000F5CF80F00900F5CF81F00900F5CF82F07A
:1025B0000A00F5CF83F042EC98F07CC095F07DC026
:1025C00096F07EC097F07FC098F0120000019D51F8
:1025D000800A750FD8A063D0000E0001776F0A0E35
:1025E000766F00019D510001746F756B74BF7507A4
:1025F00048ECAAF00001D890743775370001D890E4
:1026000074377537240E00017427000E00017523FE
:10261000250E00017425F66EFF0E00017521F76E80
:10262000F86A000EF8220900F5CF7CF00900F5CF1A
:102630007DF00900F5CF7EF00A00F5CF7FF0000EA7
:102640000001716F0A0E706F00019D5100016E6FE5
:102650006F6B6EBF6F0716ECACF00001D8906E3751
:102660006F370001D8906E376F37250E00016E2549
:10267000F66EFF0E00016F21F76EF86A000EF82269
:102680000900F5CF80F00900F5CF81F00900F5CF02
:1026900082F00A00F5CF83F042EC98F08ED700016B
:1026A0009D51040D250EF324F66EFF0EF420F76EF7
:1026B000F86A000EF8220900F5CF95F00900F5CF71
:1026C00096F00900F5CF97F00A00F5CF98F01200C8
:1026D000000E406E74BE408074BC40820F0150AF4B
:1026E00043D136C0D9FF37C0DAFFDE6ADE6ADE6A60
:1026F000DD6A20EE04F03650D9263750DA2256CF64
:10270000DFFF20EE05F03650D9263750DA2257CFBA
:10271000DFFF20EE06F03650D9263750DA2258CFA8
:10272000DFFF20EE07F03650D9263750DA2259CF96
:10273000DFFF20EE08F03650D9263750DA225ACF84
:10274000DFFF20EE09F03650D9263750DA225BCF72
:10275000DFFF20EE0AF03650D9263750DA225CCF60
:10276000DFFF20EE0BF03650D9263750DA225DCF4E
:10277000DFFF20EE0EF03650D9263750DA220F0157
:1027800055AD02D0010E01D0000EDF6E20EE0DF02F
:102790003650D9263750DA220F0155510F0BDF6E14
:1027A00020EE0CF03650D9263750DA220F0152A70E
:1027B00002D0010E01D0000EDF6E0F0152B744D0DF
:1027C00051CF38F0396A3A6A3B6A030ED8903836EE
:1027D00039363A363B36E82EF9D736C0D9FF37C0FE
:1027E000DAFF38C0DEFF39C0DEFF3AC0DEFF3BC093
:1027F000DEFF0F015239E842070B070B416E36C06E
:10280000D9FF37C0DAFFDECF38F0DECF39F0DECFC8
:102810003AF0DECF3BF0415038243C6E000E3920B8
:102820003D6E000E3A203E6E000E3B203F6E36C0DD
:10283000D9FF37C0DAFF3CC0DEFF3DC0DEFF3EC03F
:10284000DEFF3FC0DEFF8DD054CF38F0396A3A6AE0
:102850003B6A36C0D9FF37C0DAFF38C0DEFF39C067
:10286000DEFF3AC0DEFF3BC0DEFF53CF38F0396AEF
:102870003A6A3B6A3AC03BF039C03AF038C039F0A6
:10288000386A36C0D9FF37C0DAFF3850DE263950F3
:10289000DE223A50DE223B50DE220F0152A10CD044
:1028A00036C0D9FF37C0DAFF000EDE12000EDE128E
:1028B000010EDE12000EDE120F0152A30CD036C044
:1028C000D9FF37C0DAFF000EDE12000EDE12020E54
:1028D000DE12000EDE120F0152AB0CD036C0D9FF53
:1028E00037C0DAFF000EDE12000EDE12040EDE121A
:1028F000000EDE120F0152AD0CD036C0D9FF37C02A
:10290000DAFF000EDE12000EDE12080EDE12000EDE
:10291000DE120F0152AF0CD036C0D9FF37C0DAFF3C
:10292000000EDE12000EDE12100EDE12000EDE129F
:1029300051CF38F0396A3A6A3B6A150ED89038366A
:1029400039363A363B36E82EF9D736C0D9FF37C08C
:10295000DAFF3850DE123950DE123A50DE123B50A8
:10296000DE120F01509F120060AE120036C0D9FF78
:1029700037C0DAFFDE6ADE6ADE6ADD6A20EE04F066
:102980003650D9263750DA2266CFDFFF20EE05F029
:102990003650D9263750DA2267CFDFFF20EE06F017
:1029A0003650D9263750DA2268CFDFFF20EE07F005
:1029B0003650D9263750DA2269CFDFFF20EE08F0F3
:1029C0003650D9263750DA226ACFDFFF20EE09F0E1
:1029D0003650D9263750DA226BCFDFFF20EE0AF0CF
:1029E0003650D9263750DA226CCFDFFF20EE0BF0BD
:1029F0003650D9263750DA226DCFDFFF20EE0EF0A9
:102A00003650D9263750DA2265AC02D0010E01D0FB
:102A1000000EDF6E20EE0DF03650D9263750DA2248
:102A200065500F0BDF6E20EE0CF03650D926375074
:102A3000DA2262A602D0010E01D0000EDF6E62B66D
:102A400043D061CF38F0396A3A6A3B6A030ED890B6
:102A5000383639363A363B36E82EF9D736C0D9FF04
:102A600037C0DAFF38C0DEFF39C0DEFF3AC0DEFF14
:102A70003BC0DEFF6238E842070B070B416E36C0F1
:102A8000D9FF37C0DAFFDECF38F0DECF39F0DECF46
:102A90003AF0DECF3BF0415038243C6E000E392036
:102AA0003D6E000E3A203E6E000E3B203F6E36C05B
:102AB000D9FF37C0DAFF3CC0DEFF3DC0DEFF3EC0BD
:102AC000DEFF3FC0DEFF88D064CF38F0396A3A6A53
:102AD0003B6A36C0D9FF37C0DAFF38C0DEFF39C0E5
:102AE000DEFF3AC0DEFF3BC0DEFF63CF38F0396A5D
:102AF0003A6A3B6A3AC03BF039C03AF038C039F024
:102B0000386A36C0D9FF37C0DAFF3850DE26395070
:102B1000DE223A50DE223B50DE2262A00CD036C0CC
:102B2000D9FF37C0DAFF000EDE12000EDE12010EF2
:102B3000DE12000EDE1262A20CD036C0D9FF37C002
:102B4000DAFF000EDE12000EDE12020EDE12000EA2
:102B5000DE1262AA0CD036C0D9FF37C0DAFF000EF1
:102B6000DE12000EDE12040EDE12000EDE1262AC69
:102B70000CD036C0D9FF37C0DAFF000EDE12000ECF
:102B8000DE12080EDE12000EDE1262AE0CD036C06F
:102B9000D9FF37C0DAFF000EDE12000EDE12100E73
:102BA000DE12000EDE1261CF38F0396A3A6A3B6AF3
:102BB000150ED890383639363A363B36E82EF9D7E6
:102BC00036C0D9FF37C0DAFF3850DE123950DE1276
:102BD0003A50DE123B50DE12609E12000001A551F9
:102BE000800B0001B26F0001A551A5250001B46F53
:102BF0000001A4AF02D00001B4810001B451000172
:102C0000D8B412D00001B429D8A409D0000E000114
:102C1000A26F000EA36F000EA46F000EA56F00013F
:102C2000A48F000E000108D0000E0001A26F000E5C
:102C3000A36F000EA46F000EA56F0001A951800BB9
:102C40000001B36F0001B2510001B319D8B402D032
:102C50000001B28D0001A951A9250001B36F000147
:102C6000A8AF02D00001B3810001B3510001D8B474
:102C700012D00001B329D8A409D0000E0001A66F1C
:102C8000000EA76F000EA86F000EA96F0001A88F9D
:102C9000000E000108D0000E0001A66F000EA76F05
:102CA000000EA86F000EA96F0001B4510001B35DC2
:102CB000D8B024D00001B2AD03D0800E0001B21B09
:102CC000B4C0B5F0B3C0B4F0B5C0B3F0A2C0B5F0B5
:102CD000A6C0A2F0B5C0A6F0A3C0B5F0A7C0A3F0EF
:102CE000B5C0A7F0A4C0B5F0A8C0A4F0B5C0A8F0C6
:102CF000A5C0B5F0A9C0A5F0B5C0A9F0000E0001AF
:102D0000B56F0001B4510001AA6FAB6B0001AA1F9F
:102D1000AB1FAA4BAB2B0001B3510001AC6FAD6BE5
:102D20000001AA510001AC270001AB510001AD2305
:102D30000001ADBF3DD00001AD5105E11A0E00010B
:102D4000AC5DD8A035D00001A2510001A311000153
:102D5000A4110001A511D8B402D0010E01D0000EBB
:102D60000001B56F000E0001A26F000EA36F000EF0
:102D7000A46F000EA56FB3C0B4F020D00001B5A1C0
:102D800007D00001D890B53101090001B56F03D01B
:102D90000001D890B5330001A2A102D00001B58F87
:102DA0000001A535A533A433A333A2330001B42B0E
:102DB0000001B3510001B45DD8A0E0D70001B2BD5D
:102DC0003FD00001B4510001D8A40AD0000E000188
:102DD000A26F000EA36F000EA46F000EA56F12006D
:102DE0000001A6510001A2270001A7510001A32361
:102DF0000001A8510001A4230001A9510001A5234D
:102E00000001A5A1CCD00001B5A109D00001D89046
:102E1000B5330001B55101090001B56F03D00001C0
:102E2000D890B5330001A2A102D00001B58F0001F6
:102E3000A535A533A433A333A2330001B42BAFD0FF
:102E40000001A6510001A25D0001A7510001A35994
:102E50000001A8510001A4590001A551800A0001F8
:102E6000AA6F0001A951800A0001AA59D8B050D018
:102E7000A2C0AAF0A3C0ABF0A4C0ACF0A5C0ADF056
:102E80000001AA1FAB1FAC1FAD1FAA2B000EAB2366
:102E9000AC23AD230001A6510001AA250001AE6FAD
:102EA0000001A7510001AB210001AF6F0001A85143
:102EB0000001AC210001B06F0001A9510001AD215A
:102EC0000001B16FFF0E0001AE250001A26FFF0EE1
:102ED0000001AF210001A36FFF0E0001B02100012E
:102EE000A46FFF0E0001B1210001A56F800E00014B
:102EF000B21B0001B56D0001B5510001D8A418D076
:102F0000010E0001A227000EA323A423A52310D0A5
:102F10000001A6510001A25F0001A7510001A35BBF
:102F20000001A8510001A45B0001A9510001A55BAB
:102F30000001A2510001A3110001A4110001A5117B
:102F4000D8A42AD00001B5510001D8A425D0000E84
:102F50000001A26F000EA36F000EA46F000EA56FFC
:102F600012000001D890A237A337A437A53700017B
:102F7000B5AF02D00001A2810001B5A103D0D88075
:102F8000000102D00001D890B5370001B451000112
:102F9000D8B402D00001B4070001A4AFE2D7000EFC
:102FA0000001B36F0001B5AF0DD0B5C0AAF07F0E20
:102FB0000001AA17D8A403D00001A2A103D0010EDA
:102FC0000001B36F0001B3510001D8B426D0010E47
:102FD0000001A227000EA323A423A5230001A5A17D
:102FE0001CD0A2C0AAF0A3C0ABF0A4C0ACF0A5C096
:102FF000ADF00001AD35AD33AC33AB33AA33AAC06D
:10300000A2F0ABC0A3F0ACC0A4F0ADC0A5F000012D
:10301000B429D8B402D00001B42B0001B429D8B42B
:1030200005D00001B4510001D8A411D0000E000158
:10303000A26F000EA36F000EA46F000EA56F00011B
:10304000B4510001D8A403D0000E0001B26F0001FA
:10305000B4A103D00001A48F02D00001A49F0001FD
:10306000D890B4310001A56F0001B2AF02D00001C9
:10307000A58FA2C0A2F0A3C0A3F0A4C0A4F0A5C0D5
:10308000A5F0120000017F51800B0001886F000144
:103090007F517F2500018E6F00017EAF02D00001BD
:1030A0008E8100018E510001D8B410D000018E290C
:1030B000D8A409D0000E00017C6F000E7D6F000EB9
:1030C0007E6F000E7F6F00017E8F09D0000E000121
:1030D0007C6F000E7D6F000E7E6F000E7F6F000113
:1030E0008351800B0001881B00018351832500015F
:1030F000896F000182AF02D00001898100018951EE
:103100000001D8B410D000018929D8A409D0000E3C
:103110000001806F000E816F000E826F000E836FC2
:103120000001828F09D0000E0001806F000E816FB8
:10313000000E826F000E836F000189510001D8B428
:1031400005D000018E510001D8A40AD0000E000164
:103150007C6F000E7D6F000E7E6F000E7F6F120081
:103160000001825100017C03F3CF93F0F4CF94F07F
:103170000001935100018A6F8B6B8C6B8D6B00018A
:10318000945100018F6F906B916B926B0001815194
:1031900000017D03F3CF93F0F4CF94F0000193513D
:1031A00000018A27000E8B238C238D23000194516C
:1031B00000018F27000E902391239223000180515C
:1031C00000017E03F3CF93F0F4CF94F0000193510C
:1031D00000018A27000E8B238C238D23000194513C
:1031E00000018F27000E9023912392238CC08DF035
:1031F0008BC08CF08AC08BF000018A6B000180517B
:1032000000017D03F3CF93F0F4CF94F000019351CC
:1032100000018A270001945100018B23000E000158
:103220008C23000E00018D230001815100017C03DD
:10323000F3CF93F0F4CF94F00001935100018A276B
:103240000001945100018B23000E00018C23000E1D
:1032500000018D238CC08DF08BC08CF08AC08BF068
:1032600000018A6B0001805100017C03F3CF93F0D1
:10327000F4CF94F00001935100018A27000194518A
:1032800000018B23000E00018C23000E00018D2312
:103290000001825100017D03F3CF93F0F4CF94F04D
:1032A0000001935100018F270001945100019023E8
:1032B000000E00019123000E0001922300018151B4
:1032C00000017E03F3CF93F0F4CF94F0000193510B
:1032D00000018F270001945100019023000E00018E
:1032E0009123000E000192230001825100017E0310
:1032F000F3CF93F0F4CF94F0000193510001846F69
:10330000000194510001856F0001866B0001876BFD
:1033100086C087F085C086F084C085F00001846B8C
:103320000001845100018F27000185510001902385
:103330000001865100019123000187510001922371
:103340008AC084F08BC085F08CC086F08DC087F079
:10335000190E06D00001D890873386338533843325
:10336000E82EF8D70001845100018F270001855114
:103370000001902300018651000191230001875133
:10338000000192238CC08DF08BC08CF08AC08BF032
:1033900000018A6B000189518EC084F00001856BA9
:1033A00000018427000E8523820E00018425000180
:1033B000936FFF0E000185210001946F15D000016D
:1033C000D8908F3790379137923700018DAF02D068
:1033D00000018F810001D8908A378B378C378D3769
:1033E00000019307D8A09407000191AFE8D7000E21
:1033F0000001896F00018DAF24D0FF0E00018A15F6
:103400000001846FFF0E00018B150001856FFF0E18
:1034100000018C150001866F7F0E00018D150001E3
:10342000876F0001845100018511000186110001A0
:103430008711D8A403D000018FA103D0010E000191
:10344000896F000189510001D8B423D0010E000119
:103450008F27000E902391239223000192A119D06F
:103460008FC084F090C085F091C086F092C087F044
:1034700000018735873386338533843384C08FF0EA
:1034800085C090F086C091F087C092F00001934B08
:10349000942B000194BF10D00001945104E100016D
:1034A0009329D8A009D0000E00018F6F000E906FF5
:1034B000800E916F7F0E2BD0000194BF07D00001CA
:1034C000945111E100019305D8B00DD0000E000118
:1034D0008F6F000E906F000E916F000E926F000EB6
:1034E0000001886F15D093C08EF0FF0E00018F177A
:1034F000FF0E90177F0E9117000E921700018EA1FC
:1035000002D00001918F0001D8908E310001926F9E
:1035100000018851000192138FC07CF090C07DF0B3
:1035200091C07EF092C07FF01200DCECA9F0CF0ECB
:103530000001D06FF70ED16F330ED26F3F0ED36FF5
:10354000000E0001D46F000ED56FA00ED66F400E96
:10355000D76F16ECAFF047BA9AD0000E0001EC6FAF
:10356000000E0001EB6F000EEA6F5A0E0001F06FC3
:10357000000E0001EE6F010E0001EF6F64ECABF086
:10358000100E80ECA7F0010E66ECA9F0AB0E000166
:103590007F6FFF0E0001806F70ECAEF0020E66ECE4
:1035A000A9F0960E00017F6FFF0E0001806F70EC96
:1035B000AEF0030E66ECA9F0810E00017F6FFF0EE6
:1035C0000001806F70ECAEF0040E66ECA9F0AB0E5B
:1035D00000017F6FFF0E0001806F70ECAEF054D0E1
:1035E000D8C0C8F0D9C0C9F0DAC0CAF0DBC0CBF08F
:1035F0000001C81FC91FCA1FCB1FC82B000EC9233B
:10360000CA23CB231A500001C8250001CC6F1B50E0
:103610000001C9210001CD6F1C500001CA21000129
:10362000CE6F1D500001CB210001CF6F0001CF51A3
:103630000001CE110001CD1105E11E0E0001CC5D8F
:10364000D8A019D01AC0D8F01BC0D9F01CC0DAF02D
:103650001DC0DBF083AE02D0010E01D0000EFF0AC8
:103660000001C86F0001C833C83383500001C81976
:103670007F0BC819836E16ECAFF0000E0001756F5A
:103680000A0E746F1CECAEF047AAAAD7839E6CECAE
:10369000ADF080A404D0000E0001ED6F0DD080B617
:1036A00005D0010E0001ED6F010E04D0020E0001E5
:1036B000ED6F000E0001EC6FD0C080F0D1C081F042
:1036C000D2C082F0D3C083F00001E45100016E6FDC
:1036D0006F6B706B716B000EBAECA1F06EC07CF07A
:1036E0006FC07DF070C07EF071C07FF042EC98F04A
:1036F0007CC09EF07DC09FF07EC0A0F07FC0A1F096
:10370000E0ECA8F000019E510001F06F0001ED51C6
:10371000D8B488D0840E0001E56542D0D4C080F0D2
:10372000D5C081F0D6C082F0D7C083F07E0E0001F4
:10373000C86FFF0E0001C96F0001E5510001CA6F9B
:10374000CB6B0001C8510001CA270001C95100011B
:10375000CB23CAC06EF0CBC06FF00001000E6FBF6C
:10376000FF0E706F716F010EBAECA1F06EC07CF0AD
:103770006FC07DF070C07EF071C07FF042EC98F0B9
:103780007CC09EF07DC09FF07EC0A0F07FC0A1F005
:10379000E0ECA8F09EC0EAF09FC0EBF0000E40D035
:1037A000000E0001EB6F000EEA6F330E0001806F18
:1037B000330E816FF30E826F3F0E836F0001E55170
:1037C0000001C86FC96B0001C81FC91FC84BC92BB6
:1037D000820E0001C827000EC923C8C06EF0C9C000
:1037E0006FF00001000E6FBFFF0E706F716F010E62
:1037F000BAECA1F06EC07CF06FC07DF070C07EF0BE
:1038000071C07FF042EC98F07CC09EF07DC09FF0CC
:103810007EC0A0F07FC0A1F0E0ECA8F000019E51B6
:103820000001EE6F47A803D0C1ECABF04798DCC0B5
:10383000C8F0DDC0C9F0DEC0CAF0DFC0CBF00001C7
:10384000C81FC91FCA1FCB1FC82B000EC923CA23FC
:10385000CB231A500001C8250001CC6F1B5000017A
:10386000C9210001CD6F1C500001CA210001CE6F9B
:103870001D500001CB210001CF6F0001CF5100018D
:10388000CE110001CD1105E1020E0001CC5DD8A0E2
:103890000AD01AC0DCF01BC0DDF01CC0DEF01DC079
:1038A000DFF064ECABF0E0C0C8F0E1C0C9F0E2C00A
:1038B000CAF0E3C0CBF00001C81FC91FCA1FCB1F4D
:1038C000C82B000EC923CA23CB231A500001C825D8
:1038D0000001CC6F1B500001C9210001CD6F1C50AD
:1038E0000001CA210001CE6F1D500001CB21000153
:1038F000CF6F0001CF510001CE110001CD1105E1C4
:10390000640E0001CC5DD8A024D61AC0E0F01BC024
:10391000E1F01CC0E2F01DC0E3F0BFECA6F019D648
:1039200000017F51800B0001886F00017F517F25CE
:103930000001936F00017EAF02D00001938100016E
:1039400093510001D8B412D000019329D8A409D012
:10395000000E00017C6F000E7D6F000E7E6F000E6A
:103960007F6F00017E8F000E000108D0000E000165
:103970007C6F000E7D6F000E7E6F000E7F6F00016A
:103980008351800B0001881B0001835183250001B6
:10399000946F000182AF02D0000194810001945124
:1039A0000001D8B412D000019429D8A409D0000E87
:1039B0000001806F000E816F000E826F000E836F1A
:1039C0000001828F000E000108D0000E0001806F00
:1039D000000E816F000E826F000E836F0001805118
:1039E000000181110001821100018311D8A417D0B8
:1039F000000E00017C6F000E7D6F000E7E6F000ECA
:103A00007F6F0001800E7E137F0E7F137CC07CF0E1
:103A10007DC07DF07EC07EF07FC07FF0120000018F
:103A200093510001D8A412D0000E00017C6F000E4B
:103A30007D6F000E7E6F000E7F6F7CC07CF07DC0BE
:103A40007DF07EC07EF07FC07FF0120000019451B7
:103A50000001846F856B0001841F851F844B852BBB
:103A6000000193510001866F876B000184510001B2
:103A7000862700018551000187237F0E00018625DE
:103A800000018D6F000E0001872100018E6F7CC048
:103A900089F07DC08AF07EC08BF07FC08CF0000E74
:103AA00000017C6F000E7D6F000E7E6F000E7F6F39
:103AB000000E00018F6F000E906F000E916F000ED0
:103AC000926F000E0001946F42D0000194510001EA
:103AD000D8B417D00001D89089378A378B378C3704
:103AE0000001D8907C377D377E377F37000192AF59
:103AF00002D000017C810001D8908F379037913738
:103B00009237000180510001895D0001815100015F
:103B10008A590001825100018B5900018351000133
:103B20008C59D8A012D00001928D00018051000163
:103B3000895F0001815100018A5B0001825100010F
:103B40008B5B0001835100018C5B0001942B190EEB
:103B500000019465BAD70001895100018A11000162
:103B60008B1100018C11D8B418D000018F8115D0B1
:103B70000001D8907C377D377E377F37000192AFC8
:103B800002D000017C810001D8908F3790379137A7
:103B9000923700018D07D8A08E0700017EAFE8D7CD
:103BA000000E0001946F000192AF24D0FF0E0001BF
:103BB0008F150001846FFF0E000190150001856FC5
:103BC000FF0E000191150001866F7F0E0001921516
:103BD0000001876F000184510001851100018611E9
:103BE00000018711D8A403D000017CA103D0010EED
:103BF0000001946F000194510001D8B423D0010E4C
:103C000000017C27000E7D237E237F2300017FA1FE
:103C100019D07CC084F07DC085F07EC086F07FC066
:103C200087F000018735873386338533843384C03A
:103C30007CF085C07DF086C07EF087C07FF00001FB
:103C40008D4B8E2B00018EBF14D000018E5104E1EC
:103C500000018D29D8A00DD0000E00018E6F8D6956
:103C6000000E00017C6F000E7D6F000E7E6F000E57
:103C70007F6F00018EBF07D000018E5115E100015A
:103C80008D05D8B011D0000E00018E6F000E8D6F23
:103C9000000E00017C6F000E7D6F000E7E6F000E27
:103CA0007F6F000E0001886F8DC093F0000193A11B
:103CB00003D000017E8F02D000017E9F0001D890CA
:103CC000933100017F6F0001885100017F137CC098
:103CD0007CF07DC07DF07EC07EF07FC07FF0120062
:103CE0000001776F00017705D8A456D00001722932
:103CF000D8A452D06EC073F06FC074F070C075F06D
:103D000071C076F0040E06D00001D890763375337A
:103D100074337333E82EF8D773C078F074C079F039
:103D200075C07AF076C07BF0000178510001786FA1
:103D3000796B7A6B7B6B78C018FF070E00016E15EC
:103D40000001786F000E00016F150001796F000E01
:103D50000001701500017A6F000E0001711500015D
:103D60007B6F78C073F079C074F07AC075F07BC057
:103D700076F0050ED89000017337743775377637B3
:103D8000E82EF8D773C078F074C079F075C07AF077
:103D900076C07BF078C019FF020E00017719D8A415
:103DA00056D000017229D8A452D06EC073F06FC0F3
:103DB00074F070C075F071C076F0040E06D000018A
:103DC000D8907633753374337333E82EF8D773C0D5
:103DD00078F074C079F075C07AF076C07BF000019D
:103DE00078510001786F796B7A6B7B6B78C01CFF20
:103DF000070E00016E150001786F000E00016F15AF
:103E00000001796F000E0001701500017A6F000E3D
:103E10000001711500017B6F78C073F079C074F0F8
:103E20007AC075F07BC076F0050ED890000173372C
:103E3000743775377637E82EF8D773C078F074C0CA
:103E400079F075C07AF076C07BF078C01DFF000174
:103E50007705D8A487D0F70E00017219D8A482D0B4
:103E600000016E510001786F796B7A6B7B6B78C0C3
:103E70001BFF000E00016E150001786FFF0E0001A0
:103E80006F150001796F000E0001701500017A6F47
:103E9000000E0001711500017B6F78C073F079C0CE
:103EA00074F07AC075F07BC076F074C073F075C0A2
:103EB00074F076C075F00001766B73C078F074C052
:103EC00079F075C07AF076C07BF078C01AFF0001F7
:103ED00070A103D00F01198102D00F0119910001C7
:103EE00070A303D00F01198302D00F0119930001B1
:103EF00070A503D00F01198B02D00F01199B00018F
:103F000070A703D00F01198D02D00F01199D000178
:103F100070A903D00F01198F02D00F01199F6EC035
:103F200073F06FC074F070C075F071C076F0160E4B
:103F300006D00001D8907633753374337333E82E8E
:103F4000F8D773C078F074C079F075C07AF076C095
:103F50007BF0000178510001786F796B7A6B7B6B95
:103F600078C018FF020E00017719D8A41200F70ECE
:103F700000017219D8A4120000016E510001786F7F
:103F8000796B7A6B7B6B78C01FFF000E00016E159A
:103F90000001786FFF0E00016F150001796F000EB0
:103FA0000001701500017A6F000E0001711500010B
:103FB0007B6F78C073F079C074F07AC075F07BC005
:103FC00076F074C073F075C074F076C075F00001BF
:103FD000766B73C078F074C079F075C07AF076C0F3
:103FE0007BF078C01EFF000170A103D00F011D817E
:103FF00002D00F011D91000170A303D00F011D839A
:1040000002D00F011D93000170A503D00F011D8B7D
:1040100002D00F011D9B000170A703D00F011D8D61
:1040200002D00F011D9D000170A903D00F011D8F4B
:1040300002D00F011D9F6EC073F06FC074F070C08E
:1040400075F071C076F0160E06D00001D890763368
:10405000753374337333E82EF8D773C078F074C0B7
:1040600079F075C07AF076C07BF0000178510001DC
:10407000786F796B7A6B7B6B78C01CFF1200000144
:10408000A16F6D0E0001A165CDD0000E0001776F0C
:104090000A0E766F000E0001716F640E706FA1C082
:1040A0006EF000016F6B16ECACF06EC074F06FC078
:1040B00075F048ECAAF00001D8907437753700010C
:1040C000D89074377537240E00017427000E000154
:1040D0007523F10E00017425F66EFE0E00017521A8
:1040E000F76EF86A000EF8220900F5CF80F009009B
:1040F000F5CF81F00900F5CF82F00A00F5CF83F00B
:10410000000E0001776F640E766FA1C074F000019D
:10411000756B48ECAAF00001D89074377537000130
:10412000D89074377537480E00017427000E0001CF
:104130007523F10E00017425F66EFE0E0001752147
:10414000F76EF86A000EF8220900F5CF7CF009003E
:10415000F5CF7DF00900F5CF7EF00A00F5CF7FF0B6
:1041600042EC98F07CC09DF07DC09EF07EC09FF038
:104170007FC0A0F0000E0001716F0A0E706FA1C029
:104180006EF000016F6B16ECACF00001D8906E374A
:104190006F370001D8906E376F37F10E00016E2532
:1041A000F66EFE0E00016F21F76EF86A000EF8221F
:1041B0000900F5CF80F00900F5CF81F00900F5CFB7
:1041C00082F00A00F5CF83F09DC07CF09EC07DF0A8
:1041D0009FC07EF0A0C07FF042EC98F07CC099F0C8
:1041E0007DC09AF07EC09BF07FC09CF099C07CF0AF
:1041F0009AC07DF09BC07EF09CC07FF0000E000155
:10420000806F000E816F000E826F3F0E836F42EC55
:1042100098F07CC095F07DC096F07EC097F07FC08E
:1042200098F012000A0E0001A16578D0000E00017E
:10423000716F0A0E706FA1C06EF000016F6B16EC0B
:10424000ACF00001D8906E376F370001D8906E3710
:104250006F37F10E00016E25F66EFE0E00016F2124
:10426000F76EF86A000EF8220900F5CF80F0090019
:10427000F5CF81F00900F5CF82F00A00F5CF83F089
:10428000000E0001776F0A0E766FA1C074F0000176
:10429000756B48ECAAF00001D890743775370001AF
:1042A000D89074377537240E00017427000E000172
:1042B0007523F10E00017425F66EFE0E00017521C6
:1042C000F76EF86A000EF8220900F5CF7CF00900BD
:1042D000F5CF7DF00900F5CF7EF00A00F5CF7FF035
:1042E00042EC98F07CC09DF07DC09EF07EC09FF0B7
:1042F0007FC0A0F09DC07CF09EC07DF09FC07EF08E
:10430000A0C07FF0000E0001806F000E816F000ED4
:10431000826F3F0E836F42EC98F07BD70001A15172
:10432000040DF10EF324F66EFE0EF420F76EF86A1B
:10433000000EF8220900F5CF7CF00900F5CF7DF0E2
:104340000900F5CF7EF00A00F5CF7FF0000E0001E6
:10435000806F000E816F000E826F3F0E836F42EC04
:1043600098F07CC095F07DC096F07EC097F07FC03D
:1043700098F012000001766F000176510001D8B468
:104380001ED0000171AF1BD06EC072F06FC073F011
:1043900070C074F071C075F00001721F731F741F3C
:1043A000751F722B000E73237423752372C078F06F
:1043B00073C079F074C07AF075C07BF008D06EC01D
:1043C00078F06FC079F070C07AF071C07BF00001B6
:1043D0006E5100016F110001701100017111D8A41C
:1043E0000AD0000E00016E6F000E6F6F000E706F2E
:1043F000000E716F1200960E0001776F08D0000159
:10440000772B0001D8907B337A3379337833000EE1
:10441000000178150001726F000E0001791500018E
:10442000736F000E00017A150001746FFE0E00011B
:104430007B150001756F00017251000173110001BD
:10444000741100017511D8B410D0D9D70001772BA1
:10445000010E00017827000E79237A237B230001C7
:10446000D8907B337A3379337833000E0001781596
:104470000001726F000E000179150001736F000ECC
:1044800000017A150001746FFF0E00017B15000119
:10449000756F000172510001731100017411000168
:1044A0007511D8B409D0D2D7000177070001D89090
:1044B000783779377A377B3700017ABF04D0020E1C
:1044C00000017761F1D7000177B109D0FF0E00013B
:1044D0007817FF0E79177F0E7A17FF0E7B170001F2
:1044E000D890773377C072F00001736B746B756B83
:1044F00072C075F00001746B736B726B00017251C6
:104500000001781300017351000179130001745107
:1045100000017A130001755100017B1300017651EF
:104520000001D8B405D0000171AF02D000017B8F2B
:1045300078C06EF079C06FF07AC070F07BC071F017
:1045400012000001856F800E24ECAFF0000E706E3B
:10455000000E716E000E726E00017E41E842C00BCB
:1045600000017E6F00017E51701200017F517012B8
:1045700000018551711200017C39E842F80B0001FD
:104580007C6F00017C517112000180A5718C0001CB
:1045900080B1718E00017D517212000180B3728C66
:1045A00000018051600B606E00018051100BFF0A0A
:1045B000D8B4608460CF50FF000E00016E6F000E13
:1045C0006F6F000E706F000E716FF70E0001726F4B
:1045D000010E70EC9EF0000E00016E6F000E6F6F0A
:1045E000000E706F000E716FF70E0001726F020EF9
:1045F00070EC9EF00FD0F70E0001866F07D000011F
:1046000086690001876928D000018669F70E0001DC
:10461000876F22D09F0E0001816FFF0E0001826F15
:1046200000018051600B0001836F846B0001815198
:1046300000018313000182510001841300018451A1
:10464000000AD8A4E1D700018351BF0AD8B4D7D754
:10465000600AD8B4D0D7D8D7000E00016E6F000E14
:104660006F6F000E706F000E716F86C072F0000EDB
:1046700000EC80F0000E00016E6F000E6F6F000EF8
:10468000706F000E716F86C072F0010E00EC80F04A
:10469000000E00016E6F000E6F6F000E706F000E47
:1046A000716F87C072F0020E00EC80F0000E000106
:1046B0006E6F000E6F6F000E706F000E716F87C00F
:1046C00072F0030E00EC80F0000E00016E6F000E21
:1046D0006F6F000E706F000E716F87C072F0040E66
:1046E00000EC80F0000E00016E6F000E6F6F000E88
:1046F000706F000E716F87C072F0050E00EC80F0D5
:10470000000E24ECAFF0120020EE08F010EE8FF057
:10471000050EDBCFE3FFE806FCE28F0E00017E6FA3
:10472000000E00017F6F86C080F087C081F0000E10
:104730000001836F0A0E826FBAECADF00001885160
:104740000001D8B4B8D000018851010D8F0EF324B8
:10475000D96E000EF420DA6E000EDF6E70D000010C
:1047600088050001956F000195510001D8B467D00C
:10477000FF0E00018A6FFF0E00018B6F0001955143
:1047800000018C6F8D6B00018A5100018C270001A4
:104790008B5100018D238F0E00018C25D96E000EE8
:1047A00000018D21DA6E00019551010D8F0EF32469
:1047B000E16E000EF420E26EDFCFE7FF0001890515
:1047C000D8A41DD0FF0E00018A6FFF0E00018B6F71
:1047D0000001955100018C6F8D6B00018A51000121
:1047E0008C2700018B5100018D238F0E00018C2539
:1047F000D96E000E00018D21DA6E200E1CD0FF0E46
:1048000000018A6FFF0E00018B6F000195510001BE
:104810008C6F8D6B00018A5100018C2700018B5138
:1048200000018D238F0E00018C25D96E000E000132
:104830008D21DA6E300EDF6E0001950794D7FF0EE2
:1048400000018A6FFF0E00018B6F0001885100018B
:104850008C6F8D6B00018A5100018C2700018B51F8
:1048600000018D238F0E00018C25D96E000E0001F2
:104870008D21DA6E3A0EDF6072D7FF0E00018A6F6B
:10488000FF0E00018B6F0001885100018C6F8D6B52
:1048900000018A5100018C2700018B5100018D23FA
:1048A0008F0E00018C25D96E000E00018D21DA6E6D
:1048B0002F0EDF6454D78F0E00017F6F000E0001B2
:1048C000806FD1ECAEF0120070C076F00001776B13
:1048D000786B00016F350001763701E377810001C5
:1048E000765100017E6F00017E51D8A40AD0000EDF
:1048F00000016E6F000E6F6F000E706F000E716F13
:10490000120074C076F00001776B786B000173358C
:104910000001763701E377810001765100017D6F58
:1049200000017D51D8A40AD0000E00016E6F000E68
:104930006F6F000E706F000E716F120000016F8FAD
:10494000FF0E00016E17FF0E00016F17000E000131
:1049500070170001738FFF0E00017217FF0E000128
:104960007317000E00017417000E0001796F000E1E
:104970007A6F000E7B6F000E7C6F7F0E00017E5FF2
:1049800000017D51980F00017E5F180E00017D6FC0
:104990000001D89079377A377B377C370001725124
:1049A00000016E5D0001735100016F5900017451E7
:1049B00000017059D8A00ED00001725100016E5F45
:1049C0000001735100016F5B000174510001705BC5
:1049D000000179810001D8906E376F377037000180
:1049E0007D2FD6D700017EAF1AD000017E51800AFC
:1049F000970FD8B00AD0000E00016E6F000E6F6FD7
:104A0000000E706F000E716F12000001D8907C33A1
:104A10007B337A33793300017E3FF7D71BD0170EF3
:104A200000017E6512D0000E00016E6F000E6F6FE8
:104A3000000E706F000E716F12000001D890793770
:104A40007A377B377C3700017E0700017E510001F9
:104A5000D8A4F3D779C06EF07AC06FF07BC070F045
:104A60007CC071F01200000E00016E150001766F1F
:104A7000000E00016F150001776F800E00017015A8
:104A80000001786F7F0E000171150001796F000140
:104A90007651000177110001781100017911D8A435
:104AA00009D0000E00016E6F000E6F6F000E706F68
:104AB000000E716F000E000172150001766F000E7E
:104AC000000173150001776F800E0001741500015D
:104AD000786F7F0E000175150001796F0001765126
:104AE000000177110001781100017911D8A409D0D3
:104AF000000E0001726F000E736F000E746F000ED7
:104B0000756F000171AF26D06EC076F06FC077F080
:104B100070C078F071C079F00001761F771F781FA0
:104B2000791F762B000E772378237923000E00015E
:104B3000762500016E6F000E0001772100016F6F76
:104B4000000E000178210001706F800E00017921B4
:104B50000001716F000175AF26D072C076F073C08E
:104B600077F074C078F075C079F00001761F771F78
:104B7000781F791F762B000E772378237923000E78
:104B8000000176250001726F000E000177210001FF
:104B9000736F000E000178210001746F800E000118
:104BA00079210001756F000E00016E1B000E6F1B56
:104BB000000E701B800E711B000E0001721B000E98
:104BC000731B000E741B800E751B000172510001D7
:104BD0006E5D0001735100016F59000174510001B5
:104BE00070590001755100017159D8B002D0D890A8
:104BF0001200D880120000017035713500017B6F02
:104C000000017B51D8A40AD0000E00016E6F000E87
:104C10006F6F000E706F000E716F1200000174351F
:104C2000753500017A6F00017A51D8A40AD0000EC0
:104C300000016E6F000E6F6F000E706F000E716FCF
:104C400012000001708FFF0E00016E17FF0E6F172C
:104C5000FF0E7017000E71170001748FFF0E000118
:104C60007217FF0E7317FF0E7417000E7517000EE4
:104C70000001766F000E776F000E786F000E796F6F
:104C80007F0E00017B5F00017A51A00F00017B5F66
:104C9000200E00017A6F0001D89076377737783789
:104CA00079370001725100016E5D000173510001FE
:104CB0006F590001745100017059000175510001D4
:104CC0007159D8A012D00001725100016E5F00012D
:104CD000735100016F5B000174510001705B0001B2
:104CE00075510001715B000176810001D8906E372B
:104CF0006F377037713700017A2FCDD700017BAF46
:104D00001AD000017B51800A9F0FD8B00AD0000E44
:104D100000016E6F000E6F6F000E706F000E716FEE
:104D200012000001D890793378337733763300015D
:104D30007B3FF7D71BD01F0E00017B6512D0000E02
:104D400000016E6F000E6F6F000E706F000E716FBE
:104D500012000001D890763777377837793700011D
:104D60007B0700017B510001D8A4F3D776C06EF019
:104D700077C06FF078C070F079C071F01200E4EC89
:104D8000AEF0E806D8A4FBD7060E00016E6F000E49
:104D90006F6F000E706F000E716FEF0E0001726F7B
:104DA000000E0001736F080E0001746FFC0E00010D
:104DB000756FCDEC89F0E6C06EF0E7C06FF00001D2
:104DC000706B716B000EBAECA1F06EC07CF06FC01E
:104DD0007DF070C07EF071C07FF0000E0001806F2A
:104DE000000E816F8B0E826F430E836F90EC9CF0F0
:104DF0007CC00EF07DC00FF07EC010F07FC011F0BF
:104E0000A3ECAEF0000E0001756F010E746F1CEC88
:104E1000AEF0100E80ECA7F0010E66ECA9F0EAC02F
:104E200086F0EBC087F0060E0001886F000E0001CF
:104E3000896F84ECA3F0020E66ECA9F0CE0E00019F
:104E40007F6FFF0E0001806F70ECAEF00001ED513E
:104E5000D8B416D00001EC51D8A409D0F80E000146
:104E60007F6FFF0E0001806F70ECAEF011D0EE0E80
:104E700000017F6FFF0E0001806F70ECAEF008D074
:104E8000FC0E00017F6FFF0E0001806F70ECAEF032
:104E9000030E66ECA9F00F0E0001BE6F010E0001BB
:104EA000BF6FDA0E0001C06FFF0E0001C16F0EC0B0
:104EB000C2F00FC0C3F010C0C4F011C0C5F083EC45
:104EC00085F0000E01011A6F0F0E00017F6F010EB9
:104ED0000001806FD1ECAEF0F30E00017F6FFF0E8A
:104EE0000001806F70ECAEF0040E66ECA9F0AB0E22
:104EF00000017F6FFF0E0001806F70ECAEF01200BA
:104F000000017C6F00017C513AECAFF08D948B92E4
:104F10008B90000E0001756F640E746F1CECAEF088
:104F2000000E0001766F010E0001776F010E000187
:104F3000786F000EFFECADF0000E0001756F640E8F
:104F4000746F1CECAEF0000E0001766F010E0001D4
:104F5000776F010E0001786F000EFFECADF0000ED0
:104F60000001756F0A0E746F1CECAEF0000E0001AC
:104F7000766F010E0001776F010E0001786F000E51
:104F8000FFECADF0000E0001766F010E0001776FAF
:104F9000000E0001786F000EFFECADF0000E000176
:104FA000766F010E0001776F000E0001786F000E22
:104FB000FFECADF0000E0001766F000E0001776F80
:104FC000000E0001786F010EFFECADF0000E000145
:104FD000766F000E0001776F000E0001786F000EF3
:104FE000FFECADF0000E0001766F000E0001776F50
:104FF000000E0001786F010EFFECADF0000E000115
:10500000766F000E0001776F000E0001786F000EC2
:10501000FFECADF0000E0001766F000E0001776F1F
:10502000010E0001786F000EFFECADF0000E0001E4
:10503000766F000E0001776F000E0001786F000E92
:10504000FFECADF0010E0001766F010E0001776FED
:10505000000E0001786F000EFFECADF0A3ECAEF097
:10506000000E00017A6F000E8AECAEF01200E9CF5C
:1050700062F0EACF63F0E1CF64F0E2CF65F0D9CF20
:1050800066F0DACF67F0F3CF68F0F4CF69F0F6CFCF
:105090006AF0F7CF6BF0F8CF6CF0F5CF6DF0A4A20B
:1050A000A4B001D06FD02FECAFF00009D8B466D017
:1050B000000E366E010E376E68EC93F001010EA102
:1050C00002D0478401D0479400C112F001C113F00F
:1050D00002C114F003C115F04788060E1218131010
:1050E00014101510D8A41AD0000E466E070E466490
:1050F00001D014D04650010D040EF324D96E010ED8
:10510000F420DA6E4650010D010EF324E16E000E1C
:10511000F420E26EDFCFE7FF462AE8D7020E12182E
:10512000131014101510D8B447A428D01AC016F0C4
:105130001BC017F01CC018F01DC019F0030E246E20
:105140000D0EE82EFED700F007ECAFF0E806D8A46D
:10515000FBD7020E366E000E376E000E386E000E54
:10516000396E240E3A6E000E3B6E080E3C6EBC0E7D
:105170003D6E93EC8DF0478247904796A492A490A1
:105180008C848C866DC0F5FF6CC0F8FF6BC0F7FF98
:105190006AC0F6FF69C0F4FF68C0F3FF67C0DAFFBA
:1051A00066C0D9FF65C0E2FF64C0E1FF63C0EAFFEB
:1051B00062C0E9FF61C0FBFF60C0FAFF48921100C6
:1051C0000001A035A1350001A76F0001A751D8A4A7
:1051D0000AD0000E00019E6F000E9F6F000EA06FA0
:1051E000000EA16F12009EC0A2F09FC0A3F0A0C04D
:1051F000A4F0A1C0A5F0200E06D00001D890A533E0
:10520000A433A333A233E82EF8D70001A251000142
:10521000A66F0001A08FFF0E00019E17FF0E9F17C3
:10522000FF0EA017000EA117960E0001A75F000148
:10523000A7AF1AD00001A751800A970FD8B00AD0A3
:10524000000E00019E6F000E9F6F000EA06F000EFB
:10525000A16F12000001D890A133A0339F339E3379
:105260000001A73FF7D71BD01F0E0001A76512D082
:10527000000E00019E6F000E9F6F000EA06F000ECB
:10528000A16F12000001D8909E379F37A037A13739
:105290000001A7070001A7510001D8A4F3D700011E
:1052A000A6510001D8B409D00001A11FA01F9F1F63
:1052B0009E6D000E9F23A023A1239EC09EF09FC041
:1052C0009FF0A0C0A0F0A1C0A1F0120000017A6F71
:1052D00064D0000E0001766F000E0001776F000EA3
:1052E0000001786F010EFFECADF0000E0001766F4B
:1052F000000E0001776F000E0001786F000EFFECCA
:10530000ADF01200010E0001766F000E0001776F04
:10531000000E0001786F010EFFECADF0000E0001F1
:10532000766F000E0001776F000E0001786F000E9F
:10533000FFECADF01200000E0001766F000E0001D0
:10534000776F010E0001786F010EFFECADF0010EDA
:105350000001766F000E0001776F000E0001786F7C
:10536000000EFFECADF01200010E0001766F000E92
:105370000001776F010E0001786F010EFFECADF0B8
:10538000010E0001766F000E0001776F000E000124
:10539000786F000EFFECADF0120000017A51010AA7
:1053A000D8B497D7030AD8B4ADD7010AD8B4C3D7B5
:1053B000070AD8A41200D8D7000E896E1F0E926E6D
:1053C000000E8A6EFB0E936E000E8B6EF00E946EC6
:1053D000000E8C6E000E956E000E8D6E000E966E99
:1053E000060E00017C6F050E00017D6F010E0001AD
:1053F0007E6F030E00017F6F9D0E0001806F040E13
:10540000A1ECA2F0A192A492A490D08EA582A58036
:10541000A2920D0EC16EC298C296C294C08AC08874
:10542000C096C084C092C080C09EC280100E80EC26
:10543000A7F0A3ECAEF0010E66ECA9F0E60E0001B9
:105440007F6FFF0E0001806F70ECAEF0020E66EC15
:10545000A9F0C00E00017F6FFF0E0001806F70EC9D
:10546000AEF0010E0001756F2C0E746F1CECAEF0E7
:1054700083948396630EB36EC00EB26EA382A38034
:10548000A082010EB16EA3ECAEF0F28EF28C12008F
:10549000000E0001796F000177AF08D00001766D32
:1054A000771FD8B0772B010E0001796F000175AF1F
:1054B00008D00001746D751FD8B0752B010E000166
:1054C000791B000E00017B6F000E7A6F0001765190
:1054D00000017711D8B42CD0010E0001786F06D0EE
:1054E0000001D890763777370001782B000177AF2D
:1054F000F7D70001D8907A377B3700017651000149
:10550000745D0001775100017559D8A00AD00001DF
:1055100076510001745F000177510001755B000155
:105520007A810001D890773376330001782FE1D764
:10553000000179510001D8B405D000017A6D7B1FBC
:10554000D8B07B2B7AC074F07BC075F0120077C0A6
:105550007BF078C07CF07BC06EF07CC06FF079C0CF
:1055600070F07AC071F0FFECACF06EC07BF06FC0F1
:105570007CF00001754B762B00017B5100017C1102
:10558000D8A4E9D775C0D9FF76C0DAFF000EDF6E68
:1055900000017507D8A0760777C06EF078C06FF06D
:1055A00079C070F07AC071F03BECADF000016E5143
:1055B00000017D6F77C06EF078C06FF079C070F039
:1055C0007AC071F0FFECACF06EC077F06FC078F08D
:1055D000090E00017D6503D0070E00017D27300E06
:1055E00000017D2775C0D9FF76C0DAFF7DC0DFFFDF
:1055F00000017507D8A076070001775100017811E6
:10560000D8A4CAD70001754B762B1200000E0001FA
:10561000766F000E776F000E786F000E796F0001C5
:105620007251000173110001741100017511D8B499
:1056300042D0010E00017A6F08D00001D890723775
:1056400073377437753700017A2B000175AFF5D7C2
:105650000001D89076377737783779370001725163
:1056600000016E5D0001735100016F59000174511A
:10567000000170590001755100017159D8A012D074
:105680000001725100016E5F0001735100016F5BF8
:10569000000174510001705B000175510001715BE4
:1056A000000176810001D8907533743373337233FF
:1056B00000017A2FCDD776C06EF077C06FF078C03A
:1056C00070F079C071F01200E4ECAEF0E806D8A4F6
:1056D000FBD7050E00016E6F000E6F6F000E706F2E
:1056E000000E716FF00E0001726F000E0001736FFB
:1056F000080E0001746FBC0E0001756FCDEC89F0CF
:10570000EAC0EFF00001EB510001F06FECC0F1F0E6
:10571000E4ECAEF0E806D8A4FBD7030E00016E6FF0
:10572000000E6F6F000E706F000E716FEF0E0001B4
:10573000726F000E0001736F080E0001746FBC0ED3
:105740000001756FCDEC89F0E4ECAEF0E806D8A46A
:10575000FBD7040E00016E6F000E6F6F000E706FAE
:10576000000E716FEE0E0001726F000E0001736F7C
:10577000080E0001746FBD0E0001756FCDEC89F04D
:105780001200020E1218131014101510D8A415D000
:1057900047A40CD01AC016F01BC017F01CC018F09C
:1057A0001DC019F047824790479607D02404D8B40B
:1057B0004780020E2418D8B44786060E121813101C
:1057C00014101510D8B447B427D002C01EF01F6AB9
:1057D0001E5000016E6F01501E6E6EC01FF004C09F
:1057E00020F0216A205000016E6F0350206E6EC0C1
:1057F00021F01E50202400016E6F1F502120000157
:105800006F6FD89000016F310001706F00016E3131
:105810000001E66F70C0E7F0090E121813101410A3
:105820001510D8A4120024C022F01200000E0001AE
:10583000736F00016FAF08D000016E6D6F1FD8B09D
:105840006F2B010E0001736F000171AF05D00001D5
:10585000706D711FD8B0712B000170510001711172
:10586000D8B426D0010E0001726F06D00001D89086
:10587000703771370001722B000171AFF7D700014B
:10588000705100016E5D0001715100016F59D8A087
:1058900008D00001705100016E5F000171510001DC
:1058A0006F5B0001D890713370330001722FE7D71E
:1058B000000173510001D8B405D000016E6D6F1F57
:1058C000D8B06F2B6EC06EF06FC06FF01200000189
:1058D0007251000173110001741100017511D8B4E7
:1058E0003AD0010E0001766F08D00001D8907237CF
:1058F0007337743775370001762B000175AFF5D714
:105900000001725100016E5D0001735100016F5979
