:0400000060EF00F0BD
:0E0008004D82FACF64F0FBCF65F0DBEFA8F07D
:100018004D80D8CF2DF0E8CF2EF0E0CF2FF0FACFDB
:1000280030F0FBCF31F0E9CF32F0EACF33F0E1CF57
:1000380034F0E2CF35F0D9CF36F0DACF37F0F3CF5E
:1000480038F0F4CF39F0F6CF3AF0F7CF3BF0F8CFED
:100058003CF0F5CF3DF0A1A20BD0010E2226000EF8
:10006800232224222522630EB36EC00EB26EA19203
:100078003DC0F5FF3CC0F8FF3BC0F7FF3AC0F6FFB4
:1000880039C0F4FF38C0F3FF37C0DAFF36C0D9FFF4
:1000980035C0E2FF34C0E1FF33C0EAFF32C0E9FFF8
:1000A80031C0FBFF30C0FAFF2FC0E0FF2EC0E8FFD1
:0C00B8002DC0D8FF4D901000A6EFADF059
:10FEBA00000000803FCDCCCC3D0AD7233C6F128393
:10FECA003A17B7D138ACC52737BD37863595BFD66F
:10FEDA003377CC2B325F708930FFE6DB2E08E53CA6
:10FEEA001E6042A20D0000803F000020410000C8B1
:10FEFA004200007A4400401C460050C34700247464
:10FF0A00498096184B20BCBE4C286B6E4EF90215E0
:10FF1A0050EC78AD60CAF24971010000000A000095
:10FF2A000064000000E803000010270000A086011A
:10FF3A000040420F008096980000E1F50500CA9A39
:10FF4A003B20205072657373207468652062757453
:10FF5A00746F6E2020003D3D3E2056454849434C73
:10FF6A004520204F4646203C3D3D003D3D3D205624
:10FF7A00454849434C452044415441203D3D3D00BC
:10FF8A003D3D3D3D3D3D3D3D3D3D3D3D3D3D3D3D97
:10FF9A003D3D3D3D0053706565643A20302E30305A
:10FFAA00204B6D2F68005061726B20617373697307
:10FFBA00743A2000446972656374696F6E3A20006E
:10FFCA004F46462020202000464F554E442120000F
:10FFDA0053454152434820005041524B494E470035
:10FFEA0050202020004657442000424B5744002509
:06FFFA002E32660000003B
:020000040001F9
:1000000000017B6F00017B510001D8A458D0000192
:100010007629D8A454D00F01019772C077F073C02D
:1000200078F074C079F075C07AF0040E06D0000143
:10003000D8907A33793378337733E82EF8D777C08E
:100040007CF078C07DF079C07EF07AC07FF000014E
:100050007C5100017C6F7D6B7E6B7F6B7CC000FFF1
:10006000070E0001721500017C6F000E0001731570
:1000700000017D6F000E0001741500017E6F000EFF
:100080000001751500017F6F7CC077F07DC078F0AE
:100090007EC079F07FC07AF0050ED89000017737E6
:1000A000783779377A37E82EF8D777C07CF078C080
:1000B0007DF079C07EF07AC07FF07CC001FF000146
:1000C0007B05D8A458D000017629D8A454D00F01BC
:1000D000059772C077F073C078F074C079F075C07E
:1000E0007AF0040E06D00001D8907A337933783351
:1000F0007733E82EF8D777C07CF078C07DF079C0F0
:100100007EF07AC07FF000017C5100017C6F7D6B36
:100110007E6B7F6B7CC004FF070E0001721500012F
:100120007C6F000E0001731500017D6F000E000151
:10013000741500017E6F000E0001751500017F6FC0
:100140007CC077F07DC078F07EC079F07FC07AF017
:10015000050ED89000017737783779377A37E82E4F
:10016000F8D777C07CF078C07DF079C07EF07AC097
:100170007FF07CC005FF020E00017B19D8A458D087
:1001800000017629D8A454D00F01099772C077F0E6
:1001900073C078F074C079F075C07AF0040E06D0A0
:1001A0000001D8907A33793378337733E82EF8D753
:1001B00077C07CF078C07DF079C07EF07AC07FF0A7
:1001C00000017C5100017C6F7D6B7E6B7F6B7CC07E
:1001D00008FF070E0001721500017C6F000E000180
:1001E000731500017D6F000E0001741500017E6F14
:1001F000000E0001751500017F6F7CC077F07DC097
:1002000078F07EC079F07FC07AF0050ED8900001BA
:100210007737783779377A37E82EF8D777C07CF098
:1002200078C07DF079C07EF07AC07FF07CC009FF95
:10023000030E00017B19D8A458D000017629D8A458
:1002400054D00F010D9772C077F073C078F074C06E
:1002500079F075C07AF0040E06D00001D8907A3398
:10026000793378337733E82EF8D777C07CF078C0CD
:100270007DF079C07EF07AC07FF000017C510001F2
:100280007C6F7D6B7E6B7F6B7CC00CFF070E00016B
:10029000721500017C6F000E0001731500017D6F67
:1002A000000E0001741500017E6F000E000175152F
:1002B00000017F6F7CC077F07DC078F07EC079F060
:1002C0007FC07AF0050ED8900001773778377937FC
:1002D0007A37E82EF8D777C07CF078C07DF079C007
:1002E0007EF07AC07FF07CC00DFF040E00017B1908
:1002F000D8A458D000017629D8A454D00F01119762
:1003000072C077F073C078F074C079F075C07AF07D
:10031000040E06D00001D8907A33793378337733DE
:10032000E82EF8D777C07CF078C07DF079C07EF0F9
:100330007AC07FF000017C5100017C6F7D6B7E6B89
:100340007F6B7CC010FF070E0001721500017C6FEF
:10035000000E0001731500017D6F000E0001741581
:1003600000017E6F000E0001751500017F6F7CC0DB
:1003700077F07DC078F07EC079F07FC07AF0050E0E
:10038000D89000017737783779377A37E82EF8D761
:1003900077C07CF078C07DF079C07EF07AC07FF0C5
:1003A0007CC011FF050E00017B19D8A458D00001B4
:1003B0007629D8A454D00F01159772C077F073C076
:1003C00078F074C079F075C07AF0040E06D00001A0
:1003D000D8907A33793378337733E82EF8D777C0EB
:1003E0007CF078C07DF079C07EF07AC07FF00001AB
:1003F0007C5100017C6F7D6B7E6B7F6B7CC014FF3A
:10040000070E0001721500017C6F000E00017315CC
:1004100000017D6F000E0001741500017E6F000E5B
:100420000001751500017F6F7CC077F07DC078F00A
:100430007EC079F07FC07AF0050ED8900001773742
:10044000783779377A37E82EF8D777C07CF078C0DC
:100450007DF079C07EF07AC07FF07CC015FF00018E
:100460007B510001D8A489D0F70E00017619D8A4D9
:1004700084D00F0101870001725100017C6F7D6BF8
:100480007E6B7F6B7CC003FF000E000172150001C4
:100490007C6FFF0E0001731500017D6F000E0001DF
:1004A000741500017E6F000E0001751500017F6F4D
:1004B0007CC077F07DC078F07EC079F07FC07AF0A4
:1004C00078C077F079C078F07AC079F000017A6B63
:1004D00077C07CF078C07DF079C07EF07AC07FF084
:1004E0007CC002FF000174A103D00F01018102D082
:1004F0000F010191000174A303D00F01018302D009
:100500000F010193000174A503D00F01018B02D0EC
:100510000F01019B000174A703D00F01018D02D0D0
:100520000F01019D000174A903D00F01018F02D0BA
:100530000F01019F72C077F073C078F074C079F03A
:1005400075C07AF0160E06D00001D8907A33793350
:1005500078337733E82EF8D777C07CF078C07DF019
:1005600079C07EF07AC07FF000017C5100017C6F81
:100570007D6B7E6B7F6B7CC000FF00017B05D8A488
:1005800089D0F70E00017619D8A484D00F01058711
:100590000001725100017C6F7D6B7E6B7F6B7CC0B4
:1005A00007FF000E0001721500017C6FFF0E0001B5
:1005B000731500017D6F000E0001741500017E6F40
:1005C000000E0001751500017F6F7CC077F07DC0C3
:1005D00078F07EC079F07FC07AF078C077F079C08B
:1005E00078F07AC079F000017A6B77C07CF078C03F
:1005F0007DF079C07EF07AC07FF07CC006FF0001FC
:1006000074A103D00F01058102D00F0105910001F3
:1006100074A303D00F01058302D00F0105930001DD
:1006200074A503D00F01058B02D00F01059B0001BB
:1006300074A703D00F01058D02D00F01059D0001A5
:1006400074A903D00F01058F02D00F01059F72C05E
:1006500077F073C078F074C079F075C07AF0160E38
:1006600006D00001D8907A33793378337733E82E87
:10067000F8D777C07CF078C07DF079C07EF07AC082
:100680007FF000017C5100017C6F7D6B7E6B7F6B86
:100690007CC004FF020E00017B19D8A489D0F70E9C
:1006A00000017619D8A484D00F0109870001725186
:1006B00000017C6F7D6B7E6B7F6B7CC00BFF000E3F
:1006C0000001721500017C6FFF0E0001731500011F
:1006D0007D6F000E0001741500017E6F000E000199
:1006E000751500017F6F7CC077F07DC078F07EC00B
:1006F00079F07FC07AF078C077F079C078F07AC06E
:1007000079F000017A6B77C07CF078C07DF079C019
:100710007EF07AC07FF07CC00AFF000174A103D094
:100720000F01098102D00F010991000174A303D0C8
:100730000F01098302D00F010993000174A503D0B2
:100740000F01098B02D00F01099B000174A703D090
:100750000F01098D02D00F01099D000174A903D07A
:100760000F01098F02D00F01099F72C077F073C08B
:1007700078F074C079F075C07AF0160E06D00001DA
:10078000D8907A33793378337733E82EF8D777C037
:100790007CF078C07DF079C07EF07AC07FF00001F7
:1007A0007C5100017C6F7D6B7E6B7F6B7CC008FF92
:1007B000030E00017B19D8A489D0F70E0001761929
:1007C000D8A484D00F010D870001725100017C6F05
:1007D0007D6B7E6B7F6B7CC00FFF000E000172157E
:1007E00000017C6FFF0E0001731500017D6F000E8C
:1007F0000001741500017E6F000E000175150001E7
:100800007F6F7CC077F07DC078F07EC079F07FC0CC
:100810007AF078C077F079C078F07AC079F000018A
:100820007A6B77C07CF078C07DF079C07EF07AC0BA
:100830007FF07CC00EFF000174A103D00F010D8179
:1008400002D00F010D91000174A303D00F010D839D
:1008500002D00F010D93000174A503D00F010D8B81
:1008600002D00F010D9B000174A703D00F010D8D65
:1008700002D00F010D9D000174A903D00F010D8F4F
:1008800002D00F010D9F72C077F073C078F074C072
:1008900079F075C07AF0160E06D00001D8907A3340
:1008A000793378337733E82EF8D777C07CF078C087
:1008B0007DF079C07EF07AC07FF000017C510001AC
:1008C0007C6F7D6B7E6B7F6B7CC00CFF040E000128
:1008D0007B19D8A489D0F70E00017619D8A484D04A
:1008E0000F0111870001725100017C6F7D6B7E6BDF
:1008F0007F6B7CC013FF000E0001721500017C6F3E
:10090000FF0E0001731500017D6F000E00017415CC
:1009100000017E6F000E0001751500017F6F7CC025
:1009200077F07DC078F07EC079F07FC07AF078C033
:1009300077F079C078F07AC079F000017A6B77C0EF
:100940007CF078C07DF079C07EF07AC07FF07CC00A
:1009500012FF000174A103D00F01118102D00F0119
:100960001191000174A303D00F01118302D00F0174
:100970001193000174A503D00F01118B02D00F0158
:10098000119B000174A703D00F01118D02D00F013C
:10099000119D000174A903D00F01118F02D00F0126
:1009A000119F72C077F073C078F074C079F075C091
:1009B0007AF0160E06D00001D8907A337933783366
:1009C0007733E82EF8D777C07CF078C07DF079C017
:1009D0007EF07AC07FF000017C5100017C6F7D6B5E
:1009E0007E6B7F6B7CC010FF050E00017B19D8A4C5
:1009F0001200F70E00017619D8A412000F01158716
:100A00000001725100017C6F7D6B7E6B7F6B7CC03F
:100A100017FF000E0001721500017C6FFF0E000130
:100A2000731500017D6F000E0001741500017E6FCB
:100A3000000E0001751500017F6F7CC077F07DC04E
:100A400078F07EC079F07FC07AF078C077F079C016
:100A500078F07AC079F000017A6B77C07CF078C0CA
:100A60007DF079C07EF07AC07FF07CC016FF000177
:100A700074A103D00F01158102D00F01159100015F
:100A800074A303D00F01158302D00F011593000149
:100A900074A503D00F01158B02D00F01159B000127
:100AA00074A703D00F01158D02D00F01159D000111
:100AB00074A903D00F01158F02D00F01159F72C0CA
:100AC00077F073C078F074C079F075C07AF0160EC4
:100AD00006D00001D8907A33793378337733E82E13
:100AE000F8D777C07CF078C07DF079C07EF07AC00E
:100AF0007FF000017C5100017C6F7D6B7E6B7F6B12
:100B00007CC014FF1200C80E0101296F000E010104
:100B10002A6FB5EF89F0250E01013D19D8B408D030
:100B2000C4C0D9FFC5C0DAFF3DC1DFFFB2EF89F015
:100B3000000E01012C6F000E2B6FC6C0F6FFC7C060
:100B4000F7FF000EF86E0800F5502E0AD8A43DD02D
:100B500001012C8D0001C64BC72B000E0101386F1F
:100B6000000E376F25D037C172F038C173F0000E18
:100B70000001756F0A0E746F1EECAEF0C6C0F6FF72
:100B8000C7C0F7FF000EF86E0800F550000172278D
:100B9000000E00017323D00E000172250101376F92
:100BA000FF0E000173210101386F0001C64BC72BF6
:100BB000C6C0F6FFC7C0F7FF000EF86E0800F5507C
:100BC00085ECAEF0D8A00CD0CED7000E0101386F66
:100BD000000E376F01012C8903D001012C8515D03F
:100BE000C6C0F6FFC7C0F7FF0001C64BC72B000EFB
:100BF000F86E0800F5CF3DF101013D51000AD8B46F
:100C0000C5D3660AD8B4E9D7B0D3070E01012C15B5
:100C1000D8B453D301012CA905D0000E0101386FBF
:100C2000060E376F29C1D9FF2AC1DAFFDECF39F1AD
:100C3000DECF3AF1DECF3BF1DECF3CF1040E010115
:100C40002927000E2A2301013CAF15D039C199F0A4
:100C50003AC19AF03BC19BF03CC19CF002ECAEF073
:100C600099C039F19AC03AF19BC03BF19CC03CF16C
:100C7000030E01012B13000E0101326F000E316FC4
:100C80000101395101013A1101013B1101013C11EE
:100C9000D8B48ED001013B353C35820F0101316F54
:100CA0000101326BFF0E322301013107D8A0320758
:100CB00031C172F032C173F0000E0001756F030E86
:100CC000746F1EECAEF072C031F173C032F131C1FD
:100CD00078F032C179F0000E00017B6F0A0E7A6F56
:100CE00088ECAAF078C031F179C032F1010132AF5D
:100CF00004D001013107D8A03207010131510008A9
:100D000023EC94F099C033F19AC034F19BC035F1D3
:100D10009CC036F133C180F034C181F035C182F01E
:100D200036C183F039C184F03AC185F03BC186F009
:100D30003CC187F08AEC9BF080C033F181C034F174
:100D400082C035F183C036F133C172F034C173F023
:100D500035C174F036C175F0000E0001766F000EDB
:100D6000776F800E786F3F0E796F98ECA6F00001D8
:100D7000D8B005D001013107D8A0320719D033C14E
:100D800072F034C173F035C174F036C175F0000EE5
:100D90000001766F000E776F200E786F410E796F2D
:100DA00098ECA6F00001D8A003D00101314B322B02
:100DB000010138BF08D00101385123E10D0E0101B6
:100DC000375DD8B01ED039C1A6F03AC1A7F03BC1FB
:100DD000A8F03CC1A9F0010137518CECA1F099C0F9
:100DE000AAF09AC0ABF09BC0ACF09CC0ADF036EC62
:100DF00099F0A6C039F1A7C03AF1A8C03BF1A9C04B
:100E00003CF1010132BF08D0010132512EE10A0E3E
:100E10000101315DD8B029D00101395101013A11E8
:100E200001013B1101013C11D8B46DD039C1BAF0B8
:100E30003AC1BBF03BC1BCF03CC1BDF08CECA9F0A9
:100E40000001BA510001BB110001BC110001BD112C
:100E5000D8A459D0010132BF56D00101325105E169
:100E6000020E0101315DD8A04ED033C172F034C101
:100E700073F035C174F036C175F05F0E0001766F06
:100E8000700E776F890E786F400E796F98ECA6F030
:100E90000001D8B003D00101F70E02D00101F80E15
:100EA0003127FF0E32230101315123EC94F099C018
:100EB00033F19AC034F19BC035F19CC036F139C191
:100EC00072F03AC173F03BC174F03CC175F033C1AC
:100ED00076F034C177F035C178F036C179F060EC46
:100EE000A7F072C02DF173C02EF174C02FF175C040
:100EF00030F1000E0101396F000E3A6F000E3B6FAA
:100F0000000E3C6F3CD039C1BAF03AC1BBF03BC1D6
:100F1000BCF03CC1BDF08CECA9F0BAC02DF1BBC057
:100F20002EF1BCC02FF1BDC030F139C1BAF03AC1C9
:100F3000BBF03BC1BCF03CC1BDF02DC172F02EC175
:100F400073F02FC174F030C175F0000EFFECA3F008
:100F500072C0BEF073C0BFF074C0C0F075C0C1F005
:100F600082ECADF0BAC039F1BBC03AF1BCC03BF184
:100F7000BDC03CF1000E0101326F000E316F010E59
:100F800001013D6F0A0E01013D19D8B421D00101C4
:100F90003D51040D230EF324F66EFF0EF420F76E80
:100FA000F86A000EF8220900F55001012D5D0900D4
:100FB000F55001012E590900F55001012F59090082
:100FC000F55001013059D8A003D001013D2BDAD7EB
:100FD000030E01012B150101236F000E01012C15D9
:100FE0000101246F0101235101012411D8B458D00B
:100FF000C4C0D9FFC5C0DAFF2D0E50D00001C44BCC
:10100000C52B4ED02DC172F02EC173F02FC174F0DC
:1010100030C175F001013D51040D230EF324F66E2D
:10102000FF0EF420F76EF86A000EF8220900F5CFE3
:1010300076F00900F5CF77F00900F5CF78F00A00D7
:10104000F5CF79F0E7ECAAF072C033F173C034F158
:1010500074C035F175C036F133C172F034C173F02C
:1010600035C174F036C175F00A0E0001766F000EBE
:10107000776F000E786F000E796F9AECACF072C04B
:1010800033F173C034F174C035F175C036F101012C
:101090003351300FC4C0D9FFC5C0DAFFDF6EAED701
:1010A00001013D0701013D29D8B40ED0ABD7C4C022
:1010B000D9FFC5C0DAFF300EDF6E0001C44BC52B6F
:1010C00001013107D8A03207010132BF07D0010169
:1010D0003251EDE101013105D8B0E9D7010138BF46
:1010E0000CD00101385105E1090E0101375DD8A08E
:1010F00004D0080E01013D6F02D037C13DF101015E
:101100003D510101375F000E01013DBFFF0E01019E
:10111000385B01013D510101D8B409D0C4C0D9FFE9
:10112000C5C0DAFF2E0EDF6E0001C44BC52B0101D6
:101130003D5123EC94F099C025F19AC026F19BC053
:1011400027F19CC028F139C184F03AC185F03BC138
:1011500086F03CC187F025C180F026C181F027C10F
:1011600082F028C183F08AEC9BF080C0BAF081C085
:10117000BBF082C0BCF083C0BDF08CECA9F0BAC05B
:101180002DF1BBC02EF1BCC02FF1BDC030F17AD023
:101190002DC172F02EC173F02FC174F030C175F003
:1011A00001013D51040D230EF324F66EFF0EF420D1
:1011B000F76EF86A000EF8220900F5CF76F0090004
:1011C000F5CF77F00900F5CF78F00A00F5CF79F088
:1011D000E7ECAAF072C033F173C034F174C035F19A
:1011E00075C036F133C172F034C173F035C174F09B
:1011F00036C175F00A0E0001766F000E776F000E93
:10120000786F000E796F9AECACF072C033F173C056
:1012100034F174C035F175C036F101013351300F2E
:10122000C4C0D9FFC5C0DAFFDF6E0001C44BC52BB7
:101230002DC172F02EC173F02FC174F030C175F062
:1012400001013D51040D230EF324F66EFF0EF42030
:10125000F76EF86A000EF8220900F5CF76F0090063
:10126000F5CF77F00900F5CF78F00A00F5CF79F0E7
:101270009AECACF072C02DF173C02EF174C02FF156
:1012800075C030F101013D0701013D29D8B40ED0F0
:101290007FD7C4C0D9FFC5C0DAFF300EDF6E0001B2
:1012A000C44BC52B01013707D8A0380701013751BE
:1012B00001013811D8B459D0ECD7010137510101DF
:1012C0003811D8A40DD001012D5101012E110101B9
:1012D0002F1101013011D8A403D00101374B382B55
:1012E000800E01013DBF7F0E0101236F01013751C7
:1012F00001013D5D01013851800A01012359D8B037
:1013000003D037C13DF118D001013851800A0101E5
:10131000236F01013D510101375D800E01013DBF89
:101320007F0E01012359D8B007D001013D510101C1
:10133000376F386B37BF3807030E01012B150101DA
:10134000236F000E01012C150101246F01012351AF
:1013500001012411D8B409D0C4C0D9FFC5C0DAFF37
:101360002D0EDF6E0001C44BC52BC6C0F6FFC7C0F3
:10137000F7FF0001C64BC72B000EF86E0800F5CF33
:101380003DF101013D51D8A48BEF85F0C4C0D9FFD8
:10139000C5C0DAFF000EDF6E12000F0140B73FD16B
:1013A00078C045FF000179AD03D00F01458D02D013
:1013B0000F01459D000179A779D00001725100010C
:1013C0007E6F7F6B806B816B7EC044FF000E0001DF
:1013D000721500017E6FFF0E0001731500017F6F13
:1013E000000E000174150001806F000E00017515DC
:1013F0000001816F7EC07AF07FC07BF080C07CF0FE
:1014000081C07DF07BC07AF07CC07BF07DC07CF039
:1014100000017D6B7AC07EF07BC07FF07CC080F0E5
:101420007DC081F07EC043FF000E0F01426F0F01AF
:101430004287000174A102D00F014281000174A310
:1014400002D00F014283000174A502D00F01428B2C
:10145000000174A702D00F01428D000174A902D0CF
:101460000F01428F72C07AF073C07BF074C07CF0C1
:1014700075C07DF0160E06D00001D8907D337C3308
:101480007B337A33E82EF8D77AC07EF07BC07FF0CA
:101490007CC080F07DC081F000017E5100017E6F34
:1014A0007F6B806B816B7EC041FF59D00F014297EB
:1014B00072C07AF073C07BF074C07CF075C07DF0B0
:1014C000040E06D00001D8907D337C337B337A3311
:1014D000E82EF8D77AC07EF07BC07FF07CC080F029
:1014E0007DC081F000017E5100017E6F7F6B806BBB
:1014F000816B7EC041FF070E0001721500017E6FF7
:10150000000E0001731500017F6F000E00017415BD
:101510000001806F000E000175150001816F7EC013
:101520007AF07FC07BF080C07CF081C07DF0050E3A
:10153000D89000017A377B377C377D37E82EF8D793
:101540007AC07EF07BC07FF07CC080F07DC081F0EF
:101550000F0142511F0B0F01426F7EC042FF00017D
:1015600079A103D00F01408102D00F014091000109
:1015700079A303D00F01408302D00F01409376C0BE
:10158000D9FF77C0DAFFDF500F01466F000120EE70
:1015900001F07651D9267751DA22DF500F01476FDB
:1015A000000120EE02F07651D9267751DA22DF5081
:1015B0000F01486F000120EE03F07651D9267751D4
:1015C000DA22DF500F01496F000120EE04F076515E
:1015D000D9267751DA22DF500F014A6F000120EE41
:1015E00005F07651D9267751DA22DF500F014B6F83
:1015F000000120EE06F07651D9267751DA22DF502D
:101600000F014C6F000120EE07F07651D92677517B
:10161000DA22DF500F014D6F0F01408712000F01DA
:1016200030B73FD178C035FF000179AD03D00F014D
:10163000358D02D00F01359D000179A779D00001C9
:10164000725100017E6F7F6B806B816B7EC034FFB7
:10165000000E0001721500017E6FFF0E0001731570
:1016600000017F6F000E000174150001806F000EF5
:10167000000175150001816F7EC07AF07FC07BF09C
:1016800080C07CF081C07DF07BC07AF07CC07BF0B4
:101690007DC07CF000017D6B7AC07EF07BC07FF066
:1016A0007CC080F07DC081F07EC033FF000E0F0152
:1016B000326F0F013287000174A102D00F01328115
:1016C000000174A302D00F013283000174A502D07F
:1016D0000F01328B000174A702D00F01328D00017F
:1016E00074A902D00F01328F72C07AF073C07BF000
:1016F00074C07CF075C07DF0160E06D00001D89045
:101700007D337C337B337A33E82EF8D77AC07EF092
:101710007BC07FF07CC080F07DC081F000017E51F5
:1017200000017E6F7F6B806B816B7EC031FF59D073
:101730000F01329772C07AF073C07BF074C07CF0F6
:1017400075C07DF0040E06D00001D8907D337C3347
:101750007B337A33E82EF8D77AC07EF07BC07FF0F7
:101760007CC080F07DC081F000017E5100017E6F61
:101770007F6B806B816B7EC031FF070E000172159D
:1017800000017E6F000E0001731500017F6F000ED7
:10179000000174150001806F000E00017515000135
:1017A000816F7EC07AF07FC07BF080C07CF081C00A
:1017B0007DF0050ED89000017A377B377C377D3776
:1017C000E82EF8D77AC07EF07BC07FF07CC080F036
:1017D0007DC081F00F0132511F0B0F01326F7EC0AF
:1017E00032FF000179A103D00F01308102D00F0137
:1017F0003091000179A303D00F01308302D00F0193
:10180000309376C0D9FF77C0DAFFDF500F01366F13
:10181000000120EE01F07651D9267751DA22DF500F
:101820000F01376F000120EE02F07651D926775173
:10183000DA22DF500F01386F000120EE03F07651FD
:10184000D9267751DA22DF500F01396F000120EEDF
:1018500004F07651D9267751DA22DF500F013A6F22
:10186000000120EE05F07651D9267751DA22DF50BB
:101870000F013B6F000120EE06F07651D92677511B
:10188000DA22DF500F013C6F000120EE07F07651A5
:10189000D9267751DA22DF500F013D6F0F013087D3
:1018A00012000F0120B7120078C025FF000179ADAA
:1018B00003D00F01258D02D00F01259D000179A7CE
:1018C00079D00001725100017E6F7F6B806B816B5C
:1018D0007EC024FF000E0001721500017E6FFF0E16
:1018E0000001731500017F6F000E000174150001E7
:1018F000806F000E000175150001816F7EC07AF0C7
:101900007FC07BF080C07CF081C07DF07BC07AF02E
:101910007CC07BF07DC07CF000017D6B7AC07EF0E6
:101920007BC07FF07CC080F07DC081F07EC023FF53
:10193000000E0F01226F0F012287000174A102D057
:101940000F012281000174A302D00F012283000144
:1019500074A502D00F01228B000174A702D00F01E1
:10196000228D000174A902D00F01228F72C07AF07B
:1019700073C07BF074C07CF075C07DF0160E06D08D
:101980000001D8907D337C337B337A33E82EF8D74F
:101990007AC07EF07BC07FF07CC080F07DC081F09B
:1019A00000017E5100017E6F7F6B806B816B7EC07A
:1019B00021FF59D00F01229772C07AF073C07BF0DB
:1019C00074C07CF075C07DF0040E06D00001D89084
:1019D0007D337C337B337A33E82EF8D77AC07EF0C0
:1019E0007BC07FF07CC080F07DC081F000017E5123
:1019F00000017E6F7F6B806B816B7EC021FF070EC5
:101A00000001721500017E6F000E000173150001C8
:101A10007F6F000E000174150001806F000E000141
:101A200075150001816F7EC07AF07FC07BF080C0A9
:101A30007CF081C07DF0050ED89000017A377B37AD
:101A40007C377D37E82EF8D77AC07EF07BC07FF0F8
:101A50007CC080F07DC081F00F0122511F0B0F016F
:101A6000226F7EC022FF000179A103D00F012081E7
:101A700002D00F012091000179A303D00F01208330
:101A800002D00F01209376C0D9FF77C0DAFFDF5074
:101A90000F01266F000120EE01F07651D926775113
:101AA000DA22DF500F01276F000120EE02F076519D
:101AB000D9267751DA22DF500F01286F000120EE7E
:101AC00003F07651D9267751DA22DF500F01296FC2
:101AD000000120EE04F07651D9267751DA22DF504A
:101AE0000F012A6F000120EE05F07651D9267751BB
:101AF000DA22DF500F012B6F000120EE06F0765145
:101B0000D9267751DA22DF500F012C6F000120EE29
:101B100007F07651D9267751DA22DF500F012D6F69
:101B20000F01208712000F0140B722D144C045FFAA
:101B300045AC03D00F01458D02D00F01459D45A650
:101B40006DD03E500001606F616B626B636B60C073
:101B500044FF000E3E140001606FFF0E3F140001B1
:101B6000616F000E40140001626F000E411400010D
:101B7000636F60C046F061C047F062C048F063C068
:101B800049F047C046F048C047F049C048F0496AAC
:101B900046C060F047C061F048C062F049C063F0E1
:101BA00060C043FF000E0F01426F0F01428740A04B
:101BB00002D00F01428140A202D00F01428340A413
:101BC00002D00F01428B40A602D00F01428D40A8E7
:101BD00002D00F01428F3EC046F03FC047F040C0E8
:101BE00048F041C049F0160E05D0D890493248322D
:101BF00047324632E82EF9D746C060F047C061F060
:101C000048C062F049C063F0000160510001606F9C
:101C1000616B626B636B60C041FF53D00F014297F1
:101C20003EC046F03FC047F040C048F041C049F0D8
:101C3000040E05D0D8904932483247324632E82E59
:101C4000F9D746C060F047C061F048C062F049C0B3
:101C500063F0000160510001606F616B626B636B48
:101C600060C041FF070E3E140001606F000E3F147C
:101C70000001616F000E40140001626F000E4114FC
:101C80000001636F60C046F061C047F062C048F079
:101C900063C049F0050ED890463647364836493677
:101CA000E82EF9D746C060F047C061F048C062F046
:101CB00049C063F00F0142511F0B0F01426F60C01A
:101CC00042FF45A003D00F01408102D00F01409197
:101CD00045A203D00F01408302D00F01409342C0C0
:101CE000D9FF43C0DAFFDF500F01466F20EE01F04D
:101CF0004250D9264350DA22DF500F01476F20EEC1
:101D000002F04250D9264350DA22DF500F01486FCB
:101D100020EE03F04250D9264350DA22DF500F0163
:101D2000496F20EE04F04250D9264350DA22DF50AA
:101D30000F014A6F20EE05F04250D9264350DA22B7
:101D4000DF500F014B6F20EE06F04250D926435072
:101D5000DA22DF500F014C6F20EE07F04250D926F7
:101D60004350DA22DF500F014D6F0F014087120000
:101D70000F0130B722D144C035FF45AC03D00F016D
:101D8000358D02D00F01359D45A66DD03E50000126
:101D9000606F616B626B636B60C034FF000E3E145A
:101DA0000001606FFF0E3F140001616F000E4014D0
:101DB0000001626F000E41140001636F60C046F0C5
:101DC00061C047F062C048F063C049F047C046F0C8
:101DD00048C047F049C048F0496A46C060F047C073
:101DE00061F048C062F049C063F060C033FF000E8C
:101DF0000F01326F0F01328740A002D00F013281F4
:101E000040A202D00F01328340A402D00F01328BD6
:101E100040A602D00F01328D40A802D00F01328FB0
:101E20003EC046F03FC047F040C048F041C049F0D6
:101E3000160E05D0D8904932483247324632E82E45
:101E4000F9D746C060F047C061F048C062F049C0B1
:101E500063F0000160510001606F616B626B636B46
:101E600060C031FF53D00F0132973EC046F03FC0F3
:101E700047F040C048F041C049F0040E05D0D8906A
:101E80004932483247324632E82EF9D746C060F030
:101E900047C061F048C062F049C063F00001605182
:101EA0000001606F616B626B636B60C031FF070E96
:101EB0003E140001606F000E3F140001616F000EC0
:101EC00040140001626F000E41140001636F60C096
:101ED00046F061C047F062C048F063C049F0050EAB
:101EE000D8904636473648364936E82EF9D746C0A8
:101EF00060F047C061F048C062F049C063F00F0174
:101F000032511F0B0F01326F60C032FF45A003D06A
:101F10000F01308102D00F01309145A203D00F0193
:101F2000308302D00F01309342C0D9FF43C0DAFFA3
:101F3000DF500F01366F20EE01F04250D92643509A
:101F4000DA22DF500F01376F20EE02F04250D9261F
:101F50004350DA22DF500F01386F20EE03F0425079
:101F6000D9264350DA22DF500F01396F20EE04F0FA
:101F70004250D9264350DA22DF500F013A6F20EE4B
:101F800005F04250D9264350DA22DF500F013B6F53
:101F900020EE06F04250D9264350DA22DF500F01DE
:101FA0003C6F20EE07F04250D9264350DA22DF5032
:101FB0000F013D6F0F01308712000F0120B7120093
:101FC00044C025FF45AC03D00F01258D02D00F0181
:101FD000259D45A66DD03E500001606F616B626B20
:101FE000636B60C024FF000E3E140001606FFF0EA3
:101FF0003F140001616F000E40140001626F000E7B
:1020000041140001636F60C046F061C047F062C0D8
:1020100048F063C049F047C046F048C047F049C0A7
:1020200048F0496A46C060F047C061F048C062F0BD
:1020300049C063F060C023FF000E0F01226F0F0143
:10204000228740A002D00F01228140A202D00F01BE
:10205000228340A402D00F01228B40A602D00F01A0
:10206000228D40A802D00F01228F3EC046F03FC013
:1020700047F040C048F041C049F0160E05D0D89056
:102080004932483247324632E82EF9D746C060F02E
:1020900047C061F048C062F049C063F00001605180
:1020A0000001606F616B626B636B60C021FF53D096
:1020B0000F0122973EC046F03FC047F040C048F0B5
:1020C00041C049F0040E05D0D89049324832473219
:1020D0004632E82EF9D746C060F047C061F048C0EC
:1020E00062F049C063F0000160510001606F616BF4
:1020F000626B636B60C021FF070E3E140001606FCE
:10210000000E3F140001616F000E40140001626F69
:10211000000E41140001636F60C046F061C047F0DB
:1021200062C048F063C049F0050ED8904636473685
:1021300048364936E82EF9D746C060F047C061F00E
:1021400048C062F049C063F00F0122511F0B0F011C
:10215000226F60C022FF45A003D00F01208102D072
:102160000F01209145A203D00F01208302D00F015F
:10217000209342C0D9FF43C0DAFFDF500F01266F22
:1021800020EE01F04250D9264350DA22DF500F01F1
:10219000276F20EE02F04250D9264350DA22DF505A
:1021A0000F01286F20EE03F04250D9264350DA2267
:1021B000DF500F01296F20EE04F04250D926435022
:1021C000DA22DF500F012A6F20EE05F04250D926A7
:1021D0004350DA22DF500F012B6F20EE06F0425001
:1021E000D9264350DA22DF500F012C6F20EE07F082
:1021F0004250D9264350DA22DF500F012D6F0F01D4
:1022000020871200F7ECABF0CF0E0001CC6FF70E79
:10221000CD6F330ECE6F3F0ECF6F000E0001D06F2B
:10222000000ED16F200ED26F410ED36F4B8CDFECBE
:10223000AEF009ECAFF0FBECAEF04CB09DD0010E6F
:102240000001E46F000E0001E36F000EE26F5A0E12
:102250000001EB6F000E0001E96F010E0001EA6F53
:1022600045ECABF0100E24ECA8F0839C839A010E91
:1022700012ECAAF08A0E0001836FFF0E0001846F3A
:1022800039ECAEF0020E12ECAAF0600E0001836F82
:10229000FF0E0001846F39ECAEF0030E12ECAAF0D1
:1022A0004B0E0001836FFF0E0001846F39ECAEF01E
:1022B000040E12ECAAF08A0E0001836FFF0E0001DB
:1022C000846F39ECAEF054D0D4C03EF1D5C03FF1AC
:1022D000D6C040F1D7C041F101013E1F3F1F401F52
:1022E000411F3E2B000E3F2340234123225001017A
:1022F0003E250101426F235001013F210101436F3F
:102300002450010140210101446F25500101412168
:102310000101456F010145510101441101014311C2
:1023200005E11E0E0101425DD8A019D022C0D4F0F3
:1023300023C0D5F024C0D6F025C0D7F083AE02D09C
:10234000010E01D0000EFF0A01013E6F01013E3374
:102350003E33835001013E197F0B3E19836EDFEC43
:10236000AEF0000E0001796F0A0E786FE5ECADF06B
:102370004CA0AAD7839E4B8C32ECADF080A404D045
:10238000000E0001E66F0DD080B605D0010E0001F1
:10239000E66F010E04D0020E0001E66F000E000190
:1023A000E46F4BA2C6D04C9A0001E751D8B44BB4AD
:1023B0002ED04C92010E0001E56F000E0001D06F8F
:1023C000000ED16F800ED26F3F0ED36FADECAEF02A
:1023D0000009D8B4FBD7010E01011B6F0A0E0001E2
:1023E000726F000E736F000E746F000E756F1B0E10
:1023F0000001766F010E0001776F080E0001786F03
:10240000BC0E0001796FCDEC89F00001E72B1EC0F6
:102410003EF11FC03FF120C040F121C041F1010158
:102420003E1F3F1F401F411F3E2B000E3F234023F6
:102430004123225001013E250101426F2350010139
:102440003F210101436F2450010140210101446FEC
:102450002550010141210101456F01014551010153
:1024600044110101431105E11E0E0101425DD8A096
:1024700030D022C01EF023C01FF024C020F025C0A1
:1024800021F04CB214D083AC02D0010E01D0000E6A
:10249000FF0A01013E6F01013E3B3E473E4783502C
:1024A00001013E19BF0B3E19836E839A12D0838CB3
:1024B00083AA02D0010E01D0000EFF0A01013E6F77
:1024C00001013E3B3E47835001013E19DF0B3E199F
:1024D000836E4BB44CA229D00001E851D8A462D03D
:1024E000020E0001E56FADECAEF00009D8B4FBD7E9
:1024F0000C0E0001726F000E736F000E746F000EF1
:10250000756F2C0E0001766F000E0001776F080EBC
:102510000001786FBC0E0001796FCDEC89F0000EE0
:102520000001E76F0001E82B3DD0000E0001E86FCD
:1025300039D0000E0001E76F000E0001E86F4B94E8
:10254000839A839C4CBA2CD0000E0001E56F000EDC
:102550000001D06F000ED16F700ED26F410ED36F9D
:10256000ADECAEF00009D8B4FBD7000E01011B6F33
:102570000A0E0001726F000E736F000E746F000E72
:10258000756F1B0E0001766F010E0001776F080E4C
:102590000001786FBC0E0001796FCDEC89F04C8A98
:1025A000839C839A000E0001AA6F000EAB6F340E5D
:1025B000AC6F430EAD6FCCC084F0CDC085F0CEC003
:1025C00086F0CFC087F00001DC510001726F736BA1
:1025D000746B756B000EFFECA3F072C080F073C0DB
:1025E00081F074C082F075C083F08AEC9BF080C0EB
:1025F00099F081C09AF082C09BF083C09CF002ECFD
:10260000AEF099C0A6F09AC0A7F09BC0A8F09CC0FD
:10261000A9F036EC99F0A6C0BAF0A7C0BBF0A8C0EC
:10262000BCF0A9C0BDF08CECA9F00001BA510001CA
:10263000EB6F0001E651D8B488D0840E0001DD654F
:1026400042D0D0C084F0D1C085F0D2C086F0D3C0D3
:1026500087F07E0E01013E6FFF0E01013F6F00010A
:10266000DD510101406F416B01013E5101014027E5
:1026700001013F510101412340C172F041C173F09A
:102680000001000E73BFFF0E746F756F010EFFEC3B
:10269000A3F072C080F073C081F074C082F075C086
:1026A00083F08AEC9BF080C0BAF081C0BBF082C09E
:1026B000BCF083C0BDF08CECA9F0BAC0E2F0BBC0A6
:1026C000E3F0000E40D0000E0001E36F000EE26F59
:1026D000330E0001846F330E856FF30E866F3F0E4D
:1026E000876F0001DD5101013E6F3F6B01013E1F0D
:1026F0003F1F3E4B3F2B820E01013E27000E3F2322
:102700003EC172F03FC173F00001000E73BFFF0EB7
:10271000746F756F010EFFECA3F072C080F073C090
:1027200081F074C082F075C083F08AEC9BF080C0A9
:10273000BAF081C0BBF082C0BCF083C0BDF08CECAD
:10274000A9F00001BA510001E96F4BAE03D0A2EC31
:10275000ABF04B9ED8C03EF1D9C03FF1DAC040F19A
:10276000DBC041F101013E1F3F1F401F411F3E2BB7
:10277000000E3F2340234123225001013E25010149
:10278000426F235001013F210101436F2450010199
:1027900040210101446F2550010141210101456F94
:1027A00001014551010144110101431105E1020EEE
:1027B0000101425DD8A00AD022C0D8F023C0D9F0D0
:1027C00024C0DAF025C0DBF045ECABF016C03EF1DA
:1027D00017C03FF118C040F119C041F101013E1F7F
:1027E0003F1F401F411F3E2B000E3F23402341232C
:1027F000225001013E250101426F235001013F217A
:102800000101436F2450010140210101446F255013
:10281000010141210101456F0101455101014411AF
:102820000101431105E10A0E0101425DD8A0FFD468
:1028300022C016F023C017F024C018F025C019F0EC
:1028400007ECA3F0F4D40001A16F0001A1AF45D1C2
:102850000001A16D0001A151800A120FD8A0BBD0C8
:10286000000E00017B6F0A0E7A6F000E0001756F7B
:10287000640E746F0001A1510001726F736B72BF1F
:10288000730749ECACF072C078F073C079F088EC53
:10289000AAF00001D890783779370001D8907837BE
:1028A0007937240E00017827000E00017923BB0E32
:1028B00000017825F66EFE0E00017921F76EF86AA8
:1028C000000EF8220900F5CF84F00900F5CF85F05D
:1028D0000900F5CF86F00A00F5CF87F0000E000161
:1028E0007B6F640E7A6F0001A1510001786F796BE4
:1028F00078BF790788ECAAF00001D890783779374B
:102900000001D89078377937480E00017827000EFB
:1029100000017923BB0E00017825F66EFE0E000142
:102920007921F76EF86A000EF8220900F5CF80F0E1
:102930000900F5CF81F00900F5CF82F00A00F5CF4C
:1029400083F08AEC9BF080C09DF081C09EF082C035
:102950009FF083C0A0F09DC080F09EC081F09FC01A
:1029600082F0A0C083F0000E0001756F0A0E746F34
:102970000001A1510001726F736B72BF730749ECC4
:10298000ACF00001D890723773370001D8907237DD
:102990007337BB0E00017225F66EFE0E0001732127
:1029A000F76EF86A000EF8220900F5CF84F00900EE
:1029B000F5CF85F00900F5CF86F00A00F5CF87F056
:1029C0008AEC9BF080C099F081C09AF082C09BF0A5
:1029D00083C09CF012000001A151800A750FD8A09D
:1029E00063D0000E00017B6F0A0E7A6F0001A151C7
:1029F0000001786F796B78BF790788ECAAF0000145
:102A0000D890783779370001D89078377937240E05
:102A100000017827000E00017923BB0E0001782504
:102A2000F66EFE0E00017921F76EF86A000EF822AC
:102A30000900F5CF80F00900F5CF81F00900F5CF4E
:102A400082F00A00F5CF83F0000E0001756F0A0EC8
:102A5000746F0001A1510001726F736B72BF730735
:102A600049ECACF00001D890723773370001D89070
:102A700072377337BB0E00017225F66EFE0E000131
:102A80007321F76EF86A000EF8220900F5CF84F082
:102A90000900F5CF85F00900F5CF86F00A00F5CFE3
:102AA00087F08AEC9BF08ED70001A151040DBB0E7C
:102AB000F324F66EFE0EF420F76EF86A000EF8228C
:102AC0000900F5CF99F00900F5CF9AF00900F5CF8C
:102AD0009BF00A00F5CF9CF012000001A151800A82
:102AE000120FD8A0BBD0000E00017B6F0A0E7A6FC8
:102AF000000E0001756F640E746F0001A15100019A
:102B0000726F736B72BF730749ECACF072C078F0F0
:102B100073C079F088ECAAF00001D8907837793743
:102B20000001D89078377937240E00017827000EFD
:102B300000017923EF0E00017825F66EFE0E0001EC
:102B40007921F76EF86A000EF8220900F5CF84F0BB
:102B50000900F5CF85F00900F5CF86F00A00F5CF22
:102B600087F0000E00017B6F640E7A6F0001A151A7
:102B70000001786F796B78BF790788ECAAF00001C3
:102B8000D890783779370001D89078377937480E60
:102B900000017827000E00017923EF0E000178254F
:102BA000F66EFE0E00017921F76EF86A000EF8222B
:102BB0000900F5CF80F00900F5CF81F00900F5CFCD
:102BC00082F00A00F5CF83F08AEC9BF080C09DF084
:102BD00081C09EF082C09FF083C0A0F09DC080F0B5
:102BE0009EC081F09FC082F0A0C083F0000E000163
:102BF000756F0A0E746F0001A1510001726F736B43
:102C000072BF730749ECACF00001D890723773378C
:102C10000001D89072377337EF0E00017225F66EFF
:102C2000FE0E00017321F76EF86A000EF82209000B
:102C3000F5CF84F00900F5CF85F00900F5CF86F0D7
:102C40000A00F5CF87F08AEC9BF080C099F081C034
:102C50009AF082C09BF083C09CF012000001A15149
:102C6000800A750FD8A063D0000E00017B6F0A0E9A
:102C70007A6F0001A1510001786F796B78BF7907F5
:102C800088ECAAF00001D890783779370001D89005
:102C900078377937240E00017827000E0001792358
:102CA000EF0E00017825F66EFE0E00017921F76E19
:102CB000F86A000EF8220900F5CF80F00900F5CF80
:102CC00081F00900F5CF82F00A00F5CF83F0000E05
:102CD0000001756F0A0E746F0001A1510001726F3F
:102CE000736B72BF730749ECACF00001D890723778
:102CF00073370001D89072377337EF0E00017225D9
:102D0000F66EFE0E00017321F76EF86A000EF822CF
:102D10000900F5CF84F00900F5CF85F00900F5CF63
:102D200086F00A00F5CF87F08AEC9BF08ED7000181
:102D3000A151040DEF0EF324F66EFE0EF420F76E93
:102D4000F86A000EF8220900F5CF99F00900F5CFD6
:102D50009AF00900F5CF9BF00A00F5CF9CF0120025
:102D6000000E486E74BE488074BC48820F0150AF9C
:102D700043D13EC0D9FF3FC0DAFFDE6ADE6ADE6AB9
:102D8000DD6A20EE04F03E50D9263F50DA2256CFBD
:102D9000DFFF20EE05F03E50D9263F50DA2257CF14
:102DA000DFFF20EE06F03E50D9263F50DA2258CF02
:102DB000DFFF20EE07F03E50D9263F50DA2259CFF0
:102DC000DFFF20EE08F03E50D9263F50DA225ACFDE
:102DD000DFFF20EE09F03E50D9263F50DA225BCFCC
:102DE000DFFF20EE0AF03E50D9263F50DA225CCFBA
:102DF000DFFF20EE0BF03E50D9263F50DA225DCFA8
:102E0000DFFF20EE0EF03E50D9263F50DA220F01B0
:102E100055AD02D0010E01D0000EDF6E20EE0DF098
:102E20003E50D9263F50DA220F0155510F0BDF6E6D
:102E300020EE0CF03E50D9263F50DA220F0152A767
:102E400002D0010E01D0000EDF6E0F0152B744D048
:102E500051CF40F0416A426A436A030ED89040362F
:102E6000413642364336E82EF9D73EC0D9FF3FC03F
:102E7000DAFF40C0DEFF41C0DEFF42C0DEFF43C0DC
:102E8000DEFF0F015239E842070B070B496E3EC0C7
:102E9000D9FF3FC0DAFFDECF40F0DECF41F0DECF1A
:102EA00042F0DECF43F049504024446E000E4120F2
:102EB000456E000E4220466E000E4320476E3EC017
:102EC000D9FF3FC0DAFF44C0DEFF45C0DEFF46C089
:102ED000DEFF47C0DEFF8DD054CF40F0416A426A2A
:102EE000436A3EC0D9FF3FC0DAFF40C0DEFF41C0A9
:102EF000DEFF42C0DEFF43C0DEFF53CF40F0416A39
:102F0000426A436A42C043F041C042F040C041F0CF
:102F1000406A3EC0D9FF3FC0DAFF4050DE26415034
:102F2000DE224250DE224350DE220F0152A10CD09D
:102F30003EC0D9FF3FC0DAFF000EDE12000EDE12E7
:102F4000010EDE12000EDE120F0152A30CD03EC0A5
:102F5000D9FF3FC0DAFF000EDE12000EDE12020EB5
:102F6000DE12000EDE120F0152AB0CD03EC0D9FFB4
:102F70003FC0DAFF000EDE12000EDE12040EDE127B
:102F8000000EDE120F0152AD0CD03EC0D9FF3FC083
:102F9000DAFF000EDE12000EDE12080EDE12000E48
:102FA000DE120F0152AF0CD03EC0D9FF3FC0DAFF96
:102FB000000EDE12000EDE12100EDE12000EDE1209
:102FC00051CF40F0416A426A436A150ED8904036AC
:102FD000413642364336E82EF9D73EC0D9FF3FC0CE
:102FE000DAFF4050DE124150DE124250DE124350F2
:102FF000DE120F01509F120060AE12003EC0D9FFDA
:103000003FC0DAFFDE6ADE6ADE6ADD6A20EE04F0C7
:103010003E50D9263F50DA2266CFDFFF20EE05F082
:103020003E50D9263F50DA2267CFDFFF20EE06F070
:103030003E50D9263F50DA2268CFDFFF20EE07F05E
:103040003E50D9263F50DA2269CFDFFF20EE08F04C
:103050003E50D9263F50DA226ACFDFFF20EE09F03A
:103060003E50D9263F50DA226BCFDFFF20EE0AF028
:103070003E50D9263F50DA226CCFDFFF20EE0BF016
:103080003E50D9263F50DA226DCFDFFF20EE0EF002
:103090003E50D9263F50DA2265AC02D0010E01D055
:1030A000000EDF6E20EE0DF03E50D9263F50DA22A2
:1030B00065500F0BDF6E20EE0CF03E50D9263F50CE
:1030C000DA2262A602D0010E01D0000EDF6E62B6D7
:1030D00043D061CF40F0416A426A436A030ED89000
:1030E0004036413642364336E82EF9D73EC0D9FF46
:1030F0003FC0DAFF40C0DEFF41C0DEFF42C0DEFF5E
:1031000043C0DEFF6238E842070B070B496E3EC042
:10311000D9FF3FC0DAFFDECF40F0DECF41F0DECF97
:1031200042F0DECF43F049504024446E000E41206F
:10313000456E000E4220466E000E4320476E3EC094
:10314000D9FF3FC0DAFF44C0DEFF45C0DEFF46C006
:10315000DEFF47C0DEFF88D064CF40F0416A426A9C
:10316000436A3EC0D9FF3FC0DAFF40C0DEFF41C026
:10317000DEFF42C0DEFF43C0DEFF63CF40F0416AA6
:10318000426A436A42C043F041C042F040C041F04D
:10319000406A3EC0D9FF3FC0DAFF4050DE264150B2
:1031A000DE224250DE224350DE2262A00CD03EC01E
:1031B000D9FF3FC0DAFF000EDE12000EDE12010E54
:1031C000DE12000EDE1262A20CD03EC0D9FF3FC05C
:1031D000DAFF000EDE12000EDE12020EDE12000E0C
:1031E000DE1262AA0CD03EC0D9FF3FC0DAFF000E4B
:1031F000DE12000EDE12040EDE12000EDE1262ACD3
:103200000CD03EC0D9FF3FC0DAFF000EDE12000E28
:10321000DE12080EDE12000EDE1262AE0CD03EC0D0
:10322000D9FF3FC0DAFF000EDE12000EDE12100ED4
:10323000DE12000EDE1261CF40F0416A426A436A3C
:10324000150ED8904036413642364336E82EF9D72F
:103250003EC0D9FF3FC0DAFF4050DE124150DE12BF
:103260004250DE124350DE12609E12000001A9514E
:10327000800B0001B66F0001A951A9250001B86FAC
:103280000001A8AF02D00001B8810001B8510001CF
:10329000D8B412D00001B829D8A409D0000E00017A
:1032A000A66F000EA76F000EA86F000EA96F000199
:1032B000A88F000E000108D0000E0001A66F000EBE
:1032C000A76F000EA86F000EA96F0001AD51800B13
:1032D0000001B76F0001B6510001B719D8B402D090
:1032E0000001B68D0001AD51AD250001B76F0001A1
:1032F000ACAF02D00001B7810001B7510001D8B4D2
:1033000012D00001B729D8A409D0000E0001AA6F7D
:10331000000EAB6F000EAC6F000EAD6F0001AC8FF6
:10332000000E000108D0000E0001AA6F000EAB6F66
:10333000000EAC6F000EAD6F0001B8510001B75D1B
:10334000D8B024D00001B6AD03D0800E0001B61B6A
:10335000B8C0B9F0B7C0B8F0B9C0B7F0A6C0B9F0FE
:10336000AAC0A6F0B9C0AAF0A7C0B9F0ABC0A7F038
:10337000B9C0ABF0A8C0B9F0ACC0A8F0B9C0ACF00F
:10338000A9C0B9F0ADC0A9F0B9C0ADF0000E000100
:10339000B96F0001B8510001AE6FAF6B0001AE1FF5
:1033A000AF1FAE4BAF2B0001B7510001B06FB16B37
:1033B0000001AE510001B0270001AF510001B1235F
:1033C0000001B1BF3DD00001B15105E11A0E00016D
:1033D000B05DD8A035D00001A6510001A7110001B1
:1033E000A8110001A911D8B402D0010E01D0000E1D
:1033F0000001B96F000E0001A66F000EA76F000E4E
:10340000A86F000EA96FB7C0B8F020D00001B9A115
:1034100007D00001D890B93101090001B96F03D07C
:103420000001D890B9330001A6A102D00001B98FE4
:103430000001A935A933A833A733A6330001B82B5F
:103440000001B7510001B85DD8A0E0D70001B6BDBA
:103450003FD00001B8510001D8A40AD0000E0001ED
:10346000A66F000EA76F000EA86F000EA96F1200C6
:103470000001AA510001A6270001AB510001A723BA
:103480000001AC510001A8230001AD510001A923A6
:103490000001A9A1CCD00001B9A109D00001D890A8
:1034A000B9330001B95101090001B96F03D000011E
:1034B000D890B9330001A6A102D00001B98F000154
:1034C000A935A933A833A733A6330001B82BAFD051
:1034D0000001AA510001A65D0001AB510001A759EE
:1034E0000001AC510001A8590001A951800A000156
:1034F000AE6F0001AD51800A0001AE59D8B050D076
:10350000A6C0AEF0A7C0AFF0A8C0B0F0A9C0B1F09F
:103510000001AE1FAF1FB01FB11FAE2B000EAF23B7
:10352000B023B1230001AA510001AE250001B26F02
:103530000001AB510001AF210001B36F0001AC519C
:103540000001B0210001B46F0001AD510001B121B3
:103550000001B56FFF0E0001B2250001A66FFF0E3E
:103560000001B3210001A76FFF0E0001B42100018B
:10357000A86FFF0E0001B5210001A96F800E0001A8
:10358000B61B0001B96D0001B9510001D8A418D0D3
:10359000010E0001A627000EA723A823A92310D0FF
:1035A0000001AA510001A65F0001AB510001A75B19
:1035B0000001AC510001A85B0001AD510001A95B05
:1035C0000001A6510001A7110001A8110001A911D5
:1035D000D8A42AD00001B9510001D8A425D0000EEA
:1035E0000001A66F000EA76F000EA86F000EA96F56
:1035F00012000001D890A637A737A837A9370001D5
:10360000B9AF02D00001A6810001B9A103D0D880D2
:10361000000102D00001D890B9370001B851000173
:10362000D8B402D00001B8070001A8AFE2D7000E5D
:103630000001B76F0001B9AF0DD0B9C0AEF07F0E79
:103640000001AE17D8A403D00001A6A103D0010E3B
:103650000001B76F0001B7510001D8B426D0010EA8
:103660000001A627000EA723A823A9230001A9A1D2
:103670001CD0A6C0AEF0A7C0AFF0A8C0B0F0A9C0E3
:10368000B1F00001B135B133B033AF33AE33AEC0BA
:10369000A6F0AFC0A7F0B0C0A8F0B1C0A9F000017B
:1036A000B829D8B402D00001B82B0001B829D8B489
:1036B00005D00001B8510001D8A411D0000E0001BE
:1036C000A66F000EA76F000EA86F000EA96F000175
:1036D000B8510001D8A403D0000E0001B66F00015C
:1036E000B8A103D00001A88F02D00001A89F00015B
:1036F000D890B8310001A96F0001B6AF02D0000127
:10370000A98FA6C0A6F0A7C0A7F0A8C0A8F0A9C01E
:10371000A9F0120000018351800B00018C6F0001A1
:10372000835183250001926F000182AF02D0000116
:103730009281000192510001D8B410D00001922969
:10374000D8A409D0000E0001806F000E816F000E1A
:10375000826F000E836F0001828F09D0000E00017E
:10376000806F000E816F000E826F000E836F00016C
:103770008751800B00018C1B0001875187250001B8
:103780008D6F000186AF02D000018D8100018D5147
:103790000001D8B410D000018D29D8A409D0000EA2
:1037A0000001846F000E856F000E866F000E876F1C
:1037B0000001868F09D0000E0001846F000E856F16
:1037C000000E866F000E876F00018D510001D8B486
:1037D00005D0000192510001D8A40AD0000E0001CA
:1037E000806F000E816F000E826F000E836F1200DB
:1037F0000001865100018003F3CF97F0F4CF98F0D9
:103800000001975100018E6F8F6B906B916B0001DF
:1038100098510001936F946B956B966B00018551E5
:1038200000018103F3CF97F0F4CF98F00001975196
:1038300000018E27000E8F239023912300019851C1
:1038400000019327000E94239523962300018451B1
:1038500000018203F3CF97F0F4CF98F00001975165
:1038600000018E27000E8F23902391230001985191
:1038700000019327000E94239523962390C091F086
:103880008FC090F08EC08FF000018E6B00018451CC
:1038900000018103F3CF97F0F4CF98F00001975126
:1038A00000018E270001985100018F23000E0001B6
:1038B0009023000E00019123000185510001800337
:1038C000F3CF97F0F4CF98F00001975100018E27C5
:1038D0000001985100018F23000E00019023000E7B
:1038E0000001912390C091F08FC090F08EC08FF0B6
:1038F00000018E6B0001845100018003F3CF97F02B
:10390000F4CF98F00001975100018E2700019851E3
:1039100000018F23000E00019023000E000191236F
:103920000001865100018103F3CF97F0F4CF98F0A6
:103930000001975100019327000198510001942341
:10394000000E00019523000E000196230001855111
:1039500000018203F3CF97F0F4CF98F00001975164
:10396000000193270001985100019423000E0001EB
:103970009523000E00019623000186510001820369
:10398000F3CF97F0F4CF98F0000197510001886FC2
:10399000000198510001896F00018A6B00018B6B57
:1039A0008AC08BF089C08AF088C089F00001886BDA
:1039B00000018851000193270001895100019423DF
:1039C00000018A510001952300018B5100019623CB
:1039D0008EC088F08FC089F090C08AF091C08BF0C3
:1039E000190E06D00001D8908B338A33893388337F
:1039F000E82EF8D700018851000193270001895172
:103A00000001942300018A510001952300018B518C
:103A10000001962390C091F08FC090F08EC08FF07F
:103A200000018E6B00018D5192C088F00001896BFE
:103A300000018827000E8923820E000188250001DD
:103A4000976FFF0E000189210001986F15D00001CA
:103A5000D8909337943795379637000191AF02D0BD
:103A6000000193810001D8908E378F3790379137BE
:103A700000019707D8A09807000195AFE8D7000E7E
:103A800000018D6F000191AF24D0FF0E00018E1553
:103A90000001886FFF0E00018F150001896FFF0E76
:103AA0000001901500018A6F7F0E00019115000141
:103AB0008B6F000188510001891100018A110001FA
:103AC0008B11D8A403D0000193A103D0010E0001F3
:103AD0008D6F00018D510001D8B423D0010E00017B
:103AE0009327000E942395239623000196A119D0C5
:103AF00093C088F094C089F095C08AF096C08BF08E
:103B000000018B358B338A338933883388C093F037
:103B100089C094F08AC095F08BC096F00001974B55
:103B2000982B000198BF10D00001985104E10001CA
:103B30009729D8A009D0000E0001936F000E946F52
:103B4000800E956F7F0E2BD0000198BF07D000012B
:103B5000985111E100019705D8B00DD0000E000179
:103B6000936F000E946F000E956F000E966F000E0F
:103B700000018C6F15D097C092F0FF0E00019317D3
:103B8000FF0E94177F0E9517000E9617000192A155
:103B900002D00001958F0001D89092310001966FFC
:103BA00000018C510001961393C080F094C081F005
:103BB00095C082F096C083F0120000018351800B03
:103BC00000018C6F0001835183250001976F000174
:103BD00082AF02D000019781000197510001D8B453
:103BE00012D000019729D8A409D0000E0001806FDF
:103BF000000E816F000E826F000E836F0001828FB6
:103C0000000E000108D0000E0001806F000E816FD1
:103C1000000E826F000E836F00018751800B000140
:103C20008C1B0001875187250001986F000186AF2A
:103C300002D000019881000198510001D8B412D03F
:103C400000019829D8A409D0000E0001846F000E4D
:103C5000856F000E866F000E876F0001868F000E45
:103C6000000108D0000E0001846F000E856F000E69
:103C7000866F000E876F00018451000185110001DD
:103C8000861100018711D8A417D0000E0001806FA3
:103C9000000E816F000E826F000E836F0001800E98
:103CA00082137F0E831380C080F081C081F082C0B8
:103CB00082F083C083F01200000197510001D8A464
:103CC00012D0000E0001806F000E816F000E826F17
:103CD000000E836F80C080F081C081F082C082F0CE
:103CE00083C083F01200000198510001886F896B36
:103CF0000001881F891F884B892B00019751000103
:103D00008A6F8B6B0001885100018A27000189515D
:103D100000018B237F0E00018A250001916F000EA8
:103D200000018B210001926F80C08DF081C08EF068
:103D300082C08FF083C090F0000E0001806F000EF3
:103D4000816F000E826F000E836F000E0001936F73
:103D5000000E946F000E956F000E966F000E00011E
:103D6000986F42D0000198510001D8B417D00001DB
:103D7000D8908D378E378F3790370001D8908037A5
:103D8000813782378337000196AF02D000018081EE
:103D90000001D890933794379537963700018451B6
:103DA00000018D5D0001855100018E590001865191
:103DB00000018F590001875100019059D8A012D0FD
:103DC0000001968D0001845100018D5F0001855135
:103DD00000018E5B0001865100018F5B000187515D
:103DE0000001905B0001982B190E00019865BAD76D
:103DF00000018D5100018E1100018F110001901101
:103E0000D8B418D00001938115D00001D890803724
:103E1000813782378337000196AF02D0000180815D
:103E20000001D89093379437953796370001910762
:103E3000D8A09207000182AFE8D7000E0001986F6A
:103E4000000196AF24D0FF0E000193150001886F8A
:103E5000FF0E000194150001896FFF0E00019515FA
:103E600000018A6F7F0E0001961500018B6F000123
:103E700088510001891100018A1100018B11D8A419
:103E800003D0000180A103D0010E0001986F000152
:103E900098510001D8B423D0010E00018027000EF4
:103EA000812382238323000183A119D080C088F05D
:103EB00081C089F082C08AF083C08BF000018B350D
:103EC0008B338A338933883388C080F089C081F08E
:103ED0008AC082F08BC083F00001914B922B0001CD
:103EE00092BF14D00001925104E100019129D8A0A1
:103EF0000DD0000E0001926F9169000E0001806FDD
:103F0000000E816F000E826F000E836F000192BF62
:103F100007D00001925115E100019105D8B011D0F0
:103F2000000E0001926F000E916F000E0001806F75
:103F3000000E816F000E826F000E836F000E000175
:103F40008C6F91C097F0000197A103D00001828F80
:103F500002D00001829F0001D89097310001836F49
:103F600000018C510001831380C080F081C081F07A
:103F700082C082F083C083F0120000017B6F0001D9
:103F80007B05D8A456D000017629D8A452D072C09F
:103F900077F073C078F074C079F075C07AF0040ED1
:103FA00006D00001D8907A33793378337733E82E0E
:103FB000F8D777C07CF078C07DF079C07EF07AC009
:103FC0007FF000017C5100017C6F7D6B7E6B7F6B0D
:103FD0007CC018FF070E0001721500017C6F000EF7
:103FE0000001731500017D6F000E000174150001C2
:103FF0007E6F000E0001751500017F6F7CC077F0A9
:104000007DC078F07EC079F07FC07AF0050ED89040
:1040100000017737783779377A37E82EF8D777C0C5
:104020007CF078C07DF079C07EF07AC07FF07CC0F3
:1040300019FF020E00017B19D8A456D00001762981
:10404000D8A452D072C077F073C078F074C079F001
:1040500075C07AF0040E06D00001D8907A33793317
:1040600078337733E82EF8D777C07CF078C07DF0CE
:1040700079C07EF07AC07FF000017C5100017C6F36
:104080007D6B7E6B7F6B7CC01CFF070E0001721581
:1040900000017C6F000E0001731500017D6F000EA2
:1040A0000001741500017E6F000E000175150001FE
:1040B0007F6F7CC077F07DC078F07EC079F07FC0E4
:1040C0007AF0050ED89000017737783779377A374C
:1040D000E82EF8D777C07CF078C07DF079C07EF00C
:1040E0007AC07FF07CC01DFF00017B05D8A487D07B
:1040F000F70E00017619D8A482D000017251000198
:104100007C6F7D6B7E6B7F6B7CC01BFF000E0001A4
:10411000721500017C6FFF0E0001731500017D6FA9
:10412000000E0001741500017E6F000E0001751570
:1041300000017F6F7CC077F07DC078F07EC079F0A1
:104140007FC07AF078C077F079C078F07AC079F0E3
:1041500000017A6B77C07CF078C07DF079C07EF08A
:104160007AC07FF07CC01AFF000174A103D00F0158
:10417000198102D00F011991000174A303D00F011E
:10418000198302D00F011993000174A503D00F0108
:10419000198B02D00F01199B000174A703D00F01E6
:1041A000198D02D00F01199D000174A903D00F01D0
:1041B000198F02D00F01199F72C077F073C078F089
:1041C00074C079F075C07AF0160E06D00001D89050
:1041D0007A33793378337733E82EF8D777C07CF0A9
:1041E00078C07DF079C07EF07AC07FF000017C510C
:1041F00000017C6F7D6B7E6B7F6B7CC018FF020EB5
:1042000000017B19D8A41200F70E00017619D8A47A
:1042100012000001725100017C6F7D6B7E6B7F6B21
:104220007CC01FFF000E0001721500017C6FFF0EA5
:104230000001731500017D6F000E0001741500016F
:104240007E6F000E0001751500017F6F7CC077F056
:104250007DC078F07EC079F07FC07AF078C077F0CA
:1042600079C078F07AC079F000017A6B77C07CF081
:1042700078C07DF079C07EF07AC07FF07CC01EFFF0
:10428000000174A103D00F011D8102D00F011D9107
:10429000000174A303D00F011D8302D00F011D93F1
:1042A000000174A503D00F011D8B02D00F011D9BCF
:1042B000000174A703D00F011D8D02D00F011D9DB9
:1042C000000174A903D00F011D8F02D00F011D9FA3
:1042D00072C077F073C078F074C079F075C07AF06E
:1042E000160E06D00001D8907A33793378337733BD
:1042F000E82EF8D777C07CF078C07DF079C07EF0EA
:104300007AC07FF000017C5100017C6F7D6B7E6B79
:104310007F6B7CC01CFF12000001A56F6D0E0001B9
:10432000A565CDD0000E00017B6F0A0E7A6F000EDE
:104330000001756F640E746FA5C072F00001736B9D
:1043400049ECACF072C078F073C079F088ECAAF058
:104350000001D890783779370001D89078377937CD
:10436000240E00017827000E00017923BB0E000106
:104370007825F66EFE0E00017921F76EF86A000EC0
:10438000F8220900F5CF84F00900F5CF85F0090087
:10439000F5CF86F00A00F5CF87F0000E00017B6FA5
:1043A000640E7A6FA5C078F00001796B88ECAAF0F2
:1043B0000001D890783779370001D890783779376D
:1043C000480E00017827000E00017923BB0E000182
:1043D0007825F66EFE0E00017921F76EF86A000E60
:1043E000F8220900F5CF80F00900F5CF81F009002F
:1043F000F5CF82F00A00F5CF83F08AEC9BF080C005
:10440000A1F081C0A2F082C0A3F083C0A4F0000E8E
:104410000001756F0A0E746FA5C072F00001736B16
:1044200049ECACF00001D890723773370001D89096
:1044300072377337BB0E00017225F66EFE0E000157
:104440007321F76EF86A000EF8220900F5CF84F0A8
:104450000900F5CF85F00900F5CF86F00A00F5CF09
:1044600087F0A1C080F0A2C081F0A3C082F0A4C0F8
:1044700083F08AEC9BF080C09DF081C09EF082C0EA
:104480009FF083C0A0F09DC080F09EC081F09FC0CF
:1044900082F0A0C083F0000E0001846F000E856FD3
:1044A000000E866F3F0E876F8AEC9BF080C099F0FC
:1044B00081C09AF082C09BF083C09CF012000A0E6B
:1044C0000001A56578D0000E0001756F0A0E746FAB
:1044D000A5C072F00001736B49ECACF00001D890FC
:1044E000723773370001D89072377337BB0E0001F3
:1044F0007225F66EFE0E00017321F76EF86A000E4B
:10450000F8220900F5CF84F00900F5CF85F0090005
:10451000F5CF86F00A00F5CF87F0000E00017B6F23
:104520000A0E7A6FA5C078F00001796B88ECAAF0CA
:104530000001D890783779370001D89078377937EB
:10454000240E00017827000E00017923BB0E000124
:104550007825F66EFE0E00017921F76EF86A000EDE
:10456000F8220900F5CF80F00900F5CF81F00900AD
:10457000F5CF82F00A00F5CF83F08AEC9BF080C083
:10458000A1F081C0A2F082C0A3F083C0A4F0A1C0BA
:1045900080F0A2C081F0A3C082F0A4C083F0000E1E
:1045A0000001846F000E856F000E866F3F0E876FCF
:1045B0008AEC9BF07BD70001A551040DBB0EF324C0
:1045C000F66EFE0EF420F76EF86A000EF82209006F
:1045D000F5CF80F00900F5CF81F00900F5CF82F02A
:1045E0000A00F5CF83F0000E0001846F000E856F86
:1045F000000E866F3F0E876F8AEC9BF080C099F0AB
:1046000081C09AF082C09BF083C09CF01200ADEC98
:10461000AEF0E806D8A4FBD7060E0001726F000EBC
:10462000736F000E746F000E756FEA0E0001766FE7
:10463000000E0001776F080E0001786FFC0E00017C
:10464000796FCDEC89F0DEC072F0DFC073F000014D
:10465000746B756B000EFFECA3F072C080F073C03A
:1046600081F074C082F075C083F0000E0001846F89
:10467000000E856F8B0E866F430E876FDDEC9DF00D
:1046800080C00EF081C00FF082C010F083C011F026
:104690000F0E0001C46F010E0001C56FF90E00017D
:1046A000C66FFF0E0001C76F0EC0C8F00FC0C9F083
:1046B00010C0CAF011C0CBF083EC85F0000E0101F0
:1046C0001A6F4BAC32D0100E24ECA8F06CECAEF0AC
:1046D000010E12ECAAF0750E0001836FFF0E0001AF
:1046E000846F39ECAEF0020E12ECAAF0BE0E00019F
:1046F000836FFF0E0001846F39ECAEF0030E12ECF5
:10470000AAF09F0E0001836FFF0E0001846F39EC49
:10471000AEF0040E12ECAAF0B00E0001836FFF0E93
:104720000001846F39ECAEF04B9C020E0001816FEA
:104730000C0EEDECAEF00001E651D8B416D000013D
:10474000E405D8A409D0EF0E0001836FFF0E00012D
:10475000846F39ECAEF011D0F40E0001836FFF0EC0
:104760000001846F39ECAEF008D0EA0E0001836FCF
:10477000FF0E0001846F39ECAEF0030E0001816F73
:10478000080EEDECAEF00F0E0001836F010E00017C
:10479000846F9AECAEF0040E0001816F0E0EEDEC0A
:1047A000AEF00001E551D8A409D0CA0E0001836F14
:1047B000FF0E0001846F39ECAEF012000001E50538
:1047C000D8A414D04CB209D0DA0E0001836FFF0ECA
:1047D0000001846F39ECAEF01200D20E0001836F3D
:1047E000FF0E0001846F39ECAEF01200E20E000102
:1047F000836FFF0E0001846F39ECAEF012000001F0
:104800007A6F00017A510001D8B41ED0000175AF53
:104810001BD072C076F073C077F074C078F075C0AA
:1048200079F00001761F771F781F791F762B000E15
:1048300077237823792376C07CF077C07DF078C029
:104840007EF079C07FF008D072C07CF073C07DF03C
:1048500074C07EF075C07FF00001725100017311C9
:104860000001741100017511D8A40AD0000E0001D6
:10487000726F000E736F000E746F000E756F120072
:10488000960E00017B6F08D000017B2B0001D890B1
:104890007F337E337D337C33000E00017C150001B5
:1048A000766F000E00017D150001776F000E00018C
:1048B0007E150001786FFE0E00017F150001796FF3
:1048C0000001765100017711000178110001791182
:1048D000D8B410D0D9D700017B2B010E00017C2762
:1048E000000E7D237E237F230001D8907F337E330B
:1048F0007D337C33000E00017C150001766F000EC5
:1049000000017D150001776F000E00017E1500018A
:10491000786FFF0E00017F150001796F000176515D
:10492000000177110001781100017911D8B409D084
:10493000D2D700017B070001D8907C377D377E37C6
:104940007F3700017EBF04D0020E00017B61F1D7EA
:1049500000017BB109D0FF0E00017C17FF0E7D170F
:104960007F0E7E17FF0E7F170001D8907B337BC030
:1049700076F00001776B786B796B76C079F0000187
:10498000786B776B766B0001765100017C13000128
:10499000775100017D130001785100017E13000161
:1049A000795100017F1300017A510001D8B405D07C
:1049B000000175AF02D000017F8F7CC072F07DC016
:1049C00073F07EC074F07FC075F012000001896F33
:1049D000800E17ECAFF0000E706E000E716E000EC0
:1049E000726E00018241E842C00B0001826F00013B
:1049F00082517012000183517012000189517112AD
:104A000000018039E842F80B0001806F00018051FD
:104A10007112000184A5718C000184B1718E0001B6
:104A200081517212000184B3728C00018451600BB9
:104A3000606E00018451100BFF0AD8B4608460CF0F
:104A400050FF000E0001726F000E736F000E746F46
:104A5000000E756FF70E0001766F010EBDEC9FF032
:104A6000000E0001726F000E736F000E746F000E67
:104A7000756FF70E0001766F020EBDEC9FF00FD040
:104A8000F70E00018A6F07D000018A6900018B6967
:104A900028D000018A69F70E00018B6F22D09F0E8B
:104AA0000001856FFF0E0001866F00018451600BCD
:104AB0000001876F886B0001855100018713000199
:104AC00086510001881300018851000AD8A4E1D75B
:104AD00000018751BF0AD8B4D7D7600AD8B4D0D75D
:104AE000D8D7000E0001726F000E736F000E746F46
:104AF000000E756F8AC076F0000E00EC80F0000E9C
:104B00000001726F000E736F000E746F000E756FF0
:104B10008AC076F0010E00EC80F0000E0001726F8A
:104B2000000E736F000E746F000E756F8BC076F001
:104B3000020E00EC80F0000E0001726F000E736F29
:104B4000000E746F000E756F8BC076F0030E00ECD4
:104B500080F0000E0001726F000E736F000E746F14
:104B6000000E756F8BC076F0040E00EC80F0000E26
:104B70000001726F000E736F000E746F000E756F80
:104B80008BC076F0050E00EC80F0000E17ECAFF055
:104B9000120074C07AF000017B6B7C6B00017335EE
:104BA00000017A3701E37B8100017A510001826FB5
:104BB00000018251D8A40AD0000E0001726F000ECD
:104BC000736F000E746F000E756F120078C07AF06C
:104BD00000017B6B7C6B0001773500017A3701E3C4
:104BE0007B8100017A510001816F00018151D8A4BD
:104BF0000AD0000E0001726F000E736F000E746F0A
:104C0000000E756F12000001738FFF0E0001721706
:104C1000FF0E00017317000E000174170001778F5B
:104C2000FF0E00017617FF0E00017717000E00013E
:104C30007817000E00017D6F000E7E6F000E7F6FF3
:104C4000000E806F7F0E0001825F00018151980F7E
:104C50000001825F180E0001816F0001D8907D373E
:104C60007E377F378037000176510001725D000189
:104C70007751000173590001785100017459D8A08F
:104C80000ED0000176510001725F000177510001E2
:104C9000735B000178510001745B00017D810001AC
:104CA000D8907237733774370001812FD6D700013F
:104CB00082AF1AD000018251800A970FD8B00AD073
:104CC000000E0001726F000E736F000E746F000E05
:104CD000756F12000001D89080337F337E337D33AF
:104CE0000001823FF7D71BD0170E0001826512D05A
:104CF000000E0001726F000E736F000E746F000ED5
:104D0000756F12000001D8907D377E377F3780376E
:104D100000018207000182510001D8A4F3D77DC0B1
:104D200072F07EC073F07FC074F080C075F0120026
:104D3000000E0001721500017A6F000E000173155C
:104D400000017B6F800E0001741500017C6F7F0EE7
:104D50000001751500017D6F00017A5100017B1182
:104D600000017C1100017D11D8A409D0000E0001C2
:104D7000726F000E736F000E746F000E756F000E71
:104D80000001761500017A6F000E00017715000111
:104D90007B6F800E0001781500017C6F7F0E000193
:104DA000791500017D6F00017A5100017B1100012E
:104DB0007C1100017D11D8A409D0000E0001766F8E
:104DC000000E776F000E786F000E796F000175AFDF
:104DD00026D072C07AF073C07BF074C07CF075C0CE
:104DE0007DF000017A1F7B1F7C1F7D1F7A2B000E38
:104DF0007B237C237D23000E00017A250001726F46
:104E0000000E00017B210001736F000E00017C2168
:104E10000001746F800E00017D210001756F00019B
:104E200079AF26D076C07AF077C07BF078C07CF07E
:104E300079C07DF000017A1F7B1F7C1F7D1F7A2BBC
:104E4000000E7B237C237D23000E00017A250001C8
:104E5000766F000E00017B210001776F000E0001CC
:104E60007C210001786F800E00017D210001796FA7
:104E7000000E0001721B000E731B000E741B800ECF
:104E8000751B000E0001761B000E771B000E781BB1
:104E9000800E791B000176510001725D000177518F
:104EA00000017359000178510001745900017951D2
:104EB00000017559D8B002D0D8901200D8801200E5
:104EC00000017435753500017F6F00017F51D8A452
:104ED0000AD0000E0001726F000E736F000E746F27
:104EE000000E756F120000017835793500017E6F74
:104EF00000017E51D8A40AD0000E0001726F000E8E
:104F0000736F000E746F000E756F12000001748FC6
:104F1000FF0E00017217FF0E7317FF0E7417000EBD
:104F200075170001788FFF0E00017617FF0E7717B7
:104F3000FF0E7817000E7917000E00017A6F000E31
:104F40007B6F000E7C6F000E7D6F7F0E00017F5F18
:104F500000017E51A00F00017F5F200E00017E6FD7
:104F60000001D8907A377B377C377D370001765146
:104F70000001725D00017751000173590001785101
:104F8000000174590001795100017559D8A012D05F
:104F9000000176510001725F000177510001735BDF
:104FA000000178510001745B000179510001755BCB
:104FB00000017A810001D8907237733774377537E2
:104FC00000017E2FCDD700017FAF1AD000017F51A5
:104FD000800A9F0FD8B00AD0000E0001726F000E39
:104FE000736F000E746F000E756F12000001D89081
:104FF0007D337C337B337A3300017F3FF7D71BD07F
:105000001F0E00017F6512D0000E0001726F000EAE
:10501000736F000E746F000E756F12000001D89050
:105020007A377B377C377D3700017F0700017F515E
:105030000001D8A4F3D77AC072F07BC073F07CC0B3
:1050400074F07DC075F012000001806F0001805186
:105050002DECAFF08D948B928B90000E0001796F48
:10506000640E786FE5ECADF0000E00017A6F010E72
:1050700000017B6F010E00017C6F000EC8ECADF0EB
:10508000000E0001796F640E786FE5ECADF0000E54
:1050900000017A6F010E00017B6F010E00017C6F31
:1050A000000EC8ECADF0000E0001796F0A0E786FAB
:1050B000E5ECADF0000E00017A6F010E00017B6F90
:1050C000010E00017C6F000EC8ECADF0000E000177
:1050D0007A6F010E00017B6F000E00017C6F000EE5
:1050E000C8ECADF0000E00017A6F010E00017B6F7D
:1050F000000E00017C6F000EC8ECADF0000E000148
:105100007A6F000E00017B6F000E00017C6F010EB4
:10511000C8ECADF0000E00017A6F000E00017B6F4D
:10512000000E00017C6F000EC8ECADF0000E000117
:105130007A6F000E00017B6F000E00017C6F010E84
:10514000C8ECADF0000E00017A6F000E00017B6F1D
:10515000000E00017C6F000EC8ECADF0000E0001E7
:105160007A6F000E00017B6F010E00017C6F000E54
:10517000C8ECADF0000E00017A6F000E00017B6FED
:10518000000E00017C6F000EC8ECADF0010E0001B6
:105190007A6F010E00017B6F000E00017C6F000E24
:1051A000C8ECADF06CECAEF0000E00017E6F000EAE
:1051B00053ECAEF01200E9CF66F0EACF67F0E1CF32
:1051C00068F0E2CF69F0D9CF6AF0DACF6BF0F3CFB5
:1051D0006CF0F4CF6DF0F6CF6EF0F7CF6FF0F8CF44
:1051E00070F0F5CF71F0A4A2A4B001D077D022EC7A
:1051F000AFF00009D8B46ED0000E3E6E010E3F6EC7
:10520000B0EC96F001010EA102D04B8801D04B9872
:1052100000C112F001C113F002C114F003C115F076
:105220004B8E060E1218131014101510D8A41AD095
:10523000000E4A6E070E4A6401D014D04A50010D88
:10524000040EF324D96E010EF420DA6E4A50010DDB
:10525000010EF324E16E000EF420E26EDFCFE7FFD3
:105260004A2AE8D70B0E1218131014101510D8A4E0
:1052700004D001010405D8B44C82020E1218131098
:1052800014101510D8B44BA825D022C01AF023C092
:105290001BF024C01CF025C01DF0030E2C6E0D0E5B
:1052A000E82EFED700F0D0ECAEF0E806D8A4FBD78D
:1052B000020E3E6E000E3F6E000E406E000E416EFE
:1052C0002C0E426E000E436E080E446EBC0E456EF0
:1052D00093EC8DF08C848C86A492A49071C0F5FF21
:1052E00070C0F8FF6FC0F7FF6EC0F6FF6DC0F4FF2F
:1052F0006CC0F3FF6BC0DAFF6AC0D9FF69C0E2FF80
:1053000068C0E1FF67C0EAFF66C0E9FF65C0FBFF58
:1053100064C0FAFF4D9211000001BC35BD3500019B
:10532000C36F0001C351D8A40AD0000E0001BA6FA8
:10533000000EBB6F000EBC6F000EBD6F1200BAC036
:10534000BEF0BBC0BFF0BCC0C0F0BDC0C1F0200EFD
:1053500006D00001D890C133C033BF33BE33E82E2E
:10536000F8D70001BE510001C26F0001BC8FFF0ED3
:105370000001BA17FF0EBB17FF0EBC17000EBD17BA
:10538000960E0001C35F0001C3AF1AD00001C351E4
:10539000800A970FD8B00AD0000E0001BA6F000E35
:1053A000BB6F000EBC6F000EBD6F12000001D890E5
:1053B000BD33BC33BB33BA330001C33FF7D71BD077
:1053C0001F0E0001C36512D0000E0001BA6F000E5F
:1053D000BB6F000EBC6F000EBD6F12000001D890B5
:1053E000BA37BB37BC37BD370001C3070001C35113
:1053F0000001D8A4F3D70001C2510001D8B409D0EC
:105400000001BD1FBC1FBB1FBA6D000EBB23BC2318
:10541000BD23BAC0BAF0BBC0BBF0BCC0BCF0BDC0BD
:10542000BDF0120000017E6F64D0000E00017A6FA3
:10543000000E00017B6F000E00017C6F010EC8ECB6
:10544000ADF0000E00017A6F000E00017B6F000EC0
:1054500000017C6F000EC8ECADF01200010E0001DF
:105460007A6F000E00017B6F000E00017C6F010E51
:10547000C8ECADF0000E00017A6F000E00017B6FEA
:10548000000E00017C6F000EC8ECADF01200000EA3
:1054900000017A6F000E00017B6F010E00017C6F2E
:1054A000010EC8ECADF0010E00017A6F000E000194
:1054B0007B6F000E00017C6F000EC8ECADF0120097
:1054C000010E00017A6F000E00017B6F010E0001DA
:1054D0007C6F010EC8ECADF0010E00017A6F000E7A
:1054E00000017B6F000E00017C6F000EC8ECADF078
:1054F000120000017E51010AD8B497D7030AD8B42C
:10550000ADD7010AD8B4C3D7070AD8A41200D8D798
:10551000000E00017D6F00017BAF08D000017A6DA5
:105520007B1FD8B07B2B010E00017D6F000179AF8E
:1055300008D00001786D791FD8B0792B010E0001D9
:105540007D1B000E00017F6F000E7E6F00017A51FF
:1055500000017B11D8B42CD0010E00017C6F06D065
:105560000001D8907A377B3700017C2B00017BAF9C
:10557000F7D70001D8907E377F3700017A510001BC
:10558000785D00017B5100017959D8A00AD0000153
:105590007A510001785F00017B510001795B0001C5
:1055A0007E810001D8907B337A3300017C2FE1D7D4
:1055B00000017D510001D8B405D000017E6D7F1F30
:1055C000D8B07F2B7EC078F07FC079F01200000E3B
:1055D00000017A6F000E7B6F000E7C6F000E7D6FF6
:1055E0000001765100017711000178110001791155
:1055F000D8B442D0010E00017E6F08D00001D890CF
:10560000763777377837793700017E2B000179AF0D
:10561000F5D70001D8907A377B377C377D3700018A
:1056200076510001725D000177510001735900014C
:105630007851000174590001795100017559D8A0C1
:1056400012D0000176510001725F00017751000114
:10565000735B000178510001745B00017951000116
:10566000755B00017A810001D89079337833773304
:10567000763300017E2FCDD77AC072F07BC073F0F5
:105680007CC074F07DC075F01200ADECAEF0E806A1
:10569000D8A4FBD7050E0001726F000E736F000EC9
:1056A000746F000E756FEB0E0001766F000E000137
:1056B000776F080E0001786FBC0E0001796FCDEC9A
:1056C00089F0E2C0EAF00001E3510001EB6FE4C0B1
:1056D000ECF0ADECAEF0E806D8A4FBD7030E000169
:1056E000726F000E736F000E746F000E756FEA0E0E
:1056F0000001766F000E0001776F080E0001786FD1
:10570000BC0E0001796FCDEC89F0ADECAEF0E8068F
:10571000D8A4FBD7040E0001726F000E736F000E49
:10572000746F000E756FE90E0001766F000E0001B8
:10573000776F080E0001786FBD0E0001796FCDEC18
:1057400089F01200020E1218131014101510D8A4AC
:1057500015D04BA80CD022C01AF023C01BF024C0D7
:105760001CF025C01DF04B864B904B9A07D02C04A3
:10577000D8B44B80020E2C18D8B44B8A060E1218DF
:10578000131014101510D8B44BB827D002C026F04F
:10579000276A26500001726F0150266E72C027F0F2
:1057A00004C028F0296A28500001726F0350286E47
:1057B00072C029F0265028240001726F275029203A
:1057C0000001736FD890000173310001746F000104
:1057D00072310001DE6F74C0DFF0090E1218131071
:1057E00014101510D8A412002CC02AF01200000EBC
:1057F000896E1F0E926E000E8A6EFB0E936E000E67
:105800008B6EF00E946E000E8C6E000E956E000E78
:105810008D6E000E966E060E0001806F050E000163
:10582000816F010E0001826F030E0001836F9D0ED8
:105830000001846F040EE6ECA4F0A192A492A4905F
:10584000D08EA582A580A2920D0EC16EC298C2967E
:10585000C294C08AC088C096C084C092C080C09ED6
:10586000C280100E24ECA8F06CECAEF0010E12EC2D
:10587000AAF083948396630EB36EC00EB26EA382B9
:10588000A380A082010EB16E6CECAEF0F28EF28CB1
:105890001200000E0001776F000173AF08D0000105
:1058A000726D731FD8B0732B010E0001776F00016A
:1058B00075AF05D00001746D751FD8B0752B000150
:1058C000745100017511D8B426D0010E0001766F15
