:040000005FEF00F0BE
:10000800FACF64F0FBCF65F0E9CF66F0E9EF9DF039
:10001800D8CF29F0E8CF2AF0E0CF2BF0FACF2CF098
:10002800FBCF2DF0E9CF2EF0EACF2FF0E1CF30F063
:10003800E2CF31F0D9CF32F0DACF33F0F3CF34F06A
:10004800F4CF35F0F6CF36F0F7CF37F0F8CF38F0F9
:10005800F5CF39F0A1A20CD0010E0526000E06221C
:1000680007220822630EB36EC00EB26EA19200D0B2
:1000780039C0F5FF38C0F8FF37C0F7FF36C0F6FFC4
:1000880035C0F4FF34C0F3FF33C0DAFF32C0D9FF04
:1000980031C0E2FF30C0E1FF2FC0EAFF2EC0E9FF08
:1000A8002DC0FBFF2CC0FAFF2BC0E0FF2AC0E8FFE1
:0A00B80029C0D8FF100036EFAEF0AB
:10FD4A00000000803FCDCCCC3D0AD7233C6F128304
:10FD5A003A17B7D138ACC52737BD37863595BFD6E0
:10FD6A003377CC2B325F708930FFE6DB2E08E53C17
:10FD7A001E6042A20D0000803F000020410000C822
:10FD8A004200007A4400401C460050C347002474D5
:10FD9A00498096184B20BCBE4C286B6E4EF9021552
:10FDAA0050EC78AD60CAF24971010000000A000007
:10FDBA000064000000E803000010270000A086018C
:10FDCA000040420F008096980000E1F50500CA9AAB
:10FDDA003B446972656374696F6E3A202020202063
:10FDEA0020202020200020202020202020464149B9
:10FDFA004C454421202020202020002020202020A3
:10FE0A00434F4D504C45544544212020202020008A
:10FE1A00202020205355434345535346554C4C59B3
:10FE2A0020202020002020207374617274207061C9
:10FE3A00726B696E67202020200020205072657343
:10FE4A00732074686520627574746F6E20200020B8
:10FE5A00202064756520746F20616E206572726F50
:10FE6A00722020004261747465727920636861723D
:10FE7A0067696E672E2E2E200020756E74696C20BD
:10FE8A006E657874206D65737361676520005072C2
:10FE9A006573732074686520425554544F4E20741C
:10FEAA006F2000205061726B696E672070726F63F9
:10FEBA0065647572657320002D2044697374616EE0
:10FECA0063652052454143484544202D002D3E207C
:10FEDA00204B454550204D4F56494E472020203C47
:10FEEA002D002D3E20536166657479206272616B24
:10FEFA0065204F4E3C2D003D202020205061726B22
:10FF0A00696E6720696E202020203D003D20202058
:10FF1A002070726F67726573732E2E2E2020203D1B
:10FF2A00003D205041524B494E47204D45535341C5
:10FF3A00474553203D003D3D3E2056454849434CE8
:10FF4A004520204F4646203C3D3D003D3D3D205644
:10FF5A00454849434C452044415441203D3D3D00DC
:10FF6A003D3D3D3D3D3D3D3D3D3D3D3D3D3D3D3DB7
:10FF7A003D3D3D3D00205061726B696E6720737094
:10FF8A0061636520464F554E44005B215D20204C3D
:10FF9A006F772062617474657279205B215D00530A
:10FFAA00706565643A20302E3030204B6D2F680022
:10FFBA005061726B206173736973743A20004469EB
:10FFCA0072656374696F6E3A20004F46462020209E
:10FFDA0020005345415243482000446174613A204D
:10FFEA000050202020004657442000424B5744002E
:06FFFA00252E3266000016
:020000040001F9
:1000000000017B6F00017B510001D8A459D0000191
:100010007629D8A455D00F01019772C077F073C02C
:1000200078F074C079F075C07AF0040E06D0000143
:10003000D8907A33793378337733E82EF8D777C08E
:100040007CF078C07DF079C07EF07AC07FF000014E
:100050007C5100017C6F7D6B7E6B7F6B7CC000FFF1
:10006000070E0001721500017C6F000E0001731570
:1000700000017D6F000E0001741500017E6F000EFF
:100080000001751500017F6F7CC077F07DC078F0AE
:100090007EC079F07FC07AF0050ED89000017737E6
:1000A000783779377A37E82EF8D777C07CF078C080
:1000B0007DF079C07EF07AC07FF07CC001FF00D077
:1000C00000017B05D8A459D000017629D8A455D0C9
:1000D0000F01059772C077F073C078F074C079F0A3
:1000E00075C07AF0040E06D00001D8907A337933C7
:1000F00078337733E82EF8D777C07CF078C07DF07E
:1001000079C07EF07AC07FF000017C5100017C6FE5
:100110007D6B7E6B7F6B7CC004FF070E0001721548
:1001200000017C6F000E0001731500017D6F000E51
:100130000001741500017E6F000E000175150001AD
:100140007F6F7CC077F07DC078F07EC079F07FC093
:100150007AF0050ED89000017737783779377A37FB
:10016000E82EF8D777C07CF078C07DF079C07EF0BB
:100170007AC07FF07CC005FF00D0020E00017B1921
:10018000D8A459D000017629D8A455D00F010997D9
:1001900072C077F073C078F074C079F075C07AF0EF
:1001A000040E06D00001D8907A3379337833773350
:1001B000E82EF8D777C07CF078C07DF079C07EF06B
:1001C0007AC07FF000017C5100017C6F7D6B7E6BFB
:1001D0007F6B7CC008FF070E0001721500017C6F69
:1001E000000E0001731500017D6F000E00017415F3
:1001F00000017E6F000E0001751500017F6F7CC04D
:1002000077F07DC078F07EC079F07FC07AF0050E7F
:10021000D89000017737783779377A37E82EF8D7D2
:1002200077C07CF078C07DF079C07EF07AC07FF036
:100230007CC009FF00D0030E00017B19D8A459D05F
:1002400000017629D8A455D00F010D9772C077F020
:1002500073C078F074C079F075C07AF0040E06D0DF
:100260000001D8907A33793378337733E82EF8D792
:1002700077C07CF078C07DF079C07EF07AC07FF0E6
:1002800000017C5100017C6F7D6B7E6B7F6B7CC0BD
:100290000CFF070E0001721500017C6F000E0001BB
:1002A000731500017D6F000E0001741500017E6F53
:1002B000000E0001751500017F6F7CC077F07DC0D6
:1002C00078F07EC079F07FC07AF0050ED8900001FA
:1002D0007737783779377A37E82EF8D777C07CF0D8
:1002E00078C07DF079C07EF07AC07FF07CC00DFFD1
:1002F00000D0040E00017B19D8A459D00001762942
:10030000D8A455D00F01119772C077F073C078F060
:1003100074C079F075C07AF0040E06D00001D89050
:100320007A33793378337733E82EF8D777C07CF097
:1003300078C07DF079C07EF07AC07FF000017C51FA
:1003400000017C6F7D6B7E6B7F6B7CC010FF070EA6
:100350000001721500017C6F000E00017315000191
:100360007D6F000E0001741500017E6F000E00010C
:10037000751500017F6F7CC077F07DC078F07EC07E
:1003800079F07FC07AF0050ED89000017737783782
:1003900079377A37E82EF8D777C07CF078C07DF0CF
:1003A00079C07EF07AC07FF07CC011FF00D0050ECE
:1003B00000017B19D8A459D000017629D8A455D0C2
:1003C0000F01159772C077F073C078F074C079F0A0
:1003D00075C07AF0040E06D00001D8907A337933D4
:1003E00078337733E82EF8D777C07CF078C07DF08B
:1003F00079C07EF07AC07FF000017C5100017C6FF3
:100400007D6B7E6B7F6B7CC014FF070E0001721545
:1004100000017C6F000E0001731500017D6F000E5E
:100420000001741500017E6F000E000175150001BA
:100430007F6F7CC077F07DC078F07EC079F07FC0A0
:100440007AF0050ED89000017737783779377A3708
:10045000E82EF8D777C07CF078C07DF079C07EF0C8
:100460007AC07FF07CC015FF00D000017B510001F5
:10047000D8A48BD0F70E00017619D8A486D00F012E
:1004800001870001725100017C6F7D6B7E6B7F6B79
:100490007CC003FF000E0001721500017C6FFF0E8F
:1004A0000001731500017D6F000E0001741500013D
:1004B0007E6F000E0001751500017F6F7CC077F024
:1004C0007DC078F07EC079F07FC07AF078C077F098
:1004D00079C078F07AC079F000017A6B77C07CF04F
:1004E00078C07DF079C07EF07AC07FF07CC002FFDA
:1004F000000174A103D00F01018102D00F0101910D
:10050000000174A303D00F01018302D00F010193F6
:10051000000174A503D00F01018B02D00F01019BD4
:10052000000174A703D00F01018D02D00F01019DBE
:10053000000174A903D00F01018F03D00F01019FA7
:1005400000D072C077F073C078F074C079F075C0D5
:100550007AF0160E06D00001D8907A3379337833CA
:100560007733E82EF8D777C07CF078C07DF079C07B
:100570007EF07AC07FF000017C5100017C6F7D6BC2
:100580007E6B7F6B7CC000FF00D000017B05D8A490
:100590008BD0F70E00017619D8A486D00F010587FD
:1005A0000001725100017C6F7D6B7E6B7F6B7CC0A4
:1005B00007FF000E0001721500017C6FFF0E0001A5
:1005C000731500017D6F000E0001741500017E6F30
:1005D000000E0001751500017F6F7CC077F07DC0B3
:1005E00078F07EC079F07FC07AF078C077F079C07B
:1005F00078F07AC079F000017A6B77C07CF078C02F
:100600007DF079C07EF07AC07FF07CC006FF0001EB
:1006100074A103D00F01058102D00F0105910001E3
:1006200074A303D00F01058302D00F0105930001CD
:1006300074A503D00F01058B02D00F01059B0001AB
:1006400074A703D00F01058D02D00F01059D000195
:1006500074A903D00F01058F03D00F01059F00D0AF
:1006600072C077F073C078F074C079F075C07AF01A
:10067000160E06D00001D8907A3379337833773369
:10068000E82EF8D777C07CF078C07DF079C07EF096
:100690007AC07FF000017C5100017C6F7D6B7E6B26
:1006A0007F6B7CC004FF00D0020E00017B19D8A430
:1006B0008BD0F70E00017619D8A486D00F010987D8
:1006C0000001725100017C6F7D6B7E6B7F6B7CC083
:1006D0000BFF000E0001721500017C6FFF0E000180
:1006E000731500017D6F000E0001741500017E6F0F
:1006F000000E0001751500017F6F7CC077F07DC092
:1007000078F07EC079F07FC07AF078C077F079C059
:1007100078F07AC079F000017A6B77C07CF078C00D
:100720007DF079C07EF07AC07FF07CC00AFF0001C6
:1007300074A103D00F01098102D00F0109910001BA
:1007400074A303D00F01098302D00F0109930001A4
:1007500074A503D00F01098B02D00F01099B000182
:1007600074A703D00F01098D02D00F01099D00016C
:1007700074A903D00F01098F03D00F01099F00D086
:1007800072C077F073C078F074C079F075C07AF0F9
:10079000160E06D00001D8907A3379337833773348
:1007A000E82EF8D777C07CF078C07DF079C07EF075
:1007B0007AC07FF000017C5100017C6F7D6B7E6B05
:1007C0007F6B7CC008FF00D0030E00017B19D8A40A
:1007D0008BD0F70E00017619D8A486D00F010D87B3
:1007E0000001725100017C6F7D6B7E6B7F6B7CC062
:1007F0000FFF000E0001721500017C6FFF0E00015B
:10080000731500017D6F000E0001741500017E6FED
:10081000000E0001751500017F6F7CC077F07DC070
:1008200078F07EC079F07FC07AF078C077F079C038
:1008300078F07AC079F000017A6B77C07CF078C0EC
:100840007DF079C07EF07AC07FF07CC00EFF0001A1
:1008500074A103D00F010D8102D00F010D91000191
:1008600074A303D00F010D8302D00F010D9300017B
:1008700074A503D00F010D8B02D00F010D9B000159
:1008800074A703D00F010D8D02D00F010D9D000143
:1008900074A903D00F010D8F03D00F010D9F00D05D
:1008A00072C077F073C078F074C079F075C07AF0D8
:1008B000160E06D00001D8907A3379337833773327
:1008C000E82EF8D777C07CF078C07DF079C07EF054
:1008D0007AC07FF000017C5100017C6F7D6B7E6BE4
:1008E0007F6B7CC00CFF00D0040E00017B19D8A4E4
:1008F0008BD0F70E00017619D8A486D00F0111878E
:100900000001725100017C6F7D6B7E6B7F6B7CC040
:1009100013FF000E0001721500017C6FFF0E000135
:10092000731500017D6F000E0001741500017E6FCC
:10093000000E0001751500017F6F7CC077F07DC04F
:1009400078F07EC079F07FC07AF078C077F079C017
:1009500078F07AC079F000017A6B77C07CF078C0CB
:100960007DF079C07EF07AC07FF07CC012FF00017C
:1009700074A103D00F01118102D00F011191000168
:1009800074A303D00F01118302D00F011193000152
:1009900074A503D00F01118B02D00F01119B000130
:1009A00074A703D00F01118D02D00F01119D00011A
:1009B00074A903D00F01118F03D00F01119F00D034
:1009C00072C077F073C078F074C079F075C07AF0B7
:1009D000160E06D00001D8907A3379337833773306
:1009E000E82EF8D777C07CF078C07DF079C07EF033
:1009F0007AC07FF000017C5100017C6F7D6B7E6BC3
:100A00007F6B7CC010FF00D0050E00017B19D8A4BD
:100A10001200F70E00017619D8A412000F011587F5
:100A20000001725100017C6F7D6B7E6B7F6B7CC01F
:100A300017FF000E0001721500017C6FFF0E000110
:100A4000731500017D6F000E0001741500017E6FAB
:100A5000000E0001751500017F6F7CC077F07DC02E
:100A600078F07EC079F07FC07AF078C077F079C0F6
:100A700078F07AC079F000017A6B77C07CF078C0AA
:100A80007DF079C07EF07AC07FF07CC016FF000157
:100A900074A103D00F01158102D00F01159100013F
:100AA00074A303D00F01158302D00F011593000129
:100AB00074A503D00F01158B02D00F01159B000107
:100AC00074A703D00F01158D02D00F01159D0001F1
:100AD00074A903D00F01158F03D00F01159F00D00B
:100AE00072C077F073C078F074C079F075C07AF096
:100AF000160E06D00001D8907A33793378337733E5
:100B0000E82EF8D777C07CF078C07DF079C07EF011
:100B10007AC07FF000017C5100017C6F7D6B7E6BA1
:100B20007F6B7CC014FF12001200B70E01013C6FF6
:100B3000000E01013D6F00EF8AF0250E01015019F2
:100B4000D8B408D0B3C0D9FFB4C0DAFF50C1DFFFBA
:100B5000FCEF89F0000E01013F6F000E3E6FB5C043
:100B6000F6FFB6C0F7FF000EF86E0800F5502E0A2B
:100B7000D8A43FD001013F8D0001B54BB62B000E2C
:100B800001014B6F000E4A6F26D04AC172F04BC173
:100B900073F0000E0001756F0A0E746FD0ECAEF0AA
:100BA000B5C0F6FFB6C0F7FF000EF86E0800F550AE
:100BB00000017227000E00017323D00E0001722580
:100BC00001014A6FFF0E0001732101014B6F00010B
:100BD000B54BB62B00D0B5C0F6FFB6C0F7FF000E80
:100BE000F86E0800F55087ECAFF0D8A011D0CDD743
:100BF0000FD0000E01014B6F000E4A6F01013F89BB
:100C000007D013EF8AF001013F8517D0F9D315D033
:100C1000B5C0F6FFB6C0F7FF0001B54BB62B000E0E
:100C2000F86E0800F5CF50F101015051000AD8B418
:100C3000FAD3660AD8B4E7D7E3D3070E01013F150C
:100C4000D8B483D301013FA906D0000E01014B6F38
:100C5000060E4A6F00D03CC1D9FF3DC1DAFFDECF9E
:100C60004CF1DECF4DF1DECF4EF1DECF4FF1040E71
:100C700001013C27000E3D2301014FAF16D04CC1AE
:100C800090F04DC191F04EC192F04FC193F078ECCD
:100C9000AEF090C04CF191C04DF192C04EF193C0B6
:100CA0004FF1030E01013E1300D0000E0101456F0C
:100CB000000E446F01014C5101014D1101014E1113
:100CC00001014F11D8B490D001014E354F35820F3C
:100CD0000101446F0101456BFF0E452301014407EB
:100CE000D8A0450744C172F045C173F0000E000161
:100CF000756F030E746FD0ECAEF072C044F173C028
:100D000045F144C178F045C179F0000E00017B6FD8
:100D10000A0E7A6F4CECA9F078C044F179C045F125
:100D2000010145AF05D001014407D8A0450700D017
:100D300001014451000801EC98F090C046F191C0C7
:100D400047F192C048F193C049F146C181F047C1D3
:100D500082F048C183F049C184F04CC185F04DC197
:100D600086F04EC187F04FC188F07FECA6F081C0BD
:100D700046F182C047F183C048F184C049F146C1C1
:100D800072F047C173F048C174F049C175F0000EAC
:100D90000001766F000E776F800E786F3F0E796FCF
:100DA00059ECA8F00001D8B005D001014407D8A043
:100DB00045071AD046C172F047C173F048C174F0BC
:100DC00049C175F0000E0001766F000E776F200E9E
:100DD000786F410E796F59ECA8F00001D8A004D0CB
:100DE0000101444B452B00D001014BBF08D001014C
:100DF0004B5124E10D0E01014A5DD8B01FD04CC10A
:100E00009DF04DC19EF04EC19FF04FC1A0F0010179
:100E10004A516AEC9CF090C0A1F091C0A2F092C03F
:100E2000A3F093C0A4F069ECA0F09DC04CF19EC06B
:100E30004DF19FC04EF1A0C04FF100D0010145BF60
:100E400008D00101455130E10A0E0101445DD8B0DE
:100E50002BD001014C5101014D1101014E11010135
:100E60004F11D8B48CD04CC1A9F04DC1AAF04EC1DD
:100E7000ABF04FC1ACF0CCECA7F00001A9510001E0
:100E8000AA110001AB110001AC11D8A478D0010166
:100E900045BF75D00101455107E1020E0101445DD6
:100EA000D8B002D06CD000D046C172F047C173F008
:100EB00048C174F049C175F05F0E0001766F700E85
:100EC000776F890E786F400E796F59ECA8F00001AA
:100ED000D8B003D00101F70E02D00101F80E44276B
:100EE000FF0E452300D00101445101EC98F090C061
:100EF00046F191C047F192C048F193C049F14CC10D
:100F000072F04DC173F04EC174F04FC175F046C11F
:100F100076F047C177F048C178F049C179F03EECEE
:100F2000A4F072C040F173C041F174C042F175C0C9
:100F300043F11BD04CC172F04DC173F04EC174F03F
:100F40004FC175F046C176F047C177F048C178F0DF
:100F500049C179F06BECA3F072C040F173C041F16C
:100F600074C042F175C043F100D0000E01014C6F16
:100F7000000E4D6F000E4E6F000E4F6F3CD04CC1F7
:100F8000A9F04DC1AAF04EC1ABF04FC1ACF0CCEC12
:100F9000A7F0A9C040F1AAC041F1ABC042F1ACC07A
:100FA00043F14CC1A9F04DC1AAF04EC1ABF04FC105
:100FB000ACF040C17CF041C17DF042C17EF043C144
:100FC0007FF022ECAFF07CC0ADF07DC0AEF07EC013
:100FD000AFF07FC0B0F093ECADF0A9C04CF1AAC067
:100FE0004DF1ABC04EF1ACC04FF1000E0101456FA9
:100FF000000E446F00D0010E0101506F0A0E010176
:101000005019D8B425D001D023D001015051040D7E
:10101000B30EF324F66EFD0EF420F76EF86A000EA0
:10102000F8220900F5500101405D0900F550010169
:1010300041590900F550010142590900F5500101DB
:101040004359D8A005D001D003D00101502BD6D7E9
:10105000030E01013E150101366F000E01013F151F
:101060000101376F0101365101013711D8B458D051
:10107000B3C0D9FFB4C0DAFF2D0E50D00001B34B7E
:10108000B42B4ED040C172F041C173F042C174F034
:1010900043C175F001015051040DB30EF324F66EF7
:1010A000FD0EF420F76EF86A000EF8220900F5CF65
:1010B00076F00900F5CF77F00900F5CF78F00A0057
:1010C000F5CF79F0B4ECA9F072C046F173C047F1E6
:1010D00074C048F175C049F146C172F047C173F060
:1010E00048C174F049C175F00A0E0001766F000E18
:1010F000776F000E786F000E796F85ECABF072C0E1
:1011000046F173C047F174C048F175C049F101015F
:101110004651300FB3C0D9FFB4C0DAFFDF6EAED78F
:101120000101500701015029D8B410D0ABD70ED01F
:10113000B3C0D9FFB4C0DAFF300EDF6E0001B34B8D
:10114000B42B01014407D8A0450700D0010145BFD9
:1011500007D001014551ECE101014405D8B0E8D7C1
:1011600001014BBF0CD001014B5105E1090E0101FA
:101170004A5DD8A004D0080E0101506F03D04AC1C7
:1011800050F100D00101505101014A5F000E0101F0
:1011900050BFFF0E01014B5B010150510101D8B45A
:1011A0000AD0B3C0D9FFB4C0DAFF2E0EDF6E000143
:1011B000B34BB42B00D00101505101EC98F090C01A
:1011C00038F191C039F192C03AF193C03BF14CC172
:1011D00085F04DC186F04EC187F04FC188F038C10F
:1011E00081F039C182F03AC183F03BC184F07FECD9
:1011F000A6F081C0A9F082C0AAF083C0ABF084C081
:10120000ACF0CCECA7F0A9C040F1AAC041F1ABC052
:1012100042F1ACC043F17BD040C172F041C173F0E8
:1012200042C174F043C175F001015051040DB30E79
:10123000F324F66EFD0EF420F76EF86A000EF82225
:101240000900F5CF76F00900F5CF77F00900F5CF6A
:1012500078F00A00F5CF79F0B4ECA9F072C046F14D
:1012600073C047F174C048F175C049F146C172F0CE
:1012700047C173F048C174F049C175F00A0E00010E
:10128000766F000E776F000E786F000E796F85EC29
:10129000ABF072C046F173C047F174C048F175C03D
:1012A00049F101014651300FB3C0D9FFB4C0DAFF94
:1012B000DF6E0001B34BB42B40C172F041C173F03B
:1012C00042C174F043C175F001015051040DB30ED9
:1012D000F324F66EFD0EF420F76EF86A000EF82285
:1012E0000900F5CF76F00900F5CF77F00900F5CFCA
:1012F00078F00A00F5CF79F085ECABF072C040F1E0
:1013000073C041F174C042F175C043F100D00101D6
:10131000500701015029D8B410D07ED70ED0B3C0E9
:10132000D9FFB4C0DAFF300EDF6E0001B34BB42B2F
:1013300001014A07D8A04B0700D001014A51010121
:101340004B11D8B45DD0EBD75BD001014A510101FC
:101350004B11D8A40ED001014051010141110101EE
:10136000421101014311D8A404D001014A4B4B2B77
:1013700000D0800E010150BF7F0E0101366F0101C8
:101380004A510101505D01014B51800A010136595A
:10139000D8B003D04AC150F119D001014B51800A95
:1013A0000101366F0101505101014A5D800E0101BA
:1013B00050BF7F0E01013659D8B008D001015051FD
:1013C00001014A6F4B6B4ABF4B0700D0030E01016E
:1013D0003E150101366F000E01013F150101376F07
:1013E0000101365101013711D8B40AD0B3C0D9FF79
:1013F000B4C0DAFF2D0EDF6E0001B34BB42B00D06A
:10140000B5C0F6FFB6C0F7FF0001B54BB62B000E16
:10141000F86E0800F5CF50F101015051D8B403D057
:101420009DEF85F000D0B3C0D9FFB4C0DAFF000E45
:10143000DF6E1200120033ECABF0CF0E0001BB6F79
:10144000F70EBC6F330EBD6F3F0EBE6F000E000176
:10145000BF6F000EC06FA00EC16F410EC26F000EB5
:10146000226E81A202D04A8600D00CECB0F022ECB1
:10147000B0F017ECB0F04BB68BD0010E0001E86F66
:10148000000E0001E66F000EE56F5A0E0101266F97
:10149000000E216E79ECAAF0839C839A100EC8ECA2
:1014A000A5F0010ED5ECA8F06A0E0001836FFF0EC7
:1014B0000001846F07ECAFF0020ED5ECA8F0400EEF
:1014C0000001836FFF0E0001846F07ECAFF0030E85
:1014D000D5ECA8F0440E0001836FFE0E0001846F6E
:1014E00007ECAFF0040ED5ECA8F06A0E0001836F94
:1014F000FF0E0001846F07ECAFF046D0CBC051F176
:10150000CCC052F1CDC053F1CEC054F10101511FF6
:10151000521F531F541F512B000E52235323542389
:101520000550010151250101556F0650010152215D
:101530000101566F0750010153210101576F0850F7
:10154000010154210101586F010158510101571146
:101550000101561105E11E0E0101555DD8A00AD00A
:1015600005C0CBF006C0CCF007C0CDF008C0CEF06F
:10157000837E00D00CECB0F0000E0001796F0A0EF3
:10158000786FB3ECAEF000D04BA6B8D7839E4A8EEE
:1015900080A404D0000E0001EC6F0ED080B605D000
:1015A000010E0001EC6F010E04D0020E0001EC6F81
:1015B000000E0001E86F00D04AA2A9D04C984CA6BA
:1015C0004AB42FD04B9A010E0001EA6F000E0001C1
:1015D000BF6F000EC06FA00EC16F400EC26F00D073
:1015E000B2ECAFF00009D8B4FBD7010E01012E6FA9
:1015F0000C0E0001726F000E736F000E746F000E00
:10160000756F2E0E0001766F010E0001776F080EC8
:101610000001786FBC0E0001796F48EC8EF04C86AB
:1016200000D04AB44BAA2AD04BAC28D04CBA28D010
:10163000040E0001E96F020E0001EA6F00D0B2EC67
:10164000AFF00009D8B4FBD70E0E0001726F000E88
:10165000736F000E746F000E756F160E0001766FBB
:10166000010E0001776F080E0001786FBC0E0001BB
:10167000796F48EC8EF04C964C8A02D04C9A00D090
:10168000D7C051F1D8C052F1D9C053F1DAC054F1EA
:101690000101511F521F531F541F512B000E522383
:1016A000532354230550010151250101556F065064
:1016B000010152210101566F07500101532101011F
:1016C000576F0850010154210101586F0101585111
:1016D000010157110101561105E11E0E0101555D71
:1016E000D8A050D005C0D7F006C0D8F007C0D9F0B8
:1016F00008C0DAF04BBA4BAC07D0838C4AB402D0A6
:10170000837A40D0838A3ED0837C3AD03BD04C96BB
:101710004C9A4B944A944B9A4B9C839A839C4CB81A
:101720002ED0000E0001EA6F000E0001BF6F000E08
:10173000C06FA00EC16F410EC26F00D0B2ECAFF00F
:101740000009D8B4FBD7000E01012E6F0C0E00016A
:10175000726F000E736F000E746F000E756F2E0E99
:101760000001766F010E0001776F080E0001786F9F
:10177000BC0E0001796F48EC8EF04C8800D0839C41
:10178000839A00D057ECAEF00A0E0001E0612ED033
:10179000020E0001EA19D8A429D04A92000E0001D5
:1017A000EA6F000E0001E96F000E01012E6F00D0FC
:1017B000B2ECAFF00009D8B4FBD70C0E0001726F89
:1017C000000E736F000E746F000E756F2E0E000109
:1017D000766F010E0001776F080E0001786FBC0E66
:1017E0000001796F48EC8EF04A8000D0000E0001B5
:1017F000A16F000EA26F340EA36F430EA46FBBC087
:1018000085F0BCC086F0BDC087F0BEC088F0000186
:10181000DF51ECECAEF07CC081F07DC082F07EC088
:1018200083F07FC084F07FECA6F081C090F082C08E
:1018300091F083C092F084C093F078ECAEF090C049
:101840009DF091C09EF092C09FF093C0A0F069EC13
:10185000A0F09DC0A9F09EC0AAF09FC0ABF0A0C0B0
:10186000ACF0CCECA7F00001A9510101266F0001FA
:10187000EA05D8A45CD04BAE0FD00001EB5126C1D5
:1018800051F10101526B01015127000E522351C148
:10189000C7F052C1C8F01BD00001EB510101516FDC
:1018A000526B0101511F521F514B522B0101265106
:1018B0000101536F546B0101515101015327010183
:1018C00052510101542353C1C7F054C1C8F0000163
:1018D000000EC8BFFF0EC96FCA6F0001CABF12D089
:1018E0000001CABF0CD00001CA510001C91100019A
:1018F000C81108E1B50E0001C75DD8B003D0C7C05C
:1019000026F119D00001CABF0ED00001CA51000152
:10191000C9110001C81105E1B50E0001C75DD8A0CD
:1019200002D0B40E01D0000E0101266F04D04B9EF0
:10193000000E0001EB6F0001EC51D8B489D0840E89
:101940000001E06530D0BFC085F0C0C086F0C1C0E6
:1019500087F0C2C088F07E0E0001E02500017C6F98
:1019600000017D6BFF0E7D23EAECADF07CC081F0C1
:101970007DC082F07EC083F07FC084F07FECA6F053
:1019800081C0A9F082C0AAF083C0ABF084C0ACF0E3
:10199000CCECA7F0A9C0E5F0AAC0E6F0030E1FD07A
:1019A000000E226E1FD0000E0001E66F000EE56FE4
:1019B000420E0001E06105D0020E216E000E226E83
:1019C00000D0150E0001E06105D0010E216E000E61
:1019D000226E00D0060E0001E06104D0000E216EE0
:1019E000DFD700D0820E0001E06530D00001EA515F
:1019F000D8A42CD07E0E0001E0250001786F0001F4
:101A0000796BFF0E7923000E00017B6F030E7A6F56
:101A10004CECA9F000017851040F0001E76F0001C0
:101A2000E851010D090EF324D96E000EF420DA6E90
:101A30000001E751DE5CD8B037D0000E0001E66F40
:101A4000000EE56F000E216E4A8C2ED04A9C2CD0E1
:101A5000000E0001E66F000EE56F000E216E7E0E97
:101A60000001E0250001786F0001796BFF0E7923FA
:101A7000000E00017B6F030E7A6F4CECA9F00001A1
:101A80007851040F0001E76F0001E851010D090EC4
:101A9000F324D96E000EF420DA6EDE500001E75D0B
:101AA000D8B002D04A9C00D0CFC051F1D0C052F182
:101AB000D1C053F1D2C054F10101511F521F531F25
:101AC000541F512B000E5223532354230550010160
:101AD00051250101556F0650010152210101566F38
:101AE0000750010153210101576F08500101542192
:101AF0000101586F0101585101015711010156119F
:101B000005E1020E0101555DD8A004D0010E0001CF
:101B1000E96502D04AA01CD04AA00FD0010E0001F6
:101B2000E86F000E0001E66F000EE56F5A0E01012E
:101B3000266F000E216E4A9000D005C0CFF006C07F
:101B4000D0F007C0D1F008C0D2F079ECAAF000D0F4
:101B50000001DB51055C0001DC5106580001DD513C
:101B600007580001DE510858D8A05DD0D3C051F10C
:101B7000D4C052F1D5C053F1D6C054F10101511F68
:101B8000521F531F541F512B000E52235323542313
:101B90000550010151250101556F065001015221E7
:101BA0000101566F0750010153210101576F085081
:101BB000010154210101586F0101585101015711D0
:101BC0000101561105E10A0E0101555DD8A04DD461
:101BD00005C0D3F006C0D4F007C0D5F008C0D6F0D9
:101BE0004BA41ED04A8E0001E951D8A405D0FDECCB
:101BF000ACF00001E92B00D0020E0001E919D8A4D5
:101C000005D0CBECACF00001E92B00D0040E0001B4
:101C1000E919D8A42AD499ECACF00001E92B25D419
:101C20002FEC9FF022D4060E0001E919D8A41DD490
:101C30004BA223D04B922FECADF000D0B2ECAFF022
:101C4000E806D8A4FBD7000E216E060E0001726FC5
:101C5000000E736F000E746F000E756F210E000181
:101C6000766F000E0001776F080E0001786FBC0ED2
:101C70000001796F48EC8EF003D061ECADF000D03C
:101C8000000E0001E96F4B9435EF8AF05FEF00F032
:101C90000F0140B742D178C045FF000179AD03D0B4
:101CA0000F01458D02D00F01459D000179A77AD023
:101CB0000001725100017E6F7F6B806B816B7EC073
:101CC00044FF000E0001721500017E6FFF0E00013F
:101CD000731500017F6F000E000174150001806F05
:101CE000000E000175150001816F7EC07AF07FC083
:101CF0007BF080C07CF081C07DF07BC07AF07CC03E
:101D00007BF07DC07CF000017D6B7AC07EF07BC0F3
:101D10007FF07CC080F07DC081F07EC043FF000E6C
:101D20000F01426F0F014287000174A102D00F0121
:101D30004281000174A302D00F014283000174A507
:101D400002D00F01428B000174A702D00F01428D17
:101D5000000174A903D00F01428F00D072C07AF045
:101D600073C07BF074C07CF075C07DF0160E06D099
:101D70000001D8907D337C337B337A33E82EF8D75B
:101D80007AC07EF07BC07FF07CC080F07DC081F0A7
:101D900000017E5100017E6F7F6B806B816B7EC086
:101DA00041FF5AD00F01429772C07AF073C07BF0A6
:101DB00074C07CF075C07DF0040E06D00001D89090
:101DC0007D337C337B337A33E82EF8D77AC07EF0CC
:101DD0007BC07FF07CC080F07DC081F000017E512F
:101DE00000017E6F7F6B806B816B7EC041FF070EB1
:101DF0000001721500017E6F000E000173150001D5
:101E00007F6F000E000174150001806F000E00014D
:101E100075150001816F7EC07AF07FC07BF080C0B5
:101E20007CF081C07DF0050ED89000017A377B37B9
:101E30007C377D37E82EF8D77AC07EF07BC07FF004
:101E40007CC080F07DC081F00F0142511F0B0F015B
:101E5000426F7EC042FF00D0000179A103D00F0184
:101E6000408102D00F014091000179A303D00F01FE
:101E7000408303D00F01409300D076C0D9FF77C0D4
:101E8000DAFFDF500F01466F000120EE01F07651BE
:101E9000D9267751DA22DF500F01476F000120EE7B
:101EA00002F07651D9267751DA22DF500F01486FC0
:101EB000000120EE03F07651D9267751DA22DF5067
:101EC0000F01496F000120EE04F07651D9267751B9
:101ED000DA22DF500F014A6F000120EE05F0765143
:101EE000D9267751DA22DF500F014B6F000120EE27
:101EF00006F07651D9267751DA22DF500F014C6F68
:101F0000000120EE07F07651D9267751DA22DF5012
:101F10000F014D6F0F01408712000F0130B742D102
:101F200078C035FF000179AD03D00F01358D02D0A7
:101F30000F01359D000179A77AD00001725100018F
:101F40007E6F7F6B806B816B7EC034FF000E000163
:101F5000721500017E6FFF0E0001731500017F6F87
:101F6000000E000174150001806F000E0001751550
:101F70000001816F7EC07AF07FC07BF080C07CF072
:101F800081C07DF07BC07AF07CC07BF07DC07CF0AE
:101F900000017D6B7AC07EF07BC07FF07CC080F05A
:101FA0007DC081F07EC033FF000E0F01326F0F0144
:101FB0003287000174A102D00F013281000174A3A5
:101FC00002D00F013283000174A502D00F01328BC1
:101FD000000174A702D00F01328D000174A903D053
:101FE0000F01328F00D072C07AF073C07BF074C0E2
:101FF0007CF075C07DF0160E06D00001D8907D33C0
:102000007C337B337A33E82EF8D77AC07EF07BC0FE
:102010007FF07CC080F07DC081F000017E51000126
:102020007E6F7F6B806B816B7EC031FF5AD00F015A
:10203000329772C07AF073C07BF074C07CF075C0C8
:102040007DF0040E06D00001D8907D337C337B33C5
:102050007A33E82EF8D77AC07EF07BC07FF07CC060
:1020600080F07DC081F000017E5100017E6F7F6BAA
:10207000806B816B7EC031FF070E0001721500017D
:102080007E6F000E0001731500017F6F000E0001CE
:1020900074150001806F000E000175150001816F3D
:1020A0007EC07AF07FC07BF080C07CF081C07DF084
:1020B000050ED89000017A377B377C377D37E82EC4
:1020C000F8D77AC07EF07BC07FF07CC080F07DC006
:1020D00081F00F0132511F0B0F01326F7EC032FFB2
:1020E00000D0000179A103D00F01308102D00F018F
:1020F0003091000179A303D00F01308303D00F0189
:10210000309300D076C0D9FF77C0DAFFDF500F01DF
:10211000366F000120EE01F07651D9267751DA2290
:10212000DF500F01376F000120EE02F07651D92603
:102130007751DA22DF500F01386F000120EE03F0F3
:102140007651D9267751DA22DF500F01396F00011D
:1021500020EE04F07651D9267751DA22DF500F01B4
:102160003A6F000120EE05F07651D9267751DA2238
:10217000DF500F013B6F000120EE06F07651D926AB
:102180007751DA22DF500F013C6F000120EE07F09B
:102190007651D9267751DA22DF500F013D6F0F01BA
:1021A000308712000F0120B7120078C025FF000110
:1021B00079AD03D00F01258D02D00F01259D0001BF
:1021C00079A77AD00001725100017E6F7F6B806B1E
:1021D000816B7EC024FF000E0001721500017E6F2E
:1021E000FF0E0001731500017F6F000E00017415D2
:1021F0000001806F000E000175150001816F7EC027
:102200007AF07FC07BF080C07CF081C07DF07BC025
:102210007AF07CC07BF07DC07CF000017D6B7AC0E1
:102220007EF07BC07FF07CC080F07DC081F07EC0FE
:1022300023FF000E0F01226F0F012287000174A1FE
:1022400002D00F012281000174A302D00F0122836A
:10225000000174A502D00F01228B000174A702D0E7
:102260000F01228D000174A903D00F01228F00D02D
:1022700072C07AF073C07BF074C07CF075C07DF0E2
:10228000160E06D00001D8907D337C337B337A3331
:10229000E82EF8D77AC07EF07BC07FF07CC080F05B
:1022A0007DC081F000017E5100017E6F7F6B806BED
:1022B000816B7EC021FF5AD00F01229772C07AF045
:1022C00073C07BF074C07CF075C07DF0040E06D046
:1022D0000001D8907D337C337B337A33E82EF8D7F6
:1022E0007AC07EF07BC07FF07CC080F07DC081F042
:1022F00000017E5100017E6F7F6B806B816B7EC021
:1023000021FF070E0001721500017E6F000E000113
:10231000731500017F6F000E000174150001806FBE
:10232000000E000175150001816F7EC07AF07FC03C
:102330007BF080C07CF081C07DF0050ED89000015C
:102340007A377B377C377D37E82EF8D77AC07EF036
:102350007BC07FF07CC080F07DC081F00F012251F6
:102360001F0B0F01226F7EC022FF00D0000179A158
:1023700003D00F01208102D00F012091000179A329
:1023800003D00F01208303D00F01209300D076C02B
:10239000D9FF77C0DAFFDF500F01266F000120EE72
:1023A00001F07651D9267751DA22DF500F01276FDD
:1023B000000120EE02F07651D9267751DA22DF5063
:1023C0000F01286F000120EE03F07651D9267751D6
:1023D000DA22DF500F01296F000120EE04F0765160
:1023E000D9267751DA22DF500F012A6F000120EE43
:1023F00005F07651D9267751DA22DF500F012B6F85
:10240000000120EE06F07651D9267751DA22DF500E
:102410000F012C6F000120EE07F07651D92677517D
:10242000DA22DF500F012D6F0F01208712001200FA
:102430000F0140B718D140C045FF41AC03D00F0198
:10244000458D02D00F01459D41A667D03A50466E9A
:10245000476A486A496A46C044FF000E3A14466E0D
:10246000FF0E3B14476E000E3C14486E000E3D14E8
:10247000496E46C042F047C043F048C044F049C0EE
:1024800045F043C042F044C043F045C044F0456AC3
:1024900042C046F043C047F044C048F045C049F050
:1024A00046C043FF000E0F01426F0F0142873CA060
:1024B00002D00F0142813CA202D00F0142833CA412
:1024C00002D00F01428B3CA602D00F01428D3CA8E6
:1024D00003D00F01428F00D03AC042F03BC043F01E
:1024E0003CC044F03DC045F0160E05D0D8904532B2
:1024F000443243324232E82EF9D742C046F043C05C
:1025000047F044C048F045C049F04650466E476A1F
:10251000486A496A46C041FF4ED00F0142973AC00F
:1025200042F03BC043F03CC044F03DC045F0040ED7
:1025300005D0D8904532443243324232E82EF9D7A2
:1025400042C046F043C047F044C048F045C049F09F
:102550004650466E476A486A496A46C041FF070EC0
:102560003A14466E000E3B14476E000E3C14486E43
:10257000000E3D14496E46C042F047C043F048C0CB
:1025800044F049C045F0050ED890423643364436F3
:102590004536E82EF9D742C046F043C047F044C064
:1025A00048F045C049F00F0142511F0B0F01426F27
:1025B00046C042FF00D041A003D00F01408102D0AD
:1025C0000F01409141A203D00F01408303D00F01BE
:1025D000409300D03EC0D9FF3FC0DAFFDF500F016B
:1025E000466F20EE01F03E50D9263F50DA22DF50F0
:1025F0000F01476F20EE02F03E50D9263F50DA22FD
:10260000DF500F01486F20EE03F03E50D9263F50B7
:10261000DA22DF500F01496F20EE04F03E50D92638
:102620003F50DA22DF500F014A6F20EE05F03E5096
:10263000D9263F50DA22DF500F014B6F20EE06F013
:102640003E50D9263F50DA22DF500F014C6F20EE6A
:1026500007F03E50D9263F50DA22DF500F014D6F70
:102660000F01408712000F0130B718D140C035FF6D
:1026700041AC03D00F01358D02D00F01359D41A62D
:1026800067D03A50466E476A486A496A46C034FF86
:10269000000E3A14466EFF0E3B14476E000E3C14BB
:1026A000486E000E3D14496E46C042F047C043F0EC
:1026B00048C044F049C045F043C042F044C043F034
:1026C00045C044F0456A42C046F043C047F044C0AC
:1026D00048F045C049F046C033FF000E0F01326F8D
:1026E0000F0132873CA002D00F0132813CA202D000
:1026F0000F0132833CA402D00F01328B3CA602D0E2
:102700000F01328D3CA803D00F01328F00D03AC0A8
:1027100042F03BC043F03CC044F03DC045F0160ED3
:1027200005D0D8904532443243324232E82EF9D7B0
:1027300042C046F043C047F044C048F045C049F0AD
:102740004650466E476A486A496A46C031FF4ED0D5
:102750000F0132973AC042F03BC043F03CC044F016
:102760003DC045F0040E05D0D89045324432433286
:102770004232E82EF9D742C046F043C047F044C089
:1027800048F045C049F04650466E476A486A496A73
:1027900046C031FF070E3A14466E000E3B14476EDA
:1027A000000E3C14486E000E3D14496E46C042F0C7
:1027B00047C043F048C044F049C045F0050ED890EA
:1027C0004236433644364536E82EF9D742C046F005
:1027D00043C047F044C048F045C049F00F013251B2
:1027E0001F0B0F01326F46C032FF00D041A003D053
:1027F0000F01308102D00F01309141A203D00F01AF
:10280000308303D00F01309300D03EC0D9FF3FC0CA
:10281000DAFFDF500F01366F20EE01F03E50D9266F
:102820003F50DA22DF500F01376F20EE02F03E50AA
:10283000D9263F50DA22DF500F01386F20EE03F027
:102840003E50D9263F50DA22DF500F01396F20EE7B
:1028500004F03E50D9263F50DA22DF500F013A6F84
:1028600020EE05F03E50D9263F50DA22DF500F010E
:102870003B6F20EE06F03E50D9263F50DA22DF5063
:102880000F013C6F20EE07F03E50D9263F50DA2270
:10289000DF500F013D6F0F01308712000F0120B78D
:1028A000120040C025FF41AC03D00F01258D02D09E
:1028B0000F01259D41A667D03A50466E476A486A87
:1028C000496A46C024FF000E3A14466EFF0E3B14C0
:1028D000476E000E3C14486E000E3D14496E46C013
:1028E00042F047C043F048C044F049C045F043C0FF
:1028F00042F044C043F045C044F0456A42C046F04F
:1029000043C047F044C048F045C049F046C023FFEB
:10291000000E0F01226F0F0122873CA002D00F0191
:1029200022813CA202D00F0122833CA402D00F01DD
:10293000228B3CA602D00F01228D3CA803D00F01B0
:10294000228F00D03AC042F03BC043F03CC044F07C
:102950003DC045F0160E05D0D89045324432433282
:102960004232E82EF9D742C046F043C047F044C097
:1029700048F045C049F04650466E476A486A496A81
:1029800046C021FF4ED00F0122973AC042F03BC013
:1029900043F03CC044F03DC045F0040E05D0D89053
:1029A0004532443243324232E82EF9D742C046F033
:1029B00043C047F044C048F045C049F04650466E19
:1029C000476A486A496A46C021FF070E3A14466EB4
:1029D000000E3B14476E000E3C14486E000E3D1472
:1029E000496E46C042F047C043F048C044F049C079
:1029F00045F0050ED8904236433644364536E82E2B
:102A0000F9D742C046F043C047F044C048F045C043
:102A100049F00F0122511F0B0F01226F46C022FF08
:102A200000D041A003D00F01208102D00F012091DE
:102A300041A203D00F01208303D00F01209300D0C7
:102A40003EC0D9FF3FC0DAFFDF500F01266F20EEF6
:102A500001F03E50D9263F50DA22DF500F01276F98
:102A600020EE02F03E50D9263F50DA22DF500F010F
:102A7000286F20EE03F03E50D9263F50DA22DF5077
:102A80000F01296F20EE04F03E50D9263F50DA2284
:102A9000DF500F012A6F20EE05F03E50D9263F503F
:102AA000DA22DF500F012B6F20EE06F03E50D926C0
:102AB0003F50DA22DF500F012C6F20EE07F03E501E
:102AC000D9263F50DA22DF500F012D6F0F012087EA
:102AD00012001200000E446E74AE02D0448000D08A
:102AE00074AC02D0448200D00F0150AF49D13AC03B
:102AF000D9FF3BC0DAFFDE6ADE6ADE6ADD6A20EEFD
:102B000004F03A50D9263B50DA2256CFDFFF20EEB0
:102B100005F03A50D9263B50DA2257CFDFFF20EE9E
:102B200006F03A50D9263B50DA2258CFDFFF20EE8C
:102B300007F03A50D9263B50DA2259CFDFFF20EE7A
:102B400008F03A50D9263B50DA225ACFDFFF20EE68
:102B500009F03A50D9263B50DA225BCFDFFF20EE56
:102B60000AF03A50D9263B50DA225CCFDFFF20EE44
:102B70000BF03A50D9263B50DA225DCFDFFF20EE32
:102B80000EF03A50D9263B50DA220F0155AD02D053
:102B9000010E01D0000EDF6E20EE0DF03A50D92666
:102BA0003B50DA220F0155510F0BDF6E20EE0CF077
:102BB0003A50D9263B50DA220F0152A702D0010E1B
:102BC00001D0000EDF6E0F0152B744D051CF3CF060
:102BD0003D6A3E6A3F6A030ED8903C363D363E362B
:102BE0003F36E82EF9D73AC0D9FF3BC0DAFF3CC0E8
:102BF000DEFF3DC0DEFF3EC0DEFF3FC0DEFF0F0157
:102C00005239E842070B070B456E3AC0D9FF3BC06B
:102C1000DAFFDECF3CF0DECF3DF0DECF3EF0DECFA0
:102C20003FF045503C24406E000E3D20416E000EAA
:102C30003E20426E000E3F20436E3AC0D9FF3BC09B
:102C4000DAFF40C0DEFF41C0DEFF42C0DEFF43C00E
:102C5000DEFF93D054CF3CF03D6A3E6A3F6A3AC0F3
:102C6000D9FF3BC0DAFF3CC0DEFF3DC0DEFF3EC007
:102C7000DEFF3FC0DEFF53CF3CF03D6A3E6A3F6A55
:102C80003EC03FF03DC03EF03CC03DF03C6A3AC023
:102C9000D9FF3BC0DAFF3C50DE263D50DE223E50DD
:102CA000DE223F50DE220F0152A10DD03AC0D9FFE3
:102CB0003BC0DAFF000EDE12000EDE12010EDE1245
:102CC000000EDE1200D00F0152A30DD03AC0D9FF82
:102CD0003BC0DAFF000EDE12000EDE12020EDE1224
:102CE000000EDE1200D00F0152AB0DD03AC0D9FF5A
:102CF0003BC0DAFF000EDE12000EDE12040EDE1202
:102D0000000EDE1200D00F0152AD0DD03AC0D9FF37
:102D10003BC0DAFF000EDE12000EDE12080EDE12DD
:102D2000000EDE1200D00F0152AF0DD03AC0D9FF15
:102D30003BC0DAFF000EDE12000EDE12100EDE12B5
:102D4000000EDE1200D051CF3CF03D6A3E6A3F6A71
:102D5000150ED8903C363D363E363F36E82EF9D734
:102D60003AC0D9FF3BC0DAFF3C50DE123D50DE12C4
:102D70003E50DE123F50DE1200D00F01509F120075
:102D800060AE12003AC0D9FF3BC0DAFFDE6ADE6AED
:102D9000DE6ADD6A20EE04F03A50D9263B50DA2292
:102DA00066CFDFFF20EE05F03A50D9263B50DA22FD
:102DB00067CFDFFF20EE06F03A50D9263B50DA22EB
:102DC00068CFDFFF20EE07F03A50D9263B50DA22D9
:102DD00069CFDFFF20EE08F03A50D9263B50DA22C7
:102DE0006ACFDFFF20EE09F03A50D9263B50DA22B5
:102DF0006BCFDFFF20EE0AF03A50D9263B50DA22A3
:102E00006CCFDFFF20EE0BF03A50D9263B50DA2290
:102E10006DCFDFFF20EE0EF03A50D9263B50DA227C
:102E200065AC02D0010E01D0000EDF6E20EE0DF079
:102E30003A50D9263B50DA2265500F0BDF6E20EE58
:102E40000CF03A50D9263B50DA2262A602D0010E8D
:102E500001D0000EDF6E62B643D061CF3CF03D6A18
:102E60003E6A3F6A030ED8903C363D363E363F36CA
:102E7000E82EF9D73AC0D9FF3BC0DAFF3CC0DEFFED
:102E80003DC0DEFF3EC0DEFF3FC0DEFF6238E842ED
:102E9000070B070B456E3AC0D9FF3BC0DAFFDECF08
:102EA0003CF0DECF3DF0DECF3EF0DECF3FF04550D0
:102EB0003C24406E000E3D20416E000E3E20426ECE
:102EC000000E3F20436E3AC0D9FF3BC0DAFF40C03E
:102ED000DEFF41C0DEFF42C0DEFF43C0DEFF8ED01A
:102EE00064CF3CF03D6A3E6A3F6A3AC0D9FF3BC0BE
:102EF000DAFF3CC0DEFF3DC0DEFF3EC0DEFF3FC06C
:102F0000DEFF63CF3CF03D6A3E6A3F6A3EC03FF061
:102F10003DC03EF03CC03DF03C6A3AC0D9FF3BC0EA
:102F2000DAFF3C50DE263D50DE223E50DE223F508E
:102F3000DE2262A00DD03AC0D9FF3BC0DAFF000EFE
:102F4000DE12000EDE12010EDE12000EDE1200D0C6
:102F500062A20DD03AC0D9FF3BC0DAFF000EDE12EC
:102F6000000EDE12020EDE12000EDE1200D062AA89
:102F70000DD03AC0D9FF3BC0DAFF000EDE12000EC2
:102F8000DE12040EDE12000EDE1200D062AC0DD096
:102F90003AC0D9FF3BC0DAFF000EDE12000EDE128F
:102FA000080EDE12000EDE1200D062AE0DD03AC066
:102FB000D9FF3BC0DAFF000EDE12000EDE12100E4B
:102FC000DE12000EDE1200D061CF3CF03D6A3E6A98
:102FD0003F6A150ED8903C363D363E363F36E82ED9
:102FE000F9D73AC0D9FF3BC0DAFF3C50DE123D5062
:102FF000DE123E50DE123F50DE1200D0609E120004
:1030000012000001986F000198AF48D10001986D3F
:1030100000019851800A120FD8A0BCD0000E000108
:103020007B6F0A0E7A6F000E0001756F640E746F6D
:10303000000198510001726F736B72BF7307D9EC76
:10304000AAF072C078F073C079F04CECA9F00001DE
:10305000D890783779370001D89078377937240EAF
:1030600000017827000E000179234B0E000178251E
:10307000F66EFD0E00017921F76EF86A000EF82257
:103080000900F5CF85F00900F5CF86F00900F5CFEE
:1030900087F00A00F5CF88F0000E00017B6F640E08
:1030A0007A6F000198510001786F796B78BF7907CA
:1030B0004CECA9F00001D890783779370001D8900E
:1030C00078377937480E00017827000E0001792300
:1030D0004B0E00017825F66EFD0E00017921F76E8A
:1030E000F86A000EF8220900F5CF81F00900F5CF4B
:1030F00082F00900F5CF83F00A00F5CF84F07FEC71
:10310000A6F081C094F082C095F083C096F084C090
:1031100097F094C081F095C082F096C083F097C07C
:1031200084F0000E0001756F0A0E746F0001985153
:103130000001726F736B72BF7307D9ECAAF00001C4
:10314000D890723773370001D890723773374B0EAF
:1031500000017225F66EFD0E00017321F76EF86A0C
:10316000000EF8220900F5CF85F00900F5CF86F0B2
:103170000900F5CF87F00A00F5CF88F07FECA6F0C4
:1031800081C090F082C091F083C092F084C093F02F
:1031900012006BD000019851800A750FD8A065D03D
:1031A000000E00017B6F0A0E7A6F0001985100013A
:1031B000786F796B78BF79074CECA9F00001D89053
:1031C000783779370001D89078377937240E0001A5
:1031D0007827000E000179234B0E00017825F66E4A
:1031E000FD0E00017921F76EF86A000EF822090041
:1031F000F5CF81F00900F5CF82F00900F5CF83F01B
:103200000A00F5CF84F0000E0001756F0A0E746F8E
:10321000000198510001726F736B72BF7307D9EC94
:10322000AAF00001D890723773370001D890723736
:1032300073374B0E00017225F66EFD0E00017321EF
:10324000F76EF86A000EF8220900F5CF85F0090044
:10325000F5CF86F00900F5CF87F00A00F5CF88F0AA
:103260007FECA6F08DD7120000D000019851040D1C
:103270004B0EF324F66EFD0EF420F76EF86A000E86
:10328000F8220900F5CF90F00900F5CF91F0090080
:10329000F5CF92F00A00F5CF93F01200000198519B
:1032A000800A120FD8A0BCD0000E00017B6F0A0E5E
:1032B0007A6F000E0001756F640E746F00019851F3
:1032C0000001726F736B72BF7307D9ECAAF072C002
:1032D00078F073C079F04CECA9F00001D890783701
:1032E00079370001D89078377937240E0001782794
:1032F000000E000179237F0E00017825F66EFD0E89
:1033000000017921F76EF86A000EF8220900F5CF66
:1033100085F00900F5CF86F00900F5CF87F00A00A7
:10332000F5CF88F0000E00017B6F640E7A6F00010C
:1033300098510001786F796B78BF79074CECA9F050
:103340000001D890783779370001D89078377937ED
:10335000480E00017827000E000179237F0E00013E
:103360007825F66EFD0E00017921F76EF86A000EE1
:10337000F8220900F5CF81F00900F5CF82F00900AD
:10338000F5CF83F00A00F5CF84F07FECA6F081C082
:1033900094F082C095F083C096F084C097F094C0FA
:1033A00081F095C082F096C083F097C084F0000E43
:1033B0000001756F0A0E746F000198510001726F61
:1033C000736B72BF7307D9ECAAF00001D890723703
:1033D00073370001D890723773377F0E0001722562
:1033E000F66EFD0E00017321F76EF86A000EF822EA
:1033F0000900F5CF85F00900F5CF86F00900F5CF7B
:1034000087F00A00F5CF88F07FECA6F081C090F03D
:1034100082C091F083C092F084C093F012006BD010
:1034200000019851800A750FD8A065D0000E0001E8
:103430007B6F0A0E7A6F000198510001786F796BEB
:1034400078BF79074CECA9F00001D890783779372C
:103450000001D89078377937240E00017827000EC4
:10346000000179237F0E00017825F66EFD0E000124
:103470007921F76EF86A000EF8220900F5CF81F085
:103480000900F5CF82F00900F5CF83F00A00F5CFEF
:1034900084F0000E0001756F0A0E746F00019851E0
:1034A0000001726F736B72BF7307D9ECAAF0000151
:1034B000D890723773370001D890723773377F0E08
:1034C00000017225F66EFD0E00017321F76EF86A99
:1034D000000EF8220900F5CF85F00900F5CF86F03F
:1034E0000900F5CF87F00A00F5CF88F07FECA6F051
:1034F0008DD7120000D000019851040D7F0EF324E7
:10350000F66EFD0EF420F76EF86A000EF822090040
:10351000F5CF90F00900F5CF91F00900F5CF92F0CA
:103520000A00F5CF93F01200120000017B6F00013A
:103530007B05D8A457D000017629D8A453D072C0F7
:1035400077F073C078F074C079F075C07AF0040E2B
:1035500006D00001D8907A33793378337733E82E68
:10356000F8D777C07CF078C07DF079C07EF07AC063
:103570007FF000017C5100017C6F7D6B7E6B7F6B67
:103580007CC018FF070E0001721500017C6F000E51
:103590000001731500017D6F000E0001741500011C
:1035A0007E6F000E0001751500017F6F7CC077F003
:1035B0007DC078F07EC079F07FC07AF0050ED8909B
:1035C00000017737783779377A37E82EF8D777C020
:1035D0007CF078C07DF079C07EF07AC07FF07CC04E
:1035E00019FF00D0020E00017B19D8A457D00001AA
:1035F0007629D8A453D072C077F073C078F074C025
:1036000079F075C07AF0040E06D00001D8907A33B4
:10361000793378337733E82EF8D777C07CF078C0E9
:103620007DF079C07EF07AC07FF000017C5100010E
:103630007C6F7D6B7E6B7F6B7CC01CFF070E000177
:10364000721500017C6F000E0001731500017D6F83
:10365000000E0001741500017E6F000E000175154B
:1036600000017F6F7CC077F07DC078F07EC079F07C
:103670007FC07AF0050ED890000177377837793718
:103680007A37E82EF8D777C07CF078C07DF079C023
:103690007EF07AC07FF07CC01DFF00D000017B056A
:1036A000D8A489D0F70E00017619D8A484D00001DF
:1036B000725100017C6F7D6B7E6B7F6B7CC01BFF4A
:1036C000000E0001721500017C6FFF0E00017315E2
:1036D00000017D6F000E0001741500017E6F000E69
:1036E0000001751500017F6F7CC077F07DC078F018
:1036F0007EC079F07FC07AF078C077F079C078F03A
:103700007AC079F000017A6B77C07CF078C07DF0E8
:1037100079C07EF07AC07FF07CC01AFF000174A1EE
:1037200003D00F01198102D00F011991000174A378
:1037300003D00F01198302D00F011993000174A562
:1037400003D00F01198B02D00F01199B000174A740
:1037500003D00F01198D02D00F01199D000174A92A
:1037600003D00F01198F03D00F01199F00D072C031
:1037700077F073C078F074C079F075C07AF0160EE7
:1037800006D00001D8907A33793378337733E82E36
:10379000F8D777C07CF078C07DF079C07EF07AC031
:1037A0007FF000017C5100017C6F7D6B7E6B7F6B35
:1037B0007CC018FF00D0020E00017B19D8A41200B3
:1037C000F70E00017619D8A4120000017251000111
:1037D0007C6F7D6B7E6B7F6B7CC01FFF000E0001DA
:1037E000721500017C6FFF0E0001731500017D6FE3
:1037F000000E0001741500017E6F000E00017515AA
:1038000000017F6F7CC077F07DC078F07EC079F0DA
:103810007FC07AF078C077F079C078F07AC079F01C
:1038200000017A6B77C07CF078C07DF079C07EF0C3
:103830007AC07FF07CC01EFF000174A103D00F018D
:103840001D8102D00F011D91000174A303D00F014F
:103850001D8302D00F011D93000174A503D00F0139
:103860001D8B02D00F011D9B000174A703D00F0117
:103870001D8D02D00F011D9D000174A903D00F0101
:103880001D8F03D00F011D9F00D072C077F073C051
:1038900078F074C079F075C07AF0160E06D0000189
:1038A000D8907A33793378337733E82EF8D777C0E6
:1038B0007CF078C07DF079C07EF07AC07FF00001A6
:1038C0007C5100017C6F7D6B7E6B7F6B7CC01CFF2D
:1038D0001200120000019C6F6D0E00019C65CED09D
:1038E000000E00017B6F0A0E7A6F000E0001756FEB
:1038F000640E746F9CC072F00001736BD9ECAAF077
:1039000072C078F073C079F04CECA9F00001D89047
:10391000783779370001D89078377937240E00014D
:103920007827000E000179234B0E00017825F66EF2
:10393000FD0E00017921F76EF86A000EF8220900E9
:10394000F5CF85F00900F5CF86F00900F5CF87F0B7
:103950000A00F5CF88F0000E00017B6F640E7A6FCD
:103960009CC078F00001796B4CECA9F00001D89074
:10397000783779370001D89078377937480E0001C9
:103980007827000E000179234B0E00017825F66E92
:10399000FD0E00017921F76EF86A000EF822090089
:1039A000F5CF81F00900F5CF82F00900F5CF83F063
:1039B0000A00F5CF84F07FECA6F081C098F082C0B9
:1039C00099F083C09AF084C09BF0000E0001756FDF
:1039D0000A0E746F9CC072F00001736BD9ECAAF0F0
:1039E0000001D890723773370001D890723773375F
:1039F0004B0E00017225F66EFD0E00017321F76E6D
:103A0000F86A000EF8220900F5CF85F00900F5CF1D
:103A100086F00900F5CF87F00A00F5CF88F098C04E
:103A200081F099C082F09AC083F09BC084F07FEC53
:103A3000A6F081C094F082C095F083C096F084C057
:103A400097F094C081F095C082F096C083F097C043
:103A500084F0000E0001856F000E866F000E876FE8
:103A60003F0E886F7FECA6F081C090F082C091F08D
:103A700083C092F084C093F012007ED00A0E000141
:103A80009C657AD0000E0001756F0A0E746F9CC0A1
:103A900072F00001736BD9ECAAF00001D890723774
:103AA00073370001D890723773374B0E00017225BF
:103AB000F66EFD0E00017321F76EF86A000EF82213
:103AC0000900F5CF85F00900F5CF86F00900F5CFA4
:103AD00087F00A00F5CF88F0000E00017B6F0A0E18
:103AE0007A6F9CC078F00001796B4CECA9F0000172
:103AF000D890783779370001D89078377937240E05
:103B000000017827000E000179234B0E0001782573
:103B1000F66EFD0E00017921F76EF86A000EF822AC
:103B20000900F5CF81F00900F5CF82F00900F5CF4B
:103B300083F00A00F5CF84F07FECA6F081C098F006
:103B400082C099F083C09AF084C09BF098C081F045
:103B500099C082F09AC083F09BC084F0000E0001EF
:103B6000856F000E866F000E876F3F0E886F7FECAB
:103B7000A6F07AD7120000D000019C51040D4B0E24
:103B8000F324F66EFD0EF420F76EF86A000EF822AC
:103B90000900F5CF81F00900F5CF82F00900F5CFDB
:103BA00083F00A00F5CF84F0000E0001856F000E4F
:103BB000866F000E876F3F0E886F7FECA6F081C086
:103BC00090F082C091F083C092F084C093F0120014
:103BD0001200EACF67F0E1CF68F0E2CF69F0D9CF09
:103BE0006AF0DACF6BF0F3CF6CF0F4CF6DF0F6CF74
:103BF0006EF0F7CF6FF0F8CF70F0F5CF71F0A4B2A0
:103C000002D0A4A00FD100ECB0F00009D8B407D1C5
:103C1000120E3A6E000E3B6E6AEC95F020B002D0A8
:103C20004A9801D04A8812C001F013C002F014C0B3
:103C300003F015C004F0080E011802100310041060
:103C4000D8A428D017C00BF00C6A0B500001606F8D
:103C500016500B6E60C00CF019C00DF00E6A0D50BE
:103C60000001606F18500D6E60C00EF00B500D24F7
:103C70000001606F0C500E200001616FD8900001B0
:103C800061310001626F000160310001E16F62C0CB
:103C9000E2F000D00D0E0118021003100410D8A499
:103CA00049D01604D8A408D04B8A4B9C4A944B8424
:103CB000000E0001E96F00D0020E1618D8A407D03C
:103CC0004B8A4B8C4A80020E0001E96F00D0030E34
:103CD0001618D8A415D0060E0001E96F4A92C80E36
:103CE00005240001DB6F000E06200001DC6F000ED2
:103CF00007200001DD6F000E08200001DE6F00D0FC
:103D0000040E1618D8A416D0060E0001E96F4B82D7
:103D10004A92C80E05240001DB6F000E0620000148
:103D2000DC6F000E07200001DD6F000E082000018F
:103D3000DE6F00D0100E0118021003100410D8A47A
:103D400008D017B002D04B9E01D04B8E16C0EBF0BE
:103D500000D0110E0118021003100410D8A405D0D1
:103D600016C00AF017C009F000D0AA0E0118021000
:103D700003100410D8A40BD017C00FF0106A0F5016
:103D80000001606F16500F6E60C010F000D0040E7E
:103D90000118021003100410D8B44AA828D005C096
:103DA00006F106C007F107C008F108C009F1030ECB
:103DB0000101166F0D0EE82EFED700F000D0D6ECF4
:103DC000AFF0E806D8A4FBD7040E3A6E000E3B6EA7
:103DD000000E3C6E000E3D6E160E3E6E010E3F6EE6
:103DE000080E406EBC0E416E18EC92F000D00B0E27
:103DF0000118021003100410D8B44AA802D04B8056
:103E000000D0120E0118021003100410D8A407D01D
:103E100016B002D04A9A01D04A8A4B9000D0A492A0
:103E2000A49000D071C0F5FF70C0F8FF6FC0F7FF1D
:103E30006EC0F6FF6DC0F4FF6CC0F3FF6BC0DAFF1D
:103E40006AC0D9FF69C0E2FF68C0E1FF67C0EAFF4E
:103E500066C0E9FF65C0FBFF64C0FAFF110000D037
:103E6000B2ECAFF0E806D8A4FBD7080E0001726FE1
:103E7000000E736F000E746F000E756F1E0E000142
:103E8000766F010E0001776F080E0001786FFC0E4F
:103E90000001796F48EC8EF0E1C07CF0E2C07DF06B
:103EA0003CECAFF07CC080F07DC081F07EC082F041
:103EB0007FC083F0000E0001846F000E856F8B0EB3
:103EC000866F430E876F31ECA7F080C0C3F081C0CE
:103ED000C4F082C0C5F083C0C6F00A0E0001B36F03
:103EE000010E0001B46FFA0E0001B56FFF0E000164
:103EF000B66FC3C0B7F0C4C0B8F0C5C0B9F0C6C093
:103F0000BAF095EC85F0000E0101156F4AAE3FD076
:103F1000100EC8ECA5F06EECAFF0010ED5ECA8F0D9
:103F2000550E0001836FFF0E0001846F07ECAFF0A8
:103F3000020ED5ECA8F0C80E0001836FFF0E000141
:103F4000846F07ECAFF0030ED5ECA8F0A90E0001CA
:103F5000836FFF0E0001846F07ECAFF0040ED5EC09
:103F6000A8F04AB609D0BA0E0001836FFF0E000117
:103F7000846F07ECAFF009D0E40E0001836FFF0EF1
:103F80000001846F07ECAFF000D04A9E00D04ABC1D
:103F900038D04BA80DD0020ED5ECA8F0DB0E0001F6
:103FA000836FFD0E0001846F07ECAFF04B9800D0DB
:103FB000020E0001816F0C0EE6ECAFF00001EC5137
:103FC000D8B416D00001E805D8A409D0F00E00013D
:103FD000836FFF0E0001846F07ECAFF01FD0F50E6A
:103FE0000001836FFF0E0001846F07ECAFF016D065
:103FF000EB0E0001836FFF0E0001846F07ECAFF042
:104000000DD04B88020ED5ECA8F0EC0E0001836FAA
:10401000FE0E0001846F07ECAFF000D0030E00012C
:10402000816F080EE6ECAFF00A0E0001836F010EFF
:104030000001846F9EECAFF04BA002D04ABA31D0A1
:104040004AB61CD0040E0001816F0E0EE6ECAFF0F4
:104050000001EA51D8A409D0D40E0001836FFF0EED
:104060000001846F07ECAFF01200DC0E0001836FDB
:10407000FF0E0001846F07ECAFF01200040E000188
:10408000816F070EE6ECAFF00FC08AF010C08BF026
:10409000000E00018C6F010E00018D6F86ECA2F006
:1040A0001200040ED5ECA8F04AAA09D06E0E000149
:1040B000836FFE0E0001846F07ECAFF01200940EC8
:1040C0000001836FFF0E0001846F07ECAFF0120058
:1040D000120000019F35A0350001A86F0001A33533
:1040E000A4350001A76F0001A8510001D8B411D078
:1040F0000001A7510001A85DD8B014D00001A8515B
:1041000000080001A7250001A56F200E0001A5658C
:1041100009D0A1C09DF0A2C09EF0A3C09FF0A4C092
:10412000A0F012000001A7510001D8B411D0000185
:10413000A8510001A75DD8B014D00001A751000814
:104140000001A8250001A56F200E0001A56509D07A
:104150009DC09DF09EC09EF09FC09FF0A0C0A0F0AB
:104160001200060E0001A66F0001A0AF03D00001EF
:10417000A68F00D00001A4AF02D00001A68D0001DF
:104180009F8FFF0E00019D17FF0E9E17FF0E9F17BA
:10419000000EA0170001A38FFF0E0001A117FF0E54
:1041A000A217FF0EA317000EA4170001A7510001CC
:1041B000A85DD8B02AD00001D890A137A237A33784
:1041C000A4370001A7070001A8510001A719D8B41E
:1041D00014D00001A607A6C0A5F0070E0001A51780
:1041E000D8B40BD0E8D709D00001D890A0339F33C2
:1041F0009E339D330001A82B00D00001A751000180
:10420000A819D8B432D0F0D730D00001A85100019D
:10421000A75DD8B02AD00001D8909D379E379F3730
:10422000A0370001A8070001A8510001A719D8B4C0
:1042300014D00001A607A6C0A5F0070E0001A5171F
:10424000D8B40BD0E8D709D00001D890A433A33359
:10425000A233A1330001A72B00D00001A751000118
:10426000A819D8B402D0F0D700D00001A6AF11D061
:10427000FF0E00019D1BFF0E9E1BFF0E9F1BFF0EDE
:10428000A01B010E00019D27000E9E239F23A0234B
:1042900000D00001A6AD11D0FF0E0001A11BFF0E42
:1042A000A21BFF0EA31BFF0EA41B010E0001A127E2
:1042B000000EA223A323A42300D0000E0001A66FAA
:1042C00000019D510001A12700019E510001A22380
:1042D00000019F510001A3230001A0510001A4236C
:1042E0000001A4AF14D0FF0E0001A11BFF0EA21B02
:1042F000FF0EA31BFF0EA41B010E0001A127000E41
:10430000A223A323A423010E0001A66F00D0A1C005
:1043100072F0A2C073F0A3C074F0A4C075F0A8C07E
:1043200076F0A6C077F008ECA5F072C09DF073C0DF
:104330009EF074C09FF075C0A0F012001200000142
:10434000896F800EF4ECAFF0000E706E000E716E8F
:10435000000E726E00018241E842C00B0001826FC4
:1043600000018251701200018351701200018951C5
:10437000711200018039E842F80B0001806F0001E2
:1043800080517112000184A5718C000184A102D0BA
:10439000718E00D0000181517212000184A302D0FD
:1043A000728C00D000018451600B606E000184515A
:1043B000100BFF0AD8B4608460CF50FF000E0001DC
:1043C000726F000E736F000E746F000E756FF70E34
:1043D0000001766F010E95EC9AF0000E0001726FED
:1043E000000E736F000E746F000E756FF70E0001F4
:1043F000766F020E95EC9AF00FD0F70E00018A6FDF
:1044000007D000018A6900018B6928D000018A6900
:10441000F70E00018B6F22D09F0E0001856FFF0EFB
:104420000001866F00018451600B0001876F886B6B
:104430000001855100018713000186510001881396
:1044400000018851000AD8A4E1D700018751BF0AB2
:10445000D8B4D7D7600AD8B4D0D7D8D7000E0001C7
:10446000726F000E736F000E746F000E756F8AC04E
:1044700076F0000E00EC80F0000E0001726F000E6E
:10448000736F000E746F000E756F8AC076F0010EA8
:1044900000EC80F0000E0001726F000E736F000ED2
:1044A000746F000E756F8BC076F0020E00EC80F01A
:1044B000000E0001726F000E736F000E746F000E1D
:1044C000756F8BC076F0030E00EC80F0000E0001DB
:1044D000726F000E736F000E746F000E756F8BC0DD
:1044E00076F0040E00EC80F0000E0001726F000EFA
:1044F000736F000E746F000E756F8BC076F0050E33
:1045000000EC80F0000EF4ECAFF0120021EE00F0B1
:1045100010EE93F0050EDBCFE3FFE806FCE2930E0E
:104520000001826F000E0001836F8AC084F08BC08F
:1045300085F0000E0001876F0A0E866F10ECAEF05A
:1045400000018C510001D8B4BDD000018C51010D87
:10455000930EF324D96E000EF420DA6E000EDF6E97
:1045600074D000018C050001996F00019951000180
:10457000D8B46BD001D069D0FF0E00018E6FFF0E52
:1045800000018F6F000199510001906F916B000144
:104590008E510001902700018F5100019123930E4D
:1045A00000019025D96E000E00019121DA6E000104
:1045B0009951010D930EF324E16E000EF420E26E8A
:1045C000DFCFE7FF00018D05D8A41DD0FF0E00014D
:1045D0008E6FFF0E00018F6F000199510001906FE7
:1045E000916B00018E510001902700018F51000155
:1045F0009123930E00019025D96E000E00019121A8
:10460000DA6E200E1CD0FF0E00018E6FFF0E00012F
:104610008F6F000199510001906F916B00018E51D5
:104620000001902700018F5100019123930E00019A
:104630009025D96E000E00019121DA6E300EDF6EEA
:1046400000D00001990791D700D0FF0E00018E6FB6
:10465000FF0E00018F6F00018C510001906F916B74
:1046600000018E510001902700018F51000191231C
:10467000930E00019025D96E000E00019121DA6E93
:104680003A0EDF606ED7FF0E00018E6FFF0E000145
:104690008F6F00018C510001906F916B00018E5162
:1046A0000001902700018F5100019123930E00011A
:1046B0009025D96E000E00019121DA6E2F0EDF6475
:1046C00050D700D0930E0001836F000E0001846F5D
:1046D0009EECAFF0120074C07AF000017B6B7C6B33
:1046E0000001733500017A3701E37B8100017A51C3
:1046F0000001826F00018251D8A40AD0000E00018F
:10470000726F000E736F000E746F000E756F1200E3
:1047100078C07AF000017B6B7C6B0001773500017B
:104720007A3701E37B8100017A510001816F00013A
:104730008151D8A40AD0000E0001726F000E736F71
:10474000000E746F000E756F12000001738FFF0E64
:1047500000017217FF0E00017317000E000174179D
:104760000001778FFF0E00017617FF0E000177170B
:10477000000E00017817000E00017D6F000E7E6FA5
:10478000000E7F6F000E806F7F0E0001825F0001C0
:104790008151980F0001825F180E0001816F0001A6
:1047A000D8907D377E377F37803700017651000102
:1047B000725D0001775100017359000178510001C9
:1047C0007459D8A00ED0000176510001725F00012B
:1047D00077510001735B000178510001745B0001A7
:1047E0007D810001D8907237733774370001812FB3
:1047F000D6D700D0000182AF1BD000018251800AC1
:10480000970FD8B00BD0000E0001726F000E736FBF
:10481000000E746F000E756F120000D00001D8906A
:1048200080337F337E337D330001823FF7D71DD045
:10483000170E0001826514D0000E0001726F000E89
:10484000736F000E746F000E756F120009D00001B7
:10485000D8907D377E377F3780370001820700D0C0
:10486000000182510001D8A4F2D77DC072F07EC051
:1048700073F07FC074F080C075F0120000017435D1
:10488000753500017F6F00017F51D8A40AD0000E5A
:104890000001726F000E736F000E746F000E756F63
:1048A000120000017835793500017E6F00017E51DC
:1048B000D8A40AD0000E0001726F000E736F000EB4
:1048C000746F000E756F12000001748FFF0E0001EF
:1048D0007217FF0E7317FF0E7417000E7517000185
:1048E000788FFF0E00017617FF0E7717FF0E7817EF
:1048F000000E7917000E00017A6F000E7B6F000E1C
:104900007C6F000E7D6F7F0E00017F5F00017E5186
:10491000A00F00017F5F200E00017E6F00D000011C
:10492000D8907A377B377C377D370001765100018C
:10493000725D000177510001735900017851000147
:1049400074590001795100017559D8A013D00001A4
:1049500076510001725F000177510001735B000125
:1049600078510001745B000179510001755B000111
:104970007A8100D00001D890723773377437753759
:1049800000017E2FCCD700D000017FAF1BD00001EB
:104990007F51800A9F0FD8B00BD0000E0001726FBC
:1049A000000E736F000E746F000E756F120000D052
:1049B0000001D8907D337C337B337A3300017F3F15
:1049C000F7D71DD01F0E00017F6514D0000E000127
:1049D000726F000E736F000E746F000E756F120011
:1049E00009D00001D8907A377B377C377D370001BA
:1049F0007F0700D000017F510001D8A4F2D77AC010
:104A000072F07BC073F07CC074F07DC075F0120052
:104A1000000176510001D8B40AD0000172510001A2
:104A200073110001741100017511D8A414D0000E87
:104A30000001726F000E736F000E746F000E756FC1
:104A4000120009D00001762B0001D8907533743321
:104A50007333723300D0000E000172150001786FBD
:104A6000000E000173150001796F000E000174152E
:104A700000017A6FFE0E0001751500017B6F0001C9
:104A800078510001791100017A1100017B11D8B42D
:104A900011D0D8D70FD00001762B010E000172275C
:104AA000000E7323742375230001D890753374337B
:104AB00073337233000E000172150001786F000E1F
:104AC000000173150001796F000E000174150001DB
:104AD0007A6FFF0E0001751500017B6F00017851A0
:104AE0000001791100017A1100017B11D8B40BD0BB
:104AF000D2D709D0000176070001D89072377337FA
:104B00007437753700D0000174BF05D0020E000164
:104B10007661F0D700D0000176B109D0FF0E000118
:104B20007217FF0E73177F0E7417FF0E75170001B3
:104B3000D890763376C078F00001796B7A6B7B6B16
:104B400078C07BF000017A6B796B786B000178514B
:104B500000017213000179510001731300017A51B1
:104B60000001741300017B5100017513000177519E
:104B70000001D8B403D00001758F00D072C072F06C
:104B800073C073F074C074F075C075F01200120039
:104B90000001806F000180512DECB0F08D948B925C
:104BA0008B90000E0001796F640E786FB3ECAEF05D
:104BB000000E00017A6F010E00017B6F010E0001F3
:104BC0007C6F000E96ECAEF0000E0001796F640E63
:104BD000786FB3ECAEF0000E00017A6F010E0001A9
:104BE0007B6F010E00017C6F000E96ECAEF0000EA4
:104BF0000001796F0A0E786FB3ECAEF0000E000181
:104C00007A6F010E00017B6F010E00017C6F000EB8
:104C100096ECAEF0000E00017A6F010E00017B6F82
:104C2000000E00017C6F000E96ECAEF0000E00014D
:104C30007A6F010E00017B6F000E00017C6F000E89
:104C400096ECAEF0000E00017A6F000E00017B6F53
:104C5000000E00017C6F010E96ECAEF0000E00011C
:104C60007A6F000E00017B6F000E00017C6F000E5A
:104C700096ECAEF0000E00017A6F000E00017B6F23
:104C8000000E00017C6F010E96ECAEF0000E0001EC
:104C90007A6F000E00017B6F000E00017C6F000E2A
:104CA00096ECAEF0000E00017A6F000E00017B6FF3
:104CB000010E00017C6F000E96ECAEF0000E0001BC
:104CC0007A6F000E00017B6F000E00017C6F000EFA
:104CD00096ECAEF0010E00017A6F010E00017B6FC1
:104CE000000E00017C6F000E96ECAEF06EECAFF0A3
:104CF000000E00017E6F000E55ECAFF012000001B7
:104D0000833584350001896F00018951D8A40AD008
:104D1000000E0001816F000E826F000E836F000E87
:104D2000846F120000018735883500018F6F000104
:104D30008F51D8A40AD0000E0001816F000E826F3F
:104D4000000E836F000E846F120000018F517B0FE5
:104D50000001892784C08FF00001885100018F1B5A
:104D6000800E00018F170001838F0001878FFF0ED7
:104D700000018517FF0E8617FF0E8717000E881794
:104D8000000E00018A6F000E8B6F000E8C6F000EFC
:104D90008D6F070E00018E6F00D0000181A111D030
:104DA0000001855100018A270001865100018B23F3
:104DB0000001875100018C230001885100018D23DF
:104DC00000D00001D89084338333823381330001D3
:104DD000D890853786378737883700018E2FDDD703
:104DE00000D0110E00018E6F00D0000181A111D002
:104DF0000001855100018A270001865100018B23A3
:104E00000001875100018C230001885100018D238E
:104E100000D00001D8908433833382338133000182
:104E2000D8908D338C338B338A3300018E2FDDD7AE
:104E300000D08AC072F08BC073F08CC074F08DC04B
:104E400075F089C076F08FC077F008ECA5F072C0DD
:104E500081F073C082F074C083F075C084F01200DA
:104E6000120000018235833500018D6F00018D51E4
:104E7000D8A40AD0000E0001806F000E816F000ED2
:104E8000826F000E836F12000001863587350001A6
:104E90008E6F00018E51D8A40AD0000E0001806FE1
:104EA000000E816F000E826F000E836F12000001F2
:104EB0008E51890F00018D5F83C08EF000018751F4
:104EC00000018E1B800E00018E170001828FFF0EE5
:104ED00000018017FF0E8117FF0E8217000E831747
:104EE0000001868FFF0E00018417FF0E8517FF0E4D
:104EF0008617000E8717200E00018C6F00D000016E
:104F0000D890883789378A378B3700018451000160
:104F1000805D000185510001815900018651000129
:104F200082590001875100018359D8A013D0000194
:104F300084510001805F000185510001815B000107
:104F400086510001825B000187510001835B0001F3
:104F5000888100D00001D89080378137823783372D
:104F600000018C2FCCD700D088C072F089C073F0BC
:104F70008AC074F08BC075F08DC076F08EC077F06B
:104F800008ECA5F072C080F073C081F074C082F0AC
:104F900075C083F0120012000001AB35AC35000182
:104FA000B26F0001B251D8A40AD0000E0001A96F5F
:104FB000000EAA6F000EAB6F000EAC6F1200A9C0FE
:104FC000ADF0AAC0AEF0ABC0AFF0ACC0B0F0200EF8
:104FD00006D00001D890B033AF33AE33AD33E82EF6
:104FE000F8D70001AD510001B16F0001AB8FFF0E8A
:104FF0000001A917FF0EAA17FF0EAB17000EAC1782
:10500000960E0001B25F0001B2AF1BD00001B25199
:10501000800A970FD8B00BD0000E0001A96F000EC8
:10502000AA6F000EAB6F000EAC6F120000D0000133
:10503000D890AC33AB33AA33A9330001B23FF7D7D2
:105040001FD01F0E0001B26514D0000E0001A96F21
:10505000000EAA6F000EAB6F000EAC6F120009D0ED
:105060000001D890A937AA37AB37AC370001B20797
:1050700000D00001B2510001D8B402D0F1D700D065
:105080000001B1510001D8B40AD00001AC1FAB1F20
:10509000AA1FA96D000EAA23AB23AC2300D0A9C080
:1050A000A9F0AAC0AAF0ABC0ABF0ACC0ACF0120043
:1050B0001200000175AF27D072C07AF073C07BF088
:1050C00074C07CF075C07DF000017A1F7B1F7C1FCF
:1050D0007D1F7A2B000E7B237C237D23000E000195
:1050E0007A250001726F000E00017B210001736FB1
:1050F000000E00017C210001746F800E00017D21F3
:105100000001756F00D0000179AF26D076C07AF02B
:1051100077C07BF078C07CF079C07DF000017A1F09
:105120007B1F7C1F7D1F7A2B000E7B237C237D231E
:10513000000E00017A250001766F000E00017B2130
:105140000001776F000E00017C210001786F800E56
:1051500000017D210001796F000E0001721B000E1D
:10516000731B000E741B800E751B000E0001761B56
:10517000000E771B000E781B800E791B0001765104
:105180000001725D000177510001735900017851EF
:10519000000174590001795100017559D8B002D04D
:1051A000D8901200D8801200120000017E6F64D0E7
:1051B000000E00017A6F000E00017B6F000E0001EF
:1051C0007C6F010E96ECAEF0000E00017A6F000EBF
:1051D00000017B6F000E00017C6F000E96ECAEF0BC
:1051E0001200010E00017A6F000E00017B6F000EAD
:1051F00000017C6F010E96ECAEF0000E00017A6F9C
:10520000000E00017B6F000E00017C6F000E96EC1B
:10521000AEF01200000E00017A6F000E00017B6FED
:10522000010E00017C6F010E96ECAEF0010E000144
:105230007A6F000E00017B6F000E00017C6F000E84
:1052400096ECAEF01200010E00017A6F000E000124
:105250007B6F010E00017C6F010E96ECAEF0010E2B
:1052600000017A6F000E00017B6F000E00017C6F61
:10527000000E96ECAEF0120000017E51010AD8B487
:1052800097D7030AD8B4ADD7010AD8B4C3D7070A51
:10529000D8A41200D8D71200000E00017D6F0001C3
:1052A0007BAF09D000017A6D7B1FD8B07B2B010E3C
:1052B00000017D6F00D0000179AF09D00001786D49
:1052C000791FD8B0792B010E00017D1B00D0000E94
:1052D00000017F6F000E7E6F00017A5100017B118B
:1052E000D8B431D0010E00017C6F07D00001D890F6
:1052F0007A377B3700017C2B00D000017BBF02D0C6
:10530000F5D700D00001D8907E377F3700017A5161
:105310000001785D00017B5100017959D8A00BD0C4
:1053200000017A510001785F00017B510001795B37
:1053300000017E8100D00001D8907B337A330001D8
:105340007C2FE0D700D000017D510001D8B406D0F9
:1053500000017E6D7F1FD8B07F2B00D07EC078F01B
:105360007FC079F012001200000E00017A6F000E6B
:105370007B6F000E7C6F000E7D6F00017651000187
:1053800077110001781100017911D8B447D0010ECE
:1053900000017E6F09D00001D890763777377837D3
:1053A000793700017E2B00D0000179BF02D0F3D7FE
:1053B00000D00001D8907A377B377C377D370001E9
:1053C00076510001725D00017751000173590001AF
:1053D0007851000174590001795100017559D8A024
:1053E00013D0000176510001725F00017751000176
:1053F000735B000178510001745B00017951000179
:10540000755B00017A8100D00001D8907933783340
:105410007733763300017E2FCCD700D07AC072F07C
:105420007BC073F07CC074F07DC075F012007BC04F
:105430007FF07CC080F000D07FC072F080C073F03D
:105440007DC074F07EC075F022ECACF072C07FF0CD
:1054500073C080F00001794B7A2B00017F5100016D
:105460008011D8A4E9D779C0D9FF7AC0DAFF000E3D
:10547000DF6E00017907D8A07A0700D07BC072F0F8
:105480007CC073F07DC074F07EC075F063ECACF04E
:10549000000172510001816F7BC072F07CC073F01B
:1054A0007DC074F07EC075F022ECACF072C07BF071
:1054B00073C07CF0090E0001816503D0070E000166
:1054C0008127300E0001812779C0D9FF7AC0DAFF29
:1054D00081C0DFFF00017907D8A07A0700017B5166
:1054E00000017C11D8A4CAD70001794B7A2B120095
:1054F000120000D0B2ECAFF0E806D8A4FBD7070E3C
:105500000001726F000E736F000E746F000E756FE6
:10551000260E0001766F010E0001776F080E000164
:10552000786FBC0E0001796F48EC8EF0E5C01EF17B
:105530000001E65101011F6FE8C020F100D0B2EC7C
:10554000AFF0E806D8A4FBD7050E0001726F000E7D
:10555000736F000E746F000E756F1E0E0001766F74
:10556000010E0001776F080E0001786FBC0E00017C
:10557000796F48EC8EF000D0B2ECAFF0E806D8A41A
:10558000FBD7060E0001726F000E736F000E746F72
:10559000000E756F210E0001766F000E0001776F0F
:1055A000080E0001786FBC0E0001796F48EC8EF098
:1055B0001200000E0001776F000173AF09D00001E7
:1055C000726D731FD8B0732B010E0001776F00D07E
:1055D000000175AF06D00001746D751FD8B0752B32
:1055E00000D00001745100017511D8B42BD0010E08
:1055F0000001766F07D00001D8907437753700012D
:10560000762B00D0000175BF02D0F5D700D0000185
:1056100074510001725D0001755100017359D8A0E9
:1056200009D0000174510001725F00017551000141
:10563000735B00D00001D890753374330001762F6E
:10564000E6D700D0000177510001D8B406D00001A0
:10565000726D731FD8B0732B00D072C072F073C01C
:1056600073F012001200000E896E1F0E926E000E73
:105670008A6EFB0E936E000E8B6EF00E946E000E13
:105680008C6E000E956E000E8D6E000E966E060EE0
:105690000001806F050E0001816F010E0001826F15
:1056A000030E0001836F9D0E0001846F040E9FECBA
:1056B000A1F0A192A492A490D08EA582A580A292DE
:1056C0000D0EC16EC298C296C294C08AC088C096A0
:1056D000C084C092C080C09EC280100EC8ECA5F0ED
:1056E0006EECAFF0010ED5ECA8F083948396630EB8
:1056F000B36EC00EB26EA382A380A082010EB16E03
:105700006EECAFF0F28EF28C1200000176510001C7
:1057100077110001781100017911D8B43FD0010E42
:1057200000017A6F09D00001D89076377737783743
:10573000793700017A2B00D0000179BF02D0F3D76E
:1057400000D0000176510001725D00017751000127
:105750007359000178510001745900017951000119
