:0400000060EF00F0BD
:0E0008004C82FACF60F0FBCF61F09CEFA7F0C6
:100018004C80D8CF28F0E8CF29F0E0CF2AF0FACFEB
:100028002BF0FBCF2CF0E9CF2DF0EACF2EF0E1CF6B
:100038002FF0E2CF30F0D9CF31F0DACF32F0F3CF72
:1000480033F0F4CF34F0F6CF35F0F7CF36F0F8CF01
:1000580037F0F5CF38F0A1A20BD0010E1D26000E07
:100068001E221F222022630EB36EC00EB26EA19212
:1000780038C0F5FF37C0F8FF36C0F7FF35C0F6FFC8
:1000880034C0F4FF33C0F3FF32C0DAFF31C0D9FF08
:1000980030C0E2FF2FC0E1FF2EC0EAFF2DC0E9FF0C
:1000A8002CC0FBFF2BC0FAFF2AC0E0FF29C0E8FFE5
:0C00B80028C0D8FF4C901000B8EFAFF04B
:10FEB400000000803FCDCCCC3D0AD7233C6F128399
:10FEC4003A17B7D138ACC52737BD37863595BFD675
:10FED4003377CC2B325F708930FFE6DB2E08E53CAC
:10FEE4001E6042A20D0000803F000020410000C8B7
:10FEF4004200007A4400401C460050C3470024746A
:10FF0400498096184B20BCBE4C286B6E4EF90215E6
:10FF140050EC78AD60CAF24971010000000A00009B
:10FF24000064000000E803000010270000A0860120
:10FF34000040420F008096980000E1F50500CA9A3F
:10FF44003B20205072657373207468652062757459
:10FF5400746F6E2020003D3D3E2056454849434C79
:10FF64004520204F4646203C3D3D003D3D3D20562A
:10FF7400454849434C452044415441203D3D3D00C2
:10FF84003D3D3D3D3D3D3D3D3D3D3D3D3D3D3D3D9D
:10FF94003D3D3D3D0053706565643A20302E303060
:10FFA400204B6D2F68005061726B2061737369730D
:10FFB400743A2000446972656374696F6E3A200074
:10FFC4004F46462020202000464F554E4421200015
:10FFD40053454152434820005041524B494E47003B
:10FFE400446174613A200050202020004657442088
:0CFFF40000424B574400252E32660000EE
:020000040001F9
:100000000001776F000177510001D8A458D000019A
:100010007229D8A454D00F0101976EC073F06FC03D
:1000200074F070C075F071C076F0040E06D0000157
:10003000D8907633753374337333E82EF8D773C0A2
:1000400078F074C079F075C07AF076C07BF000016A
:1000500078510001786F796B7A6B7B6B78C000FF09
:10006000070E00016E150001786F000E00016F157C
:100070000001796F000E0001701500017A6F000E0B
:100080000001711500017B6F78C073F079C074F0C6
:100090007AC075F07BC076F0050ED89000017337FA
:1000A000743775377637E82EF8D773C078F074C098
:1000B00079F075C07AF076C07BF078C001FF00015E
:1000C0007705D8A458D000017229D8A454D00F01C4
:1000D00005976EC073F06FC074F070C075F071C09A
:1000E00076F0040E06D00001D89076337533743361
:1000F0007333E82EF8D773C078F074C079F075C008
:100100007AF076C07BF0000178510001786F796B4E
:100110007A6B7B6B78C004FF070E00016E1500013F
:10012000786F000E00016F150001796F000E00015D
:10013000701500017A6F000E0001711500017B6FD0
:1001400078C073F079C074F07AC075F07BC076F037
:10015000050ED89000017337743775377637E82E5F
:10016000F8D773C078F074C079F075C07AF076C0B3
:100170007BF078C005FF020E00017719D8A458D093
:1001800000017229D8A454D00F0109976EC073F0F2
:100190006FC074F070C075F071C076F0040E06D0B8
:1001A0000001D8907633753374337333E82EF8D763
:1001B00073C078F074C079F075C07AF076C07BF0C7
:1001C000000178510001786F796B7A6B7B6B78C096
:1001D00008FF070E00016E150001786F000E000188
:1001E0006F150001796F000E0001701500017A6F24
:1001F000000E0001711500017B6F78C073F079C0AB
:1002000074F07AC075F07BC076F0050ED8900001CE
:100210007337743775377637E82EF8D773C078F0B0
:1002200074C079F075C07AF076C07BF078C009FFB1
:10023000030E00017719D8A458D000017229D8A460
:1002400054D00F010D976EC073F06FC074F070C082
:1002500075F071C076F0040E06D00001D8907633A8
:10026000753374337333E82EF8D773C078F074C0E5
:1002700079F075C07AF076C07BF00001785100010A
:10028000786F796B7A6B7B6B78C00CFF070E00017F
:100290006E150001786F000E00016F150001796F77
:1002A000000E0001701500017A6F000E000171153B
:1002B00000017B6F78C073F079C074F07AC075F07C
:1002C0007BC076F0050ED890000173377437753710
:1002D0007637E82EF8D773C078F074C079F075C01F
:1002E0007AF076C07BF078C00DFF040E000177191C
:1002F000D8A458D000017229D8A454D00F01119766
:100300006EC073F06FC074F070C075F071C076F09D
:10031000040E06D00001D8907633753374337333EE
:10032000E82EF8D773C078F074C079F075C07AF011
:1003300076C07BF0000178510001786F796B7A6BA1
:100340007B6B78C010FF070E00016E150001786FFF
:10035000000E00016F150001796F000E000170158D
:1003600000017A6F000E0001711500017B6F78C0EB
:1003700073F079C074F07AC075F07BC076F0050E2A
:10038000D89000017337743775377637E82EF8D771
:1003900073C078F074C079F075C07AF076C07BF0E5
:1003A00078C011FF050E00017719D8A458D00001BC
:1003B0007229D8A454D00F0115976EC073F06FC086
:1003C00074F070C075F071C076F0040E06D00001B4
:1003D000D8907633753374337333E82EF8D773C0FF
:1003E00078F074C079F075C07AF076C07BF00001C7
:1003F00078510001786F796B7A6B7B6B78C014FF52
:10040000070E00016E150001786F000E00016F15D8
:100410000001796F000E0001701500017A6F000E67
:100420000001711500017B6F78C073F079C074F022
:100430007AC075F07BC076F0050ED8900001733756
:10044000743775377637E82EF8D773C078F074C0F4
:1004500079F075C07AF076C07BF078C015FF0001A6
:1004600077510001D8A489D0F70E00017219D8A4E1
:1004700084D00F01018700016E510001786F796B04
:100480007A6B7B6B78C003FF000E00016E150001D4
:10049000786FFF0E00016F150001796F000E0001EB
:1004A000701500017A6F000E0001711500017B6F5D
:1004B00078C073F079C074F07AC075F07BC076F0C4
:1004C00074C073F075C074F076C075F00001766B7F
:1004D00073C078F074C079F075C07AF076C07BF0A4
:1004E00078C002FF000170A103D00F01018102D08A
:1004F0000F010191000170A303D00F01018302D00D
:100500000F010193000170A503D00F01018B02D0F0
:100510000F01019B000170A703D00F01018D02D0D4
:100520000F01019D000170A903D00F01018F02D0BE
:100530000F01019F6EC073F06FC074F070C075F052
:1005400071C076F0160E06D00001D8907633753360
:1005500074337333E82EF8D773C078F074C079F031
:1005600075C07AF076C07BF0000178510001786F99
:10057000796B7A6B7B6B78C000FF00017705D8A49C
:1005800089D0F70E00017219D8A484D00F01058715
:1005900000016E510001786F796B7A6B7B6B78C0CC
:1005A00007FF000E00016E150001786FFF0E0001BD
:1005B0006F150001796F000E0001701500017A6F50
:1005C000000E0001711500017B6F78C073F079C0D7
:1005D00074F07AC075F07BC076F074C073F075C0AB
:1005E00074F076C075F00001766B73C078F074C05B
:1005F00079F075C07AF076C07BF078C006FF000114
:1006000070A103D00F01058102D00F0105910001F7
:1006100070A303D00F01058302D00F0105930001E1
:1006200070A503D00F01058B02D00F01059B0001BF
:1006300070A703D00F01058D02D00F01059D0001A9
:1006400070A903D00F01058F02D00F01059F6EC066
:1006500073F06FC074F070C075F071C076F0160E54
:1006600006D00001D8907633753374337333E82E97
:10067000F8D773C078F074C079F075C07AF076C09E
:100680007BF0000178510001786F796B7A6B7B6B9E
:1006900078C004FF020E00017719D8A489D0F70EA4
:1006A00000017219D8A484D00F01098700016E518E
:1006B0000001786F796B7A6B7B6B78C00BFF000E53
:1006C00000016E150001786FFF0E00016F1500012B
:1006D000796F000E0001701500017A6F000E0001A5
:1006E000711500017B6F78C073F079C074F07AC027
:1006F00075F07BC076F074C073F075C074F076C08E
:1007000075F00001766B73C078F074C079F075C035
:100710007AF076C07BF078C00AFF000170A103D0A8
:100720000F01098102D00F010991000170A303D0CC
:100730000F01098302D00F010993000170A503D0B6
:100740000F01098B02D00F01099B000170A703D094
:100750000F01098D02D00F01099D000170A903D07E
:100760000F01098F02D00F01099F6EC073F06FC097
:1007700074F070C075F071C076F0160E06D00001EE
:10078000D8907633753374337333E82EF8D773C04B
:1007900078F074C079F075C07AF076C07BF0000113
:1007A00078510001786F796B7A6B7B6B78C008FFAA
:1007B000030E00017719D8A489D0F70E0001721931
:1007C000D8A484D00F010D8700016E510001786F0D
:1007D000796B7A6B7B6B78C00FFF000E00016E1592
:1007E0000001786FFF0E00016F150001796F000E98
:1007F0000001701500017A6F000E000171150001F3
:100800007B6F78C073F079C074F07AC075F07BC0EC
:1008100076F074C073F075C074F076C075F00001A6
:10082000766B73C078F074C079F075C07AF076C0DA
:100830007BF078C00EFF000170A103D00F010D8185
:1008400002D00F010D91000170A303D00F010D83A1
:1008500002D00F010D93000170A503D00F010D8B85
:1008600002D00F010D9B000170A703D00F010D8D69
:1008700002D00F010D9D000170A903D00F010D8F53
:1008800002D00F010D9F6EC073F06FC074F070C086
:1008900075F071C076F0160E06D00001D890763350
:1008A000753374337333E82EF8D773C078F074C09F
:1008B00079F075C07AF076C07BF0000178510001C4
:1008C000786F796B7A6B7B6B78C00CFF040E00013C
:1008D0007719D8A489D0F70E00017219D8A484D052
:1008E0000F01118700016E510001786F796B7A6BEF
:1008F0007B6B78C013FF000E00016E150001786F4E
:10090000FF0E00016F150001796F000E00017015D8
:1009100000017A6F000E0001711500017B6F78C035
:1009200073F079C074F07AC075F07BC076F074C053
:1009300073F075C074F076C075F00001766B73C00B
:1009400078F074C079F075C07AF076C07BF078C02A
:1009500012FF000170A103D00F01118102D00F011D
:100960001191000170A303D00F01118302D00F0178
:100970001193000170A503D00F01118B02D00F015C
:10098000119B000170A703D00F01118D02D00F0140
:10099000119D000170A903D00F01118F02D00F012A
:1009A000119F6EC073F06FC074F070C075F071C0AD
:1009B00076F0160E06D00001D89076337533743376
:1009C0007333E82EF8D773C078F074C079F075C02F
:1009D0007AF076C07BF0000178510001786F796B76
:1009E0007A6B7B6B78C010FF050E00017719D8A4D5
:1009F0001200F70E00017219D8A412000F0115871A
:100A000000016E510001786F796B7A6B7B6B78C057
:100A100017FF000E00016E150001786FFF0E000138
:100A20006F150001796F000E0001701500017A6FDB
:100A3000000E0001711500017B6F78C073F079C062
:100A400074F07AC075F07BC076F074C073F075C036
:100A500074F076C075F00001766B73C078F074C0E6
:100A600079F075C07AF076C07BF078C016FF00018F
:100A700070A103D00F01158102D00F011591000163
:100A800070A303D00F01158302D00F01159300014D
:100A900070A503D00F01158B02D00F01159B00012B
:100AA00070A703D00F01158D02D00F01159D000115
:100AB00070A903D00F01158F02D00F01159F6EC0D2
:100AC00073F06FC074F070C075F071C076F0160EE0
:100AD00006D00001D8907633753374337333E82E23
:100AE000F8D773C078F074C079F075C07AF076C02A
:100AF0007BF0000178510001786F796B7A6B7B6B2A
:100B000078C014FF1200C40E0101346F000E010101
:100B1000356FB5EF89F0250E01014819D8B408D01A
:100B2000C0C0D9FFC1C0DAFF48C1DFFFB2EF89F012
:100B3000000E0101376F000E366FC2C0F6FFC3C052
:100B4000F7FF000EF86E0800F5502E0AD8A43DD02D
:100B50000101378D0001C24BC32B000E0101436F11
:100B6000000E426F25D042C16EF043C16FF0000EFF
:100B70000001716F0A0E706F30ECB0F0C2C0F6FF6A
:100B8000C3C0F7FF000EF86E0800F55000016E2795
:100B9000000E00016F23D00E00016E250101426F8F
:100BA000FF0E00016F210101436F0001C24BC32BF7
:100BB000C2C0F6FFC3C0F7FF000EF86E0800F55084
:100BC00097ECB0F0D8A00CD0CED7000E0101436F47
:100BD000000E426F0101378903D00101378515D01E
:100BE000C2C0F6FFC3C0F7FF0001C24BC32B000E0B
:100BF000F86E0800F5CF48F101014851000AD8B459
:100C0000C5D3660AD8B4E9D7B0D3070E01013715AA
:100C1000D8B453D3010137A905D0000E0101436FA9
:100C2000060E426F34C1D9FF35C1DAFFDECF44F181
:100C3000DECF45F1DECF46F1DECF47F1040E0101F4
:100C40003427000E3523010147AF15D044C195F07C
:100C500045C196F046C197F047C198F014ECB0F04A
:100C600095C044F196C045F197C046F198C047F150
:100C7000030E01013613000E01013D6F000E3C6FA3
:100C800001014451010145110101461101014711C2
:100C9000D8B48ED0010146354735820F01013C6F33
:100CA00001013D6BFF0E3D2301013C07D8A03D072C
:100CB0003CC16EF03DC16FF0000E0001716F030E7C
:100CC000706F30ECB0F06EC03CF16FC03DF13CC1D4
:100CD00074F03DC175F0000E0001776F0A0E766F5B
:100CE000A8ECABF074C03CF175C03DF101013DAF23
:100CF00004D001013C07D8A03D0701013C51000888
:100D000068EC94F095C03EF196C03FF197C040F179
:100D100098C041F13EC17CF03FC17DF040C17EF002
:100D200041C17FF044C180F045C181F046C182F0ED
:100D300047C183F0CFEC9BF07CC03EF17DC03FF11A
:100D40007EC040F17FC041F13EC16EF03FC16FF007
:100D500040C170F041C171F0000E0001726F000ED1
:100D6000736F800E746F3F0E756F69ECA8F0000111
:100D7000D8B005D001013C07D8A03D0719D03EC12D
:100D80006EF03FC16FF040C170F041C171F0000ED4
:100D90000001726F000E736F200E746F410E756F3D
:100DA00069ECA8F00001D8A003D001013C4B3D2B19
:100DB000010143BF08D00101435123E10D0E0101A0
:100DC000425DD8B01ED044C1A2F045C1A3F046C1D7
:100DD000A4F047C1A5F001014251D1ECA1F095C0AA
:100DE000A6F096C0A7F097C0A8F098C0A9F07BEC39
:100DF00099F0A2C044F1A3C045F1A4C046F1A5C03A
:100E000047F101013DBF08D001013D512EE10A0E1D
:100E100001013C5DD8B029D00101445101014511C7
:100E20000101461101014711D8B46DD044C1B6F09B
:100E300045C1B7F046C1B8F047C1B9F0ACECAAF073
:100E40000001B6510001B7110001B8110001B9113C
:100E5000D8A459D001013DBF56D001013D5105E153
:100E6000020E01013C5DD8A04ED03EC16EF03FC1E4
:100E70006FF040C170F041C171F05F0E0001726F00
:100E8000700E736F890E746F400E756F69ECA8F069
:100E90000001D8B003D00101F70E02D00101F80E15
:100EA0003C27FF0E3D2301013C5168EC94F095C0B6
:100EB0003EF196C03FF197C040F198C041F144C166
:100EC0006EF045C16FF046C170F047C171F03EC190
:100ED00072F03FC173F040C174F041C175F031EC64
:100EE000A9F06EC038F16FC039F170C03AF171C02D
:100EF0003BF1000E0101446F000E456F000E466F7E
:100F0000000E476F3CD044C1B6F045C1B7F046C1B2
:100F1000B8F047C1B9F0ACECAAF0B6C038F1B7C030
:100F200039F1B8C03AF1B9C03BF144C1B6F045C19E
:100F3000B7F046C1B8F047C1B9F038C16EF039C159
:100F40006FF03AC170F03BC171F0000E4CECA3F0B1
:100F50006EC0BAF06FC0BBF070C0BCF071C0BDF025
:100F600070ECAFF0B6C044F1B7C045F1B8C046F17F
:100F7000B9C047F1000E01013D6F000E3C6F010E3C
:100F80000101486F0A0E01014819D8B421D00101AE
:100F90004851040D1D0EF324F66EFF0EF420F76E7B
:100FA000F86A000EF8220900F5500101385D0900C9
:100FB000F550010139590900F55001013A5909006C
:100FC000F55001013B59D8A003D00101482BDAD7D5
:100FD000030E010136150001C86F000E010137151F
:100FE0000001C96F0001C8510001C911D8B458D01F
:100FF000C0C0D9FFC1C0DAFF2D0E50D00001C04BD8
:10100000C12B4ED038C16EF039C16FF03AC170F0CB
:101010003BC171F001014851040D1D0EF324F66E21
:10102000FF0EF420F76EF86A000EF8220900F5CFE3
:1010300072F00900F5CF73F00900F5CF74F00A00E3
:10104000F5CF75F066ECACF06EC03EF16FC03FF1CD
:1010500070C040F171C041F13EC16EF03FC16FF010
:1010600040C170F041C171F00A0E0001726F000EB4
:10107000736F000E746F000E756F1BECAEF06EC0D8
:101080003EF16FC03FF170C040F171C041F101010C
:101090003E51300FC0C0D9FFC1C0DAFFDF6EAED7FE
:1010A0000101480701014829D8B40ED0ABD7C0C010
:1010B000D9FFC1C0DAFF300EDF6E0001C04BC12B7B
:1010C00001013C07D8A03D0701013DBF07D0010148
:1010D0003D51EDE101013C05D8B0E9D7010143BF25
:1010E0000CD00101435105E1090E0101425DD8A078
:1010F00004D0080E0101486F02D042C148F101013D
:1011000048510101425F000E010148BFFF0E01017D
:10111000435B010148510101D8B409D0C0C0D9FFD7
:10112000C1C0DAFF2E0EDF6E0001C04BC12B0101E2
:10113000485168EC94F095C030F196C031F197C0F9
:1011400032F198C033F144C180F045C181F046C10D
:1011500082F047C183F030C17CF031C17DF032C1F3
:101160007EF033C17FF0CFEC9BF07CC0B6F07DC049
:10117000B7F07EC0B8F07FC0B9F0ACECAAF0B6C052
:1011800038F1B7C039F1B8C03AF1B9C03BF17AD003
:1011900038C16EF039C16FF03AC170F03BC171F0E7
:1011A00001014851040D1D0EF324F66EFF0EF420CC
:1011B000F76EF86A000EF8220900F5CF72F0090008
:1011C000F5CF73F00900F5CF74F00A00F5CF75F094
:1011D00066ECACF06EC03EF16FC03FF170C040F104
:1011E00071C041F13EC16EF03FC16FF040C170F07F
:1011F00041C171F00A0E0001726F000E736F000E94
:10120000746F000E756F1BECAEF06EC03EF16FC0D8
:101210003FF170C040F171C041F101013E51300F0A
:10122000C0C0D9FFC1C0DAFFDF6E0001C04BC12BC7
:1012300038C16EF039C16FF03AC170F03BC171F046
:1012400001014851040D1D0EF324F66EFF0EF4202B
:10125000F76EF86A000EF8220900F5CF72F0090067
:10126000F5CF73F00900F5CF74F00A00F5CF75F0F3
:101270001BECAEF06EC038F16FC039F170C03AF1BE
:1012800071C03BF10101480701014829D8B40ED0D3
:101290007FD7C0C0D9FFC1C0DAFF300EDF6E0001BA
:1012A000C04BC12B01014207D8A0430701014251A5
:1012B00001014311D8B459D0ECD7010142510101C9
:1012C0004311D8A40DD00101385101013911010198
:1012D0003A1101013B11D8A403D00101424B432B29
:1012E000800E010148BF7F0E0001C86F010142510D
:1012F0000101485D01014351800A0001C859D8B07D
:1013000003D042C148F118D001014351800A0001C5
:10131000C86F010148510101425D800E010148BFC3
:101320007F0E0001C859D8B007D001014851010112
:10133000426F436B42BF4307030E010136150001A4
:10134000C86F000E010137150001C96F0001C851B7
:101350000001C911D8B409D0C0C0D9FFC1C0DAFF9B
:101360002D0EDF6E0001C04BC12BC2C0F6FFC3C003
:10137000F7FF0001C24BC32B000EF86E0800F5CF3B
:1013800048F101014851D8A48BEF85F0C0C0D9FFC6
:10139000C1C0DAFF000EDF6E12000F0140B73FD16F
:1013A00074C045FF000175AD03D00F01458D02D01B
:1013B0000F01459D000175A779D000016E51000114
:1013C0007A6F7B6B7C6B7D6B7AC044FF000E0001F3
:1013D0006E1500017A6FFF0E00016F1500017B6F23
:1013E000000E0001701500017C6F000E00017115E8
:1013F00000017D6F7AC076F07BC077F07CC078F01A
:101400007DC079F077C076F078C077F079C078F059
:101410000001796B76C07AF077C07BF078C07CF001
:1014200079C07DF07AC043FF000E0F01426F0F01BB
:101430004287000170A102D00F014281000170A318
:1014400002D00F014283000170A502D00F01428B30
:10145000000170A702D00F01428D000170A902D0D7
:101460000F01428F6EC076F06FC077F070C078F0D9
:1014700071C079F0160E06D00001D8907933783318
:1014800077337633E82EF8D776C07AF077C07BF0E2
:1014900078C07CF079C07DF000017A5100017A6F4C
:1014A0007B6B7C6B7D6B7AC041FF59D00F014297FB
:1014B0006EC076F06FC077F070C078F071C079F0D0
:1014C000040E06D00001D890793378337733763321
:1014D000E82EF8D776C07AF077C07BF078C07CF041
:1014E00079C07DF000017A5100017A6F7B6B7C6BD3
:1014F0007D6B7AC041FF070E00016E1500017A6F07
:10150000000E00016F1500017B6F000E00017015C9
:1015100000017C6F000E0001711500017D6F7AC023
:1015200076F07BC077F07CC078F07DC079F0050E56
:10153000D89000017637773778377937E82EF8D7A3
:1015400076C07AF077C07BF078C07CF079C07DF00F
:101550000F0142511F0B0F01426F7AC042FF000181
:1015600075A103D00F01408102D00F01409100010D
:1015700075A303D00F01408302D00F01409372C0C6
:10158000D9FF73C0DAFFDF500F01466F000120EE74
:1015900001F07251D9267351DA22DF500F01476FE3
:1015A000000120EE02F07251D9267351DA22DF5089
:1015B0000F01486F000120EE03F07251D9267351DC
:1015C000DA22DF500F01496F000120EE04F0725162
:1015D000D9267351DA22DF500F014A6F000120EE45
:1015E00005F07251D9267351DA22DF500F014B6F8B
:1015F000000120EE06F07251D9267351DA22DF5035
:101600000F014C6F000120EE07F07251D926735183
:10161000DA22DF500F014D6F0F01408712000F01DA
:1016200030B73FD174C035FF000175AD03D00F0155
:10163000358D02D00F01359D000175A779D00001CD
:101640006E5100017A6F7B6B7C6B7D6B7AC034FFCF
:10165000000E00016E1500017A6FFF0E00016F157C
:1016600000017B6F000E0001701500017C6F000E01
:101670000001711500017D6F7AC076F07BC077F0B4
:101680007CC078F07DC079F077C076F078C077F0D4
:1016900079C078F00001796B76C07AF077C07BF082
:1016A00078C07CF079C07DF07AC033FF000E0F0166
:1016B000326F0F013287000170A102D00F01328119
:1016C000000170A302D00F013283000170A502D087
:1016D0000F01328B000170A702D00F01328D000183
:1016E00070A902D00F01328F6EC076F06FC077F014
:1016F00070C078F071C079F0160E06D00001D89055
:101700007933783377337633E82EF8D776C07AF0AA
:1017100077C07BF078C07CF079C07DF000017A5111
:1017200000017A6F7B6B7C6B7D6B7AC031FF59D087
:101730000F0132976EC076F06FC077F070C078F00E
:1017400071C079F0040E06D00001D8907933783357
:1017500077337633E82EF8D776C07AF077C07BF00F
:1017600078C07CF079C07DF000017A5100017A6F79
:101770007B6B7C6B7D6B7AC031FF070E00016E15B1
:1017800000017A6F000E00016F1500017B6F000EE3
:101790000001701500017C6F000E00017115000141
:1017A0007D6F7AC076F07BC077F07CC078F07DC02A
:1017B00079F0050ED890000176377737783779378A
:1017C000E82EF8D776C07AF077C07BF078C07CF04E
:1017D00079C07DF00F0132511F0B0F01326F7AC0BB
:1017E00032FF000175A103D00F01308102D00F013B
:1017F0003091000175A303D00F01308302D00F0197
:10180000309372C0D9FF73C0DAFFDF500F01366F1B
:10181000000120EE01F07251D9267351DA22DF5017
:101820000F01376F000120EE02F07251D92673517B
:10183000DA22DF500F01386F000120EE03F0725101
:10184000D9267351DA22DF500F01396F000120EEE3
:1018500004F07251D9267351DA22DF500F013A6F2A
:10186000000120EE05F07251D9267351DA22DF50C3
:101870000F013B6F000120EE06F07251D926735123
:10188000DA22DF500F013C6F000120EE07F07251A9
:10189000D9267351DA22DF500F013D6F0F013087D7
:1018A00012000F0120B7120074C025FF000175ADB2
:1018B00003D00F01258D02D00F01259D000175A7D2
:1018C00079D000016E5100017A6F7B6B7C6B7D6B70
:1018D0007AC024FF000E00016E1500017A6FFF0E22
:1018E00000016F1500017B6F000E000170150001F3
:1018F0007C6F000E0001711500017D6F7AC076F0DB
:101900007BC077F07CC078F07DC079F077C076F04E
:1019100078C077F079C078F00001796B76C07AF002
:1019200077C07BF078C07CF079C07DF07AC023FF6F
:10193000000E0F01226F0F012287000170A102D05B
:101940000F012281000170A302D00F012283000148
:1019500070A502D00F01228B000170A702D00F01E9
:10196000228D000170A902D00F01228F6EC076F087
:101970006FC077F070C078F071C079F0160E06D0A5
:101980000001D8907933783377337633E82EF8D75F
:1019900076C07AF077C07BF078C07CF079C07DF0BB
:1019A00000017A5100017A6F7B6B7C6B7D6B7AC092
:1019B00021FF59D00F0122976EC076F06FC077F0EB
:1019C00070C078F071C079F0040E06D00001D89094
:1019D0007933783377337633E82EF8D776C07AF0D8
:1019E00077C07BF078C07CF079C07DF000017A513F
:1019F00000017A6F7B6B7C6B7D6B7AC021FF070ED9
:101A000000016E1500017A6F000E00016F150001D4
:101A10007B6F000E0001701500017C6F000E00014D
:101A2000711500017D6F7AC076F07BC077F07CC0C5
:101A300078F07DC079F0050ED890000176377737C1
:101A400078377937E82EF8D776C07AF077C07BF010
:101A500078C07CF079C07DF00F0122511F0B0F017F
:101A6000226F7AC022FF000175A103D00F012081EF
:101A700002D00F012091000175A303D00F01208334
:101A800002D00F01209372C0D9FF73C0DAFFDF507C
:101A90000F01266F000120EE01F07251D92673511B
:101AA000DA22DF500F01276F000120EE02F07251A1
:101AB000D9267351DA22DF500F01286F000120EE82
:101AC00003F07251D9267351DA22DF500F01296FCA
:101AD000000120EE04F07251D9267351DA22DF5052
:101AE0000F012A6F000120EE05F07251D9267351C3
:101AF000DA22DF500F012B6F000120EE06F0725149
:101B0000D9267351DA22DF500F012C6F000120EE2D
:101B100007F07251D9267351DA22DF500F012D6F71
:101B20000F012087120078ECADF0CF0E0001D26FCC
:101B3000F70ED36F330ED46F3F0ED56F000E00013A
:101B4000D66F000ED76F200ED86F410ED96F4A8C1A
:101B5000F1ECB0F01BECB1F00DECB1F04BB09DD05E
:101B6000010E0001E86F000E0001E56F000EE46F4A
:101B70005A0E0001F06F000E0001EE6F010E000121
:101B8000EF6FC4ECACF0100EF5ECA9F0839C839AD7
:101B9000010E32ECABF0840E00017F6FFF0E0001EE
:101BA000806F4BECB0F0020E32ECABF05A0E00013D
:101BB0007F6FFF0E0001806F4BECB0F0030E32EC34
:101BC000ABF0450E00017F6FFF0E0001806F4BEC04
:101BD000B0F0040E32ECABF0840E00017F6FFF0E0C
:101BE0000001806F4BECB0F054D009C0CAF00AC0BD
:101BF000CBF00BC0CCF00CC0CDF00001CA1FCB1F46
:101C0000CC1FCD1FCA2B000ECB23CC23CD231D50C0
:101C10000001CA250001CE6F1E500001CB2100013A
:101C2000CF6F1F500001CC210001D06F2050000168
:101C3000CD210001D16F0001D1510001D01100016F
:101C4000CF1105E11E0E0001CE5DD8A019D01DC038
:101C500009F01EC00AF01FC00BF020C00CF083AECC
:101C600002D0010E01D0000EFF0A0001CA6F000170
:101C7000CA33CA3383500001CA197F0BCA19836E55
:101C8000F1ECB0F0000E0001756F0A0E746FF7EC06
:101C9000AFF04BA0AAD7839E4A8C20ECAFF080A473
:101CA00004D0000E0001EB6F0DD080B605D0010E00
:101CB0000001EB6F010E04D0020E0001EB6F000E6D
:101CC0000001E86F4AA2C9D04B9C0001EC51D8B486
:101CD0004AB42ED04B92010E0001E96F000E0001B4
:101CE000D66F000ED76F800ED86F3F0ED96FBFEC46
:101CF000B0F00009D8B4FBD7010E0101286F0A0E1D
:101D000000016E6F000E6F6F000E706F000E716F2E
:101D1000280E0001726F010E0001736F080E0001A2
:101D2000746FBC0E0001756FCDEC89F00001EC2BD7
:101D30004AB44BA229D00001ED51D8A428D0020EFC
:101D40000001E96FBFECB0F00009D8B4FBD70C0E6E
:101D500000016E6F000E6F6F000E706F000E716FDE
:101D6000270E0001726F000E0001736F080E000154
:101D7000746FBC0E0001756FCDEC89F0000E000190
:101D8000EC6F0001ED2B03D0000E0001ED6F19C0C8
:101D9000CAF01AC0CBF01BC0CCF01CC0CDF00001C3
:101DA000CA1FCB1FCC1FCD1FCA2B000ECB23CC23A9
:101DB000CD231D500001CA250001CE6F1E50000129
:101DC000CB210001CF6F1F500001CC210001D06F4B
:101DD00020500001CD210001D16F0001D15100013F
:101DE000D0110001CF1105E11E0E0001CE5DD8A07B
:101DF0006DD01DC019F01EC01AF01FC01BF020C00E
:101E00001CF04BB213D083AC02D0010E01D0000EF7
:101E1000FF0A0001CA6F0001CA3BCA47CA47835084
:101E20000001CA19BF0BCA19836E4FD0838C4AB404
:101E300012D083AA02D0010E01D0000EFF0A0001C9
:101E4000CA6F0001CA3BCA4783500001CA19DF0BA1
:101E5000CA19836E3BD0838A39D0000E0001EC6F23
:101E6000000E0001ED6F4A94839A839C4BBC2CD0EA
:101E7000000E0001E96F000E0001D66F000ED76F53
:101E8000700ED86F410ED96FBFECB0F00009D8B416
:101E9000FBD7000E0101286F0A0E00016E6F000EC5
:101EA0006F6F000E706F000E716F280E0001726F61
:101EB000010E0001736F080E0001746FBC0E00016B
:101EC000756FCDEC89F04B8C839C839A000E0001DA
:101ED000A66F000EA76F340EA86F430EA96FD2C075
:101EE00080F0D3C081F0D4C082F0D5C083F000016F
:101EF000DE5100016E6F6F6B706B716B000E4CECFE
:101F0000A3F06EC07CF06FC07DF070C07EF071C039
:101F10007FF0CFEC9BF07CC095F07DC096F07EC04A
:101F200097F07FC098F014ECB0F095C0A2F096C086
:101F3000A3F097C0A4F098C0A5F07BEC99F0A2C0E4
:101F4000B6F0A3C0B7F0A4C0B8F0A5C0B9F0ACEC2F
:101F5000AAF00001B6510001F06F0001E905D8A414
:101F60005CD04BA40FD00001EA51F0C0CAF00001D0
:101F7000CB6B0001CA27000ECB23CAC0DAF0CBC05E
:101F8000DBF01BD00001EA510001CA6FCB6B0001EE
:101F9000CA1FCB1FCA4BCB2B0001F0510001CC6FE5
:101FA000CD6B0001CA510001CC270001CB510001CB
:101FB000CD23CCC0DAF0CDC0DBF00001000EDBBFDA
:101FC000FF0EDC6FDD6F0001DDBF12D00001DDBF51
:101FD0000CD00001DD510001DC110001DB1108E132
:101FE000B50E0001DA5DD8B003D0DAC0F0F019D038
:101FF0000001DDBF0ED00001DD510001DC11000148
:10200000DB1105E1B50E0001DA5DD8A002D0B40EF7
:1020100001D0000E0001F06F04D04B94000E0001BF
:10202000EA6F0001EB51D8B488D0840E0001DF655F
:1020300042D0D6C080F0D7C081F0D8C082F0D9C0DD
:1020400083F07E0E0001CA6FFF0E0001CB6F00010E
:10205000DF510001CC6FCD6B0001CA510001CC27CC
:102060000001CB510001CD23CCC06EF0CDC06FF08C
:102070000001000E6FBFFF0E706F716F010E4CEC10
:10208000A3F06EC07CF06FC07DF070C07EF071C0B8
:102090007FF0CFEC9BF07CC0B6F07DC0B7F07EC087
:1020A000B8F07FC0B9F0ACECAAF0B6C0E4F0B7C0AD
:1020B000E5F0000E40D0000E0001E56F000EE46F69
:1020C000330E0001806F330E816FF30E826F3F0E6F
:1020D000836F0001DF510001CA6FCB6B0001CA1F83
:1020E000CB1FCA4BCB2B820E0001CA27000ECB237D
:1020F000CAC06EF0CBC06FF00001000E6FBFFF0EC4
:10210000706F716F010E4CECA3F06EC07CF06FC06D
:102110007DF070C07EF071C07FF0CFEC9BF07CC092
:10212000B6F07DC0B7F07EC0B8F07FC0B9F0ACECBF
:10213000AAF00001B6510001EE6F4AAE03D021ECC7
:10214000ADF04A9E0DC0CAF00EC0CBF00FC0CCF06F
:1021500010C0CDF00001CA1FCB1FCC1FCD1FCA2B52
:10216000000ECB23CC23CD231D500001CA25000136
:10217000CE6F1E500001CB210001CF6F1F50000118
:10218000CC210001D06F20500001CD210001D16F82
:102190000001D1510001D0110001CF1105E1020E63
:1021A0000001CE5DD8A00FD0020E0001E919D8B40D
:1021B0000AD01DC00DF01EC00EF01FC00FF020C0D1
:1021C00010F0C4ECACF011C0CAF012C0CBF013C0D8
:1021D000CCF014C0CDF00001CA1FCB1FCC1FCD1F07
:1021E000CA2B000ECB23CC23CD231D500001CA25C2
:1021F0000001CE6F1E500001CB210001CF6F1F5098
:102200000001CC210001D06F20500001CD21000140
:10221000D16F0001D1510001D0110001CF1105E1B2
:102220000A0E0001CE5DD8A093D41DC011F01EC0CF
:1022300012F01FC013F020C014F0F6ECA5F088D403
:102240000F0140B715D13FC045FF40AC03D00F018F
:10225000458D02D00F01459D40A666D03950456E90
:10226000466A476A486A45C044FF000E3914456E05
:10227000FF0E3A14466E000E3B14476E000E3C14DF
:10228000486E45C041F046C042F047C043F048C0E8
:1022900044F042C041F043C042F044C043F0446ABD
:1022A00041C045F042C046F043C047F044C048F04A
:1022B00045C043FF000E0F01426F0F0142873BA054
:1022C00002D00F0142813BA202D00F0142833BA406
:1022D00002D00F01428B3BA602D00F01428D3BA8DA
:1022E00002D00F01428F39C041F03AC042F03BC0EA
:1022F00043F03CC044F0160E05D0D890443243322F
:1023000042324132E82EF9D741C045F042C046F092
:1023100043C047F044C048F04550456E466A476A9E
:10232000486A45C041FF4DD00F01429739C041F086
:102330003AC042F03BC043F03CC044F0040E05D02C
:10234000D8904432433242324132E82EF9D741C06C
:1023500045F042C046F043C047F044C048F0455005
:10236000456E466A476A486A45C041FF070E391400
:10237000456E000E3A14466E000E3B14476E000E7A
:102380003C14486E45C041F046C042F047C043F09F
:1023900048C044F0050ED8904136423643364436A4
:1023A000E82EF9D741C045F042C046F043C047F09F
:1023B00044C048F00F0142511F0B0F01426F45C04E
:1023C00042FF40A003D00F01408102D00F01409195
:1023D00040A203D00F01408302D00F0140933DC0C3
:1023E000D9FF3EC0DAFFDF500F01466F20EE01F04B
:1023F0003D50D9263E50DA22DF500F01476F20EEC4
:1024000002F03D50D9263E50DA22DF500F01486FCE
:1024100020EE03F03D50D9263E50DA22DF500F0166
:10242000496F20EE04F03D50D9263E50DA22DF50AD
:102430000F014A6F20EE05F03D50D9263E50DA22BA
:10244000DF500F014B6F20EE06F03D50D9263E5075
:10245000DA22DF500F014C6F20EE07F03D50D926F5
:102460003E50DA22DF500F014D6F0F0140871200FE
:102470000F0130B715D13FC035FF40AC03D00F017D
:10248000358D02D00F01359D40A666D03950456E7E
:10249000466A476A486A45C034FF000E3914456EE3
:1024A000FF0E3A14466E000E3B14476E000E3C14AD
:1024B000486E45C041F046C042F047C043F048C0B6
:1024C00044F042C041F043C042F044C043F0446A8B
:1024D00041C045F042C046F043C047F044C048F018
:1024E00045C033FF000E0F01326F0F0132873BA052
:1024F00002D00F0132813BA202D00F0132833BA4F4
:1025000002D00F01328B3BA602D00F01328D3BA8C7
:1025100002D00F01328F39C041F03AC042F03BC0C7
:1025200043F03CC044F0160E05D0D89044324332FC
:1025300042324132E82EF9D741C045F042C046F060
:1025400043C047F044C048F04550456E466A476A6C
:10255000486A45C031FF4DD00F01329739C041F074
:102560003AC042F03BC043F03CC044F0040E05D0FA
:10257000D8904432433242324132E82EF9D741C03A
:1025800045F042C046F043C047F044C048F04550D3
:10259000456E466A476A486A45C031FF070E3914DE
:1025A000456E000E3A14466E000E3B14476E000E48
:1025B0003C14486E45C041F046C042F047C043F06D
:1025C00048C044F0050ED890413642364336443672
:1025D000E82EF9D741C045F042C046F043C047F06D
:1025E00044C048F00F0132511F0B0F01326F45C03C
:1025F00032FF40A003D00F01308102D00F01309193
:1026000040A203D00F01308302D00F0130933DC0B0
:10261000D9FF3EC0DAFFDF500F01366F20EE01F028
:102620003D50D9263E50DA22DF500F01376F20EEA1
:1026300002F03D50D9263E50DA22DF500F01386FAC
:1026400020EE03F03D50D9263E50DA22DF500F0134
:10265000396F20EE04F03D50D9263E50DA22DF508B
:102660000F013A6F20EE05F03D50D9263E50DA2298
:10267000DF500F013B6F20EE06F03D50D9263E5053
:10268000DA22DF500F013C6F20EE07F03D50D926D3
:102690003E50DA22DF500F013D6F0F0130871200EC
:1026A0000F0120B712003FC025FF40AC03D00F013F
:1026B000258D02D00F01259D40A666D03950456E6C
:1026C000466A476A486A45C024FF000E3914456EC1
:1026D000FF0E3A14466E000E3B14476E000E3C147B
:1026E000486E45C041F046C042F047C043F048C084
:1026F00044F042C041F043C042F044C043F0446A59
:1027000041C045F042C046F043C047F044C048F0E5
:1027100045C023FF000E0F01226F0F0122873BA04F
:1027200002D00F0122813BA202D00F0122833BA4E1
:1027300002D00F01228B3BA602D00F01228D3BA8B5
:1027400002D00F01228F39C041F03AC042F03BC0A5
:1027500043F03CC044F0160E05D0D89044324332CA
:1027600042324132E82EF9D741C045F042C046F02E
:1027700043C047F044C048F04550456E466A476A3A
:10278000486A45C021FF4DD00F01229739C041F062
:102790003AC042F03BC043F03CC044F0040E05D0C8
:1027A000D8904432433242324132E82EF9D741C008
:1027B00045F042C046F043C047F044C048F04550A1
:1027C000456E466A476A486A45C021FF070E3914BC
:1027D000456E000E3A14466E000E3B14476E000E16
:1027E0003C14486E45C041F046C042F047C043F03B
:1027F00048C044F0050ED890413642364336443640
:10280000E82EF9D741C045F042C046F043C047F03A
:1028100044C048F00F0122511F0B0F01226F45C029
:1028200022FF40A003D00F01208102D00F01209190
:1028300040A203D00F01208302D00F0120933DC09E
:10284000D9FF3EC0DAFFDF500F01266F20EE01F006
:102850003D50D9263E50DA22DF500F01276F20EE7F
:1028600002F03D50D9263E50DA22DF500F01286F8A
:1028700020EE03F03D50D9263E50DA22DF500F0102
:10288000296F20EE04F03D50D9263E50DA22DF5069
:102890000F012A6F20EE05F03D50D9263E50DA2276
:1028A000DF500F012B6F20EE06F03D50D9263E5031
:1028B000DA22DF500F012C6F20EE07F03D50D926B1
:1028C0003E50DA22DF500F012D6F0F0120871200DA
:1028D00000019D6F00019DAF45D100019D6D00017C
:1028E0009D51800A120FD8A0BBD0000E0001776F57
:1028F0000A0E766F000E0001716F640E706F00019A
:102900009D5100016E6F6F6B6EBF6F07CAECADF02B
:102910006EC074F06FC075F0A8ECABF00001D890F9
:10292000743775370001D89074377537240E00015D
:102930007427000E00017523B50E00017425F66E94
:10294000FE0E00017521F76EF86A000EF8220900EC
:10295000F5CF80F00900F5CF81F00900F5CF82F0C6
:102960000A00F5CF83F0000E0001776F640E766FDA
:1029700000019D510001746F756B74BF7507A8EC61
:10298000ABF00001D890743775370001D8907437D8
:102990007537480E00017427000E00017523B50E2F
:1029A00000017425F66EFE0E00017521F76EF86ABF
:1029B000000EF8220900F5CF7CF00900F5CF7DF07C
:1029C0000900F5CF7EF00A00F5CF7FF0CFEC9BF049
:1029D0007CC099F07DC09AF07EC09BF07FC09CF0D7
:1029E00099C07CF09AC07DF09BC07EF09CC07FF0C7
:1029F000000E0001716F0A0E706F00019D51000101
:102A00006E6F6F6B6EBF6F07CAECADF00001D890B0
:102A10006E376F370001D8906E376F37B50E0001F3
:102A20006E25F66EFE0E00016F21F76EF86A000E3D
:102A3000F8220900F5CF80F00900F5CF81F00900F8
:102A4000F5CF82F00A00F5CF83F0CFEC9BF07CC08D
:102A500095F07DC096F07EC097F07FC098F0120090
:102A600000019D51800A750FD8A063D0000E0001AF
:102A7000776F0A0E766F00019D510001746F756BC0
:102A800074BF7507A8ECABF00001D89074377537A8
:102A90000001D89074377537240E00017427000E9A
:102AA00000017523B50E00017425F66EFE0E0001BF
:102AB0007521F76EF86A000EF8220900F5CF7CF058
:102AC0000900F5CF7DF00900F5CF7EF00A00F5CFC3
:102AD0007FF0000E0001716F0A0E706F00019D51B2
:102AE00000016E6F6F6B6EBF6F07CAECADF0000137
:102AF000D8906E376F370001D8906E376F37B50EAC
:102B000000016E25F66EFE0E00016F21F76EF86A69
:102B1000000EF8220900F5CF80F00900F5CF81F012
:102B20000900F5CF82F00A00F5CF83F0CFEC9BF0DF
:102B30008ED700019D51040DB50EF324F66EFE0EE6
:102B4000F420F76EF86A000EF8220900F5CF95F030
:102B50000900F5CF96F00900F5CF97F00A00F5CF00
:102B600098F0120000019D51800A120FD8A0BBD02E
:102B7000000E0001776F0A0E766F000E0001716F74
:102B8000640E706F00019D5100016E6F6F6B6EBF20
:102B90006F07CAECADF06EC074F06FC075F0A8ECB2
:102BA000ABF00001D890743775370001D8907437B6
:102BB0007537240E00017427000E00017523E90EFD
:102BC00000017425F66EFE0E00017521F76EF86A9D
:102BD000000EF8220900F5CF80F00900F5CF81F052
:102BE0000900F5CF82F00A00F5CF83F0000E000156
:102BF000776F640E766F00019D510001746F756BE5
:102C000074BF7507A8ECABF00001D8907437753726
:102C10000001D89074377537480E00017427000EF4
:102C200000017523E90E00017425F66EFE0E000109
:102C30007521F76EF86A000EF8220900F5CF7CF0D6
:102C40000900F5CF7DF00900F5CF7EF00A00F5CF41
:102C50007FF0CFEC9BF07CC099F07DC09AF07EC0F5
:102C60009BF07FC09CF099C07CF09AC07DF09BC027
:102C70007EF09CC07FF0000E0001716F0A0E706F35
:102C800000019D5100016E6F6F6B6EBF6F07CAEC44
:102C9000ADF00001D8906E376F370001D8906E37D5
:102CA0006F37E90E00016E25F66EFE0E00016F21F2
:102CB000F76EF86A000EF8220900F5CF80F00900DF
:102CC000F5CF81F00900F5CF82F00A00F5CF83F04F
:102CD000CFEC9BF07CC095F07DC096F07EC097F065
:102CE0007FC098F0120000019D51800A750FD8A096
:102CF00063D0000E0001776F0A0E766F00019D51C0
:102D00000001746F756B74BF7507A8ECABF0000120
:102D1000D890743775370001D89074377537240E02
:102D200000017427000E00017523E90E00017425CF
:102D3000F66EFE0E00017521F76EF86A000EF8229D
:102D40000900F5CF7CF00900F5CF7DF00900F5CF43
:102D50007EF00A00F5CF7FF0000E0001716F0A0EC1
:102D6000706F00019D5100016E6F6F6B6EBF6F073A
:102D7000CAECADF00001D8906E376F370001D890E3
:102D80006E376F37E90E00016E25F66EFE0E0001FC
:102D90006F21F76EF86A000EF8220900F5CF80F077
:102DA0000900F5CF81F00900F5CF82F00A00F5CFD8
:102DB00083F0CFEC9BF08ED700019D51040DE90EFE
:102DC000F324F66EFE0EF420F76EF86A000EF82279
:102DD0000900F5CF95F00900F5CF96F00900F5CF81
:102DE00097F00A00F5CF98F01200000E436E74BE03
:102DF000438074BC43820F0150AF43D139C0D9FF27
:102E00003AC0DAFFDE6ADE6ADE6ADD6A20EE04F0CE
:102E10003950D9263A50DA2256CFDFFF20EE05F09E
:102E20003950D9263A50DA2257CFDFFF20EE06F08C
:102E30003950D9263A50DA2258CFDFFF20EE07F07A
:102E40003950D9263A50DA2259CFDFFF20EE08F068
:102E50003950D9263A50DA225ACFDFFF20EE09F056
:102E60003950D9263A50DA225BCFDFFF20EE0AF044
:102E70003950D9263A50DA225CCFDFFF20EE0BF032
:102E80003950D9263A50DA225DCFDFFF20EE0EF01E
:102E90003950D9263A50DA220F0155AD02D0010E31
:102EA00001D0000EDF6E20EE0DF03950D9263A50D9
:102EB000DA220F0155510F0BDF6E20EE0CF0395066
:102EC000D9263A50DA220F0152A702D0010E01D0C2
:102ED000000EDF6E0F0152B744D051CF3BF03C6A79
:102EE0003D6A3E6A030ED8903B363C363D363E3650
:102EF000E82EF9D739C0D9FF3AC0DAFF3BC0DEFF70
:102F00003CC0DEFF3DC0DEFF3EC0DEFF0F01523998
:102F1000E842070B070B446E39C0D9FF3AC0DAFF0D
:102F2000DECF3BF0DECF3CF0DECF3DF0DECF3EF03B
:102F300044503B243F6E000E3C20406E000E3D206E
:102F4000416E000E3E20426E39C0D9FF3AC0DAFF12
:102F50003FC0DEFF40C0DEFF41C0DEFF42C0DEFFFB
:102F60008DD054CF3BF03C6A3D6A3E6A39C0D9FFF0
:102F70003AC0DAFF3BC0DEFF3CC0DEFF3DC0DEFFF3
:102F80003EC0DEFF53CF3BF03C6A3D6A3E6A3DC027
:102F90003EF03CC03DF03BC03CF03B6A39C0D9FF3D
:102FA0003AC0DAFF3B50DE263C50DE223D50DE22A6
:102FB0003E50DE220F0152A10CD039C0D9FF3AC0D9
:102FC000DAFF000EDE12000EDE12010EDE12000E1F
:102FD000DE120F0152A30CD039C0D9FF3AC0DAFF7C
:102FE000000EDE12000EDE12020EDE12000EDE12E7
:102FF0000F0152AB0CD039C0D9FF3AC0DAFF000E36
:10300000DE12000EDE12040EDE12000EDE120F01C2
:1030100052AD0CD039C0D9FF3AC0DAFF000EDE1233
:10302000000EDE12080EDE12000EDE120F0152AF8D
:103030000CD039C0D9FF3AC0DAFF000EDE12000E04
:10304000DE12100EDE12000EDE1251CF3BF03C6A93
:103050003D6A3E6A150ED8903B363C363D363E36CC
:10306000E82EF9D739C0D9FF3AC0DAFF3B50DE125B
:103070003C50DE123D50DE123E50DE120F01509FDA
:10308000120060AE120039C0D9FF3AC0DAFFDE6A22
:10309000DE6ADE6ADD6A20EE04F03950D9263A5045
:1030A000DA2266CFDFFF20EE05F03950D9263A50FC
:1030B000DA2267CFDFFF20EE06F03950D9263A50EA
:1030C000DA2268CFDFFF20EE07F03950D9263A50D8
:1030D000DA2269CFDFFF20EE08F03950D9263A50C6
:1030E000DA226ACFDFFF20EE09F03950D9263A50B4
:1030F000DA226BCFDFFF20EE0AF03950D9263A50A2
:10310000DA226CCFDFFF20EE0BF03950D9263A508F
:10311000DA226DCFDFFF20EE0EF03950D9263A507B
:10312000DA2265AC02D0010E01D0000EDF6E20EE77
:103130000DF03950D9263A50DA2265500F0BDF6E68
:1031400020EE0CF03950D9263A50DA2262A602D08D
:10315000010E01D0000EDF6E62B643D061CF3BF0AE
:103160003C6A3D6A3E6A030ED8903B363C363D369B
:103170003E36E82EF9D739C0D9FF3AC0DAFF3BC056
:10318000DEFF3CC0DEFF3DC0DEFF3EC0DEFF62383A
:10319000E842070B070B446E39C0D9FF3AC0DAFF8B
:1031A000DECF3BF0DECF3CF0DECF3DF0DECF3EF0B9
:1031B00044503B243F6E000E3C20406E000E3D20EC
:1031C000416E000E3E20426E39C0D9FF3AC0DAFF90
:1031D0003FC0DEFF40C0DEFF41C0DEFF42C0DEFF79
:1031E00088D064CF3BF03C6A3D6A3E6A39C0D9FF63
:1031F0003AC0DAFF3BC0DEFF3CC0DEFF3DC0DEFF71
:103200003EC0DEFF63CF3BF03C6A3D6A3E6A3DC094
:103210003EF03CC03DF03BC03CF03B6A39C0D9FFBA
:103220003AC0DAFF3B50DE263C50DE223D50DE2223
:103230003E50DE2262A00CD039C0D9FF3AC0DAFF7E
:10324000000EDE12000EDE12010EDE12000EDE1285
:1032500062A20CD039C0D9FF3AC0DAFF000EDE12EC
:10326000000EDE12020EDE12000EDE1262AA0CD07A
:1032700039C0D9FF3AC0DAFF000EDE12000EDE12AE
:10328000040EDE12000EDE1262AC0CD039C0D9FF83
:103290003AC0DAFF000EDE12000EDE12080EDE1259
:1032A000000EDE1262AE0CD039C0D9FF3AC0DAFF90
:1032B000000EDE12000EDE12100EDE12000EDE1206
:1032C00061CF3BF03C6A3D6A3E6A150ED8903B36B2
:1032D0003C363D363E36E82EF9D739C0D9FF3AC0E4
:1032E000DAFF3B50DE123C50DE123D50DE123E5003
:1032F000DE12609E12000001A551800B0001B26F2A
:103300000001A551A5250001B46F0001A4AF02D0B2
:103310000001B4810001B4510001D8B412D0000101
:10332000B429D8A409D0000E0001A26F000EA36F2B
:10333000000EA46F000EA56F0001A48F000E000107
:1033400008D0000E0001A26F000EA36F000EA46F44
:10335000000EA56F0001A951800B0001B36F0001A1
:10336000B2510001B319D8B402D00001B28D0001EE
:10337000A951A9250001B36F0001A8AF02D0000137
:10338000B3810001B3510001D8B412D00001B329B8
:10339000D8A409D0000E0001A66F000EA76F000E82
:1033A000A86F000EA96F0001A88F000E000108D0C1
:1033B000000E0001A66F000EA76F000EA86F000E92
:1033C000A96F0001B4510001B35DD8B024D0000151
:1033D000B2AD03D0800E0001B21BB4C0B5F0B3C0D3
:1033E000B4F0B5C0B3F0A2C0B5F0A6C0A2F0B5C0AD
:1033F000A6F0A3C0B5F0A7C0A3F0B5C0A7F0A4C0C5
:10340000B5F0A8C0A4F0B5C0A8F0A5C0B5F0A9C09B
:10341000A5F0B5C0A9F0000E0001B56F0001B451D0
:103420000001AA6FAB6B0001AA1FAB1FAA4BAB2B0D
:103430000001B3510001AC6FAD6B0001AA51000156
:10344000AC270001AB510001AD230001ADBF3DD061
:103450000001AD5105E11A0E0001AC5DD8A035D0D8
:103460000001A2510001A3110001A4110001A51146
:10347000D8B402D0010E01D0000E0001B56F000ECD
:103480000001A26F000EA36F000EA46F000EA56FC7
:10349000B3C0B4F020D00001B5A107D00001D8908E
:1034A000B53101090001B56F03D00001D890B533E3
:1034B0000001A2A102D00001B58F0001A535A533FE
:1034C000A433A333A2330001B42B0001B351000194
:1034D000B45DD8A0E0D70001B2BD3FD00001B45127
:1034E0000001D8A40AD0000E0001A26F000EA36F45
:1034F000000EA46F000EA56F12000001A65100017E
:10350000A2270001A7510001A3230001A851000137
:10351000A4230001A9510001A5230001A5A1CCD03D
:103520000001B5A109D00001D890B5330001B55113
:1035300001090001B56F03D00001D890B533000137
:10354000A2A102D00001B58F0001A535A533A43397
:10355000A333A2330001B42BAFD00001A651000168
:10356000A25D0001A7510001A3590001A85100016B
:10357000A4590001A551800A0001AA6F0001A951B8
:10358000800A0001AA59D8B050D0A2C0AAF0A3C0A6
:10359000ABF0A4C0ACF0A5C0ADF00001AA1FAB1FFA
:1035A000AC1FAD1FAA2B000EAB23AC23AD23000133
:1035B000A6510001AA250001AE6F0001A75100012C
:1035C000AB210001AF6F0001A8510001AC21000147
:1035D000B06F0001A9510001AD210001B16FFF0ED4
:1035E0000001AE250001A26FFF0E0001AF21000116
:1035F000A36FFF0E0001B0210001A46FFF0E0001B8
:10360000B1210001A56F800E0001B21B0001B56D54
:103610000001B5510001D8A418D0010E0001A22765
:10362000000EA323A423A52310D00001A65100015E
:10363000A25F0001A7510001A35B0001A851000196
:10364000A45B0001A9510001A55B0001A25100018A
:10365000A3110001A4110001A511D8A42AD00001D2
:10366000B5510001D8A425D0000E0001A26F000EB4
:10367000A36F000EA46F000EA56F12000001D8907A
:10368000A237A337A437A5370001B5AF02D0000198
:10369000A2810001B5A103D0D880000102D00001B1
:1036A000D890B5370001B4510001D8B402D0000160
:1036B000B4070001A4AFE2D7000E0001B36F000110
:1036C000B5AF0DD0B5C0AAF07F0E0001AA17D8A4DF
:1036D00003D00001A2A103D0010E0001B36F0001CD
:1036E000B3510001D8B426D0010E0001A227000E6C
:1036F000A323A423A5230001A5A11CD0A2C0AAF046
:10370000A3C0ABF0A4C0ACF0A5C0ADF00001AD35D6
:10371000AD33AC33AB33AA33AAC0A2F0ABC0A3F035
:10372000ACC0A4F0ADC0A5F00001B429D8B402D05B
:103730000001B42B0001B429D8B405D00001B45164
:103740000001D8A411D0000E0001A26F000EA36FDB
:10375000000EA46F000EA56F0001B4510001D8A4A3
:1037600003D0000E0001B26F0001B4A103D000012C
:10377000A48F02D00001A49F0001D890B4310001B1
:10378000A56F0001B2AF02D00001A58FA2C0A2F0C8
:10379000A3C0A3F0A4C0A4F0A5C0A5F0120000012E
:1037A0007F51800B0001886F00017F517F25000150
:1037B0008E6F00017EAF02D000018E8100018E511C
:1037C0000001D8B410D000018E29D8A409D0000E71
:1037D00000017C6F000E7D6F000E7E6F000E7F6F0C
:1037E00000017E8F09D0000E00017C6F000E7D6FFE
:1037F000000E7E6F000E7F6F00018351800B000171
:10380000881B0001835183250001896F000182AF6D
:1038100002D000018981000189510001D8B410D083
:1038200000018929D8A409D0000E0001806F000E84
:10383000816F000E826F000E836F0001828F09D0AE
:10384000000E0001806F000E816F000E826F000E6F
:10385000836F000189510001D8B405D000018E5159
:103860000001D8A40AD0000E00017C6F000E7D6F0D
:10387000000E7E6F000E7F6F12000001825100016A
:103880007C03F3CF93F0F4CF94F000019351000147
:103890008A6F8B6B8C6B8D6B0001945100018F6F65
:1038A000906B916B926B0001815100017D03F3CF0E
:1038B00093F0F4CF94F00001935100018A27000E99
:1038C0008B238C238D230001945100018F27000E40
:1038D0009023912392230001805100017E03F3CFB6
:1038E00093F0F4CF94F00001935100018A27000E69
:1038F0008B238C238D230001945100018F27000E10
:103900009023912392238CC08DF08BC08CF08AC0C1
:103910008BF000018A6B0001805100017D03F3CF21
:1039200093F0F4CF94F00001935100018A27000135
:10393000945100018B23000E00018C23000E000126
:103940008D230001815100017C03F3CF93F0F4CF6C
:1039500094F00001935100018A2700019451000165
:103960008B23000E00018C23000E00018D238CC0E0
:103970008DF08BC08CF08AC08BF000018A6B000147
:10398000805100017C03F3CF93F0F4CF94F0000159
:10399000935100018A270001945100018B23000EEE
:1039A00000018C23000E00018D23000182510001D3
:1039B0007D03F3CF93F0F4CF94F000019351000115
:1039C0008F270001945100019023000E00019123E4
:1039D000000E000192230001815100017E03F3CF0C
:1039E00093F0F4CF94F00001935100018F27000170
:1039F000945100019023000E00019123000E00015C
:103A000092230001825100017E03F3CF93F0F4CFA3
:103A100094F0000193510001846F00019451000162
:103A2000856F0001866B0001876B86C087F085C0BB
:103A300086F084C085F00001846B00018451000190
:103A40008F2700018551000190230001865100015C
:103A5000912300018751000192238AC084F08BC01A
:103A600085F08CC086F08DC087F0190E06D000015D
:103A7000D8908733863385338433E82EF8D7000116
:103A8000845100018F27000185510001902300011E
:103A900086510001912300018751000192238CC0BF
:103AA0008DF08BC08CF08AC08BF000018A6B000116
:103AB00089518EC084F00001856B00018427000EBF
:103AC0008523820E000184250001936FFF0E000103
:103AD00085210001946F15D00001D8908F37903761
:103AE0009137923700018DAF02D000018F81000124
:103AF000D8908A378B378C378D3700019307D8A041
:103B00009407000191AFE8D7000E0001896F000112
:103B10008DAF24D0FF0E00018A150001846FFF0EC7
:103B200000018B150001856FFF0E00018C1500014F
:103B3000866F7F0E00018D150001876F0001845193
:103B4000000185110001861100018711D8A403D05E
:103B500000018FA103D0010E0001896F000189517E
:103B60000001D8B423D0010E00018F27000E90234E
:103B700091239223000192A119D08FC084F090C0AC
:103B800085F091C086F092C087F0000187358733B9
:103B900086338533843384C08FF085C090F086C02F
:103BA00091F087C092F00001934B942B000194BFD9
:103BB00010D00001945104E100019329D8A009D04C
:103BC000000E00018F6F000E906F800E916F7F0EC0
:103BD0002BD0000194BF07D00001945111E10001E6
:103BE0009305D8B00DD0000E00018F6F000E906FBE
:103BF000000E916F000E926F000E0001886F15D0BD
:103C000093C08EF0FF0E00018F17FF0E90177F0EEE
:103C10009117000E921700018EA102D00001918F22
:103C20000001D8908E310001926F0001885100018F
:103C300092138FC07CF090C07DF091C07EF092C056
:103C40007FF0120000017F51800B0001886F00019E
:103C50007F517F250001936F00017EAF02D00001EC
:103C60009381000193510001D8B412D0000193292F
:103C7000D8A409D0000E00017C6F000E7D6F000EED
:103C80007E6F000E7F6F00017E8F000E000108D056
:103C9000000E00017C6F000E7D6F000E7E6F000E27
:103CA0007F6F00018351800B0001881B000183514D
:103CB00083250001946F000182AF02D0000194813E
:103CC000000194510001D8B412D000019429D8A465
:103CD00009D0000E0001806F000E816F000E826F10
:103CE000000E836F0001828F000E000108D0000ECD
:103CF0000001806F000E816F000E826F000E836FD7
:103D00000001805100018111000182110001831125
:103D1000D8A417D0000E00017C6F000E7D6F000E3E
:103D20007E6F000E7F6F0001800E7E137F0E7F136B
:103D30007CC07CF07DC07DF07EC07EF07FC07FF0D7
:103D40001200000193510001D8A412D0000E00010E
:103D50007C6F000E7D6F000E7E6F000E7F6F7CC04B
:103D60007CF07DC07DF07EC07EF07FC07FF01200D1
:103D7000000194510001846F856B0001841F851F31
:103D8000844B852B000193510001866F876B0001E6
:103D900084510001862700018551000187237F0E91
:103DA0000001862500018D6F000E000187210001B2
:103DB0008E6F7CC089F07DC08AF07EC08BF07FC0A2
:103DC0008CF0000E00017C6F000E7D6F000E7E6F88
:103DD000000E7F6F000E00018F6F000E906F000EBF
:103DE000916F000E926F000E0001946F42D000019F
:103DF00094510001D8B417D00001D89089378A3780
:103E00008B378C370001D8907C377D377E377F37F2
:103E1000000192AF02D000017C810001D8908F3761
:103E2000903791379237000180510001895D000180
:103E3000815100018A590001825100018B59000112
:103E4000835100018C59D8A012D00001928D00013D
:103E500080510001895F0001815100018A5B0001EE
:103E6000825100018B5B0001835100018C5B0001DA
:103E7000942B190E00019465BAD7000189510001F5
:103E80008A1100018B1100018C11D8B418D00001E7
:103E90008F8115D00001D8907C377D377E377F37F2
:103EA000000192AF02D000017C810001D8908F37D1
:103EB00090379137923700018D07D8A08E07000107
:103EC0007EAFE8D7000E0001946F000192AF24D0BE
:103ED000FF0E00018F150001846FFF0E0001901589
:103EE0000001856FFF0E000191150001866F7F0EA6
:103EF000000192150001876F0001845100018511B6
:103F00000001861100018711D8A403D000017CA113
:103F100003D0010E0001946F000194510001D8B448
:103F200023D0010E00017C27000E7D237E237F23FA
:103F300000017FA119D07CC084F07DC085F07EC0D7
:103F400086F07FC087F0000187358733863385335D
:103F5000843384C07CF085C07DF086C07EF087C04D
:103F60007FF000018D4B8E2B00018EBF14D000011D
:103F70008E5104E100018D29D8A00DD0000E000162
:103F80008E6F8D69000E00017C6F000E7D6F000E3C
:103F90007E6F000E7F6F00018EBF07D000018E5133
:103FA00015E100018D05D8B011D0000E00018E6F13
:103FB000000E8D6F000E00017C6F000E7D6F000EF5
:103FC0007E6F000E7F6F000E0001886F8DC093F032
:103FD000000193A103D000017E8F02D000017E9FDB
:103FE0000001D890933100017F6F000188510001DA
:103FF0007F137CC07CF07DC07DF07EC07EF07FC0F2
:104000007FF012000001776F00017705D8A456D029
:1040100000017229D8A452D06EC073F06FC074F042
:1040200070C075F071C076F0040E06D00001D89013
:104030007633753374337333E82EF8D773C078F062
:1040400074C079F075C07AF076C07BF000017851C9
:104050000001786F796B7A6B7B6B78C018FF070E65
:1040600000016E150001786F000E00016F15000150
:10407000796F000E0001701500017A6F000E0001CB
:10408000711500017B6F78C073F079C074F07AC04D
:1040900075F07BC076F0050ED89000017337743749
:1040A00075377637E82EF8D773C078F074C079F09A
:1040B00075C07AF076C07BF078C019FF020E00015F
:1040C0007719D8A456D000017229D8A452D06EC056
:1040D00073F06FC074F070C075F071C076F0040EAC
:1040E00006D00001D8907633753374337333E82EDD
:1040F000F8D773C078F074C079F075C07AF076C0E4
:104100007BF0000178510001786F796B7A6B7B6BE3
:1041100078C01CFF070E00016E150001786F000EBD
:1041200000016F150001796F000E0001701500018C
:104130007A6F000E0001711500017B6F78C073F07B
:1041400079C074F07AC075F07BC076F0050ED89017
:1041500000017337743775377637E82EF8D773C098
:1041600078F074C079F075C07AF076C07BF078C0D2
:104170001DFF00017705D8A487D0F70E0001721942
:10418000D8A482D000016E510001786F796B7A6BF0
:104190007B6B78C01BFF000E00016E150001786F6D
:1041A000FF0E00016F150001796F000E0001701500
:1041B00000017A6F000E0001711500017B6F78C05D
:1041C00073F079C074F07AC075F07BC076F074C07B
:1041D00073F075C074F076C075F00001766B73C033
:1041E00078F074C079F075C07AF076C07BF078C052
:1041F0001AFF000170A103D00F01198102D00F0135
:104200001991000170A303D00F01198302D00F018F
:104210001993000170A503D00F01198B02D00F0173
:10422000199B000170A703D00F01198D02D00F0157
:10423000199D000170A903D00F01198F02D00F0141
:10424000199F6EC073F06FC074F070C075F071C0CC
:1042500076F0160E06D00001D8907633753374339D
:104260007333E82EF8D773C078F074C079F075C056
:104270007AF076C07BF0000178510001786F796B9D
:104280007A6B7B6B78C018FF020E00017719D8A4F7
:104290001200F70E00017219D8A4120000016E512D
:1042A0000001786F796B7A6B7B6B78C01FFF000E13
:1042B00000016E150001786FFF0E00016F150001FF
:1042C000796F000E0001701500017A6F000E000179
:1042D000711500017B6F78C073F079C074F07AC0FB
:1042E00075F07BC076F074C073F075C074F076C062
:1042F00075F00001766B73C078F074C079F075C00A
:104300007AF076C07BF078C01EFF000170A103D068
:104310000F011D8102D00F011D91000170A303D078
:104320000F011D8302D00F011D93000170A503D062
:104330000F011D8B02D00F011D9B000170A703D040
:104340000F011D8D02D00F011D9D000170A903D02A
:104350000F011D8F02D00F011D9F6EC073F06FC043
:1043600074F070C075F071C076F0160E06D00001C2
:10437000D8907633753374337333E82EF8D773C01F
:1043800078F074C079F075C07AF076C07BF00001E7
:1043900078510001786F796B7A6B7B6B78C01CFF6A
:1043A00012000001A16F6D0E0001A165CDD0000EBD
:1043B0000001776F0A0E766F000E0001716F640EB8
:1043C000706FA1C06EF000016F6BCAECADF06EC0F3
:1043D00074F06FC075F0A8ECABF00001D8907437A2
:1043E00075370001D89074377537240E0001742793
:1043F000000E00017523B50E00017425F66EFE0E49
:1044000000017521F76EF86A000EF8220900F5CF59
:1044100080F00900F5CF81F00900F5CF82F00A00A5
:10442000F5CF83F0000E0001776F640E766FA1C0A8
:1044300074F00001756BA8ECABF00001D8907437F4
:1044400075370001D89074377537480E000174270E
:10445000000E00017523B50E00017425F66EFE0EE8
:1044600000017521F76EF86A000EF8220900F5CFF9
:104470007CF00900F5CF7DF00900F5CF7EF00A0051
:10448000F5CF7FF0CFEC9BF07CC09DF07DC09EF01F
:104490007EC09FF07FC0A0F0000E0001716F0A0E79
:1044A000706FA1C06EF000016F6BCAECADF000013F
:1044B000D8906E376F370001D8906E376F37B50ED2
:1044C00000016E25F66EFE0E00016F21F76EF86A90
:1044D000000EF8220900F5CF80F00900F5CF81F039
:1044E0000900F5CF82F00A00F5CF83F09DC07CF083
:1044F0009EC07DF09FC07EF0A0C07FF0CFEC9BF00F
:104500007CC099F07DC09AF07EC09BF07FC09CF08B
:1045100099C07CF09AC07DF09BC07EF09CC07FF07B
:10452000000E0001806F000E816F000E826F3F0E43
:10453000836FCFEC9BF07CC095F07DC096F07EC081
:1045400097F07FC098F012000A0E0001A16578D0A4
:10455000000E0001716F0A0E706FA1C06EF00001B5
:104560006F6BCAECADF00001D8906E376F37000169
:10457000D8906E376F37B50E00016E25F66EFE0EC1
:1045800000016F21F76EF86A000EF8220900F5CFDE
:1045900080F00900F5CF81F00900F5CF82F00A0024
:1045A000F5CF83F0000E0001776F0A0E766FA1C081
:1045B00074F00001756BA8ECABF00001D890743773
:1045C00075370001D89074377537240E00017427B1
:1045D000000E00017523B50E00017425F66EFE0E67
:1045E00000017521F76EF86A000EF8220900F5CF78
:1045F0007CF00900F5CF7DF00900F5CF7EF00A00D0
:10460000F5CF7FF0CFEC9BF07CC09DF07DC09EF09D
:104610007EC09FF07FC0A0F09DC07CF09EC07DF06A
:104620009FC07EF0A0C07FF0000E0001806F000EE2
:10463000816F000E826F3F0E836FCFEC9BF07BD7B4
:104640000001A151040DB50EF324F66EFE0EF42008
:10465000F76EF86A000EF8220900F5CF7CF0090029
:10466000F5CF7DF00900F5CF7EF00A00F5CF7FF0A1
:10467000000E0001806F000E816F000E826F3F0EF2
:10468000836FCFEC9BF07CC095F07DC096F07EC030
:1046900097F07FC098F012000001766F000176510C
:1046A0000001D8B41ED0000171AF1BD06EC072F0F3
:1046B0006FC073F070C074F071C075F00001721FAC
:1046C000731F741F751F722B000E732374237523C1
:1046D00072C078F073C079F074C07AF075C07BF066
:1046E00008D06EC078F06FC079F070C07AF071C0F9
:1046F0007BF000016E5100016F110001701100018B
:104700007111D8A40AD0000E00016E6F000E6F6FF9
:10471000000E706F000E716F1200960E0001776F21
:1047200008D00001772B0001D8907B337A3379339E
:104730007833000E000178150001726F000E000141
:1047400079150001736F000E00017A150001746F76
:10475000FE0E00017B150001756F00017251000112
:1047600073110001741100017511D8B410D0D9D79C
:104770000001772B010E00017827000E79237A23A0
:104780007B230001D8907B337A3379337833000E62
:10479000000178150001726F000E0001791500010B
:1047A000736F000E00017A150001746FFF0E000197
:1047B0007B150001756F000172510001731100013A
:1047C000741100017511D8B409D0D2D70001770750
:1047D0000001D890783779377A377B3700017ABF74
:1047E00004D0020E00017761F1D7000177B109D042
:1047F000FF0E00017817FF0E79177F0E7A17FF0E54
:104800007B170001D890773377C072F00001736B8B
:10481000746B756B72C075F00001746B736B726BA7
:1048200000017251000178130001735100017913E6
:104830000001745100017A130001755100017B13CE
:10484000000176510001D8B405D0000171AF02D04B
:1048500000017B8F78C06EF079C06FF07AC070F085
:104860007BC071F012000001856F800E29ECB1F061
:10487000000E706E000E716E000E726E00017E41B1
:10488000E842C00B00017E6F00017E5170120001F2
:104890007F51701200018551711200017C39E8428C
:1048A000F80B00017C6F00017C517112000180A5A2
:1048B000718C000180B1718E00017D517212000176
:1048C00080B3728C00018051600B606E00018051DA
:1048D000100BFF0AD8B4608460CF50FF000E0001B7
:1048E0006E6F000E6F6F000E706F000E716FF70E1F
:1048F0000001726F010E02ECA0F0000E00016E6F5D
:10490000000E6F6F000E706F000E716FF70E0001DA
:10491000726F020E02ECA0F00FD0F70E0001866F4E
:1049200007D0000186690001876928D000018669E7
:10493000F70E0001876F22D09F0E0001816FFF0EDE
:104940000001826F00018051600B0001836F846B56
:104950000001815100018313000182510001841381
:1049600000018451000AD8A4E1D700018351BF0A95
:10497000D8B4D7D7600AD8B4D0D7D8D7000E0001A2
:104980006E6F000E6F6F000E706F000E716F86C03D
:1049900072F0000E00EC80F0000E00016E6F000E51
:1049A0006F6F000E706F000E716F86C072F0010E97
:1049B00000EC80F0000E00016E6F000E6F6F000EB5
:1049C000706F000E716F87C072F0020E00EC80F005
:1049D000000E00016E6F000E6F6F000E706F000E04
:1049E000716F87C072F0030E00EC80F0000E0001C2
:1049F0006E6F000E6F6F000E706F000E716F87C0CC
:104A000072F0040E00EC80F0000E00016E6F000EDC
:104A10006F6F000E706F000E716F87C072F0050E21
:104A200000EC80F0000E29ECB1F0120021EE07F04E
:104A300010EE8FF0050EDBCFE3FFE806FCE28F0EF1
:104A400000017E6F000E00017F6F86C080F087C07E
:104A500081F0000E0001836F0A0E826F94ECAFF0BC
:104A6000000188510001D8B4B8D000018851010D6F
:104A70008F0EF324D96E000EF420DA6E000EDF6E76
:104A800070D0000188050001956F0001955100016B
:104A9000D8B467D0FF0E00018A6FFF0E00018B6F44
:104AA0000001955100018C6F8D6B00018A5100014E
:104AB0008C2700018B5100018D238F0E00018C2566
:104AC000D96E000E00018D21DA6E00019551010DA5
:104AD0008F0EF324E16E000EF420E26EDFCFE7FFCD
:104AE00000018905D8A41DD0FF0E00018A6FFF0EBA
:104AF00000018B6F0001955100018C6F8D6B0001DF
:104B00008A5100018C2700018B5100018D238F0EEB
:104B100000018C25D96E000E00018D21DA6E200E69
:104B20001CD0FF0E00018A6FFF0E00018B6F000189
:104B3000955100018C6F8D6B00018A5100018C270B
:104B400000018B5100018D238F0E00018C25D96E41
:104B5000000E00018D21DA6E300EDF6E0001950728
:104B600094D7FF0E00018A6FFF0E00018B6F0001CA
:104B7000885100018C6F8D6B00018A5100018C27D8
:104B800000018B5100018D238F0E00018C25D96E01
:104B9000000E00018D21DA6E3A0EDF6072D7FF0E33
:104BA00000018A6FFF0E00018B6F00018851000128
:104BB0008C6F8D6B00018A5100018C2700018B5195
:104BC00000018D238F0E00018C25D96E000E00018F
:104BD0008D21DA6E2F0EDF6454D78F0E00017F6FA8
:104BE000000E0001806FACECB0F01200BFECB0F032
:104BF000E806D8A4FBD7060E00016E6F000E6F6F9B
:104C0000000E706F000E716FEF0E0001726F000EDC
:104C10000001736F080E0001746FFC0E0001756FC8
:104C2000CDEC89F0E0C06EF0E1C06FF00001706B78
:104C3000716B000E4CECA3F06EC07CF06FC07DF089
:104C400070C07EF071C07FF0000E0001806F000E1A
:104C5000816F8B0E826F430E836F22EC9EF07CC0BF
:104C600001F07DC002F07EC003F07FC004F01C0E96
:104C70000001C06F010E0001C16FFA0E0001C26F8A
:104C8000FF0E0001C36F01C0C4F002C0C5F003C035
:104C9000C6F004C0C7F083EC85F0000E0101276F59
:104CA0004AAC32D0100EF5ECA9F07EECB0F0010E5B
:104CB00032ECABF06F0E00017F6FFF0E0001806FD2
:104CC0004BECB0F0020E32ECABF0B80E00017F6F8F
:104CD000FF0E0001806F4BECB0F0030E32ECABF036
:104CE000990E00017F6FFF0E0001806F4BECB0F05A
:104CF000040E32ECABF0E40E00017F6FFF0E0001FA
:104D0000806F4BECB0F04A9C020E00017D6F0C0EE0
:104D1000FFECB0F00001EB51D8B416D00001E8056B
:104D2000D8A409D0F00E00017F6FFF0E0001806F44
:104D30004BECB0F011D0F50E00017F6FFF0E0001BB
:104D4000806F4BECB0F008D0EB0E00017F6FFF0ED0
:104D50000001806F4BECB0F0030E00017D6F080E78
:104D6000FFECB0F01C0E00017F6F010E0001806FA0
:104D7000ACECB0F0040E00017D6F070EFFECB0F05C
:104D8000E6C086F0E7C087F0000E0001886F010ED4
:104D90000001896F16ECA5F0120070C076F00001DA
:104DA000776B786B00016F350001763701E377810F
:104DB0000001765100017E6F00017E51D8A40AD017
:104DC000000E00016E6F000E6F6F000E706F000E10
:104DD000716F120074C076F00001776B786B000180
:104DE00073350001763701E37781000176510001C8
:104DF0007D6F00017D51D8A40AD0000E00016E6FB6
:104E0000000E6F6F000E706F000E716F12000001C8
:104E10006F8FFF0E00016E17FF0E00016F17000E5F
:104E2000000170170001738FFF0E00017217FF0E53
:104E300000017317000E00017417000E0001796F56
:104E4000000E7A6F000E7B6F000E7C6F7F0E0001EC
:104E50007E5F00017D51980F00017E5F180E0001FA
:104E60007D6F0001D89079377A377B377C37000126
:104E7000725100016E5D0001735100016F59000114
:104E8000745100017059D8A00ED000017251000178
:104E90006E5F0001735100016F5B000174510001EE
:104EA000705B000179810001D8906E376F377037E1
:104EB00000017D2FD6D700017EAF1AD000017E51B0
:104EC000800A970FD8B00AD0000E00016E6F000E56
:104ED0006F6F000E706F000E716F12000001D8909E
:104EE0007C337B337A33793300017E3FF7D71BD095
:104EF000170E00017E6512D0000E00016E6F000ECD
:104F00006F6F000E706F000E716F12000001D8906D
:104F100079377A377B377C3700017E0700017E5175
:104F20000001D8A4F3D779C06EF07AC06FF07BC0CF
:104F300070F07CC071F01200E9CF62F0EACF63F04C
:104F4000E1CF64F0E2CF65F0D9CF66F0DACF67F059
:104F5000F3CF68F0F4CF69F0F6CF6AF0F7CF6BF0DB
:104F6000F8CF6CF0F5CF6DF0A4A2A4B001D093D02F
:104F700034ECB1F00009D8B48AD00D0E396E010EB0
:104F80003A6EF5EC96F001011BA102D04A8801D0DF
:104F90004A980DC105F00EC106F00FC107F010C10F
:104FA00008F04A8E060E0518061007100810D8A43F
:104FB0001AD0000E496E070E496401D014D0495032
:104FC000010D110EF324D96E010EF420DA6E495052
:104FD000010D000EF324E16E010EF420E26EDFCF2E
:104FE000E7FF492AE8D70B0E05180610071008102E
:104FF000D8A406D001011105D8A402D04B824A944E
:105000000E0E0518061007100810D8A408D00101CC
:1050100012A102D04B8401D04B9411C1EAF0AA0E28
:105020000518061007100810D8A404D011C1E6F026
:105030000001E76B020E0518061007100810D8B41F
:105040004AA825D01DC015F01EC016F01FC017F0CD
:1050500020C018F0030E276E0D0EE82EFED700F0CC
:10506000E2ECB0F0E806D8A4FBD7020E396E000ED1
:105070003A6E000E3B6E000E3C6E270E3D6E000E2B
:105080003E6E080E3F6EBC0E406E20EC91F08C849C
:105090008C86A492A4906DC0F5FF6CC0F8FF6BC025
:1050A000F7FF6AC0F6FF69C0F4FF68C0F3FF67C08E
:1050B000DAFF66C0D9FF65C0E2FF64C0E1FF63C0EC
:1050C000EAFF62C0E9FF61C0FBFF60C0FAFF4C92DB
:1050D0001100000E00016E150001766F000E000138
:1050E0006F150001776F800E000170150001786F59
:1050F0007F0E000171150001796F000176510001EA
:1051000077110001781100017911D8A409D0000E9F
:1051100000016E6F000E6F6F000E706F000E716FEA
:10512000000E000172150001766F000E000173156C
:105130000001776F800E000174150001786F7F0EFB
:10514000000175150001796F00017651000177119A
:105150000001781100017911D8A409D0000E0001D6
:10516000726F000E736F000E746F000E756F00018A
:1051700071AF26D06EC076F06FC077F070C078F057
:1051800071C079F00001761F771F781F791F762B89
:10519000000E772378237923000E00017625000185
:1051A0006E6F000E0001772100016F6F000E00018D
:1051B00078210001706F800E000179210001716F6C
:1051C000000175AF26D072C076F073C077F074C05E
:1051D00078F075C079F00001761F771F781F791F6E
:1051E000762B000E772378237923000E0001762595
:1051F0000001726F000E000177210001736F000E35
:10520000000178210001746F800E000179210001F6
:10521000756F000E00016E1B000E6F1B000E701BE1
:10522000800E711B000E0001721B000E731B000E1E
:10523000741B800E751B0001725100016E5D000130
:10524000735100016F590001745100017059000140
:10525000755100017159D8B002D0D8901200D88091
:10526000120000017035713500017B6F00017B5128
:10527000D8A40AD0000E00016E6F000E6F6F000EF2
:10528000706F000E716F12000001743575350001EA
:105290007A6F00017A51D8A40AD0000E00016E6F17
:1052A000000E6F6F000E706F000E716F1200000124
:1052B000708FFF0E00016E17FF0E6F17FF0E701735
:1052C000000E71170001748FFF0E00017217FF0EA0
:1052D0007317FF0E7417000E7517000E0001766F1E
:1052E000000E776F000E786F000E796F7F0E000151
:1052F0007B5F00017A51A00F00017B5F200E00014F
:105300007A6F0001D8907637773778377937000190
:10531000725100016E5D0001735100016F5900016F
:105320007451000170590001755100017159D8A0E4
:1053300012D00001725100016E5F00017351000133
:105340006F5B000174510001705B00017551000139
:10535000715B000176810001D8906E376F3770372E
:10536000713700017A2FCDD700017BAF1AD0000131
:105370007B51800A9F0FD8B00AD0000E00016E6FDB
:10538000000E6F6F000E706F000E716F1200000143
:10539000D890793378337733763300017B3FF7D772
:1053A0001BD01F0E00017B6512D0000E00016E6F36
:1053B000000E6F6F000E706F000E716F1200000113
:1053C000D890763777377837793700017B07000137
:1053D0007B510001D8A4F3D776C06EF077C06FF090
:1053E00078C070F079C071F0120000017C6F00018C
:1053F0007C513FECB1F08D948B928B90000E0001AC
:10540000756F640E746FF7ECAFF0000E0001766FED
:10541000010E0001776F010E0001786F000EDAECCB
:10542000AFF0000E0001756F640E746FF7ECAFF013
:10543000000E0001766F010E0001776F010E000172
:10544000786F000EDAECAFF0000E0001756F0A0EF7
:10545000746FF7ECAFF0000E0001766F010E0001E3
:10546000776F010E0001786F000EDAECAFF0000EDE
:105470000001766F010E0001776F000E0001786F5A
:10548000000EDAECAFF0000E0001766F010E0001A5
:10549000776F000E0001786F000EDAECAFF0000EAF
:1054A0000001766F000E0001776F000E0001786F2B
:1054B000010EDAECAFF0000E0001766F000E000175
:1054C000776F000E0001786F000EDAECAFF0000E7F
:1054D0000001766F000E0001776F000E0001786FFB
:1054E000010EDAECAFF0000E0001766F000E000145
:1054F000776F000E0001786F000EDAECAFF0000E4F
:105500000001766F000E0001776F010E0001786FC9
:10551000000EDAECAFF0000E0001766F000E000115
:10552000776F000E0001786F000EDAECAFF0010E1D
:105530000001766F010E0001776F000E0001786F99
:10554000000EDAECAFF07EECB0F0000E00017A6FE6
:10555000000E65ECB0F012000001B835B93500015D
:10556000BF6F0001BF51D8A40AD0000E0001B66F72
:10557000000EB76F000EB86F000EB96F1200B6C004
:10558000BAF0B7C0BBF0B8C0BCF0B9C0BDF0200ED7
:1055900006D00001D890BD33BC33BB33BA33E82EFC
:1055A000F8D70001BA510001BE6F0001B88FFF0E9D
:1055B0000001B617FF0EB717FF0EB817000EB91788
:1055C000960E0001BF5F0001BFAF1AD00001BF51AE
:1055D000800A970FD8B00AD0000E0001B66F000EF7
:1055E000B76F000EB86F000EB96F12000001D890AF
:1055F000B933B833B733B6330001BF3FF7D71BD049
:105600001F0E0001BF6512D0000E0001B66F000E24
:10561000B76F000EB86F000EB96F12000001D8907E
:10562000B637B737B837B9370001BF070001BF51E8
:105630000001D8A4F3D70001BE510001D8B409D0AD
:105640000001B91FB81FB71FB66D000EB723B823EE
:10565000B923B6C0B6F0B7C0B7F0B8C0B8F0B9C09B
:10566000B9F0120000017A6F64D0000E0001766F6D
:10567000000E0001776F000E0001786F010EDAEC6A
:10568000AFF0000E0001766F000E0001776F000E84
:105690000001786F000EDAECAFF01200010E00018D
:1056A000766F000E0001776F000E0001786F010E1B
:1056B000DAECAFF0000E0001766F000E0001776F9C
:1056C000000E0001786F000EDAECAFF01200000E51
:1056D0000001766F000E0001776F010E0001786FF8
:1056E000010EDAECAFF0010E0001766F000E000142
:1056F000776F000E0001786F000EDAECAFF0120049
:10570000010E0001766F000E0001776F010E00019F
:10571000786F010EDAECAFF0010E0001766F000E2B
:105720000001776F000E0001786F000EDAECAFF029
:10573000120000017A51010AD8B497D7030AD8B4ED
:10574000ADD7010AD8B4C3D7070AD8A41200D8D756
:10575000000E0001796F000177AF08D00001766D6F
:10576000771FD8B0772B010E0001796F000175AF5C
:1057700008D00001746D751FD8B0752B010E0001A3
:10578000791B000E00017B6F000E7A6F00017651CD
:1057900000017711D8B42CD0010E0001786F06D02B
:1057A0000001D890763777370001782B000177AF6A
:1057B000F7D70001D8907A377B3700017651000186
:1057C000745D0001775100017559D8A00AD000011D
:1057D00076510001745F000177510001755B000193
:1057E0007A810001D890773376330001782FE1D7A2
:1057F000000179510001D8B405D000017A6D7B1FFA
:10580000D8B07B2B7AC074F07BC075F0120077C0E3
:105810007BF078C07CF07BC06EF07CC06FF079C00C
:1058200070F07AC071F0B3ECAEF06EC07BF06FC078
:105830007CF00001754B762B00017B5100017C113F
:10584000D8A4E9D775C0D9FF76C0DAFF000EDF6EA5
:1058500000017507D8A0760777C06EF078C06FF0AA
:1058600079C070F07AC071F0EFECAEF000016E51CB
:1058700000017D6F77C06EF078C06FF079C070F076
:105880007AC071F0B3ECAEF06EC077F06FC078F014
:10589000090E00017D6503D0070E00017D27300E43
:1058A00000017D2775C0D9FF76C0DAFF7DC0DFFF1C
:1058B00000017507D8A07607000177510001781123
:1058C000D8A4CAD70001754B762B1200000E000138
