:0400000060EF00F0BD
:0E0008004D82FACF62F0FBCF63F0BCEFA8F0A0
:100018004D80D8CF29F0E8CF2AF0E0CF2BF0FACFE7
:100028002CF0FBCF2DF0E9CF2EF0EACF2FF0E1CF67
:1000380030F0E2CF31F0D9CF32F0DACF33F0F3CF6E
:1000480034F0F4CF35F0F6CF36F0F7CF37F0F8CFFD
:1000580038F0F5CF39F0A1A20BD0010E1C26000E06
:100068001D221E221F22630EB36EC00EB26EA19215
:1000780039C0F5FF38C0F8FF37C0F7FF36C0F6FFC4
:1000880035C0F4FF34C0F3FF33C0DAFF32C0D9FF04
:1000980031C0E2FF30C0E1FF2FC0EAFF2EC0E9FF08
:1000A8002DC0FBFF2CC0FAFF2BC0E0FF2AC0E8FFE1
:0C00B80029C0D8FF4D90100040EFAFF0C1
:10FEB400000000803FCDCCCC3D0AD7233C6F128399
:10FEC4003A17B7D138ACC52737BD37863595BFD675
:10FED4003377CC2B325F708930FFE6DB2E08E53CAC
:10FEE4001E6042A20D0000803F000020410000C8B7
:10FEF4004200007A4400401C460050C3470024746A
:10FF0400498096184B20BCBE4C286B6E4EF90215E6
:10FF140050EC78AD60CAF24971010000000A00009B
:10FF24000064000000E803000010270000A0860120
:10FF34000040420F008096980000E1F50500CA9A3F
:10FF44003B20205072657373207468652062757459
:10FF5400746F6E2020003D3D3E2056454849434C79
:10FF64004520204F4646203C3D3D003D3D3D20562A
:10FF7400454849434C452044415441203D3D3D00C2
:10FF84003D3D3D3D3D3D3D3D3D3D3D3D3D3D3D3D9D
:10FF94003D3D3D3D0053706565643A20302E303060
:10FFA400204B6D2F68005061726B2061737369730D
:10FFB400743A2000446972656374696F6E3A200074
:10FFC4004F46462020202000464F554E4421200015
:10FFD40053454152434820005041524B494E47003B
:10FFE400446174613A200050202020004657442088
:0CFFF40000424B574400252E32660000EE
:020000040001F9
:100000000001796F000179510001D8A458D0000196
:100010007429D8A454D00F01019770C075F071C035
:1000200076F072C077F073C078F0040E06D000014D
:10003000D8907833773376337533E82EF8D775C098
:100040007AF076C07BF077C07CF078C07DF000015C
:100050007A5100017A6F7B6B7C6B7D6B7AC000FFFD
:10006000070E0001701500017A6F000E0001711576
:1000700000017B6F000E0001721500017C6F000E05
:100080000001731500017D6F7AC075F07BC076F0BA
:100090007CC077F07DC078F0050ED89000017537F0
:1000A000763777377837E82EF8D775C07AF076C08C
:1000B0007BF077C07CF078C07DF07AC001FF000152
:1000C0007905D8A458D000017429D8A454D00F01C0
:1000D000059770C075F071C076F072C077F073C08C
:1000E00078F0040E06D00001D89078337733763359
:1000F0007533E82EF8D775C07AF076C07BF077C0FC
:100100007CF078C07DF000017A5100017A6F7B6B42
:100110007C6B7D6B7AC004FF070E00017015000137
:100120007A6F000E0001711500017B6F000E000157
:10013000721500017C6F000E0001731500017D6FC8
:100140007AC075F07BC076F07CC077F07DC078F027
:10015000050ED89000017537763777377837E82E57
:10016000F8D775C07AF076C07BF077C07CF078C0A5
:100170007DF07AC005FF020E00017919D8A458D08D
:1001800000017429D8A454D00F01099770C075F0EC
:1001900071C076F072C077F073C078F0040E06D0AC
:1001A0000001D8907833773376337533E82EF8D75B
:1001B00075C07AF076C07BF077C07CF078C07DF0B7
:1001C00000017A5100017A6F7B6B7C6B7D6B7AC08A
:1001D00008FF070E0001701500017A6F000E000184
:1001E000711500017B6F000E0001721500017C6F1C
:1001F000000E0001731500017D6F7AC075F07BC0A1
:1002000076F07CC077F07DC078F0050ED8900001C4
:100210007537763777377837E82EF8D775C07AF0A4
:1002200076C07BF077C07CF078C07DF07AC009FFA3
:10023000030E00017919D8A458D000017429D8A45C
:1002400054D00F010D9770C075F071C076F072C078
:1002500077F073C078F0040E06D00001D8907833A0
:10026000773376337533E82EF8D775C07AF076C0D9
:100270007BF077C07CF078C07DF000017A510001FE
:100280007A6F7B6B7C6B7D6B7AC00CFF070E000175
:10029000701500017A6F000E0001711500017B6F6F
:1002A000000E0001721500017C6F000E0001731535
:1002B00000017D6F7AC075F07BC076F07CC077F06E
:1002C0007DC078F0050ED890000175377637773706
:1002D0007837E82EF8D775C07AF076C07BF077C013
:1002E0007CF078C07DF07AC00DFF040E0001791912
:1002F000D8A458D000017429D8A454D00F01119764
:1003000070C075F071C076F072C077F073C078F08D
:10031000040E06D00001D8907833773376337533E6
:10032000E82EF8D775C07AF076C07BF077C07CF005
:1003300078C07DF000017A5100017A6F7B6B7C6B95
:100340007D6B7AC010FF070E0001701500017A6FF7
:10035000000E0001711500017B6F000E0001721587
:1003600000017C6F000E0001731500017D6F7AC0E3
:1003700075F07BC076F07CC077F07DC078F0050E1C
:10038000D89000017537763777377837E82EF8D769
:1003900075C07AF076C07BF077C07CF078C07DF0D5
:1003A0007AC011FF050E00017919D8A458D00001B8
:1003B0007429D8A454D00F01159770C075F071C07E
:1003C00076F072C077F073C078F0040E06D00001AA
:1003D000D8907833773376337533E82EF8D775C0F5
:1003E0007AF076C07BF077C07CF078C07DF00001B9
:1003F0007A5100017A6F7B6B7C6B7D6B7AC014FF46
:10040000070E0001701500017A6F000E00017115D2
:1004100000017B6F000E0001721500017C6F000E61
:100420000001731500017D6F7AC075F07BC076F016
:100430007CC077F07DC078F0050ED890000175374C
:10044000763777377837E82EF8D775C07AF076C0E8
:100450007BF077C07CF078C07DF07AC015FF00019A
:1004600079510001D8A489D0F70E00017419D8A4DD
:1004700084D00F0101870001705100017A6F7B6BFE
:100480007C6B7D6B7AC003FF000E000170150001CC
:100490007A6FFF0E0001711500017B6F000E0001E5
:1004A000721500017C6F000E0001731500017D6F55
:1004B0007AC075F07BC076F07CC077F07DC078F0B4
:1004C00076C075F077C076F078C077F00001786B71
:1004D00075C07AF076C07BF077C07CF078C07DF094
:1004E0007AC002FF000172A103D00F01018102D086
:1004F0000F010191000172A303D00F01018302D00B
:100500000F010193000172A503D00F01018B02D0EE
:100510000F01019B000172A703D00F01018D02D0D2
:100520000F01019D000172A903D00F01018F02D0BC
:100530000F01019F70C075F071C076F072C077F046
:1005400073C078F0160E06D00001D8907833773358
:1005500076337533E82EF8D775C07AF076C07BF025
:1005600077C07CF078C07DF000017A5100017A6F8D
:100570007B6B7C6B7D6B7AC000FF00017905D8A492
:1005800089D0F70E00017419D8A484D00F01058713
:100590000001705100017A6F7B6B7C6B7D6B7AC0C0
:1005A00007FF000E0001701500017A6FFF0E0001B9
:1005B000711500017B6F000E0001721500017C6F48
:1005C000000E0001731500017D6F7AC075F07BC0CD
:1005D00076F07CC077F07DC078F076C075F077C09B
:1005E00076F078C077F00001786B75C07AF076C04D
:1005F0007BF077C07CF078C07DF07AC006FF000108
:1006000072A103D00F01058102D00F0105910001F5
:1006100072A303D00F01058302D00F0105930001DF
:1006200072A503D00F01058B02D00F01059B0001BD
:1006300072A703D00F01058D02D00F01059D0001A7
:1006400072A903D00F01058F02D00F01059F70C062
:1006500075F071C076F072C077F073C078F0160E46
:1006600006D00001D8907833773376337533E82E8F
:10067000F8D775C07AF076C07BF077C07CF078C090
:100680007DF000017A5100017A6F7B6B7C6B7D6B92
:100690007AC004FF020E00017919D8A489D0F70EA0
:1006A00000017419D8A484D00F010987000170518A
:1006B00000017A6F7B6B7C6B7D6B7AC00BFF000E49
:1006C0000001701500017A6FFF0E00017115000125
:1006D0007B6F000E0001721500017C6F000E00019F
:1006E000731500017D6F7AC075F07BC076F07CC019
:1006F00077F07DC078F076C075F077C076F078C07E
:1007000077F00001786B75C07AF076C07BF077C027
:100710007CF078C07DF07AC00AFF000172A103D09E
:100720000F01098102D00F010991000172A303D0CA
:100730000F01098302D00F010993000172A503D0B4
:100740000F01098B02D00F01099B000172A703D092
:100750000F01098D02D00F01099D000172A903D07C
:100760000F01098F02D00F01099F70C075F071C091
:1007700076F072C077F073C078F0160E06D00001E4
:10078000D8907833773376337533E82EF8D775C041
:100790007AF076C07BF077C07CF078C07DF0000105
:1007A0007A5100017A6F7B6B7C6B7D6B7AC008FF9E
:1007B000030E00017919D8A489D0F70E000174192D
:1007C000D8A484D00F010D870001705100017A6F09
:1007D0007B6B7C6B7D6B7AC00FFF000E0001701588
:1007E00000017A6FFF0E0001711500017B6F000E92
:1007F0000001721500017C6F000E000173150001ED
:100800007D6F7AC075F07BC076F07CC077F07DC0DC
:1008100078F076C075F077C076F078C077F0000198
:10082000786B75C07AF076C07BF077C07CF078C0CA
:100830007DF07AC00EFF000172A103D00F010D817F
:1008400002D00F010D91000172A303D00F010D839F
:1008500002D00F010D93000172A503D00F010D8B83
:1008600002D00F010D9B000172A703D00F010D8D67
:1008700002D00F010D9D000172A903D00F010D8F51
:1008800002D00F010D9F70C075F071C076F072C07C
:1008900077F073C078F0160E06D00001D890783348
:1008A000773376337533E82EF8D775C07AF076C093
:1008B0007BF077C07CF078C07DF000017A510001B8
:1008C0007A6F7B6B7C6B7D6B7AC00CFF040E000132
:1008D0007919D8A489D0F70E00017419D8A484D04E
:1008E0000F0111870001705100017A6F7B6B7C6BE7
:1008F0007D6B7AC013FF000E0001701500017A6F46
:10090000FF0E0001711500017B6F000E00017215D2
:1009100000017C6F000E0001731500017D6F7AC02D
:1009200075F07BC076F07CC077F07DC078F076C043
:1009300075F077C076F078C077F00001786B75C0FD
:100940007AF076C07BF077C07CF078C07DF07AC01A
:1009500012FF000172A103D00F01118102D00F011B
:100960001191000172A303D00F01118302D00F0176
:100970001193000172A503D00F01118B02D00F015A
:10098000119B000172A703D00F01118D02D00F013E
:10099000119D000172A903D00F01118F02D00F0128
:1009A000119F70C075F071C076F072C077F073C09F
:1009B00078F0160E06D00001D8907833773376336E
:1009C0007533E82EF8D775C07AF076C07BF077C023
:1009D0007CF078C07DF000017A5100017A6F7B6B6A
:1009E0007C6B7D6B7AC010FF050E00017919D8A4CD
:1009F0001200F70E00017419D8A412000F01158718
:100A00000001705100017A6F7B6B7C6B7D6B7AC04B
:100A100017FF000E0001701500017A6FFF0E000134
:100A2000711500017B6F000E0001721500017C6FD3
:100A3000000E0001731500017D6F7AC075F07BC058
:100A400076F07CC077F07DC078F076C075F077C026
:100A500076F078C077F00001786B75C07AF076C0D8
:100A60007BF077C07CF078C07DF07AC016FF000183
:100A700072A103D00F01158102D00F011591000161
:100A800072A303D00F01158302D00F01159300014B
:100A900072A503D00F01158B02D00F01159B000129
:100AA00072A703D00F01158D02D00F01159D000113
:100AB00072A903D00F01158F02D00F01159F70C0CE
:100AC00075F071C076F072C077F073C078F0160ED2
:100AD00006D00001D8907833773376337533E82E1B
:100AE000F8D775C07AF076C07BF077C07CF078C01C
:100AF0007DF000017A5100017A6F7B6B7C6B7D6B1E
:100B00007AC014FF1200C60E01012D6F000E010104
:100B10002E6FB5EF89F0250E01014119D8B408D028
:100B2000C2C0D9FFC3C0DAFF41C1DFFFB2EF89F015
:100B3000000E0101306F000E2F6FC4C0F6FFC5C05C
:100B4000F7FF000EF86E0800F5502E0AD8A43DD02D
:100B50000101308D0001C44BC52B000E01013C6F1B
:100B6000000E3B6F25D03BC170F03CC171F0000E10
:100B70000001736F0A0E726FB8ECAFF0C4C0F6FFDD
:100B8000C5C0F7FF000EF86E0800F5500001702791
:100B9000000E00017123D00E0001702501013B6F92
:100BA000FF0E0001712101013C6F0001C44BC52BF8
:100BB000C4C0F6FFC5C0F7FF000EF86E0800F55080
:100BC0001FECB0F0D8A00CD0CED7000E01013C6FC6
:100BD000000E3B6F0101308903D00101308515D033
:100BE000C4C0F6FFC5C0F7FF0001C44BC52B000E03
:100BF000F86E0800F5CF41F101014151000AD8B467
:100C0000C5D3660AD8B4E9D7B0D3070E01013015B1
:100C1000D8B453D3010130A905D0000E01013C6FB7
:100C2000060E3B6F2DC1D9FF2EC1DAFFDECF3DF19D
:100C3000DECF3EF1DECF3FF1DECF40F1040E010109
:100C40002D27000E2E23010140AF15D03DC197F096
:100C50003EC198F03FC199F040C19AF09CECAFF0D2
:100C600097C03DF198C03EF199C03FF19AC040F164
:100C7000030E01012F13000E0101366F000E356FB8
:100C800001013D5101013E1101013F1101014011DE
:100C9000D8B48ED001013F354035820F0101356F48
:100CA0000101366BFF0E362301013507D8A0360748
:100CB00035C170F036C171F0000E0001736F030E84
:100CC000726FB8ECAFF070C035F171C036F135C15C
:100CD00076F036C177F0000E0001796F0A0E786F5A
:100CE00032ECABF076C035F177C036F1010136AFAA
:100CF00004D001013507D8A036070101355100089D
:100D0000FCEC93F097C037F198C038F199C039F1F5
:100D10009AC03AF137C17EF038C17FF039C180F016
:100D20003AC181F03DC182F03EC183F03FC184F001
:100D300040C185F063EC9BF07EC037F17FC038F195
:100D400080C039F181C03AF137C170F038C171F01B
:100D500039C172F03AC173F0000E0001746F000ED9
:100D6000756F800E766F3F0E776F30ECA7F0000145
:100D7000D8B005D001013507D8A0360719D037C142
:100D800070F038C171F039C172F03AC173F0000EE1
:100D90000001746F000E756F200E766F410E776F35
:100DA00030ECA7F00001D8A003D00101354B362B61
:100DB00001013CBF08D001013C5123E10D0E0101AE
:100DC0003B5DD8B01ED03DC1A4F03EC1A5F03FC1EF
:100DD000A6F040C1A7F001013B5165ECA1F097C01E
:100DE000A8F098C0A9F099C0AAF09AC0ABF00FEC97
:100DF00099F0A4C03DF1A5C03EF1A6C03FF1A7C047
:100E000040F1010136BF08D0010136512EE10A0E32
:100E10000101355DD8B029D001013D5101013E11DC
:100E200001013F1101014011D8B46DD03DC1B8F0AE
:100E30003EC1B9F03FC1BAF040C1BBF036ECAAF0F8
:100E40000001B8510001B9110001BA110001BB1134
:100E5000D8A459D0010136BF56D00101365105E161
:100E6000020E0101355DD8A04ED037C170F038C1F7
:100E700071F039C172F03AC173F05F0E0001746F06
:100E8000700E756F890E766F400E776F30ECA7F09D
:100E90000001D8B003D00101F70E02D00101F80E15
:100EA0003527FF0E362301013551FCEC93F097C036
:100EB00037F198C038F199C039F19AC03AF13DC183
:100EC00070F03EC171F03FC172F040C173F037C1A4
:100ED00074F038C175F039C176F03AC177F0F8ECAA
:100EE000A7F070C031F171C032F172C033F173C03C
:100EF00034F1000E01013D6F000E3E6F000E3F6F9A
:100F0000000E406F3CD03DC1B8F03EC1B9F03FC1CA
:100F1000BAF040C1BBF036ECAAF0B8C031F1B9C0AC
:100F200032F1BAC033F1BBC034F13DC1B8F03EC1BB
:100F3000B9F03FC1BAF040C1BBF031C170F032C16D
:100F400071F033C172F034C173F0000EE0ECA2F026
:100F500070C0BCF071C0BDF072C0BEF073C0BFF015
:100F6000F8ECAEF0B8C03DF1B9C03EF1BAC03FF107
:100F7000BBC040F1000E0101366F000E356F010E4F
:100F80000101416F0A0E01014119D8B421D00101BC
:100F90004151040D1D0EF324F66EFF0EF420F76E82
:100FA000F86A000EF8220900F5500101315D0900D0
:100FB000F550010132590900F5500101335909007A
:100FC000F55001013459D8A003D00101412BDAD7E3
:100FD000030E01012F150001CA6F000E010130152B
:100FE0000001CB6F0001CA510001CB11D8B458D019
:100FF000C2C0D9FFC3C0DAFF2D0E50D00001C24BD2
:10100000C32B4ED031C170F032C171F033C172F0D8
:1010100034C173F001014151040D1D0EF324F66E2D
:10102000FF0EF420F76EF86A000EF8220900F5CFE3
:1010300074F00900F5CF75F00900F5CF76F00A00DD
:10104000F5CF77F0F0ECABF070C037F171C038F14C
:1010500072C039F173C03AF137C170F038C171F024
:1010600039C172F03AC173F00A0E0001746F000EBC
:10107000756F000E766F000E776FA3ECADF070C049
:1010800037F171C038F172C039F173C03AF1010122
:101090003751300FC2C0D9FFC3C0DAFFDF6EAED701
:1010A0000101410701014129D8B40ED0ABD7C2C01C
:1010B000D9FFC3C0DAFF300EDF6E0001C24BC32B75
:1010C00001013507D8A03607010136BF07D001015D
:1010D0003651EDE101013505D8B0E9D701013CBF3A
:1010E0000CD001013C5105E1090E01013B5DD8A086
:1010F00004D0080E0101416F02D03BC141F1010152
:10110000415101013B5F000E010141BFFF0E010192
:101110003C5B010141510101D8B409D0C2C0D9FFE3
:10112000C3C0DAFF2E0EDF6E0001C24BC32B0101DC
:101130004151FCEC93F097C029F198C02AF199C075
:101140002BF19AC02CF13DC182F03EC183F03FC12A
:1011500084F040C185F029C17EF02AC17FF02BC107
:1011600080F02CC181F063EC9BF07EC0B8F07FC0B2
:10117000B9F080C0BAF081C0BBF036ECAAF0B8C0BC
:1011800031F1B9C032F1BAC033F1BBC034F17AD019
:1011900031C170F032C171F033C172F034C173F0FB
:1011A00001014151040D1D0EF324F66EFF0EF420D3
:1011B000F76EF86A000EF8220900F5CF74F0090006
:1011C000F5CF75F00900F5CF76F00A00F5CF77F08E
:1011D000F0ECABF070C037F171C038F172C039F18A
:1011E00073C03AF137C170F038C171F039C172F093
:1011F0003AC173F00A0E0001746F000E756F000E95
:10120000766F000E776FA3ECADF070C037F171C050
:1012100038F172C039F173C03AF101013751300F22
:10122000C2C0D9FFC3C0DAFFDF6E0001C24BC32BBF
:1012300031C170F032C171F033C172F034C173F05A
:1012400001014151040D1D0EF324F66EFF0EF42032
:10125000F76EF86A000EF8220900F5CF74F0090065
:10126000F5CF75F00900F5CF76F00A00F5CF77F0ED
:10127000A3ECADF070C031F171C032F172C033F146
:1012800073C034F10101410701014129D8B40ED0E6
:101290007FD7C2C0D9FFC3C0DAFF300EDF6E0001B6
:1012A000C24BC32B01013B07D8A03C0701013B51B6
:1012B00001013C11D8B459D0ECD701013B510101D7
:1012C0003C11D8A40DD001013151010132110101AD
:1012D000331101013411D8A403D001013B4B3C2B45
:1012E000800E010141BF7F0E0001CA6F01013B5119
:1012F0000101415D01013C51800A0001CA59D8B089
:1013000003D03BC141F118D001013C51800A0001DA
:10131000CA6F0101415101013B5D800E010141BFD6
:101320007F0E0001CA59D8B007D001014151010117
:101330003B6F3C6B3BBF3C07030E01012F150001C7
:10134000CA6F000E010130150001CB6F0001CA51B8
:101350000001CB11D8B409D0C2C0D9FFC3C0DAFF95
:101360002D0EDF6E0001C24BC32BC4C0F6FFC5C0FB
:10137000F7FF0001C44BC52B000EF86E0800F5CF37
:1013800041F101014151D8A48BEF85F0C2C0D9FFD2
:10139000C3C0DAFF000EDF6E12000F0140B73FD16D
:1013A00076C045FF000177AD03D00F01458D02D017
:1013B0000F01459D000177A779D000017051000110
:1013C0007C6F7D6B7E6B7F6B7CC044FF000E0001E9
:1013D000701500017C6FFF0E0001711500017D6F1B
:1013E000000E0001721500017E6F000E00017315E2
:1013F00000017F6F7CC078F07DC079F07EC07AF00C
:101400007FC07BF079C078F07AC079F07BC07AF049
:1014100000017B6B78C07CF079C07DF07AC07EF0F3
:101420007BC07FF07CC043FF000E0F01426F0F01B5
:101430004287000172A102D00F014281000172A314
:1014400002D00F014283000172A502D00F01428B2E
:10145000000172A702D00F01428D000172A902D0D3
:101460000F01428F70C078F071C079F072C07AF0CD
:1014700073C07BF0160E06D00001D8907B337A3310
:1014800079337833E82EF8D778C07CF079C07DF0D6
:101490007AC07EF07BC07FF000017C5100017C6F40
:1014A0007D6B7E6B7F6B7CC041FF59D00F014297F3
:1014B00070C078F071C079F072C07AF073C07BF0C0
:1014C000040E06D00001D8907B337A337933783319
:1014D000E82EF8D778C07CF079C07DF07AC07EF035
:1014E0007BC07FF000017C5100017C6F7D6B7E6BC7
:1014F0007F6B7CC041FF070E0001701500017C6FFF
:10150000000E0001711500017D6F000E00017215C3
:1015100000017E6F000E0001731500017F6F7CC01B
:1015200078F07DC079F07EC07AF07FC07BF0050E48
:10153000D8900001783779377A377B37E82EF8D79B
:1015400078C07CF079C07DF07AC07EF07BC07FF0FF
:101550000F0142511F0B0F01426F7CC042FF00017F
:1015600077A103D00F01408102D00F01409100010B
:1015700077A303D00F01408302D00F01409374C0C2
:10158000D9FF75C0DAFFDF500F01466F000120EE72
:1015900001F07451D9267551DA22DF500F01476FDF
:1015A000000120EE02F07451D9267551DA22DF5085
:1015B0000F01486F000120EE03F07451D9267551D8
:1015C000DA22DF500F01496F000120EE04F0745160
:1015D000D9267551DA22DF500F014A6F000120EE43
:1015E00005F07451D9267551DA22DF500F014B6F87
:1015F000000120EE06F07451D9267551DA22DF5031
:101600000F014C6F000120EE07F07451D92675517F
:10161000DA22DF500F014D6F0F01408712000F01DA
:1016200030B73FD176C035FF000177AD03D00F0151
:10163000358D02D00F01359D000177A779D00001CB
:10164000705100017C6F7D6B7E6B7F6B7CC034FFC3
:10165000000E0001701500017C6FFF0E0001711576
:1016600000017D6F000E0001721500017E6F000EFB
:101670000001731500017F6F7CC078F07DC079F0A8
:101680007EC07AF07FC07BF079C078F07AC079F0C4
:101690007BC07AF000017B6B78C07CF079C07DF074
:1016A0007AC07EF07BC07FF07CC033FF000E0F015C
:1016B000326F0F013287000172A102D00F01328117
:1016C000000172A302D00F013283000172A502D083
:1016D0000F01328B000172A702D00F01328D000181
:1016E00072A902D00F01328F70C078F071C079F00A
:1016F00072C07AF073C07BF0160E06D00001D8904D
:101700007B337A3379337833E82EF8D778C07CF09E
:1017100079C07DF07AC07EF07BC07FF000017C5103
:1017200000017C6F7D6B7E6B7F6B7CC031FF59D07D
:101730000F01329770C078F071C079F072C07AF002
:1017400073C07BF0040E06D00001D8907B337A334F
:1017500079337833E82EF8D778C07CF079C07DF003
:101760007AC07EF07BC07FF000017C5100017C6F6D
:101770007D6B7E6B7F6B7CC031FF070E00017015A7
:1017800000017C6F000E0001711500017D6F000EDD
:101790000001721500017E6F000E0001731500013B
:1017A0007F6F7CC078F07DC079F07EC07AF07FC01A
:1017B0007BF0050ED8900001783779377A377B3780
:1017C000E82EF8D778C07CF079C07DF07AC07EF042
:1017D0007BC07FF00F0132511F0B0F01326F7CC0B5
:1017E00032FF000177A103D00F01308102D00F0139
:1017F0003091000177A303D00F01308302D00F0195
:10180000309374C0D9FF75C0DAFFDF500F01366F17
:10181000000120EE01F07451D9267551DA22DF5013
:101820000F01376F000120EE02F07451D926755177
:10183000DA22DF500F01386F000120EE03F07451FF
:10184000D9267551DA22DF500F01396F000120EEE1
:1018500004F07451D9267551DA22DF500F013A6F26
:10186000000120EE05F07451D9267551DA22DF50BF
:101870000F013B6F000120EE06F07451D92675511F
:10188000DA22DF500F013C6F000120EE07F07451A7
:10189000D9267551DA22DF500F013D6F0F013087D5
:1018A00012000F0120B7120076C025FF000177ADAE
:1018B00003D00F01258D02D00F01259D000177A7D0
:1018C00079D00001705100017C6F7D6B7E6B7F6B66
:1018D0007CC024FF000E0001701500017C6FFF0E1C
:1018E0000001711500017D6F000E000172150001ED
:1018F0007E6F000E0001731500017F6F7CC078F0D1
:101900007DC079F07EC07AF07FC07BF079C078F03E
:101910007AC079F07BC07AF000017B6B78C07CF0F4
:1019200079C07DF07AC07EF07BC07FF07CC023FF61
:10193000000E0F01226F0F012287000172A102D059
:101940000F012281000172A302D00F012283000146
:1019500072A502D00F01228B000172A702D00F01E5
:10196000228D000172A902D00F01228F70C078F081
:1019700071C079F072C07AF073C07BF0160E06D099
:101980000001D8907B337A3379337833E82EF8D757
:1019900078C07CF079C07DF07AC07EF07BC07FF0AB
:1019A00000017C5100017C6F7D6B7E6B7F6B7CC086
:1019B00021FF59D00F01229770C078F071C079F0E3
:1019C00072C07AF073C07BF0040E06D00001D8908C
:1019D0007B337A3379337833E82EF8D778C07CF0CC
:1019E00079C07DF07AC07EF07BC07FF000017C5131
:1019F00000017C6F7D6B7E6B7F6B7CC021FF070ECF
:101A00000001701500017C6F000E000171150001CE
:101A10007D6F000E0001721500017E6F000E000147
:101A2000731500017F6F7CC078F07DC079F07EC0B7
:101A30007AF07FC07BF0050ED890000178377937B7
:101A40007A377B37E82EF8D778C07CF079C07DF004
:101A50007AC07EF07BC07FF00F0122511F0B0F0177
:101A6000226F7CC022FF000177A103D00F012081EB
:101A700002D00F012091000177A303D00F01208332
:101A800002D00F01209374C0D9FF75C0DAFFDF5078
:101A90000F01266F000120EE01F07451D926755117
:101AA000DA22DF500F01276F000120EE02F074519F
:101AB000D9267551DA22DF500F01286F000120EE80
:101AC00003F07451D9267551DA22DF500F01296FC6
:101AD000000120EE04F07451D9267551DA22DF504E
:101AE0000F012A6F000120EE05F07451D9267551BF
:101AF000DA22DF500F012B6F000120EE06F0745147
:101B0000D9267551DA22DF500F012C6F000120EE2B
:101B100007F07451D9267551DA22DF500F012D6F6D
:101B20000F01208712000F0140B715D140C045FFBB
:101B300041AC03D00F01458D02D00F01459D41A658
:101B400066D03A50466E476A486A496A46C044FFC2
:101B5000000E3A14466EFF0E3B14476E000E3C1406
:101B6000486E000E3D14496E46C042F047C043F037
:101B700048C044F049C045F043C042F044C043F07F
:101B800045C044F0456A42C046F043C047F044C0F7
:101B900048F045C049F046C043FF000E0F01426FB8
:101BA0000F0142873CA002D00F0142813CA202D02B
:101BB0000F0142833CA402D00F01428B3CA602D00D
:101BC0000F01428D3CA802D00F01428F3AC042F073
:101BD0003BC043F03CC044F03DC045F0160E05D07C
:101BE000D8904532443243324232E82EF9D742C0CF
:101BF00046F043C047F044C048F045C049F0465065
:101C0000466E476A486A496A46C041FF4DD00F0197
:101C100042973AC042F03BC043F03CC044F03DC064
:101C200045F0040E05D0D89045324432433242325A
:101C3000E82EF9D742C046F043C047F044C048F010
:101C400045C049F04650466E476A486A496A46C0F0
:101C500041FF070E3A14466E000E3B14476E000E0D
:101C60003C14486E000E3D14496E46C042F047C019
:101C700043F048C044F049C045F0050ED8904236C4
:101C8000433644364536E82EF9D742C046F043C0C5
:101C900047F044C048F045C049F00F0142511F0BC6
:101CA0000F01426F46C042FF41A003D00F014081A7
:101CB00002D00F01409141A203D00F01408302D016
:101CC0000F0140933EC0D9FF3FC0DAFFDF500F0144
:101CD000466F20EE01F03E50D9263F50DA22DF5009
:101CE0000F01476F20EE02F03E50D9263F50DA2216
:101CF000DF500F01486F20EE03F03E50D9263F50D1
:101D0000DA22DF500F01496F20EE04F03E50D92651
:101D10003F50DA22DF500F014A6F20EE05F03E50AF
:101D2000D9263F50DA22DF500F014B6F20EE06F02C
:101D30003E50D9263F50DA22DF500F014C6F20EE83
:101D400007F03E50D9263F50DA22DF500F014D6F89
:101D50000F01408712000F0130B715D140C035FF89
:101D600041AC03D00F01358D02D00F01359D41A646
:101D700066D03A50466E476A486A496A46C034FFA0
:101D8000000E3A14466EFF0E3B14476E000E3C14D4
:101D9000486E000E3D14496E46C042F047C043F005
:101DA00048C044F049C045F043C042F044C043F04D
:101DB00045C044F0456A42C046F043C047F044C0C5
:101DC00048F045C049F046C033FF000E0F01326FA6
:101DD0000F0132873CA002D00F0132813CA202D019
:101DE0000F0132833CA402D00F01328B3CA602D0FB
:101DF0000F01328D3CA802D00F01328F3AC042F061
:101E00003BC043F03CC044F03DC045F0160E05D049
:101E1000D8904532443243324232E82EF9D742C09C
:101E200046F043C047F044C048F045C049F0465032
:101E3000466E476A486A496A46C031FF4DD00F0175
:101E400032973AC042F03BC043F03CC044F03DC042
:101E500045F0040E05D0D890453244324332423228
:101E6000E82EF9D742C046F043C047F044C048F0DE
:101E700045C049F04650466E476A486A496A46C0BE
:101E800031FF070E3A14466E000E3B14476E000EEB
:101E90003C14486E000E3D14496E46C042F047C0E7
:101EA00043F048C044F049C045F0050ED890423692
:101EB000433644364536E82EF9D742C046F043C093
:101EC00047F044C048F045C049F00F0132511F0BA4
:101ED0000F01326F46C032FF41A003D00F013081A5
:101EE00002D00F01309141A203D00F01308302D004
:101EF0000F0130933EC0D9FF3FC0DAFFDF500F0122
:101F0000366F20EE01F03E50D9263F50DA22DF50E6
:101F10000F01376F20EE02F03E50D9263F50DA22F3
:101F2000DF500F01386F20EE03F03E50D9263F50AE
:101F3000DA22DF500F01396F20EE04F03E50D9262F
:101F40003F50DA22DF500F013A6F20EE05F03E508D
:101F5000D9263F50DA22DF500F013B6F20EE06F00A
:101F60003E50D9263F50DA22DF500F013C6F20EE61
:101F700007F03E50D9263F50DA22DF500F013D6F67
:101F80000F01308712000F0120B7120040C025FF5B
:101F900041AC03D00F01258D02D00F01259D41A634
:101FA00066D03A50466E476A486A496A46C024FF7E
:101FB000000E3A14466EFF0E3B14476E000E3C14A2
:101FC000486E000E3D14496E46C042F047C043F0D3
:101FD00048C044F049C045F043C042F044C043F01B
:101FE00045C044F0456A42C046F043C047F044C093
:101FF00048F045C049F046C023FF000E0F01226F94
:102000000F0122873CA002D00F0122813CA202D006
:102010000F0122833CA402D00F01228B3CA602D0E8
:102020000F01228D3CA802D00F01228F3AC042F04E
:102030003BC043F03CC044F03DC045F0160E05D017
:10204000D8904532443243324232E82EF9D742C06A
:1020500046F043C047F044C048F045C049F0465000
:10206000466E476A486A496A46C021FF4DD00F0153
:1020700022973AC042F03BC043F03CC044F03DC020
:1020800045F0040E05D0D8904532443243324232F6
:10209000E82EF9D742C046F043C047F044C048F0AC
:1020A00045C049F04650466E476A486A496A46C08C
:1020B00021FF070E3A14466E000E3B14476E000EC9
:1020C0003C14486E000E3D14496E46C042F047C0B5
:1020D00043F048C044F049C045F0050ED890423660
:1020E000433644364536E82EF9D742C046F043C061
:1020F00047F044C048F045C049F00F0122511F0B82
:102100000F01226F46C022FF41A003D00F012081A2
:1021100002D00F01209141A203D00F01208302D0F1
:102120000F0120933EC0D9FF3FC0DAFFDF500F01FF
:10213000266F20EE01F03E50D9263F50DA22DF50C4
:102140000F01276F20EE02F03E50D9263F50DA22D1
:10215000DF500F01286F20EE03F03E50D9263F508C
:10216000DA22DF500F01296F20EE04F03E50D9260D
:102170003F50DA22DF500F012A6F20EE05F03E506B
:10218000D9263F50DA22DF500F012B6F20EE06F0E8
:102190003E50D9263F50DA22DF500F012C6F20EE3F
:1021A00007F03E50D9263F50DA22DF500F012D6F45
:1021B0000F012087120000ECADF0CF0E0001CC6FB4
:1021C000F70ECD6F330ECE6F3F0ECF6F000E0001B6
:1021D000D06F000ED16F200ED26F410ED36F4B8C9B
:1021E00079ECB0F0A3ECB0F095ECB0F04CB09DD031
:1021F000010E0001E46F000E0001E36F000EE26FBC
:102200005A0E0001EB6F000E0001E96F010E000194
:10221000EA6F4EECACF0100E7FECA9F0839C839A31
:10222000010EBCECAAF0840E0001816FFF0E0001CC
:10223000826FD3ECAFF0020EBCECAAF05A0E000194
:10224000816FFF0E0001826FD3ECAFF0030EBCEC88
:10225000AAF0450E0001816FFF0E0001826FD3ECE2
:10226000AFF0040EBCECAAF0840E0001816FFF0EEB
:102270000001826FD3ECAFF054D0D4C042F1D5C08E
:1022800043F1D6C044F1D7C045F10101421F431FBD
:10229000441F451F422B000E4323442345231C505B
:1022A000010142250101466F1D5001014321010139
:1022B000476F1E50010144210101486F1F50010169
:1022C00045210101496F01014951010148110101F5
:1022D000471105E11E0E0101465DD8A019D01CC0B2
:1022E000D4F01DC0D5F01EC0D6F01FC0D7F083AE0D
:1022F00002D0010E01D0000EFF0A0101426F010160
:10230000423342338350010142197F0B4219836EDD
:1023100079ECB0F0000E0001776F0A0E766F7FEC5B
:10232000AFF04CA0AAD7839E4B8CA8ECAEF080A453
:1023300004D0000E0001E66F0DD080B605D0010E6E
:102340000001E66F010E04D0020E0001E66F000EE0
:102350000001E46F4BA2C6D04C9A0001E751D8B4FB
:102360004BB42ED04C92010E0001E56F000E00011F
:10237000D06F000ED16F800ED26F3F0ED36F47EC3F
:10238000B0F00009D8B4FBD7010E0101216F0A0E8D
:102390000001706F000E716F000E726F000E736F90
:1023A000210E0001746F010E0001756F080E00010F
:1023B000766FBC0E0001776FCDEC89F00001E72B42
:1023C00018C042F119C043F11AC044F11BC045F1D5
:1023D0000101421F431F441F451F422B000E432390
:1023E000442345231C50010142250101466F1D5025
:1023F000010143210101476F1E50010144210101E8
:10240000486F1F50010145210101496F01014951E8
:10241000010148110101471105E11E0E0101465D50
:10242000D8A030D01CC018F01DC019F01EC01AF082
:102430001FC01BF04CB214D083AC02D0010E01D0EF
:10244000000EFF0A0101426F0101423B4247424731
:10245000835001014219BF0B4219836E839A12D037
:10246000838C83AA02D0010E01D0000EFF0A010165
:10247000426F0101423B4247835001014219DF0B89
:102480004219836E4BB44CA229D00001E851D8A464
:1024900062D0020E0001E56F47ECB0F00009D8B43D
:1024A000FBD70C0E0001706F000E716F000E726F83
:1024B000000E736F280E0001746F000E0001756F1F
:1024C000080E0001766FBC0E0001776FCDEC89F02D
:1024D000000E0001E76F0001E82B3DD0000E000167
:1024E000E86F39D0000E0001E76F000E0001E86FC1
:1024F0004B94839A839C4CBA2CD0000E0001E56F5C
:10250000000E0001D06F000ED16F700ED26F410E21
:10251000D36F47ECB0F00009D8B4FBD7000E01012F
:10252000216F0A0E0001706F000E716F000E726F46
:10253000000E736F210E0001746F010E0001756FA4
:10254000080E0001766FBC0E0001776FCDEC89F0AC
:102550004C8A839C839A000E0001A86F000EA96F1D
:10256000340EAA6F430EAB6FCCC082F0CDC083F0A7
:10257000CEC084F0CFC085F00001DC510001706F47
:10258000716B726B736B000EE0ECA2F070C07EF0AA
:1025900071C07FF072C080F073C081F063EC9BF07B
:1025A0007EC097F07FC098F080C099F081C09AF00B
:1025B0009CECAFF097C0A4F098C0A5F099C0A6F02D
:1025C0009AC0A7F00FEC99F0A4C0B8F0A5C0B9F07C
:1025D000A6C0BAF0A7C0BBF036ECAAF00001B85113
:1025E0000001EB6F0001E651D8B488D0840E0001E1
:1025F000DD6542D0D0C082F0D1C083F0D2C084F07B
:10260000D3C085F07E0E0101426FFF0E0101436FC2
:102610000001DD510101446F456B0101425101018F
:102620004427010143510101452344C170F045C1D4
:1026300071F00001000E71BFFF0E726F736F010E1B
:10264000E0ECA2F070C07EF071C07FF072C080F04C
:1026500073C081F063EC9BF07EC0B8F07FC0B9F02E
:1026600080C0BAF081C0BBF036ECAAF0B8C0E2F08E
:10267000B9C0E3F0000E40D0000E0001E36F000E81
:10268000E26F330E0001826F330E836FF30E846F9F
:102690003F0E856F0001DD510101426F436B010167
:1026A000421F431F424B432B820E01014227000E63
:1026B000432342C170F043C171F00001000E71BFAD
:1026C000FF0E726F736F010EE0ECA2F070C07EF02F
:1026D00071C07FF072C080F073C081F063EC9BF03A
:1026E0007EC0B8F07FC0B9F080C0BAF081C0BBF046
:1026F00036ECAAF00001B8510001E96F4BAE03D0EF
:10270000ABECACF04B9ED8C042F1D9C043F1DAC07B
:1027100044F1DBC045F10101421F431F441F451F27
:10272000422B000E4323442345231C500101422524
:102730000101466F1D50010143210101476F1E50E9
:10274000010144210101486F1F5001014521010190
:10275000496F01014951010148110101471105E18A
:10276000020E0101465DD8A00AD01CC0D8F01DC0E1
:10277000D9F01EC0DAF01FC0DBF04EECACF010C098
:1027800042F111C043F112C044F113C045F10101FF
:10279000421F431F441F451F422B000E4323442367
:1027A00045231C50010142250101466F1D500101C6
:1027B00043210101476F1E50010144210101486F6F
:1027C0001F50010145210101496F010149510101DA
:1027D00048110101471105E10A0E0101465DD8A02B
:1027E000FFD41CC010F01DC011F01EC012F01FC09D
:1027F00013F08AECA5F0F4D400019F6F00019FAFA5
:1028000045D100019F6D00019F51800A120FD8A091
:10281000BBD0000E0001796F0A0E786F000E000128
:10282000736F640E726F00019F510001706F716BC6
:1028300070BF710752ECADF070C076F071C077F0E8
:1028400032ECABF00001D890763777370001D890A2
:1028500076377737240E00017627000E00017723A4
:10286000B50E00017625F66EFE0E00017721F76E9B
:10287000F86A000EF8220900F5CF82F00900F5CFC2
:1028800083F00900F5CF84F00A00F5CF85F0000E43
:102890000001796F640E786F00019F510001766F1F
:1028A000776B76BF770732ECABF00001D8907637C4
:1028B00077370001D89076377737480E00017627B2
:1028C000000E00017723B50E00017625F66EFE0E90
:1028D00000017721F76EF86A000EF8220900F5CFA3
:1028E0007EF00900F5CF7FF00900F5CF80F00A00F7
:1028F000F5CF81F063EC9BF07EC09BF07FC09CF035
:1029000080C09DF081C09EF09BC07EF09CC07FF097
:102910009DC080F09EC081F0000E0001736F0A0E12
:10292000726F00019F510001706F716B70BF710772
:1029300052ECADF00001D890703771370001D8909B
:1029400070377137B50E00017025F66EFE0E00016E
:102950007121F76EF86A000EF8220900F5CF82F0B7
:102960000900F5CF83F00900F5CF84F00A00F5CF18
:1029700085F063EC9BF07EC097F07FC098F080C03C
:1029800099F081C09AF0120000019F51800A750FE2
:10299000D8A063D0000E0001796F0A0E786F000195
:1029A0009F510001766F776B76BF770732ECABF003
:1029B0000001D890763777370001D890763777378F
:1029C000240E00017627000E00017723B50E0001CA
:1029D0007625F66EFE0E00017721F76EF86A000E7E
:1029E000F8220900F5CF7EF00900F5CF7FF009004D
:1029F000F5CF80F00A00F5CF81F0000E0001736F73
:102A00000A0E726F00019F510001706F716B70BFF1
:102A1000710752ECADF00001D890703771370001AA
:102A2000D89070377137B50E00017025F66EFE0E26
:102A300000017121F76EF86A000EF8220900F5CF47
:102A400082F00900F5CF83F00900F5CF84F00A0089
:102A5000F5CF85F063EC9BF08ED700019F51040DFC
:102A6000B50EF324F66EFE0EF420F76EF86A000E33
:102A7000F8220900F5CF97F00900F5CF98F009008A
:102A8000F5CF99F00A00F5CF9AF0120000019F519E
:102A9000800A120FD8A0BBD0000E0001796F0A0E79
:102AA000786F000E0001736F640E726F00019F510A
:102AB0000001706F716B70BF710752ECADF070C0A8
:102AC00076F071C077F032ECABF00001D890763739
:102AD00077370001D89076377737240E00017627B4
:102AE000000E00017723E90E00017625F66EFE0E3A
:102AF00000017721F76EF86A000EF8220900F5CF81
:102B000082F00900F5CF83F00900F5CF84F00A00C8
:102B1000F5CF85F0000E0001796F640E786F00012B
:102B20009F510001766F776B76BF770732ECABF081
:102B30000001D890763777370001D890763777370D
:102B4000480E00017627000E00017723E90E0001F0
:102B50007625F66EFE0E00017721F76EF86A000EFC
:102B6000F8220900F5CF7EF00900F5CF7FF00900CB
:102B7000F5CF80F00A00F5CF81F063EC9BF07EC0CA
:102B80009BF07FC09CF080C09DF081C09EF09BC0F8
:102B90007EF09CC07FF09DC080F09EC081F0000E52
:102BA0000001736F0A0E726F00019F510001706F78
:102BB000716B70BF710752ECADF00001D8907037A7
:102BC00071370001D89070377137E90E0001702518
:102BD000F66EFE0E00017121F76EF86A000EF82203
:102BE0000900F5CF82F00900F5CF83F00900F5CF99
:102BF00084F00A00F5CF85F063EC9BF07EC097F07F
:102C00007FC098F080C099F081C09AF01200000156
:102C10009F51800A750FD8A063D0000E0001796F14
:102C20000A0E786F00019F510001766F776B76BFB7
:102C3000770732ECABF00001D89076377737000198
:102C4000D89076377737240E00017627000E0001E2
:102C50007723E90E00017625F66EFE0E000177213E
:102C6000F76EF86A000EF8220900F5CF7EF0090031
:102C7000F5CF7FF00900F5CF80F00A00F5CF81F0A5
:102C8000000E0001736F0A0E726F00019F51000168
:102C9000706F716B70BF710752ECADF00001D8908E
:102CA000703771370001D89070377137E90E000125
:102CB0007025F66EFE0E00017121F76EF86A000EA7
:102CC000F8220900F5CF82F00900F5CF83F0090062
:102CD000F5CF84F00A00F5CF85F063EC9BF08ED73A
:102CE00000019F51040DE90EF324F66EFE0EF42050
:102CF000F76EF86A000EF8220900F5CF97F0090088
:102D0000F5CF98F00900F5CF99F00A00F5CF9AF0C9
:102D10001200000E446E74BE448074BC44820F01E5
:102D200050AF43D13AC0D9FF3BC0DAFFDE6ADE6A5A
:102D3000DE6ADD6A20EE04F03A50D9263B50DA22F2
:102D400056CFDFFF20EE05F03A50D9263B50DA226D
:102D500057CFDFFF20EE06F03A50D9263B50DA225B
:102D600058CFDFFF20EE07F03A50D9263B50DA2249
:102D700059CFDFFF20EE08F03A50D9263B50DA2237
:102D80005ACFDFFF20EE09F03A50D9263B50DA2225
:102D90005BCFDFFF20EE0AF03A50D9263B50DA2213
:102DA0005CCFDFFF20EE0BF03A50D9263B50DA2201
:102DB0005DCFDFFF20EE0EF03A50D9263B50DA22ED
:102DC0000F0155AD02D0010E01D0000EDF6E20EED6
:102DD0000DF03A50D9263B50DA220F0155510F0B16
:102DE000DF6E20EE0CF03A50D9263B50DA220F016C
:102DF00052A702D0010E01D0000EDF6E0F0152B7B4
:102E000044D051CF3CF03D6A3E6A3F6A030ED890F1
:102E10003C363D363E363F36E82EF9D73AC0D9FF2C
:102E20003BC0DAFF3CC0DEFF3DC0DEFF3EC0DEFF40
:102E30003FC0DEFF0F015239E842070B070B456E1A
:102E40003AC0D9FF3BC0DAFFDECF3CF0DECF3DF029
:102E5000DECF3EF0DECF3FF045503C24406E000E0A
:102E60003D20416E000E3E20426E000E3F20436E1C
:102E70003AC0D9FF3BC0DAFF40C0DEFF41C0DEFFF1
:102E800042C0DEFF43C0DEFF8DD054CF3CF03D6A30
:102E90003E6A3F6A3AC0D9FF3BC0DAFF3CC0DEFF62
:102EA0003DC0DEFF3EC0DEFF3FC0DEFF53CF3CF043
:102EB0003D6A3E6A3F6A3EC03FF03DC03EF03CC0C6
:102EC0003DF03C6A3AC0D9FF3BC0DAFF3C50DE26F9
:102ED0003D50DE223E50DE223F50DE220F0152A145
:102EE0000CD03AC0D9FF3BC0DAFF000EDE12000E54
:102EF000DE12010EDE12000EDE120F0152A30CD004
:102F00003AC0D9FF3BC0DAFF000EDE12000EDE121F
:102F1000020EDE12000EDE120F0152AB0CD03AC0D0
:102F2000D9FF3BC0DAFF000EDE12000EDE12040EE7
:102F3000DE12000EDE120F0152AD0CD03AC0D9FFE6
:102F40003BC0DAFF000EDE12000EDE12080EDE12AB
:102F5000000EDE120F0152AF0CD03AC0D9FF3BC0B9
:102F6000DAFF000EDE12000EDE12100EDE12000E70
:102F7000DE1251CF3CF03D6A3E6A3F6A150ED89092
:102F80003C363D363E363F36E82EF9D73AC0D9FFBB
:102F90003BC0DAFF3C50DE123D50DE123E50DE12E6
:102FA0003F50DE120F01509F120060AE12003AC077
:102FB000D9FF3BC0DAFFDE6ADE6ADE6ADD6A20EE38
:102FC00004F03A50D9263B50DA2266CFDFFF20EEDC
:102FD00005F03A50D9263B50DA2267CFDFFF20EECA
:102FE00006F03A50D9263B50DA2268CFDFFF20EEB8
:102FF00007F03A50D9263B50DA2269CFDFFF20EEA6
:1030000008F03A50D9263B50DA226ACFDFFF20EE93
:1030100009F03A50D9263B50DA226BCFDFFF20EE81
:103020000AF03A50D9263B50DA226CCFDFFF20EE6F
:103030000BF03A50D9263B50DA226DCFDFFF20EE5D
:103040000EF03A50D9263B50DA2265AC02D0010E80
:1030500001D0000EDF6E20EE0DF03A50D9263B5025
:10306000DA2265500F0BDF6E20EE0CF03A50D926B5
:103070003B50DA2262A602D0010E01D0000EDF6EB4
:1030800062B643D061CF3CF03D6A3E6A3F6A030EB0
:10309000D8903C363D363E363F36E82EF9D73AC01A
:1030A000D9FF3BC0DAFF3CC0DEFF3DC0DEFF3EC0C3
:1030B000DEFF3FC0DEFF6238E842070B070B456EBC
:1030C0003AC0D9FF3BC0DAFFDECF3CF0DECF3DF0A7
:1030D000DECF3EF0DECF3FF045503C24406E000E88
:1030E0003D20416E000E3E20426E000E3F20436E9A
:1030F0003AC0D9FF3BC0DAFF40C0DEFF41C0DEFF6F
:1031000042C0DEFF43C0DEFF88D064CF3CF03D6AA2
:103110003E6A3F6A3AC0D9FF3BC0DAFF3CC0DEFFDF
:103120003DC0DEFF3EC0DEFF3FC0DEFF63CF3CF0B0
:103130003D6A3E6A3F6A3EC03FF03DC03EF03CC043
:103140003DF03C6A3AC0D9FF3BC0DAFF3C50DE2676
:103150003D50DE223E50DE223F50DE2262A00CD0E7
:103160003AC0D9FF3BC0DAFF000EDE12000EDE12BD
:10317000010EDE12000EDE1262A20CD03AC0D9FFA0
:103180003BC0DAFF000EDE12000EDE12020EDE126F
:10319000000EDE1262AA0CD03AC0D9FF3BC0DAFFA3
:1031A000000EDE12000EDE12040EDE12000EDE1223
:1031B00062AC0CD03AC0D9FF3BC0DAFF000EDE1281
:1031C000000EDE12080EDE12000EDE1262AE0CD011
:1031D0003AC0D9FF3BC0DAFF000EDE12000EDE124D
:1031E000100EDE12000EDE1261CF3CF03D6A3E6A28
:1031F0003F6A150ED8903C363D363E363F36E82EB7
:10320000F9D73AC0D9FF3BC0DAFF3C50DE123D503F
:10321000DE123E50DE123F50DE12609E12000001B0
:10322000A751800B0001B46F0001A751A725000131
:10323000B66F0001A6AF02D00001B6810001B65101
:103240000001D8B412D00001B629D8A409D0000ECC
:103250000001A46F000EA56F000EA66F000EA76FF1
:103260000001A68F000E000108D0000E0001A46F1F
:10327000000EA56F000EA66F000EA76F0001AB51E8
:10328000800B0001B56F0001B4510001B519D8B42D
:1032900002D00001B48D0001AB51AB250001B56F28
:1032A0000001AAAF02D00001B5810001B5510001B3
:1032B000D8B412D00001B529D8A409D0000E00015D
:1032C000A86F000EA96F000EAA6F000EAB6F000171
:1032D000AA8F000E000108D0000E0001A86F000E9A
:1032E000A96F000EAA6F000EAB6F0001B65100016E
:1032F000B55DD8B024D00001B4AD03D0800E00017C
:10330000B41BB6C0B7F0B5C0B6F0B7C0B5F0A4C036
:10331000B7F0A8C0A4F0B7C0A8F0A5C0B7F0A9C086
:10332000A5F0B7C0A9F0A6C0B7F0AAC0A6F0B7C074
:10333000AAF0A7C0B7F0ABC0A7F0B7C0ABF0000EC3
:103340000001B76F0001B6510001AC6FAD6B000119
:10335000AC1FAD1FAC4BAD2B0001B5510001AE6FE2
:10336000AF6B0001AC510001AE270001AD5100016F
:10337000AF230001AFBF3DD00001AF5105E11A0EF0
:103380000001AE5DD8A035D00001A4510001A51107
:103390000001A6110001A711D8B402D0010E01D07E
:1033A000000E0001B76F000E0001A46F000EA56FA4
:1033B000000EA66F000EA76FB5C0B6F020D00001BA
:1033C000B7A107D00001D890B73101090001B76F4C
:1033D00003D00001D890B7330001A4A102D00001AE
:1033E000B78F0001A735A733A633A533A433000157
:1033F000B62B0001B5510001B65DD8A0E0D70001A1
:10340000B4BD3FD00001B6510001D8A40AD0000ECF
:103410000001A46F000EA56F000EA66F000EA76F2F
:1034200012000001A8510001A4270001A9510001C8
:10343000A5230001AA510001A6230001AB51000100
:10344000A7230001A7A1CCD00001B7A109D000019A
:10345000D890B7330001B75101090001B76F03D00D
:103460000001D890B7330001A4A102D00001B78FAA
:103470000001A735A733A633A533A4330001B62B2B
:10348000AFD00001A8510001A45D0001A9510001C5
:10349000A5590001AA510001A6590001A751800AAF
:1034A0000001AC6F0001AB51800A0001AC59D8B0EB
:1034B00050D0A4C0ACF0A5C0ADF0A6C0AEF0A7C07F
:1034C000AFF00001AC1FAD1FAE1FAF1FAC2B000E45
:1034D000AD23AE23AF230001A8510001AC250001AC
:1034E000B06F0001A9510001AD210001B16F0001D1
:1034F000AA510001AE210001B26F0001AB510001E1
:10350000AF210001B36FFF0E0001B0250001A46FD1
:10351000FF0E0001B1210001A56FFF0E0001B221D5
:103520000001A66FFF0E0001B3210001A76F800EFE
:103530000001B41B0001B76D0001B7510001D8A410
:1035400018D0010E0001A427000EA523A623A7234F
:1035500010D00001A8510001A45F0001A951000191
:10356000A55B0001AA510001A65B0001AB5100015F
:10357000A75B0001A4510001A5110001A6110001E3
:10358000A711D8A42AD00001B7510001D8A425D092
:10359000000E0001A46F000EA56F000EA66F000EB6
:1035A000A76F12000001D890A437A537A637A73718
:1035B0000001B7AF02D00001A4810001B7A103D080
:1035C000D880000102D00001D890B7370001B65171
:1035D0000001D8B402D00001B6070001A6AFE2D7BF
:1035E000000E0001B56F0001B7AF0DD0B7C0ACF051
:1035F0007F0E0001AC17D8A403D00001A4A103D012
:10360000010E0001B56F0001B5510001D8B426D0FC
:10361000010E0001A427000EA523A623A723000165
:10362000A7A11CD0A4C0ACF0A5C0ADF0A6C0AEF060
:10363000A7C0AFF00001AF35AF33AE33AD33AC331D
:10364000ACC0A4F0ADC0A5F0AEC0A6F0AFC0A7F06E
:103650000001B629D8B402D00001B62B0001B6296A
:10366000D8B405D00001B6510001D8A411D0000E85
:103670000001A46F000EA56F000EA66F000EA76FCD
:103680000001B6510001D8A403D0000E0001B46FB0
:103690000001B6A103D00001A68F02D00001A69FB1
:1036A0000001D890B6310001A76F0001B4AF02D07D
:1036B0000001A78FA4C0A4F0A5C0A5F0A6C0A6F0E5
:1036C000A7C0A7F0120000018151800B00018A6F92
:1036D0000001815181250001906F000180AF02D06F
:1036E00000019081000190510001D8B410D0000178
:1036F0009029D8A409D0000E00017E6F000E7F6FC4
:10370000000E806F000E816F0001808F09D0000EC7
:1037100000017E6F000E7F6F000E806F000E816FC4
:1037200000018551800B00018A1B00018551852510
:1037300000018B6F000184AF02D000018B8100017A
:103740008B510001D8B410D000018B29D8A409D026
:10375000000E0001826F000E836F000E846F000E5A
:10376000856F0001848F09D0000E0001826F000E6A
:10377000836F000E846F000E856F00018B51000176
:10378000D8B405D0000190510001D8A40AD0000E91
:1037900000017E6F000E7F6F000E806F000E816F44
:1037A00012000001845100017E03F3CF95F0F4CFA5
:1037B00096F00001955100018C6F8D6B8E6B8F6BB5
:1037C000000196510001916F926B936B946B000115
:1037D000835100017F03F3CF95F0F4CF96F0000101
:1037E000955100018C27000E8D238E238F2300011D
:1037F000965100019127000E9223932394230001F8
:10380000825100018003F3CF95F0F4CF96F00001D0
:10381000955100018C27000E8D238E238F230001EC
:10382000965100019127000E9223932394238EC07A
:103830008FF08DC08EF08CC08DF000018C6B00017C
:10384000825100017F03F3CF95F0F4CF96F0000191
:10385000955100018C270001965100018D23000E27
:1038600000018E23000E00018F230001835100010F
:103870007E03F3CF95F0F4CF96F00001955100014F
:103880008C270001965100018D23000E00018E232C
:10389000000E00018F238EC08FF08DC08EF08CC083
:1038A0008DF000018C6B0001825100017E03F3CF8B
:1038B00095F0F4CF96F00001955100018C2700019E
:1038C000965100018D23000E00018E23000E000191
:1038D0008F230001845100017F03F3CF95F0F4CFD3
:1038E00096F00001955100019127000196510001C9
:1038F0009223000E00019323000E00019423000187
:10390000835100018003F3CF95F0F4CF96F00001CE
:103910009551000191270001965100019223000E5C
:1039200000019323000E0001942300018451000143
:103930008003F3CF95F0F4CF96F00001955100018C
:10394000866F000196510001876F0001886B0001AE
:10395000896B88C089F087C088F086C087F0000135
:10396000866B0001865100019127000187510001FB
:103970009223000188510001932300018951000125
:1039800094238CC086F08DC087F08EC088F08FC0E5
:1039900089F0190E06D00001D89089338833873317
:1039A0008633E82EF8D700018651000191270001E7
:1039B00087510001922300018851000193230001E7
:1039C0008951000194238EC08FF08DC08EF08CC081
:1039D0008DF000018C6B00018B5190C086F00001CE
:1039E000876B00018627000E8723820E0001862543
:1039F0000001956FFF0E000187210001966F15D021
:103A00000001D890913792379337943700018FAFE8
:103A100002D0000191810001D8908C378D378E370C
:103A20008F3700019507D8A09607000193AFE8D71C
:103A3000000E00018B6F00018FAF24D0FF0E00013C
:103A40008C150001866FFF0E00018D150001876F38
:103A5000FF0E00018E150001886F7F0E00018F158B
:103A60000001896F00018651000187110001881152
:103A700000018911D8A403D0000191A103D0010E47
:103A800000018B6F00018B510001D8B423D0010ECF
:103A900000019127000E922393239423000194A107
:103AA00019D091C086F092C087F093C088F094C07E
:103AB00089F000018935893388338733863386C09E
:103AC00091F087C092F088C093F089C094F0000113
:103AD000954B962B000196BF10D00001965104E142
:103AE00000019529D8A009D0000E0001916F000EA9
:103AF000926F800E936F7F0E2BD0000196BF07D080
:103B00000001965111E100019505D8B00DD0000ECD
:103B10000001916F000E926F000E936F000E946F74
:103B2000000E00018A6F15D095C090F0FF0E0001C5
:103B30009117FF0E92177F0E9317000E9417000136
:103B400090A102D00001938F0001D8909031000124
:103B5000946F00018A510001941391C07EF092C0CD
:103B60007FF093C080F094C081F012000001815179
:103B7000800B00018A6F0001815181250001956F42
:103B8000000180AF02D00001958100019551000134
:103B9000D8B412D000019529D8A409D0000E000194
:103BA0007E6F000E7F6F000E806F000E816F000130
:103BB000808F000E000108D0000E00017E6F000E05
:103BC0007F6F000E806F000E816F00018551800BAA
:103BD00000018A1B0001855185250001966F0001B7
:103BE00084AF02D000019681000196510001D8B443
:103BF00012D000019629D8A409D0000E0001826FCE
:103C0000000E836F000E846F000E856F0001848F9D
:103C1000000E000108D0000E0001826F000E836FBD
:103C2000000E846F000E856F000182510001831128
:103C30000001841100018511D8A417D0000E0001E5
:103C40007E6F000E7F6F000E806F000E816F00018F
:103C5000800E80137F0E81137EC07EF07FC07FF0C8
:103C600080C080F081C081F01200000195510001F8
:103C7000D8A412D0000E00017E6F000E7F6F000EE0
:103C8000806F000E816F7EC07EF07FC07FF080C0AD
:103C900080F081C081F01200000196510001866F12
:103CA000876B0001861F871F864B872B000195516C
:103CB0000001886F896B000186510001882700018F
:103CC0008751000189237F0E0001882500018F6F35
:103CD000000E000189210001906F7EC08BF07FC033
:103CE0008CF080C08DF081C08EF0000E00017E6FE0
:103CF000000E7F6F000E806F000E816F000E0001BE
:103D0000916F000E926F000E936F000E946F000E75
:103D10000001966F42D0000196510001D8B417D02F
:103D20000001D8908B378C378D378E370001D890B3
:103D30007E377F3780378137000194AF02D0000192
:103D40007E810001D89091379237933794370001E4
:103D5000825100018B5D0001835100018C590001EB
:103D6000845100018D590001855100018E59D8A060
:103D700012D00001948D0001825100018B5F00017F
:103D8000835100018C5B0001845100018D5B0001B7
:103D9000855100018E5B0001962B190E000196657E
:103DA000BAD700018B5100018C1100018D11000167
:103DB0008E11D8B418D00001918115D00001D8908F
:103DC0007E377F3780378137000194AF02D0000102
:103DD0007E810001D8909137923793379437000154
:103DE0008F07D8A09007000180AFE8D7000E000130
:103DF000966F000194AF24D0FF0E000191150001D1
:103E0000866FFF0E000192150001876FFF0E000103
:103E100093150001886F7F0E000194150001896FD2
:103E200000018651000187110001881100018911EC
:103E3000D8A403D000017EA103D0010E0001966F2B
:103E4000000196510001D8B423D0010E00017E2755
:103E5000000E7F2380238123000181A119D07EC021
:103E600086F07FC087F080C088F081C089F00001B3
:103E70008935893388338733863386C07EF087C09F
:103E80007FF088C080F089C081F000018F4B902BBB
:103E9000000190BF14D00001905104E100018F296E
:103EA000D8A00DD0000E0001906F8F69000E0001A8
:103EB0007E6F000E7F6F000E806F000E816F00011D
:103EC00090BF07D00001905115E100018F05D8B0D7
:103ED00011D0000E0001906F000E8F6F000E0001D8
:103EE0007E6F000E7F6F000E806F000E816F000EE0
:103EF00000018A6F8FC095F0000195A103D00001E9
:103F0000808F02D00001809F0001D8909531000180
:103F1000816F00018A51000181137EC07EF07FC055
:103F20007FF080C080F081C081F012000001796FC5
:103F300000017905D8A456D000017429D8A452D024
:103F400070C075F071C076F072C077F073C078F011
:103F5000040E06D00001D89078337733763375336A
:103F6000E82EF8D775C07AF076C07BF077C07CF089
:103F700078C07DF000017A5100017A6F7B6B7C6B19
:103F80007D6B7AC018FF070E0001701500017A6F73
:103F9000000E0001711500017B6F000E000172150B
:103FA00000017C6F000E0001731500017D6F7AC067
:103FB00075F07BC076F07CC077F07DC078F0050EA0
:103FC000D89000017537763777377837E82EF8D7ED
:103FD00075C07AF076C07BF077C07CF078C07DF059
:103FE0007AC019FF020E00017919D8A456D0000139
:103FF0007429D8A452D070C075F071C076F072C028
:1040000077F073C078F0040E06D00001D8907833B2
:10401000773376337533E82EF8D775C07AF076C0EB
:104020007BF077C07CF078C07DF000017A51000110
:104030007A6F7B6B7C6B7D6B7AC01CFF070E000177
:10404000701500017A6F000E0001711500017B6F81
:10405000000E0001721500017C6F000E0001731547
:1040600000017D6F7AC075F07BC076F07CC077F080
:104070007DC078F0050ED890000175377637773718
:104080007837E82EF8D775C07AF076C07BF077C025
:104090007CF078C07DF07AC01DFF00017905D8A4BE
:1040A00087D0F70E00017419D8A482D00001705196
:1040B00000017A6F7B6B7C6B7D6B7AC01BFF000EFF
:1040C0000001701500017A6FFF0E000171150001EB
:1040D0007B6F000E0001721500017C6F000E000165
:1040E000731500017D6F7AC075F07BC076F07CC0DF
:1040F00077F07DC078F076C075F077C076F078C044
:1041000077F00001786B75C07AF076C07BF077C0ED
:104110007CF078C07DF07AC01AFF000172A103D054
:104120000F01198102D00F011991000172A303D070
:104130000F01198302D00F011993000172A503D05A
:104140000F01198B02D00F01199B000172A703D038
:104150000F01198D02D00F01199D000172A903D022
:104160000F01198F02D00F01199F70C075F071C037
:1041700076F072C077F073C078F0160E06D00001AA
:10418000D8907833773376337533E82EF8D775C007
:104190007AF076C07BF077C07CF078C07DF00001CB
:1041A0007A5100017A6F7B6B7C6B7D6B7AC018FF54
:1041B000020E00017919D8A41200F70E000174193B
:1041C000D8A412000001705100017A6F7B6B7C6BE8
:1041D0007D6B7AC01FFF000E0001701500017A6F21
:1041E000FF0E0001711500017B6F000E00017215BA
:1041F00000017C6F000E0001731500017D6F7AC015
:1042000075F07BC076F07CC077F07DC078F076C02A
:1042100075F077C076F078C077F00001786B75C0E4
:104220007AF076C07BF077C07CF078C07DF07AC001
:104230001EFF000172A103D00F011D8102D00F01EA
:104240001D91000172A303D00F011D8302D00F0145
:104250001D93000172A503D00F011D8B02D00F0129
:104260001D9B000172A703D00F011D8D02D00F010D
:104270001D9D000172A903D00F011D8F02D00F01F7
:104280001D9F70C075F071C076F072C077F073C07A
:1042900078F0160E06D00001D89078337733763355
:1042A0007533E82EF8D775C07AF076C07BF077C00A
:1042B0007CF078C07DF000017A5100017A6F7B6B51
:1042C0007C6B7D6B7AC01CFF12000001A36F6D0E2A
:1042D0000001A365CDD0000E0001796F0A0E786F42
:1042E000000E0001736F640E726FA3C070F00001C6
:1042F000716B52ECADF070C076F071C077F032ECBB
:10430000ABF00001D890763777370001D890763738
:104310007737240E00017627000E00017723B50EB3
:1043200000017625F66EFE0E00017721F76EF86A21
:10433000000EF8220900F5CF82F00900F5CF83F0D6
:104340000900F5CF84F00A00F5CF85F0000E0001DA
:10435000796F640E786FA3C076F00001776B32EC52
:10436000ABF00001D890763777370001D8907637D8
:104370007737480E00017627000E00017723B50E2F
:1043800000017625F66EFE0E00017721F76EF86AC1
:10439000000EF8220900F5CF7EF00900F5CF7FF07E
:1043A0000900F5CF80F00A00F5CF81F063EC9BF0B7
:1043B0007EC09FF07FC0A0F080C0A1F081C0A2F0BD
:1043C000000E0001736F0A0E726FA3C070F000013F
:1043D000716B52ECADF00001D8907037713700016D
:1043E000D89070377137B50E00017025F66EFE0E4D
:1043F00000017121F76EF86A000EF8220900F5CF6E
:1044000082F00900F5CF83F00900F5CF84F00A00AF
:10441000F5CF85F09FC07EF0A0C07FF0A1C080F0F6
:10442000A2C081F063EC9BF07EC09BF07FC09CF04B
:1044300080C09DF081C09EF09BC07EF09CC07FF04C
:104440009DC080F09EC081F0000E0001826F000EC2
:10445000836F000E846F3F0E856F63EC9BF07EC010
:1044600097F07FC098F080C099F081C09AF0120058
:104470000A0E0001A36578D0000E0001736F0A0ECA
:10448000726FA3C070F00001716B52ECADF00001CF
:10449000D890703771370001D89070377137B50EEA
:1044A00000017025F66EFE0E00017121F76EF86AAC
:1044B000000EF8220900F5CF82F00900F5CF83F055
:1044C0000900F5CF84F00A00F5CF85F0000E000159
:1044D000796F0A0E786FA3C076F00001776B32EC2B
:1044E000ABF00001D890763777370001D890763757
:1044F0007737240E00017627000E00017723B50ED2
:1045000000017625F66EFE0E00017721F76EF86A3F
:10451000000EF8220900F5CF7EF00900F5CF7FF0FC
:104520000900F5CF80F00A00F5CF81F063EC9BF035
:104530007EC09FF07FC0A0F080C0A1F081C0A2F03B
:104540009FC07EF0A0C07FF0A1C080F0A2C081F02B
:10455000000E0001826F000E836F000E846F3F0E0D
:10456000856F63EC9BF07BD70001A351040DB50E62
:10457000F324F66EFE0EF420F76EF86A000EF822B1
:104580000900F5CF7EF00900F5CF7FF00900F5CFE7
:1045900080F00A00F5CF81F0000E0001826F000E5E
:1045A000836F000E846F3F0E856F63EC9BF07EC0BF
:1045B00097F07FC098F080C099F081C09AF0120007
:1045C0000001786F000178510001D8B41ED00001BD
:1045D00073AF1BD070C074F071C075F072C076F00C
:1045E00073C077F00001741F751F761F771F742B3F
:1045F000000E75237623772374C07AF075C07BF0A4
:1046000076C07CF077C07DF008D070C07AF071C0C1
:104610007BF072C07CF073C07DF00001705100012E
:1046200071110001721100017311D8A40AD0000E9B
:104630000001706F000E716F000E726F000E736FCD
:104640001200960E0001796F08D00001792B00014D
:10465000D8907D337C337B337A33000E00017A159A
:104660000001746F000E00017B150001756F000ED4
:1046700000017C150001766FFE0E00017D15000122
:10468000776F00017451000175110001761100016E
:104690007711D8B410D0D9D70001792B010E0001C1
:1046A0007A27000E7B237C237D230001D8907D3365
:1046B0007C337B337A33000E00017A150001746F6E
:1046C000000E00017B150001756F000E00017C15C6
:1046D0000001766FFF0E00017D150001776F00016C
:1046E0007451000175110001761100017711D8B4E1
:1046F00009D0D2D7000179070001D8907A377B37EB
:104700007C377D3700017CBF04D0020E0001796147
:10471000F1D7000179B109D0FF0E00017A17FF0E21
:104720007B177F0E7C17FF0E7D170001D890793321
:1047300079C074F00001756B766B776B74C077F09D
:104740000001766B756B746B0001745100017A1374
:104750000001755100017B130001765100017C13AB
:104760000001775100017D13000178510001D8B498
:1047700005D0000173AF02D000017D8F7AC070F0C8
:104780007BC071F07CC072F07DC073F0120000013C
:10479000876F800EB1ECB0F0000E706E000E716E7F
:1047A000000E726E00018041E842C00B0001806F74
:1047B0000001805170120001815170120001875177
:1047C000711200017E39E842F80B00017E6F000192
:1047D0007E517112000182A5718C000182B1718E2F
:1047E00000017F517212000182B3728C000182516C
:1047F000600B606E00018251100BFF0AD8B4608418
:1048000060CF50FF000E0001706F000E716F000E40
:10481000726F000E736FF70E0001746F010E96EC4D
:104820009FF0000E0001706F000E716F000E726F2E
:10483000000E736FF70E0001746F020E96EC9FF07E
:104840000FD0F70E0001886F07D0000188690001C2
:10485000896928D000018869F70E0001896F22D08C
:104860009F0E0001836FFF0E0001846F00018251D3
:10487000600B0001856F866B000183510001851379
:10488000000184510001861300018651000AD8A45A
:10489000E1D700018551BF0AD8B4D7D7600AD8B490
:1048A000D0D7D8D7000E0001706F000E716F000EC8
:1048B000726F000E736F88C074F0000E00EC80F011
:1048C000000E0001706F000E716F000E726F000E0F
:1048D000736F88C074F0010E00EC80F0000E0001D0
:1048E000706F000E716F000E726F000E736F89C0D3
:1048F00074F0020E00EC80F0000E0001706F000EEC
:10490000716F000E726F000E736F89C074F0030E2A
:1049100000EC80F0000E0001706F000E716F000E51
:10492000726F000E736F89C074F0040E00EC80F09B
:10493000000E0001706F000E716F000E726F000E9E
:10494000736F89C074F0050E00EC80F0000EB1ECBE
:10495000B0F0120021EE00F010EE91F0050EDBCF6A
:10496000E3FFE806FCE2910E0001806F000E0001FB
:10497000816F88C082F089C083F0000E0001856FCE
:104980000A0E846F1CECAFF000018A510001D8B40C
:10499000B8D000018A51010D910EF324D96E000E9A
:1049A000F420DA6E000EDF6E70D000018A0500017F
:1049B000976F000197510001D8B467D0FF0E000136
:1049C0008C6FFF0E00018D6F0001975100018E6FFB
:1049D0008F6B00018C5100018E2700018D51000169
:1049E0008F23910E00018E25D96E000E00018F21BC
:1049F000DA6E00019751010D910EF324E16E000E65
:104A0000F420E26EDFCFE7FF00018B05D8A41DD0B4
:104A1000FF0E00018C6FFF0E00018D6F000197519A
:104A200000018E6F8F6B00018C5100018E270001F9
:104A30008D5100018F23910E00018E25D96E000E3D
:104A400000018F21DA6E200E1CD0FF0E00018C6F4A
:104A5000FF0E00018D6F0001975100018E6F8F6B6B
:104A600000018C5100018E2700018D5100018F2320
:104A7000910E00018E25D96E000E00018F21DA6E95
:104A8000300EDF6E0001970794D7FF0E00018C6F88
:104A9000FF0E00018D6F00018A5100018E6F8F6B38
:104AA00000018C5100018E2700018D5100018F23E0
:104AB000910E00018E25D96E000E00018F21DA6E55
:104AC0003A0EDF6072D7FF0E00018C6FFF0E0001FF
:104AD0008D6F00018A5100018E6F8F6B00018C5128
:104AE00000018E2700018D5100018F23910E0001DE
:104AF0008E25D96E000E00018F21DA6E2F0EDF6435
:104B000054D7910E0001816F000E0001826F34ECCA
:104B1000B0F0120047ECB0F0E806D8A4FBD7060EC0
:104B20000001706F000E716F000E726F000E736FD8
:104B3000EA0E0001746F000E0001756F080E00018F
:104B4000766FFC0E0001776FCDEC89F0DEC070F05F
:104B5000DFC071F00001726B736B000EE0ECA2F02D
:104B600070C07EF071C07FF072C080F073C081F0C1
:104B7000000E0001826F000E836F8B0E846F430E58
:104B8000856FB6EC9DF07EC008F07FC009F080C054
:104B90000AF081C00BF0150E0001C26F010E00017A
:104BA000C36FFA0E0001C46FFF0E0001C56F08C08D
:104BB000C6F009C0C7F00AC0C8F00BC0C9F083EC4A
:104BC00085F0000E0101206F4BAC32D0100E7FEC4F
:104BD000A9F006ECB0F0010EBCECAAF06F0E0001DB
:104BE000816FFF0E0001826FD3ECAFF0020EBCECC0
:104BF000AAF0B80E0001816FFF0E0001826FD3ECA6
:104C0000AFF0030EBCECAAF0990E0001816FFF0E0D
:104C10000001826FD3ECAFF0040EBCECAAF0E40EFE
:104C20000001816FFF0E0001826FD3ECAFF04B9C4F
:104C3000020E00017F6F0C0E87ECB0F00001E65110
:104C4000D8B416D00001E405D8A409D0F00E0001B4
:104C5000816FFF0E0001826FD3ECAFF011D0F50E23
:104C60000001816FFF0E0001826FD3ECAFF008D01E
:104C7000EB0E0001816FFF0E0001826FD3ECAFF0ED
:104C8000030E00017F6F080E87ECB0F0150E0001D7
:104C9000816F010E0001826F34ECB0F0040E000150
:104CA0007F6F070E87ECB0F024C088F025C089F034
:104CB000000E00018A6F010E00018B6FAAECA4F0B8
:104CC000120072C078F00001796B7A6B00017135C7
:104CD0000001783701E37981000178510001806F8C
:104CE00000018051D8A40AD0000E0001706F000EA0
:104CF000716F000E726F000E736F120076C078F045
:104D00000001796B7A6B000175350001783701E39A
:104D100079810001785100017F6F00017F51D8A493
:104D20000AD0000E0001706F000E716F000E726FDE
:104D3000000E736F12000001718FFF0E00017017DB
:104D4000FF0E00017117000E000172170001758F30
:104D5000FF0E00017417FF0E00017517000E000111
:104D60007617000E00017B6F000E7C6F000E7D6FCA
:104D7000000E7E6F7F0E0001805F00017F51980F53
:104D80000001805F180E00017F6F0001D8907B3713
:104D90007C377D377E37000174510001705D000162
:104DA0007551000171590001765100017259D8A066
:104DB0000ED0000174510001705F000175510001B7
:104DC000715B000176510001725B00017B81000183
:104DD000D89070377137723700017F2FD6D7000116
:104DE00080AF1AD000018051800A970FD8B00AD046
:104DF000000E0001706F000E716F000E726F000EDA
:104E0000736F12000001D8907E337D337C337B3387
:104E10000001803FF7D71BD0170E0001806512D02C
:104E2000000E0001706F000E716F000E726F000EA9
:104E3000736F12000001D8907B377C377D377E3747
:104E400000018007000180510001D8A4F3D77BC086
:104E500070F07CC071F07DC072F07EC073F0120003
:104E6000000E000170150001786F000E0001711531
:104E70000001796F800E0001721500017A6F7F0EBC
:104E80000001731500017B6F000178510001791159
:104E900000017A1100017B11D8A409D0000E000195
:104EA000706F000E716F000E726F000E736F000E48
:104EB000000174150001786F000E000175150001E6
:104EC000796F800E0001761500017A6F7F0E000168
:104ED000771500017B6F0001785100017911000105
:104EE0007A1100017B11D8A409D0000E0001746F63
:104EF000000E756F000E766F000E776F000173AFB6
:104F000026D070C078F071C079F072C07AF073C0AA
:104F10007BF00001781F791F7A1F7B1F782B000E12
:104F200079237A237B23000E000178250001706F1E
:104F3000000E000179210001716F000E00017A213D
:104F40000001726F800E00017B210001736F000170
:104F500077AF26D074C078F075C079F076C07AF05B
:104F600077C07BF00001781F791F7A1F7B1F782B99
:104F7000000E79237A237B23000E0001782500019F
:104F8000746F000E000179210001756F000E0001A1
:104F90007A210001766F800E00017B210001776F7E
:104FA000000E0001701B000E711B000E721B800EA4
:104FB000731B000E0001741B000E751B000E761B88
:104FC000800E771B000174510001705D0001755166
:104FD00000017159000176510001725900017751A9
:104FE00000017359D8B002D0D8901200D8801200B6
:104FF00000017235733500017D6F00017D51D8A429
:105000000AD0000E0001706F000E716F000E726FFB
:10501000000E736F120000017635773500017C6F4A
:1050200000017C51D8A40AD0000E0001706F000E60
:10503000716F000E726F000E736F12000001728F9D
:10504000FF0E00017017FF0E7117FF0E7217000E92
:1050500073170001768FFF0E00017417FF0E75178E
:10506000FF0E7617000E7717000E0001786F000E06
:10507000796F000E7A6F000E7B6F7F0E00017D5FEF
:1050800000017C51A00F00017D5F200E00017C6FAC
:105090000001D890783779377A377B37000174511F
:1050A0000001705D000175510001715900017651D8
:1050B000000172590001775100017359D8A012D034
:1050C000000174510001705F000175510001715BB6
:1050D000000176510001725B000177510001735BA2
:1050E000000178810001D8907037713772377337BB
:1050F00000017C2FCDD700017DAF1AD000017D517A
:10510000800A9F0FD8B00AD0000E0001706F000E09
:10511000716F000E726F000E736F12000001D89055
:105120007B337A337933783300017D3FF7D71BD057
:105130001F0E00017D6512D0000E0001706F000E81
:10514000716F000E726F000E736F12000001D89025
:10515000783779377A377B3700017D0700017D5139
:105160000001D8A4F3D778C070F079C071F07AC08C
:1051700072F07BC073F01200E9CF64F0EACF65F003
:10518000E1CF66F0E2CF67F0D9CF68F0DACF69F00F
:10519000F3CF6AF0F4CF6BF0F6CF6CF0F7CF6DF091
:1051A000F8CF6EF0F5CF6FF0A4A2A4B001D089D0F3
:1051B000BCECB0F00009D8B480D0060E3A6E010EF7
:1051C0003B6E89EC96F0010114A102D04B8801D00E
:1051D0004B9806C10CF007C10DF008C10EF009C1D3
:1051E0000FF04B8E060E0C180D100E100F10D8A4D9
:1051F0001AD0000E4A6E070E4A6401D014D04A50ED
:10520000010D0A0EF324D96E010EF420DA6E4A5015
:10521000010D010EF324E16E000EF420E26EDFCFEB
:10522000E7FF4A2AE8D70B0E0C180D100E100F10CE
:10523000D8A404D001010A05D8B44C82AA0E0C18D7
:105240000D100E100F10D8A40BD00BC124F0256A3E
:1052500024500001606F01010A51246E60C025F0E6
:10526000020E0C180D100E100F10D8B44BA825D03C
:105270001CC014F01DC015F01EC016F01FC017F0A2
:10528000030E286E0D0EE82EFED700F06AECB0F08B
:10529000E806D8A4FBD7020E3A6E000E3B6E000E55
:1052A0003C6E000E3D6E280E3E6E000E3F6E080EE8
:1052B000406EBC0E416E93EC8DF08C848C86A49273
:1052C000A4906FC0F5FF6EC0F8FF6DC0F7FF6CC013
:1052D000F6FF6BC0F4FF6AC0F3FF69C0DAFF68C075
:1052E000D9FF67C0E2FF66C0E1FF65C0EAFF64C0A6
:1052F000E9FF63C0FBFF62C0FAFF4D92110000019D
:105300007E6F00017E51C7ECB0F08D948B928B9034
:10531000000E0001776F640E766F7FECAFF0000E29
:105320000001786F010E0001796F010E00017A6FA4
:10533000000E62ECAFF0000E0001776F640E766F26
:105340007FECAFF0000E0001786F010E0001796F65
:10535000010E00017A6F000E62ECAFF0000E00014A
:10536000776F0A0E766F7FECAFF0000E0001786F5A
:10537000010E0001796F010E00017A6F000E62ECE0
:10538000AFF0000E0001786F010E0001796F000E82
:1053900000017A6F000E62ECAFF0000E0001786F32
:1053A000010E0001796F000E00017A6F000E62ECB1
:1053B000AFF0000E0001786F000E0001796F000E53
:1053C00000017A6F010E62ECAFF0000E0001786F01
:1053D000000E0001796F000E00017A6F000E62EC82
:1053E000AFF0000E0001786F000E0001796F000E23
:1053F00000017A6F010E62ECAFF0000E0001786FD1
:10540000000E0001796F000E00017A6F000E62EC51
:10541000AFF0000E0001786F000E0001796F010EF1
:1054200000017A6F000E62ECAFF0000E0001786FA1
:10543000000E0001796F000E00017A6F000E62EC21
:10544000AFF0010E0001786F010E0001796F000EC0
:1054500000017A6F000E62ECAFF006ECB0F0000EC7
:1054600000017C6F000EEDECAFF012000001BA35C8
:10547000BB350001C16F0001C151D8A40AD0000E94
:105480000001B86F000EB96F000EBA6F000EBB6F4F
:105490001200B8C0BCF0B9C0BDF0BAC0BEF0BBC00D
:1054A000BFF0200E06D00001D890BF33BE33BD330D
:1054B000BC33E82EF8D70001BC510001C06F0001D9
:1054C000BA8FFF0E0001B817FF0EB917FF0EBA17FB
:1054D000000EBB17960E0001C15F0001C1AF1AD0CC
:1054E0000001C151800A970FD8B00AD0000E000108
:1054F000B86F000EB96F000EBA6F000EBB6F1200CE
:105500000001D890BB33BA33B933B8330001C13F7F
:10551000F7D71BD01F0E0001C16512D0000E00018D
:10552000B86F000EB96F000EBA6F000EBB6F12009D
:105530000001D890B837B937BA37BB370001C10777
:105540000001C1510001D8A4F3D70001C0510001EE
:10555000D8B409D00001BB1FBA1FB91FB86D000E27
:10556000B923BA23BB23B8C0B8F0B9C0B9F0BAC0E8
:10557000BAF0BBC0BBF0120000017C6F64D0000E1B
:105580000001786F000E0001796F000E00017A6F44
:10559000010E62ECAFF0000E0001786F000E00010A
:1055A000796F000E00017A6F000E62ECAFF012000E
:1055B000010E0001786F000E0001796F000E0001EE
:1055C0007A6F010E62ECAFF0000E0001786F000EF2
:1055D0000001796F000E00017A6F000E62ECAFF0EF
:1055E0001200000E0001786F000E0001796F010EAD
:1055F00000017A6F010E62ECAFF0010E0001786FCE
:10560000000E0001796F000E00017A6F000E62EC4F
:10561000AFF01200010E0001786F000E0001796FEB
:10562000010E00017A6F010E62ECAFF0010E000175
:10563000786F000E0001796F000E00017A6F000E86
:1056400062ECAFF0120000017C51010AD8B497D788
:10565000030AD8B4ADD7010AD8B4C3D7070AD8A46F
:105660001200D8D7000E00017B6F000179AF08D07F
:105670000001786D791FD8B0792B010E00017B6F86
:10568000000177AF08D00001766D771FD8B0772B77
:10569000010E00017B1B000E00017D6F000E7C6F70
:1056A0000001785100017911D8B42CD0010E00010D
:1056B0007A6F06D00001D8907837793700017A2BBD
:1056C000000179AFF7D70001D8907C377D37000112
:1056D00078510001765D0001795100017759D8A019
:1056E0000AD0000178510001765F00017951000174
:1056F000775B00017C810001D89079337833000119
:105700007A2FE1D700017B510001D8B405D0000108
:105710007C6D7D1FD8B07D2B7CC076F07DC077F08E
:10572000120079C07DF07AC07EF07DC070F07EC03E
:1057300071F07BC072F07CC073F03BECAEF070C0D7
:105740007DF071C07EF00001774B782B00017D5118
:1057500000017E11D8A4E9D777C0D9FF78C0DAFF5D
:10576000000EDF6E00017707D8A0780779C070F0CF
:105770007AC071F07BC072F07CC073F077ECAEF051
:105780000001705100017F6F79C070F07AC071F034
:105790007BC072F07CC073F03BECAEF070C079F06F
:1057A00071C07AF0090E00017F6503D0070E000179
:1057B0007F27300E00017F2777C0D9FF78C0DAFF3E
:1057C0007FC0DFFF00017707D8A07807000179517B
:1057D00000017A11D8A4CAD70001774B782B1200A8
:1057E000000E0001786F000E796F000E7A6F000EC8
:1057F0007B6F0001745100017511000176110001E9
:105800007711D8B442D0010E00017C6F08D000019E
:10581000D890743775377637773700017C2B0001C5
:1058200077AFF5D70001D890783779377A377B375B
:10583000000174510001705D000175510001715942
:10584000000176510001725900017751000173592E
:10585000D8A012D0000174510001705F0001755191
:105860000001715B000176510001725B000177510C
:105870000001735B000178810001D89077337633A3
:105880007533743300017C2FCDD778C070F079C0A8
:1058900071F07AC072F07BC073F0120047ECB0F088
:1058A000E806D8A4FBD7050E0001706F000E716FDB
:1058B000000E726F000E736FEB0E0001746F000E1E
:1058C0000001756F080E0001766FBC0E0001776F46
