:0400000060EF00F0BD
:0E0008004E82FACF62F0FBCF63F06EEFA3F0F2
:100018004E80D8CF2AF0E8CF2BF0E0CF2CF0FACFE3
:100028002DF0FBCF2EF0E9CF2FF0EACF30F0E1CF63
:1000380031F0E2CF32F0D9CF33F0DACF34F0F3CF6A
:1000480035F0F4CF36F0F6CF37F0F7CF38F0F8CFF9
:1000580039F0F5CF3AF0A1A20BD0010E1D26000E03
:100068001E221F222022630EB36EC00EB26EA19212
:100078003AC0F5FF39C0F8FF38C0F7FF37C0F6FFC0
:1000880036C0F4FF35C0F3FF34C0DAFF33C0D9FF00
:1000980032C0E2FF31C0E1FF30C0EAFF2FC0E9FF04
:1000A8002EC0FBFF2DC0FAFF2CC0E0FF2BC0E8FFDD
:0C00B8002AC0D8FF4E901000D3EFB0F02B
:10FDC800000000803FCDCCCC3D0AD7233C6F128386
:10FDD8003A17B7D138ACC52737BD37863595BFD662
:10FDE8003377CC2B325F708930FFE6DB2E08E53C99
:10FDF8001E6042A20D0000803F000020410000C8A4
:10FE08004200007A4400401C460050C34700247456
:10FE1800498096184B20BCBE4C286B6E4EF90215D3
:10FE280050EC78AD60CAF24971010000000A000088
:10FE38000064000000E803000010270000A086010D
:10FE48000040420F008096980000E1F50500CA9A2C
:10FE58003B2020202020434F4D504C455445442101
:10FE680020202020200020202020535543434553A4
:10FE78005346554C4C5920202020002020207374D4
:10FE8800617274207061726B696E67202020200097
:10FE980020205072657373207468652062757474CD
:10FEA8006F6E20200020756E74696C206E65787402
:10FEB800206D6573736167652000507265737320E8
:10FEC80074686520425554544F4E20746F200020AA
:10FED8005061726B696E672070726F6365647572CA
:10FEE800657320002D2044697374616E6365205228
:10FEF800454143484544202D002D3E20204B454593
:10FF080050204D4F56494E472020203C2D003D2083
:10FF18002020205061726B696E6720696E20202056
:10FF2800203D003D2020202070726F67726573733A
:10FF38002E2E2E2020203D003D205041524B494E70
:10FF480047204D45535341474553203D003D3D3ED5
:10FF58002056454849434C4520204F4646203C3DC5
:10FF68003D003D3D3D2056454849434C45204441D0
:10FF78005441203D3D3D003D3D3D3D3D3D3D3D3DE8
:10FF88003D3D3D3D3D3D3D3D3D3D3D002050617287
:10FF98006B696E6720737061636520464F554E44E8
:10FFA8000053706565643A20302E3030204B6D2F39
:10FFB80068005061726B206173736973743A200032
:10FFC800446972656374696F6E3A20004F46462033
:10FFD8002020200053454152434820004461746169
:10FFE8003A200050202020004657442000424B571A
:08FFF8004400252E32660000D2
:020000040001F9
:1000000000017A6F00017A510001D8A458D0000194
:100010007529D8A454D00F01019771C076F072C031
:1000200077F073C078F074C079F0040E06D0000148
:10003000D8907933783377337633E82EF8D776C093
:100040007BF077C07CF078C07DF079C07EF0000155
:100050007B5100017B6F7C6B7D6B7E6B7BC000FFF7
:10006000070E0001711500017B6F000E0001721573
:1000700000017C6F000E0001731500017D6F000E02
:100080000001741500017E6F7BC076F07CC077F0B4
:100090007DC078F07EC079F0050ED89000017637EB
:1000A000773778377937E82EF8D776C07BF077C086
:1000B0007CF078C07DF079C07EF07BC001FF00014C
:1000C0007A05D8A458D000017529D8A454D00F01BE
:1000D000059771C076F072C077F073C078F074C085
:1000E00079F0040E06D00001D89079337833773355
:1000F0007633E82EF8D776C07BF077C07CF078C0F6
:100100007DF079C07EF000017B5100017B6F7C6B3C
:100110007D6B7E6B7BC004FF070E00017115000133
:100120007B6F000E0001721500017C6F000E000154
:10013000731500017D6F000E0001741500017E6FC4
:100140007BC076F07CC077F07DC078F07EC079F01F
:10015000050ED89000017637773778377937E82E53
:10016000F8D776C07BF077C07CF078C07DF079C09E
:100170007EF07BC005FF020E00017A19D8A458D08A
:1001800000017529D8A454D00F01099771C076F0E9
:1001900072C077F073C078F074C079F0040E06D0A6
:1001A0000001D8907933783377337633E82EF8D757
:1001B00076C07BF077C07CF078C07DF079C07EF0AF
:1001C00000017B5100017B6F7C6B7D6B7E6B7BC084
:1001D00008FF070E0001711500017B6F000E000182
:1001E000721500017C6F000E0001731500017D6F18
:1001F000000E0001741500017E6F7BC076F07CC09C
:1002000077F07DC078F07EC079F0050ED8900001BF
:100210007637773778377937E82EF8D776C07BF09E
:1002200077C07CF078C07DF079C07EF07BC009FF9C
:10023000030E00017A19D8A458D000017529D8A45A
:1002400054D00F010D9771C076F072C077F073C073
:1002500078F074C079F0040E06D00001D89079339C
:10026000783377337633E82EF8D776C07BF077C0D3
:100270007CF078C07DF079C07EF000017B510001F8
:100280007B6F7C6B7D6B7E6B7BC00CFF070E000170
:10029000711500017B6F000E0001721500017C6F6B
:1002A000000E0001731500017D6F000E0001741532
:1002B00000017E6F7BC076F07CC077F07DC078F067
:1002C0007EC079F0050ED890000176377737783701
:1002D0007937E82EF8D776C07BF077C07CF078C00D
:1002E0007DF079C07EF07BC00DFF040E00017A190D
:1002F000D8A458D000017529D8A454D00F01119763
:1003000071C076F072C077F073C078F074C079F085
:10031000040E06D00001D8907933783377337633E2
:10032000E82EF8D776C07BF077C07CF078C07DF0FF
:1003300079C07EF000017B5100017B6F7C6B7D6B8F
:100340007E6B7BC010FF070E0001711500017B6FF3
:10035000000E0001721500017C6F000E0001731584
:1003600000017D6F000E0001741500017E6F7BC0DF
:1003700076F07CC077F07DC078F07EC079F0050E15
:10038000D89000017637773778377937E82EF8D765
:1003900076C07BF077C07CF078C07DF079C07EF0CD
:1003A0007BC011FF050E00017A19D8A458D00001B6
:1003B0007529D8A454D00F01159771C076F072C07A
:1003C00077F073C078F074C079F0040E06D00001A5
:1003D000D8907933783377337633E82EF8D776C0F0
:1003E0007BF077C07CF078C07DF079C07EF00001B2
:1003F0007B5100017B6F7C6B7D6B7E6B7BC014FF40
:10040000070E0001711500017B6F000E00017215CF
:1004100000017C6F000E0001731500017D6F000E5E
:100420000001741500017E6F7BC076F07CC077F010
:100430007DC078F07EC079F0050ED8900001763747
:10044000773778377937E82EF8D776C07BF077C0E2
:100450007CF078C07DF079C07EF07BC015FF000194
:100460007A510001D8A489D0F70E00017519D8A4DB
:1004700084D00F0101870001715100017B6F7C6BFB
:100480007D6B7E6B7BC003FF000E000171150001C8
:100490007B6FFF0E0001721500017C6F000E0001E2
:1004A000731500017D6F000E0001741500017E6F51
:1004B0007BC076F07CC077F07DC078F07EC079F0AC
:1004C00077C076F078C077F079C078F00001796B6A
:1004D00076C07BF077C07CF078C07DF079C07EF08C
:1004E0007BC002FF000173A103D00F01018102D084
:1004F0000F010191000173A303D00F01018302D00A
:100500000F010193000173A503D00F01018B02D0ED
:100510000F01019B000173A703D00F01018D02D0D1
:100520000F01019D000173A903D00F01018F02D0BB
:100530000F01019F71C076F072C077F073C078F040
:1005400074C079F0160E06D00001D8907933783354
:1005500077337633E82EF8D776C07BF077C07CF01F
:1005600078C07DF079C07EF000017B5100017B6F87
:100570007C6B7D6B7E6B7BC000FF00017A05D8A48D
:1005800089D0F70E00017519D8A484D00F01058712
:100590000001715100017B6F7C6B7D6B7E6B7BC0BA
:1005A00007FF000E0001711500017B6FFF0E0001B7
:1005B000721500017C6F000E0001731500017D6F44
:1005C000000E0001741500017E6F7BC076F07CC0C8
:1005D00077F07DC078F07EC079F077C076F078C093
:1005E00077F079C078F00001796B76C07BF077C046
:1005F0007CF078C07DF079C07EF07BC006FF000102
:1006000073A103D00F01058102D00F0105910001F4
:1006100073A303D00F01058302D00F0105930001DE
:1006200073A503D00F01058B02D00F01059B0001BC
:1006300073A703D00F01058D02D00F01059D0001A6
:1006400073A903D00F01058F02D00F01059F71C060
:1006500076F072C077F073C078F074C079F0160E3F
:1006600006D00001D8907933783377337633E82E8B
:10067000F8D776C07BF077C07CF078C07DF079C089
:100680007EF000017B5100017B6F7C6B7D6B7E6B8C
:100690007BC004FF020E00017A19D8A489D0F70E9E
:1006A00000017519D8A484D00F0109870001715188
:1006B00000017B6F7C6B7D6B7E6B7BC00BFF000E44
:1006C0000001711500017B6FFF0E00017215000122
:1006D0007C6F000E0001731500017D6F000E00019C
:1006E000741500017E6F7BC076F07CC077F07DC012
:1006F00078F07EC079F077C076F078C077F079C076
:1007000078F00001796B76C07BF077C07CF078C020
:100710007DF079C07EF07BC00AFF000173A103D099
:100720000F01098102D00F010991000173A303D0C9
:100730000F01098302D00F010993000173A503D0B3
:100740000F01098B02D00F01099B000173A703D091
:100750000F01098D02D00F01099D000173A903D07B
:100760000F01098F02D00F01099F71C076F072C08E
:1007700077F073C078F074C079F0160E06D00001DF
:10078000D8907933783377337633E82EF8D776C03C
:100790007BF077C07CF078C07DF079C07EF00001FE
:1007A0007B5100017B6F7C6B7D6B7E6B7BC008FF98
:1007B000030E00017A19D8A489D0F70E000175192B
:1007C000D8A484D00F010D870001715100017B6F07
:1007D0007C6B7D6B7E6B7BC00FFF000E0001711583
:1007E00000017B6FFF0E0001721500017C6F000E8F
:1007F0000001731500017D6F000E000174150001EA
:100800007E6F7BC076F07CC077F07DC078F07EC0D4
:1008100079F077C076F078C077F079C078F0000191
:10082000796B76C07BF077C07CF078C07DF079C0C2
:100830007EF07BC00EFF000173A103D00F010D817C
:1008400002D00F010D91000173A303D00F010D839E
:1008500002D00F010D93000173A503D00F010D8B82
:1008600002D00F010D9B000173A703D00F010D8D66
:1008700002D00F010D9D000173A903D00F010D8F50
:1008800002D00F010D9F71C076F072C077F073C077
:1008900078F074C079F0160E06D00001D890793344
:1008A000783377337633E82EF8D776C07BF077C08D
:1008B0007CF078C07DF079C07EF000017B510001B2
:1008C0007B6F7C6B7D6B7E6B7BC00CFF040E00012D
:1008D0007A19D8A489D0F70E00017519D8A484D04C
:1008E0000F0111870001715100017B6F7C6B7D6BE3
:1008F0007E6B7BC013FF000E0001711500017B6F42
:10090000FF0E0001721500017C6F000E00017315CF
:1009100000017D6F000E0001741500017E6F7BC029
:1009200076F07CC077F07DC078F07EC079F077C03B
:1009300076F078C077F079C078F00001796B76C0F6
:100940007BF077C07CF078C07DF079C07EF07BC012
:1009500012FF000173A103D00F01118102D00F011A
:100960001191000173A303D00F01118302D00F0175
:100970001193000173A503D00F01118B02D00F0159
:10098000119B000173A703D00F01118D02D00F013D
:10099000119D000173A903D00F01118F02D00F0127
:1009A000119F71C076F072C077F073C078F074C098
:1009B00079F0160E06D00001D8907933783377336A
:1009C0007633E82EF8D776C07BF077C07CF078C01D
:1009D0007DF079C07EF000017B5100017B6F7C6B64
:1009E0007D6B7E6B7BC010FF050E00017A19D8A4C9
:1009F0001200F70E00017519D8A412000F01158717
:100A00000001715100017B6F7C6B7D6B7E6B7BC045
:100A100017FF000E0001711500017B6FFF0E000132
:100A2000721500017C6F000E0001731500017D6FCF
:100A3000000E0001741500017E6F7BC076F07CC053
:100A400077F07DC078F07EC079F077C076F078C01E
:100A500077F079C078F00001796B76C07BF077C0D1
:100A60007CF078C07DF079C07EF07BC016FF00017D
:100A700073A103D00F01158102D00F011591000160
:100A800073A303D00F01158302D00F01159300014A
:100A900073A503D00F01158B02D00F01159B000128
:100AA00073A703D00F01158D02D00F01159D000112
:100AB00073A903D00F01158F02D00F01159F71C0CC
:100AC00076F072C077F073C078F074C079F0160ECB
:100AD00006D00001D8907933783377337633E82E17
:100AE000F8D776C07BF077C07CF078C07DF079C015
:100AF0007EF000017B5100017B6F7C6B7D6B7E6B18
:100B00007BC014FF1200C70E0101346F000E0101FB
:100B1000356FB5EF89F0250E01014819D8B408D01A
:100B2000C3C0D9FFC4C0DAFF48C1DFFFB2EF89F00C
:100B3000000E0101376F000E366FC5C0F6FFC6C04C
:100B4000F7FF000EF86E0800F5502E0AD8A43DD02D
:100B50000101378D0001C54BC62B000E0101436F0B
:100B6000000E426F25D042C171F043C172F0000EF9
:100B70000001746F0A0E736F4CECB1F0C5C0F6FF44
:100B8000C6C0F7FF000EF86E0800F550000171278F
:100B9000000E00017223D00E000171250101426F89
:100BA000FF0E000172210101436F0001C54BC62BEE
:100BB000C5C0F6FFC6C0F7FF000EF86E0800F5507E
:100BC000B3ECB1F0D8A00CD0CED7000E0101436F2A
:100BD000000E426F0101378903D00101378515D01E
:100BE000C5C0F6FFC6C0F7FF0001C54BC62B000EFF
:100BF000F86E0800F5CF48F101014851000AD8B459
:100C0000C5D3660AD8B4E9D7B0D3070E01013715AA
:100C1000D8B453D3010137A905D0000E0101436FA9
:100C2000060E426F34C1D9FF35C1DAFFDECF44F181
:100C3000DECF45F1DECF46F1DECF47F1040E0101F4
:100C40003427000E3523010147AF15D044C198F079
:100C500045C199F046C19AF047C19BF030ECB1F024
:100C600098C044F199C045F19AC046F19BC047F144
:100C7000030E01013613000E01013D6F000E3C6FA3
:100C800001014451010145110101461101014711C2
:100C9000D8B48ED0010146354735820F01013C6F33
:100CA00001013D6BFF0E3D2301013C07D8A03D072C
:100CB0003CC171F03DC172F0000E0001746F030E73
:100CC000736F4CECB1F071C03CF172C03DF13CC1AE
:100CD00077F03DC178F0000E00017A6F0A0E796F4F
:100CE000FBECABF077C03CF178C03DF101013DAFCA
:100CF00004D001013C07D8A03D0701013C51000888
:100D00008AEC94F098C03EF199C03FF19AC040F14E
:100D10009BC041F13EC17FF03FC180F040C181F0F6
:100D200041C182F044C183F045C184F046C185F0E1
:100D300047C186F0F1EC9BF07FC03EF180C03FF1EF
:100D400081C040F182C041F13EC171F03FC172F0FB
:100D500040C173F041C174F0000E0001756F000EC8
:100D6000766F800E776F3F0E786FBCECA8F00001B5
:100D7000D8B005D001013C07D8A03D0719D03EC12D
:100D800071F03FC172F040C173F041C174F0000EC8
:100D90000001756F000E766F200E776F410E786F31
:100DA000BCECA8F00001D8A003D001013C4B3D2BC6
:100DB000010143BF08D00101435123E10D0E0101A0
:100DC000425DD8B01ED044C1A5F045C1A6F046C1D1
:100DD000A7F047C1A8F001014251F3ECA1F098C07F
:100DE000A9F099C0AAF09AC0ABF09BC0ACF09DEC02
:100DF00099F0A5C044F1A6C045F1A7C046F1A8C02E
:100E000047F101013DBF08D001013D512EE10A0E1D
:100E100001013C5DD8B029D00101445101014511C7
:100E20000101461101014711D8B46DD044C1B9F098
:100E300045C1BAF046C1BBF047C1BCF0FFECAAF017
:100E40000001B9510001BA110001BB110001BC1130
:100E5000D8A459D001013DBF56D001013D5105E153
:100E6000020E01013C5DD8A04ED03EC171F03FC1E1
:100E700072F040C173F041C174F05F0E0001756FF4
:100E8000700E766F890E776F400E786FBCECA8F00D
:100E90000001D8B003D00101F70E02D00101F80E15
:100EA0003C27FF0E3D2301013C518AEC94F098C091
:100EB0003EF199C03FF19AC040F19BC041F144C15D
:100EC00071F045C172F046C173F047C174F03EC184
:100ED00075F03FC176F040C177F041C178F084EC05
:100EE000A9F071C038F172C039F173C03AF174C021
:100EF0003BF1000E0101446F000E456F000E466F7E
:100F0000000E476F3CD044C1B9F045C1BAF046C1AC
:100F1000BBF047C1BCF0FFECAAF0B9C038F1BAC0D1
:100F200039F1BBC03AF1BCC03BF144C1B9F045C195
:100F3000BAF046C1BBF047C1BCF038C171F039C14D
:100F400072F03AC173F03BC174F0000E6CECA4F087
:100F500071C0BDF072C0BEF073C0BFF074C0C0F00D
:100F60008BECB0F0B9C044F1BAC045F1BBC046F15A
:100F7000BCC047F1000E01013D6F000E3C6F010E39
:100F80000101486F0A0E01014819D8B421D00101AE
:100F90004851040D310EF324F66EFE0EF420F76E68
:100FA000F86A000EF8220900F5500101385D0900C9
:100FB000F550010139590900F55001013A5909006C
:100FC000F55001013B59D8A003D00101482BDAD7D5
:100FD000030E010136150001CB6F000E010137151C
:100FE0000001CC6F0001CB510001CC11D8B458D016
:100FF000C3C0D9FFC4C0DAFF2D0E50D00001C34BCF
:10100000C42B4ED038C171F039C172F03AC173F0BF
:101010003BC174F001014851040D310EF324F66E0A
:10102000FE0EF420F76EF86A000EF8220900F5CFE4
:1010300075F00900F5CF76F00900F5CF77F00A00DA
:10104000F5CF78F0B9ECACF071C03EF172C03FF171
:1010500073C040F174C041F13EC171F03FC172F004
:1010600040C173F041C174F00A0E0001756F000EAB
:10107000766F000E776F000E786F6EECAEF071C079
:101080003EF172C03FF173C040F174C041F1010103
:101090003E51300FC3C0D9FFC4C0DAFFDF6EAED7F8
:1010A0000101480701014829D8B40ED0ABD7C3C00D
:1010B000D9FFC4C0DAFF300EDF6E0001C34BC42B72
:1010C00001013C07D8A03D0701013DBF07D0010148
:1010D0003D51EDE101013C05D8B0E9D7010143BF25
:1010E0000CD00101435105E1090E0101425DD8A078
:1010F00004D0080E0101486F02D042C148F101013D
:1011000048510101425F000E010148BFFF0E01017D
:10111000435B010148510101D8B409D0C3C0D9FFD4
:10112000C4C0DAFF2E0EDF6E0001C34BC42B0101D9
:1011300048518AEC94F098C030F199C031F19AC0CE
:1011400032F19BC033F144C183F045C184F046C104
:1011500085F047C186F030C17FF031C180F032C1E7
:1011600081F033C182F0F1EC9BF07FC0B9F080C018
:10117000BAF081C0BBF082C0BCF0FFECAAF0B9C0ED
:1011800038F1BAC039F1BBC03AF1BCC03BF17AD0FA
:1011900038C171F039C172F03AC173F03BC174F0DB
:1011A00001014851040D310EF324F66EFE0EF420B9
:1011B000F76EF86A000EF8220900F5CF75F0090005
:1011C000F5CF76F00900F5CF77F00A00F5CF78F08B
:1011D000B9ECACF071C03EF172C03FF173C040F1A8
:1011E00074C041F13EC171F03FC172F040C173F073
:1011F00041C174F00A0E0001756F000E766F000E8B
:10120000776F000E786F6EECAEF071C03EF172C079
:101210003FF173C040F174C041F101013E51300F04
:10122000C3C0D9FFC4C0DAFFDF6E0001C34BC42BBB
:1012300038C171F039C172F03AC173F03BC174F03A
:1012400001014851040D310EF324F66EFE0EF42018
:10125000F76EF86A000EF8220900F5CF75F0090064
:10126000F5CF76F00900F5CF77F00A00F5CF78F0EA
:101270006EECAEF071C038F172C039F173C03AF162
:1012800074C03BF10101480701014829D8B40ED0D0
:101290007FD7C3C0D9FFC4C0DAFF300EDF6E0001B4
:1012A000C34BC42B01014207D8A04307010142519F
:1012B00001014311D8B459D0ECD7010142510101C9
:1012C0004311D8A40DD00101385101013911010198
:1012D0003A1101013B11D8A403D00101424B432B29
:1012E000800E010148BF7F0E0001CB6F010142510A
:1012F0000101485D01014351800A0001CB59D8B07A
:1013000003D042C148F118D001014351800A0001C5
:10131000CB6F010148510101425D800E010148BFC0
:101320007F0E0001CB59D8B007D00101485101010F
:10133000426F436B42BF4307030E010136150001A4
:10134000CB6F000E010137150001CC6F0001CB51AE
:101350000001CC11D8B409D0C3C0D9FFC4C0DAFF92
:101360002D0EDF6E0001C34BC42BC5C0F6FFC6C0F7
:10137000F7FF0001C54BC62B000EF86E0800F5CF35
:1013800048F101014851D8A48BEF85F0C3C0D9FFC3
:10139000C4C0DAFF000EDF6E12000F0140B73FD16C
:1013A00077C045FF000178AD03D00F01458D02D015
:1013B0000F01459D000178A779D00001715100010E
:1013C0007D6F7E6B7F6B806B7DC044FF000E0001E4
:1013D000711500017D6FFF0E0001721500017E6F17
:1013E000000E0001731500017F6F000E00017415DF
:1013F0000001806F7DC079F07EC07AF07FC07BF005
:1014000080C07CF07AC079F07BC07AF07CC07BF041
:1014100000017C6B79C07DF07AC07EF07BC07FF0EC
:101420007CC080F07DC043FF000E0F01426F0F01B2
:101430004287000173A102D00F014281000173A312
:1014400002D00F014283000173A502D00F01428B2D
:10145000000173A702D00F01428D000173A902D0D1
:101460000F01428F71C079F072C07AF073C07BF0C7
:1014700074C07CF0160E06D00001D8907C337B330C
:101480007A337933E82EF8D779C07DF07AC07EF0D0
:101490007BC07FF07CC080F000017D5100017D6F3A
:1014A0007E6B7F6B806B7DC041FF59D00F014297EF
:1014B00071C079F072C07AF073C07BF074C07CF0B8
:1014C000040E06D00001D8907C337B337A33793315
:1014D000E82EF8D779C07DF07AC07EF07BC07FF02F
:1014E0007CC080F000017D5100017D6F7E6B7F6BC1
:1014F000806B7DC041FF070E0001711500017D6FFB
:10150000000E0001721500017E6F000E00017315C0
:1015100000017F6F000E000174150001806F7DC017
:1015200079F07EC07AF07FC07BF080C07CF0050E41
:10153000D890000179377A377B377C37E82EF8D797
:1015400079C07DF07AC07EF07BC07FF07CC080F0F7
:101550000F0142511F0B0F01426F7DC042FF00017E
:1015600078A103D00F01408102D00F01409100010A
:1015700078A303D00F01408302D00F01409375C0C0
:10158000D9FF76C0DAFFDF500F01466F000120EE71
:1015900001F07551D9267651DA22DF500F01476FDD
:1015A000000120EE02F07551D9267651DA22DF5083
:1015B0000F01486F000120EE03F07551D9267651D6
:1015C000DA22DF500F01496F000120EE04F075515F
:1015D000D9267651DA22DF500F014A6F000120EE42
:1015E00005F07551D9267651DA22DF500F014B6F85
:1015F000000120EE06F07551D9267651DA22DF502F
:101600000F014C6F000120EE07F07551D92676517D
:10161000DA22DF500F014D6F0F01408712000F01DA
:1016200030B73FD177C035FF000178AD03D00F014F
:10163000358D02D00F01359D000178A779D00001CA
:10164000715100017D6F7E6B7F6B806B7DC034FFBD
:10165000000E0001711500017D6FFF0E0001721573
:1016600000017E6F000E0001731500017F6F000EF8
:10167000000174150001806F7DC079F07EC07AF0A2
:101680007FC07BF080C07CF07AC079F07BC07AF0BC
:101690007CC07BF000017C6B79C07DF07AC07EF06D
:1016A0007BC07FF07CC080F07DC033FF000E0F0157
:1016B000326F0F013287000173A102D00F01328116
:1016C000000173A302D00F013283000173A502D081
:1016D0000F01328B000173A702D00F01328D000180
:1016E00073A902D00F01328F71C079F072C07AF005
:1016F00073C07BF074C07CF0160E06D00001D89049
:101700007C337B337A337933E82EF8D779C07DF098
:101710007AC07EF07BC07FF07CC080F000017D51FC
:1017200000017D6F7E6B7F6B806B7DC031FF59D078
:101730000F01329771C079F072C07AF073C07BF0FC
:1017400074C07CF0040E06D00001D8907C337B334B
:101750007A337933E82EF8D779C07DF07AC07EF0FD
:101760007BC07FF07CC080F000017D5100017D6F67
:101770007E6B7F6B806B7DC031FF070E00017115A2
:1017800000017D6F000E0001721500017E6F000EDA
:101790000001731500017F6F000E00017415000138
:1017A000806F7DC079F07EC07AF07FC07BF080C012
:1017B0007CF0050ED890000179377A377B377C377B
:1017C000E82EF8D779C07DF07AC07EF07BC07FF03C
:1017D0007CC080F00F0132511F0B0F01326F7DC0B2
:1017E00032FF000178A103D00F01308102D00F0138
:1017F0003091000178A303D00F01308302D00F0194
:10180000309375C0D9FF76C0DAFFDF500F01366F15
:10181000000120EE01F07551D9267651DA22DF5011
:101820000F01376F000120EE02F07551D926765175
:10183000DA22DF500F01386F000120EE03F07551FE
:10184000D9267651DA22DF500F01396F000120EEE0
:1018500004F07551D9267651DA22DF500F013A6F24
:10186000000120EE05F07551D9267651DA22DF50BD
:101870000F013B6F000120EE06F07551D92676511D
:10188000DA22DF500F013C6F000120EE07F07551A6
:10189000D9267651DA22DF500F013D6F0F013087D4
:1018A00012000F0120B7120077C025FF000178ADAC
:1018B00003D00F01258D02D00F01259D000178A7CF
:1018C00079D00001715100017D6F7E6B7F6B806B61
:1018D0007DC024FF000E0001711500017D6FFF0E19
:1018E0000001721500017E6F000E000173150001EA
:1018F0007F6F000E000174150001806F7DC079F0CC
:101900007EC07AF07FC07BF080C07CF07AC079F036
:101910007BC07AF07CC07BF000017C6B79C07DF0ED
:101920007AC07EF07BC07FF07CC080F07DC023FF5A
:10193000000E0F01226F0F012287000173A102D058
:101940000F012281000173A302D00F012283000145
:1019500073A502D00F01228B000173A702D00F01E3
:10196000228D000173A902D00F01228F71C079F07E
:1019700072C07AF073C07BF074C07CF0160E06D093
:101980000001D8907C337B337A337933E82EF8D753
:1019900079C07DF07AC07EF07BC07FF07CC080F0A3
:1019A00000017D5100017D6F7E6B7F6B806B7DC080
:1019B00021FF59D00F01229771C079F072C07AF0DF
:1019C00073C07BF074C07CF0040E06D00001D89088
:1019D0007C337B337A337933E82EF8D779C07DF0C6
:1019E0007AC07EF07BC07FF07CC080F000017D512A
:1019F00000017D6F7E6B7F6B806B7DC021FF070ECA
:101A00000001711500017D6F000E000172150001CB
:101A10007E6F000E0001731500017F6F000E000144
:101A200074150001806F7DC079F07EC07AF07FC0B0
:101A30007BF080C07CF0050ED890000179377A37B2
:101A40007B377C37E82EF8D779C07DF07AC07EF0FE
:101A50007BC07FF07CC080F00F0122511F0B0F0173
:101A6000226F7DC022FF000178A103D00F012081E9
:101A700002D00F012091000178A303D00F01208331
:101A800002D00F01209375C0D9FF76C0DAFFDF5076
:101A90000F01266F000120EE01F07551D926765115
:101AA000DA22DF500F01276F000120EE02F075519E
:101AB000D9267651DA22DF500F01286F000120EE7F
:101AC00003F07551D9267651DA22DF500F01296FC4
:101AD000000120EE04F07551D9267651DA22DF504C
:101AE0000F012A6F000120EE05F07551D9267651BD
:101AF000DA22DF500F012B6F000120EE06F0755146
:101B0000D9267651DA22DF500F012C6F000120EE2A
:101B100007F07551D9267651DA22DF500F012D6F6B
:101B20000F0120871200CBECADF0CF0E0001CD6F7E
:101B3000F70ECE6F330ECF6F3F0ED06F000E000149
:101B4000D16F000ED26F700ED36F410ED46F000EA6
:101B50000001EB6F0DECB2F037ECB2F029ECB2F013
:101B60004CB49AD0010E0001E56F000E0001E46F45
:101B7000000EE36F5A0E0001EC6F030E0001EA6FD6
:101B800017ECADF0839C839A100E48ECAAF0010E7E
:101B900085ECABF07F0E0001826FFF0E0001836FBA
:101BA00067ECB1F0020E85ECABF0550E0001826FD0
:101BB000FF0E0001836F67ECB1F0030E85ECABF014
:101BC000980E0001826FFE0E0001836F67ECB1F08A
:101BD000040E85ECABF07F0E0001826FFF0E00015A
:101BE000836F67ECB1F054D0D9C049F1DAC04AF143
:101BF000DBC04BF1DCC04CF10101491F4A1F4B1FF8
:101C00004C1F492B000E4A234B234C231D5001012E
:101C1000492501014D6F1E5001014A2101014E6FFE
:101C20001F5001014B2101014F6F205001014C2138
:101C30000101506F0101505101014F1101014E117D
:101C400005E11E0E01014D5DD8A019D01DC0D9F0CF
:101C50001EC0DAF01FC0DBF020C0DCF083AE02D083
:101C6000010E01D0000EFF0A0101496F0101493345
:101C700049338350010149197F0B4919836E0DECDB
:101C8000B2F0000E0001786F0A0E776F13ECB1F01E
:101C90004CA4AAD7839E4B8E80A404D0000E0001D2
:101CA000E96F0DD080B605D0010E0001E96F010E7D
:101CB00004D0020E0001E96F000E0001E56F4BA495
:101CC000C4D04D944DA24BB62DD04C96010E0001C0
:101CD000E76F000E0001D16F000ED26F800ED36F40
:101CE0003F0ED46FDBECB1F00009D8B4FBD7010E86
:101CF0000101286F0A0E0001716F000E726F000E55
:101D0000736F000E746F280E0001756F010E0001D5
:101D1000766F080E0001776FBC0E0001786FCDEC76
:101D200089F04D824BB64CA629D04CA827D04DB691
:101D300026D0040E0001E66F020E0001E76FDBEC17
:101D4000B1F00009D8B4FBD70C0E0001716F000E82
:101D5000726F000E736F000E746F290E0001756FA5
:101D6000000E0001766F080E0001776FBC0E0001B7
:101D7000786FCDEC89F04D924D8601D04D9615C00F
:101D800049F116C04AF117C04BF118C04CF10101DE
:101D9000491F4A1F4B1F4C1F492B000E4A234B2340
:101DA0004C231D500101492501014D6F1E500101B9
:101DB0004A2101014E6F1F5001014B2101014F6F5C
:101DC000205001014C210101506F010150510101CE
:101DD0004F1101014E1105E11E0E01014D5DD8A00C
:101DE0006CD01DC015F01EC016F01FC017F020C02B
:101DF00018F04CB613D083AC02D0010E01D0000E07
:101E0000FF0A0101496F0101493B49474947835096
:101E100001014919BF0B4919836E4ED0838C4BB613
:101E200012D083AA02D0010E01D0000EFF0A0101D8
:101E3000496F0101493B4947835001014919DF0BB3
:101E40004919836E3AD0838A38D04D924D964C9280
:101E50004B964C964C98839A839C4DB42CD0000E94
:101E60000001E76F000E0001D16F000ED26F700EFF
:101E7000D36F410ED46FDBECB1F00009D8B4FBD7BF
:101E8000000E0101286F0A0E0001716F000E726FC3
:101E9000000E736F000E746F280E0001756F010E37
:101EA0000001766F080E0001776FBC0E0001786F9D
:101EB000CDEC89F04D84839C839A3BECB0F0000E0E
:101EC0000001A96F000EAA6F340EAB6F430EAC6F0A
:101ED000CDC083F0CEC084F0CFC085F0D0C086F0F6
:101EE0000001DD510001716F726B736B746B000E3A
:101EF0006CECA4F071C07FF072C080F073C081F010
:101F000074C082F0F1EC9BF07FC098F080C099F033
:101F100081C09AF082C09BF030ECB1F098C0A5F07F
:101F200099C0A6F09AC0A7F09BC0A8F09DEC99F0CC
:101F3000A5C0B9F0A6C0BAF0A7C0BBF0A8C0BCF05D
:101F4000FFECAAF00001B9510001EC6F0001E705B8
:101F5000D8A45CD04CAA0FD00001E851ECC049F1E4
:101F600001014A6B01014927000E4A2349C1D5F0FE
:101F70004AC1D6F01BD00001E8510101496F4A6BFC
:101F80000101491F4A1F494B4A2B0001EC51010135
:101F90004B6F4C6B0101495101014B2701014A5123
:101FA00001014C234BC1D5F04CC1D6F00001000E0D
:101FB000D6BFFF0ED76FD86F0001D8BF12D0000177
:101FC000D8BF0CD00001D8510001D7110001D611A3
:101FD00008E1B50E0001D55DD8B003D0D5C0ECF056
:101FE00019D00001D8BF0ED00001D8510001D7117F
:101FF0000001D61105E1B50E0001D55DD8A002D0D3
:10200000B40E01D0000E0001EC6F04D04C9A000E0B
:102010000001E86F0001E951D8B461D0840E0001DD
:10202000DE6542D0D1C083F0D2C084F0D3C085F049
:10203000D4C086F07E0E0101496FFF0E01014A6F88
:102040000001DE5101014B6F4C6B0101495101014F
:102050004B2701014A5101014C234BC171F04CC186
:1020600072F00001000E72BFFF0E736F746F010EED
:102070006CECA4F071C07FF072C080F073C081F08E
:1020800074C082F0F1EC9BF07FC0B9F080C0BAF070
:1020900081C0BBF082C0BCF0FFECAAF0B9C0E3F095
:1020A000BAC0E4F0030E18D0000E0001E46F000E79
:1020B000E36F420E0001DE6103D0020E0001EA6F01
:1020C000150E0001DE6103D0010E0001EA6F060E5D
:1020D0000001DE610BD008D00001EA6F07D0000ECE
:1020E0000001E46F000EE36F000EF6D74CA003D0A2
:1020F00074ECADF04C9009C049F10AC04AF10BC034
:102100004BF10CC04CF10101491F4A1F4B1F4C1FE2
:10211000492B000E4A234B234C231D500101492516
:1021200001014D6F1E5001014A2101014E6F1F50E8
:1021300001014B2101014F6F205001014C21010190
:10214000506F0101505101014F1101014E1105E184
:10215000020E01014D5DD8A004D0010E0001E6651C
:1021600002D04BA21ED04BA212D0010E0001E56F8F
:10217000000E0001E46F000EE36F5A0E0001EC6FD9
:10218000000E0001EA6F000E0001EB6F4B921DC0C4
:1021900009F01EC00AF01FC00BF020C00CF017ECB5
:1021A000ADF019501D5C1A501E581B501F581C5082
:1021B0002058D8A05BD00DC049F10EC04AF10FC025
:1021C0004BF110C04CF10101491F4A1F4B1F4C1F1E
:1021D000492B000E4A234B234C231D500101492556
:1021E00001014D6F1E5001014A2101014E6F1F5028
:1021F00001014B2101014F6F205001014C210101D0
:10220000506F0101505101014F1101014E1105E1C3
:102210000A0E01014D5DD8A09DD41DC00DF01EC059
:102220000EF01FC00FF020C010F04CA21CD04B8E3F
:102230000001E651D8A404D0A6ECAFF00001E62BD3
:10224000020E0001E619D8A404D074ECAFF000012E
:10225000E62B040E0001E619D8A47CD442ECAFF0C2
:102260000001E62B77D416ECA7F074D4060E00011B
:10227000E619D8A46FD4D8ECAFF0000E0001E66FD9
:102280004C9268D40F0140B715D141C045FF42AC14
:1022900003D00F01458D02D00F01459D42A666D0A7
:1022A0003B50476E486A496A4A6A47C044FF000E7D
:1022B0003B14476EFF0E3C14486E000E3D14496EF1
:1022C000000E3E144A6E47C043F048C044F049C077
:1022D00045F04AC046F044C043F045C044F046C013
:1022E00045F0466A43C047F044C048F045C049F055
:1022F00046C04AF047C043FF000E0F01426F0F0176
:1023000042873DA002D00F0142813DA202D00F01C1
:1023100042833DA402D00F01428B3DA602D00F01A3
:10232000428D3DA802D00F01428F3BC043F03CC01C
:1023300044F03DC045F03EC046F0160E05D0D890A2
:102340004632453244324332E82EF9D743C047F093
:1023500044C048F045C049F046C04AF04750476E77
:10236000486A496A4A6A47C041FF4DD00F01429707
:102370003BC043F03CC044F03DC045F03EC046F099
:10238000040E05D0D8904632453244324332E82E0E
:10239000F9D743C047F044C048F045C049F046C0B3
:1023A0004AF04750476E486A496A4A6A47C041FF47
:1023B000070E3B14476E000E3C14486E000E3D1491
:1023C000496E000E3E144A6E47C043F048C044F0C8
:1023D00049C045F04AC046F0050ED8904336443611
:1023E00045364636E82EF9D743C047F044C048F09A
:1023F00045C049F046C04AF00F0142511F0B0F0182
:10240000426F47C042FF42A003D00F01408102D07B
:102410000F01409142A203D00F01408302D00F016F
:1024200040933FC0D9FF40C0DAFFDF500F01466F35
:1024300020EE01F03F50D9264050DA22DF500F0144
:10244000476F20EE02F03F50D9264050DA22DF508D
:102450000F01486F20EE03F03F50D9264050DA229A
:10246000DF500F01496F20EE04F03F50D926405055
:10247000DA22DF500F014A6F20EE05F03F50D926D7
:102480004050DA22DF500F014B6F20EE06F03F5034
:10249000D9264050DA22DF500F014C6F20EE07F0B2
:1024A0003F50D9264050DA22DF500F014D6F0F0107
:1024B000408712000F0130B715D141C035FF42AC43
:1024C00003D00F01358D02D00F01359D42A666D095
:1024D0003B50476E486A496A4A6A47C034FF000E5B
:1024E0003B14476EFF0E3C14486E000E3D14496EBF
:1024F000000E3E144A6E47C043F048C044F049C045
:1025000045F04AC046F044C043F045C044F046C0E0
:1025100045F0466A43C047F044C048F045C049F022
:1025200046C04AF047C033FF000E0F01326F0F0163
:1025300032873DA002D00F0132813DA202D00F01AF
:1025400032833DA402D00F01328B3DA602D00F0191
:10255000328D3DA802D00F01328F3BC043F03CC00A
:1025600044F03DC045F03EC046F0160E05D0D89070
:102570004632453244324332E82EF9D743C047F061
:1025800044C048F045C049F046C04AF04750476E45
:10259000486A496A4A6A47C031FF4DD00F013297F5
:1025A0003BC043F03CC044F03DC045F03EC046F067
:1025B000040E05D0D8904632453244324332E82EDC
:1025C000F9D743C047F044C048F045C049F046C081
:1025D0004AF04750476E486A496A4A6A47C031FF25
:1025E000070E3B14476E000E3C14486E000E3D145F
:1025F000496E000E3E144A6E47C043F048C044F096
:1026000049C045F04AC046F0050ED89043364436DE
:1026100045364636E82EF9D743C047F044C048F067
:1026200045C049F046C04AF00F0132511F0B0F015F
:10263000326F47C032FF42A003D00F01308102D079
:102640000F01309142A203D00F01308302D00F015D
:1026500030933FC0D9FF40C0DAFFDF500F01366F23
:1026600020EE01F03F50D9264050DA22DF500F0112
:10267000376F20EE02F03F50D9264050DA22DF506B
:102680000F01386F20EE03F03F50D9264050DA2278
:10269000DF500F01396F20EE04F03F50D926405033
:1026A000DA22DF500F013A6F20EE05F03F50D926B5
:1026B0004050DA22DF500F013B6F20EE06F03F5012
:1026C000D9264050DA22DF500F013C6F20EE07F090
:1026D0003F50D9264050DA22DF500F013D6F0F01E5
:1026E000308712000F0120B7120041C025FF42AC15
:1026F00003D00F01258D02D00F01259D42A666D083
:102700003B50476E486A496A4A6A47C024FF000E38
:102710003B14476EFF0E3C14486E000E3D14496E8C
:10272000000E3E144A6E47C043F048C044F049C012
:1027300045F04AC046F044C043F045C044F046C0AE
:1027400045F0466A43C047F044C048F045C049F0F0
:1027500046C04AF047C023FF000E0F01226F0F0151
:1027600022873DA002D00F0122813DA202D00F019D
:1027700022833DA402D00F01228B3DA602D00F017F
:10278000228D3DA802D00F01228F3BC043F03CC0F8
:1027900044F03DC045F03EC046F0160E05D0D8903E
:1027A0004632453244324332E82EF9D743C047F02F
:1027B00044C048F045C049F046C04AF04750476E13
:1027C000486A496A4A6A47C021FF4DD00F012297E3
:1027D0003BC043F03CC044F03DC045F03EC046F035
:1027E000040E05D0D8904632453244324332E82EAA
:1027F000F9D743C047F044C048F045C049F046C04F
:102800004AF04750476E486A496A4A6A47C021FF02
:10281000070E3B14476E000E3C14486E000E3D142C
:10282000496E000E3E144A6E47C043F048C044F063
:1028300049C045F04AC046F0050ED89043364436AC
:1028400045364636E82EF9D743C047F044C048F035
:1028500045C049F046C04AF00F0122511F0B0F013D
:10286000226F47C022FF42A003D00F01208102D077
:102870000F01209142A203D00F01208302D00F014B
:1028800020933FC0D9FF40C0DAFFDF500F01266F11
:1028900020EE01F03F50D9264050DA22DF500F01E0
:1028A000276F20EE02F03F50D9264050DA22DF5049
:1028B0000F01286F20EE03F03F50D9264050DA2256
:1028C000DF500F01296F20EE04F03F50D926405011
:1028D000DA22DF500F012A6F20EE05F03F50D92693
:1028E0004050DA22DF500F012B6F20EE06F03F50F0
:1028F000D9264050DA22DF500F012C6F20EE07F06E
:102900003F50D9264050DA22DF500F012D6F0F01C2
:10291000208712000001A06F0001A0AF45D1000187
:10292000A06D0001A051800A120FD8A0BBD0000EEC
:1029300000017A6F0A0E796F000E0001746F640E49
:10294000736F0001A0510001716F726B71BF72074C
:102950001DECAEF071C077F072C078F0FBECABF01C
:102960000001D890773778370001D89077377837DB
:10297000240E00017727000E00017823C90E000104
:102980007725F66EFD0E00017821F76EF86A000ECD
:10299000F8220900F5CF83F00900F5CF84F0090093
:1029A000F5CF85F00A00F5CF86F0000E00017A6FB2
:1029B000640E796F0001A0510001776F786B77BFCB
:1029C0007807FBECABF00001D8907737783700013F
:1029D000D89077377837480E00017727000E00012E
:1029E0007823C90E00017725F66EFD0E00017821CF
:1029F000F76EF86A000EF8220900F5CF7FF00900A3
:102A0000F5CF80F00900F5CF81F00A00F5CF82F014
:102A1000F1EC9BF07FC09CF080C09DF081C09EF0E7
:102A200082C09FF09CC07FF09DC080F09EC081F06E
:102A30009FC082F0000E0001746F0A0E736F0001D8
:102A4000A0510001716F726B71BF72071DECAEF087
:102A50000001D890713772370001D8907137723702
:102A6000C90E00017125F66EFD0E00017221F76E90
:102A7000F86A000EF8220900F5CF83F00900F5CFBF
:102A800084F00900F5CF85F00A00F5CF86F0F1EC6F
:102A90009BF07FC098F080C099F081C09AF082C00E
:102AA0009BF012000001A051800A750FD8A063D0DE
:102AB000000E00017A6F0A0E796F0001A05100012B
:102AC000776F786B77BF7807FBECABF00001D8909D
:102AD000773778370001D89077377837240E0001A0
:102AE0007727000E00017823C90E00017725F66EC6
:102AF000FD0E00017821F76EF86A000EF822090039
:102B0000F5CF7FF00900F5CF80F00900F5CF81F017
:102B10000A00F5CF82F0000E0001746F0A0E736F89
:102B20000001A0510001716F726B71BF72071DEC43
:102B3000AEF00001D890713772370001D89071372C
:102B40007237C90E00017125F66EFD0E000172216B
:102B5000F76EF86A000EF8220900F5CF83F009003D
:102B6000F5CF84F00900F5CF85F00A00F5CF86F0A7
:102B7000F1EC9BF08ED70001A051040DC90EF32497
:102B8000F66EFD0EF420F76EF86A000EF8220900CA
:102B9000F5CF98F00900F5CF99F00900F5CF9AF03C
:102BA0000A00F5CF9BF012000001A051800A120F1D
:102BB000D8A0BBD0000E00017A6F0A0E796F000E0C
:102BC0000001746F640E736F0001A0510001716FFA
:102BD000726B71BF72071DECAEF071C077F072C0FE
:102BE00078F0FBECABF00001D89077377837000134
:102BF000D89077377837240E00017727000E000130
:102C00007823FD0E00017725F66EFD0E0001782178
:102C1000F76EF86A000EF8220900F5CF83F009007C
:102C2000F5CF84F00900F5CF85F00A00F5CF86F0E6
:102C3000000E00017A6F640E796F0001A05100014F
:102C4000776F786B77BF7807FBECABF00001D8901B
:102C5000773778370001D89077377837480E0001FA
:102C60007727000E00017823FD0E00017725F66E10
:102C7000FD0E00017821F76EF86A000EF8220900B7
:102C8000F5CF7FF00900F5CF80F00900F5CF81F096
:102C90000A00F5CF82F0F1EC9BF07FC09CF080C081
:102CA0009DF081C09EF082C09FF09CC07FF09DC0CF
:102CB00080F09EC081F09FC082F0000E0001746F12
:102CC0000A0E736F0001A0510001716F726B71BF2A
:102CD00072071DECAEF00001D89071377237000119
:102CE000D89071377237FD0E00017125F66EFD0E1A
:102CF00000017221F76EF86A000EF8220900F5CF84
:102D000083F00900F5CF84F00900F5CF85F00A00C3
:102D1000F5CF86F0F1EC9BF07FC098F080C099F081
:102D200081C09AF082C09BF012000001A051800A7D
:102D3000750FD8A063D0000E00017A6F0A0E796F6C
:102D40000001A0510001776F786B77BF7807FBEC2B
:102D5000ABF00001D890773778370001D8907737FB
:102D60007837240E00017727000E00017823FD0E2E
:102D700000017725F66EFD0E00017821F76EF86AE6
:102D8000000EF8220900F5CF7FF00900F5CF80F0A2
:102D90000900F5CF81F00A00F5CF82F0000E0001A6
:102DA000746F0A0E736F0001A0510001716F726B96
:102DB00071BF72071DECAEF00001D8907137723709
:102DC0000001D89071377237FD0E00017125F66E43
:102DD000FD0E00017221F76EF86A000EF82209005C
:102DE000F5CF83F00900F5CF84F00900F5CF85F029
:102DF0000A00F5CF86F0F1EC9BF08ED70001A051D0
:102E0000040DFD0EF324F66EFD0EF420F76EF86A45
:102E1000000EF8220900F5CF98F00900F5CF99F0DF
:102E20000900F5CF9AF00A00F5CF9BF01200000ED2
:102E3000456E74BE458074BC45820F0150AF43D1CE
:102E40003BC0D9FF3CC0DAFFDE6ADE6ADE6ADD6ABB
:102E500020EE04F03B50D9263C50DA2256CFDFFF5B
:102E600020EE05F03B50D9263C50DA2257CFDFFF49
:102E700020EE06F03B50D9263C50DA2258CFDFFF37
:102E800020EE07F03B50D9263C50DA2259CFDFFF25
:102E900020EE08F03B50D9263C50DA225ACFDFFF13
:102EA00020EE09F03B50D9263C50DA225BCFDFFF01
:102EB00020EE0AF03B50D9263C50DA225CCFDFFFEF
:102EC00020EE0BF03B50D9263C50DA225DCFDFFFDD
:102ED00020EE0EF03B50D9263C50DA220F0155ADC2
:102EE00002D0010E01D0000EDF6E20EE0DF03B503F
:102EF000D9263C50DA220F0155510F0BDF6E20EE20
:102F00000CF03B50D9263C50DA220F0152A702D0D8
:102F1000010E01D0000EDF6E0F0152B744D051CF29
:102F20003DF03E6A3F6A406A030ED8903D363E3619
:102F30003F364036E82EF9D73BC0D9FF3CC0DAFF18
:102F40003DC0DEFF3EC0DEFF3FC0DEFF40C0DEFF13
:102F50000F015239E842070B070B466E3BC0D9FF01
:102F60003CC0DAFFDECF3DF0DECF3EF0DECF3FF0FB
:102F7000DECF40F046503D24416E000E3E20426EB2
:102F8000000E3F20436E000E4020446E3BC0D9FF30
:102F90003CC0DAFF41C0DEFF42C0DEFF43C0DEFFBF
:102FA00044C0DEFF8DD054CF3DF03E6A3F6A406A98
:102FB0003BC0D9FF3CC0DAFF3DC0DEFF3EC0DEFFB4
:102FC0003FC0DEFF40C0DEFF53CF3DF03E6A3F6AA8
:102FD000406A3FC040F03EC03FF03DC03EF03D6A19
:102FE0003BC0D9FF3CC0DAFF3D50DE263E50DE221A
:102FF0003F50DE224050DE220F0152A10CD03BC0D8
:10300000D9FF3CC0DAFF000EDE12000EDE12010E08
:10301000DE12000EDE120F0152A30CD03BC0D9FF0E
:103020003CC0DAFF000EDE12000EDE12020EDE12CF
:10303000000EDE120F0152AB0CD03BC0D9FF3CC0DA
:10304000DAFF000EDE12000EDE12040EDE12000E9B
:10305000DE120F0152AD0CD03BC0D9FF3CC0DAFFED
:10306000000EDE12000EDE12080EDE12000EDE1260
:103070000F0152AF0CD03BC0D9FF3CC0DAFF000EAD
:10308000DE12000EDE12100EDE12000EDE1251CF26
:103090003DF03E6A3F6A406A150ED8903D363E3696
:1030A0003F364036E82EF9D73BC0D9FF3CC0DAFFA7
:1030B0003D50DE123E50DE123F50DE124050DE1216
:1030C0000F01509F120060AE12003BC0D9FF3CC000
:1030D000DAFFDE6ADE6ADE6ADD6A20EE04F03B506B
:1030E000D9263C50DA2266CFDFFF20EE05F03B50B8
:1030F000D9263C50DA2267CFDFFF20EE06F03B50A6
:10310000D9263C50DA2268CFDFFF20EE07F03B5093
:10311000D9263C50DA2269CFDFFF20EE08F03B5081
:10312000D9263C50DA226ACFDFFF20EE09F03B506F
:10313000D9263C50DA226BCFDFFF20EE0AF03B505D
:10314000D9263C50DA226CCFDFFF20EE0BF03B504B
:10315000D9263C50DA226DCFDFFF20EE0EF03B5037
:10316000D9263C50DA2265AC02D0010E01D0000E07
:10317000DF6E20EE0DF03B50D9263C50DA22655030
:103180000F0BDF6E20EE0CF03B50D9263C50DA22BC
:1031900062A602D0010E01D0000EDF6E62B643D0EF
:1031A00061CF3DF03E6A3F6A406A030ED8903D36DB
:1031B0003E363F364036E82EF9D73BC0D9FF3CC0FB
:1031C000DAFF3DC0DEFF3EC0DEFF3FC0DEFF40C095
:1031D000DEFF6238E842070B070B466E3BC0D9FFA3
:1031E0003CC0DAFFDECF3DF0DECF3EF0DECF3FF079
:1031F000DECF40F046503D24416E000E3E20426E30
:10320000000E3F20436E000E4020446E3BC0D9FFAD
:103210003CC0DAFF41C0DEFF42C0DEFF43C0DEFF3C
:1032200044C0DEFF88D064CF3DF03E6A3F6A406A0A
:103230003BC0D9FF3CC0DAFF3DC0DEFF3EC0DEFF31
:103240003FC0DEFF40C0DEFF63CF3DF03E6A3F6A15
:10325000406A3FC040F03EC03FF03DC03EF03D6A96
:103260003BC0D9FF3CC0DAFF3D50DE263E50DE2297
:103270003F50DE224050DE2262A00CD03BC0D9FF7E
:103280003CC0DAFF000EDE12000EDE12010EDE126E
:10329000000EDE1262A20CD03BC0D9FF3CC0DAFFA8
:1032A000000EDE12000EDE12020EDE12000EDE1224
:1032B00062AA0CD03BC0D9FF3CC0DAFF000EDE1280
:1032C000000EDE12040EDE12000EDE1262AC0CD016
:1032D0003BC0D9FF3CC0DAFF000EDE12000EDE124A
:1032E000080EDE12000EDE1262AE0CD03BC0D9FF1B
:1032F0003CC0DAFF000EDE12000EDE12100EDE12EF
:10330000000EDE1261CF3DF03E6A3F6A406A150E44
:10331000D8903D363E363F364036E82EF9D73BC092
:10332000D9FF3CC0DAFF3D50DE123E50DE123F5066
:10333000DE124050DE12609E12000001A851800B88
:103340000001B56F0001A851A8250001B76F000169
:10335000A7AF02D00001B7810001B7510001D8B476
:1033600012D00001B729D8A409D0000E0001A56F22
:10337000000EA66F000EA76F000EA86F0001A78FAA
:10338000000E000108D0000E0001A56F000EA66F10
:10339000000EA76F000EA86F0001AC51800B00015A
:1033A000B66F0001B5510001B619D8B402D00001C2
:1033B000B58D0001AC51AC250001B66F0001ABAF7B
:1033C00002D00001B6810001B6510001D8B412D07C
:1033D0000001B629D8A409D0000E0001A96F000E83
:1033E000AA6F000EAB6F000EAC6F0001AB8F000E2A
:1033F000000108D0000E0001A96F000EAA6F000E98
:10340000AB6F000EAC6F0001B7510001B65DD8B0D4
:1034100024D00001B5AD03D0800E0001B51BB7C0AC
:10342000B8F0B6C0B7F0B8C0B6F0A5C0B8F0A9C043
:10343000A5F0B8C0A9F0A6C0B8F0AAC0A6F0B8C060
:10344000AAF0A7C0B8F0ABC0A7F0B8C0ABF0A8C056
:10345000B8F0ACC0A8F0B8C0ACF0000E0001B86F76
:103460000001B7510001AD6FAE6B0001AD1FAE1F83
:10347000AD4BAE2B0001B6510001AF6FB06B000138
:10348000AD510001AF270001AE510001B023000192
:10349000B0BF3DD00001B05105E11A0E0001AF5D93
:1034A000D8A035D00001A5510001A6110001A71137
:1034B0000001A811D8B402D0010E01D0000E000105
:1034C000B86F000E0001A56F000EA66F000EA76F6B
:1034D000000EA86FB6C0B7F020D00001B8A107D089
:1034E0000001D890B83101090001B86F03D0000184
:1034F000D890B8330001A5A102D00001B88F000117
:10350000A835A833A733A633A5330001B72B000194
:10351000B6510001B75DD8A0E0D70001B5BD3FD0DE
:103520000001B7510001D8A40AD0000E0001A56F18
:10353000000EA66F000EA76F000EA86F120000010C
:10354000A9510001A5270001AA510001A6230001ED
:10355000AB510001A7230001AC510001A8230001D9
:10356000A8A1CCD00001B8A109D00001D890B833EF
:103570000001B85101090001B86F03D00001D890D3
:10358000B8330001A5A102D00001B88F0001A83511
:10359000A833A733A633A5330001B72BAFD0000162
:1035A000A9510001A55D0001AA510001A659000121
:1035B000AB510001A7590001A851800A0001AD6F6D
:1035C0000001AC51800A0001AD59D8B050D0A5C05F
:1035D000ADF0A6C0AEF0A7C0AFF0A8C0B0F000013B
:1035E000AD1FAE1FAF1FB01FAD2B000EAE23AF231C
:1035F000B0230001A9510001AD250001B16F000108
:10360000AA510001AE210001B26F0001AB510001CF
:10361000AF210001B36F0001AC510001B0210001E6
:10362000B46FFF0E0001B1250001A56FFF0E000170
:10363000B2210001A66FFF0E0001B3210001A76FA8
:10364000FF0E0001B4210001A86F800E0001B51B20
:103650000001B86D0001B8510001D8A418D0010EC6
:103660000001A527000EA623A723A82310D0000140
:10367000A9510001A55F0001AA510001A65B00014C
:10368000AB510001A75B0001AC510001A85B000138
:10369000A5510001A6110001A7110001A811D8A48D
:1036A0002AD00001B8510001D8A425D0000E000195
:1036B000A56F000EA66F000EA76F000EA86F120078
:1036C0000001D890A537A637A737A8370001B8AFB3
:1036D00002D00001A5810001B8A103D0D88000016B
:1036E00002D00001D890B8370001B7510001D8B41A
:1036F00002D00001B7070001A7AFE2D7000E00011A
:10370000B66F0001B8AF0DD0B8C0ADF07F0E0001AC
:10371000AD17D8A403D00001A5A103D0010E00016C
:10372000B66F0001B6510001D8B426D0010E0001D9
:10373000A527000EA623A723A8230001A8A11CD01B
:10374000A5C0ADF0A6C0AEF0A7C0AFF0A8C0B0F065
:103750000001B035B033AF33AE33AD33ADC0A5F0FB
:10376000AEC0A6F0AFC0A7F0B0C0A8F00001B72966
:10377000D8B402D00001B72B0001B729D8B405D0C6
:103780000001B7510001D8A411D0000E0001A56FAF
:10379000000EA66F000EA76F000EA86F0001B751B4
:1037A0000001D8A403D0000E0001B56F0001B7A13D
:1037B00003D00001A78F02D00001A79F0001D8907D
:1037C000B7310001A86F0001B5AF02D00001A88F8A
:1037D000A5C0A5F0A6C0A6F0A7C0A7F0A8C0A8F0F5
:1037E000120000018251800B00018B6F0001825199
:1037F00082250001916F000181AF02D0000191810B
:10380000000191510001D8B410D000019129D8A431
:1038100009D0000E00017F6F000E806F000E816FD7
:10382000000E826F0001818F09D0000E00017F6FB2
:10383000000E806F000E816F000E826F00018651B6
:10384000800B00018B1B00018651862500018C6FC7
:10385000000185AF02D000018C8100018C51000174
:10386000D8B410D000018C29D8A409D0000E0001D2
:10387000836F000E846F000E856F000E866F00014F
:10388000858F09D0000E0001836F000E846F000E3B
:10389000856F000E866F00018C510001D8B405D0F1
:1038A000000191510001D8A40AD0000E00017F6FE1
:1038B000000E806F000E816F000E826F12000001FB
:1038C000855100017F03F3CF96F0F4CF97F000010C
:1038D000965100018D6F8E6B8F6B906B000197512D
:1038E0000001926F936B946B956B00018451000102
:1038F0008003F3CF96F0F4CF97F0000196510001CA
:103900008D27000E8E238F239023000197510001F5
:103910009227000E932394239523000183510001E5
:103920008103F3CF96F0F4CF97F000019651000198
:103930008D27000E8E238F239023000197510001C5
:103940009227000E9323942395238FC090F08EC06E
:103950008FF08DC08EF000018D6B0001835100014E
:103960008003F3CF96F0F4CF97F000019651000159
:103970008D270001975100018E23000E00018F2337
:10398000000E000190230001845100017F03F3CF5A
:1039900096F0F4CF97F00001965100018D270001B9
:1039A000975100018E23000E00018F23000E0001AD
:1039B00090238FC090F08EC08FF08DC08EF00001EC
:1039C0008D6B0001835100017F03F3CF96F0F4CF9C
:1039D00097F00001965100018D27000197510001D9
:1039E0008E23000E00018F23000E000190230001A2
:1039F000855100018003F3CF96F0F4CF97F00001DA
:103A00009651000192270001975100019323000E67
:103A100000019423000E0001952300018451000150
:103A20008103F3CF96F0F4CF97F000019651000197
:103A300092270001975100019323000E0001942367
:103A4000000E000195230001855100018103F3CF91
:103A500096F0F4CF97F0000196510001876F0001B6
:103A600097510001886F0001896B00018A6B89C042
:103A70008AF088C089F087C088F00001876B000158
:103A80008751000192270001885100019323000112
:103A900089510001942300018A51000195238DC0B2
:103AA00087F08EC088F08FC089F090C08AF0190E20
:103AB00006D00001D8908A33893388338733E82EC3
:103AC000F8D70001875100019227000188510001B9
:103AD0009323000189510001942300018A510001C0
:103AE00095238FC090F08EC08FF08DC08EF00001B6
:103AF0008D6B00018C5191C087F00001886B000133
:103B00008727000E8823820E000187250001966F0B
:103B1000FF0E000188210001976F15D00001D89099
:103B20009237933794379537000190AF02D0000158
:103B300092810001D8908D378E378F3790370001F2
:103B40009607D8A09707000194AFE8D7000E0001B0
:103B50008C6F000190AF24D0FF0E00018D15000185
:103B6000876FFF0E00018E150001886FFF0E0001A8
:103B70008F150001896F7F0E0001901500018A6F7B
:103B800000018751000188110001891100018A118B
:103B9000D8A403D0000192A103D0010E00018C6FC4
:103BA00000018C510001D8B423D0010E00019227EE
:103BB000000E932394239523000195A119D092C060
:103BC00087F093C088F094C089F095C08AF0000116
:103BD0008A358A3389338833873387C092F088C027
:103BE00093F089C094F08AC095F00001964B972B12
:103BF000000197BF10D00001975104E10001962900
:103C0000D8A009D0000E0001926F000E936F800EB5
:103C1000946F7F0E2BD0000197BF07D00001975102
:103C200011E100019605D8B00DD0000E0001926F91
:103C3000000E936F000E946F000E956F000E000142
:103C40008B6F15D096C091F0FF0E00019217FF0EFA
:103C500093177F0E9417000E9517000191A102D0C3
:103C60000001948F0001D89091310001956F0001FF
:103C70008B510001951392C07FF093C080F094C0E7
:103C800081F095C082F0120000018251800B00018A
:103C90008B6F0001825182250001966F000181AF78
:103CA00002D000019681000196510001D8B412D0D3
:103CB00000019629D8A409D0000E00017F6F000EE4
:103CC000806F000E816F000E826F0001818F000EE9
:103CD000000108D0000E00017F6F000E806F000E03
:103CE000816F000E826F00018651800B00018B1BDB
:103CF0000001865186250001976F000185AF02D033
:103D000000019781000197510001D8B412D0000141
:103D10009729D8A409D0000E0001836F000E846F8C
:103D2000000E856F000E866F0001858F000E00016A
:103D300008D0000E0001836F000E846F000E856FA7
:103D4000000E866F0001835100018411000185116E
:103D500000018611D8A417D0000E00017F6F000E5D
:103D6000806F000E816F000E826F0001800E811344
:103D70007F0E82137FC07FF080C080F081C081F011
:103D800082C082F01200000196510001D8A412D026
:103D9000000E00017F6F000E806F000E816F000E1D
:103DA000826F7FC07FF080C080F081C081F082C0D0
:103DB00082F01200000197510001876F886B0001AB
:103DC000871F881F874B882B000196510001896F40
:103DD0008A6B000187510001892700018851000189
:103DE0008A237F0E000189250001906F000E0001DB
:103DF0008A210001916F7FC08CF080C08DF081C05E
:103E00008EF082C08FF0000E00017F6F000E806F79
:103E1000000E816F000E826F000E0001926F000E87
:103E2000936F000E946F000E956F000E0001976F58
:103E300042D0000197510001D8B417D00001D890AA
:103E40008C378D378E378F370001D8907F3780378A
:103E500081378237000195AF02D000017F810001D8
:103E6000D8909237933794379537000183510001EA
:103E70008C5D0001845100018D59000185510001C4
:103E80008E590001865100018F59D8A012D000012F
:103E9000958D0001835100018C5F00018451000168
:103EA0008D5B0001855100018E5B00018651000190
:103EB0008F5B0001972B190E00019765BAD700019F
:103EC0008C5100018D1100018E1100018F11D8B4A9
:103ED00018D00001928115D00001D8907F3780372B
:103EE00081378237000195AF02D000017F81000148
:103EF000D890923793379437953700019007D8A020
:103F00009107000181AFE8D7000E0001976F000113
:103F100095AF24D0FF0E000192150001876FFF0EB0
:103F2000000193150001886FFF0E00019415000138
:103F3000896F7F0E0001951500018A6F000187517E
:103F4000000188110001891100018A11D8A403D051
:103F500000017FA103D0010E0001976F000197516E
:103F60000001D8B423D0010E00017F27000E80236A
:103F700081238223000182A119D07FC087F080C0F5
:103F800088F081C089F082C08AF000018A358A33C6
:103F900089338833873387C07FF088C080F089C039
:103FA00081F08AC082F00001904B912B000191BFFB
:103FB00014D00001915104E100019029D8A00DD046
:103FC000000E0001916F9069000E00017F6F000EDE
:103FD000806F000E816F000E826F000191BF07D0CD
:103FE0000001915115E100019005D8B011D0000EEB
:103FF0000001916F000E906F000E00017F6F000EA8
:10400000806F000E816F000E826F000E00018B6FBB
:1040100090C096F0000196A103D00001818F02D0DC
:104020000001819F0001D89096310001826F00014C
:104030008B51000182137FC07FF080C080F081C06F
:1040400081F082C082F0120000017A6F00017A05CF
:10405000D8A456D000017529D8A452D071C076F0EA
:1040600072C077F073C078F074C079F0040E06D097
:104070000001D8907933783377337633E82EF8D748
:1040800076C07BF077C07CF078C07DF079C07EF0A0
:1040900000017B5100017B6F7C6B7D6B7E6B7BC075
:1040A00018FF070E0001711500017B6F000E000163
:1040B000721500017C6F000E0001731500017D6F09
:1040C000000E0001741500017E6F7BC076F07CC08D
:1040D00077F07DC078F07EC079F0050ED8900001B1
:1040E0007637773778377937E82EF8D776C07BF090
:1040F00077C07CF078C07DF079C07EF07BC019FF7E
:10410000020E00017A19D8A456D000017529D8A44E
:1041100052D071C076F072C077F073C078F074C07E
:1041200079F0040E06D00001D890793378337733D4
:104130007633E82EF8D776C07BF077C07CF078C075
:104140007DF079C07EF000017B5100017B6F7C6BBC
:104150007D6B7E6B7BC01CFF070E0001711500019B
:104160007B6F000E0001721500017C6F000E0001D4
:10417000731500017D6F000E0001741500017E6F44
:104180007BC076F07CC077F07DC078F07EC079F09F
:10419000050ED89000017637773778377937E82ED3
:1041A000F8D776C07BF077C07CF078C07DF079C01E
:1041B0007EF07BC01DFF00017A05D8A487D0F70EE2
:1041C00000017519D8A482D00001715100017B6FE4
:1041D0007C6B7D6B7E6B7BC01BFF000E000171153D
:1041E00000017B6FFF0E0001721500017C6F000E55
:1041F0000001731500017D6F000E000174150001B0
:104200007E6F7BC076F07CC077F07DC078F07EC09A
:1042100079F077C076F078C077F079C078F0000157
:10422000796B76C07BF077C07CF078C07DF079C088
:104230007EF07BC01AFF000173A103D00F0119812A
:1042400002D00F011991000173A303D00F0119834C
:1042500002D00F011993000173A503D00F01198B30
:1042600002D00F01199B000173A703D00F01198D14
:1042700002D00F01199D000173A903D00F01198FFE
:1042800002D00F01199F71C076F072C077F073C031
:1042900078F074C079F0160E06D00001D89079330A
:1042A000783377337633E82EF8D776C07BF077C053
:1042B0007CF078C07DF079C07EF000017B51000178
:1042C0007B6F7C6B7D6B7E6B7BC018FF020E0001E9
:1042D0007A19D8A41200F70E00017519D8A412009B
:1042E0000001715100017B6F7C6B7D6B7E6B7BC02D
:1042F0001FFF000E0001711500017B6FFF0E000112
:10430000721500017C6F000E0001731500017D6FB6
:10431000000E0001741500017E6F7BC076F07CC03A
:1043200077F07DC078F07EC079F077C076F078C005
:1043300077F079C078F00001796B76C07BF077C0B8
:104340007CF078C07DF079C07EF07BC01EFF00015C
:1043500073A103D00F011D8102D00F011D91000137
:1043600073A303D00F011D8302D00F011D93000121
:1043700073A503D00F011D8B02D00F011D9B0001FF
:1043800073A703D00F011D8D02D00F011D9D0001E9
:1043900073A903D00F011D8F02D00F011D9F71C0A3
:1043A00076F072C077F073C078F074C079F0160EB2
:1043B00006D00001D8907933783377337633E82EFE
:1043C000F8D776C07BF077C07CF078C07DF079C0FC
:1043D0007EF000017B5100017B6F7C6B7D6B7E6BFF
:1043E0007BC01CFF12000001A46F6D0E0001A465CC
:1043F000CDD0000E00017A6F0A0E796F000E000119
:10440000746F640E736FA4C071F00001726B1DECC9
:10441000AEF071C077F072C078F0FBECABF0000149
:10442000D890773778370001D89077377837240ECF
:1044300000017727000E00017823C90E00017725BF
:10444000F66EFD0E00017821F76EF86A000EF82274
:104450000900F5CF83F00900F5CF84F00900F5CF0E
:1044600085F00A00F5CF86F0000E00017A6F640E29
:10447000796FA4C077F00001786BFBECABF0000122
:10448000D890773778370001D89077377837480E4B
:1044900000017727000E00017823C90E000177255F
:1044A000F66EFD0E00017821F76EF86A000EF82214
:1044B0000900F5CF7FF00900F5CF80F00900F5CFB6
:1044C00081F00A00F5CF82F0F1EC9BF07FC0A0F004
:1044D00080C0A1F081C0A2F082C0A3F0000E000154
:1044E000746F0A0E736FA4C071F00001726B1DEC43
:1044F000AEF00001D890713772370001D890713753
:104500007237C90E00017125F66EFD0E0001722191
:10451000F76EF86A000EF8220900F5CF83F0090063
:10452000F5CF84F00900F5CF85F00A00F5CF86F0CD
:10453000A0C07FF0A1C080F0A2C081F0A3C082F033
:10454000F1EC9BF07FC09CF080C09DF081C09EF09C
:1045500082C09FF09CC07FF09DC080F09EC081F023
:104560009FC082F0000E0001836F000E846F000E6A
:10457000856F3F0E866FF1EC9BF07FC098F080C096
:1045800099F081C09AF082C09BF012000A0E0001DF
:10459000A46578D0000E0001746F0A0E736FA4C07A
:1045A00071F00001726B1DECAEF00001D890713714
:1045B00072370001D89071377237C90E000171252A
:1045C000F66EFD0E00017221F76EF86A000EF822F9
:1045D0000900F5CF83F00900F5CF84F00900F5CF8D
:1045E00085F00A00F5CF86F0000E00017A6F0A0E02
:1045F000796FA4C077F00001786BFBECABF00001A1
:10460000D890773778370001D89077377837240EED
:1046100000017727000E00017823C90E00017725DD
:10462000F66EFD0E00017821F76EF86A000EF82292
:104630000900F5CF7FF00900F5CF80F00900F5CF34
:1046400081F00A00F5CF82F0F1EC9BF07FC0A0F082
:1046500080C0A1F081C0A2F082C0A3F0A0C07FF012
:10466000A1C080F0A2C081F0A3C082F0000E0001C2
:10467000836F000E846F000E856F3F0E866FF1EC26
:104680009BF07BD70001A451040DC90EF324F66EF4
:10469000FD0EF420F76EF86A000EF8220900F5CF3F
:1046A0007FF00900F5CF80F00900F5CF81F00A0016
:1046B000F5CF82F0000E0001836F000E846F000EB4
:1046C000856F3F0E866FF1EC9BF07FC098F080C045
:1046D00099F081C09AF082C09BF01200E9CF64F09B
:1046E000EACF65F0E1CF66F0E2CF67F0D9CF68F0AE
:1046F000DACF69F0F3CF6AF0F4CF6BF0F6CF6CF05D
:10470000F7CF6DF0F8CF6EF0F5CF6FF0A4A2A4B0A4
:1047100001D0C4D050ECB2F00009D8B4BDD00D0E19
:104720003B6E010E3C6E17EC97F001011BA102D00D
:104730004B8A01D04B9A0DC105F00EC106F00FC196
:1047400007F010C108F04C80060E0518061007107F
:104750000810D8A41FD0000E0001706F070E0001D2
:10476000706501D017D000017051010D110EF324B6
:10477000D96E010EF420DA6E00017051010D000EA9
:10478000F324E16E010EF420E26EDFCFE7FF0001BB
:10479000702BE4D70B0E0518061007100810D8A4CC
:1047A0002DD001011105D8A408D08C844C864C98DA
:1047B0004B964C82000E0001E66F020E01011119AA
:1047C000D8A407D08C864C864C884B82020E000100
:1047D000E66F030E01011119D8A410D0060E0001D6
:1047E000E66F4B94C80E1D24196E000E1E201A6E23
:1047F000000E1F201B6E000E20201C6E0E0E0518D2
:10480000061007100810D8A408D0010112A102D088
:104810004C8A01D04C9A11C1E8F0AA0E0518061076
:1048200007100810D8A40BD012C125F0266A255015
:104830000001606F01011151256E60C026F0020E6B
:104840000518061007100810D8B44BAA25D01DC0B3
:1048500011F01EC012F01FC013F020C014F0030EA0
:10486000296E0D0EE82EFED700F0FEECB1F0E80642
:10487000D8A4FBD7020E3B6E000E3C6E000E3D6EC0
:10488000000E3E6E290E3F6E000E406E080E416E09
:10489000BC0E426E42EC91F0A492A4906FC0F5FF62
:1048A0006EC0F8FF6DC0F7FF6CC0F6FF6BC0F4FF81
:1048B0006AC0F3FF69C0DAFF68C0D9FF67C0E2FFD2
:1048C00066C0E1FF65C0EAFF64C0E9FF63C0FBFFAB
:1048D00062C0FAFF4E9211000001796F0001795118
:1048E0000001D8B41ED0000174AF1BD071C075F0A8
:1048F00072C076F073C077F074C078F00001751F55
:10490000761F771F781F752B000E76237723782369
:1049100075C07BF076C07CF077C07DF078C07EF00B
:1049200008D071C07BF072C07CF073C07DF074C0A1
:104930007EF000017151000172110001731100013C
:104940007411D8A40AD0000E0001716F000E726FAE
:10495000000E736F000E746F1200960E00017A6FD6
:1049600008D000017A2B0001D8907E337D337C3350
:104970007B33000E00017B150001756F000E0001F6
:104980007C150001766F000E00017D150001776F28
:10499000FE0E00017E150001786F000175510001C7
:1049A00076110001771100017811D8B410D0D9D751
:1049B00000017A2B010E00017B27000E7C237D2352
:1049C0007E230001D8907E337D337C337B33000E11
:1049D00000017B150001756F000E00017C150001C0
:1049E000766F000E00017D150001776FFF0E00014C
:1049F0007E150001786F00017551000176110001EC
:104A0000771100017811D8B409D0D2D700017A0704
:104A10000001D8907B377C377D377E3700017DBF22
:104A200004D0020E00017A61F1D700017AB109D0F9
:104A3000FF0E00017B17FF0E7C177F0E7D17FF0E08
:104A40007E170001D8907A337AC075F00001766B3A
:104A5000776B786B75C078F00001776B766B756B50
:104A60000001755100017B130001765100017C1398
:104A70000001775100017D130001785100017E1380
:104A8000000179510001D8B405D0000174AF02D003
:104A900000017E8F7BC071F07CC072F07DC073F02E
:104AA0007EC074F012000001886F800E45ECB2F0F9
:104AB000000E706E000E716E000E726E000181416C
:104AC000E842C00B0001816F0001815170120001AA
:104AD0008251701200018851711200017F39E84241
:104AE000F80B00017F6F00017F517112000183A557
:104AF000718C000183B1718E00018051721200012E
:104B000083B3728C00018351600B606E000183518E
:104B1000100BFF0AD8B4608460CF50FF000E000174
:104B2000716F000E726F000E736F000E746FF70ED0
:104B30000001756F010E24ECA0F0000E0001716FF2
:104B4000000E726F000E736F000E746FF70E00018F
:104B5000756F020E24ECA0F00FD0F70E0001896FE4
:104B600007D00001896900018A6928D0000189699C
:104B7000F70E00018A6F22D09F0E0001846FFF0E96
:104B80000001856F00018351600B0001866F876B08
:104B90000001845100018613000185510001871333
:104BA00000018751000AD8A4E1D700018651BF0A4D
:104BB000D8B4D7D7600AD8B4D0D7D8D7000E000160
:104BC000716F000E726F000E736F000E746F89C0EC
:104BD00075F0000E00EC80F0000E0001716F000E09
:104BE000726F000E736F000E746F89C075F0010E46
:104BF00000EC80F0000E0001716F000E726F000E6D
:104C0000736F000E746F8AC075F0020E00EC80F0B6
:104C1000000E0001716F000E726F000E736F000EB8
:104C2000746F8AC075F0030E00EC80F0000E000176
:104C3000716F000E726F000E736F000E746F8AC07A
:104C400075F0040E00EC80F0000E0001716F000E94
:104C5000726F000E736F000E746F8AC075F0050ED0
:104C600000EC80F0000E45ECB2F0120021EE07F0EF
:104C700010EE92F0050EDBCFE3FFE806FCE2920EA9
:104C80000001816F000E0001826F89C083F08AC02D
:104C900084F0000E0001866F0A0E856FAFECB0F055
:104CA00000018B510001D8B4B8D000018B51010D27
:104CB000920EF324D96E000EF420DA6E000EDF6E31
:104CC00070D000018B050001986F00019851000120
:104CD000D8B467D0FF0E00018D6FFF0E00018E6FFC
:104CE0000001985100018F6F906B00018D51000100
:104CF0008F2700018E5100019023920E00018F2515
:104D0000D96E000E00019021DA6E00019851010D5C
:104D1000920EF324E16E000EF420E26EDFCFE7FF87
:104D200000018C05D8A41DD0FF0E00018D6FFF0E71
:104D300000018E6F0001985100018F6F906B000190
:104D40008D5100018F2700018E5100019023920E9A
:104D500000018F25D96E000E00019021DA6E200E21
:104D60001CD0FF0E00018D6FFF0E00018E6F000141
:104D7000985100018F6F906B00018D5100018F27BA
:104D800000018E5100019023920E00018F25D96EF3
:104D9000000E00019021DA6E300EDF6E00019807E0
:104DA00094D7FF0E00018D6FFF0E00018E6F000182
:104DB0008B5100018F6F906B00018D5100018F2787
:104DC00000018E5100019023920E00018F25D96EB3
:104DD000000E00019021DA6E3A0EDF6072D7FF0EEE
:104DE00000018D6FFF0E00018E6F00018B510001DD
:104DF0008F6F906B00018D5100018F2700018E5144
:104E000000019023920E00018F25D96E000E000143
:104E10009021DA6E2F0EDF6454D7920E0001826F5C
:104E2000000E0001836FC8ECB1F01200DBECB1F0B2
:104E3000E806D8A4FBD7060E0001716F000E726F52
:104E4000000E736F000E746FEB0E0001756F000E95
:104E50000001766F080E0001776FFC0E0001786F7D
:104E6000CDEC89F0DFC071F0E0C072F00001736B2F
:104E7000746B000E6CECA4F071C07FF072C080F017
:104E800073C081F074C082F0000E0001836F000EC9
:104E9000846F8B0E856F430E866F44EC9EF07FC04F
:104EA00001F080C002F081C003F082C004F01C0E4B
:104EB0000001C36F010E0001C46FFA0E0001C56F3F
:104EC000FF0E0001C66F01C0C7F002C0C8F003C0EA
:104ED000C9F004C0CAF083EC85F0000E0101276F11
:104EE0004BAE32D0100E48ECAAF09AECB1F0010EA5
:104EF00085ECABF06A0E0001826FFF0E0001836F3C
:104F000067ECB1F0020E85ECABF0C80E0001826FC9
:104F1000FF0E0001836F67ECB1F0030E85ECABF080
:104F2000A90E0001826FFF0E0001836F67ECB1F0E4
:104F3000040E85ECABF0E40E0001826FFF0E000161
:104F4000836F67ECB1F04B9E020E0001806F0C0E78
:104F50001BECB2F00001E951D8B416D00001E50510
:104F6000D8A409D0F00E0001826FFF0E0001836FFC
:104F700067ECB1F011D0F50E0001826FFF0E000159
:104F8000836F67ECB1F008D0EB0E0001826FFF0E6B
:104F90000001836F67ECB1F0030E0001806F080E13
:104FA0001BECB2F01C0E0001826F010E0001836F3A
:104FB000C8ECB1F0040E0001806F070E1BECB2F0DC
:104FC00025C089F026C08AF0000E00018B6F010E0B
:104FD00000018C6F36ECA6F0120073C079F000016E
:104FE0007A6B7B6B000172350001793701E37A81BE
:104FF000000179510001816F00018151D8A40AD0CC
:10500000000E0001716F000E726F000E736F000EC4
:10501000746F120077C079F000017A6B7B6B00012E
:1050200076350001793701E37A8100017951000179
:10503000806F00018051D8A40AD0000E0001716F6A
:10504000000E726F000E736F000E746F120000017D
:10505000728FFF0E00017117FF0E00017217000E14
:10506000000173170001768FFF0E00017517FF0E08
:1050700000017617000E00017717000E00017C6F0B
:10508000000E7D6F000E7E6F000E7F6F7F0E0001A1
:10509000815F00018051980F0001815F180E0001AF
:1050A000806F0001D8907C377D377E377F370001D5
:1050B00075510001715D00017651000172590001C6
:1050C000775100017359D8A00ED00001755100012D
:1050D000715F000176510001725B000177510001A0
:1050E000735B00017C810001D89071377237733790
:1050F0000001802FD6D7000181AF1AD00001815165
:10510000800A970FD8B00AD0000E0001716F000E10
:10511000726F000E736F000E746F12000001D89052
:105120007F337E337D337C330001813FF7D71BD043
:10513000170E0001816512D0000E0001716F000E84
:10514000726F000E736F000E746F12000001D89022
:105150007C377D377E377F37000181070001815121
:105160000001D8A4F3D77CC071F07DC072F07EC07E
:1051700073F07FC074F01200000E00017115000181
:10518000796F000E0001721500017A6F800E000128
:10519000731500017B6F7F0E0001741500017C6F99
:1051A0000001795100017A1100017B1100017C118D
:1051B000D8A409D0000E0001716F000E726F000EAE
:1051C000736F000E746F000E000175150001796F8A
:1051D000000E0001761500017A6F800E0001771530
:1051E00000017B6F7F0E0001781500017C6F0001CC
:1051F000795100017A1100017B1100017C11D8A4C2
:1052000009D0000E0001756F000E766F000E776FEB
:10521000000E786F000174AF26D071C079F072C0B3
:105220007AF073C07BF074C07CF00001791F7A1FA4
:105230007B1F7C1F792B000E7A237B237C23000E9F
:10524000000179250001716F000E00017A21000133
:10525000726F000E00017B210001736F800E000150
:105260007C210001746F000178AF26D075C079F001
:1052700076C07AF077C07BF078C07CF00001791FAF
:105280007A1F7B1F7C1F792B000E7A237B237C23C4
:10529000000E000179250001756F000E00017A21D2
:1052A0000001766F000E00017B210001776F800EF8
:1052B00000017C210001786F000E0001711B000EBF
:1052C000721B000E731B800E741B000E0001751BF9
:1052D000000E761B000E771B800E781B00017551A7
:1052E0000001715D00017651000172590001775192
:1052F000000173590001785100017459D8B002D0EF
:10530000D8901200D8801200000173357435000166
:105310007E6F00017E51D8A40AD0000E0001716F8B
:10532000000E726F000E736F000E746F120000019A
:105330007735783500017D6F00017D51D8A40AD002
:10534000000E0001716F000E726F000E736F000E81
:10535000746F12000001738FFF0E00017117FF0EB2
:105360007217FF0E7317000E74170001778FFF0E70
:1053700000017517FF0E7617FF0E7717000E7817CE
:10538000000E0001796F000E7A6F000E7B6F000E29
:105390007C6F7F0E00017E5F00017D51A00F000138
:1053A0007E5F200E00017D6F0001D89079377A373B
:1053B0007B377C37000175510001715D000176512A
:1053C00000017259000177510001735900017851B1
:1053D00000017459D8A012D0000175510001715F0D
:1053E000000176510001725B000177510001735B8F
:1053F000000178510001745B000179810001D890AF
:10540000713772377337743700017D2FCDD70001A4
:105410007EAF1AD000017E51800A9F0FD8B00AD00B
:10542000000E0001716F000E726F000E736F000EA0
:10543000746F12000001D8907C337B337A33793358
:1054400000017E3FF7D71BD01F0E00017E6512D0F2
:10545000000E0001716F000E726F000E736F000E70
:10546000746F12000001D89079377A377B377C3718
:1054700000017E0700017E510001D8A4F3D779C056
:1054800071F07AC072F07BC073F07CC074F01200CF
:1054900000017F6F00017F515BECB2F08D948B9225
:1054A0008B90000E0001786F640E776F13ECB1F0F3
:1054B000000E0001796F010E00017A6F010E0001EC
:1054C0007B6F000EF6ECB0F0000E0001786F640EFA
:1054D000776F13ECB1F0000E0001796F010E00013F
:1054E0007A6F010E00017B6F000EF6ECB0F0000E3B
:1054F0000001786F0A0E776F13ECB1F0000E000117
:10550000796F010E00017A6F010E00017B6F000EB2
:10551000F6ECB0F0000E0001796F010E00017A6F19
:10552000000E00017B6F000EF6ECB0F0000E0001E3
:10553000796F010E00017A6F000E00017B6F000E83
:10554000F6ECB0F0000E0001796F000E00017A6FEA
:10555000000E00017B6F010EF6ECB0F0000E0001B2
:10556000796F000E00017A6F000E00017B6F000E54
:10557000F6ECB0F0000E0001796F000E00017A6FBA
:10558000000E00017B6F010EF6ECB0F0000E000182
:10559000796F000E00017A6F000E00017B6F000E24
:1055A000F6ECB0F0000E0001796F000E00017A6F8A
:1055B000010E00017B6F000EF6ECB0F0000E000152
:1055C000796F000E00017A6F000E00017B6F000EF4
:1055D000F6ECB0F0010E0001796F010E00017A6F58
:1055E000000E00017B6F000EF6ECB0F09AECB1F00B
:1055F000000E00017D6F000E81ECB1F01200000181
:10560000BB35BC350001C26F0001C251D8A40AD01D
:10561000000E0001B96F000EBA6F000EBB6F000ED6
:10562000BC6F1200B9C0BDF0BAC0BEF0BBC0BFF0C5
:10563000BCC0C0F0200E06D00001D890C033BF33EC
:10564000BE33BD33E82EF8D70001BD510001C16F54
:105650000001BB8FFF0E0001B917FF0EBA17FF0E36
:10566000BB17000EBC17960E0001C25F0001C2AF4F
:105670001AD00001C251800A970FD8B00AD0000E8C
:105680000001B96F000EBA6F000EBB6F000EBC6F49
:1056900012000001D890BC33BB33BA33B9330001D8
:1056A000C23FF7D71BD01F0E0001C26512D0000EFB
:1056B0000001B96F000EBA6F000EBB6F000EBC6F19
:1056C00012000001D890B937BA37BB37BC37000198
:1056D000C2070001C2510001D8A4F3D70001C15193
:1056E0000001D8B409D00001BC1FBB1FBA1FB96D9F
:1056F000000EBA23BB23BC23B9C0B9F0BAC0BAF0BC
:10570000BBC0BBF0BCC0BCF0120000017D6F64D018
:10571000000E0001796F000E00017A6F000E00018B
:105720007B6F010EF6ECB0F0000E0001796F000EF9
:1057300000017A6F000E00017B6F000EF6ECB0F0F6
:105740001200010E0001796F000E00017A6F000E49
:1057500000017B6F010EF6ECB0F0000E0001796FD6
:10576000000E00017A6F000E00017B6F000EF6EC58
:10577000B0F01200000E0001796F000E00017A6F88
:10578000010E00017B6F010EF6ECB0F0010E00017E
:10579000796F000E00017A6F000E00017B6F000E22
:1057A000F6ECB0F01200010E0001796F000E00015E
:1057B0007A6F010E00017B6F010EF6ECB0F0010E66
:1057C0000001796F000E00017A6F000E00017B6FFF
:1057D000000EF6ECB0F0120000017D51010AD8B4C1
